{"abi":[{"type":"constructor","inputs":[{"name":"newCartridgeBondUtilsAddress","type":"address","internalType":"address"},{"name":"maxSteps","type":"uint256","internalType":"uint256"}],"stateMutability":"nonpayable"},{"type":"function","name":"accounts","inputs":[{"name":"","type":"address","internalType":"address"},{"name":"","type":"address","internalType":"address"}],"outputs":[{"name":"","type":"uint256","internalType":"uint256"}],"stateMutability":"view"},{"type":"function","name":"addDapp","inputs":[{"name":"dapp","type":"address","internalType":"address"}],"outputs":[],"stateMutability":"nonpayable"},{"type":"function","name":"balanceOf","inputs":[{"name":"account","type":"address","internalType":"address"},{"name":"id","type":"uint256","internalType":"uint256"}],"outputs":[{"name":"","type":"uint256","internalType":"uint256"}],"stateMutability":"view"},{"type":"function","name":"balanceOfBatch","inputs":[{"name":"accounts","type":"address[]","internalType":"address[]"},{"name":"ids","type":"uint256[]","internalType":"uint256[]"}],"outputs":[{"name":"","type":"uint256[]","internalType":"uint256[]"}],"stateMutability":"view"},{"type":"function","name":"bondingCurveSteps","inputs":[{"name":"","type":"uint256","internalType":"uint256"}],"outputs":[{"name":"rangeMax","type":"uint128","internalType":"uint128"},{"name":"coefficient","type":"uint128","internalType":"uint128"}],"stateMutability":"view"},{"type":"function","name":"buyCartridges","inputs":[{"name":"cartridgeId","type":"bytes32","internalType":"bytes32"},{"name":"cartridgesToMint","type":"uint256","internalType":"uint256"},{"name":"maxCurrencyPrice","type":"uint256","internalType":"uint256"}],"outputs":[{"name":"currencyCost","type":"uint256","internalType":"uint256"}],"stateMutability":"payable"},{"type":"function","name":"cartridgeBondUtilsAddress","inputs":[],"outputs":[{"name":"","type":"address","internalType":"address"}],"stateMutability":"view"},{"type":"function","name":"cartridgeBondingCurveModelAddress","inputs":[],"outputs":[{"name":"","type":"address","internalType":"address"}],"stateMutability":"view"},{"type":"function","name":"cartridgeBonds","inputs":[{"name":"","type":"bytes32","internalType":"bytes32"}],"outputs":[{"name":"bond","type":"tuple","internalType":"struct BondUtils.BondData","components":[{"name":"currencyToken","type":"address","internalType":"address"},{"name":"steps","type":"tuple[]","internalType":"struct IBondingCurveModel.BondingCurveStep[]","components":[{"name":"rangeMax","type":"uint128","internalType":"uint128"},{"name":"coefficient","type":"uint128","internalType":"uint128"}]},{"name":"currencyBalance","type":"uint256","internalType":"uint256"},{"name":"currentSupply","type":"uint256","internalType":"uint256"},{"name":"currentPrice","type":"uint256","internalType":"uint256"},{"name":"consumePrice","type":"uint256","internalType":"uint256"},{"name":"unclaimed","type":"tuple","internalType":"struct BondUtils.UnclaimedFees","components":[{"name":"mint","type":"uint256","internalType":"uint256"},{"name":"burn","type":"uint256","internalType":"uint256"},{"name":"consume","type":"uint256","internalType":"uint256"},{"name":"royalties","type":"uint256","internalType":"uint256"},{"name":"undistributedRoyalties","type":"uint256","internalType":"uint256"}]},{"name":"count","type":"tuple","internalType":"struct BondUtils.BondCount","components":[{"name":"minted","type":"uint256","internalType":"uint256"},{"name":"burned","type":"uint256","internalType":"uint256"},{"name":"consumed","type":"uint256","internalType":"uint256"}]}]},{"name":"feeModel","type":"address","internalType":"address"},{"name":"feeConfig","type":"uint256","internalType":"uint256"},{"name":"cartridgeModel","type":"address","internalType":"address"},{"name":"cartridgeOwner","type":"address","internalType":"address"},{"name":"lastUpdate","type":"uint256","internalType":"uint256"},{"name":"eventData","type":"bytes","internalType":"bytes"}],"stateMutability":"view"},{"type":"function","name":"cartridgeBondsCreated","inputs":[{"name":"","type":"uint256","internalType":"uint256"}],"outputs":[{"name":"","type":"bytes32","internalType":"bytes32"}],"stateMutability":"view"},{"type":"function","name":"cartridgeModelAddress","inputs":[],"outputs":[{"name":"","type":"address","internalType":"address"}],"stateMutability":"view"},{"type":"function","name":"cartridgeOwnershipModelAddress","inputs":[],"outputs":[{"name":"","type":"address","internalType":"address"}],"stateMutability":"view"},{"type":"function","name":"cartridgesCount","inputs":[],"outputs":[{"name":"","type":"uint256","internalType":"uint256"}],"stateMutability":"view"},{"type":"function","name":"changeCartridgeModel","inputs":[{"name":"cartridgeId","type":"bytes32","internalType":"bytes32"},{"name":"newCartridgeModel","type":"address","internalType":"address"}],"outputs":[],"stateMutability":"nonpayable"},{"type":"function","name":"consumeCartridges","inputs":[{"name":"cartridgeId","type":"bytes32","internalType":"bytes32"},{"name":"cartridgesToConsume","type":"uint256","internalType":"uint256"}],"outputs":[{"name":"","type":"uint256","internalType":"uint256"}],"stateMutability":"nonpayable"},{"type":"function","name":"currencyTokenAddress","inputs":[],"outputs":[{"name":"","type":"address","internalType":"address"}],"stateMutability":"view"},{"type":"function","name":"dappAddresses","inputs":[{"name":"","type":"address","internalType":"address"}],"outputs":[{"name":"","type":"bool","internalType":"bool"}],"stateMutability":"view"},{"type":"function","name":"exists","inputs":[{"name":"cartridgeId","type":"bytes32","internalType":"bytes32"}],"outputs":[{"name":"","type":"bool","internalType":"bool"}],"stateMutability":"view"},{"type":"function","name":"feeConfig","inputs":[],"outputs":[{"name":"","type":"uint256","internalType":"uint256"}],"stateMutability":"view"},{"type":"function","name":"feeModelAddress","inputs":[],"outputs":[{"name":"","type":"address","internalType":"address"}],"stateMutability":"view"},{"type":"function","name":"getCartridgeData","inputs":[{"name":"cartridgeId","type":"bytes32","internalType":"bytes32"}],"outputs":[{"name":"","type":"bytes32","internalType":"bytes32"},{"name":"","type":"uint256","internalType":"uint256"},{"name":"","type":"bytes32","internalType":"bytes32"},{"name":"","type":"int256","internalType":"int256"}],"stateMutability":"view"},{"type":"function","name":"getCurrentBuyPrice","inputs":[{"name":"cartridgeId","type":"bytes32","internalType":"bytes32"},{"name":"tokensToMint","type":"uint256","internalType":"uint256"}],"outputs":[{"name":"","type":"uint256","internalType":"uint256"},{"name":"","type":"uint256","internalType":"uint256"},{"name":"","type":"uint256","internalType":"uint256"}],"stateMutability":"view"},{"type":"function","name":"getCurrentConsumePrice","inputs":[{"name":"cartridgeId","type":"bytes32","internalType":"bytes32"},{"name":"tokensToConsume","type":"uint256","internalType":"uint256"}],"outputs":[{"name":"","type":"uint256","internalType":"uint256"},{"name":"","type":"uint256","internalType":"uint256"}],"stateMutability":"view"},{"type":"function","name":"getCurrentSellPrice","inputs":[{"name":"cartridgeId","type":"bytes32","internalType":"bytes32"},{"name":"tokensToBurn","type":"uint256","internalType":"uint256"}],"outputs":[{"name":"","type":"uint256","internalType":"uint256"},{"name":"","type":"uint256","internalType":"uint256"},{"name":"","type":"uint256","internalType":"uint256"}],"stateMutability":"view"},{"type":"function","name":"isApprovedForAll","inputs":[{"name":"account","type":"address","internalType":"address"},{"name":"operator","type":"address","internalType":"address"}],"outputs":[{"name":"","type":"bool","internalType":"bool"}],"stateMutability":"view"},{"type":"function","name":"maxCartridgeSupply","inputs":[{"name":"cartridgeId","type":"bytes32","internalType":"bytes32"}],"outputs":[{"name":"","type":"uint128","internalType":"uint128"}],"stateMutability":"view"},{"type":"function","name":"maxSupply","inputs":[],"outputs":[{"name":"","type":"uint128","internalType":"uint128"}],"stateMutability":"view"},{"type":"function","name":"owner","inputs":[],"outputs":[{"name":"","type":"address","internalType":"address"}],"stateMutability":"view"},{"type":"function","name":"renounceOwnership","inputs":[],"outputs":[],"stateMutability":"nonpayable"},{"type":"function","name":"safeBatchTransferFrom","inputs":[{"name":"from","type":"address","internalType":"address"},{"name":"to","type":"address","internalType":"address"},{"name":"ids","type":"uint256[]","internalType":"uint256[]"},{"name":"values","type":"uint256[]","internalType":"uint256[]"},{"name":"data","type":"bytes","internalType":"bytes"}],"outputs":[],"stateMutability":"nonpayable"},{"type":"function","name":"safeTransferFrom","inputs":[{"name":"from","type":"address","internalType":"address"},{"name":"to","type":"address","internalType":"address"},{"name":"id","type":"uint256","internalType":"uint256"},{"name":"value","type":"uint256","internalType":"uint256"},{"name":"data","type":"bytes","internalType":"bytes"}],"outputs":[],"stateMutability":"nonpayable"},{"type":"function","name":"sellCartridges","inputs":[{"name":"cartridgeId","type":"bytes32","internalType":"bytes32"},{"name":"cartridgesToBurn","type":"uint256","internalType":"uint256"},{"name":"minCurrencyRefund","type":"uint256","internalType":"uint256"}],"outputs":[{"name":"","type":"uint256","internalType":"uint256"}],"stateMutability":"nonpayable"},{"type":"function","name":"setApprovalForAll","inputs":[{"name":"operator","type":"address","internalType":"address"},{"name":"approved","type":"bool","internalType":"bool"}],"outputs":[],"stateMutability":"nonpayable"},{"type":"function","name":"setCartridgeParams","inputs":[{"name":"cartridgeId","type":"bytes32","internalType":"bytes32"}],"outputs":[],"stateMutability":"nonpayable"},{"type":"function","name":"setCartridgeParamsCustom","inputs":[{"name":"cartridgeId","type":"bytes32","internalType":"bytes32"},{"name":"bondFeeConfig","type":"uint256","internalType":"uint256"},{"name":"stepRangesMax","type":"uint128[]","internalType":"uint128[]"},{"name":"stepCoefficients","type":"uint128[]","internalType":"uint128[]"},{"name":"creatorAllocation","type":"bool","internalType":"bool"}],"outputs":[],"stateMutability":"nonpayable"},{"type":"function","name":"setURI","inputs":[{"name":"newUri","type":"string","internalType":"string"}],"outputs":[],"stateMutability":"nonpayable"},{"type":"function","name":"supportsInterface","inputs":[{"name":"interfaceId","type":"bytes4","internalType":"bytes4"}],"outputs":[{"name":"","type":"bool","internalType":"bool"}],"stateMutability":"view"},{"type":"function","name":"totalCartridges","inputs":[],"outputs":[{"name":"","type":"uint256","internalType":"uint256"}],"stateMutability":"view"},{"type":"function","name":"transferOwnership","inputs":[{"name":"newOwner","type":"address","internalType":"address"}],"outputs":[],"stateMutability":"nonpayable"},{"type":"function","name":"updateBondingCurveParams","inputs":[{"name":"newCurrencyToken","type":"address","internalType":"address"},{"name":"newFeeModel","type":"address","internalType":"address"},{"name":"newCartridgeModel","type":"address","internalType":"address"},{"name":"newCartridgeOwnershipModelAddress","type":"address","internalType":"address"},{"name":"newCartridgeBondingCurveModelAddress","type":"address","internalType":"address"},{"name":"newMaxSupply","type":"uint128","internalType":"uint128"},{"name":"newFeeConfig","type":"uint256","internalType":"uint256"},{"name":"stepRangesMax","type":"uint128[]","internalType":"uint128[]"},{"name":"stepCoefficients","type":"uint128[]","internalType":"uint128[]"}],"outputs":[],"stateMutability":"nonpayable"},{"type":"function","name":"updateProtocolWallet","inputs":[{"name":"newProtocolWallet","type":"address","internalType":"address"}],"outputs":[],"stateMutability":"nonpayable"},{"type":"function","name":"uri","inputs":[{"name":"","type":"uint256","internalType":"uint256"}],"outputs":[{"name":"","type":"string","internalType":"string"}],"stateMutability":"view"},{"type":"function","name":"validateCartridge","inputs":[{"name":"dapp","type":"address","internalType":"address"},{"name":"cartridgeId","type":"bytes32","internalType":"bytes32"},{"name":"_payload","type":"bytes","internalType":"bytes"},{"name":"_v","type":"tuple","internalType":"struct Proof","components":[{"name":"validity","type":"tuple","internalType":"struct OutputValidityProof","components":[{"name":"inputIndexWithinEpoch","type":"uint64","internalType":"uint64"},{"name":"outputIndexWithinInput","type":"uint64","internalType":"uint64"},{"name":"outputHashesRootHash","type":"bytes32","internalType":"bytes32"},{"name":"vouchersEpochRootHash","type":"bytes32","internalType":"bytes32"},{"name":"noticesEpochRootHash","type":"bytes32","internalType":"bytes32"},{"name":"machineStateHash","type":"bytes32","internalType":"bytes32"},{"name":"outputHashInOutputHashesSiblings","type":"bytes32[]","internalType":"bytes32[]"},{"name":"outputHashesInEpochSiblings","type":"bytes32[]","internalType":"bytes32[]"}]},{"name":"context","type":"bytes","internalType":"bytes"}]}],"outputs":[{"name":"","type":"bytes32","internalType":"bytes32"}],"stateMutability":"nonpayable"},{"type":"function","name":"validateCartridgeCustom","inputs":[{"name":"dapp","type":"address","internalType":"address"},{"name":"cartridgeId","type":"bytes32","internalType":"bytes32"},{"name":"_payload","type":"bytes","internalType":"bytes"},{"name":"_v","type":"tuple","internalType":"struct Proof","components":[{"name":"validity","type":"tuple","internalType":"struct OutputValidityProof","components":[{"name":"inputIndexWithinEpoch","type":"uint64","internalType":"uint64"},{"name":"outputIndexWithinInput","type":"uint64","internalType":"uint64"},{"name":"outputHashesRootHash","type":"bytes32","internalType":"bytes32"},{"name":"vouchersEpochRootHash","type":"bytes32","internalType":"bytes32"},{"name":"noticesEpochRootHash","type":"bytes32","internalType":"bytes32"},{"name":"machineStateHash","type":"bytes32","internalType":"bytes32"},{"name":"outputHashInOutputHashesSiblings","type":"bytes32[]","internalType":"bytes32[]"},{"name":"outputHashesInEpochSiblings","type":"bytes32[]","internalType":"bytes32[]"}]},{"name":"context","type":"bytes","internalType":"bytes"}]},{"name":"bondFeeConfig","type":"uint256","internalType":"uint256"},{"name":"stepRangesMax","type":"uint128[]","internalType":"uint128[]"},{"name":"stepCoefficients","type":"uint128[]","internalType":"uint128[]"},{"name":"creatorAllocation","type":"bool","internalType":"bool"}],"outputs":[{"name":"","type":"bytes32","internalType":"bytes32"}],"stateMutability":"nonpayable"},{"type":"function","name":"withdrawBalance","inputs":[{"name":"token","type":"address","internalType":"address"},{"name":"amount","type":"uint256","internalType":"uint256"}],"outputs":[],"stateMutability":"nonpayable"},{"type":"event","name":"ApprovalForAll","inputs":[{"name":"account","type":"address","indexed":true,"internalType":"address"},{"name":"operator","type":"address","indexed":true,"internalType":"address"},{"name":"approved","type":"bool","indexed":false,"internalType":"bool"}],"anonymous":false},{"type":"event","name":"Bond","inputs":[{"name":"id","type":"bytes32","indexed":true,"internalType":"bytes32"},{"name":"token","type":"address","indexed":true,"internalType":"address"},{"name":"currentPrice","type":"uint256","indexed":false,"internalType":"uint256"},{"name":"currentSupply","type":"uint256","indexed":false,"internalType":"uint256"},{"name":"currentBalance","type":"uint256","indexed":false,"internalType":"uint256"}],"anonymous":false},{"type":"event","name":"Buy","inputs":[{"name":"id","type":"bytes32","indexed":true,"internalType":"bytes32"},{"name":"user","type":"address","indexed":true,"internalType":"address"},{"name":"amountMinted","type":"uint256","indexed":false,"internalType":"uint256"},{"name":"pricePayed","type":"uint256","indexed":false,"internalType":"uint256"}],"anonymous":false},{"type":"event","name":"Consume","inputs":[{"name":"id","type":"bytes32","indexed":true,"internalType":"bytes32"},{"name":"user","type":"address","indexed":true,"internalType":"address"},{"name":"amountConsumed","type":"uint256","indexed":false,"internalType":"uint256"},{"name":"currencyDonated","type":"uint256","indexed":false,"internalType":"uint256"}],"anonymous":false},{"type":"event","name":"OwnershipTransferred","inputs":[{"name":"previousOwner","type":"address","indexed":true,"internalType":"address"},{"name":"newOwner","type":"address","indexed":true,"internalType":"address"}],"anonymous":false},{"type":"event","name":"Reward","inputs":[{"name":"id","type":"bytes32","indexed":true,"internalType":"bytes32"},{"name":"user","type":"address","indexed":true,"internalType":"address"},{"name":"token","type":"address","indexed":true,"internalType":"address"},{"name":"rewardType","type":"uint8","indexed":false,"internalType":"enum BondUtils.RewardType"},{"name":"amount","type":"uint256","indexed":false,"internalType":"uint256"}],"anonymous":false},{"type":"event","name":"Sell","inputs":[{"name":"id","type":"bytes32","indexed":true,"internalType":"bytes32"},{"name":"user","type":"address","indexed":true,"internalType":"address"},{"name":"amountBurned","type":"uint256","indexed":false,"internalType":"uint256"},{"name":"refundReceived","type":"uint256","indexed":false,"internalType":"uint256"}],"anonymous":false},{"type":"event","name":"TransferBatch","inputs":[{"name":"operator","type":"address","indexed":true,"internalType":"address"},{"name":"from","type":"address","indexed":true,"internalType":"address"},{"name":"to","type":"address","indexed":true,"internalType":"address"},{"name":"ids","type":"uint256[]","indexed":false,"internalType":"uint256[]"},{"name":"values","type":"uint256[]","indexed":false,"internalType":"uint256[]"}],"anonymous":false},{"type":"event","name":"TransferSingle","inputs":[{"name":"operator","type":"address","indexed":true,"internalType":"address"},{"name":"from","type":"address","indexed":true,"internalType":"address"},{"name":"to","type":"address","indexed":true,"internalType":"address"},{"name":"id","type":"uint256","indexed":false,"internalType":"uint256"},{"name":"value","type":"uint256","indexed":false,"internalType":"uint256"}],"anonymous":false},{"type":"event","name":"URI","inputs":[{"name":"value","type":"string","indexed":false,"internalType":"string"},{"name":"id","type":"uint256","indexed":true,"internalType":"uint256"}],"anonymous":false},{"type":"error","name":"Bond__InvalidAmount","inputs":[]},{"type":"error","name":"Cartridge__ChangeError","inputs":[]},{"type":"error","name":"Cartridge__InsufficientFunds","inputs":[]},{"type":"error","name":"Cartridge__InvalidCartridge","inputs":[{"name":"reason","type":"string","internalType":"string"}]},{"type":"error","name":"Cartridge__InvalidDapp","inputs":[]},{"type":"error","name":"Cartridge__InvalidOwner","inputs":[]},{"type":"error","name":"Cartridge__InvalidUser","inputs":[]},{"type":"error","name":"Cartridge__NotFound","inputs":[]},{"type":"error","name":"Cartridge__SlippageLimitExceeded","inputs":[]},{"type":"error","name":"ERC1155InsufficientBalance","inputs":[{"name":"sender","type":"address","internalType":"address"},{"name":"balance","type":"uint256","internalType":"uint256"},{"name":"needed","type":"uint256","internalType":"uint256"},{"name":"tokenId","type":"uint256","internalType":"uint256"}]},{"type":"error","name":"ERC1155InvalidApprover","inputs":[{"name":"approver","type":"address","internalType":"address"}]},{"type":"error","name":"ERC1155InvalidArrayLength","inputs":[{"name":"idsLength","type":"uint256","internalType":"uint256"},{"name":"valuesLength","type":"uint256","internalType":"uint256"}]},{"type":"error","name":"ERC1155InvalidOperator","inputs":[{"name":"operator","type":"address","internalType":"address"}]},{"type":"error","name":"ERC1155InvalidReceiver","inputs":[{"name":"receiver","type":"address","internalType":"address"}]},{"type":"error","name":"ERC1155InvalidSender","inputs":[{"name":"sender","type":"address","internalType":"address"}]},{"type":"error","name":"ERC1155MissingApprovalForAll","inputs":[{"name":"operator","type":"address","internalType":"address"},{"name":"owner","type":"address","internalType":"address"}]},{"type":"error","name":"OwnableInvalidOwner","inputs":[{"name":"owner","type":"address","internalType":"address"}]},{"type":"error","name":"OwnableUnauthorizedAccount","inputs":[{"name":"account","type":"address","internalType":"address"}]}],"bytecode":{"object":"0x60a06040523480156200001157600080fd5b50604051620058d8380380620058d883398101604081905262000034916200012a565b60408051602081019091526000815232906200005081620000c6565b506001600160a01b0381166200008057604051631e4fbdf760e01b81526000600482015260240160405180910390fd5b6200008b81620000d8565b50600d8054326001600160a01b031991821617909155608091909152600880549091166001600160a01b0392909216919091179055620002d9565b6002620000d482826200020d565b5050565b600380546001600160a01b038381166001600160a01b0319831681179093556040519116919082907f8be0079c531659141344cd1fd0a4f28419497f9722a3daafe3b4186f6b6457e090600090a35050565b600080604083850312156200013e57600080fd5b82516001600160a01b03811681146200015657600080fd5b6020939093015192949293505050565b634e487b7160e01b600052604160045260246000fd5b600181811c908216806200019157607f821691505b602082108103620001b257634e487b7160e01b600052602260045260246000fd5b50919050565b601f82111562000208576000816000526020600020601f850160051c81016020861015620001e35750805b601f850160051c820191505b818110156200020457828155600101620001ef565b5050505b505050565b81516001600160401b0381111562000229576200022962000166565b62000241816200023a84546200017c565b84620001b8565b602080601f831160018114620002795760008415620002605750858301515b600019600386901b1c1916600185901b17855562000204565b600085815260208120601f198616915b82811015620002aa5788860151825594840194600190910190840162000289565b5085821015620002c95787850151600019600388901b60f8161c191681555b5050505050600190811b01905550565b6080516155e3620002f56000396000613a2e01526155e36000f3fe6080604052600436106102715760003560e01c8063787ca4381161014f578063d3c3b389116100c1578063ea6c68111161007a578063ea6c681114610833578063eba4c82f14610848578063f242432a14610868578063f2fde38b14610888578063fa1c4db6146108a8578063fd3bf34b146108e857600080fd5b8063d3c3b3891461075b578063d5abeb011461077b578063db907f67146107b3578063dfb37988146107d3578063e308a099146107f3578063e985e9c51461081357600080fd5b8063ad74b77511610113578063ad74b7751461066e578063ae476c9a146106a6578063af5baf44146106c6578063b16cae66146106e6578063b574b0b314610706578063bbfef0881461072657600080fd5b8063787ca438146105cb5780637baa9fe8146105fb5780638da5cb5b1461061b578063a22cb46514610639578063aca6d5721461065957600080fd5b80632eb2c2d6116101e85780633c973f06116101ac5780633c973f06146104fb57806342e201f41461050e5780634e1273f41461052e57806361b1a4c41461055b578063715018a61461057b578063724969e71461059057600080fd5b80632eb2c2d614610431578063305e1d731461045157806338a699a4146104715780633ab03c8b146104a35780633b906e47146104db57600080fd5b80630e89341c1161023a5780630e89341c1461035b57806312e6bacd146103885780631aba7deb146103a85780631e5eb1d0146103c8578063226f877e146103de57806327b7ca5f1461041157600080fd5b8062fdd58e1461027657806301ffc9a7146102a957806302fe5305146102d9578063056e9c55146102fb5780630cf20cc91461033b575b600080fd5b34801561028257600080fd5b50610296610291366004614197565b610908565b6040519081526020015b60405180910390f35b3480156102b557600080fd5b506102c96102c43660046141d9565b610930565b60405190151581526020016102a0565b3480156102e557600080fd5b506102f96102f436600461423e565b610980565b005b34801561030757600080fd5b5061031b61031636600461427f565b6109cb565b6040805194855260208501939093529183015260608201526080016102a0565b34801561034757600080fd5b506102f9610356366004614197565b610ad0565b34801561036757600080fd5b5061037b61037636600461427f565b610cc9565b6040516102a091906142de565b34801561039457600080fd5b506102966103a33660046142f1565b610d5d565b3480156103b457600080fd5b506102966103c3366004614313565b61108b565b3480156103d457600080fd5b50610296600c5481565b3480156103ea57600080fd5b506103fe6103f936600461427f565b61154f565b6040516102a0979695949392919061443c565b34801561041d57600080fd5b506102f961042c36600461448e565b611750565b34801561043d57600080fd5b506102f961044c36600461461a565b6117b6565b34801561045d57600080fd5b5061029661046c36600461427f565b61181d565b34801561047d57600080fd5b506102c961048c36600461427f565b6000908152600e6020526040902060010154151590565b3480156104af57600080fd5b506006546104c3906001600160a01b031681565b6040516001600160a01b0390911681526020016102a0565b3480156104e757600080fd5b506009546104c3906001600160a01b031681565b610296610509366004614313565b61183e565b34801561051a57600080fd5b506102f961052936600461427f565b611c96565b34801561053a57600080fd5b5061054e6105493660046146c7565b611da3565b6040516102a091906147c4565b34801561056757600080fd5b506102966105763660046147e9565b611e6f565b34801561058757600080fd5b506102f9611e91565b34801561059c57600080fd5b506105b06105ab3660046142f1565b611ea5565b604080519384526020840192909252908201526060016102a0565b3480156105d757600080fd5b506102c96105e636600461448e565b60116020526000908152604090205460ff1681565b34801561060757600080fd5b506007546104c3906001600160a01b031681565b34801561062757600080fd5b506003546001600160a01b03166104c3565b34801561064557600080fd5b506102f961065436600461487a565b612232565b34801561066557600080fd5b5061029661223d565b34801561067a57600080fd5b506102966106893660046148b3565b601060209081526000928352604080842090915290825290205481565b3480156106b257600080fd5b506102f96106c1366004614969565b6122e2565b3480156106d257600080fd5b50600a546104c3906001600160a01b031681565b3480156106f257600080fd5b506105b06107013660046142f1565b612412565b34801561071257600080fd5b506102966107213660046149f4565b61278d565b34801561073257600080fd5b506107466107413660046142f1565b6127b7565b604080519283526020830191909152016102a0565b34801561076757600080fd5b506005546104c3906001600160a01b031681565b34801561078757600080fd5b50600b5461079b906001600160801b031681565b6040516001600160801b0390911681526020016102a0565b3480156107bf57600080fd5b5061079b6107ce36600461427f565b612a98565b3480156107df57600080fd5b506102f96107ee366004614ada565b612ae3565b3480156107ff57600080fd5b506102f961080e36600461448e565b612b07565b34801561081f57600080fd5b506102c961082e3660046148b3565b612b5d565b34801561083f57600080fd5b50600f54610296565b34801561085457600080fd5b506008546104c3906001600160a01b031681565b34801561087457600080fd5b506102f9610883366004614baf565b612b8b565b34801561089457600080fd5b506102f96108a336600461448e565b612bea565b3480156108b457600080fd5b506108c86108c336600461427f565b612c28565b604080516001600160801b039384168152929091166020830152016102a0565b3480156108f457600080fd5b506102f9610903366004614c17565b612c5d565b6000818152602081815260408083206001600160a01b03861684529091529020545b92915050565b60006001600160e01b03198216636cdb3d1360e11b148061096157506001600160e01b031982166303a24d0760e21b145b8061092a57506301ffc9a760e01b6001600160e01b031983161461092a565b610988612d91565b6109c782828080601f016020809104026020016040519081016040528093929190818152602001838380828437600092019190915250612dbe92505050565b5050565b6000818152600e602052604081206013018054829182918291906109ee90614c3c565b9050600003610a3b57604051639ffe2da160e01b81526020600482015260136024820152726361727472696467654f75747075744461746160681b60448201526064015b60405180910390fd5b6000858152600e60205260409081902060108101549151637570c58b60e11b81526001600160a01b039092169163eae18b1691610a8091601390910190600401614c70565b608060405180830381865afa158015610a9d573d6000803e3d6000fd5b505050506040513d601f19601f82011682018060405250810190610ac19190614d00565b93509350935093509193509193565b3360008181526010602090815260408083206001600160a01b0387168452909152902054821115610b14576040516368d134dd60e11b815260040160405180910390fd5b6001600160a01b03808216600090815260106020908152604080832093871683529290529081208054849290610b4b908490614d4c565b90915550506001600160a01b03831615610c505760405163095ea7b360e01b8152306004820152602481018390526001600160a01b0384169063095ea7b3906044016020604051808303816000875af1158015610bac573d6000803e3d6000fd5b505050506040513d601f19601f82011682018060405250810190610bd09190614d5f565b506040516323b872dd60e01b81523060048201526001600160a01b038281166024830152604482018490528416906323b872dd906064016020604051808303816000875af1158015610c26573d6000803e3d6000fd5b505050506040513d601f19601f82011682018060405250810190610c4a9190614d5f565b50505050565b6000816001600160a01b03168360405160006040518083038185875af1925050503d8060008114610c9d576040519150601f19603f3d011682016040523d82523d6000602084013e610ca2565b606091505b5050905080610c4a576040516303e717e760e51b815260040160405180910390fd5b505050565b606060028054610cd890614c3c565b80601f0160208091040260200160405190810160405280929190818152602001828054610d0490614c3c565b8015610d515780601f10610d2657610100808354040283529160200191610d51565b820191906000526020600020905b815481529060010190602001808311610d3457829003601f168201915b50505050509050919050565b6000828152600e602052604081206001015483908203610d905760405163f87e48db60e01b815260040160405180910390fd5b6000336000868152600e60205260408082206008549151633ac2ef4160e21b81529394509282916001600160a01b03169063eb0bbd0490610dd7908a908790600401614dc5565b6040805180830381865afa158015610df3573d6000803e3d6000fd5b505050506040513d601f19601f82011682018060405250810190610e179190614e98565b600e850154600f860154604051631fa52aab60e11b815260048101919091526024810184905292945090925060009182916001600160a01b031690633f4a5556906044016040805180830381865afa158015610e77573d6000803e3d6000fd5b505050506040513d601f19601f82011682018060405250810190610e9b9190614e98565b909250905083610eab8284614ebc565b14610ec9576040516350b30ba960e01b815260040160405180910390fd5b610ed4868b8b612dca565b88856000016003016000828254610eeb9190614d4c565b9091555050600285018054859190600090610f07908490614d4c565b9091555050600d850180548a9190600090610f23908490614ebc565b909155505060058501839055610f398a82612e39565b6008860180549192508291600090610f52908490614ebc565b9091555050600d546001600160a01b039081166000908152601060209081526040808320895490941683529290529081208054849290610f93908490614ebc565b90915550508454600d546040516001600160a01b0392831692909116908c9060008051602061558e83398151915290610fd0906000908890614ecf565b60405180910390a4604080518a8152602081018690526001600160a01b038816918c917fff8a4589f2e064f9b82f2aec48ea80dbf6a8f623d3bd76d954da82ec4ea0079f910160405180910390a38454600486015460038701546002880154604080519384526020840192909252908201526001600160a01b03909116908b907f2e67857c5e095aa37c99fc8a2a3d065e50197554891c3cf1f318b1996b66469c9060600160405180910390a3509198975050505050505050565b6000838152600e6020526040812060010154849082036110be5760405163f87e48db60e01b815260040160405180910390fd5b6000336000878152600e60205260408082206008549151635e15de9560e11b81529394509282916001600160a01b03169063bc2bbd2a90611105908b908790600401614dc5565b6040805180830381865afa158015611121573d6000803e3d6000fd5b505050506040513d601f19601f820116820180604052508101906111459190614e98565b600e850154600f8601546040516358e507db60e11b81526004810191909152602481018c90526044810184905292945090925060009182916001600160a01b03169063b1ca0fb6906064016040805180830381865afa1580156111ac573d6000803e3d6000fd5b505050506040513d601f19601f820116820180604052508101906111d09190614e98565b909250905060006111e18284614ebc565b6111eb9086614d4c565b90508981101561120e576040516303158fa960e31b815260040160405180910390fd5b611219878d8d612dca565b848660000160020160008282546112309190614d4c565b90915550506003860180548c919060009061124c908490614d4c565b9091555050600c860180548c9190600090611268908490614ebc565b90915550506004860184905561127e8c83612e39565b6007870180549193508391600090611297908490614ebc565b9091555050600d546001600160a01b0390811660009081526010602090815260408083208a54909416835292905290812080548592906112d8908490614ebc565b90915550508554600d546040516001600160a01b0392831692909116908e9060008051602061558e83398151915290611315906000908990614ecf565b60405180910390a485546001600160a01b03161561142457855460405163095ea7b360e01b8152306004820152602481018390526001600160a01b039091169063095ea7b3906044016020604051808303816000875af115801561137d573d6000803e3d6000fd5b505050506040513d601f19601f820116820180604052508101906113a19190614d5f565b5085546040516323b872dd60e01b81523060048201526001600160a01b03898116602483015260448201849052909116906323b872dd906064016020604051808303816000875af11580156113fa573d6000803e3d6000fd5b505050506040513d601f19601f8201168201806040525081019061141e9190614d5f565b5061149a565b6000876001600160a01b03168260405160006040518083038185875af1925050503d8060008114611471576040519150601f19603f3d011682016040523d82523d6000602084013e611476565b606091505b5050905080611498576040516303e717e760e51b815260040160405180910390fd5b505b604080518c8152602081018390526001600160a01b038916918e917f47d38b8b50e4b792e507faad951cda2457545e704f667a3e32f22541945ebbf691015b60405180910390a38554600487015460038801546002890154604080519384526020840192909252908201526001600160a01b03909116908d907f2e67857c5e095aa37c99fc8a2a3d065e50197554891c3cf1f318b1996b66469c9060600160405180910390a39b9a5050505050505050505050565b600e60209081526000918252604080832081516101008101835281546001600160a01b03168152600182018054845181870281018701909552808552929591948694868201949093909184015b828210156115e557600084815260209081902060408051808201909152908401546001600160801b038082168352600160801b909104168183015282526001909201910161159c565b505050908252506002820154602080830191909152600383015460408084019190915260048401546060808501919091526005850154608080860191909152825160a0818101855260068801548252600788015482870152600888015482860152600988015482850152600a880154928201929092529085015281519081018252600b8501548152600c85015492810192909252600d909301549281019290925260c00152600e820154600f83015460108401546011850154601286015460138701805496976001600160a01b0396871697959694851695939094169391926116cd90614c3c565b80601f01602080910402602001604051908101604052809291908181526020018280546116f990614c3c565b80156117465780601f1061171b57610100808354040283529160200191611746565b820191906000526020600020905b81548152906001019060200180831161172957829003601f168201915b5050505050905087565b611758612d91565b6001600160a01b03811660009081526011602052604090205460ff1615611792576040516314949b1360e21b815260040160405180910390fd5b6001600160a01b03166000908152601160205260409020805460ff19166001179055565b336001600160a01b03861681148015906117d757506117d58682612b5d565b155b156118085760405163711bec9160e11b81526001600160a01b03808316600483015287166024820152604401610a32565b6118158686868686612fa9565b505050505050565b600f818154811061182d57600080fd5b600091825260209091200154905081565b6000838152600e6020526040812060010154849082036118715760405163f87e48db60e01b815260040160405180910390fd5b6000336000878152600e602052604080822060085491516369db39e760e11b81529394509282916001600160a01b03169063d3b673ce906118b8908b908790600401614dc5565b6040805180830381865afa1580156118d4573d6000803e3d6000fd5b505050506040513d601f19601f820116820180604052508101906118f89190614e98565b915091506000808460000160010160008154811061191857611918614efb565b600091825260209091200154600160801b90046001600160801b0316156119c157600e850154600f860154604051636254a34560e11b81526004810191909152602481018c9052604481018690526001600160a01b039091169063c4a9468a906064016040805180830381865afa158015611997573d6000803e3d6000fd5b505050506040513d601f19601f820116820180604052508101906119bb9190614e98565b90925090505b6000816119ce8487614ebc565b6119d89190614ebc565b9050898111156119fb576040516303158fa960e31b815260040160405180910390fd5b85546001600160a01b031615611a8d5785546040516323b872dd60e01b81526001600160a01b03898116600483015230602483015260448201849052909116906323b872dd906064016020604051808303816000875af1158015611a63573d6000803e3d6000fd5b505050506040513d601f19601f82011682018060405250810190611a879190614d5f565b50611b31565b80341015611aae576040516350b30ba960e01b815260040160405180910390fd5b80341115611b315760006001600160a01b038816611acc8334614d4c565b604051600081818185875af1925050503d8060008114611b08576040519150601f19603f3d011682016040523d82523d6000602084013e611b0d565b606091505b5050905080611b2f576040516303e717e760e51b815260040160405180910390fd5b505b84866000016002016000828254611b489190614ebc565b90915550506003860180548c9190600090611b64908490614ebc565b9091555050600b860180548c9190600090611b80908490614ebc565b909155505060048601849055611b968c83612e39565b6006870180549193508391600090611baf908490614ebc565b9091555050600d546001600160a01b0390811660009081526010602090815260408083208a5490941683529290529081208054859290611bf0908490614ebc565b90915550508554600d546040516001600160a01b0392831692909116908e9060008051602061558e83398151915290611c2d906000908990614ecf565b60405180910390a4611c53878d60001c8d60405180602001604052806000815250613009565b604080518c8152602081018390526001600160a01b038916918e917f5bd6f821d5961785d719543640cf62d3770f94e59db1a2f3c2250d72b122dddf91016114d9565b60095460405163273bed1d60e21b81523360048201526024810183905282916001600160a01b031690639cefb47490604401602060405180830381865afa158015611ce5573d6000803e3d6000fd5b505050506040513d601f19601f82011682018060405250810190611d099190614d5f565b611d26576040516319e2f96560e31b815260040160405180910390fd5b6109c782600c546004805480602002602001604051908101604052809291908181526020016000905b82821015611d9857600084815260209081902060408051808201909152908401546001600160801b038082168352600160801b9091041681830152825260019092019101611d4f565b505050506000613066565b60608151835114611dd45781518351604051635b05999160e01b815260048101929092526024820152604401610a32565b600083516001600160401b03811115611def57611def6144ab565b604051908082528060200260200182016040528015611e18578160200160208202803683370190505b50905060005b8451811015611e6757602080820286010151611e4290602080840287010151610908565b828281518110611e5457611e54614efb565b6020908102919091010152600101611e1e565b509392505050565b6000611e7a85611c96565b611e878686868686613230565b9695505050505050565b611e99612d91565b611ea360006137ae565b565b6000828152600e6020526040812060010154819081908103611eda5760405163f87e48db60e01b815260040160405180910390fd5b6000858152600e6020908152604080832081516101e08101835281546001600160a01b031660e082019081526001830180548551818802810188019096528086529295939486949293869361010087019391908a9084015b82821015611f7b57600084815260209081902060408051808201909152908401546001600160801b038082168352600160801b9091041681830152825260019092019101611f32565b505050908252506002820154602080830191909152600383015460408084019190915260048401546060808501919091526005850154608080860191909152825160a0818101855260068801548252600788015482870152600888015482860152600988015482850152600a880154828401528087019190915283518084018552600b8801548152600c88015481870152600d909701548785015260c095860196909652958752600e8801546001600160a01b0390811693880193909352600f88015491870191909152601087015482169086015260118601541692840192909252601284015490830152601383018054929091019161207a90614c3c565b80601f01602080910402602001604051908101604052809291908181526020018280546120a690614c3c565b80156120f35780601f106120c8576101008083540402835291602001916120f3565b820191906000526020600020905b8154815290600101906020018083116120d657829003601f168201915b50505091909252505060085482516040516369db39e760e11b81529394506000938493506001600160a01b039092169163d3b673ce91612138918b9190600401614f11565b6040805180830381865afa158015612154573d6000803e3d6000fd5b505050506040513d601f19601f820116820180604052508101906121789190614e98565b60208501516040808701519051636254a34560e11b81526004810191909152602481018b90526044810184905292945090925060009182916001600160a01b03169063c4a9468a906064016040805180830381865afa1580156121df573d6000803e3d6000fd5b505050506040513d601f19601f820116820180604052508101906122039190614e98565b909250905060006122148284614ebc565b90506122208186614ebc565b98509650919450505050509250925092565b6109c7338383613800565b60008060005b600f548110156122dc57600e6000600f838154811061226457612264614efb565b90600052602060002001548152602001908152602001600020600001600b0160020154600e6000600f848154811061229e5761229e614efb565b90600052602060002001548152602001908152602001600020600001600301546122c89190614d4c565b6122d29083614ebc565b9150600101612243565b50919050565b60095460405163273bed1d60e21b81523360048201526024810187905286916001600160a01b031690639cefb47490604401602060405180830381865afa158015612331573d6000803e3d6000fd5b505050506040513d601f19601f820116820180604052508101906123559190614d5f565b612372576040516319e2f96560e31b815260040160405180910390fd5b600a54600b54604051630a68458760e11b81526000926001600160a01b0316916314d08b0e916123b6918b918a918a916001600160801b0390911690600401614f64565b600060405180830381865afa1580156123d3573d6000803e3d6000fd5b505050506040513d6000823e601f3d908101601f191682016040526123fb9190810190614faa565b905061240987878386613066565b50505050505050565b6000828152600e60205260408120600101548190819081036124475760405163f87e48db60e01b815260040160405180910390fd5b6000858152600e6020908152604080832081516101e08101835281546001600160a01b031660e082019081526001830180548551818802810188019096528086529295939486949293869361010087019391908a9084015b828210156124e857600084815260209081902060408051808201909152908401546001600160801b038082168352600160801b909104168183015282526001909201910161249f565b505050908252506002820154602080830191909152600383015460408084019190915260048401546060808501919091526005850154608080860191909152825160a0818101855260068801548252600788015482870152600888015482860152600988015482850152600a880154828401528087019190915283518084018552600b8801548152600c88015481870152600d909701548785015260c095860196909652958752600e8801546001600160a01b0390811693880193909352600f8801549187019190915260108701548216908601526011860154169284019290925260128401549083015260138301805492909101916125e790614c3c565b80601f016020809104026020016040519081016040528092919081815260200182805461261390614c3c565b80156126605780601f1061263557610100808354040283529160200191612660565b820191906000526020600020905b81548152906001019060200180831161264357829003601f168201915b5050509190925250506008548251604051635e15de9560e11b81529394506000938493506001600160a01b039092169163bc2bbd2a916126a5918b9190600401614f11565b6040805180830381865afa1580156126c1573d6000803e3d6000fd5b505050506040513d601f19601f820116820180604052508101906126e59190614e98565b602085015160408087015190516358e507db60e11b81526004810191909152602481018b90526044810184905292945090925060009182916001600160a01b03169063b1ca0fb6906064016040805180830381865afa15801561274c573d6000803e3d6000fd5b505050506040513d601f19601f820116820180604052508101906127709190614e98565b909250905060006127818284614ebc565b90506122208186614d4c565b600061279c89868686866122e2565b6127a98a8a8a8a8a613230565b9a9950505050505050505050565b6000828152600e6020526040812060010154819081036127ea5760405163f87e48db60e01b815260040160405180910390fd5b6000848152600e6020908152604080832081516101e08101835281546001600160a01b031660e082019081526001830180548551818802810188019096528086529295939486949293869361010087019391908a9084015b8282101561288b57600084815260209081902060408051808201909152908401546001600160801b038082168352600160801b9091041681830152825260019092019101612842565b505050908252506002820154602080830191909152600383015460408084019190915260048401546060808501919091526005850154608080860191909152825160a0818101855260068801548252600788015482870152600888015482860152600988015482850152600a880154828401528087019190915283518084018552600b8801548152600c88015481870152600d909701548785015260c095860196909652958752600e8801546001600160a01b0390811693880193909352600f88015491870191909152601087015482169086015260118601541692840192909252601284015490830152601383018054929091019161298a90614c3c565b80601f01602080910402602001604051908101604052809291908181526020018280546129b690614c3c565b8015612a035780601f106129d857610100808354040283529160200191612a03565b820191906000526020600020905b8154815290600101906020018083116129e657829003601f168201915b5050509190925250506008548251604051633ac2ef4160e21b81529394506000938493506001600160a01b039092169163eb0bbd0491612a48918a9190600401614f11565b6040805180830381865afa158015612a64573d6000803e3d6000fd5b505050506040513d601f19601f82011682018060405250810190612a889190614e98565b90955093505050505b9250929050565b6000818152600e60205260408120600190810180549091612ab891614d4c565b81548110612ac857612ac8614efb565b6000918252602090912001546001600160801b031692915050565b612aeb612d91565b612afc898989898989898989613896565b505050505050505050565b600d546001600160a01b0316336001600160a01b031614612b3b57604051631a2a416760e21b815260040160405180910390fd5b600d80546001600160a01b0319166001600160a01b0392909216919091179055565b6001600160a01b03918216600090815260016020908152604080832093909416825291909152205460ff1690565b336001600160a01b0386168114801590612bac5750612baa8682612b5d565b155b15612bdd5760405163711bec9160e11b81526001600160a01b03808316600483015287166024820152604401610a32565b6118158686868686613c4b565b612bf2612d91565b6001600160a01b038116612c1c57604051631e4fbdf760e01b815260006004820152602401610a32565b612c25816137ae565b50565b60048181548110612c3857600080fd5b6000918252602090912001546001600160801b038082169250600160801b9091041682565b612c65612d91565b6000828152600e60205260408120600101549003612c965760405163f87e48db60e01b815260040160405180910390fd5b6000828152600e602052604081206013018054612cb290614c3c565b90501115612d0357604051639ffe2da160e01b815260206004820152601b60248201527f43617274726964676520616c72656164792076616c69646174656400000000006044820152606401610a32565b600854604051632286a71160e01b81526001600160a01b03838116600483015290911690632286a7119060240160006040518083038186803b158015612d4857600080fd5b505afa158015612d5c573d6000803e3d6000fd5b505050600092835250600e602052604090912060100180546001600160a01b0319166001600160a01b03909216919091179055565b6003546001600160a01b03163314611ea35760405163118cdaa760e01b8152336004820152602401610a32565b60026109c782826150ba565b6001600160a01b038316612df357604051626a0d4560e21b815260006004820152602401610a32565b604080516001808252602082018590528183019081526060820184905260a08201909252600060808201818152919291612e3291879185908590613ccc565b5050505050565b6000828152600e60205260408120601381018054839190612e5990614c3c565b90501115612fa15760118101546000906001600160a01b031615612f015760118201546001600160a01b039081166000908152601060209081526040808320865490941683529290529081208054869290612eb5908490614ebc565b9091555050815460118301546040516001600160a01b039283169290911690879060008051602061558e83398151915290612ef4906004908a90614ecf565b60405180910390a4612f0e565b612f0b8482614ebc565b90505b8015612f9657600d546001600160a01b039081166000908152601060209081526040808320865490941683529290529081208054839290612f50908490614ebc565b90915550508154600d546040516001600160a01b039283169290911690879060008051602061558e83398151915290612f8d906003908790614ecf565b60405180910390a45b60009250505061092a565b509092915050565b6001600160a01b038416612fd357604051632bfa23e760e11b815260006004820152602401610a32565b6001600160a01b038516612ffc57604051626a0d4560e21b815260006004820152602401610a32565b612e328585858585613ccc565b6001600160a01b03841661303357604051632bfa23e760e11b815260006004820152602401610a32565b60408051600180825260208201869052818301908152606082018590526080820190925290611815600087848487613ccc565b6000848152600e60205260408120600101549003610c4a576000848152600e60208190526040822060065491810180546001600160a01b039384166001600160a01b031991821617909155600f8201879055600554825490841690821617825560075460108301805491909416911617909155905b83518110156131835781600001600101604051806040016040528086848151811061310857613108614efb565b6020026020010151600001516001600160801b0316815260200186848151811061313457613134614efb565b6020908102919091018101518101516001600160801b03908116909252835460018181018655600095865294829020845194909201518316600160801b029390921692909217910155016130db565b50600f80546001810182556000919091527f8d1108e10bcb7c27dddfc02ed9d693a074039d026cf4ea4240b40f7d581ac802018590558180156131f457506001810180546000906131d6576131d6614efb565b600091825260209091200154600160801b90046001600160801b0316155b15612e3257611815858260000160010160008154811061321657613216614efb565b60009182526020822001546001600160801b03169061183e565b6000848152600e6020526040812060138101805461324d90614c3c565b15905061329157604051639ffe2da160e01b8152602060048201526011602482015270185b1c9958591e481d985b1a59185d1959607a1b6044820152606401610a32565b6001600160a01b03871660009081526011602052604090205460ff166132ca576040516314949b1360e21b815260040160405180910390fd5b604051634b243ea360e11b81526001600160a01b038816906396487d46906132fa90889088908890600401615278565b602060405180830381865afa158015613317573d6000803e3d6000fd5b505050506040513d601f19601f8201168201806040525081019061333b9190614d5f565b506010810154604051636e40c63360e11b815260009182916001600160a01b039091169063dc818c6690613375908a908a90600401615387565b6040805180830381865afa158015613391573d6000803e3d6000fd5b505050506040513d601f19601f820116820180604052508101906133b5919061539b565b915091508188146133f757604051639ffe2da160e01b815260206004820152600b60248201526a18d85c9d1c9a5919d9525960aa1b6044820152606401610a32565b6010830154604051637570c58b60e11b81526000916001600160a01b03169063eae18b169061342c908b908b90600401615387565b608060405180830381865afa158015613449573d6000803e3d6000fd5b505050506040513d601f19601f8201168201806040525081019061346d9190614d00565b50506011860180546001600160a01b0319166001600160a01b0386161790559150506013840161349e888a836153c0565b50601284018190556006840154600090156135b857600e850154600f860154600b8701546006880154604051636254a34560e11b81526004810193909352602483019190915260448201526000916001600160a01b03169063c4a9468a906064016040805180830381865afa15801561351b573d6000803e3d6000fd5b505050506040513d601f19601f8201168201806040525081019061353f9190614e98565b6006880154909250821115905061358d57604051639ffe2da160e01b8152602060048201526011602482015270756e636c61696d65644d696e744665657360781b6044820152606401610a32565b6006860180548291906000906135a4908490614d4c565b909155506135b490508183614ebc565b9150505b6007850154156136c757600e850154600f860154600c87015460078801546040516358e507db60e11b81526004810193909352602483019190915260448201526000916001600160a01b03169063b1ca0fb6906064016040805180830381865afa15801561362a573d6000803e3d6000fd5b505050506040513d601f19601f8201168201806040525081019061364e9190614e98565b6007880154909250821115905061369c57604051639ffe2da160e01b8152602060048201526011602482015270756e636c61696d65644275726e4665657360781b6044820152606401610a32565b6007860180548291906000906136b3908490614d4c565b909155506136c390508183614ebc565b9150505b6136d18a82612e39565b50600785015460068601546000916136e891614ebc565b9050801561378657600786015460068701546137049190614ebc565b600d546001600160a01b0390811660009081526010602090815260408083208b5490941683529290529081208054909190613740908490614ebc565b90915550508554600d546040516001600160a01b0392831692909116908d9060008051602061558e8339815191529061377d906003908790614ecf565b60405180910390a45b505060006006850181905560078501819055600a909401939093555095979650505050505050565b600380546001600160a01b038381166001600160a01b0319831681179093556040519116919082907f8be0079c531659141344cd1fd0a4f28419497f9722a3daafe3b4186f6b6457e090600090a35050565b6001600160a01b0382166138295760405162ced3e160e81b815260006004820152602401610a32565b6001600160a01b03838116600081815260016020908152604080832094871680845294825291829020805460ff191686151590811790915591519182527f17307eab39ab6107e8899845ad3d59bd9653f200f220920489ca2b5937696c31910160405180910390a3505050565b60085460405163169f6b0560e11b81526001600160a01b038b8116600483015290911690632d3ed60a9060240160006040518083038186803b1580156138db57600080fd5b505afa1580156138ef573d6000803e3d6000fd5b505060085460405163f610a03960e01b81526001600160a01b038c81166004830152909116925063f610a039915060240160006040518083038186803b15801561393857600080fd5b505afa15801561394c573d6000803e3d6000fd5b5050600854604051632286a71160e01b81526001600160a01b038b811660048301529091169250632286a711915060240160006040518083038186803b15801561399557600080fd5b505afa1580156139a9573d6000803e3d6000fd5b505060085460405163130d243760e21b81526001600160a01b038a811660048301529091169250634c3490dc915060240160006040518083038186803b1580156139f257600080fd5b505afa158015613a06573d6000803e3d6000fd5b5050604051638716824d60e01b81526001600160a01b0388169250638716824d9150613a5a907f0000000000000000000000000000000000000000000000000000000000000000908690869060040161547f565b60006040518083038186803b158015613a7257600080fd5b505afa158015613a86573d6000803e3d6000fd5b5050505060046000613a989190614140565b604051630a68458760e11b81526000906001600160a01b038716906314d08b0e90613acd908490879087908b90600401614f64565b600060405180830381865afa158015613aea573d6000803e3d6000fd5b505050506040513d6000823e601f3d908101601f19168201604052613b129190810190614faa565b905060005b8151811015613bba5760046040518060400160405280848481518110613b3f57613b3f614efb565b6020026020010151600001516001600160801b03168152602001848481518110613b6b57613b6b614efb565b6020908102919091018101518101516001600160801b03908116909252835460018181018655600095865294829020845194909201518316600160801b02939092169290921791015501613b17565b5050600580546001600160a01b03199081166001600160a01b039b8c1617909155600680548216998b169990991790985550506007805487169588169590951790945560098054861693871693909317909255600a8054909416941693909317909155600b80546fffffffffffffffffffffffffffffffff19166001600160801b0390931692909217909155600c55565b6001600160a01b038416613c7557604051632bfa23e760e11b815260006004820152602401610a32565b6001600160a01b038516613c9e57604051626a0d4560e21b815260006004820152602401610a32565b6040805160018082526020820186905281830190815260608201859052608082019092529061240987878484875b613cd885858585613d1f565b6001600160a01b03841615612e325782513390600103613d115760208481015190840151613d0a838989858589613f33565b5050611815565b611815818787878787614057565b8051825114613d4e5781518151604051635b05999160e01b815260048101929092526024820152604401610a32565b3360005b8351811015613e54576020818102858101820151908501909101516001600160a01b03881615613e05576000828152602081815260408083206001600160a01b038c16845290915290205481811015613dde576040516303dee4c560e01b81526001600160a01b038a166004820152602481018290526044810183905260648101849052608401610a32565b6000838152602081815260408083206001600160a01b038d16845290915290209082900390555b6001600160a01b03871615613e4a576000828152602081815260408083206001600160a01b038b16845290915281208054839290613e44908490614ebc565b90915550505b5050600101613d52565b508251600103613ed55760208301516000906020840151909150856001600160a01b0316876001600160a01b0316846001600160a01b03167fc3d58168c5ae7397731d063d5bbf3d657854427343f4c083240f7aacaa2d0f628585604051613ec6929190918252602082015260400190565b60405180910390a45050612e32565b836001600160a01b0316856001600160a01b0316826001600160a01b03167f4a39dc06d4c0dbc64b70af90fd698a233a518aa5d07e595d983b8c0526c8f7fb8686604051613f249291906154aa565b60405180910390a45050505050565b6001600160a01b0384163b156118155760405163f23a6e6160e01b81526001600160a01b0385169063f23a6e6190613f7790899089908890889088906004016154d8565b6020604051808303816000875af1925050508015613fb2575060408051601f3d908101601f19168201909252613faf91810190615512565b60015b61401b573d808015613fe0576040519150601f19603f3d011682016040523d82523d6000602084013e613fe5565b606091505b50805160000361401357604051632bfa23e760e11b81526001600160a01b0386166004820152602401610a32565b805181602001fd5b6001600160e01b0319811663f23a6e6160e01b1461240957604051632bfa23e760e11b81526001600160a01b0386166004820152602401610a32565b6001600160a01b0384163b156118155760405163bc197c8160e01b81526001600160a01b0385169063bc197c819061409b908990899088908890889060040161552f565b6020604051808303816000875af19250505080156140d6575060408051601f3d908101601f191682019092526140d391810190615512565b60015b614104573d808015613fe0576040519150601f19603f3d011682016040523d82523d6000602084013e613fe5565b6001600160e01b0319811663bc197c8160e01b1461240957604051632bfa23e760e11b81526001600160a01b0386166004820152602401610a32565b5080546000825590600052602060002090810190612c2591905b8082111561416e576000815560010161415a565b5090565b6001600160a01b0381168114612c2557600080fd5b803561419281614172565b919050565b600080604083850312156141aa57600080fd5b82356141b581614172565b946020939093013593505050565b6001600160e01b031981168114612c2557600080fd5b6000602082840312156141eb57600080fd5b81356141f6816141c3565b9392505050565b60008083601f84011261420f57600080fd5b5081356001600160401b0381111561422657600080fd5b602083019150836020828501011115612a9157600080fd5b6000806020838503121561425157600080fd5b82356001600160401b0381111561426757600080fd5b614273858286016141fd565b90969095509350505050565b60006020828403121561429157600080fd5b5035919050565b6000815180845260005b818110156142be576020818501810151868301820152016142a2565b506000602082860101526020601f19601f83011685010191505092915050565b6020815260006141f66020830184614298565b6000806040838503121561430457600080fd5b50508035926020909101359150565b60008060006060848603121561432857600080fd5b505081359360208301359350604090920135919050565b80516001600160a01b031682526020808201516101c082850181905281519085018190526000926101e086019281019184905b808210156143aa57835180516001600160801b0390811687529084015116838601526040909401939282019260019190910190614372565b5050505060408301516040850152606083015160608501526080830151608085015260a083015160a085015260c083015161441360c086018280518252602081015160208301526040810151604083015260608101516060830152608081015160808301525050565b5060e08301518051610160860152602081015161018086015260408101516101a0860152611e67565b60e08152600061444f60e083018a61433f565b6001600160a01b0389811660208501526040840189905287811660608501528616608084015260a0830185905282810360c08401526127a98185614298565b6000602082840312156144a057600080fd5b81356141f681614172565b634e487b7160e01b600052604160045260246000fd5b604080519081016001600160401b03811182821017156144e3576144e36144ab565b60405290565b604051601f8201601f191681016001600160401b0381118282101715614511576145116144ab565b604052919050565b60006001600160401b03821115614532576145326144ab565b5060051b60200190565b600082601f83011261454d57600080fd5b8135602061456261455d83614519565b6144e9565b8083825260208201915060208460051b87010193508684111561458457600080fd5b602086015b848110156145a05780358352918301918301614589565b509695505050505050565b600082601f8301126145bc57600080fd5b81356001600160401b038111156145d5576145d56144ab565b6145e8601f8201601f19166020016144e9565b8181528460208386010111156145fd57600080fd5b816020850160208301376000918101602001919091529392505050565b600080600080600060a0868803121561463257600080fd5b853561463d81614172565b9450602086013561464d81614172565b935060408601356001600160401b038082111561466957600080fd5b61467589838a0161453c565b9450606088013591508082111561468b57600080fd5b61469789838a0161453c565b935060808801359150808211156146ad57600080fd5b506146ba888289016145ab565b9150509295509295909350565b600080604083850312156146da57600080fd5b82356001600160401b03808211156146f157600080fd5b818501915085601f83011261470557600080fd5b8135602061471561455d83614519565b82815260059290921b8401810191818101908984111561473457600080fd5b948201945b8386101561475b57853561474c81614172565b82529482019490820190614739565b9650508601359250508082111561477157600080fd5b5061477e8582860161453c565b9150509250929050565b60008151808452602080850194506020840160005b838110156147b95781518752958201959082019060010161479d565b509495945050505050565b6020815260006141f66020830184614788565b6000604082840312156122dc57600080fd5b60008060008060006080868803121561480157600080fd5b853561480c81614172565b94506020860135935060408601356001600160401b038082111561482f57600080fd5b61483b89838a016141fd565b9095509350606088013591508082111561485457600080fd5b506146ba888289016147d7565b8015158114612c2557600080fd5b803561419281614861565b6000806040838503121561488d57600080fd5b823561489881614172565b915060208301356148a881614861565b809150509250929050565b600080604083850312156148c657600080fd5b82356148d181614172565b915060208301356148a881614172565b6001600160801b0381168114612c2557600080fd5b8035614192816148e1565b600082601f83011261491257600080fd5b8135602061492261455d83614519565b8083825260208201915060208460051b87010193508684111561494457600080fd5b602086015b848110156145a057803561495c816148e1565b8352918301918301614949565b600080600080600060a0868803121561498157600080fd5b853594506020860135935060408601356001600160401b03808211156149a657600080fd5b6149b289838a01614901565b945060608801359150808211156149c857600080fd5b506149d588828901614901565b92505060808601356149e681614861565b809150509295509295909350565b60008060008060008060008060006101008a8c031215614a1357600080fd5b614a1c8a614187565b985060208a0135975060408a01356001600160401b0380821115614a3f57600080fd5b614a4b8d838e016141fd565b909950975060608c0135915080821115614a6457600080fd5b614a708d838e016147d7565b965060808c0135955060a08c0135915080821115614a8d57600080fd5b614a998d838e01614901565b945060c08c0135915080821115614aaf57600080fd5b50614abc8c828d01614901565b925050614acb60e08b0161486f565b90509295985092959850929598565b60008060008060008060008060006101208a8c031215614af957600080fd5b8935614b0481614172565b985060208a0135614b1481614172565b9750614b2260408b01614187565b9650614b3060608b01614187565b9550614b3e60808b01614187565b9450614b4c60a08b016148f6565b935060c08a0135925060e08a01356001600160401b0380821115614b6f57600080fd5b614b7b8d838e01614901565b93506101008c0135915080821115614b9257600080fd5b50614b9f8c828d01614901565b9150509295985092959850929598565b600080600080600060a08688031215614bc757600080fd5b8535614bd281614172565b94506020860135614be281614172565b9350604086013592506060860135915060808601356001600160401b03811115614c0b57600080fd5b6146ba888289016145ab565b60008060408385031215614c2a57600080fd5b8235915060208301356148a881614172565b600181811c90821680614c5057607f821691505b6020821081036122dc57634e487b7160e01b600052602260045260246000fd5b6000602080835260008454614c8481614c3c565b8060208701526040600180841660008114614ca65760018114614cc257614cf2565b60ff19851660408a0152604084151560051b8a01019550614cf2565b89600052602060002060005b85811015614ce95781548b8201860152908301908801614cce565b8a016040019650505b509398975050505050505050565b60008060008060808587031215614d1657600080fd5b505082516020840151604085015160609095015191969095509092509050565b634e487b7160e01b600052601160045260246000fd5b8181038181111561092a5761092a614d36565b600060208284031215614d7157600080fd5b81516141f681614861565b600081548084526020808501945083600052602060002060005b838110156147b95781546001600160801b038116885260801c8388015260409096019560019182019101614d96565b82815260406020820152614df460408201614de784546001600160a01b031690565b6001600160a01b03169052565b6101c060608201526000614e0f610200830160018501614d7c565b60028401546080840152600384015460a0840152600484015460c0840152600584015460e08401526006840154610100840152600784015461012084015260088401546101408401526009840154610160840152600a840154610180840152600b8401546101a0840152600c8401546101c0840152600d8401546101e08401525b949350505050565b60008060408385031215614eab57600080fd5b505080516020909101519092909150565b8082018082111561092a5761092a614d36565b6040810160068410614ef157634e487b7160e01b600052602160045260246000fd5b9281526020015290565b634e487b7160e01b600052603260045260246000fd5b828152604060208201526000614e90604083018461433f565b60008151808452602080850194506020840160005b838110156147b95781516001600160801b031687529582019590820190600101614f3f565b848152608060208201526000614f7d6080830186614f2a565b8281036040840152614f8f8186614f2a565b9150506001600160801b038316606083015295945050505050565b60006020808385031215614fbd57600080fd5b82516001600160401b03811115614fd357600080fd5b8301601f81018513614fe457600080fd5b8051614ff261455d82614519565b81815260069190911b8201830190838101908783111561501157600080fd5b928401925b82841015615067576040848903121561502f5760008081fd5b6150376144c1565b8451615042816148e1565b815284860151615051816148e1565b8187015282526040939093019290840190615016565b979650505050505050565b601f821115610cc4576000816000526020600020601f850160051c8101602086101561509b5750805b601f850160051c820191505b81811015611815578281556001016150a7565b81516001600160401b038111156150d3576150d36144ab565b6150e7816150e18454614c3c565b84615072565b602080601f83116001811461511c57600084156151045750858301515b600019600386901b1c1916600185901b178555611815565b600085815260208120601f198616915b8281101561514b5788860151825594840194600190910190840161512c565b50858210156151695787850151600019600388901b60f8161c191681555b5050505050600190811b01905550565b81835281816020850137506000828201602090810191909152601f909101601f19169091010190565b80356001600160401b038116811461419257600080fd5b6000808335601e198436030181126151d057600080fd5b83016020810192503590506001600160401b038111156151ef57600080fd5b8060051b3603821315612a9157600080fd5b81835260006001600160fb1b0383111561521a57600080fd5b8260051b80836020870137939093016020019392505050565b6000808335601e1984360301811261524a57600080fd5b83016020810192503590506001600160401b0381111561526957600080fd5b803603821315612a9157600080fd5b60408152600061528c604083018587615179565b8281036020840152833560fe198536030181126152a857600080fd5b6040825284016001600160401b036152bf826151a2565b1660408301526152d1602082016151a2565b6001600160401b03811660608401525060408101356080830152606081013560a0830152608081013560c083015260a081013560e083015261531660c08201826151b9565b6101008481015261532c61014085018284615201565b91505061533c60e08301836151b9565b848303603f19016101208601529250615356828483615201565b925050506153676020860186615233565b838303602085015261537a838284615179565b9998505050505050505050565b602081526000614e90602083018486615179565b600080604083850312156153ae57600080fd5b8251915060208301516148a881614172565b6001600160401b038311156153d7576153d76144ab565b6153eb836153e58354614c3c565b83615072565b6000601f84116001811461541f57600085156154075750838201355b600019600387901b1c1916600186901b178355612e32565b600083815260209020601f19861690835b828110156154505786850135825560209485019460019092019101615430565b508682101561546d5760001960f88860031b161c19848701351681555b505060018560011b0183555050505050565b8381526060602082015260006154986060830185614f2a565b8281036040840152611e878185614f2a565b6040815260006154bd6040830185614788565b82810360208401526154cf8185614788565b95945050505050565b6001600160a01b03868116825285166020820152604081018490526060810183905260a06080820181905260009061506790830184614298565b60006020828403121561552457600080fd5b81516141f6816141c3565b6001600160a01b0386811682528516602082015260a06040820181905260009061555b90830186614788565b828103606084015261556d8186614788565b905082810360808401526155818185614298565b9897505050505050505056fe4b984622ccd95d46d58ee4b4ec121acbc6f1d9de4a5997f2013e0daf02c10104a264697066735822122086e1cfc9882df746eb12bd030f80955f2624ad3011e627ad0e60cc98570b357d64736f6c63430008180033","linkReferences":{}},"methodIdentifiers":{"accounts(address,address)":"ad74b775","addDapp(address)":"27b7ca5f","balanceOf(address,uint256)":"00fdd58e","balanceOfBatch(address[],uint256[])":"4e1273f4","bondingCurveSteps(uint256)":"fa1c4db6","buyCartridges(bytes32,uint256,uint256)":"3c973f06","cartridgeBondUtilsAddress()":"eba4c82f","cartridgeBondingCurveModelAddress()":"af5baf44","cartridgeBonds(bytes32)":"226f877e","cartridgeBondsCreated(uint256)":"305e1d73","cartridgeModelAddress()":"7baa9fe8","cartridgeOwnershipModelAddress()":"3b906e47","cartridgesCount()":"ea6c6811","changeCartridgeModel(bytes32,address)":"fd3bf34b","consumeCartridges(bytes32,uint256)":"12e6bacd","currencyTokenAddress()":"d3c3b389","dappAddresses(address)":"787ca438","exists(bytes32)":"38a699a4","feeConfig()":"1e5eb1d0","feeModelAddress()":"3ab03c8b","getCartridgeData(bytes32)":"056e9c55","getCurrentBuyPrice(bytes32,uint256)":"724969e7","getCurrentConsumePrice(bytes32,uint256)":"bbfef088","getCurrentSellPrice(bytes32,uint256)":"b16cae66","isApprovedForAll(address,address)":"e985e9c5","maxCartridgeSupply(bytes32)":"db907f67","maxSupply()":"d5abeb01","owner()":"8da5cb5b","renounceOwnership()":"715018a6","safeBatchTransferFrom(address,address,uint256[],uint256[],bytes)":"2eb2c2d6","safeTransferFrom(address,address,uint256,uint256,bytes)":"f242432a","sellCartridges(bytes32,uint256,uint256)":"1aba7deb","setApprovalForAll(address,bool)":"a22cb465","setCartridgeParams(bytes32)":"42e201f4","setCartridgeParamsCustom(bytes32,uint256,uint128[],uint128[],bool)":"ae476c9a","setURI(string)":"02fe5305","supportsInterface(bytes4)":"01ffc9a7","totalCartridges()":"aca6d572","transferOwnership(address)":"f2fde38b","updateBondingCurveParams(address,address,address,address,address,uint128,uint256,uint128[],uint128[])":"dfb37988","updateProtocolWallet(address)":"e308a099","uri(uint256)":"0e89341c","validateCartridge(address,bytes32,bytes,((uint64,uint64,bytes32,bytes32,bytes32,bytes32,bytes32[],bytes32[]),bytes))":"61b1a4c4","validateCartridgeCustom(address,bytes32,bytes,((uint64,uint64,bytes32,bytes32,bytes32,bytes32,bytes32[],bytes32[]),bytes),uint256,uint128[],uint128[],bool)":"b574b0b3","withdrawBalance(address,uint256)":"0cf20cc9"},"id":43}