{"abi":[{"type":"constructor","inputs":[{"name":"newCartridgeBondUtilsAddress","type":"address","internalType":"address"},{"name":"maxSteps","type":"uint256","internalType":"uint256"}],"stateMutability":"nonpayable"},{"type":"function","name":"accounts","inputs":[{"name":"","type":"address","internalType":"address"},{"name":"","type":"address","internalType":"address"}],"outputs":[{"name":"","type":"uint256","internalType":"uint256"}],"stateMutability":"view"},{"type":"function","name":"balanceOf","inputs":[{"name":"account","type":"address","internalType":"address"},{"name":"id","type":"uint256","internalType":"uint256"}],"outputs":[{"name":"","type":"uint256","internalType":"uint256"}],"stateMutability":"view"},{"type":"function","name":"balanceOfBatch","inputs":[{"name":"accounts","type":"address[]","internalType":"address[]"},{"name":"ids","type":"uint256[]","internalType":"uint256[]"}],"outputs":[{"name":"","type":"uint256[]","internalType":"uint256[]"}],"stateMutability":"view"},{"type":"function","name":"bondingCurveSteps","inputs":[{"name":"","type":"uint256","internalType":"uint256"}],"outputs":[{"name":"rangeMax","type":"uint256","internalType":"uint256"},{"name":"coefficient","type":"uint256","internalType":"uint256"}],"stateMutability":"view"},{"type":"function","name":"buyCartridges","inputs":[{"name":"cartridgeId","type":"bytes32","internalType":"bytes32"},{"name":"cartridgesToMint","type":"uint256","internalType":"uint256"},{"name":"maxCurrencyPrice","type":"uint256","internalType":"uint256"}],"outputs":[{"name":"currencyCost","type":"uint256","internalType":"uint256"}],"stateMutability":"payable"},{"type":"function","name":"cartridgeBondUtilsAddress","inputs":[],"outputs":[{"name":"","type":"address","internalType":"address"}],"stateMutability":"view"},{"type":"function","name":"cartridgeBondingCurveModelAddress","inputs":[],"outputs":[{"name":"","type":"address","internalType":"address"}],"stateMutability":"view"},{"type":"function","name":"cartridgeBonds","inputs":[{"name":"","type":"bytes32","internalType":"bytes32"}],"outputs":[{"name":"bond","type":"tuple","internalType":"struct BondUtils.BondData","components":[{"name":"currencyToken","type":"address","internalType":"address"},{"name":"steps","type":"tuple[]","internalType":"struct IBondingCurveModel.BondingCurveStep[]","components":[{"name":"rangeMax","type":"uint256","internalType":"uint256"},{"name":"coefficient","type":"uint256","internalType":"uint256"}]},{"name":"currencyBalance","type":"uint256","internalType":"uint256"},{"name":"currentSupply","type":"uint256","internalType":"uint256"},{"name":"currentPrice","type":"uint256","internalType":"uint256"},{"name":"consumePrice","type":"uint256","internalType":"uint256"},{"name":"unclaimed","type":"tuple","internalType":"struct BondUtils.UnclaimedFees","components":[{"name":"mint","type":"uint256","internalType":"uint256"},{"name":"burn","type":"uint256","internalType":"uint256"},{"name":"consume","type":"uint256","internalType":"uint256"},{"name":"royalties","type":"uint256","internalType":"uint256"},{"name":"undistributedRoyalties","type":"uint256","internalType":"uint256"}]},{"name":"count","type":"tuple","internalType":"struct BondUtils.BondCount","components":[{"name":"minted","type":"uint256","internalType":"uint256"},{"name":"burned","type":"uint256","internalType":"uint256"},{"name":"consumed","type":"uint256","internalType":"uint256"}]}]},{"name":"feeModel","type":"address","internalType":"address"},{"name":"feeConfig","type":"uint256","internalType":"uint256"},{"name":"cartridgeModel","type":"address","internalType":"address"},{"name":"cartridgeOwner","type":"address","internalType":"address"},{"name":"lastUpdate","type":"uint256","internalType":"uint256"},{"name":"eventData","type":"bytes","internalType":"bytes"}],"stateMutability":"view"},{"type":"function","name":"cartridgeBondsCreated","inputs":[{"name":"","type":"uint256","internalType":"uint256"}],"outputs":[{"name":"","type":"bytes32","internalType":"bytes32"}],"stateMutability":"view"},{"type":"function","name":"cartridgeModelAddress","inputs":[],"outputs":[{"name":"","type":"address","internalType":"address"}],"stateMutability":"view"},{"type":"function","name":"cartridgeOwnershipModelAddress","inputs":[],"outputs":[{"name":"","type":"address","internalType":"address"}],"stateMutability":"view"},{"type":"function","name":"cartridgesCount","inputs":[],"outputs":[{"name":"","type":"uint256","internalType":"uint256"}],"stateMutability":"view"},{"type":"function","name":"changeCartridgeModel","inputs":[{"name":"cartridgeId","type":"bytes32","internalType":"bytes32"},{"name":"newCartridgeModel","type":"address","internalType":"address"}],"outputs":[],"stateMutability":"nonpayable"},{"type":"function","name":"consumeCartridges","inputs":[{"name":"cartridgeId","type":"bytes32","internalType":"bytes32"},{"name":"cartridgesToConsume","type":"uint256","internalType":"uint256"}],"outputs":[{"name":"","type":"uint256","internalType":"uint256"}],"stateMutability":"nonpayable"},{"type":"function","name":"currencyTokenAddress","inputs":[],"outputs":[{"name":"","type":"address","internalType":"address"}],"stateMutability":"view"},{"type":"function","name":"dappAddresses","inputs":[{"name":"","type":"address","internalType":"address"}],"outputs":[{"name":"","type":"bool","internalType":"bool"}],"stateMutability":"view"},{"type":"function","name":"exists","inputs":[{"name":"cartridgeId","type":"bytes32","internalType":"bytes32"}],"outputs":[{"name":"","type":"bool","internalType":"bool"}],"stateMutability":"view"},{"type":"function","name":"feeConfig","inputs":[],"outputs":[{"name":"","type":"uint256","internalType":"uint256"}],"stateMutability":"view"},{"type":"function","name":"feeModelAddress","inputs":[],"outputs":[{"name":"","type":"address","internalType":"address"}],"stateMutability":"view"},{"type":"function","name":"getCartridgeData","inputs":[{"name":"cartridgeId","type":"bytes32","internalType":"bytes32"}],"outputs":[{"name":"","type":"bytes32","internalType":"bytes32"},{"name":"","type":"uint256","internalType":"uint256"},{"name":"","type":"bytes32","internalType":"bytes32"},{"name":"","type":"int256","internalType":"int256"}],"stateMutability":"view"},{"type":"function","name":"getCurrentBuyPrice","inputs":[{"name":"cartridgeId","type":"bytes32","internalType":"bytes32"},{"name":"tokensToMint","type":"uint256","internalType":"uint256"}],"outputs":[{"name":"","type":"uint256","internalType":"uint256"},{"name":"","type":"uint256","internalType":"uint256"},{"name":"","type":"uint256","internalType":"uint256"}],"stateMutability":"view"},{"type":"function","name":"getCurrentConsumePrice","inputs":[{"name":"cartridgeId","type":"bytes32","internalType":"bytes32"},{"name":"tokensToConsume","type":"uint256","internalType":"uint256"}],"outputs":[{"name":"","type":"uint256","internalType":"uint256"},{"name":"","type":"uint256","internalType":"uint256"}],"stateMutability":"view"},{"type":"function","name":"getCurrentSellPrice","inputs":[{"name":"cartridgeId","type":"bytes32","internalType":"bytes32"},{"name":"tokensToBurn","type":"uint256","internalType":"uint256"}],"outputs":[{"name":"","type":"uint256","internalType":"uint256"},{"name":"","type":"uint256","internalType":"uint256"},{"name":"","type":"uint256","internalType":"uint256"}],"stateMutability":"view"},{"type":"function","name":"isApprovedForAll","inputs":[{"name":"account","type":"address","internalType":"address"},{"name":"operator","type":"address","internalType":"address"}],"outputs":[{"name":"","type":"bool","internalType":"bool"}],"stateMutability":"view"},{"type":"function","name":"maxCartridgeSupply","inputs":[{"name":"cartridgeId","type":"bytes32","internalType":"bytes32"}],"outputs":[{"name":"","type":"uint256","internalType":"uint256"}],"stateMutability":"view"},{"type":"function","name":"maxSupply","inputs":[],"outputs":[{"name":"","type":"uint256","internalType":"uint256"}],"stateMutability":"view"},{"type":"function","name":"owner","inputs":[],"outputs":[{"name":"","type":"address","internalType":"address"}],"stateMutability":"view"},{"type":"function","name":"renounceOwnership","inputs":[],"outputs":[],"stateMutability":"nonpayable"},{"type":"function","name":"safeBatchTransferFrom","inputs":[{"name":"from","type":"address","internalType":"address"},{"name":"to","type":"address","internalType":"address"},{"name":"ids","type":"uint256[]","internalType":"uint256[]"},{"name":"values","type":"uint256[]","internalType":"uint256[]"},{"name":"data","type":"bytes","internalType":"bytes"}],"outputs":[],"stateMutability":"nonpayable"},{"type":"function","name":"safeTransferFrom","inputs":[{"name":"from","type":"address","internalType":"address"},{"name":"to","type":"address","internalType":"address"},{"name":"id","type":"uint256","internalType":"uint256"},{"name":"value","type":"uint256","internalType":"uint256"},{"name":"data","type":"bytes","internalType":"bytes"}],"outputs":[],"stateMutability":"nonpayable"},{"type":"function","name":"sellCartridges","inputs":[{"name":"cartridgeId","type":"bytes32","internalType":"bytes32"},{"name":"cartridgesToBurn","type":"uint256","internalType":"uint256"},{"name":"minCurrencyRefund","type":"uint256","internalType":"uint256"}],"outputs":[{"name":"","type":"uint256","internalType":"uint256"}],"stateMutability":"nonpayable"},{"type":"function","name":"setApprovalForAll","inputs":[{"name":"operator","type":"address","internalType":"address"},{"name":"approved","type":"bool","internalType":"bool"}],"outputs":[],"stateMutability":"nonpayable"},{"type":"function","name":"setCartridgeParams","inputs":[{"name":"cartridgeId","type":"bytes32","internalType":"bytes32"}],"outputs":[],"stateMutability":"nonpayable"},{"type":"function","name":"setCartridgeParamsCustom","inputs":[{"name":"cartridgeId","type":"bytes32","internalType":"bytes32"},{"name":"bondFeeConfig","type":"uint256","internalType":"uint256"},{"name":"stepRangesMax","type":"uint256[]","internalType":"uint256[]"},{"name":"stepCoefficients","type":"uint256[]","internalType":"uint256[]"},{"name":"creatorAllocation","type":"bool","internalType":"bool"}],"outputs":[],"stateMutability":"nonpayable"},{"type":"function","name":"setDapp","inputs":[{"name":"dapp","type":"address","internalType":"address"},{"name":"active","type":"bool","internalType":"bool"}],"outputs":[],"stateMutability":"nonpayable"},{"type":"function","name":"setURI","inputs":[{"name":"newUri","type":"string","internalType":"string"}],"outputs":[],"stateMutability":"nonpayable"},{"type":"function","name":"supportsInterface","inputs":[{"name":"interfaceId","type":"bytes4","internalType":"bytes4"}],"outputs":[{"name":"","type":"bool","internalType":"bool"}],"stateMutability":"view"},{"type":"function","name":"totalCartridges","inputs":[],"outputs":[{"name":"","type":"uint256","internalType":"uint256"}],"stateMutability":"view"},{"type":"function","name":"transferOwnership","inputs":[{"name":"newOwner","type":"address","internalType":"address"}],"outputs":[],"stateMutability":"nonpayable"},{"type":"function","name":"updateBondingCurveParams","inputs":[{"name":"newCurrencyToken","type":"address","internalType":"address"},{"name":"newFeeModel","type":"address","internalType":"address"},{"name":"newCartridgeModel","type":"address","internalType":"address"},{"name":"newCartridgeOwnershipModelAddress","type":"address","internalType":"address"},{"name":"newCartridgeBondingCurveModelAddress","type":"address","internalType":"address"},{"name":"newMaxSupply","type":"uint256","internalType":"uint256"},{"name":"newFeeConfig","type":"uint256","internalType":"uint256"},{"name":"stepRangesMax","type":"uint256[]","internalType":"uint256[]"},{"name":"stepCoefficients","type":"uint256[]","internalType":"uint256[]"}],"outputs":[],"stateMutability":"nonpayable"},{"type":"function","name":"updateProtocolWallet","inputs":[{"name":"newProtocolWallet","type":"address","internalType":"address"}],"outputs":[],"stateMutability":"nonpayable"},{"type":"function","name":"uri","inputs":[{"name":"tokenId","type":"uint256","internalType":"uint256"}],"outputs":[{"name":"","type":"string","internalType":"string"}],"stateMutability":"view"},{"type":"function","name":"uri","inputs":[{"name":"tokenId","type":"bytes32","internalType":"bytes32"}],"outputs":[{"name":"","type":"string","internalType":"string"}],"stateMutability":"view"},{"type":"function","name":"validateCartridge","inputs":[{"name":"dapp","type":"address","internalType":"address"},{"name":"cartridgeId","type":"bytes32","internalType":"bytes32"},{"name":"_payload","type":"bytes","internalType":"bytes"},{"name":"_v","type":"tuple","internalType":"struct Proof","components":[{"name":"validity","type":"tuple","internalType":"struct OutputValidityProof","components":[{"name":"inputIndexWithinEpoch","type":"uint64","internalType":"uint64"},{"name":"outputIndexWithinInput","type":"uint64","internalType":"uint64"},{"name":"outputHashesRootHash","type":"bytes32","internalType":"bytes32"},{"name":"vouchersEpochRootHash","type":"bytes32","internalType":"bytes32"},{"name":"noticesEpochRootHash","type":"bytes32","internalType":"bytes32"},{"name":"machineStateHash","type":"bytes32","internalType":"bytes32"},{"name":"outputHashInOutputHashesSiblings","type":"bytes32[]","internalType":"bytes32[]"},{"name":"outputHashesInEpochSiblings","type":"bytes32[]","internalType":"bytes32[]"}]},{"name":"context","type":"bytes","internalType":"bytes"}]}],"outputs":[{"name":"","type":"bytes32","internalType":"bytes32"}],"stateMutability":"nonpayable"},{"type":"function","name":"validateCartridgeCustom","inputs":[{"name":"dapp","type":"address","internalType":"address"},{"name":"cartridgeId","type":"bytes32","internalType":"bytes32"},{"name":"_payload","type":"bytes","internalType":"bytes"},{"name":"_v","type":"tuple","internalType":"struct Proof","components":[{"name":"validity","type":"tuple","internalType":"struct OutputValidityProof","components":[{"name":"inputIndexWithinEpoch","type":"uint64","internalType":"uint64"},{"name":"outputIndexWithinInput","type":"uint64","internalType":"uint64"},{"name":"outputHashesRootHash","type":"bytes32","internalType":"bytes32"},{"name":"vouchersEpochRootHash","type":"bytes32","internalType":"bytes32"},{"name":"noticesEpochRootHash","type":"bytes32","internalType":"bytes32"},{"name":"machineStateHash","type":"bytes32","internalType":"bytes32"},{"name":"outputHashInOutputHashesSiblings","type":"bytes32[]","internalType":"bytes32[]"},{"name":"outputHashesInEpochSiblings","type":"bytes32[]","internalType":"bytes32[]"}]},{"name":"context","type":"bytes","internalType":"bytes"}]},{"name":"bondFeeConfig","type":"uint256","internalType":"uint256"},{"name":"stepRangesMax","type":"uint256[]","internalType":"uint256[]"},{"name":"stepCoefficients","type":"uint256[]","internalType":"uint256[]"},{"name":"creatorAllocation","type":"bool","internalType":"bool"}],"outputs":[{"name":"","type":"bytes32","internalType":"bytes32"}],"stateMutability":"nonpayable"},{"type":"function","name":"withdrawBalance","inputs":[{"name":"token","type":"address","internalType":"address"},{"name":"amount","type":"uint256","internalType":"uint256"}],"outputs":[],"stateMutability":"nonpayable"},{"type":"event","name":"ApprovalForAll","inputs":[{"name":"account","type":"address","indexed":true,"internalType":"address"},{"name":"operator","type":"address","indexed":true,"internalType":"address"},{"name":"approved","type":"bool","indexed":false,"internalType":"bool"}],"anonymous":false},{"type":"event","name":"Bond","inputs":[{"name":"id","type":"bytes32","indexed":true,"internalType":"bytes32"},{"name":"token","type":"address","indexed":true,"internalType":"address"},{"name":"currentPrice","type":"uint256","indexed":false,"internalType":"uint256"},{"name":"currentSupply","type":"uint256","indexed":false,"internalType":"uint256"},{"name":"currentBalance","type":"uint256","indexed":false,"internalType":"uint256"}],"anonymous":false},{"type":"event","name":"Buy","inputs":[{"name":"id","type":"bytes32","indexed":true,"internalType":"bytes32"},{"name":"user","type":"address","indexed":true,"internalType":"address"},{"name":"amountMinted","type":"uint256","indexed":false,"internalType":"uint256"},{"name":"pricePayed","type":"uint256","indexed":false,"internalType":"uint256"}],"anonymous":false},{"type":"event","name":"Consume","inputs":[{"name":"id","type":"bytes32","indexed":true,"internalType":"bytes32"},{"name":"user","type":"address","indexed":true,"internalType":"address"},{"name":"amountConsumed","type":"uint256","indexed":false,"internalType":"uint256"},{"name":"currencyDonated","type":"uint256","indexed":false,"internalType":"uint256"}],"anonymous":false},{"type":"event","name":"OwnershipTransferred","inputs":[{"name":"previousOwner","type":"address","indexed":true,"internalType":"address"},{"name":"newOwner","type":"address","indexed":true,"internalType":"address"}],"anonymous":false},{"type":"event","name":"Reward","inputs":[{"name":"id","type":"bytes32","indexed":true,"internalType":"bytes32"},{"name":"user","type":"address","indexed":true,"internalType":"address"},{"name":"token","type":"address","indexed":true,"internalType":"address"},{"name":"rewardType","type":"uint8","indexed":false,"internalType":"enum BondUtils.RewardType"},{"name":"amount","type":"uint256","indexed":false,"internalType":"uint256"}],"anonymous":false},{"type":"event","name":"Sell","inputs":[{"name":"id","type":"bytes32","indexed":true,"internalType":"bytes32"},{"name":"user","type":"address","indexed":true,"internalType":"address"},{"name":"amountBurned","type":"uint256","indexed":false,"internalType":"uint256"},{"name":"refundReceived","type":"uint256","indexed":false,"internalType":"uint256"}],"anonymous":false},{"type":"event","name":"TransferBatch","inputs":[{"name":"operator","type":"address","indexed":true,"internalType":"address"},{"name":"from","type":"address","indexed":true,"internalType":"address"},{"name":"to","type":"address","indexed":true,"internalType":"address"},{"name":"ids","type":"uint256[]","indexed":false,"internalType":"uint256[]"},{"name":"values","type":"uint256[]","indexed":false,"internalType":"uint256[]"}],"anonymous":false},{"type":"event","name":"TransferSingle","inputs":[{"name":"operator","type":"address","indexed":true,"internalType":"address"},{"name":"from","type":"address","indexed":true,"internalType":"address"},{"name":"to","type":"address","indexed":true,"internalType":"address"},{"name":"id","type":"uint256","indexed":false,"internalType":"uint256"},{"name":"value","type":"uint256","indexed":false,"internalType":"uint256"}],"anonymous":false},{"type":"event","name":"URI","inputs":[{"name":"value","type":"string","indexed":false,"internalType":"string"},{"name":"id","type":"uint256","indexed":true,"internalType":"uint256"}],"anonymous":false},{"type":"error","name":"Bond__InvalidAmount","inputs":[]},{"type":"error","name":"Cartridge__ChangeError","inputs":[]},{"type":"error","name":"Cartridge__InsufficientFunds","inputs":[]},{"type":"error","name":"Cartridge__InvalidCartridge","inputs":[{"name":"reason","type":"string","internalType":"string"}]},{"type":"error","name":"Cartridge__InvalidDapp","inputs":[]},{"type":"error","name":"Cartridge__InvalidOwner","inputs":[]},{"type":"error","name":"Cartridge__InvalidParams","inputs":[]},{"type":"error","name":"Cartridge__InvalidTransfer","inputs":[{"name":"reason","type":"string","internalType":"string"}]},{"type":"error","name":"Cartridge__InvalidUser","inputs":[]},{"type":"error","name":"Cartridge__NotFound","inputs":[]},{"type":"error","name":"Cartridge__SlippageLimitExceeded","inputs":[]},{"type":"error","name":"ERC1155InsufficientBalance","inputs":[{"name":"sender","type":"address","internalType":"address"},{"name":"balance","type":"uint256","internalType":"uint256"},{"name":"needed","type":"uint256","internalType":"uint256"},{"name":"tokenId","type":"uint256","internalType":"uint256"}]},{"type":"error","name":"ERC1155InvalidApprover","inputs":[{"name":"approver","type":"address","internalType":"address"}]},{"type":"error","name":"ERC1155InvalidArrayLength","inputs":[{"name":"idsLength","type":"uint256","internalType":"uint256"},{"name":"valuesLength","type":"uint256","internalType":"uint256"}]},{"type":"error","name":"ERC1155InvalidOperator","inputs":[{"name":"operator","type":"address","internalType":"address"}]},{"type":"error","name":"ERC1155InvalidReceiver","inputs":[{"name":"receiver","type":"address","internalType":"address"}]},{"type":"error","name":"ERC1155InvalidSender","inputs":[{"name":"sender","type":"address","internalType":"address"}]},{"type":"error","name":"ERC1155MissingApprovalForAll","inputs":[{"name":"operator","type":"address","internalType":"address"},{"name":"owner","type":"address","internalType":"address"}]},{"type":"error","name":"OwnableInvalidOwner","inputs":[{"name":"owner","type":"address","internalType":"address"}]},{"type":"error","name":"OwnableUnauthorizedAccount","inputs":[{"name":"account","type":"address","internalType":"address"}]}],"bytecode":{"object":"0x60a034620001bc5762005515906001600160401b0390601f38849003908101601f191682019083821183831017620001a65780839160409687948552833981010312620001bc5780516001600160a01b038082169390929091849003620001bc576020015190845190602082019082821090821117620001a657855260008091526200008d600254620001c1565b601f811162000165575b508060025532156200014e57600380546001600160a01b03198082163290811790935594167f8be0079c531659141344cd1fd0a4f28419497f9722a3daafe3b4186f6b6457e08380a3620000ed600454620001c1565b601f81116200012a575b505060006004553282600e541617600e556080526009541617600955516152fd9081620002188239608051816138660152f35b601f602083600462000146955220910160051c810190620001fe565b3880620000f7565b602490855190631e4fbdf760e01b82526004820152fd5b600282526200019f90601f0160051c7f405787fa12a823e0f2b7631cc41b3ba8828b3321ca811111fa75cd3aa3bb5ace90810190620001fe565b3862000097565b634e487b7160e01b600052604160045260246000fd5b600080fd5b90600182811c92168015620001f3575b6020831014620001dd57565b634e487b7160e01b600052602260045260246000fd5b91607f1691620001d1565b8181106200020a575050565b60008155600101620001fe56fe6080604052600436101561001257600080fd5b60003560e01c8062fdd58e146102f157806301ffc9a7146102ec57806302fe5305146102e7578063056e9c55146102e25780630cf20cc9146102dd5780630e89341c1461027457806312e6bacd146102d857806319b53cf9146102d35780631aba7deb146102ce5780631e5eb1d0146102c9578063226f877e146102c45780632eb2c2d6146102bf578063305e1d73146102ba57806338a699a4146102b55780633ab03c8b146102b05780633b906e47146102ab5780633c973f06146102a657806342e201f4146102a15780634e1273f41461029c57806361b1a4c414610297578063715018a614610292578063724969e71461028d578063787ca438146102885780637baa9fe8146102835780638d3b52351461027e5780638da5cb5b146102795780639ed19ddb14610274578063a22cb4651461026f578063aca6d5721461026a578063ad74b77514610265578063af5baf4414610260578063b16cae661461025b578063bbfef08814610256578063bdd86b2114610251578063ca00695b1461024c578063d3c3b38914610247578063d5abeb0114610242578063db907f671461023d578063e308a09914610238578063e985e9c514610233578063ea6c68111461022e578063eba4c82f14610229578063f242432a14610224578063f2fde38b1461021f578063fa1c4db61461021a5763fd3bf34b1461021557600080fd5b612cda565b612c61565b612ba3565b612a7e565b612a55565b612a37565b6129ed565b612994565b612946565b612928565b6128ff565b61285d565b6127c8565b6126f7565b6125ab565b612582565b612546565b612479565b6123d4565b6108c9565b6123ab565b61233d565b6122ef565b6122ad565b61210e565b6120b0565b611fbc565b611ef2565b611e1f565b611a1c565b6119f3565b6119ca565b611999565b61195a565b6117ef565b611702565b611359565b610f1e565b610e19565b6109dd565b6106d0565b610563565b610433565b610398565b610335565b6001600160a01b0381160361030757565b600080fd5b60643590610319826102f6565b565b60843590610319826102f6565b60043590610319826102f6565b3461030757604036600319011261030757602061037d600435610357816102f6565b6024356000526000835260406000209060018060a01b0316600052602052604060002090565b54604051908152f35b6001600160e01b031981160361030757565b346103075760203660031901126103075760206004356103b781610386565b63ffffffff60e01b16636cdb3d1360e11b81149081156103f5575b81156103e4575b506040519015158152f35b6301ffc9a760e01b149050386103d9565b6303a24d0760e21b811491506103d2565b9181601f84011215610307578235916001600160401b038311610307576020838186019501011161030757565b3461030757602080600319360112610307576001600160401b0360043581811161030757610468610477913690600401610406565b610470613ae3565b369161179d565b91825191821161055e57610495826104906002546114dd565b613b26565b602090601f83116001146104d7575081906104c7936000926104cc575b50508160011b916000199060031b1c19161790565b600255005b0151905038806104b2565b90601f1983169361050a60026000527f405787fa12a823e0f2b7631cc41b3ba8828b3321ca811111fa75cd3aa3bb5ace90565b926000905b868210610546575050836001951061052d575b505050811b01600255005b015160001960f88460031b161c19169055388080610522565b8060018596829496860151815501950193019061050f565b610cde565b3461030757602036600319011261030757600435610596601361059083600052600f602052604060002090565b01612e3b565b156106905760808160136105f06105df6105d36105d360106105c561060d99600052600f602052604060002090565b01546001600160a01b031690565b6001600160a01b031690565b92600052600f602052604060002090565b01906040518080958194637570c58b60e11b835260048301612e67565b03915afa801561068b576000809160008091610650575b9061064c91604051948594859094939260609260808301968352602083015260408201520152565b0390f35b5050505061067861064c9160803d608011610684575b6106708183610d3d565b810190612e45565b91935083929190610624565b503d610666565b612e78565b604051639ffe2da160e01b81526020600482015260136024820152726361727472696467654f75747075744461746160681b6044820152606490fd5b0390fd5b34610307576040806003193601126103075760049081356106f0816102f6565b336000908152601160205260409020602435919082906107249083905b9060018060a01b0316600052602052604060002090565b54106108725733600090815260116020526040902061074490829061070d565b61074f838254612e9a565b90556001600160a01b031690811561085757825163095ea7b360e01b815230858201908152602081810184905293919084908290819060400103816000865af190811561068b5760009161083a575b501561082a5783516323b872dd60e01b815230868201908152336020820152604081019390935291839183918290600090829060600103925af191821561068b576000926107fd575b5050156107f057005b516303e717e760e51b8152fd5b61081c9250803d10610823575b6108148183610d3d565b810190612eea565b38806107e7565b503d61080a565b505050516303e717e760e51b8152fd5b6108519150843d8611610823576108148183610d3d565b3861079e565b6000808093508092335af161086a612eba565b50156107f057005b5050516368d134dd60e11b8152fd5b60005b8381106108945750506000910152565b8181015183820152602001610884565b906020916108bd81518092818552858086019101610881565b601f01601f1916010190565b34610307576020806003193601126103075760018060a01b0360095416610925604051600435848201528381526108ff81610cf4565b604051809363316fb1bf60e21b82528560048301528180600095869560248301906108a4565b03915afa90811561068b578091610956575b836109418361363b565b9061064c6040519282849384528301906108a4565b90503d8082843e6109678184610d3d565b82019183818403126109d5578051906001600160401b0382116109d9570182601f820112156109d55780519161099c83611782565b936109aa6040519586610d3d565b8385528584840101116109d2575082916109cc91858061094196019101610881565b38610937565b80fd5b5080fd5b8280fd5b346103075760408060031936011261030757600490813590602435916000818152600f6020526001838220015415610cce57610a5d93610a2783600052600f602052604060002090565b908482610a416105d36105d360095460018060a01b031690565b82516328dac05d60e21b81529889928391829187838f01612f5f565b03915afa92831561068b5780968194610ca9575b50610abd8688610a906105d36105d3600e89015460018060a01b031690565b600f8701548351631fa52aab60e11b8152808e019182526020820193909352919384928391829160400190565b03915afa90811561068b578291610c7a575b5087610adb828461302c565b03610c6a5761064c98600080516020615268833981519152948489899895610b4e610c5996610b0f8f9a610bfe9e33613bc1565b6003860198610b1f868b54612e9a565b8a55610b30600288019b8c54612e9a565b8b55600d8701610b4187825461302c565b905560058701558b613d41565b610b5d6008860191825461302c565b9055600e54610bb090610b8e906001600160a01b03165b6001600160a01b0316600090815260116020526040902090565b85546001600160a01b03165b60018060a01b0316600052602052604060002090565b610bbb82825461302c565b9055600e54845492516000815260208101929092526001600160a01b039283169b8c93909116918b91600080516020615288833981519152919081906040820190565b0390a48951908152602081018b9052339088907fff8a4589f2e064f9b82f2aec48ea80dbf6a8f623d3bd76d954da82ec4ea0079f90604090a30154915492548751938493846040919493926060820195825260208201520152565b0390a3519081529081906020820190565b86516350b30ba960e01b81528990fd5b9050610c9c9150863d8811610ca2575b610c948183610d3d565b810190612eff565b38610acf565b503d610c8a565b909350610cc4919650853d8711610ca257610c948183610d3d565b9590959238610a71565b825163f87e48db60e01b81528590fd5b634e487b7160e01b600052604160045260246000fd5b604081019081106001600160401b0382111761055e57604052565b6001600160401b03811161055e57604052565b602081019081106001600160401b0382111761055e57604052565b90601f801991011681019081106001600160401b0382111761055e57604052565b6040519061010082018281106001600160401b0382111761055e57604052565b6040519061031982610cf4565b6001600160401b03811161055e5760051b60200190565b9080601f83011215610307576020908235610dbc81610d8b565b93610dca6040519586610d3d565b81855260208086019260051b82010192831161030757602001905b828210610df3575050505090565b81358152908301908301610de5565b8015150361030757565b60e4359061031982610e02565b346103075760a0366003190112610307576004356001600160401b0360443581811161030757610e4d903690600401610da2565b9060643590811161030757610e66903690600401610da2565b60843591610e7383610e02565b600a54610e88906001600160a01b03166105d3565b60405163273bed1d60e21b81523360048201526024810186905290602090829060449082905afa90811561068b57600091610ee5575b5015610ed357610ed1936024359061310d565b005b6040516319e2f96560e31b8152600490fd5b610efe915060203d602011610823576108148183610d3d565b38610ebe565b606090600319011261030757600435906024359060443590565b3461030757610f2c36610f04565b9091600092818452600f602052604091600183862001541561133d57610f5c81600052600f602052604060002090565b600954610f73906105d3906001600160a01b031681565b848051809263fdfb946360e01b82528180610f92878a60048401612f5f565b03915afa93841561068b5787610ffb98928196611318575b50600e84015487908490610fc8906105d3906001600160a01b031681565b84600f88015484519d8e94859384936358e507db60e11b8552600485016040919493926060820195825260208201520152565b03915afa801561068b57819982916112f5575b508361101a828c61302c565b116112e45761103261102c828c61302c565b85612e9a565b9889106112d35761108790611048848833613bc1565b61105760028701958654612e9a565b85556003860197611069858a54612e9a565b8955600c870161107a86825461302c565b9055600487015586613d41565b6110966007860191825461302c565b9055600e546110b190610b8e906001600160a01b0316610b74565b6110bc8a825461302c565b9055600e548454885160008152602081019b909b526001600160a01b039a908b16918291908c1690889060008051602061528883398151915290604090a4156112a05780602061114361111b6105d36105d3895460018060a01b031690565b8a5163095ea7b360e01b8152306004820152602481018d905293849283919082906044820190565b03925af190811561068b578291611281575b5015611270578060206111a56111776105d36105d3895460018060a01b031690565b8a516323b872dd60e01b8152306004820152336024820152604481018d905293849283919082906064820190565b03925af191821561068b5791611251575b50156112405791610c5961064c9892600080516020615268833981519152945b8851908152602081018a9052339087907f47d38b8b50e4b792e507faad951cda2457545e704f667a3e32f22541945ebbf690604090a382546004906001600160a01b0316930154965490549088519485941697846040919493926060820195825260208201520152565b85516303e717e760e51b8152600490fd5b61126a915060203d602011610823576108148183610d3d565b386111b6565b86516303e717e760e51b8152600490fd5b61129a915060203d602011610823576108148183610d3d565b38611155565b8080808a335af16112af612eba565b50156112405791610c5961064c9892600080516020615268833981519152946111d6565b87516303158fa960e31b8152600490fd5b87516350b30ba960e01b8152600490fd5b905061130f919950873d8911610ca257610c948183610d3d565b9890983861100e565b909550611333919250863d8811610ca257610c948183610d3d565b9190919438610faa565b825163f87e48db60e01b8152600490fd5b600091031261030757565b34610307576000366003190112610307576020600d54604051908152f35b90815461138381610d8b565b926040936113946040519182610d3d565b82815280946020809201926000526020600020906000935b8585106113bb57505050505050565b60028460019284516113cc81610cf4565b8654815284870154838201528152019301940193916113ac565b9060405160a081018181106001600160401b0382111761055e57604052608060048294805484526001810154602085015260028101546040850152600381015460608501520154910152565b90604051606081018181106001600160401b0382111761055e5760405260406002829480548452600181015460208501520154910152565b906114d6600b611478610d5e565b84546001600160a01b031681529361149260018201611377565b6020860152600281015460408601526003810154606086015260048101546080860152600581015460a08601526114cb600682016113e6565b60c086015201611432565b60e0830152565b90600182811c9216801561150d575b60208310146114f757565b634e487b7160e01b600052602260045260246000fd5b91607f16916114ec565b805460009392611526826114dd565b9182825260209360019160018116908160001461158e575060011461154d575b5050505050565b90939495506000929192528360002092846000945b83861061157a57505050500101903880808080611546565b805485870183015294019385908201611562565b60ff19168685015250505090151560051b010191503880808080611546565b906103196115c19260405193848092611517565b0383610d3d565b80516001600160a01b031682526020808201516101c082850181905281519085018190526101e085019493929182019160005b82811061169357505050509061016060e08360406116909501516040850152606081015160608501526080810151608085015260a081015160a085015261167260c082015160c086019060808091805184526020810151602085015260408101516040850152606081015160608501520151910152565b01519101906040809180518452602081015160208501520151910152565b90565b83518051885282015187830152604090960195928101926001016115fb565b939592916116cd61169098969260e0875260e08701906115c8565b9660018060a01b0393848093166020880152604087015216606085015216608083015260a082015260c08184039101526108a4565b3461030757602036600319011261030757600435600052600f602052604060002061172c8161146a565b61064c601360018060a01b039384600e8201541694600f8201549080601084015416906011840154169161177660128501549461176f6040518098819301611517565b0386610d3d565b604051978897886116b2565b6001600160401b03811161055e57601f01601f191660200190565b9291926117a982611782565b916117b76040519384610d3d565b829481845281830111610307578281602093846000960137010152565b9080601f83011215610307578160206116909335910161179d565b346103075760a0366003190112610307576004803561180d816102f6565b602435611819816102f6565b6001600160401b0390604435828111610307576118399036908601610da2565b90606435838111610307576118519036908701610da2565b926084359081116103075761186990369087016117d4565b936001600160a01b038082169033821415806118f6575b6118c9578316156118b1571561189a57610ed19550614bfb565b604051626a0d4560e21b8152600081880152602490fd5b604051632bfa23e760e11b8152600081890152602490fd5b6040805163711bec9160e11b815233818b019081526001600160a01b038616602082015290918291010390fd5b50600082815260016020908152604080832033845290915290205460ff1615611880565b634e487b7160e01b600052603260045260246000fd5b6010548110156119555760106000526000805160206152a88339815191520190600090565b61191a565b34610307576020366003190112610307576004356010548110156103075760209060106000526000805160206152a88339815191520154604051908152f35b3461030757602036600319011261030757600435600052600f60205260206001604060002001541515604051908152f35b34610307576000366003190112610307576007546040516001600160a01b039091168152602090f35b3461030757600036600319011261030757600a546040516001600160a01b039091168152602090f35b611a2536610f04565b9190600091808352600f6020526040926001848220015415611e0e57818152600f6020526001848220015415611e0e57611a6982600052600f602052604060002090565b600954909390611a83906105d3906001600160a01b031681565b8551946323ba203560e21b865286866004938180611aa48689898401612f5f565b03915afa92831561068b5784968594611de9575b50611b098888611ad76105d36105d3600e88015460018060a01b031690565b84600f870154845195869485938493636254a34560e11b85528c85016040919493926060820195825260208201520152565b03915afa801561068b5786918791611dca575b50611b3081611b2b848c61302c565b61302c565b9a8b11611dba5783546001600160a01b039790881615611d5257611b9a60208d8d8985611b696105d36105d38d5460018060a01b031690565b92516323b872dd60e01b81523392810192835230602084015260408301949094529294859384929091839160600190565b03925af191821561068b5791611d33575b5015611d23579187918b935b600286019a8b5490611bc89161302c565b8b55600386019683885490611bdc9161302c565b8855600b870184815490611bef9161302c565b90558601978855611c009084613d41565b6006860190815490611c119161302c565b9055600e546001600160a01b03908116600090815260116020908152604080832089549094168352929052208054611c4a90839061302c565b9055600e546001600160a01b03169083898d818954611c6e9060018060a01b031690565b9151600081526020810195909552911693169160008051602061528883398151915290604090a481611c9e612ea7565b823392611caa93614de9565b8951908152602081019290925233917f5bd6f821d5961785d719543640cf62d3770f94e59db1a2f3c2250d72b122dddf90604090a354915490549454865191825260208201959095526040810194909452166001600160a01b03169160008051602061526883398151915290606090a351908152602090f35b89516303e717e760e51b81528590fd5b611d4c915060203d602011610823576108148183610d3d565b38611bab565b8b99989796959b3410600014611d72578a516350b30ba960e01b81528c90fd5b91899b959697989993918993853411611d8c575b50611bb7565b8080939550611d9e8193959734612e9a565b335af1611da9612eba565b5015611d23579187918b9338611d86565b89516303158fa960e31b81528590fd5b9050611de39150893d8b11610ca257610c948183610d3d565b38611b1c565b909350611e04919650873d8911610ca257610c948183610d3d565b9590959238611ab8565b835163f87e48db60e01b8152600490fd5b3461030757602036600319011261030757600a5460043590611e49906001600160a01b03166105d3565b60405163273bed1d60e21b81523360048201526024810183905290602090829060449082905afa90811561068b57600091611e8e575b5015610ed357610ed190613316565b611ea7915060203d602011610823576108148183610d3d565b38611e7f565b90815180825260208080930193019160005b828110611ecd575050505090565b835185529381019392810192600101611ebf565b906020611690928181520190611ead565b34610307576040366003190112610307576004356001600160401b038082116103075736602383011215610307578160040135611f2e81610d8b565b92611f3c6040519485610d3d565b8184526020916024602086019160051b8301019136831161030757602401905b828210611f9557856024358681116103075761064c91611f83611f89923690600401610da2565b906134c5565b60405191829182611ee1565b8380918335611fa3816102f6565b815201910190611f5c565b908160409103126103075790565b3461030757608036600319011261030757600435611fd9816102f6565b602435906001600160401b0360443581811161030757611ffd903690600401610406565b909160643590811161030757612017903690600401611fae565b600a5490929061202f906001600160a01b03166105d3565b60405163273bed1d60e21b81523360048201526024810187905290602090829060449082905afa90811561068b57600091612091575b5015610ed357846120819461207c61064c97613316565b614661565b6040519081529081906020820190565b6120aa915060203d602011610823576108148183610d3d565b38612065565b34610307576000806003193601126109d2576120ca613ae3565b600380546001600160a01b0319811690915581906001600160a01b03167f8be0079c531659141344cd1fd0a4f28419497f9722a3daafe3b4186f6b6457e08280a380f35b34610307576040806003193601126103075760043590602435600161213d84600052600f602052604060002090565b01541561229c5761216361215e61219a94600052600f602052604060002090565b613584565b600954839061217c906105d3906001600160a01b031681565b825190825180809881946323ba203560e21b8352886004840161360d565b03915afa91821561068b5760009460009361226e575b50602082015161220593928592879284906121d5906105d3906001600160a01b031681565b920151845196879485938493636254a34560e11b8552600485016040919493926060820195825260208201520152565b03915afa801561068b5761222b6122329161064c9460009060009261224e575b5061302c565b809561302c565b9251938493846040919493926060820195825260208201520152565b90506122679150863d8811610ca257610c948183610d3d565b9038612225565b8491929550612205935061228e90823d8411610ca257610c948183610d3d565b9095869194509291506121b0565b815163f87e48db60e01b8152600490fd5b34610307576020366003190112610307576004356122ca816102f6565b60018060a01b03166000526012602052602060ff604060002054166040519015158152f35b34610307576000366003190112610307576008546040516001600160a01b039091168152602090f35b604090600319011261030757600435612330816102f6565b9060243561169081610e02565b346103075761234b36612318565b90612354613ae3565b6001600160a01b031660008181526012602052604081205490929060ff16612399576123969183526012602052604083209060ff801983541691151516179055565b80f35b6040516314949b1360e21b8152600490fd5b34610307576000366003190112610307576003546040516001600160a01b039091168152602090f35b34610307576123e236612318565b6001600160a01b03821691821561246157816124206124319233600052600160205260406000209060018060a01b0316600052602052604060002090565b9060ff801983541691151516179055565b60405190151581527f17307eab39ab6107e8899845ad3d59bd9653f200f220920489ca2b5937696c3160203392a3005b60405162ced3e160e81b815260006004820152602490fd5b34610307576000806003193601126109d257808160108054915b8285106124a557604051848152602090f35b90919261251660019184845261251060036124db896000805160206152a88339815191520154600052600f602052604060002090565b0154600d6125086124f86124ee8c611930565b90549060031b1c90565b600052600f602052604060002090565b015490612e9a565b9061302c565b940193929190612493565b604090600319011261030757600435612539816102f6565b90602435611690816102f6565b3461030757602061037d61255936612521565b6001600160a01b0391821660009081526011855260408082209290931681526020919091522090565b3461030757600036600319011261030757600b546040516001600160a01b039091168152602090f35b3461030757604080600319360112610307576004359060243560016125da84600052600f602052604060002090565b01541561229c576125fb61215e61263294600052600f602052604060002090565b6009548390612614906105d3906001600160a01b031681565b8251908251808098819463fdfb946360e01b8352886004840161360d565b03915afa91821561068b576000946000936126c9575b50602082015161269d939285928792849061266d906105d3906001600160a01b031681565b9201518451968794859384936358e507db60e11b8552600485016040919493926060820195825260208201520152565b03915afa801561068b576126c26122329161064c9460009060009261224e575061302c565b8095612e9a565b849192955061269d93506126e990823d8411610ca257610c948183610d3d565b909586919450929150612648565b346103075760408060031936011261030757600435600161272282600052600f602052604060002090565b01541561229c578161274461215e61277b93600052600f602052604060002090565b60095461275b906105d3906001600160a01b031681565b905190825180809581946328dac05d60e21b83526024356004840161360d565b03915afa91821561068b576000916000936127a3575b50519081526020810191909152604090f35b816127c092945061064c93503d8511610ca257610c948183610d3d565b929091612791565b3461030757610120366003190112610307576004356127e6816102f6565b6024356127f2816102f6565b604435906127ff826102f6565b61280761030c565b9061281061031b565b6001600160401b03949060e43586811161030757612832903690600401610da2565b93610104359687116103075761284f610ed1973690600401610da2565b9560c4359460a43594613712565b346103075761010036600319011261030757612877610328565b6001600160401b0360443581811161030757612897903690600401610406565b606435838111610307576128af903690600401611fae565b9360a435848111610307576128c8903690600401610da2565b9060c4359485116103075761064c956128e8612081963690600401610da2565b936128f1610e0c565b956084359360243590613a5d565b34610307576000366003190112610307576006546040516001600160a01b039091168152602090f35b34610307576000366003190112610307576020600c54604051908152f35b3461030757602036600319011261030757600435600052600f6020526001604060002001805490600019820191821161298f5760209161298591612c45565b5054604051908152f35b612e84565b34610307576020366003190112610307576004356129b1816102f6565b600e54906001600160a01b039081831633036129db576001600160a01b0319909216911617600e55005b604051631a2a416760e21b8152600490fd5b3461030757602060ff612a2b612a0236612521565b6001600160a01b0391821660009081526001865260408082209290931681526020919091522090565b54166040519015158152f35b34610307576000366003190112610307576020601054604051908152f35b34610307576000366003190112610307576009546040516001600160a01b039091168152602090f35b346103075760a036600319011261030757600435612a9b816102f6565b602435612aa7816102f6565b6084356001600160401b03811161030757612ac69036906004016117d4565b906001600160a01b03838116903382141580612b7f575b612b5857821615612b3f5715612b2757610ed192612b1f6064356044359160405192600184526020840152604083019160018352606084015260808301604052565b929091614bfb565b604051626a0d4560e21b815260006004820152602490fd5b604051632bfa23e760e11b815260006004820152602490fd5b60405163711bec9160e11b81523360048201526001600160a01b0386166024820152604490fd5b50600082815260016020908152604080832033845290915290205460ff1615612add565b3461030757602036600319011261030757600435612bc0816102f6565b612bc8613ae3565b6001600160a01b03908116908115612c1757600354826001600160601b0360a01b821617600355167f8be0079c531659141344cd1fd0a4f28419497f9722a3daafe3b4186f6b6457e0600080a3005b604051631e4fbdf760e01b815260006004820152602490fd5b80541561195557600052602060002090600090565b80548210156119555760005260206000209060011b0190600090565b346103075760203660031901126103075760043560055481101561030757600560005260011b7f036b6384b5eca791c62761152d0c79bb0604c104a5fb6f4eb0703f3154bb3db18160008051602061524883398151915201549101549061064c6040519283928360209093929193604081019481520152565b3461030757604036600319011261030757600435602435612cfa816102f6565b612d02613ae3565b6001612d1883600052600f602052604060002090565b015415612e2957612d38601361059084600052600f602052604060002090565b612de357600954612d53906105d3906001600160a01b031681565b803b1561030757604051632286a71160e01b81526001600160a01b038316600482015290600090829060249082905afa801561068b57610ed193601092612daa92612dca575b50600052600f602052604060002090565b0180546001600160a01b0319166001600160a01b03909216919091179055565b80612dd7612ddd92610d0f565b8061134e565b38612d99565b604051639ffe2da160e01b815260206004820152601b60248201527f43617274726964676520616c72656164792076616c69646174656400000000006044820152606490fd5b60405163f87e48db60e01b8152600490fd5b61169090546114dd565b9190826080910312610307578151916020810151916060604083015192015190565b906020611690928181520190611517565b6040513d6000823e3d90fd5b634e487b7160e01b600052601160045260246000fd5b9190820391821161298f57565b60405190612eb482610d22565b60008252565b3d15612ee5573d90612ecb82611782565b91612ed96040519384610d3d565b82523d6000602084013e565b606090565b90816020910312610307575161169081610e02565b9190826040910312610307576020825192015190565b9081548082526020809201926000526020600020916000905b828210612f3c575050505090565b835485526001808501548683015260409095019460029094019390910190612f2e565b9161169091835260406020840152612f9160408401612f84835460018060a01b031690565b6001600160a01b03169052565b6101c06060840152600b6101a0612faf610200860160018501612f15565b60028401546080870152600384015460a0870152600484015460c0870152600584015460e08701526006840154610100870152600784015461012087015260088401546101408701526009840154610160870152600a84015461018087015294019101600260409180548452600181015460208501520154910152565b9190820180921161298f57565b906020918281830312610307578051906001600160401b038211610307570181601f820112156103075780519261306f84610d8b565b936040936130806040519687610d3d565b818652828087019260061b85010193818511610307578301915b8483106130aa5750505050505090565b85838303126103075783869182516130c181610cf4565b85518152828601518382015281520192019161309a565b939291613108906130fa60609360008852608060208901526080880190611ead565b908682036040880152611ead565b930152565b600b54600c546040516309a257cd60e41b81526004810184905260806024820152939695929460009385936001600160a01b0316928492839261316a91613158906084860190611ead565b84810360031901604486015290611ead565b90606483015203915afa90811561068b576000916132f3575b50600193600161319d84600052600f602052604060002090565b0154156131ab575050505050565b84916131c184600052600f602052604060002090565b600754600e820180546001600160a01b0319166001600160a01b0390921691909117905591600f83015560065482546001600160a01b0319166001600160a01b039091161782556008546010830180546001600160a01b0319166001600160a01b03909216919091179055600160009201955b6132a7575b5050508161324682613f75565b613252575b8080611546565b60028354108015613291575b61327f5761326e61327693612c30565b505490613fab565b5038808061324b565b604051631da49c9b60e01b8152600490fd5b50600161329d84612c30565b500154151561325e565b80518210156132ee5782826132e76132c08395856134b1565b51516020806132cf85886134b1565b510151906132db610d7e565b92835282015289613f2b565b0191613234565b613239565b61331091503d806000833e6133088183610d3d565b810190613039565b38613183565b600d54906005549161332783610d8b565b6040936133376040519283610d3d565b8082526005600090815260209560008051602061524883398151915290878086015b85851061348457505050505050600193600161337f85600052600f602052604060002090565b01541561338d575050505050565b8491926133a485600052600f602052604060002090565b600754600e820180546001600160a01b0319166001600160a01b0390921691909117905590600f82015560065481546001600160a01b0319166001600160a01b039091161781556008546010820180546001600160a01b0319166001600160a01b03909216919091179055600160009101925b613434575b5050505061342a9150613f75565b3880808080611546565b835181101561347f5790858261347561345087969584986134b1565b51518461345d84896134b1565b510151613468610d7e565b9182528582015285613f2b565b0190919293613417565b61341c565b600191600291845161349581610cf4565b8654815284870154838201528152019301930192918890613359565b80518210156119555760209160051b010190565b919091805183518082036135625750508051906134fa6134e483610d8b565b926134f26040519485610d3d565b808452610d8b565b60209190601f1901368484013760005b815181101561355a57600581901b8281018401519087018401516000908152602081815260408083206001600160a01b03909416835292905220546001919061355382876134b1565b520161350a565b509193505050565b604051635b05999160e01b815260048101919091526024810191909152604490fd5b9060405160e081018181106001600160401b0382111761055e5760405260c0613608601383956135b38161146a565b8552600e8101546001600160a01b03166020860152600f810154604086015260108101546001600160a01b0316606086015260118101546001600160a01b03166080860152601281015460a0860152016115ad565b910152565b6040906116909392815281602082015201906115c8565b9061363760209282815194859201610881565b0190565b906040519182602060009060045490613653826114dd565b916001908181169081156136e95750600114613688575b50505061367a9061031993613624565b03601f198101845283610d3d565b9091925060046000527f8a35acfbc15ff81a39ae7d344fd709f28e8600b4aa8c65c6b64bfe7fe36bd19b906000915b8483106136d3575050505081016020018261367a61031961366a565b80548984018501528895509183019181016136b7565b905061367a9450602092506103199693915060ff1916828601528015150284010191819461366a565b9798969861371e613ae3565b600954613735906105d3906001600160a01b031681565b90813b15610307576040805163169f6b0560e11b81526001600160a01b038c166004808301919091526000949293909290918581602481855afa801561068b57613a4a575b50803b15613a0d57835163f610a03960e01b81526001600160a01b0387168482019081528690829081906020010381855afa801561068b57613a37575b50803b15613a0d578351632286a71160e01b81526001600160a01b0388168482019081528690829081906020010381855afa801561068b57613a24575b50803b15613a0d57835163130d243760e21b81526001600160a01b038916848201908152909186918391908290819060200103915afa801561068b57613a11575b506001600160a01b03881691823b15613a0d5790839291858f839061388d97519788928392632326e3db60e01b84527f0000000000000000000000000000000000000000000000000000000000000000878501614b72565b0381865afa93841561068b5786958c956139fa575b506138ab614b9d565b516309a257cd60e41b81529e8f94859384936138c9939085016130d8565b03915afa998a1561068b57819a6139de575b505b8951811015613924578061391e6138f66001938d6134b1565b5151828d61390760209283926134b1565b51015190613913610d7e565b928352820152613ec5565b016138dd565b506139d9959698509161399a6139b79261397d6139d496956139606103199c60018060a01b03166001600160601b0360a01b6006541617600655565b60018060a01b03166001600160601b0360a01b6007541617600755565b60018060a01b03166001600160601b0360a01b6008541617600855565b60018060a01b03166001600160601b0360a01b600a541617600a55565b60018060a01b03166001600160601b0360a01b600b541617600b55565b600c55565b600d55565b6139f3919a503d808c833e6133088183610d3d565b98386138db565b80612dd7613a0792610d0f565b386138a2565b8480fd5b80612dd7613a1e92610d0f565b38613835565b80612dd7613a3192610d0f565b386137f4565b80612dd7613a4492610d0f565b386137b7565b80612dd7613a5792610d0f565b3861377a565b600a5460405163273bed1d60e21b815233600482015260248101849052979995989497939692959194929391929190602090829060449082906001600160a01b03165afa90811561068b57600091613ac4575b5015610ed3576116909861207c938661310d565b613add915060203d602011610823576108148183610d3d565b38613ab0565b6003546001600160a01b03163303613af757565b60405163118cdaa760e01b8152336004820152602490fd5b818110613b1a575050565b60008155600101613b0f565b90601f8211613b33575050565b6103199160026000527f405787fa12a823e0f2b7631cc41b3ba8828b3321ca811111fa75cd3aa3bb5ace906020601f840160051c83019310613b7d575b601f0160051c0190613b0f565b9091508190613b70565b9190601f8111613b9657505050565b610319926000526020600020906020601f840160051c83019310613b7d57601f0160051c0190613b0f565b6001600160a01b038116929091908315612b2757613bfc60405192600184526020840152604083019160018352606084015260808301604052565b91906040946000604051613c0f81610d22565b52815184519081810361356257505060005b8251811015613cb7578060051b60208082860101519187010151613c538661070d846000526000602052604060002090565b54818110613c81578661070d6001959493613c7a9303936000526000602052604060002090565b5501613c21565b89516303dee4c560e01b81526001600160a01b038816600482015260248101919091526044810182905260648101839052608490fd5b50945060009392915060018151148414613d0e5760209081015191810151604080519384529183015233917fc3d58168c5ae7397731d063d5bbf3d657854427343f4c083240f7aacaa2d0f6291819081015b0390a4565b60405133927f4a39dc06d4c0dbc64b70af90fd698a233a518aa5d07e595d983b8c0526c8f7fb928291613d099183614f2a565b90613d5682600052600f602052604060002090565b91613d6460138401546114dd565b613d6e5750905090565b6011830180546000936001600160a01b0392909183168015613eba576001600160a01b03166000908152601160205260409020613dd49190613dba9088546001600160a01b0316610b9a565b613dc584825461302c565b9055546001600160a01b031690565b908360008051602061528883398151915284613df6895460018060a01b031690565b613e16826040519384931697169582919060206040840193600481520152565b0390a45b82613e29575b50505050600090565b600e546000805160206152888339815191529190613e6390613e53906001600160a01b0316610b74565b86546001600160a01b0316610b9a565b613e6e85825461302c565b9055600e54613e8e906001600160a01b031695546001600160a01b031690565b613eae826040519384931697169582919060206040840193600381520152565b0390a438808080613e20565b505090925091613e1a565b600554600160401b81101561055e5760018101806005558110156119555760207f036b6384b5eca791c62761152d0c79bb0604c104a5fb6f4eb0703f3154bb3db191600560005260011b9280518460008051602061524883398151915201550151910155565b8054600160401b81101561055e57613f4891600182018155612c45565b919091613f5f576020816001925184550151910155565b634e487b7160e01b600052600060045260246000fd5b601054600160401b81101561055e5760018101806010558110156119555760106000526000805160206152a88339815191520155565b6000818152600f6020526040926001848320015415611e0e57613fd883600052600f602052604060002090565b600954909490613ff2906105d3906001600160a01b031681565b908051956323ba203560e21b875281876004948180614014868a8a8401612f5f565b03915afa93841561068b578597869561438b575b50858699158015614382575b801561436a575b6142d8575b61404e8a611b2b838c61302c565b998a6142c85783546001600160a01b03989089161561425a576140b560208d6140836105d36105d38a5460018060a01b031690565b89516323b872dd60e01b815233818d019081523060208201526040810193909352938492839187918391606090910190565b03925af191821561068b579161423b575b501561422b579188918b935b600286019b8c54906140e39161302c565b8c556003860197838954906140f79161302c565b8955600b87018481549061410a9161302c565b9055860198895561411b9084613d41565b600686019081549061412c9161302c565b9055600e546001600160a01b0390811660009081526011602090815260408083208954909416835292905220805461416590839061302c565b9055600e54855487516000815260208101939093528a166001600160a01b0390811692918b161690849060008051602061528883398151915290604090a4816141ac612ea7565b8233926141b893614de9565b8451908152602081019290925233917f5bd6f821d5961785d719543640cf62d3770f94e59db1a2f3c2250d72b122dddf90604090a354925491549554905191825260208201959095526040810194909452166001600160a01b03169160008051602061526883398151915290606090a390565b84516303e717e760e51b81528690fd5b614254915060203d602011610823576108148183610d3d565b386140c6565b8b9997959b9c9a98969c341060001461427d578b516350b30ba960e01b81528d90fd5b91899b95979993918a93859e989a9c9e341161429a575b506140d2565b80809395506142ac8193959734612e9a565b335af16142b7612eba565b501561422b579188918b9338614294565b84516303158fa960e31b81528690fd5b50600e82015461432d9950839089906142fb906105d3906001600160a01b031681565b83600f86015484519d8e9485938493636254a34560e11b85528c85016040919493926060820195825260208201520152565b03915afa801561068b5786998791614347575b5098614040565b9050614361919950833d8511610ca257610c948183610d3d565b98909838614340565b506001614378818501612c30565b500154151561403b565b50881515614034565b9094506143a6919750823d8411610ca257610c948183610d3d565b9690969338614028565b908060209392818452848401376000828201840152601f01601f1916010190565b35906001600160401b038216820361030757565b9035601e19823603018112156103075701602081359101916001600160401b038211610307578160051b3603831361030757565b81835290916001600160fb1b0383116103075760209260051b809284830137010190565b9035601e19823603018112156103075701602081359101916001600160401b03821161030757813603831361030757565b929190614483916040855260408501916143b0565b91602081840391015280359160fe19823603018312156103075761455961454e836116909501604084526001600160401b036144be826143d1565b1660408501526144e36144d3602083016143d1565b6001600160401b03166060860152565b60408101356080850152606081013560a0850152608081013560c085015260a081013560e085015261453b61453061451e60c08401846143e5565b61010080890152610140880191614419565b9160e08101906143e5565b858303603f190161012087015290614419565b92602081019061443d565b9160208185039101526143b0565b91908260409103126103075760208251920151611690816102f6565b9160206116909381815201916143b0565b9092916001600160401b03811161055e576145b9816145b384546114dd565b84613b87565b6000601f82116001146145f95781906145ea9394956000926145ee5750508160011b916000199060031b1c19161790565b9055565b0135905038806104b2565b601f1982169461460e84600052602060002090565b91805b87811061464957508360019596971061462f575b505050811b019055565b0135600019600384901b60f8161c19169055388080614625565b90926020600181928686013581550194019101614611565b9391909361467985600052600f602052604060002090565b93601385019061468982546114dd565b614b38576001600160a01b03831660009081526012602052604090205460ff16156123995760408051634b243ea360e11b81526004966001600160a01b03969295908290889082906146df9088888e850161446e565b03921691815a93602094fa801561068b57614b19575b50601087015461470f906105d3906001600160a01b031681565b8451636e40c63360e11b8152939085858061472d87878d8401614583565b0381845afa94851561068b57600090600096614ae7575b508a03614aad5790608084849361477196958b8a5198899485938493637570c58b60e11b85528401614583565b03915afa93841561068b57600094614a82575b506147ad6147b2949560118b019060018060a01b03166001600160601b0360a01b825416179055565b614594565b601285015560009160068501928354806149a1575b50600786019485549081614896575b5050600095938693600a96936147ed86948b613d41565b50898354918654906147ff828561302c565b9384614813575b5050505050505555015590565b6000805160206152888339815191529261482c9161302c565b6148606148588c610b9a61484a610b74600e5460018060a01b031690565b91546001600160a01b031690565b91825461302c565b9055600e548a5495516003815260208101959095526001600160a01b0395821686169591161692604090a4388089818080614806565b906148ee929185826148b76105d36105d3600e8e015460018060a01b031690565b600f8c0154600c8d0154908451988994859384936358e507db60e11b85528985016040919493926060820195825260208201520152565b03915afa93841561068b57600094614980575b5081841161493f575093600a96936147ed61492f8560009b99956149288d9a988b99612e9a565b895561302c565b94505093965093819597506147d6565b6106cc908651918291639ffe2da160e01b83528201606090602081526011602082015270756e636c61696d65644275726e4665657360781b60408201520190565b614998919450863d8811610ca257610c948183610d3d565b90509238614901565b809150836149be6105d36105d3600e8b015460018060a01b031690565b600f890154600b8a01548351636254a34560e11b8152808b01928352602083019190915260408201959095528491908290819060600103915afa91821561068b57600092614a61575b50808211614a215781614a1991612e9a565b8455386147c7565b8351639ffe2da160e01b8152602081880181815260119181019190915270756e636c61696d65644d696e744665657360781b604082015281906060010390fd5b614a79919250843d8611610ca257610c948183610d3d565b90509038614a07565b6147b29450614aa26147ad9160803d608011610684576106708183610d3d565b505090509450614784565b8551639ffe2da160e01b81526020818a01818152600b918101919091526a18d85c9d1c9a5919d9525960aa1b604082015281906060010390fd5b9050614b0a919550863d8811614b12575b614b028183610d3d565b810190614567565b949038614744565b503d614af8565b614b319060203d602011610823576108148183610d3d565b50386146f5565b604051639ffe2da160e01b8152602060048201526011602482015270185b1c9958591e481d985b1a59185d1959607a1b6044820152606490fd5b91614b8f9061169094928452606060208501526060840190611ead565b916040818403910152611ead565b60055460008060055581614baf575050565b60016001600160ff1b038316830361298f5760056000526000805160206152488339815191529260011b8301925b838110614bea5750505050565b808360029255838382015501614bdd565b94919091815184519081810361356257505060005b8251811015614cfe57600581901b83810160209081015191870101516001600160a01b03929186908a8516614c78575b6001948216614c53575b50505001614c10565b614c6e9161070d614858926000526000602052604060002090565b9055388581614c4a565b9192939050614c958a61070d846000526000602052604060002090565b54838110614cc75791879184600196959403614cbf8d61070d856000526000602052604060002090565b559450614c40565b6040516303dee4c560e01b81526001600160a01b038c16600482015260248101919091526044810184905260648101839052608490fd5b509491939290936001855114600014614d9e576020858101518382015160408051928352928201526001600160a01b03838116929086169133917fc3d58168c5ae7397731d063d5bbf3d657854427343f4c083240f7aacaa2d0f6291a45b6001600160a01b038116614d71575050505050565b8451600103614d8d5760208061342a9601519201519233615210565b614d99949192336150dc565b61342a565b6040516001600160a01b03828116919085169033907f4a39dc06d4c0dbc64b70af90fd698a233a518aa5d07e595d983b8c0526c8f7fb9080614de1888c83614f2a565b0390a4614d5c565b6001600160a01b03811693929091908415612b3f57614e2560405192600184526020840152604083019160018352606084015260808301604052565b92815184519081810361356257505060005b8251811015614e77578060019160051b614e6f6148588761070d602080868b010151958c010151946000526000602052604060002090565b905501614e37565b509291936001825114600014614eee5760208281015184820151604080519283529282015260009133917fc3d58168c5ae7397731d063d5bbf3d657854427343f4c083240f7aacaa2d0f629190a45b8051600103614ee457906020806103199593015191015191336151db565b6103199333614fe1565b60006040517f4a39dc06d4c0dbc64b70af90fd698a233a518aa5d07e595d983b8c0526c8f7fb339180614f22888883614f2a565b0390a4614ec6565b9091614f4161169093604084526040840190611ead565b916020818403910152611ead565b90816020910312610307575161169081610386565b92614f936116909593614fa19360018060a01b031686526000602087015260a0604087015260a0860190611ead565b908482036060860152611ead565b9160808184039101526108a4565b93906116909593614f9391614fa19460018060a01b03809216885216602087015260a0604087015260a0860190611ead565b9293919093843b614ff3575050505050565b602091615016604051948593849363bc197c8160e01b9889865260048601614f64565b038160006001600160a01b0388165af1600091816150ab575b5061506e578261503d612eba565b805191908261506757604051632bfa23e760e11b81526001600160a01b0383166004820152602490fd5b9050602001fd5b6001600160e01b0319160361508857503880808080611546565b604051632bfa23e760e11b81526001600160a01b03919091166004820152602490fd5b6150ce91925060203d6020116150d5575b6150c68183610d3d565b810190614f4f565b903861502f565b503d6150bc565b939290949194853b6150f1575b505050505050565b615114602093604051958694859463bc197c8160e01b998a875260048701614faf565b038160006001600160a01b0388165af160009181615156575b5061513b578261503d612eba565b6001600160e01b0319160361508857503880808080806150e9565b61517091925060203d6020116150d5576150c68183610d3d565b903861512d565b909260a0926116909594600180861b03168352600060208401526040830152606082015281608082015201906108a4565b919261169095949160a094600180871b0380921685521660208401526040830152606082015281608082015201906108a4565b9293919093843b6151ed575050505050565b602091615016604051948593849363f23a6e6160e01b9889865260048601615177565b939290949194853b61522457505050505050565b615114602093604051958694859463f23a6e6160e01b998a8752600487016151a856fe036b6384b5eca791c62761152d0c79bb0604c104a5fb6f4eb0703f3154bb3db02e67857c5e095aa37c99fc8a2a3d065e50197554891c3cf1f318b1996b66469c4b984622ccd95d46d58ee4b4ec121acbc6f1d9de4a5997f2013e0daf02c101041b6847dc741a1b0cd08d278845f9d819d87b734759afb55fe2de5cb82a9ae672a264697066735822122068b8e5697fa11674ec4babe771e5eac7295bed16acec03aab30a1fb4c6efd25964736f6c63430008180033","linkReferences":{}},"methodIdentifiers":{"accounts(address,address)":"ad74b775","balanceOf(address,uint256)":"00fdd58e","balanceOfBatch(address[],uint256[])":"4e1273f4","bondingCurveSteps(uint256)":"fa1c4db6","buyCartridges(bytes32,uint256,uint256)":"3c973f06","cartridgeBondUtilsAddress()":"eba4c82f","cartridgeBondingCurveModelAddress()":"af5baf44","cartridgeBonds(bytes32)":"226f877e","cartridgeBondsCreated(uint256)":"305e1d73","cartridgeModelAddress()":"7baa9fe8","cartridgeOwnershipModelAddress()":"3b906e47","cartridgesCount()":"ea6c6811","changeCartridgeModel(bytes32,address)":"fd3bf34b","consumeCartridges(bytes32,uint256)":"12e6bacd","currencyTokenAddress()":"d3c3b389","dappAddresses(address)":"787ca438","exists(bytes32)":"38a699a4","feeConfig()":"1e5eb1d0","feeModelAddress()":"3ab03c8b","getCartridgeData(bytes32)":"056e9c55","getCurrentBuyPrice(bytes32,uint256)":"724969e7","getCurrentConsumePrice(bytes32,uint256)":"bbfef088","getCurrentSellPrice(bytes32,uint256)":"b16cae66","isApprovedForAll(address,address)":"e985e9c5","maxCartridgeSupply(bytes32)":"db907f67","maxSupply()":"d5abeb01","owner()":"8da5cb5b","renounceOwnership()":"715018a6","safeBatchTransferFrom(address,address,uint256[],uint256[],bytes)":"2eb2c2d6","safeTransferFrom(address,address,uint256,uint256,bytes)":"f242432a","sellCartridges(bytes32,uint256,uint256)":"1aba7deb","setApprovalForAll(address,bool)":"a22cb465","setCartridgeParams(bytes32)":"42e201f4","setCartridgeParamsCustom(bytes32,uint256,uint256[],uint256[],bool)":"19b53cf9","setDapp(address,bool)":"8d3b5235","setURI(string)":"02fe5305","supportsInterface(bytes4)":"01ffc9a7","totalCartridges()":"aca6d572","transferOwnership(address)":"f2fde38b","updateBondingCurveParams(address,address,address,address,address,uint256,uint256,uint256[],uint256[])":"bdd86b21","updateProtocolWallet(address)":"e308a099","uri(bytes32)":"9ed19ddb","uri(uint256)":"0e89341c","validateCartridge(address,bytes32,bytes,((uint64,uint64,bytes32,bytes32,bytes32,bytes32,bytes32[],bytes32[]),bytes))":"61b1a4c4","validateCartridgeCustom(address,bytes32,bytes,((uint64,uint64,bytes32,bytes32,bytes32,bytes32,bytes32[],bytes32[]),bytes),uint256,uint256[],uint256[],bool)":"ca00695b","withdrawBalance(address,uint256)":"0cf20cc9"},"id":72}