{"abi":[{"type":"constructor","inputs":[{"name":"ownerAddress","type":"address","internalType":"address"},{"name":"newCartridgeBondUtilsAddress","type":"address","internalType":"address"},{"name":"maxSteps","type":"uint256","internalType":"uint256"}],"stateMutability":"nonpayable"},{"type":"function","name":"accounts","inputs":[{"name":"","type":"address","internalType":"address"},{"name":"","type":"address","internalType":"address"}],"outputs":[{"name":"","type":"uint256","internalType":"uint256"}],"stateMutability":"view"},{"type":"function","name":"balanceOf","inputs":[{"name":"account","type":"address","internalType":"address"},{"name":"id","type":"uint256","internalType":"uint256"}],"outputs":[{"name":"","type":"uint256","internalType":"uint256"}],"stateMutability":"view"},{"type":"function","name":"balanceOfBatch","inputs":[{"name":"accounts","type":"address[]","internalType":"address[]"},{"name":"ids","type":"uint256[]","internalType":"uint256[]"}],"outputs":[{"name":"","type":"uint256[]","internalType":"uint256[]"}],"stateMutability":"view"},{"type":"function","name":"bondingCurveSteps","inputs":[{"name":"","type":"uint256","internalType":"uint256"}],"outputs":[{"name":"rangeMax","type":"uint256","internalType":"uint256"},{"name":"coefficient","type":"uint256","internalType":"uint256"}],"stateMutability":"view"},{"type":"function","name":"buyCartridges","inputs":[{"name":"cartridgeId","type":"bytes32","internalType":"bytes32"},{"name":"cartridgesToMint","type":"uint256","internalType":"uint256"},{"name":"maxCurrencyPrice","type":"uint256","internalType":"uint256"}],"outputs":[{"name":"currencyCost","type":"uint256","internalType":"uint256"}],"stateMutability":"payable"},{"type":"function","name":"cartridgeBondUtilsAddress","inputs":[],"outputs":[{"name":"","type":"address","internalType":"address"}],"stateMutability":"view"},{"type":"function","name":"cartridgeBondingCurveModelAddress","inputs":[],"outputs":[{"name":"","type":"address","internalType":"address"}],"stateMutability":"view"},{"type":"function","name":"cartridgeBonds","inputs":[{"name":"","type":"bytes32","internalType":"bytes32"}],"outputs":[{"name":"bond","type":"tuple","internalType":"struct BondUtils.BondData","components":[{"name":"currencyToken","type":"address","internalType":"address"},{"name":"steps","type":"tuple[]","internalType":"struct IBondingCurveModel.BondingCurveStep[]","components":[{"name":"rangeMax","type":"uint256","internalType":"uint256"},{"name":"coefficient","type":"uint256","internalType":"uint256"}]},{"name":"currencyBalance","type":"uint256","internalType":"uint256"},{"name":"currentSupply","type":"uint256","internalType":"uint256"},{"name":"currentPrice","type":"uint256","internalType":"uint256"},{"name":"consumePrice","type":"uint256","internalType":"uint256"},{"name":"unclaimed","type":"tuple","internalType":"struct BondUtils.UnclaimedFees","components":[{"name":"mint","type":"uint256","internalType":"uint256"},{"name":"burn","type":"uint256","internalType":"uint256"},{"name":"consume","type":"uint256","internalType":"uint256"},{"name":"royalties","type":"uint256","internalType":"uint256"},{"name":"undistributedRoyalties","type":"uint256","internalType":"uint256"}]},{"name":"count","type":"tuple","internalType":"struct BondUtils.BondCount","components":[{"name":"minted","type":"uint256","internalType":"uint256"},{"name":"burned","type":"uint256","internalType":"uint256"},{"name":"consumed","type":"uint256","internalType":"uint256"}]}]},{"name":"feeModel","type":"address","internalType":"address"},{"name":"feeConfig","type":"uint256","internalType":"uint256"},{"name":"cartridgeModel","type":"address","internalType":"address"},{"name":"cartridgeOwner","type":"address","internalType":"address"},{"name":"lastUpdate","type":"uint256","internalType":"uint256"},{"name":"eventData","type":"bytes","internalType":"bytes"}],"stateMutability":"view"},{"type":"function","name":"cartridgeBondsCreated","inputs":[{"name":"","type":"uint256","internalType":"uint256"}],"outputs":[{"name":"","type":"bytes32","internalType":"bytes32"}],"stateMutability":"view"},{"type":"function","name":"cartridgeModelAddress","inputs":[],"outputs":[{"name":"","type":"address","internalType":"address"}],"stateMutability":"view"},{"type":"function","name":"cartridgeOwnershipModelAddress","inputs":[],"outputs":[{"name":"","type":"address","internalType":"address"}],"stateMutability":"view"},{"type":"function","name":"cartridgesCount","inputs":[],"outputs":[{"name":"","type":"uint256","internalType":"uint256"}],"stateMutability":"view"},{"type":"function","name":"changeCartridgeModel","inputs":[{"name":"cartridgeId","type":"bytes32","internalType":"bytes32"},{"name":"newCartridgeModel","type":"address","internalType":"address"}],"outputs":[],"stateMutability":"nonpayable"},{"type":"function","name":"consumeCartridges","inputs":[{"name":"cartridgeId","type":"bytes32","internalType":"bytes32"},{"name":"cartridgesToConsume","type":"uint256","internalType":"uint256"}],"outputs":[{"name":"","type":"uint256","internalType":"uint256"}],"stateMutability":"nonpayable"},{"type":"function","name":"currencyTokenAddress","inputs":[],"outputs":[{"name":"","type":"address","internalType":"address"}],"stateMutability":"view"},{"type":"function","name":"dappAddresses","inputs":[{"name":"","type":"address","internalType":"address"}],"outputs":[{"name":"","type":"bool","internalType":"bool"}],"stateMutability":"view"},{"type":"function","name":"exists","inputs":[{"name":"cartridgeId","type":"bytes32","internalType":"bytes32"}],"outputs":[{"name":"","type":"bool","internalType":"bool"}],"stateMutability":"view"},{"type":"function","name":"feeConfig","inputs":[],"outputs":[{"name":"","type":"uint256","internalType":"uint256"}],"stateMutability":"view"},{"type":"function","name":"feeModelAddress","inputs":[],"outputs":[{"name":"","type":"address","internalType":"address"}],"stateMutability":"view"},{"type":"function","name":"getCartridgeData","inputs":[{"name":"cartridgeId","type":"bytes32","internalType":"bytes32"}],"outputs":[{"name":"","type":"bytes32","internalType":"bytes32"},{"name":"","type":"uint256","internalType":"uint256"},{"name":"","type":"bytes32","internalType":"bytes32"},{"name":"","type":"int256","internalType":"int256"}],"stateMutability":"view"},{"type":"function","name":"getCurrentBuyPrice","inputs":[{"name":"cartridgeId","type":"bytes32","internalType":"bytes32"},{"name":"tokensToMint","type":"uint256","internalType":"uint256"}],"outputs":[{"name":"","type":"uint256","internalType":"uint256"},{"name":"","type":"uint256","internalType":"uint256"},{"name":"","type":"uint256","internalType":"uint256"}],"stateMutability":"view"},{"type":"function","name":"getCurrentConsumePrice","inputs":[{"name":"cartridgeId","type":"bytes32","internalType":"bytes32"},{"name":"tokensToConsume","type":"uint256","internalType":"uint256"}],"outputs":[{"name":"","type":"uint256","internalType":"uint256"},{"name":"","type":"uint256","internalType":"uint256"}],"stateMutability":"view"},{"type":"function","name":"getCurrentSellPrice","inputs":[{"name":"cartridgeId","type":"bytes32","internalType":"bytes32"},{"name":"tokensToBurn","type":"uint256","internalType":"uint256"}],"outputs":[{"name":"","type":"uint256","internalType":"uint256"},{"name":"","type":"uint256","internalType":"uint256"},{"name":"","type":"uint256","internalType":"uint256"}],"stateMutability":"view"},{"type":"function","name":"isApprovedForAll","inputs":[{"name":"account","type":"address","internalType":"address"},{"name":"operator","type":"address","internalType":"address"}],"outputs":[{"name":"","type":"bool","internalType":"bool"}],"stateMutability":"view"},{"type":"function","name":"maxCartridgeSupply","inputs":[{"name":"cartridgeId","type":"bytes32","internalType":"bytes32"}],"outputs":[{"name":"","type":"uint256","internalType":"uint256"}],"stateMutability":"view"},{"type":"function","name":"maxSupply","inputs":[],"outputs":[{"name":"","type":"uint256","internalType":"uint256"}],"stateMutability":"view"},{"type":"function","name":"owner","inputs":[],"outputs":[{"name":"","type":"address","internalType":"address"}],"stateMutability":"view"},{"type":"function","name":"renounceOwnership","inputs":[],"outputs":[],"stateMutability":"nonpayable"},{"type":"function","name":"safeBatchTransferFrom","inputs":[{"name":"from","type":"address","internalType":"address"},{"name":"to","type":"address","internalType":"address"},{"name":"ids","type":"uint256[]","internalType":"uint256[]"},{"name":"values","type":"uint256[]","internalType":"uint256[]"},{"name":"data","type":"bytes","internalType":"bytes"}],"outputs":[],"stateMutability":"nonpayable"},{"type":"function","name":"safeTransferFrom","inputs":[{"name":"from","type":"address","internalType":"address"},{"name":"to","type":"address","internalType":"address"},{"name":"id","type":"uint256","internalType":"uint256"},{"name":"value","type":"uint256","internalType":"uint256"},{"name":"data","type":"bytes","internalType":"bytes"}],"outputs":[],"stateMutability":"nonpayable"},{"type":"function","name":"sellCartridges","inputs":[{"name":"cartridgeId","type":"bytes32","internalType":"bytes32"},{"name":"cartridgesToBurn","type":"uint256","internalType":"uint256"},{"name":"minCurrencyRefund","type":"uint256","internalType":"uint256"}],"outputs":[{"name":"","type":"uint256","internalType":"uint256"}],"stateMutability":"nonpayable"},{"type":"function","name":"setApprovalForAll","inputs":[{"name":"operator","type":"address","internalType":"address"},{"name":"approved","type":"bool","internalType":"bool"}],"outputs":[],"stateMutability":"nonpayable"},{"type":"function","name":"setCartridgeParams","inputs":[{"name":"cartridgeId","type":"bytes32","internalType":"bytes32"}],"outputs":[],"stateMutability":"nonpayable"},{"type":"function","name":"setCartridgeParamsCustom","inputs":[{"name":"cartridgeId","type":"bytes32","internalType":"bytes32"},{"name":"bondFeeConfig","type":"uint256","internalType":"uint256"},{"name":"stepRangesMax","type":"uint256[]","internalType":"uint256[]"},{"name":"stepCoefficients","type":"uint256[]","internalType":"uint256[]"},{"name":"creatorAllocation","type":"bool","internalType":"bool"},{"name":"creator","type":"address","internalType":"address"}],"outputs":[],"stateMutability":"nonpayable"},{"type":"function","name":"setDapp","inputs":[{"name":"dapp","type":"address","internalType":"address"},{"name":"active","type":"bool","internalType":"bool"}],"outputs":[],"stateMutability":"nonpayable"},{"type":"function","name":"setURI","inputs":[{"name":"newUri","type":"string","internalType":"string"}],"outputs":[],"stateMutability":"nonpayable"},{"type":"function","name":"supportsInterface","inputs":[{"name":"interfaceId","type":"bytes4","internalType":"bytes4"}],"outputs":[{"name":"","type":"bool","internalType":"bool"}],"stateMutability":"view"},{"type":"function","name":"totalCartridges","inputs":[],"outputs":[{"name":"","type":"uint256","internalType":"uint256"}],"stateMutability":"view"},{"type":"function","name":"transferOwnership","inputs":[{"name":"newOwner","type":"address","internalType":"address"}],"outputs":[],"stateMutability":"nonpayable"},{"type":"function","name":"updateBondingCurveParams","inputs":[{"name":"newCurrencyToken","type":"address","internalType":"address"},{"name":"newFeeModel","type":"address","internalType":"address"},{"name":"newCartridgeModel","type":"address","internalType":"address"},{"name":"newCartridgeOwnershipModelAddress","type":"address","internalType":"address"},{"name":"newCartridgeBondingCurveModelAddress","type":"address","internalType":"address"},{"name":"newMaxSupply","type":"uint256","internalType":"uint256"},{"name":"newFeeConfig","type":"uint256","internalType":"uint256"},{"name":"stepRangesMax","type":"uint256[]","internalType":"uint256[]"},{"name":"stepCoefficients","type":"uint256[]","internalType":"uint256[]"}],"outputs":[],"stateMutability":"nonpayable"},{"type":"function","name":"updateProtocolWallet","inputs":[{"name":"newProtocolWallet","type":"address","internalType":"address"}],"outputs":[],"stateMutability":"nonpayable"},{"type":"function","name":"uri","inputs":[{"name":"tokenId","type":"uint256","internalType":"uint256"}],"outputs":[{"name":"","type":"string","internalType":"string"}],"stateMutability":"view"},{"type":"function","name":"uri","inputs":[{"name":"tokenId","type":"bytes32","internalType":"bytes32"}],"outputs":[{"name":"","type":"string","internalType":"string"}],"stateMutability":"view"},{"type":"function","name":"validateCartridge","inputs":[{"name":"dapp","type":"address","internalType":"address"},{"name":"cartridgeId","type":"bytes32","internalType":"bytes32"},{"name":"_payload","type":"bytes","internalType":"bytes"},{"name":"_v","type":"tuple","internalType":"struct Proof","components":[{"name":"validity","type":"tuple","internalType":"struct OutputValidityProof","components":[{"name":"inputIndexWithinEpoch","type":"uint64","internalType":"uint64"},{"name":"outputIndexWithinInput","type":"uint64","internalType":"uint64"},{"name":"outputHashesRootHash","type":"bytes32","internalType":"bytes32"},{"name":"vouchersEpochRootHash","type":"bytes32","internalType":"bytes32"},{"name":"noticesEpochRootHash","type":"bytes32","internalType":"bytes32"},{"name":"machineStateHash","type":"bytes32","internalType":"bytes32"},{"name":"outputHashInOutputHashesSiblings","type":"bytes32[]","internalType":"bytes32[]"},{"name":"outputHashesInEpochSiblings","type":"bytes32[]","internalType":"bytes32[]"}]},{"name":"context","type":"bytes","internalType":"bytes"}]}],"outputs":[{"name":"","type":"bytes32","internalType":"bytes32"}],"stateMutability":"nonpayable"},{"type":"function","name":"validateCartridgeCustom","inputs":[{"name":"dapp","type":"address","internalType":"address"},{"name":"cartridgeId","type":"bytes32","internalType":"bytes32"},{"name":"_payload","type":"bytes","internalType":"bytes"},{"name":"_v","type":"tuple","internalType":"struct Proof","components":[{"name":"validity","type":"tuple","internalType":"struct OutputValidityProof","components":[{"name":"inputIndexWithinEpoch","type":"uint64","internalType":"uint64"},{"name":"outputIndexWithinInput","type":"uint64","internalType":"uint64"},{"name":"outputHashesRootHash","type":"bytes32","internalType":"bytes32"},{"name":"vouchersEpochRootHash","type":"bytes32","internalType":"bytes32"},{"name":"noticesEpochRootHash","type":"bytes32","internalType":"bytes32"},{"name":"machineStateHash","type":"bytes32","internalType":"bytes32"},{"name":"outputHashInOutputHashesSiblings","type":"bytes32[]","internalType":"bytes32[]"},{"name":"outputHashesInEpochSiblings","type":"bytes32[]","internalType":"bytes32[]"}]},{"name":"context","type":"bytes","internalType":"bytes"}]},{"name":"bondFeeConfig","type":"uint256","internalType":"uint256"},{"name":"stepRangesMax","type":"uint256[]","internalType":"uint256[]"},{"name":"stepCoefficients","type":"uint256[]","internalType":"uint256[]"},{"name":"creatorAllocation","type":"bool","internalType":"bool"},{"name":"creator","type":"address","internalType":"address"}],"outputs":[{"name":"","type":"bytes32","internalType":"bytes32"}],"stateMutability":"nonpayable"},{"type":"function","name":"withdrawBalance","inputs":[{"name":"token","type":"address","internalType":"address"},{"name":"amount","type":"uint256","internalType":"uint256"}],"outputs":[],"stateMutability":"nonpayable"},{"type":"event","name":"ApprovalForAll","inputs":[{"name":"account","type":"address","indexed":true,"internalType":"address"},{"name":"operator","type":"address","indexed":true,"internalType":"address"},{"name":"approved","type":"bool","indexed":false,"internalType":"bool"}],"anonymous":false},{"type":"event","name":"Bond","inputs":[{"name":"id","type":"bytes32","indexed":true,"internalType":"bytes32"},{"name":"token","type":"address","indexed":true,"internalType":"address"},{"name":"currentPrice","type":"uint256","indexed":false,"internalType":"uint256"},{"name":"currentSupply","type":"uint256","indexed":false,"internalType":"uint256"},{"name":"currentBalance","type":"uint256","indexed":false,"internalType":"uint256"}],"anonymous":false},{"type":"event","name":"Buy","inputs":[{"name":"id","type":"bytes32","indexed":true,"internalType":"bytes32"},{"name":"user","type":"address","indexed":true,"internalType":"address"},{"name":"amountMinted","type":"uint256","indexed":false,"internalType":"uint256"},{"name":"pricePayed","type":"uint256","indexed":false,"internalType":"uint256"}],"anonymous":false},{"type":"event","name":"Consume","inputs":[{"name":"id","type":"bytes32","indexed":true,"internalType":"bytes32"},{"name":"user","type":"address","indexed":true,"internalType":"address"},{"name":"amountConsumed","type":"uint256","indexed":false,"internalType":"uint256"},{"name":"currencyDonated","type":"uint256","indexed":false,"internalType":"uint256"}],"anonymous":false},{"type":"event","name":"OwnershipTransferred","inputs":[{"name":"previousOwner","type":"address","indexed":true,"internalType":"address"},{"name":"newOwner","type":"address","indexed":true,"internalType":"address"}],"anonymous":false},{"type":"event","name":"Reward","inputs":[{"name":"id","type":"bytes32","indexed":true,"internalType":"bytes32"},{"name":"user","type":"address","indexed":true,"internalType":"address"},{"name":"token","type":"address","indexed":true,"internalType":"address"},{"name":"rewardType","type":"uint8","indexed":false,"internalType":"enum BondUtils.RewardType"},{"name":"amount","type":"uint256","indexed":false,"internalType":"uint256"}],"anonymous":false},{"type":"event","name":"Sell","inputs":[{"name":"id","type":"bytes32","indexed":true,"internalType":"bytes32"},{"name":"user","type":"address","indexed":true,"internalType":"address"},{"name":"amountBurned","type":"uint256","indexed":false,"internalType":"uint256"},{"name":"refundReceived","type":"uint256","indexed":false,"internalType":"uint256"}],"anonymous":false},{"type":"event","name":"TransferBatch","inputs":[{"name":"operator","type":"address","indexed":true,"internalType":"address"},{"name":"from","type":"address","indexed":true,"internalType":"address"},{"name":"to","type":"address","indexed":true,"internalType":"address"},{"name":"ids","type":"uint256[]","indexed":false,"internalType":"uint256[]"},{"name":"values","type":"uint256[]","indexed":false,"internalType":"uint256[]"}],"anonymous":false},{"type":"event","name":"TransferSingle","inputs":[{"name":"operator","type":"address","indexed":true,"internalType":"address"},{"name":"from","type":"address","indexed":true,"internalType":"address"},{"name":"to","type":"address","indexed":true,"internalType":"address"},{"name":"id","type":"uint256","indexed":false,"internalType":"uint256"},{"name":"value","type":"uint256","indexed":false,"internalType":"uint256"}],"anonymous":false},{"type":"event","name":"URI","inputs":[{"name":"value","type":"string","indexed":false,"internalType":"string"},{"name":"id","type":"uint256","indexed":true,"internalType":"uint256"}],"anonymous":false},{"type":"error","name":"Bond__InvalidAmount","inputs":[]},{"type":"error","name":"Cartridge__ChangeError","inputs":[]},{"type":"error","name":"Cartridge__InsufficientFunds","inputs":[]},{"type":"error","name":"Cartridge__InvalidCartridge","inputs":[{"name":"reason","type":"string","internalType":"string"}]},{"type":"error","name":"Cartridge__InvalidDapp","inputs":[]},{"type":"error","name":"Cartridge__InvalidOwner","inputs":[]},{"type":"error","name":"Cartridge__InvalidParams","inputs":[]},{"type":"error","name":"Cartridge__InvalidTransfer","inputs":[{"name":"reason","type":"string","internalType":"string"}]},{"type":"error","name":"Cartridge__InvalidUser","inputs":[]},{"type":"error","name":"Cartridge__NotFound","inputs":[]},{"type":"error","name":"Cartridge__SlippageLimitExceeded","inputs":[]},{"type":"error","name":"ERC1155InsufficientBalance","inputs":[{"name":"sender","type":"address","internalType":"address"},{"name":"balance","type":"uint256","internalType":"uint256"},{"name":"needed","type":"uint256","internalType":"uint256"},{"name":"tokenId","type":"uint256","internalType":"uint256"}]},{"type":"error","name":"ERC1155InvalidApprover","inputs":[{"name":"approver","type":"address","internalType":"address"}]},{"type":"error","name":"ERC1155InvalidArrayLength","inputs":[{"name":"idsLength","type":"uint256","internalType":"uint256"},{"name":"valuesLength","type":"uint256","internalType":"uint256"}]},{"type":"error","name":"ERC1155InvalidOperator","inputs":[{"name":"operator","type":"address","internalType":"address"}]},{"type":"error","name":"ERC1155InvalidReceiver","inputs":[{"name":"receiver","type":"address","internalType":"address"}]},{"type":"error","name":"ERC1155InvalidSender","inputs":[{"name":"sender","type":"address","internalType":"address"}]},{"type":"error","name":"ERC1155MissingApprovalForAll","inputs":[{"name":"operator","type":"address","internalType":"address"},{"name":"owner","type":"address","internalType":"address"}]},{"type":"error","name":"OwnableInvalidOwner","inputs":[{"name":"owner","type":"address","internalType":"address"}]},{"type":"error","name":"OwnableUnauthorizedAccount","inputs":[{"name":"account","type":"address","internalType":"address"}]}],"bytecode":{"object":"0x60a034620001cd57601f6200557738819003918201601f19168301926001600160401b0392909183851183861017620001b7578160609284926040978852833981010312620001cd576200005381620001d2565b90836200006360208301620001d2565b9101518451936020850190811185821017620001b757855260008094526200008d600254620001e7565b601f811162000176575b5060028490556001600160a01b0392831680156200015e57600380546001600160a01b03198082168417909255909590829086167f8be0079c531659141344cd1fd0a4f28419497f9722a3daafe3b4186f6b6457e08380a3620000fc600454620001e7565b601f81116200013a575b5050600060045584600e541617600e55608052169060095416176009555161533990816200023e8239608051816135a00152f35b601f602083600462000156955220910160051c81019062000224565b388062000106565b8551631e4fbdf760e01b815260048101869052602490fd5b60028552620001b090601f0160051c7f405787fa12a823e0f2b7631cc41b3ba8828b3321ca811111fa75cd3aa3bb5ace9081019062000224565b3862000097565b634e487b7160e01b600052604160045260246000fd5b600080fd5b51906001600160a01b0382168203620001cd57565b90600182811c9216801562000219575b60208310146200020357565b634e487b7160e01b600052602260045260246000fd5b91607f1691620001f7565b81811062000230575050565b600081556001016200022456fe6080604052600436101561001257600080fd5b60003560e01c8062fdd58e146102f157806301ffc9a7146102ec57806302fe5305146102e7578063056e9c55146102e25780630cf20cc9146102dd5780630e89341c1461027957806312e6bacd146102d85780631aba7deb146102d35780631e5eb1d0146102ce578063226f877e146102c95780632eb2c2d6146102c4578063305e1d73146102bf57806338a699a4146102ba5780633ab03c8b146102b55780633b906e47146102b05780633c973f06146102ab57806342e201f4146102a65780634e1273f4146102a157806361b1a4c41461029c578063715018a614610297578063724969e714610292578063787ca4381461028d5780637baa9fe8146102885780638d3b5235146102835780638da5cb5b1461027e5780639ed19ddb14610279578063a22cb46514610274578063aca6d5721461026f578063ad74b7751461026a578063af5baf4414610265578063b16cae6614610260578063bbfef0881461025b578063bdd86b2114610256578063cb29bae214610251578063d3c3b3891461024c578063d5abeb0114610247578063db907f6714610242578063e308a0991461023d578063e985e9c514610238578063ea6c681114610233578063eba4c82f1461022e578063eef983a914610229578063f242432a14610224578063f2fde38b1461021f578063fa1c4db61461021a5763fd3bf34b1461021557600080fd5b612cf1565b612c78565b612bba565b612a95565b6129ba565b612991565b612973565b612929565b6128d0565b612882565b612864565b61283b565b612792565b6126fd565b61262c565b6124e0565b6124b7565b61247b565b6123ae565b612309565b6108d7565b6122e0565b612272565b61220d565b6121cb565b61202c565b611fce565b611eda565b611e10565b611d2b565b61192a565b611901565b6118d8565b6118a7565b611868565b6116fb565b6115ae565b611141565b610d06565b6109eb565b6106de565b610571565b610441565b6103a6565b610343565b6001600160a01b0381160361030757565b600080fd5b60643590610319826102f6565b565b60843590610319826102f6565b60043590610319826102f6565b6101043590610319826102f6565b3461030757604036600319011261030757602061038b600435610365816102f6565b6024356000526000835260406000209060018060a01b0316600052602052604060002090565b54604051908152f35b6001600160e01b031981160361030757565b346103075760203660031901126103075760206004356103c581610394565b63ffffffff60e01b16636cdb3d1360e11b8114908115610403575b81156103f2575b506040519015158152f35b6301ffc9a760e01b149050386103e7565b6303a24d0760e21b811491506103e0565b9181601f84011215610307578235916001600160401b038311610307576020838186019501011161030757565b3461030757602080600319360112610307576001600160401b0360043581811161030757610476610485913690600401610414565b61047e613afe565b36916116a9565b91825191821161056c576104a38261049e600254611389565b613b41565b602090601f83116001146104e5575081906104d5936000926104da575b50508160011b916000199060031b1c19161790565b600255005b0151905038806104c0565b90601f1983169361051860026000527f405787fa12a823e0f2b7631cc41b3ba8828b3321ca811111fa75cd3aa3bb5ace90565b926000905b868210610554575050836001951061053b575b505050811b01600255005b015160001960f88460031b161c19169055388080610530565b8060018596829496860151815501950193019061051d565b61115f565b34610307576020366003190112610307576004356105a4601361059e83600052600f602052604060002090565b01612e52565b1561069e5760808160136105fe6105ed6105e16105e160106105d361061b99600052600f602052604060002090565b01546001600160a01b031690565b6001600160a01b031690565b92600052600f602052604060002090565b01906040518080958194637570c58b60e11b835260048301612e7e565b03915afa801561069957600080916000809161065e575b9061065a91604051948594859094939260609260808301968352602083015260408201520152565b0390f35b5050505061068661065a9160803d608011610692575b61067e81836111be565b810190612e5c565b91935083929190610632565b503d610674565b612e8f565b604051639ffe2da160e01b81526020600482015260136024820152726361727472696467654f75747075744461746160681b6044820152606490fd5b0390fd5b34610307576040806003193601126103075760049081356106fe816102f6565b336000908152601160205260409020602435919082906107329083905b9060018060a01b0316600052602052604060002090565b54106108805733600090815260116020526040902061075290829061071b565b61075d838254612eb1565b90556001600160a01b031690811561086557825163095ea7b360e01b815230858201908152602081810184905293919084908290819060400103816000865af190811561069957600091610848575b50156108385783516323b872dd60e01b815230868201908152336020820152604081019390935291839183918290600090829060600103925af19182156106995760009261080b575b5050156107fe57005b516303e717e760e51b8152fd5b61082a9250803d10610831575b61082281836111be565b810190612f01565b38806107f5565b503d610818565b505050516303e717e760e51b8152fd5b61085f9150843d86116108315761082281836111be565b386107ac565b6000808093508092335af1610878612ed1565b50156107fe57005b5050516368d134dd60e11b8152fd5b60005b8381106108a25750506000910152565b8181015183820152602001610892565b906020916108cb8151809281855285808601910161088f565b601f01601f1916010190565b34610307576020806003193601126103075760018060a01b03600954166109336040516004358482015283815261090d81611175565b604051809363316fb1bf60e21b82528560048301528180600095869560248301906108b2565b03915afa908115610699578091610964575b8361094f83613375565b9061065a6040519282849384528301906108b2565b90503d8082843e61097581846111be565b82019183818403126109e3578051906001600160401b0382116109e7570182601f820112156109e3578051916109aa8361168e565b936109b860405195866111be565b8385528584840101116109e0575082916109da91858061094f9601910161088f565b38610945565b80fd5b5080fd5b8280fd5b346103075760408060031936011261030757600490813590602435916000818152600f6020526001838220015415610cdc57610a6b93610a3583600052600f602052604060002090565b908482610a4f6105e16105e160095460018060a01b031690565b82516328dac05d60e21b81529889928391829187838f01612f76565b03915afa9283156106995780968194610cb7575b50610acb8688610a9e6105e16105e1600e89015460018060a01b031690565b600f8701548351631fa52aab60e11b8152808e019182526020820193909352919384928391829160400190565b03915afa908115610699578291610c88575b5087610ae98284613043565b03610c785761065a986000805160206152a4833981519152948489899895610b5c610c6796610b1d8f9a610c0c9e33613bdc565b6003860198610b2d868b54612eb1565b8a55610b3e600288019b8c54612eb1565b8b55600d8701610b4f878254613043565b905560058701558b613d5c565b610b6b60088601918254613043565b9055600e54610bbe90610b9c906001600160a01b03165b6001600160a01b0316600090815260116020526040902090565b85546001600160a01b03165b60018060a01b0316600052602052604060002090565b610bc9828254613043565b9055600e54845492516000815260208101929092526001600160a01b039283169b8c93909116918b916000805160206152c4833981519152919081906040820190565b0390a48951908152602081018b9052339088907fff8a4589f2e064f9b82f2aec48ea80dbf6a8f623d3bd76d954da82ec4ea0079f90604090a30154915492548751938493846040919493926060820195825260208201520152565b0390a3519081529081906020820190565b86516350b30ba960e01b81528990fd5b9050610caa9150863d8811610cb0575b610ca281836111be565b810190612f16565b38610add565b503d610c98565b909350610cd2919650853d8711610cb057610ca281836111be565b9590959238610a7f565b825163f87e48db60e01b81528590fd5b606090600319011261030757600435906024359060443590565b3461030757610d1436610cec565b9091600092818452600f602052604091600183862001541561112557610d4481600052600f602052604060002090565b600954610d5b906105e1906001600160a01b031681565b848051809263fdfb946360e01b82528180610d7a878a60048401612f76565b03915afa9384156106995787610de398928196611100575b50600e84015487908490610db0906105e1906001600160a01b031681565b84600f88015484519d8e94859384936358e507db60e11b8552600485016040919493926060820195825260208201520152565b03915afa801561069957819982916110dd575b5083610e02828c613043565b116110cc57610e1a610e14828c613043565b85612eb1565b9889106110bb57610e6f90610e30848833613bdc565b610e3f60028701958654612eb1565b85556003860197610e51858a54612eb1565b8955600c8701610e62868254613043565b9055600487015586613d5c565b610e7e60078601918254613043565b9055600e54610e9990610b9c906001600160a01b0316610b82565b610ea48a8254613043565b9055600e548454885160008152602081019b909b526001600160a01b039a908b16918291908c169088906000805160206152c483398151915290604090a41561108857806020610f2b610f036105e16105e1895460018060a01b031690565b8a5163095ea7b360e01b8152306004820152602481018d905293849283919082906044820190565b03925af1908115610699578291611069575b501561105857806020610f8d610f5f6105e16105e1895460018060a01b031690565b8a516323b872dd60e01b8152306004820152336024820152604481018d905293849283919082906064820190565b03925af19182156106995791611039575b50156110285791610c6761065a98926000805160206152a4833981519152945b8851908152602081018a9052339087907f47d38b8b50e4b792e507faad951cda2457545e704f667a3e32f22541945ebbf690604090a382546004906001600160a01b0316930154965490549088519485941697846040919493926060820195825260208201520152565b85516303e717e760e51b8152600490fd5b611052915060203d6020116108315761082281836111be565b38610f9e565b86516303e717e760e51b8152600490fd5b611082915060203d6020116108315761082281836111be565b38610f3d565b8080808a335af1611097612ed1565b50156110285791610c6761065a98926000805160206152a483398151915294610fbe565b87516303158fa960e31b8152600490fd5b87516350b30ba960e01b8152600490fd5b90506110f7919950873d8911610cb057610ca281836111be565b98909838610df6565b90955061111b919250863d8811610cb057610ca281836111be565b9190919438610d92565b825163f87e48db60e01b8152600490fd5b600091031261030757565b34610307576000366003190112610307576020600d54604051908152f35b634e487b7160e01b600052604160045260246000fd5b604081019081106001600160401b0382111761056c57604052565b6001600160401b03811161056c57604052565b602081019081106001600160401b0382111761056c57604052565b90601f801991011681019081106001600160401b0382111761056c57604052565b6040519061010082018281106001600160401b0382111761056c57604052565b6040519061031982611175565b6001600160401b03811161056c5760051b60200190565b90815461122f8161120c565b9260409361124060405191826111be565b82815280946020809201926000526020600020906000935b85851061126757505050505050565b600284600192845161127881611175565b865481528487015483820152815201930194019391611258565b9060405160a081018181106001600160401b0382111761056c57604052608060048294805484526001810154602085015260028101546040850152600381015460608501520154910152565b90604051606081018181106001600160401b0382111761056c5760405260406002829480548452600181015460208501520154910152565b90611382600b6113246111df565b84546001600160a01b031681529361133e60018201611223565b6020860152600281015460408601526003810154606086015260048101546080860152600581015460a086015261137760068201611292565b60c0860152016112de565b60e0830152565b90600182811c921680156113b9575b60208310146113a357565b634e487b7160e01b600052602260045260246000fd5b91607f1691611398565b8054600093926113d282611389565b9182825260209360019160018116908160001461143a57506001146113f9575b5050505050565b90939495506000929192528360002092846000945b838610611426575050505001019038808080806113f2565b80548587018301529401938590820161140e565b60ff19168685015250505090151560051b0101915038808080806113f2565b9061031961146d92604051938480926113c3565b03836111be565b80516001600160a01b031682526020808201516101c082850181905281519085018190526101e085019493929182019160005b82811061153f57505050509061016060e083604061153c9501516040850152606081015160608501526080810151608085015260a081015160a085015261151e60c082015160c086019060808091805184526020810151602085015260408101516040850152606081015160608501520151910152565b01519101906040809180518452602081015160208501520151910152565b90565b83518051885282015187830152604090960195928101926001016114a7565b9395929161157961153c98969260e0875260e0870190611474565b9660018060a01b0393848093166020880152604087015216606085015216608083015260a082015260c08184039101526108b2565b3461030757602036600319011261030757600435600052600f60205260406000206115d881611316565b61065a601360018060a01b039384600e8201541694600f8201549080601084015416906011840154169161162260128501549461161b60405180988193016113c3565b03866111be565b6040519788978861155e565b9080601f830112156103075760209082356116488161120c565b9361165660405195866111be565b81855260208086019260051b82010192831161030757602001905b82821061167f575050505090565b81358152908301908301611671565b6001600160401b03811161056c57601f01601f191660200190565b9291926116b58261168e565b916116c360405193846111be565b829481845281830111610307578281602093846000960137010152565b9080601f830112156103075781602061153c933591016116a9565b346103075760a03660031901126103075760048035611719816102f6565b602435611725816102f6565b6001600160401b039060443582811161030757611745903690860161162e565b906064358381116103075761175d903690870161162e565b926084359081116103075761177590369087016116e0565b936001600160a01b03808216903382141580611804575b6117d7578316156117bf57156117a8576117a69550614c38565b005b604051626a0d4560e21b8152600081880152602490fd5b604051632bfa23e760e11b8152600081890152602490fd5b6040805163711bec9160e11b815233818b019081526001600160a01b038616602082015290918291010390fd5b50600082815260016020908152604080832033845290915290205460ff161561178c565b634e487b7160e01b600052603260045260246000fd5b6010548110156118635760106000526000805160206152e48339815191520190600090565b611828565b34610307576020366003190112610307576004356010548110156103075760209060106000526000805160206152e48339815191520154604051908152f35b3461030757602036600319011261030757600435600052600f60205260206001604060002001541515604051908152f35b34610307576000366003190112610307576007546040516001600160a01b039091168152602090f35b3461030757600036600319011261030757600a546040516001600160a01b039091168152602090f35b61193336610cec565b90600090838252602093600f85526040926001848220015415611d1a57818152600f86526001848220015415611d1a5761197782600052600f602052604060002090565b600954909390611991906105e1906001600160a01b031681565b8551946323ba203560e21b8652868660049381806119b28689898401612f76565b03915afa9283156106995784968594611cf5575b50611a1788886119e56105e16105e1600e88015460018060a01b031690565b84600f870154845195869485938493636254a34560e11b85528c85016040919493926060820195825260208201520152565b03915afa80156106995786918791611cd6575b50611a3e81611a39848c613043565b613043565b9a8b11611cc65783546001600160a01b039790881615611c5a57611aa78d8d8d8985611a766105e16105e18d5460018060a01b031690565b92516323b872dd60e01b81523392810192835230602084015260408301949094529294859384929091839160600190565b03925af19182156106995791611c3d575b5015611c2d579187918b935b600286019a8b5490611ad591613043565b8b55600386019683885490611ae991613043565b8855600b870184815490611afc91613043565b90558601978855611b0d9084613d5c565b6006860190815490611b1e91613043565b9055600e546001600160a01b03908116600090815260116020908152604080832089549094168352929052208054611b57908390613043565b9055600e546001600160a01b03169083898d818954611b7b9060018060a01b031690565b915160008152602081019590955291169316916000805160206152c483398151915290604090a481611bab612ebe565b823392611bb793614e26565b8951908152602081019290925233917f5bd6f821d5961785d719543640cf62d3770f94e59db1a2f3c2250d72b122dddf90604090a354915490549454865191825260208201959095526040810194909452166001600160a01b0316916000805160206152a483398151915290606090a351908152f35b89516303e717e760e51b81528590fd5b611c5491508d803d106108315761082281836111be565b38611ab8565b8b99989796959c9a9b3410600014611c7c578b516350b30ba960e01b81528d90fd5b91899b9a9c959697989993918993853411611c98575b50611ac4565b8080939550611caa8193959734612eb1565b335af1611cb5612ed1565b5015611c2d579187918b9338611c92565b89516303158fa960e31b81528590fd5b9050611cef9150893d8b11610cb057610ca281836111be565b38611a2a565b909350611d10919650873d8911610cb057610ca281836111be565b95909592386119c6565b835163f87e48db60e01b8152600490fd5b3461030757602036600319011261030757600a5460043590611d55906001600160a01b03166105e1565b60405163273bed1d60e21b81523360048201526024810183905290602090829060449082905afa90811561069957600091611dac575b5015611d9a576117a690613050565b6040516319e2f96560e31b8152600490fd5b611dc5915060203d6020116108315761082281836111be565b38611d8b565b90815180825260208080930193019160005b828110611deb575050505090565b835185529381019392810192600101611ddd565b90602061153c928181520190611dcb565b34610307576040366003190112610307576004356001600160401b038082116103075736602383011215610307578160040135611e4c8161120c565b92611e5a60405194856111be565b8184526020916024602086019160051b8301019136831161030757602401905b828210611eb357856024358681116103075761065a91611ea1611ea792369060040161162e565b906131ff565b60405191829182611dff565b8380918335611ec1816102f6565b815201910190611e7a565b908160409103126103075790565b3461030757608036600319011261030757600435611ef7816102f6565b602435906001600160401b0360443581811161030757611f1b903690600401610414565b909160643590811161030757611f35903690600401611ecc565b600a54909290611f4d906001600160a01b03166105e1565b60405163273bed1d60e21b81523360048201526024810187905290602090829060449082905afa90811561069957600091611faf575b5015611d9a5784611f9f94611f9a61065a97613050565b61469e565b6040519081529081906020820190565b611fc8915060203d6020116108315761082281836111be565b38611f83565b34610307576000806003193601126109e057611fe8613afe565b600380546001600160a01b0319811690915581906001600160a01b03167f8be0079c531659141344cd1fd0a4f28419497f9722a3daafe3b4186f6b6457e08280a380f35b34610307576040806003193601126103075760043590602435600161205b84600052600f602052604060002090565b0154156121ba5761208161207c6120b894600052600f602052604060002090565b6132be565b600954839061209a906105e1906001600160a01b031681565b825190825180809881946323ba203560e21b83528860048401613347565b03915afa9182156106995760009460009361218c575b50602082015161212393928592879284906120f3906105e1906001600160a01b031681565b920151845196879485938493636254a34560e11b8552600485016040919493926060820195825260208201520152565b03915afa8015610699576121496121509161065a9460009060009261216c575b50613043565b8095613043565b9251938493846040919493926060820195825260208201520152565b90506121859150863d8811610cb057610ca281836111be565b9038612143565b849192955061212393506121ac90823d8411610cb057610ca281836111be565b9095869194509291506120ce565b815163f87e48db60e01b8152600490fd5b34610307576020366003190112610307576004356121e8816102f6565b60018060a01b03166000526012602052602060ff604060002054166040519015158152f35b34610307576000366003190112610307576008546040516001600160a01b039091168152602090f35b8015150361030757565b60e4359061031982612236565b604090600319011261030757600435612265816102f6565b9060243561153c81612236565b34610307576122803661224d565b90612289613afe565b6001600160a01b031660008181526012602052604081205490929060ff166122ce576122cb9183526012602052604083209060ff801983541691151516179055565b80f35b6040516314949b1360e21b8152600490fd5b34610307576000366003190112610307576003546040516001600160a01b039091168152602090f35b34610307576123173661224d565b6001600160a01b03821691821561239657816123556123669233600052600160205260406000209060018060a01b0316600052602052604060002090565b9060ff801983541691151516179055565b60405190151581527f17307eab39ab6107e8899845ad3d59bd9653f200f220920489ca2b5937696c3160203392a3005b60405162ced3e160e81b815260006004820152602490fd5b34610307576000806003193601126109e057808160108054915b8285106123da57604051848152602090f35b90919261244b6001918484526124456003612410896000805160206152e48339815191520154600052600f602052604060002090565b0154600d61243d61242d6124238c61183e565b90549060031b1c90565b600052600f602052604060002090565b015490612eb1565b90613043565b9401939291906123c8565b60409060031901126103075760043561246e816102f6565b9060243561153c816102f6565b3461030757602061038b61248e36612456565b6001600160a01b0391821660009081526011855260408082209290931681526020919091522090565b3461030757600036600319011261030757600b546040516001600160a01b039091168152602090f35b34610307576040806003193601126103075760043590602435600161250f84600052600f602052604060002090565b0154156121ba5761253061207c61256794600052600f602052604060002090565b6009548390612549906105e1906001600160a01b031681565b8251908251808098819463fdfb946360e01b83528860048401613347565b03915afa918215610699576000946000936125fe575b5060208201516125d293928592879284906125a2906105e1906001600160a01b031681565b9201518451968794859384936358e507db60e11b8552600485016040919493926060820195825260208201520152565b03915afa8015610699576125f76121509161065a9460009060009261216c5750613043565b8095612eb1565b84919295506125d2935061261e90823d8411610cb057610ca281836111be565b90958691945092915061257d565b346103075760408060031936011261030757600435600161265782600052600f602052604060002090565b0154156121ba578161267961207c6126b093600052600f602052604060002090565b600954612690906105e1906001600160a01b031681565b905190825180809581946328dac05d60e21b835260243560048401613347565b03915afa918215610699576000916000936126d8575b50519081526020810191909152604090f35b816126f592945061065a93503d8511610cb057610ca281836111be565b9290916126c6565b34610307576101203660031901126103075760043561271b816102f6565b602435612727816102f6565b60443590612734826102f6565b61273c61030c565b9061274561031b565b6001600160401b03949060e4358681116103075761276790369060040161162e565b9361010435968711610307576127846117a697369060040161162e565b9560c4359460a4359461344c565b3461030757610120366003190112610307576127ac610328565b6001600160401b03604435818111610307576127cc903690600401610414565b606435838111610307576127e4903690600401611ecc565b60a435848111610307576127fc90369060040161162e565b60c4359485116103075761065a9561281b611f9f96369060040161162e565b92612824612240565b9461282d610335565b96608435936024359061379f565b34610307576000366003190112610307576006546040516001600160a01b039091168152602090f35b34610307576000366003190112610307576020600c54604051908152f35b3461030757602036600319011261030757600435600052600f602052600160406000200180549060001982019182116128cb576020916128c191612c5c565b5054604051908152f35b612e9b565b34610307576020366003190112610307576004356128ed816102f6565b600e54906001600160a01b03908183163303612917576001600160a01b0319909216911617600e55005b604051631a2a416760e21b8152600490fd5b3461030757602060ff61296761293e36612456565b6001600160a01b0391821660009081526001865260408082209290931681526020919091522090565b54166040519015158152f35b34610307576000366003190112610307576020601054604051908152f35b34610307576000366003190112610307576009546040516001600160a01b039091168152602090f35b346103075760c0366003190112610307576004356001600160401b03604435818111610307576129ee90369060040161162e565b9060643590811161030757612a0790369060040161162e565b60843590612a1482612236565b60a43592612a21846102f6565b600a5460405163273bed1d60e21b81523360048201526024810187905290602090829060449082906001600160a01b03165afa90811561069957600091612a76575b5015611d9a576117a694602435906138fa565b612a8f915060203d6020116108315761082281836111be565b38612a63565b346103075760a036600319011261030757600435612ab2816102f6565b602435612abe816102f6565b6084356001600160401b03811161030757612add9036906004016116e0565b906001600160a01b03838116903382141580612b96575b612b6f57821615612b565715612b3e576117a692612b366064356044359160405192600184526020840152604083019160018352606084015260808301604052565b929091614c38565b604051626a0d4560e21b815260006004820152602490fd5b604051632bfa23e760e11b815260006004820152602490fd5b60405163711bec9160e11b81523360048201526001600160a01b0386166024820152604490fd5b50600082815260016020908152604080832033845290915290205460ff1615612af4565b3461030757602036600319011261030757600435612bd7816102f6565b612bdf613afe565b6001600160a01b03908116908115612c2e57600354826001600160601b0360a01b821617600355167f8be0079c531659141344cd1fd0a4f28419497f9722a3daafe3b4186f6b6457e0600080a3005b604051631e4fbdf760e01b815260006004820152602490fd5b80541561186357600052602060002090600090565b80548210156118635760005260206000209060011b0190600090565b346103075760203660031901126103075760043560055481101561030757600560005260011b7f036b6384b5eca791c62761152d0c79bb0604c104a5fb6f4eb0703f3154bb3db18160008051602061528483398151915201549101549061065a6040519283928360209093929193604081019481520152565b3461030757604036600319011261030757600435602435612d11816102f6565b612d19613afe565b6001612d2f83600052600f602052604060002090565b015415612e4057612d4f601361059e84600052600f602052604060002090565b612dfa57600954612d6a906105e1906001600160a01b031681565b803b1561030757604051632286a71160e01b81526001600160a01b038316600482015290600090829060249082905afa8015610699576117a693601092612dc192612de1575b50600052600f602052604060002090565b0180546001600160a01b0319166001600160a01b03909216919091179055565b80612dee612df492611190565b80611136565b38612db0565b604051639ffe2da160e01b815260206004820152601b60248201527f43617274726964676520616c72656164792076616c69646174656400000000006044820152606490fd5b60405163f87e48db60e01b8152600490fd5b61153c9054611389565b9190826080910312610307578151916020810151916060604083015192015190565b90602061153c9281815201906113c3565b6040513d6000823e3d90fd5b634e487b7160e01b600052601160045260246000fd5b919082039182116128cb57565b60405190612ecb826111a3565b60008252565b3d15612efc573d90612ee28261168e565b91612ef060405193846111be565b82523d6000602084013e565b606090565b90816020910312610307575161153c81612236565b9190826040910312610307576020825192015190565b9081548082526020809201926000526020600020916000905b828210612f53575050505090565b835485526001808501548683015260409095019460029094019390910190612f45565b9161153c91835260406020840152612fa860408401612f9b835460018060a01b031690565b6001600160a01b03169052565b6101c06060840152600b6101a0612fc6610200860160018501612f2c565b60028401546080870152600384015460a0870152600484015460c0870152600584015460e08701526006840154610100870152600784015461012087015260088401546101408701526009840154610160870152600a84015461018087015294019101600260409180548452600181015460208501520154910152565b919082018092116128cb57565b600d5490600554916130618361120c565b60409361307160405192836111be565b8082526005600090815260209560008051602061528483398151915290878086015b8585106131be5750505050505060019360016130b985600052600f602052604060002090565b0154156130c7575050505050565b8491926130de85600052600f602052604060002090565b600754600e820180546001600160a01b0319166001600160a01b0390921691909117905590600f82015560065481546001600160a01b0319166001600160a01b039091161781556008546010820180546001600160a01b0319166001600160a01b03909216919091179055600160009101925b61316e575b5050505061316491506143b7565b38808080806113f2565b83518110156131b9579085826131af61318a87969584986131eb565b51518461319784896131eb565b5101516131a26111ff565b918252858201528561436d565b0190919293613151565b613156565b60019160029184516131cf81611175565b8654815284870154838201528152019301930192918890613093565b80518210156118635760209160051b010190565b9190918051835180820361329c57505080519061323461321e8361120c565b9261322c60405194856111be565b80845261120c565b60209190601f1901368484013760005b815181101561329457600581901b8281018401519087018401516000908152602081815260408083206001600160a01b03909416835292905220546001919061328d82876131eb565b5201613244565b509193505050565b604051635b05999160e01b815260048101919091526024810191909152604490fd5b9060405160e081018181106001600160401b0382111761056c5760405260c0613342601383956132ed81611316565b8552600e8101546001600160a01b03166020860152600f810154604086015260108101546001600160a01b0316606086015260118101546001600160a01b03166080860152601281015460a086015201611459565b910152565b60409061153c939281528160208201520190611474565b906133716020928281519485920161088f565b0190565b90604051918260206000906004549061338d82611389565b9160019081811690811561342357506001146133c2575b5050506133b4906103199361335e565b03601f1981018452836111be565b9091925060046000527f8a35acfbc15ff81a39ae7d344fd709f28e8600b4aa8c65c6b64bfe7fe36bd19b906000915b84831061340d57505050508101602001826133b46103196133a4565b80548984018501528895509183019181016133f1565b90506133b49450602092506103199693915060ff191682860152801515028401019181946133a4565b97989698613458613afe565b60095461346f906105e1906001600160a01b031681565b90813b15610307576040805163169f6b0560e11b81526001600160a01b038c166004808301919091526000949293909290918581602481855afa80156106995761378c575b50803b1561374f57835163f610a03960e01b81526001600160a01b0387168482019081528690829081906020010381855afa801561069957613779575b50803b1561374f578351632286a71160e01b81526001600160a01b0388168482019081528690829081906020010381855afa801561069957613766575b50803b1561374f57835163130d243760e21b81526001600160a01b038916848201908152909186918391908290819060200103915afa801561069957613753575b506001600160a01b03881691823b1561374f5790839291858f83906135c797519788928392632326e3db60e01b84527f0000000000000000000000000000000000000000000000000000000000000000878501614baf565b0381865afa9384156106995786958c9561373c575b506135e5614bda565b516309a257cd60e41b81529e8f9485938493613603939085016138c5565b03915afa998a1561069957819a613718575b505b895181101561365e57806136586136306001938d6131eb565b5151828d61364160209283926131eb565b5101519061364d6111ff565b928352820152614307565b01613617565b5061371395969850916136d46136f1926136b761370e969561369a6103199c60018060a01b03166001600160601b0360a01b6006541617600655565b60018060a01b03166001600160601b0360a01b6007541617600755565b60018060a01b03166001600160601b0360a01b6008541617600855565b60018060a01b03166001600160601b0360a01b600a541617600a55565b60018060a01b03166001600160601b0360a01b600b541617600b55565b600c55565b600d55565b613735919a503d808c833e61372d81836111be565b810190613826565b9838613615565b80612dee61374992611190565b386135dc565b8480fd5b80612dee61376092611190565b3861356f565b80612dee61377392611190565b3861352e565b80612dee61378692611190565b386134f1565b80612dee61379992611190565b386134b4565b600a5460405163273bed1d60e21b815233600482015260248101849052979a9599949893979296919591949193919290602090829060449082906001600160a01b03165afa90811561069957600091613807575b5015611d9a5761153c99611f9a94876138fa565b613820915060203d6020116108315761082281836111be565b386137f3565b906020918281830312610307578051906001600160401b038211610307570181601f820112156103075780519261385c8461120c565b9360409361386d60405196876111be565b818652828087019260061b85010193818511610307578301915b8483106138975750505050505090565b85838303126103075783869182516138ae81611175565b855181528286015183820152815201920191613887565b9392916138f5906138e760609360008852608060208901526080880190611dcb565b908682036040880152611dcb565b930152565b600b54600c546040516309a257cd60e41b81526004810184905260806024820152939795929460009385936001600160a01b0316928492839261395791613945906084860190611dcb565b84810360031901604486015290611dcb565b90606483015203915afa90811561069957600091613ae3575b50600194600161398a84600052600f602052604060002090565b01541561399a575b505050505050565b85916139b084600052600f602052604060002090565b600754600e820180546001600160a01b0319166001600160a01b0390921691909117905591600f83015560065482546001600160a01b0319166001600160a01b039091161782556008546010830180546001600160a01b0319166001600160a01b03909216919091179055600160009201965b613a97575b50505082613a35826143b7565b613a41575b8080613992565b60028454108015613a81575b613a6f57613a5d613a6594612c47565b505491613ee0565b5038808080613a3a565b604051631da49c9b60e01b8152600490fd5b506001613a8d85612c47565b5001541515613a4d565b8051821015613ade578282613ad7613ab08395856131eb565b5151602080613abf85886131eb565b51015190613acb6111ff565b9283528201528a61436d565b0191613a23565b613a28565b613af891503d806000833e61372d81836111be565b38613970565b6003546001600160a01b03163303613b1257565b60405163118cdaa760e01b8152336004820152602490fd5b818110613b35575050565b60008155600101613b2a565b90601f8211613b4e575050565b6103199160026000527f405787fa12a823e0f2b7631cc41b3ba8828b3321ca811111fa75cd3aa3bb5ace906020601f840160051c83019310613b98575b601f0160051c0190613b2a565b9091508190613b8b565b9190601f8111613bb157505050565b610319926000526020600020906020601f840160051c83019310613b9857601f0160051c0190613b2a565b6001600160a01b038116929091908315612b3e57613c1760405192600184526020840152604083019160018352606084015260808301604052565b91906040946000604051613c2a816111a3565b52815184519081810361329c57505060005b8251811015613cd2578060051b60208082860101519187010151613c6e8661071b846000526000602052604060002090565b54818110613c9c578661071b6001959493613c959303936000526000602052604060002090565b5501613c3c565b89516303dee4c560e01b81526001600160a01b038816600482015260248101919091526044810182905260648101839052608490fd5b50945060009392915060018151148414613d295760209081015191810151604080519384529183015233917fc3d58168c5ae7397731d063d5bbf3d657854427343f4c083240f7aacaa2d0f6291819081015b0390a4565b60405133927f4a39dc06d4c0dbc64b70af90fd698a233a518aa5d07e595d983b8c0526c8f7fb928291613d249183614f67565b90613d7182600052600f602052604060002090565b91613d7f6013840154611389565b613d895750905090565b6011830180546000936001600160a01b0392909183168015613ed5576001600160a01b03166000908152601160205260409020613def9190613dd59088546001600160a01b0316610ba8565b613de0848254613043565b9055546001600160a01b031690565b90836000805160206152c483398151915284613e11895460018060a01b031690565b613e31826040519384931697169582919060206040840193600481520152565b0390a45b82613e44575b50505050600090565b600e546000805160206152c48339815191529190613e7e90613e6e906001600160a01b0316610b82565b86546001600160a01b0316610ba8565b613e89858254613043565b9055600e54613ea9906001600160a01b031695546001600160a01b031690565b613ec9826040519384931697169582919060206040840193600381520152565b0390a438808080613e3b565b505090925091613e35565b600093828552600f602052604060018187200154156142f7576000848152600f602052604090206001600160a01b039384169190600954613f2b906105e1906001600160a01b031681565b928251976323ba203560e21b895283896004968180613f4d88878c8401612f76565b03915afa958615610699578a998b976142d2575b508a908a8c911580156142c9575b80156142b1575b614217575b81611a3984613f8993613043565b9b8c6142075785548a166001600160a01b03161561419857613ff860208e613fbd6105e16105e18b5460018060a01b031690565b8a516323b872dd60e01b81526001600160a01b038a16818e019081523060208201526040810193909352938492839187918391606090910190565b03925af19182156106995791614179575b501561416957908992915b600286019b8c549061402591613043565b8c5560038601978389549061403991613043565b8955600b87018481549061404c91613043565b9055860198895561405d9084613d5c565b600686019081549061406e91613043565b9055600e546001600160a01b039081166000908152601160209081526040808320895490941683529290522080546140a7908390613043565b9055600e54855487516000815260208101939093528a166001600160a01b0390811692918b16169084906000805160206152c483398151915290604090a46140ed612ebe565b6140f990828486614e26565b8451908152602081018b90527f5bd6f821d5961785d719543640cf62d3770f94e59db1a2f3c2250d72b122dddf90604090a354925491549554905191825260208201959095526040810194909452166001600160a01b0316916000805160206152a483398151915290606090a390565b85516303e717e760e51b81528790fd5b614192915060203d6020116108315761082281836111be565b38614009565b8c9a98969c9d9b99979d34106000146141bb578c516350b30ba960e01b81528e90fd5b90889a9c96989392918d9c9e989a9c8034116141d9575b5050614014565b818093949596506141eb819234612eb1565b885af16141f6612ed1565b50156141695790899291388d6141d2565b86516303158fa960e31b81528890fd5b91505084826142356105e16105e1600e89015460018060a01b031690565b600f87015489614269855196879586948594636254a34560e11b865285016040919493926060820195825260208201520152565b03915afa90811561069957613f898c8c93611a39938291614292575b5090939092509050613f7b565b90506142ab9150883d8a11610cb057610ca281836111be565b38614285565b5060016142bf818801612c47565b5001541515613f76565b50801515613f6f565b9096506142ed919950843d8611610cb057610ca281836111be565b9890989538613f61565b5163f87e48db60e01b8152600490fd5b600554600160401b81101561056c5760018101806005558110156118635760207f036b6384b5eca791c62761152d0c79bb0604c104a5fb6f4eb0703f3154bb3db191600560005260011b9280518460008051602061528483398151915201550151910155565b8054600160401b81101561056c5761438a91600182018155612c5c565b9190916143a1576020816001925184550151910155565b634e487b7160e01b600052600060045260246000fd5b601054600160401b81101561056c5760018101806010558110156118635760106000526000805160206152e48339815191520155565b908060209392818452848401376000828201840152601f01601f1916010190565b35906001600160401b038216820361030757565b9035601e19823603018112156103075701602081359101916001600160401b038211610307578160051b3603831361030757565b81835290916001600160fb1b0383116103075760209260051b809284830137010190565b9035601e19823603018112156103075701602081359101916001600160401b03821161030757813603831361030757565b9291906144c0916040855260408501916143ed565b91602081840391015280359160fe19823603018312156103075761459661458b8361153c9501604084526001600160401b036144fb8261440e565b1660408501526145206145106020830161440e565b6001600160401b03166060860152565b60408101356080850152606081013560a0850152608081013560c085015260a081013560e085015261457861456d61455b60c0840184614422565b61010080890152610140880191614456565b9160e0810190614422565b858303603f190161012087015290614456565b92602081019061447a565b9160208185039101526143ed565b9190826040910312610307576020825192015161153c816102f6565b91602061153c9381815201916143ed565b9092916001600160401b03811161056c576145f6816145f08454611389565b84613ba2565b6000601f821160011461463657819061462793949560009261462b5750508160011b916000199060031b1c19161790565b9055565b0135905038806104c0565b601f1982169461464b84600052602060002090565b91805b87811061468657508360019596971061466c575b505050811b019055565b0135600019600384901b60f8161c19169055388080614662565b9092602060018192868601358155019401910161464e565b939190936146b685600052600f602052604060002090565b9360138501906146c68254611389565b614b75576001600160a01b03831660009081526012602052604090205460ff16156122ce5760408051634b243ea360e11b81526004966001600160a01b039692959082908890829061471c9088888e85016144ab565b03921691815a93602094fa801561069957614b56575b50601087015461474c906105e1906001600160a01b031681565b8451636e40c63360e11b8152939085858061476a87878d84016145c0565b0381845afa94851561069957600090600096614b24575b508a03614aea579060808484936147ae96958b8a5198899485938493637570c58b60e11b855284016145c0565b03915afa93841561069957600094614abf575b506147ea6147ef949560118b019060018060a01b03166001600160601b0360a01b825416179055565b6145d1565b601285015560009160068501928354806149de575b506007860194855490816148d3575b5050600095938693600a969361482a86948b613d5c565b508983549186549061483c8285613043565b9384614850575b5050505050505555015590565b6000805160206152c48339815191529261486991613043565b61489d6148958c610ba8614887610b82600e5460018060a01b031690565b91546001600160a01b031690565b918254613043565b9055600e548a5495516003815260208101959095526001600160a01b0395821686169591161692604090a4388089818080614843565b9061492b929185826148f46105e16105e1600e8e015460018060a01b031690565b600f8c0154600c8d0154908451988994859384936358e507db60e11b85528985016040919493926060820195825260208201520152565b03915afa938415610699576000946149bd575b5081841161497c575093600a969361482a61496c8560009b99956149658d9a988b99612eb1565b8955613043565b9450509396509381959750614813565b6106da908651918291639ffe2da160e01b83528201606090602081526011602082015270756e636c61696d65644275726e4665657360781b60408201520190565b6149d5919450863d8811610cb057610ca281836111be565b9050923861493e565b809150836149fb6105e16105e1600e8b015460018060a01b031690565b600f890154600b8a01548351636254a34560e11b8152808b01928352602083019190915260408201959095528491908290819060600103915afa91821561069957600092614a9e575b50808211614a5e5781614a5691612eb1565b845538614804565b8351639ffe2da160e01b8152602081880181815260119181019190915270756e636c61696d65644d696e744665657360781b604082015281906060010390fd5b614ab6919250843d8611610cb057610ca281836111be565b90509038614a44565b6147ef9450614adf6147ea9160803d6080116106925761067e81836111be565b5050905094506147c1565b8551639ffe2da160e01b81526020818a01818152600b918101919091526a18d85c9d1c9a5919d9525960aa1b604082015281906060010390fd5b9050614b47919550863d8811614b4f575b614b3f81836111be565b8101906145a4565b949038614781565b503d614b35565b614b6e9060203d6020116108315761082281836111be565b5038614732565b604051639ffe2da160e01b8152602060048201526011602482015270185b1c9958591e481d985b1a59185d1959607a1b6044820152606490fd5b91614bcc9061153c94928452606060208501526060840190611dcb565b916040818403910152611dcb565b60055460008060055581614bec575050565b60016001600160ff1b03831683036128cb5760056000526000805160206152848339815191529260011b8301925b838110614c275750505050565b808360029255838382015501614c1a565b94919091815184519081810361329c57505060005b8251811015614d3b57600581901b83810160209081015191870101516001600160a01b03929186908a8516614cb5575b6001948216614c90575b50505001614c4d565b614cab9161071b614895926000526000602052604060002090565b9055388581614c87565b9192939050614cd28a61071b846000526000602052604060002090565b54838110614d045791879184600196959403614cfc8d61071b856000526000602052604060002090565b559450614c7d565b6040516303dee4c560e01b81526001600160a01b038c16600482015260248101919091526044810184905260648101839052608490fd5b509491939290936001855114600014614ddb576020858101518382015160408051928352928201526001600160a01b03838116929086169133917fc3d58168c5ae7397731d063d5bbf3d657854427343f4c083240f7aacaa2d0f6291a45b6001600160a01b038116614dae575050505050565b8451600103614dca57602080613164960151920151923361524c565b614dd694919233615119565b613164565b6040516001600160a01b03828116919085169033907f4a39dc06d4c0dbc64b70af90fd698a233a518aa5d07e595d983b8c0526c8f7fb9080614e1e888c83614f67565b0390a4614d99565b6001600160a01b03811693929091908415612b5657614e6260405192600184526020840152604083019160018352606084015260808301604052565b92815184519081810361329c57505060005b8251811015614eb4578060019160051b614eac6148958761071b602080868b010151958c010151946000526000602052604060002090565b905501614e74565b509291936001825114600014614f2b5760208281015184820151604080519283529282015260009133917fc3d58168c5ae7397731d063d5bbf3d657854427343f4c083240f7aacaa2d0f629190a45b8051600103614f215790602080610319959301519101519133615217565b610319933361501e565b60006040517f4a39dc06d4c0dbc64b70af90fd698a233a518aa5d07e595d983b8c0526c8f7fb339180614f5f888883614f67565b0390a4614f03565b9091614f7e61153c93604084526040840190611dcb565b916020818403910152611dcb565b90816020910312610307575161153c81610394565b92614fd061153c9593614fde9360018060a01b031686526000602087015260a0604087015260a0860190611dcb565b908482036060860152611dcb565b9160808184039101526108b2565b939061153c9593614fd091614fde9460018060a01b03809216885216602087015260a0604087015260a0860190611dcb565b9293919093843b615030575050505050565b602091615053604051948593849363bc197c8160e01b9889865260048601614fa1565b038160006001600160a01b0388165af1600091816150e8575b506150ab578261507a612ed1565b80519190826150a457604051632bfa23e760e11b81526001600160a01b0383166004820152602490fd5b9050602001fd5b6001600160e01b031916036150c5575038808080806113f2565b604051632bfa23e760e11b81526001600160a01b03919091166004820152602490fd5b61510b91925060203d602011615112575b61510381836111be565b810190614f8c565b903861506c565b503d6150f9565b939290949194853b61512d57505050505050565b615150602093604051958694859463bc197c8160e01b998a875260048701614fec565b038160006001600160a01b0388165af160009181615192575b50615177578261507a612ed1565b6001600160e01b031916036150c55750388080808080613992565b6151ac91925060203d6020116151125761510381836111be565b9038615169565b909260a09261153c9594600180861b03168352600060208401526040830152606082015281608082015201906108b2565b919261153c95949160a094600180871b0380921685521660208401526040830152606082015281608082015201906108b2565b9293919093843b615229575050505050565b602091615053604051948593849363f23a6e6160e01b98898652600486016151b3565b939290949194853b61526057505050505050565b615150602093604051958694859463f23a6e6160e01b998a8752600487016151e456fe036b6384b5eca791c62761152d0c79bb0604c104a5fb6f4eb0703f3154bb3db02e67857c5e095aa37c99fc8a2a3d065e50197554891c3cf1f318b1996b66469c4b984622ccd95d46d58ee4b4ec121acbc6f1d9de4a5997f2013e0daf02c101041b6847dc741a1b0cd08d278845f9d819d87b734759afb55fe2de5cb82a9ae672a264697066735822122003245ae1c4a13bd5f0909ad4525075a3578218325677b1c423e35534010b137c64736f6c63430008180033","linkReferences":{}},"methodIdentifiers":{"accounts(address,address)":"ad74b775","balanceOf(address,uint256)":"00fdd58e","balanceOfBatch(address[],uint256[])":"4e1273f4","bondingCurveSteps(uint256)":"fa1c4db6","buyCartridges(bytes32,uint256,uint256)":"3c973f06","cartridgeBondUtilsAddress()":"eba4c82f","cartridgeBondingCurveModelAddress()":"af5baf44","cartridgeBonds(bytes32)":"226f877e","cartridgeBondsCreated(uint256)":"305e1d73","cartridgeModelAddress()":"7baa9fe8","cartridgeOwnershipModelAddress()":"3b906e47","cartridgesCount()":"ea6c6811","changeCartridgeModel(bytes32,address)":"fd3bf34b","consumeCartridges(bytes32,uint256)":"12e6bacd","currencyTokenAddress()":"d3c3b389","dappAddresses(address)":"787ca438","exists(bytes32)":"38a699a4","feeConfig()":"1e5eb1d0","feeModelAddress()":"3ab03c8b","getCartridgeData(bytes32)":"056e9c55","getCurrentBuyPrice(bytes32,uint256)":"724969e7","getCurrentConsumePrice(bytes32,uint256)":"bbfef088","getCurrentSellPrice(bytes32,uint256)":"b16cae66","isApprovedForAll(address,address)":"e985e9c5","maxCartridgeSupply(bytes32)":"db907f67","maxSupply()":"d5abeb01","owner()":"8da5cb5b","renounceOwnership()":"715018a6","safeBatchTransferFrom(address,address,uint256[],uint256[],bytes)":"2eb2c2d6","safeTransferFrom(address,address,uint256,uint256,bytes)":"f242432a","sellCartridges(bytes32,uint256,uint256)":"1aba7deb","setApprovalForAll(address,bool)":"a22cb465","setCartridgeParams(bytes32)":"42e201f4","setCartridgeParamsCustom(bytes32,uint256,uint256[],uint256[],bool,address)":"eef983a9","setDapp(address,bool)":"8d3b5235","setURI(string)":"02fe5305","supportsInterface(bytes4)":"01ffc9a7","totalCartridges()":"aca6d572","transferOwnership(address)":"f2fde38b","updateBondingCurveParams(address,address,address,address,address,uint256,uint256,uint256[],uint256[])":"bdd86b21","updateProtocolWallet(address)":"e308a099","uri(bytes32)":"9ed19ddb","uri(uint256)":"0e89341c","validateCartridge(address,bytes32,bytes,((uint64,uint64,bytes32,bytes32,bytes32,bytes32,bytes32[],bytes32[]),bytes))":"61b1a4c4","validateCartridgeCustom(address,bytes32,bytes,((uint64,uint64,bytes32,bytes32,bytes32,bytes32,bytes32[],bytes32[]),bytes),uint256,uint256[],uint256[],bool,address)":"cb29bae2","withdrawBalance(address,uint256)":"0cf20cc9"},"id":72}