{"abi":[{"type":"constructor","inputs":[{"name":"newCartridgeBondUtilsAddress","type":"address","internalType":"address"},{"name":"maxSteps","type":"uint256","internalType":"uint256"}],"stateMutability":"nonpayable"},{"type":"function","name":"accounts","inputs":[{"name":"","type":"address","internalType":"address"},{"name":"","type":"address","internalType":"address"}],"outputs":[{"name":"","type":"uint256","internalType":"uint256"}],"stateMutability":"view"},{"type":"function","name":"addDapp","inputs":[{"name":"dapp","type":"address","internalType":"address"}],"outputs":[],"stateMutability":"nonpayable"},{"type":"function","name":"balanceOf","inputs":[{"name":"account","type":"address","internalType":"address"},{"name":"id","type":"uint256","internalType":"uint256"}],"outputs":[{"name":"","type":"uint256","internalType":"uint256"}],"stateMutability":"view"},{"type":"function","name":"balanceOfBatch","inputs":[{"name":"accounts","type":"address[]","internalType":"address[]"},{"name":"ids","type":"uint256[]","internalType":"uint256[]"}],"outputs":[{"name":"","type":"uint256[]","internalType":"uint256[]"}],"stateMutability":"view"},{"type":"function","name":"bondingCurveSteps","inputs":[{"name":"","type":"uint256","internalType":"uint256"}],"outputs":[{"name":"rangeMax","type":"uint256","internalType":"uint256"},{"name":"coefficient","type":"uint256","internalType":"uint256"}],"stateMutability":"view"},{"type":"function","name":"buyCartridges","inputs":[{"name":"cartridgeId","type":"bytes32","internalType":"bytes32"},{"name":"cartridgesToMint","type":"uint256","internalType":"uint256"},{"name":"maxCurrencyPrice","type":"uint256","internalType":"uint256"}],"outputs":[{"name":"currencyCost","type":"uint256","internalType":"uint256"}],"stateMutability":"payable"},{"type":"function","name":"cartridgeBondUtilsAddress","inputs":[],"outputs":[{"name":"","type":"address","internalType":"address"}],"stateMutability":"view"},{"type":"function","name":"cartridgeBondingCurveModelAddress","inputs":[],"outputs":[{"name":"","type":"address","internalType":"address"}],"stateMutability":"view"},{"type":"function","name":"cartridgeBonds","inputs":[{"name":"","type":"bytes32","internalType":"bytes32"}],"outputs":[{"name":"bond","type":"tuple","internalType":"struct BondUtils.BondData","components":[{"name":"currencyToken","type":"address","internalType":"address"},{"name":"steps","type":"tuple[]","internalType":"struct IBondingCurveModel.BondingCurveStep[]","components":[{"name":"rangeMax","type":"uint256","internalType":"uint256"},{"name":"coefficient","type":"uint256","internalType":"uint256"}]},{"name":"currencyBalance","type":"uint256","internalType":"uint256"},{"name":"currentSupply","type":"uint256","internalType":"uint256"},{"name":"currentPrice","type":"uint256","internalType":"uint256"},{"name":"consumePrice","type":"uint256","internalType":"uint256"},{"name":"unclaimed","type":"tuple","internalType":"struct BondUtils.UnclaimedFees","components":[{"name":"mint","type":"uint256","internalType":"uint256"},{"name":"burn","type":"uint256","internalType":"uint256"},{"name":"consume","type":"uint256","internalType":"uint256"},{"name":"royalties","type":"uint256","internalType":"uint256"},{"name":"undistributedRoyalties","type":"uint256","internalType":"uint256"}]},{"name":"count","type":"tuple","internalType":"struct BondUtils.BondCount","components":[{"name":"minted","type":"uint256","internalType":"uint256"},{"name":"burned","type":"uint256","internalType":"uint256"},{"name":"consumed","type":"uint256","internalType":"uint256"}]}]},{"name":"feeModel","type":"address","internalType":"address"},{"name":"feeConfig","type":"uint256","internalType":"uint256"},{"name":"cartridgeModel","type":"address","internalType":"address"},{"name":"cartridgeOwner","type":"address","internalType":"address"},{"name":"lastUpdate","type":"uint256","internalType":"uint256"},{"name":"eventData","type":"bytes","internalType":"bytes"}],"stateMutability":"view"},{"type":"function","name":"cartridgeBondsCreated","inputs":[{"name":"","type":"uint256","internalType":"uint256"}],"outputs":[{"name":"","type":"bytes32","internalType":"bytes32"}],"stateMutability":"view"},{"type":"function","name":"cartridgeModelAddress","inputs":[],"outputs":[{"name":"","type":"address","internalType":"address"}],"stateMutability":"view"},{"type":"function","name":"cartridgeOwnershipModelAddress","inputs":[],"outputs":[{"name":"","type":"address","internalType":"address"}],"stateMutability":"view"},{"type":"function","name":"cartridgesCount","inputs":[],"outputs":[{"name":"","type":"uint256","internalType":"uint256"}],"stateMutability":"view"},{"type":"function","name":"changeCartridgeModel","inputs":[{"name":"cartridgeId","type":"bytes32","internalType":"bytes32"},{"name":"newCartridgeModel","type":"address","internalType":"address"}],"outputs":[],"stateMutability":"nonpayable"},{"type":"function","name":"consumeCartridges","inputs":[{"name":"cartridgeId","type":"bytes32","internalType":"bytes32"},{"name":"cartridgesToConsume","type":"uint256","internalType":"uint256"}],"outputs":[{"name":"","type":"uint256","internalType":"uint256"}],"stateMutability":"nonpayable"},{"type":"function","name":"currencyTokenAddress","inputs":[],"outputs":[{"name":"","type":"address","internalType":"address"}],"stateMutability":"view"},{"type":"function","name":"dappAddresses","inputs":[{"name":"","type":"address","internalType":"address"}],"outputs":[{"name":"","type":"bool","internalType":"bool"}],"stateMutability":"view"},{"type":"function","name":"exists","inputs":[{"name":"cartridgeId","type":"bytes32","internalType":"bytes32"}],"outputs":[{"name":"","type":"bool","internalType":"bool"}],"stateMutability":"view"},{"type":"function","name":"feeConfig","inputs":[],"outputs":[{"name":"","type":"uint256","internalType":"uint256"}],"stateMutability":"view"},{"type":"function","name":"feeModelAddress","inputs":[],"outputs":[{"name":"","type":"address","internalType":"address"}],"stateMutability":"view"},{"type":"function","name":"getCartridgeData","inputs":[{"name":"cartridgeId","type":"bytes32","internalType":"bytes32"}],"outputs":[{"name":"","type":"bytes32","internalType":"bytes32"},{"name":"","type":"uint256","internalType":"uint256"},{"name":"","type":"bytes32","internalType":"bytes32"},{"name":"","type":"int256","internalType":"int256"}],"stateMutability":"view"},{"type":"function","name":"getCurrentBuyPrice","inputs":[{"name":"cartridgeId","type":"bytes32","internalType":"bytes32"},{"name":"tokensToMint","type":"uint256","internalType":"uint256"}],"outputs":[{"name":"","type":"uint256","internalType":"uint256"},{"name":"","type":"uint256","internalType":"uint256"},{"name":"","type":"uint256","internalType":"uint256"}],"stateMutability":"view"},{"type":"function","name":"getCurrentConsumePrice","inputs":[{"name":"cartridgeId","type":"bytes32","internalType":"bytes32"},{"name":"tokensToConsume","type":"uint256","internalType":"uint256"}],"outputs":[{"name":"","type":"uint256","internalType":"uint256"},{"name":"","type":"uint256","internalType":"uint256"}],"stateMutability":"view"},{"type":"function","name":"getCurrentSellPrice","inputs":[{"name":"cartridgeId","type":"bytes32","internalType":"bytes32"},{"name":"tokensToBurn","type":"uint256","internalType":"uint256"}],"outputs":[{"name":"","type":"uint256","internalType":"uint256"},{"name":"","type":"uint256","internalType":"uint256"},{"name":"","type":"uint256","internalType":"uint256"}],"stateMutability":"view"},{"type":"function","name":"isApprovedForAll","inputs":[{"name":"account","type":"address","internalType":"address"},{"name":"operator","type":"address","internalType":"address"}],"outputs":[{"name":"","type":"bool","internalType":"bool"}],"stateMutability":"view"},{"type":"function","name":"maxCartridgeSupply","inputs":[{"name":"cartridgeId","type":"bytes32","internalType":"bytes32"}],"outputs":[{"name":"","type":"uint256","internalType":"uint256"}],"stateMutability":"view"},{"type":"function","name":"maxSupply","inputs":[],"outputs":[{"name":"","type":"uint256","internalType":"uint256"}],"stateMutability":"view"},{"type":"function","name":"owner","inputs":[],"outputs":[{"name":"","type":"address","internalType":"address"}],"stateMutability":"view"},{"type":"function","name":"renounceOwnership","inputs":[],"outputs":[],"stateMutability":"nonpayable"},{"type":"function","name":"safeBatchTransferFrom","inputs":[{"name":"from","type":"address","internalType":"address"},{"name":"to","type":"address","internalType":"address"},{"name":"ids","type":"uint256[]","internalType":"uint256[]"},{"name":"values","type":"uint256[]","internalType":"uint256[]"},{"name":"data","type":"bytes","internalType":"bytes"}],"outputs":[],"stateMutability":"nonpayable"},{"type":"function","name":"safeTransferFrom","inputs":[{"name":"from","type":"address","internalType":"address"},{"name":"to","type":"address","internalType":"address"},{"name":"id","type":"uint256","internalType":"uint256"},{"name":"value","type":"uint256","internalType":"uint256"},{"name":"data","type":"bytes","internalType":"bytes"}],"outputs":[],"stateMutability":"nonpayable"},{"type":"function","name":"sellCartridges","inputs":[{"name":"cartridgeId","type":"bytes32","internalType":"bytes32"},{"name":"cartridgesToBurn","type":"uint256","internalType":"uint256"},{"name":"minCurrencyRefund","type":"uint256","internalType":"uint256"}],"outputs":[{"name":"","type":"uint256","internalType":"uint256"}],"stateMutability":"nonpayable"},{"type":"function","name":"setApprovalForAll","inputs":[{"name":"operator","type":"address","internalType":"address"},{"name":"approved","type":"bool","internalType":"bool"}],"outputs":[],"stateMutability":"nonpayable"},{"type":"function","name":"setCartridgeParams","inputs":[{"name":"cartridgeId","type":"bytes32","internalType":"bytes32"}],"outputs":[],"stateMutability":"nonpayable"},{"type":"function","name":"setCartridgeParamsCustom","inputs":[{"name":"cartridgeId","type":"bytes32","internalType":"bytes32"},{"name":"bondFeeConfig","type":"uint256","internalType":"uint256"},{"name":"stepRangesMax","type":"uint256[]","internalType":"uint256[]"},{"name":"stepCoefficients","type":"uint256[]","internalType":"uint256[]"},{"name":"creatorAllocation","type":"bool","internalType":"bool"}],"outputs":[],"stateMutability":"nonpayable"},{"type":"function","name":"setURI","inputs":[{"name":"newUri","type":"string","internalType":"string"}],"outputs":[],"stateMutability":"nonpayable"},{"type":"function","name":"supportsInterface","inputs":[{"name":"interfaceId","type":"bytes4","internalType":"bytes4"}],"outputs":[{"name":"","type":"bool","internalType":"bool"}],"stateMutability":"view"},{"type":"function","name":"totalCartridges","inputs":[],"outputs":[{"name":"","type":"uint256","internalType":"uint256"}],"stateMutability":"view"},{"type":"function","name":"transferOwnership","inputs":[{"name":"newOwner","type":"address","internalType":"address"}],"outputs":[],"stateMutability":"nonpayable"},{"type":"function","name":"updateBondingCurveParams","inputs":[{"name":"newCurrencyToken","type":"address","internalType":"address"},{"name":"newFeeModel","type":"address","internalType":"address"},{"name":"newCartridgeModel","type":"address","internalType":"address"},{"name":"newCartridgeOwnershipModelAddress","type":"address","internalType":"address"},{"name":"newCartridgeBondingCurveModelAddress","type":"address","internalType":"address"},{"name":"newMaxSupply","type":"uint256","internalType":"uint256"},{"name":"newFeeConfig","type":"uint256","internalType":"uint256"},{"name":"stepRangesMax","type":"uint256[]","internalType":"uint256[]"},{"name":"stepCoefficients","type":"uint256[]","internalType":"uint256[]"}],"outputs":[],"stateMutability":"nonpayable"},{"type":"function","name":"updateProtocolWallet","inputs":[{"name":"newProtocolWallet","type":"address","internalType":"address"}],"outputs":[],"stateMutability":"nonpayable"},{"type":"function","name":"uri","inputs":[{"name":"","type":"uint256","internalType":"uint256"}],"outputs":[{"name":"","type":"string","internalType":"string"}],"stateMutability":"view"},{"type":"function","name":"validateCartridge","inputs":[{"name":"dapp","type":"address","internalType":"address"},{"name":"cartridgeId","type":"bytes32","internalType":"bytes32"},{"name":"_payload","type":"bytes","internalType":"bytes"},{"name":"_v","type":"tuple","internalType":"struct Proof","components":[{"name":"validity","type":"tuple","internalType":"struct OutputValidityProof","components":[{"name":"inputIndexWithinEpoch","type":"uint64","internalType":"uint64"},{"name":"outputIndexWithinInput","type":"uint64","internalType":"uint64"},{"name":"outputHashesRootHash","type":"bytes32","internalType":"bytes32"},{"name":"vouchersEpochRootHash","type":"bytes32","internalType":"bytes32"},{"name":"noticesEpochRootHash","type":"bytes32","internalType":"bytes32"},{"name":"machineStateHash","type":"bytes32","internalType":"bytes32"},{"name":"outputHashInOutputHashesSiblings","type":"bytes32[]","internalType":"bytes32[]"},{"name":"outputHashesInEpochSiblings","type":"bytes32[]","internalType":"bytes32[]"}]},{"name":"context","type":"bytes","internalType":"bytes"}]}],"outputs":[{"name":"","type":"bytes32","internalType":"bytes32"}],"stateMutability":"nonpayable"},{"type":"function","name":"validateCartridgeCustom","inputs":[{"name":"dapp","type":"address","internalType":"address"},{"name":"cartridgeId","type":"bytes32","internalType":"bytes32"},{"name":"_payload","type":"bytes","internalType":"bytes"},{"name":"_v","type":"tuple","internalType":"struct Proof","components":[{"name":"validity","type":"tuple","internalType":"struct OutputValidityProof","components":[{"name":"inputIndexWithinEpoch","type":"uint64","internalType":"uint64"},{"name":"outputIndexWithinInput","type":"uint64","internalType":"uint64"},{"name":"outputHashesRootHash","type":"bytes32","internalType":"bytes32"},{"name":"vouchersEpochRootHash","type":"bytes32","internalType":"bytes32"},{"name":"noticesEpochRootHash","type":"bytes32","internalType":"bytes32"},{"name":"machineStateHash","type":"bytes32","internalType":"bytes32"},{"name":"outputHashInOutputHashesSiblings","type":"bytes32[]","internalType":"bytes32[]"},{"name":"outputHashesInEpochSiblings","type":"bytes32[]","internalType":"bytes32[]"}]},{"name":"context","type":"bytes","internalType":"bytes"}]},{"name":"bondFeeConfig","type":"uint256","internalType":"uint256"},{"name":"stepRangesMax","type":"uint256[]","internalType":"uint256[]"},{"name":"stepCoefficients","type":"uint256[]","internalType":"uint256[]"},{"name":"creatorAllocation","type":"bool","internalType":"bool"}],"outputs":[{"name":"","type":"bytes32","internalType":"bytes32"}],"stateMutability":"nonpayable"},{"type":"function","name":"withdrawBalance","inputs":[{"name":"token","type":"address","internalType":"address"},{"name":"amount","type":"uint256","internalType":"uint256"}],"outputs":[],"stateMutability":"nonpayable"},{"type":"event","name":"ApprovalForAll","inputs":[{"name":"account","type":"address","indexed":true,"internalType":"address"},{"name":"operator","type":"address","indexed":true,"internalType":"address"},{"name":"approved","type":"bool","indexed":false,"internalType":"bool"}],"anonymous":false},{"type":"event","name":"Bond","inputs":[{"name":"id","type":"bytes32","indexed":true,"internalType":"bytes32"},{"name":"token","type":"address","indexed":true,"internalType":"address"},{"name":"currentPrice","type":"uint256","indexed":false,"internalType":"uint256"},{"name":"currentSupply","type":"uint256","indexed":false,"internalType":"uint256"},{"name":"currentBalance","type":"uint256","indexed":false,"internalType":"uint256"}],"anonymous":false},{"type":"event","name":"Buy","inputs":[{"name":"id","type":"bytes32","indexed":true,"internalType":"bytes32"},{"name":"user","type":"address","indexed":true,"internalType":"address"},{"name":"amountMinted","type":"uint256","indexed":false,"internalType":"uint256"},{"name":"pricePayed","type":"uint256","indexed":false,"internalType":"uint256"}],"anonymous":false},{"type":"event","name":"Consume","inputs":[{"name":"id","type":"bytes32","indexed":true,"internalType":"bytes32"},{"name":"user","type":"address","indexed":true,"internalType":"address"},{"name":"amountConsumed","type":"uint256","indexed":false,"internalType":"uint256"},{"name":"currencyDonated","type":"uint256","indexed":false,"internalType":"uint256"}],"anonymous":false},{"type":"event","name":"OwnershipTransferred","inputs":[{"name":"previousOwner","type":"address","indexed":true,"internalType":"address"},{"name":"newOwner","type":"address","indexed":true,"internalType":"address"}],"anonymous":false},{"type":"event","name":"Reward","inputs":[{"name":"id","type":"bytes32","indexed":true,"internalType":"bytes32"},{"name":"user","type":"address","indexed":true,"internalType":"address"},{"name":"token","type":"address","indexed":true,"internalType":"address"},{"name":"rewardType","type":"uint8","indexed":false,"internalType":"enum BondUtils.RewardType"},{"name":"amount","type":"uint256","indexed":false,"internalType":"uint256"}],"anonymous":false},{"type":"event","name":"Sell","inputs":[{"name":"id","type":"bytes32","indexed":true,"internalType":"bytes32"},{"name":"user","type":"address","indexed":true,"internalType":"address"},{"name":"amountBurned","type":"uint256","indexed":false,"internalType":"uint256"},{"name":"refundReceived","type":"uint256","indexed":false,"internalType":"uint256"}],"anonymous":false},{"type":"event","name":"TransferBatch","inputs":[{"name":"operator","type":"address","indexed":true,"internalType":"address"},{"name":"from","type":"address","indexed":true,"internalType":"address"},{"name":"to","type":"address","indexed":true,"internalType":"address"},{"name":"ids","type":"uint256[]","indexed":false,"internalType":"uint256[]"},{"name":"values","type":"uint256[]","indexed":false,"internalType":"uint256[]"}],"anonymous":false},{"type":"event","name":"TransferSingle","inputs":[{"name":"operator","type":"address","indexed":true,"internalType":"address"},{"name":"from","type":"address","indexed":true,"internalType":"address"},{"name":"to","type":"address","indexed":true,"internalType":"address"},{"name":"id","type":"uint256","indexed":false,"internalType":"uint256"},{"name":"value","type":"uint256","indexed":false,"internalType":"uint256"}],"anonymous":false},{"type":"event","name":"URI","inputs":[{"name":"value","type":"string","indexed":false,"internalType":"string"},{"name":"id","type":"uint256","indexed":true,"internalType":"uint256"}],"anonymous":false},{"type":"error","name":"Bond__InvalidAmount","inputs":[]},{"type":"error","name":"Cartridge__ChangeError","inputs":[]},{"type":"error","name":"Cartridge__InsufficientFunds","inputs":[]},{"type":"error","name":"Cartridge__InvalidCartridge","inputs":[{"name":"reason","type":"string","internalType":"string"}]},{"type":"error","name":"Cartridge__InvalidDapp","inputs":[]},{"type":"error","name":"Cartridge__InvalidOwner","inputs":[]},{"type":"error","name":"Cartridge__InvalidTransfer","inputs":[{"name":"reason","type":"string","internalType":"string"}]},{"type":"error","name":"Cartridge__InvalidUser","inputs":[]},{"type":"error","name":"Cartridge__NotFound","inputs":[]},{"type":"error","name":"Cartridge__SlippageLimitExceeded","inputs":[]},{"type":"error","name":"ERC1155InsufficientBalance","inputs":[{"name":"sender","type":"address","internalType":"address"},{"name":"balance","type":"uint256","internalType":"uint256"},{"name":"needed","type":"uint256","internalType":"uint256"},{"name":"tokenId","type":"uint256","internalType":"uint256"}]},{"type":"error","name":"ERC1155InvalidApprover","inputs":[{"name":"approver","type":"address","internalType":"address"}]},{"type":"error","name":"ERC1155InvalidArrayLength","inputs":[{"name":"idsLength","type":"uint256","internalType":"uint256"},{"name":"valuesLength","type":"uint256","internalType":"uint256"}]},{"type":"error","name":"ERC1155InvalidOperator","inputs":[{"name":"operator","type":"address","internalType":"address"}]},{"type":"error","name":"ERC1155InvalidReceiver","inputs":[{"name":"receiver","type":"address","internalType":"address"}]},{"type":"error","name":"ERC1155InvalidSender","inputs":[{"name":"sender","type":"address","internalType":"address"}]},{"type":"error","name":"ERC1155MissingApprovalForAll","inputs":[{"name":"operator","type":"address","internalType":"address"},{"name":"owner","type":"address","internalType":"address"}]},{"type":"error","name":"OwnableInvalidOwner","inputs":[{"name":"owner","type":"address","internalType":"address"}]},{"type":"error","name":"OwnableUnauthorizedAccount","inputs":[{"name":"account","type":"address","internalType":"address"}]}],"bytecode":{"object":"0x60a034620001b1576001600160401b036200532c601f38829003908101601f1916840190838211858310176200019b5780859160409485948552833981010312620001b15782516001600160a01b03938482169391849003620001b15760200151908251906020820190828210908211176200019b5783526000809152600254600190600181811c9116801562000190575b60208210146200017c57601f811162000132575b50508060025532156200011b57600354907f8be0079c531659141344cd1fd0a4f28419497f9722a3daafe3b4186f6b6457e060018060a01b031994328685161760035551963293169180a33282600d541617600d5560805260085416176008556151759081620001b7823960805181613ae30152f35b602490835190631e4fbdf760e01b82526004820152fd5b60028352601f0160051c7f405787fa12a823e0f2b7631cc41b3ba8828b3321ca811111fa75cd3aa3bb5ace908101905b818110620001715750620000a5565b838155820162000162565b634e487b7160e01b83526022600452602483fd5b90607f169062000091565b634e487b7160e01b600052604160045260246000fd5b600080fdfe6080604052600436101561001257600080fd5b60003560e01c8062fdd58e146102e657806301ffc9a7146102e157806302fe5305146102dc578063056e9c55146102d75780630cf20cc9146102d25780630e89341c146102cd57806312e6bacd146102c857806319b53cf9146102c35780631aba7deb146102be5780631e5eb1d0146102b9578063226f877e146102b457806327b7ca5f146102af5780632eb2c2d6146102aa578063305e1d73146102a557806338a699a4146102a05780633ab03c8b1461029b5780633b906e47146102965780633c973f061461029157806342e201f41461028c5780634e1273f41461028757806361b1a4c414610282578063715018a61461027d578063724969e714610278578063787ca438146102735780637baa9fe81461026e5780638da5cb5b14610269578063a22cb46514610264578063aca6d5721461025f578063ad74b7751461025a578063af5baf4414610255578063b16cae6614610250578063bbfef0881461024b578063bdd86b2114610246578063ca00695b14610241578063d3c3b3891461023c578063d5abeb0114610237578063db907f6714610232578063e308a0991461022d578063e985e9c514610228578063ea6c681114610223578063eba4c82f1461021e578063f242432a14610219578063f2fde38b14610214578063fa1c4db61461020f5763fd3bf34b1461020a57600080fd5b612c82565b612c09565b612b4b565b612a26565b6129fd565b6129df565b612995565b61293c565b6128ee565b6128d0565b6128a7565b612805565b612770565b61269f565b612553565b61252a565b6124ee565b612421565b61236d565b612344565b61231b565b6122d9565b61213a565b6120d9565b611fe5565b611f1b565b611e48565b611a3e565b611a15565b6119ec565b6119bb565b61197c565b611811565b611732565b6116b2565b611309565b610eb5565b610db2565b610976565b610893565b6106c5565b610558565b610428565b61038d565b61032a565b6001600160a01b038116036102fc57565b600080fd5b6064359061030e826102eb565b565b6084359061030e826102eb565b6004359061030e826102eb565b346102fc5760403660031901126102fc57602061037260043561034c816102eb565b6024356000526000835260406000209060018060a01b0316600052602052604060002090565b54604051908152f35b6001600160e01b03198116036102fc57565b346102fc5760203660031901126102fc5760206004356103ac8161037b565b63ffffffff60e01b16636cdb3d1360e11b81149081156103ea575b81156103d9575b506040519015158152f35b6301ffc9a760e01b149050386103ce565b6303a24d0760e21b811491506103c7565b9181601f840112156102fc578235916001600160401b0383116102fc57602083818601950101116102fc57565b346102fc576020806003193601126102fc576001600160401b036004358181116102fc5761045d61046c9136906004016103fb565b610465613d60565b36916117bf565b9182519182116105535761048a8261048560025461148d565b613da3565b602090601f83116001146104cc575081906104bc936000926104c1575b50508160011b916000199060031b1c19161790565b600255005b0151905038806104a7565b90601f198316936104ff60026000527f405787fa12a823e0f2b7631cc41b3ba8828b3321ca811111fa75cd3aa3bb5ace90565b926000905b86821061053b5750508360019510610522575b505050811b01600255005b015160001960f88460031b161c19169055388080610517565b80600185968294968601518155019501930190610504565b610c77565b346102fc5760203660031901126102fc5760043561058b601361058583600052600e602052604060002090565b01612de3565b156106855760808160136105e56105d46105c86105c860106105ba61060299600052600e602052604060002090565b01546001600160a01b031690565b6001600160a01b031690565b92600052600e602052604060002090565b01906040518080958194637570c58b60e11b835260048301612e0f565b03915afa8015610680576000809160008091610645575b9061064191604051948594859094939260609260808301968352602083015260408201520152565b0390f35b5050505061066d6106419160803d608011610679575b6106658183610cd6565b810190612ded565b91935083929190610619565b503d61065b565b612e20565b604051639ffe2da160e01b81526020600482015260136024820152726361727472696467654f75747075744461746160681b6044820152606490fd5b0390fd5b346102fc5760403660031901126102fc576004356106e2816102eb565b336000908152601060205260409020602435919082906107169083905b9060018060a01b0316600052602052604060002090565b5410610841573360009081526010602052604090206107369082906106ff565b610741838254612e42565b90556001600160a01b03169081156108145760405163095ea7b360e01b81523060048201526024810182905260209283826044816000855af19081156106805760009385936107c0936107f7575b506040516323b872dd60e01b8152306004820152336024820152604481019190915293849283919082906064820190565b03925af18015610680576107d1575b005b816107cf92903d106107f0575b6107e88183610cd6565b810190612e92565b503d6107de565b61080d90853d87116107f0576107e88183610cd6565b503861078f565b6000808093508092335af1610827612e62565b501561082f57005b6040516303e717e760e51b8152600490fd5b6040516368d134dd60e11b8152600490fd5b919082519283825260005b84811061087f575050826000602080949584010152601f8019910116010190565b60208183018101518483018201520161085e565b346102fc576020806003193601126102fc5760405190600082600254916108b98361148d565b92838352600190856001821691826000146109565750506001146108f9575b506108e592500383610cd6565b610641604051928284938452830190610853565b84915060026000527f405787fa12a823e0f2b7631cc41b3ba8828b3321ca811111fa75cd3aa3bb5ace906000915b85831061093e5750506108e59350820101386108d8565b80548389018501528794508693909201918101610927565b60ff1916858201526108e595151560051b85010192503891506108d89050565b346102fc576040806003193601126102fc57600490813590602435916000818152600e6020526001838220015415610c67576109f6936109c083600052600e602052604060002090565b9084826109da6105c86105c860085460018060a01b031690565b82516328dac05d60e21b81529889928391829187838f01612f07565b03915afa9283156106805780968194610c42575b50610a568688610a296105c86105c8600e89015460018060a01b031690565b600f8701548351631fa52aab60e11b8152808e019182526020820193909352919384928391829160400190565b03915afa908115610680578291610c13575b5087610a748284612fd4565b03610c0357610641986000805160206150c0833981519152948489899895610ae7610bf296610aa88f9a610b979e33613e3e565b6003860198610ab8868b54612e42565b8a55610ac9600288019b8c54612e42565b8b55600d8701610ada878254612fd4565b905560058701558b613fbe565b610af660088601918254612fd4565b9055600d54610b4990610b27906001600160a01b03165b6001600160a01b0316600090815260106020526040902090565b85546001600160a01b03165b60018060a01b0316600052602052604060002090565b610b54828254612fd4565b9055600d54845492516000815260208101929092526001600160a01b039283169b8c93909116918b916000805160206150e0833981519152919081906040820190565b0390a48951908152602081018b9052339088907fff8a4589f2e064f9b82f2aec48ea80dbf6a8f623d3bd76d954da82ec4ea0079f90604090a30154915492548751938493846040919493926060820195825260208201520152565b0390a3519081529081906020820190565b86516350b30ba960e01b81528990fd5b9050610c359150863d8811610c3b575b610c2d8183610cd6565b810190612ea7565b38610a68565b503d610c23565b909350610c5d919650853d8711610c3b57610c2d8183610cd6565b9590959238610a0a565b825163f87e48db60e01b81528590fd5b634e487b7160e01b600052604160045260246000fd5b604081019081106001600160401b0382111761055357604052565b6001600160401b03811161055357604052565b602081019081106001600160401b0382111761055357604052565b90601f801991011681019081106001600160401b0382111761055357604052565b6040519061010082018281106001600160401b0382111761055357604052565b6040519061030e82610c8d565b6001600160401b0381116105535760051b60200190565b9080601f830112156102fc576020908235610d5581610d24565b93610d636040519586610cd6565b81855260208086019260051b8201019283116102fc57602001905b828210610d8c575050505090565b81358152908301908301610d7e565b801515036102fc57565b60e4359061030e82610d9b565b346102fc5760a03660031901126102fc576004356001600160401b036044358181116102fc57610de6903690600401610d3b565b906064359081116102fc57610dff903690600401610d3b565b60843591610e0c83610d9b565b600954610e21906001600160a01b03166105c8565b60405163273bed1d60e21b81523360048201526024810186905290602090829060449082905afa90811561068057600091610e7c575b5015610e6a576107cf93602435906130b5565b6040516319e2f96560e31b8152600490fd5b610e95915060203d6020116107f0576107e88183610cd6565b38610e57565b60609060031901126102fc57600435906024359060443590565b346102fc57610ec336610e9b565b600092808452602090600e825260409160018387200154156112ed57610ef382600052600e602052604060002090565b600854610f0a906105c8906001600160a01b031681565b86858051809363fdfb946360e01b82528180610f2b88600497888401612f07565b03915afa91821561068057610f93938a918b946112cc575b50600e81015488908390610f61906105c8906001600160a01b031681565b8c600f8501548451998a94859384936358e507db60e11b85528b85016040919493926060820195825260208201520152565b03915afa9a8b15610680578095819c6112a7575b50610fbb610fb58d88612fd4565b84612e42565b998a10611297576110168b9c610fd68d8b9e9c9d9e33613e3e565b610fe560028501958654612e42565b8555610ff6600385019b8c54612e42565b8b558d611008600c8601918254612fd4565b905585840196875589613fbe565b61102560078401918254612fd4565b9055600d5461105090611040906001600160a01b0316610b0d565b83546001600160a01b0316610b33565b61105b878254612fd4565b9055600d5482548b516000815260208101989098526001600160a01b0397908816918291908916908b906000805160206150e083398151915290604090a4156112215780876110e58c8e6110bb6105c86105c8895460018060a01b031690565b915163095ea7b360e01b8152308a8201908152602081019290925295869384928391604090910190565b03925af1908115610680576111469589938e93611204575b508454611114906105c8906001600160a01b031681565b8d516323b872dd60e01b8152309281019283523360208401526040830194909452929687939284929091839160600190565b03925af1908115610680576106419b887f47d38b8b50e4b792e507faad951cda2457545e704f667a3e32f22541945ebbf66111b18e8e6000805160206150c08339815191529c610bf29a6111c1996111e6575b50505b51948552602085015233939081906040820190565b0390a3546001600160a01b031690565b9254965490549088519485941697846040919493926060820195825260208201520152565b816111fc92903d106107f0576107e88183610cd6565b503880611199565b61121a90853d87116107f0576107e88183610cd6565b50386110fd565b808080939698508c9d9594979d335af1611239612e62565b5015611289575061064198926111c16000805160206150c08339815191529593610bf293887f47d38b8b50e4b792e507faad951cda2457545e704f667a3e32f22541945ebbf66111b18e8e61119c565b87516303e717e760e51b8152fd5b88516303158fa960e31b81528490fd5b909b506112c2919550883d8a11610c3b57610c2d8183610cd6565b9490949a38610fa7565b9093506112e69150873d8911610c3b57610c2d8183610cd6565b9238610f43565b825163f87e48db60e01b8152600490fd5b60009103126102fc57565b346102fc5760003660031901126102fc576020600c54604051908152f35b90815461133381610d24565b926040936113446040519182610cd6565b82815280946020809201926000526020600020906000935b85851061136b57505050505050565b600284600192845161137c81610c8d565b86548152848701548382015281520193019401939161135c565b9060405160a081018181106001600160401b0382111761055357604052608060048294805484526001810154602085015260028101546040850152600381015460608501520154910152565b90604051606081018181106001600160401b038211176105535760405260406002829480548452600181015460208501520154910152565b90611486600b611428610cf7565b84546001600160a01b031681529361144260018201611327565b6020860152600281015460408601526003810154606086015260048101546080860152600581015460a086015261147b60068201611396565b60c0860152016113e2565b60e0830152565b90600182811c921680156114bd575b60208310146114a757565b634e487b7160e01b600052602260045260246000fd5b91607f169161149c565b8054600093926114d68261148d565b9182825260209360019160018116908160001461153e57506001146114fd575b5050505050565b90939495506000929192528360002092846000945b83861061152a575050505001019038808080806114f6565b805485870183015294019385908201611512565b60ff19168685015250505090151560051b0101915038808080806114f6565b9061030e61157192604051938480926114c7565b0383610cd6565b80516001600160a01b031682526020808201516101c082850181905281519085018190526101e085019493929182019160005b82811061164357505050509061016060e08360406116409501516040850152606081015160608501526080810151608085015260a081015160a085015261162260c082015160c086019060808091805184526020810151602085015260408101516040850152606081015160608501520151910152565b01519101906040809180518452602081015160208501520151910152565b90565b83518051885282015187830152604090960195928101926001016115ab565b9395929161167d61164098969260e0875260e0870190611578565b9660018060a01b0393848093166020880152604087015216606085015216608083015260a082015260c0818403910152610853565b346102fc5760203660031901126102fc57600435600052600e60205260406000206116dc8161141a565b610641601360018060a01b039384600e8201541694600f8201549080601084015416906011840154169161172660128501549461171f60405180988193016114c7565b0386610cd6565b60405197889788611662565b346102fc5760203660031901126102fc5760043561174f816102eb565b611757613d60565b6001600160a01b031660008181526011602052604081205490919060ff16611792578152601160205260408120805460ff1916600117905580f35b6040516314949b1360e21b8152600490fd5b6001600160401b03811161055357601f01601f191660200190565b9291926117cb826117a4565b916117d96040519384610cd6565b8294818452818301116102fc578281602093846000960137010152565b9080601f830112156102fc57816020611640933591016117bf565b346102fc5760a03660031901126102fc576004803561182f816102eb565b60243561183b816102eb565b6001600160401b03906044358281116102fc5761185b9036908601610d3b565b906064358381116102fc576118739036908701610d3b565b926084359081116102fc5761188b90369087016117f6565b936001600160a01b03808216903382141580611918575b6118eb578316156118d357156118bc576107cf9550614bb4565b604051626a0d4560e21b8152600081880152602490fd5b604051632bfa23e760e11b8152600081890152602490fd5b6040805163711bec9160e11b815233818b019081526001600160a01b038616602082015290918291010390fd5b50600082815260016020908152604080832033845290915290205460ff16156118a2565b634e487b7160e01b600052603260045260246000fd5b600f5481101561197757600f6000526000805160206151208339815191520190600090565b61193c565b346102fc5760203660031901126102fc57600435600f548110156102fc57602090600f6000526000805160206151208339815191520154604051908152f35b346102fc5760203660031901126102fc57600435600052600e60205260206001604060002001541515604051908152f35b346102fc5760003660031901126102fc576006546040516001600160a01b039091168152602090f35b346102fc5760003660031901126102fc576009546040516001600160a01b039091168152602090f35b611a4736610e9b565b91600090808252600e6020526040926001848420015415611e3757611a7682600052600e602052604060002090565b600854909390611a90906105c8906001600160a01b031681565b8551946323ba203560e21b865286866004938180611ab1868a898401612f07565b03915afa9283156106805780968194611e12575b50809481906001611ad7818601612bd8565b500154611d85575b611af282611aed898c612fd4565b612fd4565b9a8b11611d755783546001600160a01b039790881615611cfa576020611b598c8e611b296105c86105c88b5460018060a01b031690565b91516323b872dd60e01b8152338b8201908152306020820152604081019290925297889384928391606090910190565b03925af1928315610680578c948a94611cdb575b505b600286019a8b5490611b8091612fd4565b8b55600386019683885490611b9491612fd4565b8855600b870184815490611ba791612fd4565b90558601978855611bb89084613fbe565b6006860190815490611bc991612fd4565b9055600d546001600160a01b03908116600090815260106020908152604080832089549094168352929052208054611c02908390612fd4565b9055600d546001600160a01b03169083898d818954611c269060018060a01b031690565b915160008152602081019590955291169316916000805160206150e083398151915290604090a481611c56612e4f565b823392611c6293614228565b8951908152602081019290925233917f5bd6f821d5961785d719543640cf62d3770f94e59db1a2f3c2250d72b122dddf90604090a354915490549454865191825260208201959095526040810194909452166001600160a01b0316916000805160206150c083398151915290606090a351908152602090f35b611cf39060203d6020116107f0576107e88183610cd6565b5038611b6d565b9190928b99989796959b3410600014611d1d578a516350b30ba960e01b81528c90fd5b91899b959697989993918993853411611d37575b50611b6f565b8080939550611d498193959734612e42565b335af1611d54612e62565b5015611d65579187918b9338611d31565b89516303e717e760e51b81528590fd5b89516303158fa960e31b81528590fd5b955050611dd88888611da66105c86105c8600e88015460018060a01b031690565b88600f870154845195869485938493636254a34560e11b85528c85016040919493926060820195825260208201520152565b03915afa80156106805782918391611df3575b509095611adf565b9050611e0c9150893d8b11610c3b57610c2d8183610cd6565b38611deb565b909350611e2d919650873d8911610c3b57610c2d8183610cd6565b9590959238611ac5565b835163f87e48db60e01b8152600490fd5b346102fc5760203660031901126102fc5760095460043590611e72906001600160a01b03166105c8565b60405163273bed1d60e21b81523360048201526024810183905290602090829060449082905afa90811561068057600091611eb7575b5015610e6a576107cf90613681565b611ed0915060203d6020116107f0576107e88183610cd6565b38611ea8565b90815180825260208080930193019160005b828110611ef6575050505090565b835185529381019392810192600101611ee8565b906020611640928181520190611ed6565b346102fc5760403660031901126102fc576004356001600160401b038082116102fc57366023830112156102fc578160040135611f5781610d24565b92611f656040519485610cd6565b8184526020916024602086019160051b830101913683116102fc57602401905b828210611fbe57856024358681116102fc5761064191611fac611fb2923690600401610d3b565b90613830565b60405191829182611f0a565b8380918335611fcc816102eb565b815201910190611f85565b908160409103126102fc5790565b346102fc5760803660031901126102fc57600435612002816102eb565b602435906001600160401b036044358181116102fc576120269036906004016103fb565b90916064359081116102fc57612040903690600401611fd7565b600954909290612058906001600160a01b03166105c8565b60405163273bed1d60e21b81523360048201526024810187905290602090829060449082905afa908115610680576000916120ba575b5015610e6a57846120aa946120a561064197613681565b614622565b6040519081529081906020820190565b6120d3915060203d6020116107f0576107e88183610cd6565b3861208e565b346102fc57600080600319360112612137576120f3613d60565b600380546001600160a01b0319811690915581906001600160a01b03167f8be0079c531659141344cd1fd0a4f28419497f9722a3daafe3b4186f6b6457e08280a380f35b80fd5b346102fc576040806003193601126102fc5760043590602435600161216984600052600e602052604060002090565b0154156122c85761218f61218a6121c694600052600e602052604060002090565b6138ef565b60085483906121a8906105c8906001600160a01b031681565b825190825180809881946323ba203560e21b83528860048401613978565b03915afa9182156106805760009460009361229a575b5060208201516122319392859287928490612201906105c8906001600160a01b031681565b920151845196879485938493636254a34560e11b8552600485016040919493926060820195825260208201520152565b03915afa80156106805761225761225e916106419460009060009261227a575b50612fd4565b8095612fd4565b9251938493846040919493926060820195825260208201520152565b90506122939150863d8811610c3b57610c2d8183610cd6565b9038612251565b849192955061223193506122ba90823d8411610c3b57610c2d8183610cd6565b9095869194509291506121dc565b815163f87e48db60e01b8152600490fd5b346102fc5760203660031901126102fc576004356122f6816102eb565b60018060a01b03166000526011602052602060ff604060002054166040519015158152f35b346102fc5760003660031901126102fc576007546040516001600160a01b039091168152602090f35b346102fc5760003660031901126102fc576003546040516001600160a01b039091168152602090f35b346102fc5760403660031901126102fc5760043561238a816102eb565b60243561239681610d9b565b6001600160a01b038216918215612409573360009081526001602090815260408083206001600160a01b039094168352929052209015159060ff1981541660ff83161790556040519081527f17307eab39ab6107e8899845ad3d59bd9653f200f220920489ca2b5937696c3160203392a3005b60405162ced3e160e81b815260006004820152602490fd5b346102fc57600080600319360112612137578081600f8054915b82851061244d57604051848152602090f35b9091926124be6001918484526124b86003612483896000805160206151208339815191520154600052600e602052604060002090565b0154600d6124b06124a06124968c611952565b90549060031b1c90565b600052600e602052604060002090565b015490612e42565b90612fd4565b94019392919061243b565b60409060031901126102fc576004356124e1816102eb565b90602435611640816102eb565b346102fc576020610372612501366124c9565b6001600160a01b0391821660009081526010855260408082209290931681526020919091522090565b346102fc5760003660031901126102fc57600a546040516001600160a01b039091168152602090f35b346102fc576040806003193601126102fc5760043590602435600161258284600052600e602052604060002090565b0154156122c8576125a361218a6125da94600052600e602052604060002090565b60085483906125bc906105c8906001600160a01b031681565b8251908251808098819463fdfb946360e01b83528860048401613978565b03915afa91821561068057600094600093612671575b5060208201516126459392859287928490612615906105c8906001600160a01b031681565b9201518451968794859384936358e507db60e11b8552600485016040919493926060820195825260208201520152565b03915afa80156106805761266a61225e916106419460009060009261227a5750612fd4565b8095612e42565b8491929550612645935061269190823d8411610c3b57610c2d8183610cd6565b9095869194509291506125f0565b346102fc576040806003193601126102fc5760043560016126ca82600052600e602052604060002090565b0154156122c857816126ec61218a61272393600052600e602052604060002090565b600854612703906105c8906001600160a01b031681565b905190825180809581946328dac05d60e21b835260243560048401613978565b03915afa9182156106805760009160009361274b575b50519081526020810191909152604090f35b8161276892945061064193503d8511610c3b57610c2d8183610cd6565b929091612739565b346102fc576101203660031901126102fc5760043561278e816102eb565b60243561279a816102eb565b604435906127a7826102eb565b6127af610301565b906127b8610310565b6001600160401b03949060e4358681116102fc576127da903690600401610d3b565b93610104359687116102fc576127f76107cf973690600401610d3b565b9560c4359460a4359461398f565b346102fc576101003660031901126102fc5761281f61031d565b6001600160401b036044358181116102fc5761283f9036906004016103fb565b6064358381116102fc57612857903690600401611fd7565b9360a4358481116102fc57612870903690600401610d3b565b9060c4359485116102fc57610641956128906120aa963690600401610d3b565b93612899610da5565b956084359360243590613cda565b346102fc5760003660031901126102fc576005546040516001600160a01b039091168152602090f35b346102fc5760003660031901126102fc576020600b54604051908152f35b346102fc5760203660031901126102fc57600435600052600e602052600160406000200180549060001982019182116129375760209161292d91612bed565b5054604051908152f35b612e2c565b346102fc5760203660031901126102fc57600435612959816102eb565b600d54906001600160a01b03908183163303612983576001600160a01b0319909216911617600d55005b604051631a2a416760e21b8152600490fd5b346102fc57602060ff6129d36129aa366124c9565b6001600160a01b0391821660009081526001865260408082209290931681526020919091522090565b54166040519015158152f35b346102fc5760003660031901126102fc576020600f54604051908152f35b346102fc5760003660031901126102fc576008546040516001600160a01b039091168152602090f35b346102fc5760a03660031901126102fc57600435612a43816102eb565b602435612a4f816102eb565b6084356001600160401b0381116102fc57612a6e9036906004016117f6565b906001600160a01b03838116903382141580612b27575b612b0057821615612ae75715612acf576107cf92612ac76064356044359160405192600184526020840152604083019160018352606084015260808301604052565b929091614bb4565b604051626a0d4560e21b815260006004820152602490fd5b604051632bfa23e760e11b815260006004820152602490fd5b60405163711bec9160e11b81523360048201526001600160a01b0386166024820152604490fd5b50600082815260016020908152604080832033845290915290205460ff1615612a85565b346102fc5760203660031901126102fc57600435612b68816102eb565b612b70613d60565b6001600160a01b03908116908115612bbf57600354826001600160601b0360a01b821617600355167f8be0079c531659141344cd1fd0a4f28419497f9722a3daafe3b4186f6b6457e0600080a3005b604051631e4fbdf760e01b815260006004820152602490fd5b80541561197757600052602060002090600090565b80548210156119775760005260206000209060011b0190600090565b346102fc5760203660031901126102fc576004356004548110156102fc57600460005260011b7f8a35acfbc15ff81a39ae7d344fd709f28e8600b4aa8c65c6b64bfe7fe36bd19c816000805160206151008339815191520154910154906106416040519283928360209093929193604081019481520152565b346102fc5760403660031901126102fc57600435602435612ca2816102eb565b612caa613d60565b6001612cc083600052600e602052604060002090565b015415612dd157612ce0601361058584600052600e602052604060002090565b612d8b57600854612cfb906105c8906001600160a01b031681565b803b156102fc57604051632286a71160e01b81526001600160a01b038316600482015290600090829060249082905afa8015610680576107cf93601092612d5292612d72575b50600052600e602052604060002090565b0180546001600160a01b0319166001600160a01b03909216919091179055565b80612d7f612d8592610ca8565b806112fe565b38612d41565b604051639ffe2da160e01b815260206004820152601b60248201527f43617274726964676520616c72656164792076616c69646174656400000000006044820152606490fd5b60405163f87e48db60e01b8152600490fd5b611640905461148d565b91908260809103126102fc578151916020810151916060604083015192015190565b9060206116409281815201906114c7565b6040513d6000823e3d90fd5b634e487b7160e01b600052601160045260246000fd5b9190820391821161293757565b60405190612e5c82610cbb565b60008252565b3d15612e8d573d90612e73826117a4565b91612e816040519384610cd6565b82523d6000602084013e565b606090565b908160209103126102fc575161164081610d9b565b91908260409103126102fc576020825192015190565b9081548082526020809201926000526020600020916000905b828210612ee4575050505090565b835485526001808501548683015260409095019460029094019390910190612ed6565b9161164091835260406020840152612f3960408401612f2c835460018060a01b031690565b6001600160a01b03169052565b6101c06060840152600b6101a0612f57610200860160018501612ebd565b60028401546080870152600384015460a0870152600484015460c0870152600584015460e08701526006840154610100870152600784015461012087015260088401546101408701526009840154610160870152600a84015461018087015294019101600260409180548452600181015460208501520154910152565b9190820180921161293757565b9060209182818303126102fc578051906001600160401b0382116102fc570181601f820112156102fc5780519261301784610d24565b936040936130286040519687610cd6565b818652828087019260061b850101938185116102fc578301915b8483106130525750505050505090565b85838303126102fc57838691825161306981610c8d565b855181528286015183820152815201920191613042565b9392916130b0906130a260609360008852608060208901526080880190611ed6565b908682036040880152611ed6565b930152565b600a54600b546040516309a257cd60e41b8152600481018490526080602482015293969295929460009385936001600160a01b0316928492839261311391613101906084860190611ed6565b84810360031901604486015290611ed6565b90606483015203915afa9081156106805760009161327e575b50600193600161314685600052600e602052604060002090565b015415613154575050505050565b849161316a85600052600e602052604060002090565b600654600e820180546001600160a01b0319166001600160a01b0390921691909117905591600f83015560055482546001600160a01b0319166001600160a01b039091161782556007546010830180546001600160a01b0319166001600160a01b03909216919091179055600160009201955b613232575b5050506131ee826141f2565b8061321d575b613201575b8080806114f6565b61320d61321592612bd8565b5054906132a1565b5038806131f9565b50600161322983612bd8565b500154156131f4565b805182101561327957828261327261324b83958561381c565b515160208061325a858861381c565b51015190613266610d17565b928352820152896141a8565b01916131dd565b6131e2565b61329b91503d806000833e6132938183610cd6565b810190612fe1565b3861312c565b600090808252600e60205260409160018382200154156112ed576132cf82600052600e602052604060002090565b6008546132e6906105c8906001600160a01b031681565b8451946323ba203560e21b865280866004938180613307888d898401612f07565b03915afa928315610680578496859461365c575b5084978590600161332d818501612bd8565b5001546135cf575b61334382611aed8c8c612fd4565b998a6135bf5783546001600160a01b03989089161561353d579060208c6133af9594938961337d6105c86105c88b5460018060a01b031690565b8a516323b872dd60e01b8152339281019283523060208401526040830194909452929788939284929091839160600190565b03925af1928315610680578c948b9461351e575b505b600286019b8c54906133d691612fd4565b8c556003860197838954906133ea91612fd4565b8955600b8701848154906133fd91612fd4565b9055860198895561340e9084613fbe565b600686019081549061341f91612fd4565b9055600d546001600160a01b03908116600090815260106020908152604080832089549094168352929052208054613458908390612fd4565b9055600d54855487516000815260208101939093528a166001600160a01b0390811692918b16169084906000805160206150e083398151915290604090a48161349f612e4f565b8233926134ab93614228565b8451908152602081019290925233917f5bd6f821d5961785d719543640cf62d3770f94e59db1a2f3c2250d72b122dddf90604090a354925491549554905191825260208201959095526040810194909452166001600160a01b0316916000805160206150c083398151915290606090a390565b6135369060203d6020116107f0576107e88183610cd6565b50386133c3565b8b9997959b9c9a98969c939192933410600014613564578b516350b30ba960e01b81528d90fd5b91899b95979993918a93859e989a9c9e3411613581575b506133c5565b80809395506135938193959734612e42565b335af161359e612e62565b50156135af579188918b933861357b565b84516303e717e760e51b81528690fd5b84516303158fa960e31b81528690fd5b98505061362282886135f06105c86105c8600e87015460018060a01b031690565b8b600f860154845195869485938493636254a34560e11b85528c85016040919493926060820195825260208201520152565b03915afa8015610680578691879161363d575b509098613335565b90506136569150833d8511610c3b57610c2d8183610cd6565b38613635565b909350816136779297503d8811610c3b57610c2d8183610cd6565b959095923861331b565b600c54906004549161369283610d24565b6040936136a26040519283610cd6565b8082526004600090815260209560008051602061510083398151915290878086015b8585106137ef5750505050505060019360016136ea85600052600e602052604060002090565b0154156136f8575050505050565b84919261370f85600052600e602052604060002090565b600654600e820180546001600160a01b0319166001600160a01b0390921691909117905590600f82015560055481546001600160a01b0319166001600160a01b039091161781556007546010820180546001600160a01b0319166001600160a01b03909216919091179055600160009101925b61379f575b5050505061379591506141f2565b38808080806114f6565b83518110156137ea579085826137e06137bb879695849861381c565b5151846137c8848961381c565b5101516137d3610d17565b91825285820152856141a8565b0190919293613782565b613787565b600191600291845161380081610c8d565b86548152848701548382015281520193019301929188906136c4565b80518210156119775760209160051b010190565b919091805183518082036138cd57505080519061386561384f83610d24565b9261385d6040519485610cd6565b808452610d24565b60209190601f1901368484013760005b81518110156138c557600581901b8281018401519087018401516000908152602081815260408083206001600160a01b0390941683529290522054600191906138be828761381c565b5201613875565b509193505050565b604051635b05999160e01b815260048101919091526024810191909152604490fd5b9060405160e081018181106001600160401b038211176105535760405260c06139736013839561391e8161141a565b8552600e8101546001600160a01b03166020860152600f810154604086015260108101546001600160a01b0316606086015260118101546001600160a01b03166080860152601281015460a08601520161155d565b910152565b604090611640939281528160208201520190611578565b9798969861399b613d60565b6008546139b2906105c8906001600160a01b031681565b90813b156102fc576040805163169f6b0560e11b81526001600160a01b038c166004808301919091526000949293909290918581602481855afa801561068057613cc7575b50803b15613c8a57835163f610a03960e01b81526001600160a01b0387168482019081528690829081906020010381855afa801561068057613cb4575b50803b15613c8a578351632286a71160e01b81526001600160a01b0388168482019081528690829081906020010381855afa801561068057613ca1575b50803b15613c8a57835163130d243760e21b81526001600160a01b038916848201908152909186918391908290819060200103915afa801561068057613c8e575b506001600160a01b03881691823b15613c8a5790839291858f8390613b0a97519788928392632326e3db60e01b84527f0000000000000000000000000000000000000000000000000000000000000000878501614b2b565b0381865afa9384156106805786958c95613c77575b50613b28614b56565b516309a257cd60e41b81529e8f9485938493613b4693908501613080565b03915afa998a1561068057819a613c5b575b505b8951811015613ba15780613b9b613b736001938d61381c565b5151828d613b84602092839261381c565b51015190613b90610d17565b928352820152614142565b01613b5a565b50613c569596985091613c17613c3492613bfa613c519695613bdd61030e9c60018060a01b03166001600160601b0360a01b6005541617600555565b60018060a01b03166001600160601b0360a01b6006541617600655565b60018060a01b03166001600160601b0360a01b6007541617600755565b60018060a01b03166001600160601b0360a01b6009541617600955565b60018060a01b03166001600160601b0360a01b600a541617600a55565b600b55565b600c55565b613c70919a503d808c833e6132938183610cd6565b9838613b58565b80612d7f613c8492610ca8565b38613b1f565b8480fd5b80612d7f613c9b92610ca8565b38613ab2565b80612d7f613cae92610ca8565b38613a71565b80612d7f613cc192610ca8565b38613a34565b80612d7f613cd492610ca8565b386139f7565b60095460405163273bed1d60e21b815233600482015260248101849052979995989497939692959194929391929190602090829060449082906001600160a01b03165afa90811561068057600091613d41575b5015610e6a57611640986120a593866130b5565b613d5a915060203d6020116107f0576107e88183610cd6565b38613d2d565b6003546001600160a01b03163303613d7457565b60405163118cdaa760e01b8152336004820152602490fd5b818110613d97575050565b60008155600101613d8c565b90601f8211613db0575050565b61030e9160026000527f405787fa12a823e0f2b7631cc41b3ba8828b3321ca811111fa75cd3aa3bb5ace906020601f840160051c83019310613dfa575b601f0160051c0190613d8c565b9091508190613ded565b9190601f8111613e1357505050565b61030e926000526020600020906020601f840160051c83019310613dfa57601f0160051c0190613d8c565b6001600160a01b038116929091908315612acf57613e7960405192600184526020840152604083019160018352606084015260808301604052565b91906040946000604051613e8c81610cbb565b5281518451908181036138cd57505060005b8251811015613f34578060051b60208082860101519187010151613ed0866106ff846000526000602052604060002090565b54818110613efe57866106ff6001959493613ef79303936000526000602052604060002090565b5501613e9e565b89516303dee4c560e01b81526001600160a01b038816600482015260248101919091526044810182905260648101839052608490fd5b50945060009392915060018151148414613f8b5760209081015191810151604080519384529183015233917fc3d58168c5ae7397731d063d5bbf3d657854427343f4c083240f7aacaa2d0f6291819081015b0390a4565b60405133927f4a39dc06d4c0dbc64b70af90fd698a233a518aa5d07e595d983b8c0526c8f7fb928291613f869183614da2565b90613fd382600052600e602052604060002090565b91613fe1601384015461148d565b613feb5750905090565b6011830180546000936001600160a01b0392909183168015614137576001600160a01b0316600090815260106020526040902061405191906140379088546001600160a01b0316610b33565b614042848254612fd4565b9055546001600160a01b031690565b90836000805160206150e083398151915284614073895460018060a01b031690565b614093826040519384931697169582919060206040840193600481520152565b0390a45b826140a6575b50505050600090565b600d546000805160206150e083398151915291906140e0906140d0906001600160a01b0316610b0d565b86546001600160a01b0316610b33565b6140eb858254612fd4565b9055600d5461410b906001600160a01b031695546001600160a01b031690565b61412b826040519384931697169582919060206040840193600381520152565b0390a43880808061409d565b505090925091614097565b600454600160401b8110156105535760018101806004558110156119775760207f8a35acfbc15ff81a39ae7d344fd709f28e8600b4aa8c65c6b64bfe7fe36bd19c91600460005260011b9280518460008051602061510083398151915201550151910155565b8054600160401b811015610553576141c591600182018155612bed565b9190916141dc576020816001925184550151910155565b634e487b7160e01b600052600060045260246000fd5b600f54600160401b811015610553576001810180600f5581101561197757600f6000526000805160206151208339815191520155565b6001600160a01b03811693929091908415612ae75761426460405192600184526020840152604083019160018352606084015260808301604052565b9281518451908181036138cd57505060005b82518110156142be578060019160051b6142b66142ae876106ff602080868b010151958c010151946000526000602052604060002090565b918254612fd4565b905501614276565b5092919360018251146000146143355760208281015184820151604080519283529282015260009133917fc3d58168c5ae7397731d063d5bbf3d657854427343f4c083240f7aacaa2d0f629190a45b805160010361432b579060208061030e959301519101519133615053565b61030e9333614e59565b60006040517f4a39dc06d4c0dbc64b70af90fd698a233a518aa5d07e595d983b8c0526c8f7fb339180614369888883614da2565b0390a461430d565b908060209392818452848401376000828201840152601f01601f1916010190565b35906001600160401b03821682036102fc57565b9035601e19823603018112156102fc5701602081359101916001600160401b0382116102fc578160051b360383136102fc57565b81835290916001600160fb1b0383116102fc5760209260051b809284830137010190565b9035601e19823603018112156102fc5701602081359101916001600160401b0382116102fc5781360383136102fc57565b92919061444491604085526040850191614371565b91602081840391015280359160fe19823603018312156102fc5761451a61450f836116409501604084526001600160401b0361447f82614392565b1660408501526144a461449460208301614392565b6001600160401b03166060860152565b60408101356080850152606081013560a0850152608081013560c085015260a081013560e08501526144fc6144f16144df60c08401846143a6565b610100808901526101408801916143da565b9160e08101906143a6565b858303603f1901610120870152906143da565b9260208101906143fe565b916020818503910152614371565b91908260409103126102fc5760208251920151611640816102eb565b916020611640938181520191614371565b9092916001600160401b0381116105535761457a81614574845461148d565b84613e04565b6000601f82116001146145ba5781906145ab9394956000926145af5750508160011b916000199060031b1c19161790565b9055565b0135905038806104a7565b601f198216946145cf84600052602060002090565b91805b87811061460a5750836001959697106145f0575b505050811b019055565b0135600019600384901b60f8161c191690553880806145e6565b909260206001819286860135815501940191016145d2565b9391909361463a85600052600e602052604060002090565b93601385019061464a825461148d565b614af1576001600160a01b03831660009081526011602052604090205460ff16156117925760408051634b243ea360e11b81526004966001600160a01b03969295908290889082906146a09088888e850161442f565b03921691815a93602094fa801561068057614ad2575b5060108701546146d0906105c8906001600160a01b031681565b8451636e40c63360e11b815293908585806146ee87878d8401614544565b0381845afa94851561068057600090600096614aa0575b508a03614a665790608084849361473296958b8a5198899485938493637570c58b60e11b85528401614544565b03915afa93841561068057600094614a3b575b5061476e614773949560118b019060018060a01b03166001600160601b0360a01b825416179055565b614555565b6012850155600091600685019283548061495a575b5060078601948554908161484f575b5050600095938693600a96936147ae86948b613fbe565b50898354918654906147c08285612fd4565b93846147d4575b5050505050505555015590565b6000805160206150e0833981519152926147ed91612fd4565b6148196142ae8c610b3361480b610b0d600d5460018060a01b031690565b91546001600160a01b031690565b9055600d548a5495516003815260208101959095526001600160a01b0395821686169591161692604090a43880898180806147c7565b906148a7929185826148706105c86105c8600e8e015460018060a01b031690565b600f8c0154600c8d0154908451988994859384936358e507db60e11b85528985016040919493926060820195825260208201520152565b03915afa93841561068057600094614939575b508184116148f8575093600a96936147ae6148e88560009b99956148e18d9a988b99612e42565b8955612fd4565b9450509396509381959750614797565b6106c1908651918291639ffe2da160e01b83528201606090602081526011602082015270756e636c61696d65644275726e4665657360781b60408201520190565b614951919450863d8811610c3b57610c2d8183610cd6565b905092386148ba565b809150836149776105c86105c8600e8b015460018060a01b031690565b600f890154600b8a01548351636254a34560e11b8152808b01928352602083019190915260408201959095528491908290819060600103915afa91821561068057600092614a1a575b508082116149da57816149d291612e42565b845538614788565b8351639ffe2da160e01b8152602081880181815260119181019190915270756e636c61696d65644d696e744665657360781b604082015281906060010390fd5b614a32919250843d8611610c3b57610c2d8183610cd6565b905090386149c0565b6147739450614a5b61476e9160803d608011610679576106658183610cd6565b505090509450614745565b8551639ffe2da160e01b81526020818a01818152600b918101919091526a18d85c9d1c9a5919d9525960aa1b604082015281906060010390fd5b9050614ac3919550863d8811614acb575b614abb8183610cd6565b810190614528565b949038614705565b503d614ab1565b614aea9060203d6020116107f0576107e88183610cd6565b50386146b6565b604051639ffe2da160e01b8152602060048201526011602482015270185b1c9958591e481d985b1a59185d1959607a1b6044820152606490fd5b91614b489061164094928452606060208501526060840190611ed6565b916040818403910152611ed6565b60045460008060045581614b68575050565b60016001600160ff1b03831683036129375760046000526000805160206151008339815191529260011b8301925b838110614ba35750505050565b808360029255838382015501614b96565b9491909181518451908181036138cd57505060005b8251811015614cb757600581901b83810160209081015191870101516001600160a01b03929186908a8516614c31575b6001948216614c0c575b50505001614bc9565b614c27916106ff6142ae926000526000602052604060002090565b9055388581614c03565b9192939050614c4e8a6106ff846000526000602052604060002090565b54838110614c805791879184600196959403614c788d6106ff856000526000602052604060002090565b559450614bf9565b6040516303dee4c560e01b81526001600160a01b038c16600482015260248101919091526044810184905260648101839052608490fd5b509491939290936001855114600014614d57576020858101518382015160408051928352928201526001600160a01b03838116929086169133917fc3d58168c5ae7397731d063d5bbf3d657854427343f4c083240f7aacaa2d0f6291a45b6001600160a01b038116614d2a575050505050565b8451600103614d46576020806137959601519201519233615088565b614d5294919233614f54565b613795565b6040516001600160a01b03828116919085169033907f4a39dc06d4c0dbc64b70af90fd698a233a518aa5d07e595d983b8c0526c8f7fb9080614d9a888c83614da2565b0390a4614d15565b9091614db961164093604084526040840190611ed6565b916020818403910152611ed6565b908160209103126102fc57516116408161037b565b92614e0b6116409593614e199360018060a01b031686526000602087015260a0604087015260a0860190611ed6565b908482036060860152611ed6565b916080818403910152610853565b93906116409593614e0b91614e199460018060a01b03809216885216602087015260a0604087015260a0860190611ed6565b9293919093843b614e6b575050505050565b602091614e8e604051948593849363bc197c8160e01b9889865260048601614ddc565b038160006001600160a01b0388165af160009181614f23575b50614ee65782614eb5612e62565b8051919082614edf57604051632bfa23e760e11b81526001600160a01b0383166004820152602490fd5b9050602001fd5b6001600160e01b03191603614f00575038808080806114f6565b604051632bfa23e760e11b81526001600160a01b03919091166004820152602490fd5b614f4691925060203d602011614f4d575b614f3e8183610cd6565b810190614dc7565b9038614ea7565b503d614f34565b939290949194853b614f69575b505050505050565b614f8c602093604051958694859463bc197c8160e01b998a875260048701614e27565b038160006001600160a01b0388165af160009181614fce575b50614fb35782614eb5612e62565b6001600160e01b03191603614f005750388080808080614f61565b614fe891925060203d602011614f4d57614f3e8183610cd6565b9038614fa5565b909260a0926116409594600180861b0316835260006020840152604083015260608201528160808201520190610853565b919261164095949160a094600180871b038092168552166020840152604083015260608201528160808201520190610853565b9293919093843b615065575050505050565b602091614e8e604051948593849363f23a6e6160e01b9889865260048601614fef565b939290949194853b61509c57505050505050565b614f8c602093604051958694859463f23a6e6160e01b998a87526004870161502056fe2e67857c5e095aa37c99fc8a2a3d065e50197554891c3cf1f318b1996b66469c4b984622ccd95d46d58ee4b4ec121acbc6f1d9de4a5997f2013e0daf02c101048a35acfbc15ff81a39ae7d344fd709f28e8600b4aa8c65c6b64bfe7fe36bd19b8d1108e10bcb7c27dddfc02ed9d693a074039d026cf4ea4240b40f7d581ac802a2646970667358221220eeb75396bb8350f84800828b3267e0360ba3b34cdfc6564f6dec2be012bc038064736f6c63430008180033","linkReferences":{}},"methodIdentifiers":{"accounts(address,address)":"ad74b775","addDapp(address)":"27b7ca5f","balanceOf(address,uint256)":"00fdd58e","balanceOfBatch(address[],uint256[])":"4e1273f4","bondingCurveSteps(uint256)":"fa1c4db6","buyCartridges(bytes32,uint256,uint256)":"3c973f06","cartridgeBondUtilsAddress()":"eba4c82f","cartridgeBondingCurveModelAddress()":"af5baf44","cartridgeBonds(bytes32)":"226f877e","cartridgeBondsCreated(uint256)":"305e1d73","cartridgeModelAddress()":"7baa9fe8","cartridgeOwnershipModelAddress()":"3b906e47","cartridgesCount()":"ea6c6811","changeCartridgeModel(bytes32,address)":"fd3bf34b","consumeCartridges(bytes32,uint256)":"12e6bacd","currencyTokenAddress()":"d3c3b389","dappAddresses(address)":"787ca438","exists(bytes32)":"38a699a4","feeConfig()":"1e5eb1d0","feeModelAddress()":"3ab03c8b","getCartridgeData(bytes32)":"056e9c55","getCurrentBuyPrice(bytes32,uint256)":"724969e7","getCurrentConsumePrice(bytes32,uint256)":"bbfef088","getCurrentSellPrice(bytes32,uint256)":"b16cae66","isApprovedForAll(address,address)":"e985e9c5","maxCartridgeSupply(bytes32)":"db907f67","maxSupply()":"d5abeb01","owner()":"8da5cb5b","renounceOwnership()":"715018a6","safeBatchTransferFrom(address,address,uint256[],uint256[],bytes)":"2eb2c2d6","safeTransferFrom(address,address,uint256,uint256,bytes)":"f242432a","sellCartridges(bytes32,uint256,uint256)":"1aba7deb","setApprovalForAll(address,bool)":"a22cb465","setCartridgeParams(bytes32)":"42e201f4","setCartridgeParamsCustom(bytes32,uint256,uint256[],uint256[],bool)":"19b53cf9","setURI(string)":"02fe5305","supportsInterface(bytes4)":"01ffc9a7","totalCartridges()":"aca6d572","transferOwnership(address)":"f2fde38b","updateBondingCurveParams(address,address,address,address,address,uint256,uint256,uint256[],uint256[])":"bdd86b21","updateProtocolWallet(address)":"e308a099","uri(uint256)":"0e89341c","validateCartridge(address,bytes32,bytes,((uint64,uint64,bytes32,bytes32,bytes32,bytes32,bytes32[],bytes32[]),bytes))":"61b1a4c4","validateCartridgeCustom(address,bytes32,bytes,((uint64,uint64,bytes32,bytes32,bytes32,bytes32,bytes32[],bytes32[]),bytes),uint256,uint256[],uint256[],bool)":"ca00695b","withdrawBalance(address,uint256)":"0cf20cc9"},"id":72}