{"abi":[{"type":"constructor","inputs":[{"name":"ownerAddress","type":"address","internalType":"address"},{"name":"newCartridgeBondUtilsAddress","type":"address","internalType":"address"},{"name":"maxSteps","type":"uint256","internalType":"uint256"}],"stateMutability":"nonpayable"},{"type":"function","name":"accounts","inputs":[{"name":"","type":"address","internalType":"address"},{"name":"","type":"address","internalType":"address"}],"outputs":[{"name":"","type":"uint256","internalType":"uint256"}],"stateMutability":"view"},{"type":"function","name":"balanceOf","inputs":[{"name":"account","type":"address","internalType":"address"},{"name":"id","type":"uint256","internalType":"uint256"}],"outputs":[{"name":"","type":"uint256","internalType":"uint256"}],"stateMutability":"view"},{"type":"function","name":"balanceOfBatch","inputs":[{"name":"accounts","type":"address[]","internalType":"address[]"},{"name":"ids","type":"uint256[]","internalType":"uint256[]"}],"outputs":[{"name":"","type":"uint256[]","internalType":"uint256[]"}],"stateMutability":"view"},{"type":"function","name":"bondingCurveSteps","inputs":[{"name":"","type":"uint256","internalType":"uint256"}],"outputs":[{"name":"rangeMax","type":"uint256","internalType":"uint256"},{"name":"coefficient","type":"uint256","internalType":"uint256"}],"stateMutability":"view"},{"type":"function","name":"buyCartridges","inputs":[{"name":"cartridgeId","type":"bytes32","internalType":"bytes32"},{"name":"cartridgesToMint","type":"uint256","internalType":"uint256"},{"name":"maxCurrencyPrice","type":"uint256","internalType":"uint256"}],"outputs":[{"name":"currencyCost","type":"uint256","internalType":"uint256"}],"stateMutability":"payable"},{"type":"function","name":"cartridgeBondUtilsAddress","inputs":[],"outputs":[{"name":"","type":"address","internalType":"address"}],"stateMutability":"view"},{"type":"function","name":"cartridgeBondingCurveModelAddress","inputs":[],"outputs":[{"name":"","type":"address","internalType":"address"}],"stateMutability":"view"},{"type":"function","name":"cartridgeBonds","inputs":[{"name":"","type":"bytes32","internalType":"bytes32"}],"outputs":[{"name":"bond","type":"tuple","internalType":"struct BondUtils.BondData","components":[{"name":"currencyToken","type":"address","internalType":"address"},{"name":"steps","type":"tuple[]","internalType":"struct IBondingCurveModel.BondingCurveStep[]","components":[{"name":"rangeMax","type":"uint256","internalType":"uint256"},{"name":"coefficient","type":"uint256","internalType":"uint256"}]},{"name":"currencyBalance","type":"uint256","internalType":"uint256"},{"name":"currentSupply","type":"uint256","internalType":"uint256"},{"name":"currentPrice","type":"uint256","internalType":"uint256"},{"name":"consumePrice","type":"uint256","internalType":"uint256"},{"name":"unclaimed","type":"tuple","internalType":"struct BondUtils.UnclaimedFees","components":[{"name":"mint","type":"uint256","internalType":"uint256"},{"name":"burn","type":"uint256","internalType":"uint256"},{"name":"consume","type":"uint256","internalType":"uint256"},{"name":"royalties","type":"uint256","internalType":"uint256"},{"name":"undistributedRoyalties","type":"uint256","internalType":"uint256"}]},{"name":"count","type":"tuple","internalType":"struct BondUtils.BondCount","components":[{"name":"minted","type":"uint256","internalType":"uint256"},{"name":"burned","type":"uint256","internalType":"uint256"},{"name":"consumed","type":"uint256","internalType":"uint256"}]}]},{"name":"feeModel","type":"address","internalType":"address"},{"name":"feeConfig","type":"uint256","internalType":"uint256"},{"name":"cartridgeModel","type":"address","internalType":"address"},{"name":"cartridgeOwner","type":"address","internalType":"address"},{"name":"lastUpdate","type":"uint256","internalType":"uint256"},{"name":"eventData","type":"bytes","internalType":"bytes"}],"stateMutability":"view"},{"type":"function","name":"cartridgeBondsCreated","inputs":[{"name":"","type":"uint256","internalType":"uint256"}],"outputs":[{"name":"","type":"bytes32","internalType":"bytes32"}],"stateMutability":"view"},{"type":"function","name":"cartridgeModelAddress","inputs":[],"outputs":[{"name":"","type":"address","internalType":"address"}],"stateMutability":"view"},{"type":"function","name":"cartridgeOwnershipModelAddress","inputs":[],"outputs":[{"name":"","type":"address","internalType":"address"}],"stateMutability":"view"},{"type":"function","name":"cartridgesCount","inputs":[],"outputs":[{"name":"","type":"uint256","internalType":"uint256"}],"stateMutability":"view"},{"type":"function","name":"changeCartridgeModel","inputs":[{"name":"cartridgeId","type":"bytes32","internalType":"bytes32"},{"name":"newCartridgeModel","type":"address","internalType":"address"}],"outputs":[],"stateMutability":"nonpayable"},{"type":"function","name":"consumeCartridges","inputs":[{"name":"cartridgeId","type":"bytes32","internalType":"bytes32"},{"name":"cartridgesToConsume","type":"uint256","internalType":"uint256"}],"outputs":[{"name":"","type":"uint256","internalType":"uint256"}],"stateMutability":"nonpayable"},{"type":"function","name":"currencyTokenAddress","inputs":[],"outputs":[{"name":"","type":"address","internalType":"address"}],"stateMutability":"view"},{"type":"function","name":"dappAddresses","inputs":[{"name":"","type":"address","internalType":"address"}],"outputs":[{"name":"","type":"bool","internalType":"bool"}],"stateMutability":"view"},{"type":"function","name":"exists","inputs":[{"name":"cartridgeId","type":"bytes32","internalType":"bytes32"}],"outputs":[{"name":"","type":"bool","internalType":"bool"}],"stateMutability":"view"},{"type":"function","name":"feeConfig","inputs":[],"outputs":[{"name":"","type":"uint256","internalType":"uint256"}],"stateMutability":"view"},{"type":"function","name":"feeModelAddress","inputs":[],"outputs":[{"name":"","type":"address","internalType":"address"}],"stateMutability":"view"},{"type":"function","name":"getCartridgeData","inputs":[{"name":"cartridgeId","type":"bytes32","internalType":"bytes32"}],"outputs":[{"name":"","type":"bytes32","internalType":"bytes32"},{"name":"","type":"uint256","internalType":"uint256"},{"name":"","type":"bytes32","internalType":"bytes32"},{"name":"","type":"int256","internalType":"int256"}],"stateMutability":"view"},{"type":"function","name":"getCurrentBuyPrice","inputs":[{"name":"cartridgeId","type":"bytes32","internalType":"bytes32"},{"name":"tokensToMint","type":"uint256","internalType":"uint256"}],"outputs":[{"name":"","type":"uint256","internalType":"uint256"},{"name":"","type":"uint256","internalType":"uint256"},{"name":"","type":"uint256","internalType":"uint256"}],"stateMutability":"view"},{"type":"function","name":"getCurrentConsumePrice","inputs":[{"name":"cartridgeId","type":"bytes32","internalType":"bytes32"},{"name":"tokensToConsume","type":"uint256","internalType":"uint256"}],"outputs":[{"name":"","type":"uint256","internalType":"uint256"},{"name":"","type":"uint256","internalType":"uint256"}],"stateMutability":"view"},{"type":"function","name":"getCurrentSellPrice","inputs":[{"name":"cartridgeId","type":"bytes32","internalType":"bytes32"},{"name":"tokensToBurn","type":"uint256","internalType":"uint256"}],"outputs":[{"name":"","type":"uint256","internalType":"uint256"},{"name":"","type":"uint256","internalType":"uint256"},{"name":"","type":"uint256","internalType":"uint256"}],"stateMutability":"view"},{"type":"function","name":"isApprovedForAll","inputs":[{"name":"account","type":"address","internalType":"address"},{"name":"operator","type":"address","internalType":"address"}],"outputs":[{"name":"","type":"bool","internalType":"bool"}],"stateMutability":"view"},{"type":"function","name":"maxCartridgeSupply","inputs":[{"name":"cartridgeId","type":"bytes32","internalType":"bytes32"}],"outputs":[{"name":"","type":"uint256","internalType":"uint256"}],"stateMutability":"view"},{"type":"function","name":"maxSupply","inputs":[],"outputs":[{"name":"","type":"uint256","internalType":"uint256"}],"stateMutability":"view"},{"type":"function","name":"owner","inputs":[],"outputs":[{"name":"","type":"address","internalType":"address"}],"stateMutability":"view"},{"type":"function","name":"renounceOwnership","inputs":[],"outputs":[],"stateMutability":"nonpayable"},{"type":"function","name":"safeBatchTransferFrom","inputs":[{"name":"from","type":"address","internalType":"address"},{"name":"to","type":"address","internalType":"address"},{"name":"ids","type":"uint256[]","internalType":"uint256[]"},{"name":"values","type":"uint256[]","internalType":"uint256[]"},{"name":"data","type":"bytes","internalType":"bytes"}],"outputs":[],"stateMutability":"nonpayable"},{"type":"function","name":"safeTransferFrom","inputs":[{"name":"from","type":"address","internalType":"address"},{"name":"to","type":"address","internalType":"address"},{"name":"id","type":"uint256","internalType":"uint256"},{"name":"value","type":"uint256","internalType":"uint256"},{"name":"data","type":"bytes","internalType":"bytes"}],"outputs":[],"stateMutability":"nonpayable"},{"type":"function","name":"sellCartridges","inputs":[{"name":"cartridgeId","type":"bytes32","internalType":"bytes32"},{"name":"cartridgesToBurn","type":"uint256","internalType":"uint256"},{"name":"minCurrencyRefund","type":"uint256","internalType":"uint256"}],"outputs":[{"name":"","type":"uint256","internalType":"uint256"}],"stateMutability":"nonpayable"},{"type":"function","name":"setApprovalForAll","inputs":[{"name":"operator","type":"address","internalType":"address"},{"name":"approved","type":"bool","internalType":"bool"}],"outputs":[],"stateMutability":"nonpayable"},{"type":"function","name":"setCartridgeParams","inputs":[{"name":"cartridgeId","type":"bytes32","internalType":"bytes32"}],"outputs":[],"stateMutability":"nonpayable"},{"type":"function","name":"setCartridgeParamsCustom","inputs":[{"name":"cartridgeId","type":"bytes32","internalType":"bytes32"},{"name":"bondFeeConfig","type":"uint256","internalType":"uint256"},{"name":"stepRangesMax","type":"uint256[]","internalType":"uint256[]"},{"name":"stepCoefficients","type":"uint256[]","internalType":"uint256[]"},{"name":"creatorAllocation","type":"bool","internalType":"bool"},{"name":"creator","type":"address","internalType":"address"},{"name":"token","type":"address","internalType":"address"}],"outputs":[],"stateMutability":"nonpayable"},{"type":"function","name":"setDapp","inputs":[{"name":"dapp","type":"address","internalType":"address"},{"name":"active","type":"bool","internalType":"bool"}],"outputs":[],"stateMutability":"nonpayable"},{"type":"function","name":"setURI","inputs":[{"name":"newUri","type":"string","internalType":"string"}],"outputs":[],"stateMutability":"nonpayable"},{"type":"function","name":"supportsInterface","inputs":[{"name":"interfaceId","type":"bytes4","internalType":"bytes4"}],"outputs":[{"name":"","type":"bool","internalType":"bool"}],"stateMutability":"view"},{"type":"function","name":"totalCartridges","inputs":[],"outputs":[{"name":"","type":"uint256","internalType":"uint256"}],"stateMutability":"view"},{"type":"function","name":"transferOwnership","inputs":[{"name":"newOwner","type":"address","internalType":"address"}],"outputs":[],"stateMutability":"nonpayable"},{"type":"function","name":"updateBondingCurveParams","inputs":[{"name":"newCurrencyToken","type":"address","internalType":"address"},{"name":"newFeeModel","type":"address","internalType":"address"},{"name":"newCartridgeModel","type":"address","internalType":"address"},{"name":"newCartridgeOwnershipModelAddress","type":"address","internalType":"address"},{"name":"newCartridgeBondingCurveModelAddress","type":"address","internalType":"address"},{"name":"newMaxSupply","type":"uint256","internalType":"uint256"},{"name":"newFeeConfig","type":"uint256","internalType":"uint256"},{"name":"stepRangesMax","type":"uint256[]","internalType":"uint256[]"},{"name":"stepCoefficients","type":"uint256[]","internalType":"uint256[]"}],"outputs":[],"stateMutability":"nonpayable"},{"type":"function","name":"updateProtocolWallet","inputs":[{"name":"newProtocolWallet","type":"address","internalType":"address"}],"outputs":[],"stateMutability":"nonpayable"},{"type":"function","name":"uri","inputs":[{"name":"tokenId","type":"uint256","internalType":"uint256"}],"outputs":[{"name":"","type":"string","internalType":"string"}],"stateMutability":"view"},{"type":"function","name":"uri","inputs":[{"name":"tokenId","type":"bytes32","internalType":"bytes32"}],"outputs":[{"name":"","type":"string","internalType":"string"}],"stateMutability":"view"},{"type":"function","name":"validateCartridge","inputs":[{"name":"dapp","type":"address","internalType":"address"},{"name":"cartridgeId","type":"bytes32","internalType":"bytes32"},{"name":"_payload","type":"bytes","internalType":"bytes"},{"name":"_v","type":"tuple","internalType":"struct Proof","components":[{"name":"validity","type":"tuple","internalType":"struct OutputValidityProof","components":[{"name":"inputIndexWithinEpoch","type":"uint64","internalType":"uint64"},{"name":"outputIndexWithinInput","type":"uint64","internalType":"uint64"},{"name":"outputHashesRootHash","type":"bytes32","internalType":"bytes32"},{"name":"vouchersEpochRootHash","type":"bytes32","internalType":"bytes32"},{"name":"noticesEpochRootHash","type":"bytes32","internalType":"bytes32"},{"name":"machineStateHash","type":"bytes32","internalType":"bytes32"},{"name":"outputHashInOutputHashesSiblings","type":"bytes32[]","internalType":"bytes32[]"},{"name":"outputHashesInEpochSiblings","type":"bytes32[]","internalType":"bytes32[]"}]},{"name":"context","type":"bytes","internalType":"bytes"}]}],"outputs":[{"name":"","type":"bytes32","internalType":"bytes32"}],"stateMutability":"nonpayable"},{"type":"function","name":"validateCartridgeCustom","inputs":[{"name":"dapp","type":"address","internalType":"address"},{"name":"cartridgeId","type":"bytes32","internalType":"bytes32"},{"name":"_payload","type":"bytes","internalType":"bytes"},{"name":"_v","type":"tuple","internalType":"struct Proof","components":[{"name":"validity","type":"tuple","internalType":"struct OutputValidityProof","components":[{"name":"inputIndexWithinEpoch","type":"uint64","internalType":"uint64"},{"name":"outputIndexWithinInput","type":"uint64","internalType":"uint64"},{"name":"outputHashesRootHash","type":"bytes32","internalType":"bytes32"},{"name":"vouchersEpochRootHash","type":"bytes32","internalType":"bytes32"},{"name":"noticesEpochRootHash","type":"bytes32","internalType":"bytes32"},{"name":"machineStateHash","type":"bytes32","internalType":"bytes32"},{"name":"outputHashInOutputHashesSiblings","type":"bytes32[]","internalType":"bytes32[]"},{"name":"outputHashesInEpochSiblings","type":"bytes32[]","internalType":"bytes32[]"}]},{"name":"context","type":"bytes","internalType":"bytes"}]},{"name":"bondFeeConfig","type":"uint256","internalType":"uint256"},{"name":"stepRangesMax","type":"uint256[]","internalType":"uint256[]"},{"name":"stepCoefficients","type":"uint256[]","internalType":"uint256[]"},{"name":"creatorAllocation","type":"bool","internalType":"bool"},{"name":"creator","type":"address","internalType":"address"},{"name":"token","type":"address","internalType":"address"}],"outputs":[{"name":"","type":"bytes32","internalType":"bytes32"}],"stateMutability":"nonpayable"},{"type":"function","name":"withdrawBalance","inputs":[{"name":"token","type":"address","internalType":"address"},{"name":"amount","type":"uint256","internalType":"uint256"}],"outputs":[],"stateMutability":"nonpayable"},{"type":"event","name":"ApprovalForAll","inputs":[{"name":"account","type":"address","indexed":true,"internalType":"address"},{"name":"operator","type":"address","indexed":true,"internalType":"address"},{"name":"approved","type":"bool","indexed":false,"internalType":"bool"}],"anonymous":false},{"type":"event","name":"Bond","inputs":[{"name":"id","type":"bytes32","indexed":true,"internalType":"bytes32"},{"name":"token","type":"address","indexed":true,"internalType":"address"},{"name":"currentPrice","type":"uint256","indexed":false,"internalType":"uint256"},{"name":"currentSupply","type":"uint256","indexed":false,"internalType":"uint256"},{"name":"currentBalance","type":"uint256","indexed":false,"internalType":"uint256"}],"anonymous":false},{"type":"event","name":"Buy","inputs":[{"name":"id","type":"bytes32","indexed":true,"internalType":"bytes32"},{"name":"user","type":"address","indexed":true,"internalType":"address"},{"name":"amountMinted","type":"uint256","indexed":false,"internalType":"uint256"},{"name":"pricePayed","type":"uint256","indexed":false,"internalType":"uint256"}],"anonymous":false},{"type":"event","name":"Consume","inputs":[{"name":"id","type":"bytes32","indexed":true,"internalType":"bytes32"},{"name":"user","type":"address","indexed":true,"internalType":"address"},{"name":"amountConsumed","type":"uint256","indexed":false,"internalType":"uint256"},{"name":"currencyDonated","type":"uint256","indexed":false,"internalType":"uint256"}],"anonymous":false},{"type":"event","name":"OwnershipTransferred","inputs":[{"name":"previousOwner","type":"address","indexed":true,"internalType":"address"},{"name":"newOwner","type":"address","indexed":true,"internalType":"address"}],"anonymous":false},{"type":"event","name":"Reward","inputs":[{"name":"id","type":"bytes32","indexed":true,"internalType":"bytes32"},{"name":"user","type":"address","indexed":true,"internalType":"address"},{"name":"token","type":"address","indexed":true,"internalType":"address"},{"name":"rewardType","type":"uint8","indexed":false,"internalType":"enum BondUtils.RewardType"},{"name":"amount","type":"uint256","indexed":false,"internalType":"uint256"}],"anonymous":false},{"type":"event","name":"Sell","inputs":[{"name":"id","type":"bytes32","indexed":true,"internalType":"bytes32"},{"name":"user","type":"address","indexed":true,"internalType":"address"},{"name":"amountBurned","type":"uint256","indexed":false,"internalType":"uint256"},{"name":"refundReceived","type":"uint256","indexed":false,"internalType":"uint256"}],"anonymous":false},{"type":"event","name":"TransferBatch","inputs":[{"name":"operator","type":"address","indexed":true,"internalType":"address"},{"name":"from","type":"address","indexed":true,"internalType":"address"},{"name":"to","type":"address","indexed":true,"internalType":"address"},{"name":"ids","type":"uint256[]","indexed":false,"internalType":"uint256[]"},{"name":"values","type":"uint256[]","indexed":false,"internalType":"uint256[]"}],"anonymous":false},{"type":"event","name":"TransferSingle","inputs":[{"name":"operator","type":"address","indexed":true,"internalType":"address"},{"name":"from","type":"address","indexed":true,"internalType":"address"},{"name":"to","type":"address","indexed":true,"internalType":"address"},{"name":"id","type":"uint256","indexed":false,"internalType":"uint256"},{"name":"value","type":"uint256","indexed":false,"internalType":"uint256"}],"anonymous":false},{"type":"event","name":"URI","inputs":[{"name":"value","type":"string","indexed":false,"internalType":"string"},{"name":"id","type":"uint256","indexed":true,"internalType":"uint256"}],"anonymous":false},{"type":"error","name":"Bond__InvalidAmount","inputs":[]},{"type":"error","name":"Cartridge__ChangeError","inputs":[]},{"type":"error","name":"Cartridge__InsufficientFunds","inputs":[]},{"type":"error","name":"Cartridge__InvalidCartridge","inputs":[{"name":"reason","type":"string","internalType":"string"}]},{"type":"error","name":"Cartridge__InvalidDapp","inputs":[]},{"type":"error","name":"Cartridge__InvalidOwner","inputs":[]},{"type":"error","name":"Cartridge__InvalidParams","inputs":[]},{"type":"error","name":"Cartridge__InvalidTransfer","inputs":[{"name":"reason","type":"string","internalType":"string"}]},{"type":"error","name":"Cartridge__InvalidUser","inputs":[]},{"type":"error","name":"Cartridge__NotFound","inputs":[]},{"type":"error","name":"Cartridge__SlippageLimitExceeded","inputs":[]},{"type":"error","name":"ERC1155InsufficientBalance","inputs":[{"name":"sender","type":"address","internalType":"address"},{"name":"balance","type":"uint256","internalType":"uint256"},{"name":"needed","type":"uint256","internalType":"uint256"},{"name":"tokenId","type":"uint256","internalType":"uint256"}]},{"type":"error","name":"ERC1155InvalidApprover","inputs":[{"name":"approver","type":"address","internalType":"address"}]},{"type":"error","name":"ERC1155InvalidArrayLength","inputs":[{"name":"idsLength","type":"uint256","internalType":"uint256"},{"name":"valuesLength","type":"uint256","internalType":"uint256"}]},{"type":"error","name":"ERC1155InvalidOperator","inputs":[{"name":"operator","type":"address","internalType":"address"}]},{"type":"error","name":"ERC1155InvalidReceiver","inputs":[{"name":"receiver","type":"address","internalType":"address"}]},{"type":"error","name":"ERC1155InvalidSender","inputs":[{"name":"sender","type":"address","internalType":"address"}]},{"type":"error","name":"ERC1155MissingApprovalForAll","inputs":[{"name":"operator","type":"address","internalType":"address"},{"name":"owner","type":"address","internalType":"address"}]},{"type":"error","name":"OwnableInvalidOwner","inputs":[{"name":"owner","type":"address","internalType":"address"}]},{"type":"error","name":"OwnableUnauthorizedAccount","inputs":[{"name":"account","type":"address","internalType":"address"}]}],"bytecode":{"object":"0x60a034620001cd57601f6200563438819003918201601f19168301926001600160401b0392909183851183861017620001b7578160609284926040978852833981010312620001cd576200005381620001d2565b90836200006360208301620001d2565b9101518451936020850190811185821017620001b757855260008094526200008d600254620001e7565b601f811162000176575b5060028490556001600160a01b0392831680156200015e57600380546001600160a01b03198082168417909255909590829086167f8be0079c531659141344cd1fd0a4f28419497f9722a3daafe3b4186f6b6457e08380a3620000fc600454620001e7565b601f81116200013a575b5050600060045584600e541617600e5560805216906009541617600955516153f690816200023e82396080518161365f0152f35b601f602083600462000156955220910160051c81019062000224565b388062000106565b8551631e4fbdf760e01b815260048101869052602490fd5b60028552620001b090601f0160051c7f405787fa12a823e0f2b7631cc41b3ba8828b3321ca811111fa75cd3aa3bb5ace9081019062000224565b3862000097565b634e487b7160e01b600052604160045260246000fd5b600080fd5b51906001600160a01b0382168203620001cd57565b90600182811c9216801562000219575b60208310146200020357565b634e487b7160e01b600052602260045260246000fd5b91607f1691620001f7565b81811062000230575050565b600081556001016200022456fe6080604052600436101561001257600080fd5b60003560e01c8062fdd58e146102f157806301ffc9a7146102ec57806302fe5305146102e7578063056e9c55146102e25780630cf20cc9146102dd5780630e89341c146102745780630fa8afea146102d857806312e6bacd146102d35780631aba7deb146102ce5780631e5eb1d0146102c9578063226f877e146102c45780632eb2c2d6146102bf578063305e1d73146102ba57806338a699a4146102b55780633ab03c8b146102b05780633b906e47146102ab5780633c973f06146102a657806342e201f4146102a15780634e1273f41461029c57806361b1a4c414610297578063715018a614610292578063724969e71461028d578063787ca438146102885780637baa9fe8146102835780638d3b52351461027e5780638da5cb5b146102795780639ed19ddb14610274578063a22cb4651461026f578063aca6d5721461026a578063ad74b77514610265578063af5baf4414610260578063b16cae661461025b578063bbfef08814610256578063bdd86b2114610251578063d3c3b3891461024c578063d5abeb0114610247578063db907f6714610242578063e308a0991461023d578063e985e9c514610238578063ea6c681114610233578063eba4c82f1461022e578063f242432a14610229578063f2fde38b14610224578063fa1c4db61461021f578063fac85f7a1461021a5763fd3bf34b1461021557600080fd5b612d15565b612c2e565b612bb5565b612af7565b6129d2565b6129a9565b61298b565b612941565b6128e8565b61289a565b61287c565b612853565b6127be565b6126ed565b6125a1565b612578565b61253c565b61246f565b6123ca565b6108e5565b6123a1565b612333565b6122e5565b6122a3565b612104565b6120a6565b611fc2565b611f06565b611e21565b611a20565b6119f7565b6119ce565b61199d565b61195e565b6117f1565b611704565b61135b565b610f20565b610c05565b610b42565b6106ec565b61057f565b61044f565b6103b4565b610351565b6001600160a01b0381160361030757565b600080fd5b60043590610319826102f6565b565b6101043590610319826102f6565b6101243590610319826102f6565b60643590610319826102f6565b60843590610319826102f6565b34610307576040366003190112610307576020610399600435610373816102f6565b6024356000526000835260406000209060018060a01b0316600052602052604060002090565b54604051908152f35b6001600160e01b031981160361030757565b346103075760203660031901126103075760206004356103d3816103a2565b63ffffffff60e01b16636cdb3d1360e11b8114908115610411575b8115610400575b506040519015158152f35b6301ffc9a760e01b149050386103f5565b6303a24d0760e21b811491506103ee565b9181601f84011215610307578235916001600160401b038311610307576020838186019501011161030757565b3461030757602080600319360112610307576001600160401b0360043581811161030757610484610493913690600401610422565b61048c613a35565b369161179f565b91825191821161057a576104b1826104ac6002546114df565b613a78565b602090601f83116001146104f3575081906104e3936000926104e8575b50508160011b916000199060031b1c19161790565b600255005b0151905038806104ce565b90601f1983169361052660026000527f405787fa12a823e0f2b7631cc41b3ba8828b3321ca811111fa75cd3aa3bb5ace90565b926000905b8682106105625750508360019510610549575b505050811b01600255005b015160001960f88460031b161c1916905538808061053e565b8060018596829496860151815501950193019061052b565b610a07565b34610307576020366003190112610307576004356105b260136105ac83600052600f602052604060002090565b01612e76565b156106ac57608081601361060c6105fb6105ef6105ef60106105e161062999600052600f602052604060002090565b01546001600160a01b031690565b6001600160a01b031690565b92600052600f602052604060002090565b01906040518080958194637570c58b60e11b835260048301612ea2565b03915afa80156106a757600080916000809161066c575b9061066891604051948594859094939260609260808301968352602083015260408201520152565b0390f35b505050506106946106689160803d6080116106a0575b61068c8183610a66565b810190612e80565b91935083929190610640565b503d610682565b612eb3565b604051639ffe2da160e01b81526020600482015260136024820152726361727472696467654f75747075744461746160681b6044820152606490fd5b0390fd5b346103075760408060031936011261030757600490813561070c816102f6565b336000908152601160205260409020602435919082906107409083905b9060018060a01b0316600052602052604060002090565b541061088e57336000908152601160205260409020610760908290610729565b61076b838254612ed5565b90556001600160a01b031690811561087357825163095ea7b360e01b815230858201908152602081810184905293919084908290819060400103816000865af19081156106a757600091610856575b50156108465783516323b872dd60e01b815230868201908152336020820152604081019390935291839183918290600090829060600103925af19182156106a757600092610819575b50501561080c57005b516303e717e760e51b8152fd5b6108389250803d1061083f575b6108308183610a66565b810190612f25565b3880610803565b503d610826565b505050516303e717e760e51b8152fd5b61086d9150843d861161083f576108308183610a66565b386107ba565b6000808093508092335af1610886612ef5565b501561080c57005b5050516368d134dd60e11b8152fd5b60005b8381106108b05750506000910152565b81810151838201526020016108a0565b906020916108d98151809281855285808601910161089d565b601f01601f1916010190565b34610307576020806003193601126103075760018060a01b03600954166109416040516004358482015283815261091b81610a1d565b604051809363316fb1bf60e21b82528560048301528180600095869560248301906108c0565b03915afa9081156106a7578091610972575b8361095d83613434565b906106686040519282849384528301906108c0565b90503d8082843e6109838184610a66565b82019183818403126109f1578051906001600160401b0382116109f5570182601f820112156109f1578051916109b883611784565b936109c66040519586610a66565b8385528584840101116109ee575082916109e891858061095d9601910161089d565b38610953565b80fd5b5080fd5b8280fd5b908160409103126103075790565b634e487b7160e01b600052604160045260246000fd5b604081019081106001600160401b0382111761057a57604052565b6001600160401b03811161057a57604052565b602081019081106001600160401b0382111761057a57604052565b90601f801991011681019081106001600160401b0382111761057a57604052565b6040519061010082018281106001600160401b0382111761057a57604052565b6040519061031982610a1d565b6001600160401b03811161057a5760051b60200190565b9080601f83011215610307576020908235610ae581610ab4565b93610af36040519586610a66565b81855260208086019260051b82010192831161030757602001905b828210610b1c575050505090565b81358152908301908301610b0e565b8015150361030757565b60e4359061031982610b2b565b346103075761014036600319011261030757610b5c61030c565b6001600160401b0360443581811161030757610b7c903690600401610422565b60643583811161030757610b949036906004016109f9565b60a43584811161030757610bac903690600401610acb565b9460c4359485116103075761066895610bcc610bf5963690600401610acb565b91610bd5610b35565b93610bde61031b565b95610be7610329565b976084359360243590612f3a565b6040519081529081906020820190565b346103075760408060031936011261030757600490813590602435916000818152600f6020526001838220015415610ef657610c8593610c4f83600052600f602052604060002090565b908482610c696105ef6105ef60095460018060a01b031690565b82516328dac05d60e21b81529889928391829187838f01613020565b03915afa9283156106a75780968194610ed1575b50610ce58688610cb86105ef6105ef600e89015460018060a01b031690565b600f8701548351631fa52aab60e11b8152808e019182526020820193909352919384928391829160400190565b03915afa9081156106a7578291610ea2575b5087610d0382846130ed565b03610e925761066898600080516020615361833981519152948489899895610d76610e8196610d378f9a610e269e336142d5565b6003860198610d47868b54612ed5565b8a55610d58600288019b8c54612ed5565b8b55600d8701610d698782546130ed565b905560058701558b614455565b610d85600886019182546130ed565b9055600e54610dd890610db6906001600160a01b03165b6001600160a01b0316600090815260116020526040902090565b85546001600160a01b03165b60018060a01b0316600052602052604060002090565b610de38282546130ed565b9055600e54845492516000815260208101929092526001600160a01b039283169b8c93909116918b91600080516020615381833981519152919081906040820190565b0390a48951908152602081018b9052339088907fff8a4589f2e064f9b82f2aec48ea80dbf6a8f623d3bd76d954da82ec4ea0079f90604090a30154915492548751938493846040919493926060820195825260208201520152565b0390a3519081529081906020820190565b86516350b30ba960e01b81528990fd5b9050610ec49150863d8811610eca575b610ebc8183610a66565b810190612fc0565b38610cf7565b503d610eb2565b909350610eec919650853d8711610eca57610ebc8183610a66565b9590959238610c99565b825163f87e48db60e01b81528590fd5b606090600319011261030757600435906024359060443590565b3461030757610f2e36610f06565b9091600092818452600f602052604091600183862001541561133f57610f5e81600052600f602052604060002090565b600954610f75906105ef906001600160a01b031681565b848051809263fdfb946360e01b82528180610f94878a60048401613020565b03915afa9384156106a75787610ffd9892819661131a575b50600e84015487908490610fca906105ef906001600160a01b031681565b84600f88015484519d8e94859384936358e507db60e11b8552600485016040919493926060820195825260208201520152565b03915afa80156106a757819982916112f7575b508361101c828c6130ed565b116112e65761103461102e828c6130ed565b85612ed5565b9889106112d5576110899061104a8488336142d5565b61105960028701958654612ed5565b8555600386019761106b858a54612ed5565b8955600c870161107c8682546130ed565b9055600487015586614455565b611098600786019182546130ed565b9055600e546110b390610db6906001600160a01b0316610d9c565b6110be8a82546130ed565b9055600e548454885160008152602081019b909b526001600160a01b039a908b16918291908c1690889060008051602061538183398151915290604090a4156112a25780602061114561111d6105ef6105ef895460018060a01b031690565b8a5163095ea7b360e01b8152306004820152602481018d905293849283919082906044820190565b03925af19081156106a7578291611283575b5015611272578060206111a76111796105ef6105ef895460018060a01b031690565b8a516323b872dd60e01b8152306004820152336024820152604481018d905293849283919082906064820190565b03925af19182156106a75791611253575b50156112425791610e816106689892600080516020615361833981519152945b8851908152602081018a9052339087907f47d38b8b50e4b792e507faad951cda2457545e704f667a3e32f22541945ebbf690604090a382546004906001600160a01b0316930154965490549088519485941697846040919493926060820195825260208201520152565b85516303e717e760e51b8152600490fd5b61126c915060203d60201161083f576108308183610a66565b386111b8565b86516303e717e760e51b8152600490fd5b61129c915060203d60201161083f576108308183610a66565b38611157565b8080808a335af16112b1612ef5565b50156112425791610e816106689892600080516020615361833981519152946111d8565b87516303158fa960e31b8152600490fd5b87516350b30ba960e01b8152600490fd5b9050611311919950873d8911610eca57610ebc8183610a66565b98909838611010565b909550611335919250863d8811610eca57610ebc8183610a66565b9190919438610fac565b825163f87e48db60e01b8152600490fd5b600091031261030757565b34610307576000366003190112610307576020600d54604051908152f35b90815461138581610ab4565b926040936113966040519182610a66565b82815280946020809201926000526020600020906000935b8585106113bd57505050505050565b60028460019284516113ce81610a1d565b8654815284870154838201528152019301940193916113ae565b9060405160a081018181106001600160401b0382111761057a57604052608060048294805484526001810154602085015260028101546040850152600381015460608501520154910152565b90604051606081018181106001600160401b0382111761057a5760405260406002829480548452600181015460208501520154910152565b906114d8600b61147a610a87565b84546001600160a01b031681529361149460018201611379565b6020860152600281015460408601526003810154606086015260048101546080860152600581015460a08601526114cd600682016113e8565b60c086015201611434565b60e0830152565b90600182811c9216801561150f575b60208310146114f957565b634e487b7160e01b600052602260045260246000fd5b91607f16916114ee565b805460009392611528826114df565b91828252602093600191600181169081600014611590575060011461154f575b5050505050565b90939495506000929192528360002092846000945b83861061157c57505050500101903880808080611548565b805485870183015294019385908201611564565b60ff19168685015250505090151560051b010191503880808080611548565b906103196115c39260405193848092611519565b0383610a66565b80516001600160a01b031682526020808201516101c082850181905281519085018190526101e085019493929182019160005b82811061169557505050509061016060e08360406116929501516040850152606081015160608501526080810151608085015260a081015160a085015261167460c082015160c086019060808091805184526020810151602085015260408101516040850152606081015160608501520151910152565b01519101906040809180518452602081015160208501520151910152565b90565b83518051885282015187830152604090960195928101926001016115fd565b939592916116cf61169298969260e0875260e08701906115ca565b9660018060a01b0393848093166020880152604087015216606085015216608083015260a082015260c08184039101526108c0565b3461030757602036600319011261030757600435600052600f602052604060002061172e8161146c565b610668601360018060a01b039384600e8201541694600f820154908060108401541690601184015416916117786012850154946117716040518098819301611519565b0386610a66565b604051978897886116b4565b6001600160401b03811161057a57601f01601f191660200190565b9291926117ab82611784565b916117b96040519384610a66565b829481845281830111610307578281602093846000960137010152565b9080601f83011215610307578160206116929335910161179f565b346103075760a0366003190112610307576004803561180f816102f6565b60243561181b816102f6565b6001600160401b03906044358281116103075761183b9036908601610acb565b90606435838111610307576118539036908701610acb565b926084359081116103075761186b90369087016117d6565b936001600160a01b038082169033821415806118fa575b6118cd578316156118b5571561189e5761189c9550614ceb565b005b604051626a0d4560e21b8152600081880152602490fd5b604051632bfa23e760e11b8152600081890152602490fd5b6040805163711bec9160e11b815233818b019081526001600160a01b038616602082015290918291010390fd5b50600082815260016020908152604080832033845290915290205460ff1615611882565b634e487b7160e01b600052603260045260246000fd5b6010548110156119595760106000526000805160206153a18339815191520190600090565b61191e565b34610307576020366003190112610307576004356010548110156103075760209060106000526000805160206153a18339815191520154604051908152f35b3461030757602036600319011261030757600435600052600f60205260206001604060002001541515604051908152f35b34610307576000366003190112610307576007546040516001600160a01b039091168152602090f35b3461030757600036600319011261030757600a546040516001600160a01b039091168152602090f35b611a2936610f06565b90600090838252602093600f85526040926001848220015415611e1057818152600f86526001848220015415611e1057611a6d82600052600f602052604060002090565b600954909390611a87906105ef906001600160a01b031681565b8551946323ba203560e21b865286866004938180611aa88689898401613020565b03915afa9283156106a75784968594611deb575b50611b0d8888611adb6105ef6105ef600e88015460018060a01b031690565b84600f870154845195869485938493636254a34560e11b85528c85016040919493926060820195825260208201520152565b03915afa80156106a75786918791611dcc575b50611b3481611b2f848c6130ed565b6130ed565b9a8b11611dbc5783546001600160a01b039790881615611d5057611b9d8d8d8d8985611b6c6105ef6105ef8d5460018060a01b031690565b92516323b872dd60e01b81523392810192835230602084015260408301949094529294859384929091839160600190565b03925af19182156106a75791611d33575b5015611d23579187918b935b600286019a8b5490611bcb916130ed565b8b55600386019683885490611bdf916130ed565b8855600b870184815490611bf2916130ed565b90558601978855611c039084614455565b6006860190815490611c14916130ed565b9055600e546001600160a01b03908116600090815260116020908152604080832089549094168352929052208054611c4d9083906130ed565b9055600e546001600160a01b03169083898d818954611c719060018060a01b031690565b9151600081526020810195909552911693169160008051602061538183398151915290604090a481611ca1612ee2565b823392611cad93614ee3565b8951908152602081019290925233917f5bd6f821d5961785d719543640cf62d3770f94e59db1a2f3c2250d72b122dddf90604090a354915490549454865191825260208201959095526040810194909452166001600160a01b03169160008051602061536183398151915290606090a351908152f35b89516303e717e760e51b81528590fd5b611d4a91508d803d1061083f576108308183610a66565b38611bae565b8b99989796959c9a9b3410600014611d72578b516350b30ba960e01b81528d90fd5b91899b9a9c959697989993918993853411611d8e575b50611bba565b8080939550611da08193959734612ed5565b335af1611dab612ef5565b5015611d23579187918b9338611d88565b89516303158fa960e31b81528590fd5b9050611de59150893d8b11610eca57610ebc8183610a66565b38611b20565b909350611e06919650873d8911610eca57610ebc8183610a66565b9590959238611abc565b835163f87e48db60e01b8152600490fd5b3461030757602036600319011261030757600a5460043590611e4b906001600160a01b03166105ef565b60405163273bed1d60e21b81523360048201526024810183905290602090829060449082905afa9081156106a757600091611ea2575b5015611e905761189c906130fa565b6040516319e2f96560e31b8152600490fd5b611ebb915060203d60201161083f576108308183610a66565b38611e81565b90815180825260208080930193019160005b828110611ee1575050505090565b835185529381019392810192600101611ed3565b906020611692928181520190611ec1565b34610307576040366003190112610307576004356001600160401b038082116103075736602383011215610307578160040135611f4281610ab4565b92611f506040519485610a66565b8184526020916024602086019160051b8301019136831161030757602401905b828210611fa957856024358681116103075761066891611f97611f9d923690600401610acb565b906132be565b60405191829182611ef5565b8380918335611fb7816102f6565b815201910190611f70565b3461030757608036600319011261030757600435611fdf816102f6565b602435906001600160401b0360443581811161030757612003903690600401610422565b90916064359081116103075761201d9036906004016109f9565b600a54909290612035906001600160a01b03166105ef565b60405163273bed1d60e21b81523360048201526024810187905290602090829060449082905afa9081156106a757600091612087575b5015611e905784610bf594612082610668976130fa565b613dc4565b6120a0915060203d60201161083f576108308183610a66565b3861206b565b34610307576000806003193601126109ee576120c0613a35565b600380546001600160a01b0319811690915581906001600160a01b03167f8be0079c531659141344cd1fd0a4f28419497f9722a3daafe3b4186f6b6457e08280a380f35b34610307576040806003193601126103075760043590602435600161213384600052600f602052604060002090565b0154156122925761215961215461219094600052600f602052604060002090565b61337d565b6009548390612172906105ef906001600160a01b031681565b825190825180809881946323ba203560e21b83528860048401613406565b03915afa9182156106a757600094600093612264575b5060208201516121fb93928592879284906121cb906105ef906001600160a01b031681565b920151845196879485938493636254a34560e11b8552600485016040919493926060820195825260208201520152565b03915afa80156106a7576122216122289161066894600090600092612244575b506130ed565b80956130ed565b9251938493846040919493926060820195825260208201520152565b905061225d9150863d8811610eca57610ebc8183610a66565b903861221b565b84919295506121fb935061228490823d8411610eca57610ebc8183610a66565b9095869194509291506121a6565b815163f87e48db60e01b8152600490fd5b34610307576020366003190112610307576004356122c0816102f6565b60018060a01b03166000526012602052602060ff604060002054166040519015158152f35b34610307576000366003190112610307576008546040516001600160a01b039091168152602090f35b604090600319011261030757600435612326816102f6565b9060243561169281610b2b565b34610307576123413661230e565b9061234a613a35565b6001600160a01b031660008181526012602052604081205490929060ff1661238f5761238c9183526012602052604083209060ff801983541691151516179055565b80f35b6040516314949b1360e21b8152600490fd5b34610307576000366003190112610307576003546040516001600160a01b039091168152602090f35b34610307576123d83661230e565b6001600160a01b03821691821561245757816124166124279233600052600160205260406000209060018060a01b0316600052602052604060002090565b9060ff801983541691151516179055565b60405190151581527f17307eab39ab6107e8899845ad3d59bd9653f200f220920489ca2b5937696c3160203392a3005b60405162ced3e160e81b815260006004820152602490fd5b34610307576000806003193601126109ee57808160108054915b82851061249b57604051848152602090f35b90919261250c60019184845261250660036124d1896000805160206153a18339815191520154600052600f602052604060002090565b0154600d6124fe6124ee6124e48c611934565b90549060031b1c90565b600052600f602052604060002090565b015490612ed5565b906130ed565b940193929190612489565b60409060031901126103075760043561252f816102f6565b90602435611692816102f6565b3461030757602061039961254f36612517565b6001600160a01b0391821660009081526011855260408082209290931681526020919091522090565b3461030757600036600319011261030757600b546040516001600160a01b039091168152602090f35b3461030757604080600319360112610307576004359060243560016125d084600052600f602052604060002090565b015415612292576125f161215461262894600052600f602052604060002090565b600954839061260a906105ef906001600160a01b031681565b8251908251808098819463fdfb946360e01b83528860048401613406565b03915afa9182156106a7576000946000936126bf575b5060208201516126939392859287928490612663906105ef906001600160a01b031681565b9201518451968794859384936358e507db60e11b8552600485016040919493926060820195825260208201520152565b03915afa80156106a7576126b8612228916106689460009060009261224457506130ed565b8095612ed5565b849192955061269393506126df90823d8411610eca57610ebc8183610a66565b90958691945092915061263e565b346103075760408060031936011261030757600435600161271882600052600f602052604060002090565b015415612292578161273a61215461277193600052600f602052604060002090565b600954612751906105ef906001600160a01b031681565b905190825180809581946328dac05d60e21b835260243560048401613406565b03915afa9182156106a757600091600093612799575b50519081526020810191909152604090f35b816127b692945061066893503d8511610eca57610ebc8183610a66565b929091612787565b3461030757610120366003190112610307576004356127dc816102f6565b6024356127e8816102f6565b604435906127f5826102f6565b6127fd610337565b90612806610344565b6001600160401b03949060e43586811161030757612828903690600401610acb565b93610104359687116103075761284561189c973690600401610acb565b9560c4359460a4359461350b565b34610307576000366003190112610307576006546040516001600160a01b039091168152602090f35b34610307576000366003190112610307576020600c54604051908152f35b3461030757602036600319011261030757600435600052600f602052600160406000200180549060001982019182116128e3576020916128d991612b99565b5054604051908152f35b612ebf565b3461030757602036600319011261030757600435612905816102f6565b600e54906001600160a01b0390818316330361292f576001600160a01b0319909216911617600e55005b604051631a2a416760e21b8152600490fd5b3461030757602060ff61297f61295636612517565b6001600160a01b0391821660009081526001865260408082209290931681526020919091522090565b54166040519015158152f35b34610307576000366003190112610307576020601054604051908152f35b34610307576000366003190112610307576009546040516001600160a01b039091168152602090f35b346103075760a0366003190112610307576004356129ef816102f6565b6024356129fb816102f6565b6084356001600160401b03811161030757612a1a9036906004016117d6565b906001600160a01b03838116903382141580612ad3575b612aac57821615612a935715612a7b5761189c92612a736064356044359160405192600184526020840152604083019160018352606084015260808301604052565b929091614ceb565b604051626a0d4560e21b815260006004820152602490fd5b604051632bfa23e760e11b815260006004820152602490fd5b60405163711bec9160e11b81523360048201526001600160a01b0386166024820152604490fd5b50600082815260016020908152604080832033845290915290205460ff1615612a31565b3461030757602036600319011261030757600435612b14816102f6565b612b1c613a35565b6001600160a01b03908116908115612b6b57600354826001600160601b0360a01b821617600355167f8be0079c531659141344cd1fd0a4f28419497f9722a3daafe3b4186f6b6457e0600080a3005b604051631e4fbdf760e01b815260006004820152602490fd5b80541561195957600052602060002090600090565b80548210156119595760005260206000209060011b0190600090565b346103075760203660031901126103075760043560055481101561030757600560005260011b7f036b6384b5eca791c62761152d0c79bb0604c104a5fb6f4eb0703f3154bb3db1816000805160206153418339815191520154910154906106686040519283928360209093929193604081019481520152565b346103075760e0366003190112610307576004356001600160401b0360443581811161030757612c62903690600401610acb565b9060643590811161030757612c7b903690600401610acb565b608435612c8781610b2b565b60a43591612c94836102f6565b60c43593612ca1856102f6565b600a5460405163273bed1d60e21b81523360048201526024810188905290602090829060449082906001600160a01b03165afa9081156106a757600091612cf6575b5015611e905761189c9560243590613952565b612d0f915060203d60201161083f576108308183610a66565b38612ce3565b3461030757604036600319011261030757600435602435612d35816102f6565b612d3d613a35565b6001612d5383600052600f602052604060002090565b015415612e6457612d7360136105ac84600052600f602052604060002090565b612e1e57600954612d8e906105ef906001600160a01b031681565b803b1561030757604051632286a71160e01b81526001600160a01b038316600482015290600090829060249082905afa80156106a75761189c93601092612de592612e05575b50600052600f602052604060002090565b0180546001600160a01b0319166001600160a01b03909216919091179055565b80612e12612e1892610a38565b80611350565b38612dd4565b604051639ffe2da160e01b815260206004820152601b60248201527f43617274726964676520616c72656164792076616c69646174656400000000006044820152606490fd5b60405163f87e48db60e01b8152600490fd5b61169290546114df565b9190826080910312610307578151916020810151916060604083015192015190565b906020611692928181520190611519565b6040513d6000823e3d90fd5b634e487b7160e01b600052601160045260246000fd5b919082039182116128e357565b60405190612eef82610a4b565b60008252565b3d15612f20573d90612f0682611784565b91612f146040519384610a66565b82523d6000602084013e565b606090565b90816020910312610307575161169281610b2b565b600a5460405163273bed1d60e21b815233600482015260248101849052979b959a9499939892979196959493929190602090829060449082906001600160a01b03165afa9081156106a757600091612fa1575b5015611e90576116929a6120829588613952565b612fba915060203d60201161083f576108308183610a66565b38612f8d565b9190826040910312610307576020825192015190565b9081548082526020809201926000526020600020916000905b828210612ffd575050505090565b835485526001808501548683015260409095019460029094019390910190612fef565b916116929183526040602084015261305260408401613045835460018060a01b031690565b6001600160a01b03169052565b6101c06060840152600b6101a0613070610200860160018501612fd6565b60028401546080870152600384015460a0870152600484015460c0870152600584015460e08701526006840154610100870152600784015461012087015260088401546101408701526009840154610160870152600a84015461018087015294019101600260409180548452600181015460208501520154910152565b919082018092116128e357565b600d546006546005549291906001600160a01b031661311884610ab4565b906040946131296040519384610a66565b8083526005600090815260209660008051602061534183398151915290888087015b85851061327d57505050505050600194600161317186600052600f602052604060002090565b015415613181575b505050505050565b90926131e386939461319d87600052600f602052604060002090565b600754600e820180546001600160a01b0319166001600160a01b0390921691909117905592600f84015582546001600160a01b0319166001600160a01b03909116178255565b6008546010820180546001600160a01b0319166001600160a01b03909216919091179055600160009101925b61322d575b505050506132229150614ab0565b388080808080613179565b83518110156132785790858261326e61324987969584986132aa565b51518461325684896132aa565b510151613261610aa7565b9182528582015285614a66565b019091929361320f565b613214565b600191600291845161328e81610a1d565b865481528487015483820152815201930193019291899061314b565b80518210156119595760209160051b010190565b9190918051835180820361335b5750508051906132f36132dd83610ab4565b926132eb6040519485610a66565b808452610ab4565b60209190601f1901368484013760005b815181101561335357600581901b8281018401519087018401516000908152602081815260408083206001600160a01b03909416835292905220546001919061334c82876132aa565b5201613303565b509193505050565b604051635b05999160e01b815260048101919091526024810191909152604490fd5b9060405160e081018181106001600160401b0382111761057a5760405260c0613401601383956133ac8161146c565b8552600e8101546001600160a01b03166020860152600f810154604086015260108101546001600160a01b0316606086015260118101546001600160a01b03166080860152601281015460a0860152016115af565b910152565b6040906116929392815281602082015201906115ca565b906134306020928281519485920161089d565b0190565b90604051918260206000906004549061344c826114df565b916001908181169081156134e25750600114613481575b505050613473906103199361341d565b03601f198101845283610a66565b9091925060046000527f8a35acfbc15ff81a39ae7d344fd709f28e8600b4aa8c65c6b64bfe7fe36bd19b906000915b8483106134cc5750505050810160200182613473610319613463565b80548984018501528895509183019181016134b0565b90506134739450602092506103199693915060ff19168286015280151502840101918194613463565b97989698613517613a35565b60095461352e906105ef906001600160a01b031681565b90813b15610307576040805163169f6b0560e11b81526001600160a01b038c166004808301919091526000949293909290918581602481855afa80156106a75761384b575b50803b1561380e57835163f610a03960e01b81526001600160a01b0387168482019081528690829081906020010381855afa80156106a757613838575b50803b1561380e578351632286a71160e01b81526001600160a01b0388168482019081528690829081906020010381855afa80156106a757613825575b50803b1561380e57835163130d243760e21b81526001600160a01b038916848201908152909186918391908290819060200103915afa80156106a757613812575b506001600160a01b03881691823b1561380e5790839291858f839061368697519788928392632326e3db60e01b84527f0000000000000000000000000000000000000000000000000000000000000000878501614c62565b0381865afa9384156106a75786958c956137fb575b506136a4614c8d565b516309a257cd60e41b81529e8f94859384936136c2939085016138fd565b03915afa998a156106a757819a6137d7575b505b895181101561371d57806137176136ef6001938d6132aa565b5151828d61370060209283926132aa565b5101519061370c610aa7565b928352820152614a00565b016136d6565b506137d295969850916137936137b0926137766137cd96956137596103199c60018060a01b03166001600160601b0360a01b6006541617600655565b60018060a01b03166001600160601b0360a01b6007541617600755565b60018060a01b03166001600160601b0360a01b6008541617600855565b60018060a01b03166001600160601b0360a01b600a541617600a55565b60018060a01b03166001600160601b0360a01b600b541617600b55565b600c55565b600d55565b6137f4919a503d808c833e6137ec8183610a66565b81019061385e565b98386136d4565b80612e1261380892610a38565b3861369b565b8480fd5b80612e1261381f92610a38565b3861362e565b80612e1261383292610a38565b386135ed565b80612e1261384592610a38565b386135b0565b80612e1261385892610a38565b38613573565b906020918281830312610307578051906001600160401b038211610307570181601f820112156103075780519261389484610ab4565b936040936138a56040519687610a66565b818652828087019260061b85010193818511610307578301915b8483106138cf5750505050505090565b85838303126103075783869182516138e681610a1d565b8551815282860151838201528152019201916138bf565b93929161392d9061391f60609360008852608060208901526080880190611ec1565b908682036040880152611ec1565b930152565b94939261391f60609361392d938852608060208901526080880190611ec1565b600b5493969594936139989390613973906105ef906001600160a01b031681565b600c549060405180809781946309a257cd60e41b835260009d8e978960048601613932565b03915afa9283156106a7578793613a19575b506009546139c2906105ef906001600160a01b031681565b96873b156109ee5760405163169f6b0560e11b81526001600160a01b038816600482015297889060249082905afa9687156106a75761031997613a06575b50614ae6565b80612e12613a1392610a38565b38613a00565b613a2e9193503d8089833e6137ec8183610a66565b91386139aa565b6003546001600160a01b03163303613a4957565b60405163118cdaa760e01b8152336004820152602490fd5b818110613a6c575050565b60008155600101613a61565b90601f8211613a85575050565b6103199160026000527f405787fa12a823e0f2b7631cc41b3ba8828b3321ca811111fa75cd3aa3bb5ace906020601f840160051c83019310613acf575b601f0160051c0190613a61565b9091508190613ac2565b9190601f8111613ae857505050565b610319926000526020600020906020601f840160051c83019310613acf57601f0160051c0190613a61565b908060209392818452848401376000828201840152601f01601f1916010190565b35906001600160401b038216820361030757565b9035601e19823603018112156103075701602081359101916001600160401b038211610307578160051b3603831361030757565b81835290916001600160fb1b0383116103075760209260051b809284830137010190565b9035601e19823603018112156103075701602081359101916001600160401b03821161030757813603831361030757565b929190613be691604085526040850191613b13565b91602081840391015280359160fe198236030183121561030757613cbc613cb1836116929501604084526001600160401b03613c2182613b34565b166040850152613c46613c3660208301613b34565b6001600160401b03166060860152565b60408101356080850152606081013560a0850152608081013560c085015260a081013560e0850152613c9e613c93613c8160c0840184613b48565b61010080890152610140880191613b7c565b9160e0810190613b48565b858303603f190161012087015290613b7c565b926020810190613ba0565b916020818503910152613b13565b91908260409103126103075760208251920151611692816102f6565b916020611692938181520191613b13565b9092916001600160401b03811161057a57613d1c81613d1684546114df565b84613ad9565b6000601f8211600114613d5c578190613d4d939495600092613d515750508160011b916000199060031b1c19161790565b9055565b0135905038806104ce565b601f19821694613d7184600052602060002090565b91805b878110613dac575083600195969710613d92575b505050811b019055565b0135600019600384901b60f8161c19169055388080613d88565b90926020600181928686013581550194019101613d74565b93919093613ddc85600052600f602052604060002090565b936013850190613dec82546114df565b61429b576001600160a01b03831660009081526012602052604090205460ff161561238f5760408051634b243ea360e11b81526004966001600160a01b0396929590829088908290613e429088888e8501613bd1565b03921691815a93602094fa80156106a75761427c575b506010870154613e72906105ef906001600160a01b031681565b8451636e40c63360e11b81529390858580613e9087878d8401613ce6565b0381845afa9485156106a75760009060009661424a575b508a0361421057906080848493613ed496958b8a5198899485938493637570c58b60e11b85528401613ce6565b03915afa9384156106a7576000946141e5575b50613f10613f15949560118b019060018060a01b03166001600160601b0360a01b825416179055565b613cf7565b60128501556000916006850192835480614104575b50600786019485549081613ff9575b5050600095938693600a9693613f5086948b614455565b5089835491865490613f6282856130ed565b9384613f76575b5050505050505555015590565b60008051602061538183398151915292613f8f916130ed565b613fc3613fbb8c610dc2613fad610d9c600e5460018060a01b031690565b91546001600160a01b031690565b9182546130ed565b9055600e548a5495516003815260208101959095526001600160a01b0395821686169591161692604090a4388089818080613f69565b906140519291858261401a6105ef6105ef600e8e015460018060a01b031690565b600f8c0154600c8d0154908451988994859384936358e507db60e11b85528985016040919493926060820195825260208201520152565b03915afa9384156106a7576000946140e3575b508184116140a2575093600a9693613f506140928560009b999561408b8d9a988b99612ed5565b89556130ed565b9450509396509381959750613f39565b6106e8908651918291639ffe2da160e01b83528201606090602081526011602082015270756e636c61696d65644275726e4665657360781b60408201520190565b6140fb919450863d8811610eca57610ebc8183610a66565b90509238614064565b809150836141216105ef6105ef600e8b015460018060a01b031690565b600f890154600b8a01548351636254a34560e11b8152808b01928352602083019190915260408201959095528491908290819060600103915afa9182156106a7576000926141c4575b50808211614184578161417c91612ed5565b845538613f2a565b8351639ffe2da160e01b8152602081880181815260119181019190915270756e636c61696d65644d696e744665657360781b604082015281906060010390fd5b6141dc919250843d8611610eca57610ebc8183610a66565b9050903861416a565b613f159450614205613f109160803d6080116106a05761068c8183610a66565b505090509450613ee7565b8551639ffe2da160e01b81526020818a01818152600b918101919091526a18d85c9d1c9a5919d9525960aa1b604082015281906060010390fd5b905061426d919550863d8811614275575b6142658183610a66565b810190613cca565b949038613ea7565b503d61425b565b6142949060203d60201161083f576108308183610a66565b5038613e58565b604051639ffe2da160e01b8152602060048201526011602482015270185b1c9958591e481d985b1a59185d1959607a1b6044820152606490fd5b6001600160a01b038116929091908315612a7b5761431060405192600184526020840152604083019160018352606084015260808301604052565b9190604094600060405161432381610a4b565b52815184519081810361335b57505060005b82518110156143cb578060051b6020808286010151918701015161436786610729846000526000602052604060002090565b548181106143955786610729600195949361438e9303936000526000602052604060002090565b5501614335565b89516303dee4c560e01b81526001600160a01b038816600482015260248101919091526044810182905260648101839052608490fd5b509450600093929150600181511484146144225760209081015191810151604080519384529183015233917fc3d58168c5ae7397731d063d5bbf3d657854427343f4c083240f7aacaa2d0f6291819081015b0390a4565b60405133927f4a39dc06d4c0dbc64b70af90fd698a233a518aa5d07e595d983b8c0526c8f7fb92829161441d9183615024565b9061446a82600052600f602052604060002090565b9161447860138401546114df565b6144825750905090565b6011830180546000936001600160a01b03929091831680156145ce576001600160a01b031660009081526011602052604090206144e891906144ce9088546001600160a01b0316610dc2565b6144d98482546130ed565b9055546001600160a01b031690565b90836000805160206153818339815191528461450a895460018060a01b031690565b61452a826040519384931697169582919060206040840193600481520152565b0390a45b8261453d575b50505050600090565b600e54600080516020615381833981519152919061457790614567906001600160a01b0316610d9c565b86546001600160a01b0316610dc2565b6145828582546130ed565b9055600e546145a2906001600160a01b031695546001600160a01b031690565b6145c2826040519384931697169582919060206040840193600381520152565b0390a438808080614534565b50509092509161452e565b600093828552600f602052604060018187200154156149f0576000848152600f602052604090206001600160a01b039384169190600954614624906105ef906001600160a01b031681565b928251976323ba203560e21b89528389600496818061464688878c8401613020565b03915afa9586156106a7578a998b976149cb575b508a908a8c911580156149c2575b80156149aa575b614910575b81611b2f84614682936130ed565b9b8c6149005785548a166001600160a01b031615614891576146f160208e6146b66105ef6105ef8b5460018060a01b031690565b8a516323b872dd60e01b81526001600160a01b038a16818e019081523060208201526040810193909352938492839187918391606090910190565b03925af19182156106a75791614872575b501561486257908992915b600286019b8c549061471e916130ed565b8c55600386019783895490614732916130ed565b8955600b870184815490614745916130ed565b905586019889556147569084614455565b6006860190815490614767916130ed565b9055600e546001600160a01b039081166000908152601160209081526040808320895490941683529290522080546147a09083906130ed565b9055600e54855487516000815260208101939093528a166001600160a01b0390811692918b161690849060008051602061538183398151915290604090a46147e6612ee2565b6147f290828486614ee3565b8451908152602081018b90527f5bd6f821d5961785d719543640cf62d3770f94e59db1a2f3c2250d72b122dddf90604090a354925491549554905191825260208201959095526040810194909452166001600160a01b03169160008051602061536183398151915290606090a390565b85516303e717e760e51b81528790fd5b61488b915060203d60201161083f576108308183610a66565b38614702565b8c9a98969c9d9b99979d34106000146148b4578c516350b30ba960e01b81528e90fd5b90889a9c96989392918d9c9e989a9c8034116148d2575b505061470d565b818093949596506148e4819234612ed5565b885af16148ef612ef5565b50156148625790899291388d6148cb565b86516303158fa960e31b81528890fd5b915050848261492e6105ef6105ef600e89015460018060a01b031690565b600f87015489614962855196879586948594636254a34560e11b865285016040919493926060820195825260208201520152565b03915afa9081156106a7576146828c8c93611b2f93829161498b575b5090939092509050614674565b90506149a49150883d8a11610eca57610ebc8183610a66565b3861497e565b5060016149b8818801612b84565b500154151561466f565b50801515614668565b9096506149e6919950843d8611610eca57610ebc8183610a66565b989098953861465a565b5163f87e48db60e01b8152600490fd5b600554600160401b81101561057a5760018101806005558110156119595760207f036b6384b5eca791c62761152d0c79bb0604c104a5fb6f4eb0703f3154bb3db191600560005260011b9280518460008051602061534183398151915201550151910155565b8054600160401b81101561057a57614a8391600182018155612b99565b919091614a9a576020816001925184550151910155565b634e487b7160e01b600052600060045260246000fd5b601054600160401b81101561057a5760018101806010558110156119595760106000526000805160206153a18339815191520155565b9194909392936001956001614b0585600052600f602052604060002090565b015415614b16575b50505050505050565b614b758793614b2f86600052600f602052604060002090565b600754600e820180546001600160a01b0319166001600160a01b0390921691909117905593600f85015583546001600160a01b0319166001600160a01b03909116178355565b6008546010830180546001600160a01b0319166001600160a01b03909216919091179055600160009201965b614c16575b50505082614bb382614ab0565b614bc0575b808080614b0d565b60028454108015614c00575b614bee57614bdc614be494612b84565b5054916145d9565b5038808080614bb8565b604051631da49c9b60e01b8152600490fd5b506001614c0c85612b84565b5001541515614bcc565b8051821015614c5d578282614c56614c2f8395856132aa565b5151602080614c3e85886132aa565b51015190614c4a610aa7565b9283528201528a614a66565b0191614ba1565b614ba6565b91614c7f9061169294928452606060208501526060840190611ec1565b916040818403910152611ec1565b60055460008060055581614c9f575050565b60016001600160ff1b03831683036128e35760056000526000805160206153418339815191529260011b8301925b838110614cda5750505050565b808360029255838382015501614ccd565b94919091815184519081810361335b57505060005b8251811015614dee57600581901b83810160209081015191870101516001600160a01b03929186908a8516614d68575b6001948216614d43575b50505001614d00565b614d5e91610729613fbb926000526000602052604060002090565b9055388581614d3a565b9192939050614d858a610729846000526000602052604060002090565b54838110614db75791879184600196959403614daf8d610729856000526000602052604060002090565b559450614d30565b6040516303dee4c560e01b81526001600160a01b038c16600482015260248101919091526044810184905260648101839052608490fd5b509491939290936001855114600014614e98576020858101518382015160408051928352928201526001600160a01b03838116929086169133917fc3d58168c5ae7397731d063d5bbf3d657854427343f4c083240f7aacaa2d0f6291a45b6001600160a01b038116614e61575050505050565b8451600103614e8757602080614e7d9601519201519233615309565b3880808080611548565b614e93949192336151d6565b614e7d565b6040516001600160a01b03828116919085169033907f4a39dc06d4c0dbc64b70af90fd698a233a518aa5d07e595d983b8c0526c8f7fb9080614edb888c83615024565b0390a4614e4c565b6001600160a01b03811693929091908415612a9357614f1f60405192600184526020840152604083019160018352606084015260808301604052565b92815184519081810361335b57505060005b8251811015614f71578060019160051b614f69613fbb87610729602080868b010151958c010151946000526000602052604060002090565b905501614f31565b509291936001825114600014614fe85760208281015184820151604080519283529282015260009133917fc3d58168c5ae7397731d063d5bbf3d657854427343f4c083240f7aacaa2d0f629190a45b8051600103614fde57906020806103199593015191015191336152d4565b61031993336150db565b60006040517f4a39dc06d4c0dbc64b70af90fd698a233a518aa5d07e595d983b8c0526c8f7fb33918061501c888883615024565b0390a4614fc0565b909161503b61169293604084526040840190611ec1565b916020818403910152611ec1565b908160209103126103075751611692816103a2565b9261508d611692959361509b9360018060a01b031686526000602087015260a0604087015260a0860190611ec1565b908482036060860152611ec1565b9160808184039101526108c0565b9390611692959361508d9161509b9460018060a01b03809216885216602087015260a0604087015260a0860190611ec1565b9293919093843b6150ed575050505050565b602091615110604051948593849363bc197c8160e01b988986526004860161505e565b038160006001600160a01b0388165af1600091816151a5575b506151685782615137612ef5565b805191908261516157604051632bfa23e760e11b81526001600160a01b0383166004820152602490fd5b9050602001fd5b6001600160e01b0319160361518257503880808080611548565b604051632bfa23e760e11b81526001600160a01b03919091166004820152602490fd5b6151c891925060203d6020116151cf575b6151c08183610a66565b810190615049565b9038615129565b503d6151b6565b939290949194853b6151ea57505050505050565b61520d602093604051958694859463bc197c8160e01b998a8752600487016150a9565b038160006001600160a01b0388165af16000918161524f575b506152345782615137612ef5565b6001600160e01b031916036151825750388080808080613179565b61526991925060203d6020116151cf576151c08183610a66565b9038615226565b909260a0926116929594600180861b03168352600060208401526040830152606082015281608082015201906108c0565b919261169295949160a094600180871b0380921685521660208401526040830152606082015281608082015201906108c0565b9293919093843b6152e6575050505050565b602091615110604051948593849363f23a6e6160e01b9889865260048601615270565b939290949194853b61531d57505050505050565b61520d602093604051958694859463f23a6e6160e01b998a8752600487016152a156fe036b6384b5eca791c62761152d0c79bb0604c104a5fb6f4eb0703f3154bb3db02e67857c5e095aa37c99fc8a2a3d065e50197554891c3cf1f318b1996b66469c4b984622ccd95d46d58ee4b4ec121acbc6f1d9de4a5997f2013e0daf02c101041b6847dc741a1b0cd08d278845f9d819d87b734759afb55fe2de5cb82a9ae672a26469706673582212204d84df6416e4e3522adfb2f1667dd645d6a8c5bed923998a3e1d167cd8ca015164736f6c63430008180033","linkReferences":{}},"methodIdentifiers":{"accounts(address,address)":"ad74b775","balanceOf(address,uint256)":"00fdd58e","balanceOfBatch(address[],uint256[])":"4e1273f4","bondingCurveSteps(uint256)":"fa1c4db6","buyCartridges(bytes32,uint256,uint256)":"3c973f06","cartridgeBondUtilsAddress()":"eba4c82f","cartridgeBondingCurveModelAddress()":"af5baf44","cartridgeBonds(bytes32)":"226f877e","cartridgeBondsCreated(uint256)":"305e1d73","cartridgeModelAddress()":"7baa9fe8","cartridgeOwnershipModelAddress()":"3b906e47","cartridgesCount()":"ea6c6811","changeCartridgeModel(bytes32,address)":"fd3bf34b","consumeCartridges(bytes32,uint256)":"12e6bacd","currencyTokenAddress()":"d3c3b389","dappAddresses(address)":"787ca438","exists(bytes32)":"38a699a4","feeConfig()":"1e5eb1d0","feeModelAddress()":"3ab03c8b","getCartridgeData(bytes32)":"056e9c55","getCurrentBuyPrice(bytes32,uint256)":"724969e7","getCurrentConsumePrice(bytes32,uint256)":"bbfef088","getCurrentSellPrice(bytes32,uint256)":"b16cae66","isApprovedForAll(address,address)":"e985e9c5","maxCartridgeSupply(bytes32)":"db907f67","maxSupply()":"d5abeb01","owner()":"8da5cb5b","renounceOwnership()":"715018a6","safeBatchTransferFrom(address,address,uint256[],uint256[],bytes)":"2eb2c2d6","safeTransferFrom(address,address,uint256,uint256,bytes)":"f242432a","sellCartridges(bytes32,uint256,uint256)":"1aba7deb","setApprovalForAll(address,bool)":"a22cb465","setCartridgeParams(bytes32)":"42e201f4","setCartridgeParamsCustom(bytes32,uint256,uint256[],uint256[],bool,address,address)":"fac85f7a","setDapp(address,bool)":"8d3b5235","setURI(string)":"02fe5305","supportsInterface(bytes4)":"01ffc9a7","totalCartridges()":"aca6d572","transferOwnership(address)":"f2fde38b","updateBondingCurveParams(address,address,address,address,address,uint256,uint256,uint256[],uint256[])":"bdd86b21","updateProtocolWallet(address)":"e308a099","uri(bytes32)":"9ed19ddb","uri(uint256)":"0e89341c","validateCartridge(address,bytes32,bytes,((uint64,uint64,bytes32,bytes32,bytes32,bytes32,bytes32[],bytes32[]),bytes))":"61b1a4c4","validateCartridgeCustom(address,bytes32,bytes,((uint64,uint64,bytes32,bytes32,bytes32,bytes32,bytes32[],bytes32[]),bytes),uint256,uint256[],uint256[],bool,address,address)":"0fa8afea","withdrawBalance(address,uint256)":"0cf20cc9"},"id":72}