{"abi":[{"type":"constructor","inputs":[{"name":"newProtocolWallet","type":"address","internalType":"address"},{"name":"maxSteps","type":"uint256","internalType":"uint256"},{"name":"newCurrencyToken","type":"address","internalType":"address"},{"name":"newFeeModel","type":"address","internalType":"address"},{"name":"newCartridgeModel","type":"address","internalType":"address"},{"name":"newCartridgeOwnershipModelAddress","type":"address","internalType":"address"},{"name":"newCartridgeBondingCurveModelAddress","type":"address","internalType":"address"},{"name":"newCartridgeBondUtilsAddress","type":"address","internalType":"address"},{"name":"newMaxSupply","type":"uint128","internalType":"uint128"},{"name":"stepRangesMax","type":"uint128[]","internalType":"uint128[]"},{"name":"stepCoefficients","type":"uint128[]","internalType":"uint128[]"}],"stateMutability":"nonpayable"},{"type":"function","name":"accounts","inputs":[{"name":"","type":"address","internalType":"address"},{"name":"","type":"address","internalType":"address"}],"outputs":[{"name":"","type":"uint256","internalType":"uint256"}],"stateMutability":"view"},{"type":"function","name":"addDapp","inputs":[{"name":"dapp","type":"address","internalType":"address"}],"outputs":[],"stateMutability":"nonpayable"},{"type":"function","name":"balanceOf","inputs":[{"name":"account","type":"address","internalType":"address"},{"name":"id","type":"uint256","internalType":"uint256"}],"outputs":[{"name":"","type":"uint256","internalType":"uint256"}],"stateMutability":"view"},{"type":"function","name":"balanceOfBatch","inputs":[{"name":"accounts","type":"address[]","internalType":"address[]"},{"name":"ids","type":"uint256[]","internalType":"uint256[]"}],"outputs":[{"name":"","type":"uint256[]","internalType":"uint256[]"}],"stateMutability":"view"},{"type":"function","name":"bondingCurveSteps","inputs":[{"name":"","type":"uint256","internalType":"uint256"}],"outputs":[{"name":"rangeMax","type":"uint128","internalType":"uint128"},{"name":"coefficient","type":"uint128","internalType":"uint128"}],"stateMutability":"view"},{"type":"function","name":"buyCartridges","inputs":[{"name":"cartridgeId","type":"bytes32","internalType":"bytes32"},{"name":"cartridgesToMint","type":"uint256","internalType":"uint256"},{"name":"maxCurrencyPrice","type":"uint256","internalType":"uint256"}],"outputs":[{"name":"currencyCost","type":"uint256","internalType":"uint256"}],"stateMutability":"payable"},{"type":"function","name":"cartridgeBondUtilsAddress","inputs":[],"outputs":[{"name":"","type":"address","internalType":"address"}],"stateMutability":"view"},{"type":"function","name":"cartridgeBondingCurveModelAddress","inputs":[],"outputs":[{"name":"","type":"address","internalType":"address"}],"stateMutability":"view"},{"type":"function","name":"cartridgeBonds","inputs":[{"name":"","type":"bytes32","internalType":"bytes32"}],"outputs":[{"name":"bond","type":"tuple","internalType":"struct BondUtils.BondData","components":[{"name":"currencyToken","type":"address","internalType":"address"},{"name":"steps","type":"tuple[]","internalType":"struct IBondingCurveModel.BondingCurveStep[]","components":[{"name":"rangeMax","type":"uint128","internalType":"uint128"},{"name":"coefficient","type":"uint128","internalType":"uint128"}]},{"name":"currencyBalance","type":"uint256","internalType":"uint256"},{"name":"currentSupply","type":"uint256","internalType":"uint256"},{"name":"currentPrice","type":"uint256","internalType":"uint256"},{"name":"consumePrice","type":"uint256","internalType":"uint256"},{"name":"unclaimed","type":"tuple","internalType":"struct BondUtils.UnclaimedFees","components":[{"name":"mint","type":"uint256","internalType":"uint256"},{"name":"burn","type":"uint256","internalType":"uint256"},{"name":"consume","type":"uint256","internalType":"uint256"},{"name":"royalties","type":"uint256","internalType":"uint256"},{"name":"undistributedRoyalties","type":"uint256","internalType":"uint256"}]},{"name":"count","type":"tuple","internalType":"struct BondUtils.BondCount","components":[{"name":"minted","type":"uint256","internalType":"uint256"},{"name":"burned","type":"uint256","internalType":"uint256"},{"name":"consumed","type":"uint256","internalType":"uint256"}]}]},{"name":"feeModel","type":"address","internalType":"address"},{"name":"cartridgeModel","type":"address","internalType":"address"},{"name":"cartridgeOwner","type":"address","internalType":"address"},{"name":"eventData","type":"bytes","internalType":"bytes"}],"stateMutability":"view"},{"type":"function","name":"cartridgeBondsCreated","inputs":[{"name":"","type":"uint256","internalType":"uint256"}],"outputs":[{"name":"","type":"bytes32","internalType":"bytes32"}],"stateMutability":"view"},{"type":"function","name":"cartridgeModelAddress","inputs":[],"outputs":[{"name":"","type":"address","internalType":"address"}],"stateMutability":"view"},{"type":"function","name":"cartridgeOwnershipModelAddress","inputs":[],"outputs":[{"name":"","type":"address","internalType":"address"}],"stateMutability":"view"},{"type":"function","name":"cartridgesCount","inputs":[],"outputs":[{"name":"","type":"uint256","internalType":"uint256"}],"stateMutability":"view"},{"type":"function","name":"changeCartridgeModel","inputs":[{"name":"cartridgeId","type":"bytes32","internalType":"bytes32"},{"name":"newCartridgeModel","type":"address","internalType":"address"}],"outputs":[],"stateMutability":"nonpayable"},{"type":"function","name":"consumeCartridges","inputs":[{"name":"cartridgeId","type":"bytes32","internalType":"bytes32"},{"name":"cartridgesToConsume","type":"uint256","internalType":"uint256"}],"outputs":[{"name":"","type":"uint256","internalType":"uint256"}],"stateMutability":"nonpayable"},{"type":"function","name":"currencyTokenAddress","inputs":[],"outputs":[{"name":"","type":"address","internalType":"address"}],"stateMutability":"view"},{"type":"function","name":"dappAddresses","inputs":[{"name":"","type":"address","internalType":"address"}],"outputs":[{"name":"","type":"bool","internalType":"bool"}],"stateMutability":"view"},{"type":"function","name":"exists","inputs":[{"name":"cartridgeId","type":"bytes32","internalType":"bytes32"}],"outputs":[{"name":"","type":"bool","internalType":"bool"}],"stateMutability":"view"},{"type":"function","name":"feeModelAddress","inputs":[],"outputs":[{"name":"","type":"address","internalType":"address"}],"stateMutability":"view"},{"type":"function","name":"getCartridgeData","inputs":[{"name":"cartridgeId","type":"bytes32","internalType":"bytes32"}],"outputs":[{"name":"","type":"bytes32","internalType":"bytes32"},{"name":"","type":"bytes32","internalType":"bytes32"},{"name":"","type":"int256","internalType":"int256"}],"stateMutability":"view"},{"type":"function","name":"getCurrentBuyPrice","inputs":[{"name":"cartridgeId","type":"bytes32","internalType":"bytes32"},{"name":"tokensToMint","type":"uint256","internalType":"uint256"}],"outputs":[{"name":"","type":"uint256","internalType":"uint256"},{"name":"","type":"uint256","internalType":"uint256"},{"name":"","type":"uint256","internalType":"uint256"}],"stateMutability":"view"},{"type":"function","name":"getCurrentConsumePrice","inputs":[{"name":"cartridgeId","type":"bytes32","internalType":"bytes32"},{"name":"tokensToConsume","type":"uint256","internalType":"uint256"}],"outputs":[{"name":"","type":"uint256","internalType":"uint256"},{"name":"","type":"uint256","internalType":"uint256"}],"stateMutability":"view"},{"type":"function","name":"getCurrentSellPrice","inputs":[{"name":"cartridgeId","type":"bytes32","internalType":"bytes32"},{"name":"tokensToBurn","type":"uint256","internalType":"uint256"}],"outputs":[{"name":"","type":"uint256","internalType":"uint256"},{"name":"","type":"uint256","internalType":"uint256"},{"name":"","type":"uint256","internalType":"uint256"}],"stateMutability":"view"},{"type":"function","name":"isApprovedForAll","inputs":[{"name":"account","type":"address","internalType":"address"},{"name":"operator","type":"address","internalType":"address"}],"outputs":[{"name":"","type":"bool","internalType":"bool"}],"stateMutability":"view"},{"type":"function","name":"maxCartridgeSupply","inputs":[{"name":"cartridgeId","type":"bytes32","internalType":"bytes32"}],"outputs":[{"name":"","type":"uint128","internalType":"uint128"}],"stateMutability":"view"},{"type":"function","name":"maxSupply","inputs":[],"outputs":[{"name":"","type":"uint128","internalType":"uint128"}],"stateMutability":"view"},{"type":"function","name":"owner","inputs":[],"outputs":[{"name":"","type":"address","internalType":"address"}],"stateMutability":"view"},{"type":"function","name":"renounceOwnership","inputs":[],"outputs":[],"stateMutability":"nonpayable"},{"type":"function","name":"safeBatchTransferFrom","inputs":[{"name":"from","type":"address","internalType":"address"},{"name":"to","type":"address","internalType":"address"},{"name":"ids","type":"uint256[]","internalType":"uint256[]"},{"name":"values","type":"uint256[]","internalType":"uint256[]"},{"name":"data","type":"bytes","internalType":"bytes"}],"outputs":[],"stateMutability":"nonpayable"},{"type":"function","name":"safeTransferFrom","inputs":[{"name":"from","type":"address","internalType":"address"},{"name":"to","type":"address","internalType":"address"},{"name":"id","type":"uint256","internalType":"uint256"},{"name":"value","type":"uint256","internalType":"uint256"},{"name":"data","type":"bytes","internalType":"bytes"}],"outputs":[],"stateMutability":"nonpayable"},{"type":"function","name":"sellCartridges","inputs":[{"name":"cartridgeId","type":"bytes32","internalType":"bytes32"},{"name":"cartridgesToBurn","type":"uint256","internalType":"uint256"},{"name":"minCurrencyRefund","type":"uint256","internalType":"uint256"}],"outputs":[{"name":"","type":"uint256","internalType":"uint256"}],"stateMutability":"nonpayable"},{"type":"function","name":"setApprovalForAll","inputs":[{"name":"operator","type":"address","internalType":"address"},{"name":"approved","type":"bool","internalType":"bool"}],"outputs":[],"stateMutability":"nonpayable"},{"type":"function","name":"setCartridgeParams","inputs":[{"name":"cartridgeId","type":"bytes32","internalType":"bytes32"}],"outputs":[],"stateMutability":"nonpayable"},{"type":"function","name":"setCartridgeParamsCustom","inputs":[{"name":"cartridgeId","type":"bytes32","internalType":"bytes32"},{"name":"stepRangesMax","type":"uint128[]","internalType":"uint128[]"},{"name":"stepCoefficients","type":"uint128[]","internalType":"uint128[]"}],"outputs":[],"stateMutability":"nonpayable"},{"type":"function","name":"setURI","inputs":[{"name":"newUri","type":"string","internalType":"string"}],"outputs":[],"stateMutability":"nonpayable"},{"type":"function","name":"supportsInterface","inputs":[{"name":"interfaceId","type":"bytes4","internalType":"bytes4"}],"outputs":[{"name":"","type":"bool","internalType":"bool"}],"stateMutability":"view"},{"type":"function","name":"totalCartridges","inputs":[],"outputs":[{"name":"","type":"uint256","internalType":"uint256"}],"stateMutability":"view"},{"type":"function","name":"transferOwnership","inputs":[{"name":"newOwner","type":"address","internalType":"address"}],"outputs":[],"stateMutability":"nonpayable"},{"type":"function","name":"updateBondingCurveParams","inputs":[{"name":"newCurrencyToken","type":"address","internalType":"address"},{"name":"newFeeModel","type":"address","internalType":"address"},{"name":"newCartridgeModel","type":"address","internalType":"address"},{"name":"newCartridgeOwnershipModelAddress","type":"address","internalType":"address"},{"name":"newCartridgeBondingCurveModelAddress","type":"address","internalType":"address"},{"name":"newMaxSupply","type":"uint128","internalType":"uint128"},{"name":"stepRangesMax","type":"uint128[]","internalType":"uint128[]"},{"name":"stepCoefficients","type":"uint128[]","internalType":"uint128[]"}],"outputs":[],"stateMutability":"nonpayable"},{"type":"function","name":"updateProtocolWallet","inputs":[{"name":"newProtocolWallet","type":"address","internalType":"address"}],"outputs":[],"stateMutability":"nonpayable"},{"type":"function","name":"uri","inputs":[{"name":"","type":"uint256","internalType":"uint256"}],"outputs":[{"name":"","type":"string","internalType":"string"}],"stateMutability":"view"},{"type":"function","name":"validateCartridge","inputs":[{"name":"dapp","type":"address","internalType":"address"},{"name":"cartridgeId","type":"bytes32","internalType":"bytes32"},{"name":"_payload","type":"bytes","internalType":"bytes"},{"name":"_v","type":"tuple","internalType":"struct Proof","components":[{"name":"validity","type":"tuple","internalType":"struct OutputValidityProof","components":[{"name":"inputIndexWithinEpoch","type":"uint64","internalType":"uint64"},{"name":"outputIndexWithinInput","type":"uint64","internalType":"uint64"},{"name":"outputHashesRootHash","type":"bytes32","internalType":"bytes32"},{"name":"vouchersEpochRootHash","type":"bytes32","internalType":"bytes32"},{"name":"noticesEpochRootHash","type":"bytes32","internalType":"bytes32"},{"name":"machineStateHash","type":"bytes32","internalType":"bytes32"},{"name":"outputHashInOutputHashesSiblings","type":"bytes32[]","internalType":"bytes32[]"},{"name":"outputHashesInEpochSiblings","type":"bytes32[]","internalType":"bytes32[]"}]},{"name":"context","type":"bytes","internalType":"bytes"}]}],"outputs":[{"name":"","type":"bytes32","internalType":"bytes32"}],"stateMutability":"nonpayable"},{"type":"function","name":"validateCartridgeCustom","inputs":[{"name":"dapp","type":"address","internalType":"address"},{"name":"cartridgeId","type":"bytes32","internalType":"bytes32"},{"name":"_payload","type":"bytes","internalType":"bytes"},{"name":"_v","type":"tuple","internalType":"struct Proof","components":[{"name":"validity","type":"tuple","internalType":"struct OutputValidityProof","components":[{"name":"inputIndexWithinEpoch","type":"uint64","internalType":"uint64"},{"name":"outputIndexWithinInput","type":"uint64","internalType":"uint64"},{"name":"outputHashesRootHash","type":"bytes32","internalType":"bytes32"},{"name":"vouchersEpochRootHash","type":"bytes32","internalType":"bytes32"},{"name":"noticesEpochRootHash","type":"bytes32","internalType":"bytes32"},{"name":"machineStateHash","type":"bytes32","internalType":"bytes32"},{"name":"outputHashInOutputHashesSiblings","type":"bytes32[]","internalType":"bytes32[]"},{"name":"outputHashesInEpochSiblings","type":"bytes32[]","internalType":"bytes32[]"}]},{"name":"context","type":"bytes","internalType":"bytes"}]},{"name":"stepRangesMax","type":"uint128[]","internalType":"uint128[]"},{"name":"stepCoefficients","type":"uint128[]","internalType":"uint128[]"}],"outputs":[{"name":"","type":"bytes32","internalType":"bytes32"}],"stateMutability":"nonpayable"},{"type":"function","name":"withdrawBalance","inputs":[{"name":"token","type":"address","internalType":"address"},{"name":"amount","type":"uint256","internalType":"uint256"}],"outputs":[],"stateMutability":"nonpayable"},{"type":"event","name":"ApprovalForAll","inputs":[{"name":"account","type":"address","indexed":true,"internalType":"address"},{"name":"operator","type":"address","indexed":true,"internalType":"address"},{"name":"approved","type":"bool","indexed":false,"internalType":"bool"}],"anonymous":false},{"type":"event","name":"Bond","inputs":[{"name":"id","type":"bytes32","indexed":true,"internalType":"bytes32"},{"name":"token","type":"address","indexed":true,"internalType":"address"},{"name":"currentPrice","type":"uint256","indexed":false,"internalType":"uint256"},{"name":"currentSupply","type":"uint256","indexed":false,"internalType":"uint256"},{"name":"currentBalance","type":"uint256","indexed":false,"internalType":"uint256"}],"anonymous":false},{"type":"event","name":"Buy","inputs":[{"name":"id","type":"bytes32","indexed":true,"internalType":"bytes32"},{"name":"user","type":"address","indexed":true,"internalType":"address"},{"name":"amountMinted","type":"uint256","indexed":false,"internalType":"uint256"},{"name":"pricePayed","type":"uint256","indexed":false,"internalType":"uint256"}],"anonymous":false},{"type":"event","name":"Consume","inputs":[{"name":"id","type":"bytes32","indexed":true,"internalType":"bytes32"},{"name":"user","type":"address","indexed":true,"internalType":"address"},{"name":"amountConsumed","type":"uint256","indexed":false,"internalType":"uint256"},{"name":"currencyDonated","type":"uint256","indexed":false,"internalType":"uint256"}],"anonymous":false},{"type":"event","name":"OwnershipTransferred","inputs":[{"name":"previousOwner","type":"address","indexed":true,"internalType":"address"},{"name":"newOwner","type":"address","indexed":true,"internalType":"address"}],"anonymous":false},{"type":"event","name":"Reward","inputs":[{"name":"id","type":"bytes32","indexed":true,"internalType":"bytes32"},{"name":"user","type":"address","indexed":true,"internalType":"address"},{"name":"token","type":"address","indexed":true,"internalType":"address"},{"name":"rewardType","type":"uint8","indexed":false,"internalType":"enum BondUtils.RewardType"},{"name":"amount","type":"uint256","indexed":false,"internalType":"uint256"}],"anonymous":false},{"type":"event","name":"Sell","inputs":[{"name":"id","type":"bytes32","indexed":true,"internalType":"bytes32"},{"name":"user","type":"address","indexed":true,"internalType":"address"},{"name":"amountBurned","type":"uint256","indexed":false,"internalType":"uint256"},{"name":"refundReceived","type":"uint256","indexed":false,"internalType":"uint256"}],"anonymous":false},{"type":"event","name":"TransferBatch","inputs":[{"name":"operator","type":"address","indexed":true,"internalType":"address"},{"name":"from","type":"address","indexed":true,"internalType":"address"},{"name":"to","type":"address","indexed":true,"internalType":"address"},{"name":"ids","type":"uint256[]","indexed":false,"internalType":"uint256[]"},{"name":"values","type":"uint256[]","indexed":false,"internalType":"uint256[]"}],"anonymous":false},{"type":"event","name":"TransferSingle","inputs":[{"name":"operator","type":"address","indexed":true,"internalType":"address"},{"name":"from","type":"address","indexed":true,"internalType":"address"},{"name":"to","type":"address","indexed":true,"internalType":"address"},{"name":"id","type":"uint256","indexed":false,"internalType":"uint256"},{"name":"value","type":"uint256","indexed":false,"internalType":"uint256"}],"anonymous":false},{"type":"event","name":"URI","inputs":[{"name":"value","type":"string","indexed":false,"internalType":"string"},{"name":"id","type":"uint256","indexed":true,"internalType":"uint256"}],"anonymous":false},{"type":"error","name":"Bond__InvalidAmount","inputs":[]},{"type":"error","name":"Cartridge__ChangeError","inputs":[]},{"type":"error","name":"Cartridge__InsufficientFunds","inputs":[]},{"type":"error","name":"Cartridge__InvalidCartridge","inputs":[{"name":"reason","type":"string","internalType":"string"}]},{"type":"error","name":"Cartridge__InvalidDapp","inputs":[]},{"type":"error","name":"Cartridge__InvalidOwner","inputs":[]},{"type":"error","name":"Cartridge__InvalidUser","inputs":[]},{"type":"error","name":"Cartridge__NotFound","inputs":[]},{"type":"error","name":"Cartridge__SlippageLimitExceeded","inputs":[]},{"type":"error","name":"ERC1155InsufficientBalance","inputs":[{"name":"sender","type":"address","internalType":"address"},{"name":"balance","type":"uint256","internalType":"uint256"},{"name":"needed","type":"uint256","internalType":"uint256"},{"name":"tokenId","type":"uint256","internalType":"uint256"}]},{"type":"error","name":"ERC1155InvalidApprover","inputs":[{"name":"approver","type":"address","internalType":"address"}]},{"type":"error","name":"ERC1155InvalidArrayLength","inputs":[{"name":"idsLength","type":"uint256","internalType":"uint256"},{"name":"valuesLength","type":"uint256","internalType":"uint256"}]},{"type":"error","name":"ERC1155InvalidOperator","inputs":[{"name":"operator","type":"address","internalType":"address"}]},{"type":"error","name":"ERC1155InvalidReceiver","inputs":[{"name":"receiver","type":"address","internalType":"address"}]},{"type":"error","name":"ERC1155InvalidSender","inputs":[{"name":"sender","type":"address","internalType":"address"}]},{"type":"error","name":"ERC1155MissingApprovalForAll","inputs":[{"name":"operator","type":"address","internalType":"address"},{"name":"owner","type":"address","internalType":"address"}]},{"type":"error","name":"OwnableInvalidOwner","inputs":[{"name":"owner","type":"address","internalType":"address"}]},{"type":"error","name":"OwnableUnauthorizedAccount","inputs":[{"name":"account","type":"address","internalType":"address"}]}],"bytecode":{"object":"0x60a06040523480156200001157600080fd5b5060405162005e7438038062005e74833981016040819052620000349162000679565b60408051602081019091526000815233906200005081620000e4565b506001600160a01b0381166200008057604051631e4fbdf760e01b81526000600482015260240160405180910390fd5b6200008b81620000f6565b50600c80546001600160a01b03808e166001600160a01b03199283161790925560808c90526008805492871692909116919091179055620000d3898989898988888862000148565b505050505050505050505062000a9c565b6002620000f282826200081d565b5050565b600380546001600160a01b038381166001600160a01b0319831681179093556040519116919082907f8be0079c531659141344cd1fd0a4f28419497f9722a3daafe3b4186f6b6457e090600090a35050565b60085460405163169f6b0560e11b81526001600160a01b038a8116600483015290911690632d3ed60a9060240160006040518083038186803b1580156200018e57600080fd5b505afa158015620001a3573d6000803e3d6000fd5b505060085460405163f610a03960e01b81526001600160a01b038b81166004830152909116925063f610a039915060240160006040518083038186803b158015620001ed57600080fd5b505afa15801562000202573d6000803e3d6000fd5b5050600854604051632286a71160e01b81526001600160a01b038a811660048301529091169250632286a711915060240160006040518083038186803b1580156200024c57600080fd5b505afa15801562000261573d6000803e3d6000fd5b505060085460405163130d243760e21b81526001600160a01b0389811660048301529091169250634c3490dc915060240160006040518083038186803b158015620002ab57600080fd5b505afa158015620002c0573d6000803e3d6000fd5b5050608051604051638716824d60e01b81526001600160a01b0388169350638716824d9250620002f891908690869060040162000930565b60006040518083038186803b1580156200031157600080fd5b505afa15801562000326573d6000803e3d6000fd5b50505050600460006200033a9190620004ec565b604051630a68458760e11b81526000906001600160a01b038616906314d08b0e9062000371908490879087908a9060040162000969565b600060405180830381865afa1580156200038f573d6000803e3d6000fd5b505050506040513d6000823e601f3d908101601f19168201604052620003b99190810190620009b2565b905060005b8151811015620004695760046040518060400160405280848481518110620003ea57620003ea62000a86565b6020026020010151600001516001600160801b0316815260200184848151811062000419576200041962000a86565b6020908102919091018101518101516001600160801b03908116909252835460018181018655600095865294829020845194909201518316600160801b02939092169290921791015501620003be565b5050600580546001600160a01b03199081166001600160a01b039a8b1617909155600680548216988a169890981790975550506007805486169487169490941790935560098054851692861692909217909155600a80549093169316929092179055600b80546001600160801b0319166001600160801b03909216919091179055565b50805460008255906000526020600020908101906200050c91906200050f565b50565b5b8082111562000526576000815560010162000510565b5090565b80516001600160a01b03811681146200054257600080fd5b919050565b80516001600160801b03811681146200054257600080fd5b634e487b7160e01b600052604160045260246000fd5b604080519081016001600160401b03811182821017156200059a576200059a6200055f565b60405290565b604051601f8201601f191681016001600160401b0381118282101715620005cb57620005cb6200055f565b604052919050565b60006001600160401b03821115620005ef57620005ef6200055f565b5060051b60200190565b600082601f8301126200060b57600080fd5b81516020620006246200061e83620005d3565b620005a0565b8083825260208201915060208460051b8701019350868411156200064757600080fd5b602086015b848110156200066e57620006608162000547565b83529183019183016200064c565b509695505050505050565b60008060008060008060008060008060006101608c8e0312156200069c57600080fd5b620006a78c6200052a565b9a5060208c01519950620006be60408d016200052a565b9850620006ce60608d016200052a565b9750620006de60808d016200052a565b9650620006ee60a08d016200052a565b9550620006fe60c08d016200052a565b94506200070e60e08d016200052a565b93506200071f6101008d0162000547565b6101208d01519093506001600160401b038111156200073d57600080fd5b6200074b8e828f01620005f9565b6101408e015190935090506001600160401b038111156200076b57600080fd5b620007798e828f01620005f9565b9150509295989b509295989b9093969950565b600181811c90821680620007a157607f821691505b602082108103620007c257634e487b7160e01b600052602260045260246000fd5b50919050565b601f82111562000818576000816000526020600020601f850160051c81016020861015620007f35750805b601f850160051c820191505b818110156200081457828155600101620007ff565b5050505b505050565b81516001600160401b038111156200083957620008396200055f565b62000851816200084a84546200078c565b84620007c8565b602080601f831160018114620008895760008415620008705750858301515b600019600386901b1c1916600185901b17855562000814565b600085815260208120601f198616915b82811015620008ba5788860151825594840194600190910190840162000899565b5085821015620008d95787850151600019600388901b60f8161c191681555b5050505050600190811b01905550565b60008151808452602080850194506020840160005b83811015620009255781516001600160801b031687529582019590820190600101620008fe565b509495945050505050565b8381526060602082015260006200094b6060830185620008e9565b82810360408401526200095f8185620008e9565b9695505050505050565b848152608060208201526000620009846080830186620008e9565b8281036040840152620009988186620008e9565b91505060018060801b038316606083015295945050505050565b60006020808385031215620009c657600080fd5b82516001600160401b03811115620009dd57600080fd5b8301601f81018513620009ef57600080fd5b805162000a006200061e82620005d3565b81815260069190911b8201830190838101908783111562000a2057600080fd5b928401925b8284101562000a7b576040848903121562000a405760008081fd5b62000a4a62000575565b62000a558562000547565b815262000a6486860162000547565b818701528252604093909301929084019062000a25565b979650505050505050565b634e487b7160e01b600052603260045260246000fd5b6080516153bc62000ab860003960006137d301526153bc6000f3fe6080604052600436106102665760003560e01c8063787ca43811610144578063d3c3b389116100b6578063ea6c68111161007a578063ea6c6811146107f0578063eba4c82f14610805578063f242432a14610825578063f2fde38b14610845578063fa1c4db614610865578063fd3bf34b146108a557600080fd5b8063d3c3b38914610738578063d5abeb0114610758578063db907f6714610790578063e308a099146107b0578063e985e9c5146107d057600080fd5b8063a22cb46511610108578063a22cb46514610656578063aca6d57214610676578063ad74b7751461068b578063af5baf44146106c3578063b16cae66146106e3578063bbfef0881461070357600080fd5b8063787ca438146105a85780637baa9fe8146105d85780637da36046146105f85780638da5cb5b146106185780639dc200e81461063657600080fd5b80632eb2c2d6116101dd5780633c973f06116101a15780633c973f06146104f357806342e201f4146105065780634e1273f41461052657806361b1a4c414610553578063715018a614610573578063724969e71461058857600080fd5b80632eb2c2d614610429578063305e1d731461044957806338a699a4146104695780633ab03c8b1461049b5780633b906e47146104d357600080fd5b80630cf20cc91161022f5780630cf20cc91461034b5780630e89341c1461036b57806312e6bacd146103985780631aba7deb146103b8578063226f877e146103d857806327b7ca5f1461040957600080fd5b8062fdd58e1461026b57806301ffc9a71461029e57806302fe5305146102ce578063056e9c55146102f057806306e8a9e71461032b575b600080fd5b34801561027757600080fd5b5061028b610286366004613fda565b6108c5565b6040519081526020015b60405180910390f35b3480156102aa57600080fd5b506102be6102b936600461401c565b6108ed565b6040519015158152602001610295565b3480156102da57600080fd5b506102ee6102e9366004614081565b61093d565b005b3480156102fc57600080fd5b5061031061030b3660046140c2565b610988565b60408051938452602084019290925290820152606001610295565b34801561033757600080fd5b5061028b610346366004614216565b610a88565b34801561035757600080fd5b506102ee610366366004613fda565b610aae565b34801561037757600080fd5b5061038b6103863660046140c2565b610ca7565b6040516102959190614328565b3480156103a457600080fd5b5061028b6103b336600461433b565b610d3b565b3480156103c457600080fd5b5061028b6103d336600461435d565b611033565b3480156103e457600080fd5b506103f86103f33660046140c2565b6114ea565b604051610295959493929190614486565b34801561041557600080fd5b506102ee6104243660046144ca565b6116dc565b34801561043557600080fd5b506102ee6104443660046145b5565b611742565b34801561045557600080fd5b5061028b6104643660046140c2565b6117a9565b34801561047557600080fd5b506102be6104843660046140c2565b6000908152600d6020526040902060010154151590565b3480156104a757600080fd5b506006546104bb906001600160a01b031681565b6040516001600160a01b039091168152602001610295565b3480156104df57600080fd5b506009546104bb906001600160a01b031681565b61028b61050136600461435d565b6117ca565b34801561051257600080fd5b506102ee6105213660046140c2565b611c15565b34801561053257600080fd5b50610546610541366004614662565b611d1d565b604051610295919061475f565b34801561055f57600080fd5b5061028b61056e366004614772565b611de9565b34801561057f57600080fd5b506102ee611e0b565b34801561059457600080fd5b506103106105a336600461433b565b611e1f565b3480156105b457600080fd5b506102be6105c33660046144ca565b60106020526000908152604090205460ff1681565b3480156105e457600080fd5b506007546104bb906001600160a01b031681565b34801561060457600080fd5b506102ee6106133660046147ea565b612187565b34801561062457600080fd5b506003546001600160a01b03166104bb565b34801561064257600080fd5b506102ee6106513660046148bb565b6121a9565b34801561066257600080fd5b506102ee610671366004614935565b6122d5565b34801561068257600080fd5b5061028b6122e0565b34801561069757600080fd5b5061028b6106a636600461496e565b600f60209081526000928352604080842090915290825290205481565b3480156106cf57600080fd5b50600a546104bb906001600160a01b031681565b3480156106ef57600080fd5b506103106106fe36600461433b565b612385565b34801561070f57600080fd5b5061072361071e36600461433b565b6126db565b60408051928352602083019190915201610295565b34801561074457600080fd5b506005546104bb906001600160a01b031681565b34801561076457600080fd5b50600b54610778906001600160801b031681565b6040516001600160801b039091168152602001610295565b34801561079c57600080fd5b506107786107ab3660046140c2565b6129a4565b3480156107bc57600080fd5b506102ee6107cb3660046144ca565b6129ef565b3480156107dc57600080fd5b506102be6107eb36600461496e565b612a45565b3480156107fc57600080fd5b50600e5461028b565b34801561081157600080fd5b506008546104bb906001600160a01b031681565b34801561083157600080fd5b506102ee61084036600461499c565b612a73565b34801561085157600080fd5b506102ee6108603660046144ca565b612ad2565b34801561087157600080fd5b506108856108803660046140c2565b612b10565b604080516001600160801b03938416815292909116602083015201610295565b3480156108b157600080fd5b506102ee6108c0366004614a04565b612b45565b6000818152602081815260408083206001600160a01b03861684529091529020545b92915050565b60006001600160e01b03198216636cdb3d1360e11b148061091e57506001600160e01b031982166303a24d0760e21b145b806108e757506301ffc9a760e01b6001600160e01b03198316146108e7565b610945612c79565b61098482828080601f016020809104026020016040519081016040528093929190818152602001838380828437600092019190915250612ca692505050565b5050565b6000818152600d602052604081206011018054829182916109a890614a29565b90506000036109f557604051639ffe2da160e01b81526020600482015260136024820152726361727472696467654f75747075744461746160681b60448201526064015b60405180910390fd5b6000848152600d602052604090819020600f8101549151637570c58b60e11b81526001600160a01b039092169163eae18b1691610a3a91601190910190600401614a5d565b606060405180830381865afa158015610a57573d6000803e3d6000fd5b505050506040513d601f19601f82011682018060405250810190610a7b9190614aed565b9250925092509193909250565b6000610a958784846121a9565b610aa28888888888612cb2565b98975050505050505050565b336000818152600f602090815260408083206001600160a01b0387168452909152902054821115610af2576040516368d134dd60e11b815260040160405180910390fd5b6001600160a01b038082166000908152600f6020908152604080832093871683529290529081208054849290610b29908490614b31565b90915550506001600160a01b03831615610c2e5760405163095ea7b360e01b8152306004820152602481018390526001600160a01b0384169063095ea7b3906044016020604051808303816000875af1158015610b8a573d6000803e3d6000fd5b505050506040513d601f19601f82011682018060405250810190610bae9190614b44565b506040516323b872dd60e01b81523060048201526001600160a01b038281166024830152604482018490528416906323b872dd906064016020604051808303816000875af1158015610c04573d6000803e3d6000fd5b505050506040513d601f19601f82011682018060405250810190610c289190614b44565b50505050565b6000816001600160a01b03168360405160006040518083038185875af1925050503d8060008114610c7b576040519150601f19603f3d011682016040523d82523d6000602084013e610c80565b606091505b5050905080610c28576040516303e717e760e51b815260040160405180910390fd5b505050565b606060028054610cb690614a29565b80601f0160208091040260200160405190810160405280929190818152602001828054610ce290614a29565b8015610d2f5780601f10610d0457610100808354040283529160200191610d2f565b820191906000526020600020905b815481529060010190602001808311610d1257829003601f168201915b50505050509050919050565b6000828152600d602052604081206001015483908203610d6e5760405163f87e48db60e01b815260040160405180910390fd5b6000336000868152600d60205260408082206008549151633ac2ef4160e21b81529394509282916001600160a01b03169063eb0bbd0490610db5908a908790600401614baa565b6040805180830381865afa158015610dd1573d6000803e3d6000fd5b505050506040513d601f19601f82011682018060405250810190610df59190614c7d565b600e850154604051630c1d341f60e31b81526004810184905292945090925060009182916001600160a01b0316906360e9a0f8906024016040805180830381865afa158015610e48573d6000803e3d6000fd5b505050506040513d601f19601f82011682018060405250810190610e6c9190614c7d565b9092509050610e7c868b8b61319d565b88856000016003016000828254610e939190614b31565b9091555050600285018054859190600090610eaf908490614b31565b9091555050600d850180548a9190600090610ecb908490614ca1565b909155505060058501839055610ee18a82613205565b6008860180549192508291600090610efa908490614ca1565b9091555050600c546001600160a01b039081166000908152600f60209081526040808320895490941683529290529081208054849290610f3b908490614ca1565b90915550508454600c546040516001600160a01b0392831692909116908c9060008051602061536783398151915290610f78906000908890614cb4565b60405180910390a4604080518a8152602081018690526001600160a01b038816918c917fff8a4589f2e064f9b82f2aec48ea80dbf6a8f623d3bd76d954da82ec4ea0079f910160405180910390a38454600486015460038701546002880154604080519384526020840192909252908201526001600160a01b03909116908b907f2e67857c5e095aa37c99fc8a2a3d065e50197554891c3cf1f318b1996b66469c9060600160405180910390a3509198975050505050505050565b6000838152600d6020526040812060010154849082036110665760405163f87e48db60e01b815260040160405180910390fd5b6000336000878152600d60205260408082206008549151635e15de9560e11b81529394509282916001600160a01b03169063bc2bbd2a906110ad908b908790600401614baa565b6040805180830381865afa1580156110c9573d6000803e3d6000fd5b505050506040513d601f19601f820116820180604052508101906110ed9190614c7d565b600e85015460405163f5b0402760e01b8152600481018c90526024810184905292945090925060009182916001600160a01b03169063f5b04027906044016040805180830381865afa158015611147573d6000803e3d6000fd5b505050506040513d601f19601f8201168201806040525081019061116b9190614c7d565b9092509050600061117c8284614ca1565b6111869086614b31565b9050898110156111a9576040516303158fa960e31b815260040160405180910390fd5b6111b4878d8d61319d565b848660000160020160008282546111cb9190614b31565b90915550506003860180548c91906000906111e7908490614b31565b9091555050600c860180548c9190600090611203908490614ca1565b9091555050600486018490556112198c83613205565b6007870180549193508391600090611232908490614ca1565b9091555050600c546001600160a01b039081166000908152600f602090815260408083208a5490941683529290529081208054859290611273908490614ca1565b90915550508554600c546040516001600160a01b0392831692909116908e90600080516020615367833981519152906112b0906000908990614cb4565b60405180910390a485546001600160a01b0316156113bf57855460405163095ea7b360e01b8152306004820152602481018390526001600160a01b039091169063095ea7b3906044016020604051808303816000875af1158015611318573d6000803e3d6000fd5b505050506040513d601f19601f8201168201806040525081019061133c9190614b44565b5085546040516323b872dd60e01b81523060048201526001600160a01b03898116602483015260448201849052909116906323b872dd906064016020604051808303816000875af1158015611395573d6000803e3d6000fd5b505050506040513d601f19601f820116820180604052508101906113b99190614b44565b50611435565b6000876001600160a01b03168260405160006040518083038185875af1925050503d806000811461140c576040519150601f19603f3d011682016040523d82523d6000602084013e611411565b606091505b5050905080611433576040516303e717e760e51b815260040160405180910390fd5b505b604080518c8152602081018390526001600160a01b038916918e917f47d38b8b50e4b792e507faad951cda2457545e704f667a3e32f22541945ebbf691015b60405180910390a38554600487015460038801546002890154604080519384526020840192909252908201526001600160a01b03909116908d907f2e67857c5e095aa37c99fc8a2a3d065e50197554891c3cf1f318b1996b66469c9060600160405180910390a39b9a5050505050505050505050565b600d60209081526000918252604080832081516101008101835281546001600160a01b03168152600182018054845181870281018701909552808552929591948694868201949093909184015b8282101561158057600084815260209081902060408051808201909152908401546001600160801b038082168352600160801b9091041681830152825260019092019101611537565b505050908252506002820154602080830191909152600383015460408084019190915260048401546060808501919091526005850154608080860191909152825160a0808201855260068801548252600788015482870152600888015482860152600988015482850152600a880154928201929092529085015281519081018252600b8501548152600c85015492810192909252600d909301549281019290925260c00152600e820154600f830154601084015460118501805494956001600160a01b0394851695938516949092169261165990614a29565b80601f016020809104026020016040519081016040528092919081815260200182805461168590614a29565b80156116d25780601f106116a7576101008083540402835291602001916116d2565b820191906000526020600020905b8154815290600101906020018083116116b557829003601f168201915b5050505050905085565b6116e4612c79565b6001600160a01b03811660009081526010602052604090205460ff161561171e576040516314949b1360e21b815260040160405180910390fd5b6001600160a01b03166000908152601060205260409020805460ff19166001179055565b336001600160a01b038616811480159061176357506117618682612a45565b155b156117945760405163711bec9160e11b81526001600160a01b038083166004830152871660248201526044016109ec565b6117a18686868686613375565b505050505050565b600e81815481106117b957600080fd5b600091825260209091200154905081565b6000838152600d6020526040812060010154849082036117fd5760405163f87e48db60e01b815260040160405180910390fd5b6000336000878152600d602052604080822060085491516369db39e760e11b81529394509282916001600160a01b03169063d3b673ce90611844908b908790600401614baa565b6040805180830381865afa158015611860573d6000803e3d6000fd5b505050506040513d601f19601f820116820180604052508101906118849190614c7d565b91509150600080846000016001016000815481106118a4576118a4614ce0565b600091825260209091200154600160801b90046001600160801b03161561194057600e8501546040516370f986fd60e01b8152600481018c9052602481018690526001600160a01b03909116906370f986fd906044016040805180830381865afa158015611916573d6000803e3d6000fd5b505050506040513d601f19601f8201168201806040525081019061193a9190614c7d565b90925090505b60008161194d8487614ca1565b6119579190614ca1565b90508981111561197a576040516303158fa960e31b815260040160405180910390fd5b85546001600160a01b031615611a0c5785546040516323b872dd60e01b81526001600160a01b03898116600483015230602483015260448201849052909116906323b872dd906064016020604051808303816000875af11580156119e2573d6000803e3d6000fd5b505050506040513d601f19601f82011682018060405250810190611a069190614b44565b50611ab0565b80341015611a2d576040516350b30ba960e01b815260040160405180910390fd5b80341115611ab05760006001600160a01b038816611a4b8334614b31565b604051600081818185875af1925050503d8060008114611a87576040519150601f19603f3d011682016040523d82523d6000602084013e611a8c565b606091505b5050905080611aae576040516303e717e760e51b815260040160405180910390fd5b505b84866000016002016000828254611ac79190614ca1565b90915550506003860180548c9190600090611ae3908490614ca1565b9091555050600b860180548c9190600090611aff908490614ca1565b909155505060048601849055611b158c83613205565b6006870180549193508391600090611b2e908490614ca1565b9091555050600c546001600160a01b039081166000908152600f602090815260408083208a5490941683529290529081208054859290611b6f908490614ca1565b90915550508554600c546040516001600160a01b0392831692909116908e9060008051602061536783398151915290611bac906000908990614cb4565b60405180910390a4611bd2878d60001c8d604051806020016040528060008152506133d5565b604080518c8152602081018390526001600160a01b038916918e917f5bd6f821d5961785d719543640cf62d3770f94e59db1a2f3c2250d72b122dddf9101611474565b60095460405163273bed1d60e21b81523360048201526024810183905282916001600160a01b031690639cefb47490604401602060405180830381865afa158015611c64573d6000803e3d6000fd5b505050506040513d601f19601f82011682018060405250810190611c889190614b44565b611ca5576040516319e2f96560e31b815260040160405180910390fd5b610984826004805480602002602001604051908101604052809291908181526020016000905b82821015611d1457600084815260209081902060408051808201909152908401546001600160801b038082168352600160801b9091041681830152825260019092019101611ccb565b50505050613432565b60608151835114611d4e5781518351604051635b05999160e01b8152600481019290925260248201526044016109ec565b600083516001600160401b03811115611d6957611d696140ed565b604051908082528060200260200182016040528015611d92578160200160208202803683370190505b50905060005b8451811015611de157602080820286010151611dbc906020808402870101516108c5565b828281518110611dce57611dce614ce0565b6020908102919091010152600101611d98565b509392505050565b6000611df485611c15565b611e018686868686612cb2565b9695505050505050565b611e13612c79565b611e1d60006135e9565b565b6000828152600d6020526040812060010154819081908103611e545760405163f87e48db60e01b815260040160405180910390fd5b6000858152600d6020908152604080832081516101a08101835281546001600160a01b031660a082019081526001830180548551818802810188019096528086529295939486949293869360c087019391908a9084015b82821015611ef457600084815260209081902060408051808201909152908401546001600160801b038082168352600160801b9091041681830152825260019092019101611eab565b505050908252506002820154602080830191909152600383015460408084019190915260048401546060808501919091526005850154608080860191909152825160a0818101855260068801548252600788015482870152600888015482860152600988015482850152600a8801548284015286015282518083018452600b8701548152600c87015481860152600d909601548684015260c090940194909452938552600e8601546001600160a01b0390811691860191909152600f8601548116938501939093526010850154909216908301526011830180549290910191611fdc90614a29565b80601f016020809104026020016040519081016040528092919081815260200182805461200890614a29565b80156120555780601f1061202a57610100808354040283529160200191612055565b820191906000526020600020905b81548152906001019060200180831161203857829003601f168201915b50505091909252505060085482516040516369db39e760e11b81529394506000938493506001600160a01b039092169163d3b673ce9161209a918b9190600401614cf6565b6040805180830381865afa1580156120b6573d6000803e3d6000fd5b505050506040513d601f19601f820116820180604052508101906120da9190614c7d565b60208501516040516370f986fd60e01b8152600481018b90526024810184905292945090925060009182916001600160a01b0316906370f986fd906044016040805180830381865afa158015612134573d6000803e3d6000fd5b505050506040513d601f19601f820116820180604052508101906121589190614c7d565b909250905060006121698284614ca1565b90506121758186614ca1565b98509650919450505050509250925092565b61218f612c79565b61219f888888888888888861363b565b5050505050505050565b60095460405163273bed1d60e21b81523360048201526024810185905284916001600160a01b031690639cefb47490604401602060405180830381865afa1580156121f8573d6000803e3d6000fd5b505050506040513d601f19601f8201168201806040525081019061221c9190614b44565b612239576040516319e2f96560e31b815260040160405180910390fd5b600a54600b54604051630a68458760e11b81526000926001600160a01b0316916314d08b0e9161227d918991899189916001600160801b0390911690600401614d49565b600060405180830381865afa15801561229a573d6000803e3d6000fd5b505050506040513d6000823e601f3d908101601f191682016040526122c29190810190614d8f565b90506122ce8582613432565b5050505050565b6109843383836139eb565b60008060005b600e5481101561237f57600d6000600e838154811061230757612307614ce0565b90600052602060002001548152602001908152602001600020600001600b0160020154600d6000600e848154811061234157612341614ce0565b906000526020600020015481526020019081526020016000206000016003015461236b9190614b31565b6123759083614ca1565b91506001016122e6565b50919050565b6000828152600d60205260408120600101548190819081036123ba5760405163f87e48db60e01b815260040160405180910390fd5b6000858152600d6020908152604080832081516101a08101835281546001600160a01b031660a082019081526001830180548551818802810188019096528086529295939486949293869360c087019391908a9084015b8282101561245a57600084815260209081902060408051808201909152908401546001600160801b038082168352600160801b9091041681830152825260019092019101612411565b505050908252506002820154602080830191909152600383015460408084019190915260048401546060808501919091526005850154608080860191909152825160a0818101855260068801548252600788015482870152600888015482860152600988015482850152600a8801548284015286015282518083018452600b8701548152600c87015481860152600d909601548684015260c090940194909452938552600e8601546001600160a01b0390811691860191909152600f860154811693850193909352601085015490921690830152601183018054929091019161254290614a29565b80601f016020809104026020016040519081016040528092919081815260200182805461256e90614a29565b80156125bb5780601f10612590576101008083540402835291602001916125bb565b820191906000526020600020905b81548152906001019060200180831161259e57829003601f168201915b5050509190925250506008548251604051635e15de9560e11b81529394506000938493506001600160a01b039092169163bc2bbd2a91612600918b9190600401614cf6565b6040805180830381865afa15801561261c573d6000803e3d6000fd5b505050506040513d601f19601f820116820180604052508101906126409190614c7d565b602085015160405163f5b0402760e01b8152600481018b90526024810184905292945090925060009182916001600160a01b03169063f5b04027906044016040805180830381865afa15801561269a573d6000803e3d6000fd5b505050506040513d601f19601f820116820180604052508101906126be9190614c7d565b909250905060006126cf8284614ca1565b90506121758186614b31565b6000828152600d60205260408120600101548190810361270e5760405163f87e48db60e01b815260040160405180910390fd5b6000848152600d6020908152604080832081516101a08101835281546001600160a01b031660a082019081526001830180548551818802810188019096528086529295939486949293869360c087019391908a9084015b828210156127ae57600084815260209081902060408051808201909152908401546001600160801b038082168352600160801b9091041681830152825260019092019101612765565b505050908252506002820154602080830191909152600383015460408084019190915260048401546060808501919091526005850154608080860191909152825160a0818101855260068801548252600788015482870152600888015482860152600988015482850152600a8801548284015286015282518083018452600b8701548152600c87015481860152600d909601548684015260c090940194909452938552600e8601546001600160a01b0390811691860191909152600f860154811693850193909352601085015490921690830152601183018054929091019161289690614a29565b80601f01602080910402602001604051908101604052809291908181526020018280546128c290614a29565b801561290f5780601f106128e45761010080835404028352916020019161290f565b820191906000526020600020905b8154815290600101906020018083116128f257829003601f168201915b5050509190925250506008548251604051633ac2ef4160e21b81529394506000938493506001600160a01b039092169163eb0bbd0491612954918a9190600401614cf6565b6040805180830381865afa158015612970573d6000803e3d6000fd5b505050506040513d601f19601f820116820180604052508101906129949190614c7d565b90955093505050505b9250929050565b6000818152600d602052604081206001908101805490916129c491614b31565b815481106129d4576129d4614ce0565b6000918252602090912001546001600160801b031692915050565b600c546001600160a01b0316336001600160a01b031614612a2357604051631a2a416760e21b815260040160405180910390fd5b600c80546001600160a01b0319166001600160a01b0392909216919091179055565b6001600160a01b03918216600090815260016020908152604080832093909416825291909152205460ff1690565b336001600160a01b0386168114801590612a945750612a928682612a45565b155b15612ac55760405163711bec9160e11b81526001600160a01b038083166004830152871660248201526044016109ec565b6117a18686868686613a81565b612ada612c79565b6001600160a01b038116612b0457604051631e4fbdf760e01b8152600060048201526024016109ec565b612b0d816135e9565b50565b60048181548110612b2057600080fd5b6000918252602090912001546001600160801b038082169250600160801b9091041682565b612b4d612c79565b6000828152600d60205260408120600101549003612b7e5760405163f87e48db60e01b815260040160405180910390fd5b6000828152600d602052604081206011018054612b9a90614a29565b90501115612beb57604051639ffe2da160e01b815260206004820152601b60248201527f43617274726964676520616c72656164792076616c696461746564000000000060448201526064016109ec565b600854604051632286a71160e01b81526001600160a01b03838116600483015290911690632286a7119060240160006040518083038186803b158015612c3057600080fd5b505afa158015612c44573d6000803e3d6000fd5b505050600092835250600d6020526040909120600f0180546001600160a01b0319166001600160a01b03909216919091179055565b6003546001600160a01b03163314611e1d5760405163118cdaa760e01b81523360048201526024016109ec565b60026109848282614e9f565b6000848152600d60205260408120601181018054612ccf90614a29565b159050612d1357604051639ffe2da160e01b8152602060048201526011602482015270185b1c9958591e481d985b1a59185d1959607a1b60448201526064016109ec565b6001600160a01b03871660009081526010602052604090205460ff16612d4c576040516314949b1360e21b815260040160405180910390fd5b604051634b243ea360e11b81526001600160a01b038816906396487d4690612d7c9088908890889060040161505d565b602060405180830381865afa158015612d99573d6000803e3d6000fd5b505050506040513d601f19601f82011682018060405250810190612dbd9190614b44565b50600f810154604051636e40c63360e11b815260009182916001600160a01b039091169063dc818c6690612df7908a908a9060040161516c565b6040805180830381865afa158015612e13573d6000803e3d6000fd5b505050506040513d601f19601f82011682018060405250810190612e379190615180565b91509150818814612e7957604051639ffe2da160e01b815260206004820152600b60248201526a18d85c9d1c9a5919d9525960aa1b60448201526064016109ec565b6010830180546001600160a01b0319166001600160a01b03831617905560118301612ea58789836151a5565b50600683015460009015612fb057600e840154600b85015460068601546040516370f986fd60e01b81526000936001600160a01b0316926370f986fd92612ef792600401918252602082015260400190565b6040805180830381865afa158015612f13573d6000803e3d6000fd5b505050506040513d601f19601f82011682018060405250810190612f379190614c7d565b60068701549092508211159050612f8557604051639ffe2da160e01b8152602060048201526011602482015270756e636c61696d65644d696e744665657360781b60448201526064016109ec565b600685018054829190600090612f9c908490614b31565b90915550612fac90508183614ca1565b9150505b6007840154156130b757600e840154600c850154600786015460405163f5b0402760e01b81526000936001600160a01b03169263f5b0402792612ffe92600401918252602082015260400190565b6040805180830381865afa15801561301a573d6000803e3d6000fd5b505050506040513d601f19601f8201168201806040525081019061303e9190614c7d565b6007870154909250821115905061308c57604051639ffe2da160e01b8152602060048201526011602482015270756e636c61696d65644275726e4665657360781b60448201526064016109ec565b6007850180548291906000906130a3908490614b31565b909155506130b390508183614ca1565b9150505b6130c18982613205565b50600784015460068501546000916130d891614ca1565b9050801561317657600785015460068601546130f49190614ca1565b600c546001600160a01b039081166000908152600f602090815260408083208a5490941683529290529081208054909190613130908490614ca1565b90915550508454600c546040516001600160a01b0392831692909116908c906000805160206153678339815191529061316d906003908790614cb4565b60405180910390a45b505060006006840181905560078401819055600a9093019290925550949695505050505050565b6001600160a01b0383166131c657604051626a0d4560e21b8152600060048201526024016109ec565b604080516001808252602082018590528183019081526060820184905260a082019092526000608082018181529192916122ce91879185908590613b0f565b6000828152600d6020526040812060118101805483919061322590614a29565b9050111561336d5760108101546000906001600160a01b0316156132cd5760108201546001600160a01b039081166000908152600f60209081526040808320865490941683529290529081208054869290613281908490614ca1565b9091555050815460108301546040516001600160a01b0392831692909116908790600080516020615367833981519152906132c0906004908a90614cb4565b60405180910390a46132da565b6132d78482614ca1565b90505b801561336257600c546001600160a01b039081166000908152600f6020908152604080832086549094168352929052908120805483929061331c908490614ca1565b90915550508154600c546040516001600160a01b039283169290911690879060008051602061536783398151915290613359906003908790614cb4565b60405180910390a45b6000925050506108e7565b509092915050565b6001600160a01b03841661339f57604051632bfa23e760e11b8152600060048201526024016109ec565b6001600160a01b0385166133c857604051626a0d4560e21b8152600060048201526024016109ec565b6122ce8585858585613b0f565b6001600160a01b0384166133ff57604051632bfa23e760e11b8152600060048201526024016109ec565b604080516001808252602082018690528183019081526060820185905260808201909252906117a1600087848487613b0f565b6000828152600d60205260408120600101549003610984576000828152600d60205260408120600654600e820180546001600160a01b039283166001600160a01b0319918216179091556005548354908316908216178355600754600f84018054919093169116179055905b8251811015613546578160000160010160405180604001604052808584815181106134cb576134cb614ce0565b6020026020010151600001516001600160801b031681526020018584815181106134f7576134f7614ce0565b6020908102919091018101518101516001600160801b03908116909252835460018181018655600095865294829020845194909201518316600160801b0293909216929092179101550161349e565b50600e80546001818101835560009283527fbb7b4a454dc3493923482f07822329ed19e8244eff582cc204f8554c3620c3fd9091018590558201805490919061359157613591614ce0565b6000918252602082200154600160801b90046001600160801b03169003610ca257610c2883826000016001016000815481106135cf576135cf614ce0565b60009182526020822001546001600160801b0316906117ca565b600380546001600160a01b038381166001600160a01b0319831681179093556040519116919082907f8be0079c531659141344cd1fd0a4f28419497f9722a3daafe3b4186f6b6457e090600090a35050565b60085460405163169f6b0560e11b81526001600160a01b038a8116600483015290911690632d3ed60a9060240160006040518083038186803b15801561368057600080fd5b505afa158015613694573d6000803e3d6000fd5b505060085460405163f610a03960e01b81526001600160a01b038b81166004830152909116925063f610a039915060240160006040518083038186803b1580156136dd57600080fd5b505afa1580156136f1573d6000803e3d6000fd5b5050600854604051632286a71160e01b81526001600160a01b038a811660048301529091169250632286a711915060240160006040518083038186803b15801561373a57600080fd5b505afa15801561374e573d6000803e3d6000fd5b505060085460405163130d243760e21b81526001600160a01b0389811660048301529091169250634c3490dc915060240160006040518083038186803b15801561379757600080fd5b505afa1580156137ab573d6000803e3d6000fd5b5050604051638716824d60e01b81526001600160a01b0387169250638716824d91506137ff907f00000000000000000000000000000000000000000000000000000000000000009086908690600401615264565b60006040518083038186803b15801561381757600080fd5b505afa15801561382b573d6000803e3d6000fd5b505050506004600061383d9190613f83565b604051630a68458760e11b81526000906001600160a01b038616906314d08b0e90613872908490879087908a90600401614d49565b600060405180830381865afa15801561388f573d6000803e3d6000fd5b505050506040513d6000823e601f3d908101601f191682016040526138b79190810190614d8f565b905060005b815181101561395f57600460405180604001604052808484815181106138e4576138e4614ce0565b6020026020010151600001516001600160801b0316815260200184848151811061391057613910614ce0565b6020908102919091018101518101516001600160801b03908116909252835460018181018655600095865294829020845194909201518316600160801b029390921692909217910155016138bc565b5050600580546001600160a01b03199081166001600160a01b039a8b1617909155600680548216988a169890981790975550506007805486169487169490941790935560098054851692861692909217909155600a80549093169316929092179055600b80546fffffffffffffffffffffffffffffffff19166001600160801b03909216919091179055565b6001600160a01b038216613a145760405162ced3e160e81b8152600060048201526024016109ec565b6001600160a01b03838116600081815260016020908152604080832094871680845294825291829020805460ff191686151590811790915591519182527f17307eab39ab6107e8899845ad3d59bd9653f200f220920489ca2b5937696c31910160405180910390a3505050565b6001600160a01b038416613aab57604051632bfa23e760e11b8152600060048201526024016109ec565b6001600160a01b038516613ad457604051626a0d4560e21b8152600060048201526024016109ec565b60408051600180825260208201869052818301908152606082018590526080820190925290613b068787848487613b0f565b50505050505050565b613b1b85858585613b62565b6001600160a01b038416156122ce5782513390600103613b545760208481015190840151613b4d838989858589613d76565b50506117a1565b6117a1818787878787613e9a565b8051825114613b915781518151604051635b05999160e01b8152600481019290925260248201526044016109ec565b3360005b8351811015613c97576020818102858101820151908501909101516001600160a01b03881615613c48576000828152602081815260408083206001600160a01b038c16845290915290205481811015613c21576040516303dee4c560e01b81526001600160a01b038a1660048201526024810182905260448101839052606481018490526084016109ec565b6000838152602081815260408083206001600160a01b038d16845290915290209082900390555b6001600160a01b03871615613c8d576000828152602081815260408083206001600160a01b038b16845290915281208054839290613c87908490614ca1565b90915550505b5050600101613b95565b508251600103613d185760208301516000906020840151909150856001600160a01b0316876001600160a01b0316846001600160a01b03167fc3d58168c5ae7397731d063d5bbf3d657854427343f4c083240f7aacaa2d0f628585604051613d09929190918252602082015260400190565b60405180910390a450506122ce565b836001600160a01b0316856001600160a01b0316826001600160a01b03167f4a39dc06d4c0dbc64b70af90fd698a233a518aa5d07e595d983b8c0526c8f7fb8686604051613d6792919061528f565b60405180910390a45050505050565b6001600160a01b0384163b156117a15760405163f23a6e6160e01b81526001600160a01b0385169063f23a6e6190613dba90899089908890889088906004016152bd565b6020604051808303816000875af1925050508015613df5575060408051601f3d908101601f19168201909252613df2918101906152f7565b60015b613e5e573d808015613e23576040519150601f19603f3d011682016040523d82523d6000602084013e613e28565b606091505b508051600003613e5657604051632bfa23e760e11b81526001600160a01b03861660048201526024016109ec565b805181602001fd5b6001600160e01b0319811663f23a6e6160e01b14613b0657604051632bfa23e760e11b81526001600160a01b03861660048201526024016109ec565b6001600160a01b0384163b156117a15760405163bc197c8160e01b81526001600160a01b0385169063bc197c8190613ede9089908990889088908890600401615314565b6020604051808303816000875af1925050508015613f19575060408051601f3d908101601f19168201909252613f16918101906152f7565b60015b613f47573d808015613e23576040519150601f19603f3d011682016040523d82523d6000602084013e613e28565b6001600160e01b0319811663bc197c8160e01b14613b0657604051632bfa23e760e11b81526001600160a01b03861660048201526024016109ec565b5080546000825590600052602060002090810190612b0d91905b80821115613fb15760008155600101613f9d565b5090565b6001600160a01b0381168114612b0d57600080fd5b8035613fd581613fb5565b919050565b60008060408385031215613fed57600080fd5b8235613ff881613fb5565b946020939093013593505050565b6001600160e01b031981168114612b0d57600080fd5b60006020828403121561402e57600080fd5b813561403981614006565b9392505050565b60008083601f84011261405257600080fd5b5081356001600160401b0381111561406957600080fd5b60208301915083602082850101111561299d57600080fd5b6000806020838503121561409457600080fd5b82356001600160401b038111156140aa57600080fd5b6140b685828601614040565b90969095509350505050565b6000602082840312156140d457600080fd5b5035919050565b60006040828403121561237f57600080fd5b634e487b7160e01b600052604160045260246000fd5b604080519081016001600160401b0381118282101715614125576141256140ed565b60405290565b604051601f8201601f191681016001600160401b0381118282101715614153576141536140ed565b604052919050565b60006001600160401b03821115614174576141746140ed565b5060051b60200190565b6001600160801b0381168114612b0d57600080fd5b8035613fd58161417e565b600082601f8301126141af57600080fd5b813560206141c46141bf8361415b565b61412b565b8083825260208201915060208460051b8701019350868411156141e657600080fd5b602086015b8481101561420b5780356141fe8161417e565b83529183019183016141eb565b509695505050505050565b600080600080600080600060c0888a03121561423157600080fd5b61423a88613fca565b96506020880135955060408801356001600160401b038082111561425d57600080fd5b6142698b838c01614040565b909750955060608a013591508082111561428257600080fd5b61428e8b838c016140db565b945060808a01359150808211156142a457600080fd5b6142b08b838c0161419e565b935060a08a01359150808211156142c657600080fd5b506142d38a828b0161419e565b91505092959891949750929550565b6000815180845260005b81811015614308576020818501810151868301820152016142ec565b506000602082860101526020601f19601f83011685010191505092915050565b60208152600061403960208301846142e2565b6000806040838503121561434e57600080fd5b50508035926020909101359150565b60008060006060848603121561437257600080fd5b505081359360208301359350604090920135919050565b80516001600160a01b031682526020808201516101c082850181905281519085018190526000926101e086019281019184905b808210156143f457835180516001600160801b03908116875290840151168386015260409094019392820192600191909101906143bc565b5050505060408301516040850152606083015160608501526080830151608085015260a083015160a085015260c083015161445d60c086018280518252602081015160208301526040810151604083015260608101516060830152608081015160808301525050565b5060e08301518051610160860152602081015161018086015260408101516101a0860152611de1565b60a08152600061449960a0830188614389565b6001600160a01b0387811660208501528681166040850152851660608401528281036080840152610aa281856142e2565b6000602082840312156144dc57600080fd5b813561403981613fb5565b600082601f8301126144f857600080fd5b813560206145086141bf8361415b565b8083825260208201915060208460051b87010193508684111561452a57600080fd5b602086015b8481101561420b578035835291830191830161452f565b600082601f83011261455757600080fd5b81356001600160401b03811115614570576145706140ed565b614583601f8201601f191660200161412b565b81815284602083860101111561459857600080fd5b816020850160208301376000918101602001919091529392505050565b600080600080600060a086880312156145cd57600080fd5b85356145d881613fb5565b945060208601356145e881613fb5565b935060408601356001600160401b038082111561460457600080fd5b61461089838a016144e7565b9450606088013591508082111561462657600080fd5b61463289838a016144e7565b9350608088013591508082111561464857600080fd5b5061465588828901614546565b9150509295509295909350565b6000806040838503121561467557600080fd5b82356001600160401b038082111561468c57600080fd5b818501915085601f8301126146a057600080fd5b813560206146b06141bf8361415b565b82815260059290921b840181019181810190898411156146cf57600080fd5b948201945b838610156146f65785356146e781613fb5565b825294820194908201906146d4565b9650508601359250508082111561470c57600080fd5b50614719858286016144e7565b9150509250929050565b60008151808452602080850194506020840160005b8381101561475457815187529582019590820190600101614738565b509495945050505050565b6020815260006140396020830184614723565b60008060008060006080868803121561478a57600080fd5b853561479581613fb5565b94506020860135935060408601356001600160401b03808211156147b857600080fd5b6147c489838a01614040565b909550935060608801359150808211156147dd57600080fd5b50614655888289016140db565b600080600080600080600080610100898b03121561480757600080fd5b883561481281613fb5565b9750602089013561482281613fb5565b9650604089013561483281613fb5565b9550606089013561484281613fb5565b9450608089013561485281613fb5565b935061486060a08a01614193565b925060c08901356001600160401b038082111561487c57600080fd5b6148888c838d0161419e565b935060e08b013591508082111561489e57600080fd5b506148ab8b828c0161419e565b9150509295985092959890939650565b6000806000606084860312156148d057600080fd5b8335925060208401356001600160401b03808211156148ee57600080fd5b6148fa8783880161419e565b9350604086013591508082111561491057600080fd5b5061491d8682870161419e565b9150509250925092565b8015158114612b0d57600080fd5b6000806040838503121561494857600080fd5b823561495381613fb5565b9150602083013561496381614927565b809150509250929050565b6000806040838503121561498157600080fd5b823561498c81613fb5565b9150602083013561496381613fb5565b600080600080600060a086880312156149b457600080fd5b85356149bf81613fb5565b945060208601356149cf81613fb5565b9350604086013592506060860135915060808601356001600160401b038111156149f857600080fd5b61465588828901614546565b60008060408385031215614a1757600080fd5b82359150602083013561496381613fb5565b600181811c90821680614a3d57607f821691505b60208210810361237f57634e487b7160e01b600052602260045260246000fd5b6000602080835260008454614a7181614a29565b8060208701526040600180841660008114614a935760018114614aaf57614adf565b60ff19851660408a0152604084151560051b8a01019550614adf565b89600052602060002060005b85811015614ad65781548b8201860152908301908801614abb565b8a016040019650505b509398975050505050505050565b600080600060608486031215614b0257600080fd5b8351925060208401519150604084015190509250925092565b634e487b7160e01b600052601160045260246000fd5b818103818111156108e7576108e7614b1b565b600060208284031215614b5657600080fd5b815161403981614927565b600081548084526020808501945083600052602060002060005b838110156147545781546001600160801b038116885260801c8388015260409096019560019182019101614b7b565b82815260406020820152614bd960408201614bcc84546001600160a01b031690565b6001600160a01b03169052565b6101c060608201526000614bf4610200830160018501614b61565b60028401546080840152600384015460a0840152600484015460c0840152600584015460e08401526006840154610100840152600784015461012084015260088401546101408401526009840154610160840152600a840154610180840152600b8401546101a0840152600c8401546101c0840152600d8401546101e08401525b949350505050565b60008060408385031215614c9057600080fd5b505080516020909101519092909150565b808201808211156108e7576108e7614b1b565b6040810160068410614cd657634e487b7160e01b600052602160045260246000fd5b9281526020015290565b634e487b7160e01b600052603260045260246000fd5b828152604060208201526000614c756040830184614389565b60008151808452602080850194506020840160005b838110156147545781516001600160801b031687529582019590820190600101614d24565b848152608060208201526000614d626080830186614d0f565b8281036040840152614d748186614d0f565b9150506001600160801b038316606083015295945050505050565b60006020808385031215614da257600080fd5b82516001600160401b03811115614db857600080fd5b8301601f81018513614dc957600080fd5b8051614dd76141bf8261415b565b81815260069190911b82018301908381019087831115614df657600080fd5b928401925b82841015614e4c5760408489031215614e145760008081fd5b614e1c614103565b8451614e278161417e565b815284860151614e368161417e565b8187015282526040939093019290840190614dfb565b979650505050505050565b601f821115610ca2576000816000526020600020601f850160051c81016020861015614e805750805b601f850160051c820191505b818110156117a157828155600101614e8c565b81516001600160401b03811115614eb857614eb86140ed565b614ecc81614ec68454614a29565b84614e57565b602080601f831160018114614f015760008415614ee95750858301515b600019600386901b1c1916600185901b1785556117a1565b600085815260208120601f198616915b82811015614f3057888601518255948401946001909101908401614f11565b5085821015614f4e5787850151600019600388901b60f8161c191681555b5050505050600190811b01905550565b81835281816020850137506000828201602090810191909152601f909101601f19169091010190565b80356001600160401b0381168114613fd557600080fd5b6000808335601e19843603018112614fb557600080fd5b83016020810192503590506001600160401b03811115614fd457600080fd5b8060051b360382131561299d57600080fd5b81835260006001600160fb1b03831115614fff57600080fd5b8260051b80836020870137939093016020019392505050565b6000808335601e1984360301811261502f57600080fd5b83016020810192503590506001600160401b0381111561504e57600080fd5b80360382131561299d57600080fd5b604081526000615071604083018587614f5e565b8281036020840152833560fe1985360301811261508d57600080fd5b6040825284016001600160401b036150a482614f87565b1660408301526150b660208201614f87565b6001600160401b03811660608401525060408101356080830152606081013560a0830152608081013560c083015260a081013560e08301526150fb60c0820182614f9e565b6101008481015261511161014085018284614fe6565b91505061512160e0830183614f9e565b848303603f1901610120860152925061513b828483614fe6565b9250505061514c6020860186615018565b838303602085015261515f838284614f5e565b9998505050505050505050565b602081526000614c75602083018486614f5e565b6000806040838503121561519357600080fd5b82519150602083015161496381613fb5565b6001600160401b038311156151bc576151bc6140ed565b6151d0836151ca8354614a29565b83614e57565b6000601f84116001811461520457600085156151ec5750838201355b600019600387901b1c1916600186901b1783556122ce565b600083815260209020601f19861690835b828110156152355786850135825560209485019460019092019101615215565b50868210156152525760001960f88860031b161c19848701351681555b505060018560011b0183555050505050565b83815260606020820152600061527d6060830185614d0f565b8281036040840152611e018185614d0f565b6040815260006152a26040830185614723565b82810360208401526152b48185614723565b95945050505050565b6001600160a01b03868116825285166020820152604081018490526060810183905260a060808201819052600090614e4c908301846142e2565b60006020828403121561530957600080fd5b815161403981614006565b6001600160a01b0386811682528516602082015260a06040820181905260009061534090830186614723565b82810360608401526153528186614723565b90508281036080840152610aa281856142e256fe4b984622ccd95d46d58ee4b4ec121acbc6f1d9de4a5997f2013e0daf02c10104a264697066735822122052911143e218c99f9d4102fc44675d5e065a3e17a7156b178faa1898242c364964736f6c63430008180033","linkReferences":{}},"methodIdentifiers":{"accounts(address,address)":"ad74b775","addDapp(address)":"27b7ca5f","balanceOf(address,uint256)":"00fdd58e","balanceOfBatch(address[],uint256[])":"4e1273f4","bondingCurveSteps(uint256)":"fa1c4db6","buyCartridges(bytes32,uint256,uint256)":"3c973f06","cartridgeBondUtilsAddress()":"eba4c82f","cartridgeBondingCurveModelAddress()":"af5baf44","cartridgeBonds(bytes32)":"226f877e","cartridgeBondsCreated(uint256)":"305e1d73","cartridgeModelAddress()":"7baa9fe8","cartridgeOwnershipModelAddress()":"3b906e47","cartridgesCount()":"ea6c6811","changeCartridgeModel(bytes32,address)":"fd3bf34b","consumeCartridges(bytes32,uint256)":"12e6bacd","currencyTokenAddress()":"d3c3b389","dappAddresses(address)":"787ca438","exists(bytes32)":"38a699a4","feeModelAddress()":"3ab03c8b","getCartridgeData(bytes32)":"056e9c55","getCurrentBuyPrice(bytes32,uint256)":"724969e7","getCurrentConsumePrice(bytes32,uint256)":"bbfef088","getCurrentSellPrice(bytes32,uint256)":"b16cae66","isApprovedForAll(address,address)":"e985e9c5","maxCartridgeSupply(bytes32)":"db907f67","maxSupply()":"d5abeb01","owner()":"8da5cb5b","renounceOwnership()":"715018a6","safeBatchTransferFrom(address,address,uint256[],uint256[],bytes)":"2eb2c2d6","safeTransferFrom(address,address,uint256,uint256,bytes)":"f242432a","sellCartridges(bytes32,uint256,uint256)":"1aba7deb","setApprovalForAll(address,bool)":"a22cb465","setCartridgeParams(bytes32)":"42e201f4","setCartridgeParamsCustom(bytes32,uint128[],uint128[])":"9dc200e8","setURI(string)":"02fe5305","supportsInterface(bytes4)":"01ffc9a7","totalCartridges()":"aca6d572","transferOwnership(address)":"f2fde38b","updateBondingCurveParams(address,address,address,address,address,uint128,uint128[],uint128[])":"7da36046","updateProtocolWallet(address)":"e308a099","uri(uint256)":"0e89341c","validateCartridge(address,bytes32,bytes,((uint64,uint64,bytes32,bytes32,bytes32,bytes32,bytes32[],bytes32[]),bytes))":"61b1a4c4","validateCartridgeCustom(address,bytes32,bytes,((uint64,uint64,bytes32,bytes32,bytes32,bytes32,bytes32[],bytes32[]),bytes),uint128[],uint128[])":"06e8a9e7","withdrawBalance(address,uint256)":"0cf20cc9"},"id":24}