{"abi":[{"type":"constructor","inputs":[{"name":"newTapeBondUtilsAddress","type":"address","internalType":"address"},{"name":"maxSteps","type":"uint256","internalType":"uint256"}],"stateMutability":"nonpayable"},{"type":"function","name":"accounts","inputs":[{"name":"","type":"address","internalType":"address"},{"name":"","type":"address","internalType":"address"}],"outputs":[{"name":"","type":"uint256","internalType":"uint256"}],"stateMutability":"view"},{"type":"function","name":"addDapp","inputs":[{"name":"dapp","type":"address","internalType":"address"}],"outputs":[],"stateMutability":"nonpayable"},{"type":"function","name":"balanceOf","inputs":[{"name":"account","type":"address","internalType":"address"},{"name":"id","type":"uint256","internalType":"uint256"}],"outputs":[{"name":"","type":"uint256","internalType":"uint256"}],"stateMutability":"view"},{"type":"function","name":"balanceOfBatch","inputs":[{"name":"accounts","type":"address[]","internalType":"address[]"},{"name":"ids","type":"uint256[]","internalType":"uint256[]"}],"outputs":[{"name":"","type":"uint256[]","internalType":"uint256[]"}],"stateMutability":"view"},{"type":"function","name":"bondingCurveSteps","inputs":[{"name":"","type":"uint256","internalType":"uint256"}],"outputs":[{"name":"rangeMax","type":"uint128","internalType":"uint128"},{"name":"coefficient","type":"uint128","internalType":"uint128"}],"stateMutability":"view"},{"type":"function","name":"buyTapes","inputs":[{"name":"tapeId","type":"bytes32","internalType":"bytes32"},{"name":"tapesToMint","type":"uint256","internalType":"uint256"},{"name":"maxCurrencyPrice","type":"uint256","internalType":"uint256"}],"outputs":[{"name":"currencyCost","type":"uint256","internalType":"uint256"}],"stateMutability":"payable"},{"type":"function","name":"changeTapeModel","inputs":[{"name":"tapeId","type":"bytes32","internalType":"bytes32"},{"name":"newTapeModel","type":"address","internalType":"address"}],"outputs":[],"stateMutability":"nonpayable"},{"type":"function","name":"consumeTapes","inputs":[{"name":"tapeId","type":"bytes32","internalType":"bytes32"},{"name":"tapesToConsume","type":"uint256","internalType":"uint256"}],"outputs":[{"name":"","type":"uint256","internalType":"uint256"}],"stateMutability":"nonpayable"},{"type":"function","name":"currencyTokenAddress","inputs":[],"outputs":[{"name":"","type":"address","internalType":"address"}],"stateMutability":"view"},{"type":"function","name":"dappAddresses","inputs":[{"name":"","type":"address","internalType":"address"}],"outputs":[{"name":"","type":"bool","internalType":"bool"}],"stateMutability":"view"},{"type":"function","name":"exists","inputs":[{"name":"tapeId","type":"bytes32","internalType":"bytes32"}],"outputs":[{"name":"","type":"bool","internalType":"bool"}],"stateMutability":"view"},{"type":"function","name":"feeModelAddress","inputs":[],"outputs":[{"name":"","type":"address","internalType":"address"}],"stateMutability":"view"},{"type":"function","name":"getCurrentBuyPrice","inputs":[{"name":"tapeId","type":"bytes32","internalType":"bytes32"},{"name":"tokensToMint","type":"uint256","internalType":"uint256"}],"outputs":[{"name":"","type":"uint256","internalType":"uint256"},{"name":"","type":"uint256","internalType":"uint256"},{"name":"","type":"uint256","internalType":"uint256"}],"stateMutability":"view"},{"type":"function","name":"getCurrentConsumePrice","inputs":[{"name":"tapeId","type":"bytes32","internalType":"bytes32"},{"name":"tokensToConsume","type":"uint256","internalType":"uint256"}],"outputs":[{"name":"","type":"uint256","internalType":"uint256"},{"name":"","type":"uint256","internalType":"uint256"}],"stateMutability":"view"},{"type":"function","name":"getCurrentSellPrice","inputs":[{"name":"tapeId","type":"bytes32","internalType":"bytes32"},{"name":"tokensToBurn","type":"uint256","internalType":"uint256"}],"outputs":[{"name":"","type":"uint256","internalType":"uint256"},{"name":"","type":"uint256","internalType":"uint256"},{"name":"","type":"uint256","internalType":"uint256"}],"stateMutability":"view"},{"type":"function","name":"getTapeData","inputs":[{"name":"tapeId","type":"bytes32","internalType":"bytes32"}],"outputs":[{"name":"","type":"bytes32","internalType":"bytes32"},{"name":"","type":"uint256","internalType":"uint256"},{"name":"","type":"int256","internalType":"int256"},{"name":"","type":"bytes32","internalType":"bytes32"},{"name":"","type":"int256","internalType":"int256"},{"name":"","type":"bytes32","internalType":"bytes32"},{"name":"","type":"int256","internalType":"int256"},{"name":"","type":"bytes32","internalType":"bytes32"},{"name":"","type":"int256","internalType":"int256"}],"stateMutability":"view"},{"type":"function","name":"isApprovedForAll","inputs":[{"name":"account","type":"address","internalType":"address"},{"name":"operator","type":"address","internalType":"address"}],"outputs":[{"name":"","type":"bool","internalType":"bool"}],"stateMutability":"view"},{"type":"function","name":"maxSupply","inputs":[],"outputs":[{"name":"","type":"uint128","internalType":"uint128"}],"stateMutability":"view"},{"type":"function","name":"maxTapeSupply","inputs":[{"name":"tapeId","type":"bytes32","internalType":"bytes32"}],"outputs":[{"name":"","type":"uint128","internalType":"uint128"}],"stateMutability":"view"},{"type":"function","name":"owner","inputs":[],"outputs":[{"name":"","type":"address","internalType":"address"}],"stateMutability":"view"},{"type":"function","name":"renounceOwnership","inputs":[],"outputs":[],"stateMutability":"nonpayable"},{"type":"function","name":"safeBatchTransferFrom","inputs":[{"name":"from","type":"address","internalType":"address"},{"name":"to","type":"address","internalType":"address"},{"name":"ids","type":"uint256[]","internalType":"uint256[]"},{"name":"values","type":"uint256[]","internalType":"uint256[]"},{"name":"data","type":"bytes","internalType":"bytes"}],"outputs":[],"stateMutability":"nonpayable"},{"type":"function","name":"safeTransferFrom","inputs":[{"name":"from","type":"address","internalType":"address"},{"name":"to","type":"address","internalType":"address"},{"name":"id","type":"uint256","internalType":"uint256"},{"name":"value","type":"uint256","internalType":"uint256"},{"name":"data","type":"bytes","internalType":"bytes"}],"outputs":[],"stateMutability":"nonpayable"},{"type":"function","name":"sellTapes","inputs":[{"name":"tapeId","type":"bytes32","internalType":"bytes32"},{"name":"tapesToBurn","type":"uint256","internalType":"uint256"},{"name":"minCurrencyRefund","type":"uint256","internalType":"uint256"}],"outputs":[{"name":"","type":"uint256","internalType":"uint256"}],"stateMutability":"nonpayable"},{"type":"function","name":"setApprovalForAll","inputs":[{"name":"operator","type":"address","internalType":"address"},{"name":"approved","type":"bool","internalType":"bool"}],"outputs":[],"stateMutability":"nonpayable"},{"type":"function","name":"setTapeParams","inputs":[{"name":"tapeId","type":"bytes32","internalType":"bytes32"}],"outputs":[],"stateMutability":"nonpayable"},{"type":"function","name":"setTapeParamsCustom","inputs":[{"name":"tapeId","type":"bytes32","internalType":"bytes32"},{"name":"stepRangesMax","type":"uint128[]","internalType":"uint128[]"},{"name":"stepCoefficients","type":"uint128[]","internalType":"uint128[]"}],"outputs":[],"stateMutability":"nonpayable"},{"type":"function","name":"setURI","inputs":[{"name":"newUri","type":"string","internalType":"string"}],"outputs":[],"stateMutability":"nonpayable"},{"type":"function","name":"supportsInterface","inputs":[{"name":"interfaceId","type":"bytes4","internalType":"bytes4"}],"outputs":[{"name":"","type":"bool","internalType":"bool"}],"stateMutability":"view"},{"type":"function","name":"tapeBondUtilsAddress","inputs":[],"outputs":[{"name":"","type":"address","internalType":"address"}],"stateMutability":"view"},{"type":"function","name":"tapeBondingCurveModelAddress","inputs":[],"outputs":[{"name":"","type":"address","internalType":"address"}],"stateMutability":"view"},{"type":"function","name":"tapeBonds","inputs":[{"name":"","type":"bytes32","internalType":"bytes32"}],"outputs":[{"name":"bond","type":"tuple","internalType":"struct BondUtils.BondData","components":[{"name":"currencyToken","type":"address","internalType":"address"},{"name":"steps","type":"tuple[]","internalType":"struct IBondingCurveModel.BondingCurveStep[]","components":[{"name":"rangeMax","type":"uint128","internalType":"uint128"},{"name":"coefficient","type":"uint128","internalType":"uint128"}]},{"name":"currencyBalance","type":"uint256","internalType":"uint256"},{"name":"currentSupply","type":"uint256","internalType":"uint256"},{"name":"currentPrice","type":"uint256","internalType":"uint256"},{"name":"consumePrice","type":"uint256","internalType":"uint256"},{"name":"unclaimed","type":"tuple","internalType":"struct BondUtils.UnclaimedFees","components":[{"name":"mint","type":"uint256","internalType":"uint256"},{"name":"burn","type":"uint256","internalType":"uint256"},{"name":"consume","type":"uint256","internalType":"uint256"},{"name":"royalties","type":"uint256","internalType":"uint256"},{"name":"undistributedRoyalties","type":"uint256","internalType":"uint256"}]},{"name":"count","type":"tuple","internalType":"struct BondUtils.BondCount","components":[{"name":"minted","type":"uint256","internalType":"uint256"},{"name":"burned","type":"uint256","internalType":"uint256"},{"name":"consumed","type":"uint256","internalType":"uint256"}]}]},{"name":"feeModel","type":"address","internalType":"address"},{"name":"tapeModel","type":"address","internalType":"address"},{"name":"cartridgeOwner","type":"address","internalType":"address"},{"name":"tapeCreator","type":"address","internalType":"address"},{"name":"tapeOutputData","type":"bytes","internalType":"bytes"}],"stateMutability":"view"},{"type":"function","name":"tapeBondsCreated","inputs":[{"name":"","type":"uint256","internalType":"uint256"}],"outputs":[{"name":"","type":"bytes32","internalType":"bytes32"}],"stateMutability":"view"},{"type":"function","name":"tapeModelAddress","inputs":[],"outputs":[{"name":"","type":"address","internalType":"address"}],"stateMutability":"view"},{"type":"function","name":"tapeOwnershipModelAddress","inputs":[],"outputs":[{"name":"","type":"address","internalType":"address"}],"stateMutability":"view"},{"type":"function","name":"tapesCount","inputs":[],"outputs":[{"name":"","type":"uint256","internalType":"uint256"}],"stateMutability":"view"},{"type":"function","name":"totalTapes","inputs":[],"outputs":[{"name":"","type":"uint256","internalType":"uint256"}],"stateMutability":"view"},{"type":"function","name":"transferOwnership","inputs":[{"name":"newOwner","type":"address","internalType":"address"}],"outputs":[],"stateMutability":"nonpayable"},{"type":"function","name":"updateBondingCurveParams","inputs":[{"name":"newCurrencyToken","type":"address","internalType":"address"},{"name":"newFeeModel","type":"address","internalType":"address"},{"name":"newTapeModel","type":"address","internalType":"address"},{"name":"newTapeOwnershipModelAddress","type":"address","internalType":"address"},{"name":"newTapeBondingCurveModelAddress","type":"address","internalType":"address"},{"name":"newMaxSupply","type":"uint128","internalType":"uint128"},{"name":"stepRangesMax","type":"uint128[]","internalType":"uint128[]"},{"name":"stepCoefficients","type":"uint128[]","internalType":"uint128[]"}],"outputs":[],"stateMutability":"nonpayable"},{"type":"function","name":"updateProtocolWallet","inputs":[{"name":"newProtocolWallet","type":"address","internalType":"address"}],"outputs":[],"stateMutability":"nonpayable"},{"type":"function","name":"uri","inputs":[{"name":"","type":"uint256","internalType":"uint256"}],"outputs":[{"name":"","type":"string","internalType":"string"}],"stateMutability":"view"},{"type":"function","name":"validateTape","inputs":[{"name":"dapp","type":"address","internalType":"address"},{"name":"tapeId","type":"bytes32","internalType":"bytes32"},{"name":"_payload","type":"bytes","internalType":"bytes"},{"name":"_v","type":"tuple","internalType":"struct Proof","components":[{"name":"validity","type":"tuple","internalType":"struct OutputValidityProof","components":[{"name":"inputIndexWithinEpoch","type":"uint64","internalType":"uint64"},{"name":"outputIndexWithinInput","type":"uint64","internalType":"uint64"},{"name":"outputHashesRootHash","type":"bytes32","internalType":"bytes32"},{"name":"vouchersEpochRootHash","type":"bytes32","internalType":"bytes32"},{"name":"noticesEpochRootHash","type":"bytes32","internalType":"bytes32"},{"name":"machineStateHash","type":"bytes32","internalType":"bytes32"},{"name":"outputHashInOutputHashesSiblings","type":"bytes32[]","internalType":"bytes32[]"},{"name":"outputHashesInEpochSiblings","type":"bytes32[]","internalType":"bytes32[]"}]},{"name":"context","type":"bytes","internalType":"bytes"}]}],"outputs":[{"name":"","type":"bytes32","internalType":"bytes32"}],"stateMutability":"nonpayable"},{"type":"function","name":"validateTapeCustom","inputs":[{"name":"dapp","type":"address","internalType":"address"},{"name":"tapeId","type":"bytes32","internalType":"bytes32"},{"name":"_payload","type":"bytes","internalType":"bytes"},{"name":"_v","type":"tuple","internalType":"struct Proof","components":[{"name":"validity","type":"tuple","internalType":"struct OutputValidityProof","components":[{"name":"inputIndexWithinEpoch","type":"uint64","internalType":"uint64"},{"name":"outputIndexWithinInput","type":"uint64","internalType":"uint64"},{"name":"outputHashesRootHash","type":"bytes32","internalType":"bytes32"},{"name":"vouchersEpochRootHash","type":"bytes32","internalType":"bytes32"},{"name":"noticesEpochRootHash","type":"bytes32","internalType":"bytes32"},{"name":"machineStateHash","type":"bytes32","internalType":"bytes32"},{"name":"outputHashInOutputHashesSiblings","type":"bytes32[]","internalType":"bytes32[]"},{"name":"outputHashesInEpochSiblings","type":"bytes32[]","internalType":"bytes32[]"}]},{"name":"context","type":"bytes","internalType":"bytes"}]},{"name":"stepRangesMax","type":"uint128[]","internalType":"uint128[]"},{"name":"stepCoefficients","type":"uint128[]","internalType":"uint128[]"}],"outputs":[{"name":"","type":"bytes32","internalType":"bytes32"}],"stateMutability":"nonpayable"},{"type":"function","name":"withdrawBalance","inputs":[{"name":"token","type":"address","internalType":"address"},{"name":"amount","type":"uint256","internalType":"uint256"}],"outputs":[],"stateMutability":"nonpayable"},{"type":"event","name":"ApprovalForAll","inputs":[{"name":"account","type":"address","indexed":true,"internalType":"address"},{"name":"operator","type":"address","indexed":true,"internalType":"address"},{"name":"approved","type":"bool","indexed":false,"internalType":"bool"}],"anonymous":false},{"type":"event","name":"Bond","inputs":[{"name":"id","type":"bytes32","indexed":true,"internalType":"bytes32"},{"name":"token","type":"address","indexed":true,"internalType":"address"},{"name":"currentPrice","type":"uint256","indexed":false,"internalType":"uint256"},{"name":"currentSupply","type":"uint256","indexed":false,"internalType":"uint256"},{"name":"currentBalance","type":"uint256","indexed":false,"internalType":"uint256"}],"anonymous":false},{"type":"event","name":"Buy","inputs":[{"name":"id","type":"bytes32","indexed":true,"internalType":"bytes32"},{"name":"user","type":"address","indexed":true,"internalType":"address"},{"name":"amountMinted","type":"uint256","indexed":false,"internalType":"uint256"},{"name":"pricePayed","type":"uint256","indexed":false,"internalType":"uint256"}],"anonymous":false},{"type":"event","name":"Consume","inputs":[{"name":"id","type":"bytes32","indexed":true,"internalType":"bytes32"},{"name":"user","type":"address","indexed":true,"internalType":"address"},{"name":"amountConsumed","type":"uint256","indexed":false,"internalType":"uint256"},{"name":"currencyDonated","type":"uint256","indexed":false,"internalType":"uint256"}],"anonymous":false},{"type":"event","name":"OwnershipTransferred","inputs":[{"name":"previousOwner","type":"address","indexed":true,"internalType":"address"},{"name":"newOwner","type":"address","indexed":true,"internalType":"address"}],"anonymous":false},{"type":"event","name":"Reward","inputs":[{"name":"id","type":"bytes32","indexed":true,"internalType":"bytes32"},{"name":"user","type":"address","indexed":true,"internalType":"address"},{"name":"token","type":"address","indexed":true,"internalType":"address"},{"name":"rewardType","type":"uint8","indexed":false,"internalType":"enum BondUtils.RewardType"},{"name":"amount","type":"uint256","indexed":false,"internalType":"uint256"}],"anonymous":false},{"type":"event","name":"Sell","inputs":[{"name":"id","type":"bytes32","indexed":true,"internalType":"bytes32"},{"name":"user","type":"address","indexed":true,"internalType":"address"},{"name":"amountBurned","type":"uint256","indexed":false,"internalType":"uint256"},{"name":"refundReceived","type":"uint256","indexed":false,"internalType":"uint256"}],"anonymous":false},{"type":"event","name":"TransferBatch","inputs":[{"name":"operator","type":"address","indexed":true,"internalType":"address"},{"name":"from","type":"address","indexed":true,"internalType":"address"},{"name":"to","type":"address","indexed":true,"internalType":"address"},{"name":"ids","type":"uint256[]","indexed":false,"internalType":"uint256[]"},{"name":"values","type":"uint256[]","indexed":false,"internalType":"uint256[]"}],"anonymous":false},{"type":"event","name":"TransferSingle","inputs":[{"name":"operator","type":"address","indexed":true,"internalType":"address"},{"name":"from","type":"address","indexed":true,"internalType":"address"},{"name":"to","type":"address","indexed":true,"internalType":"address"},{"name":"id","type":"uint256","indexed":false,"internalType":"uint256"},{"name":"value","type":"uint256","indexed":false,"internalType":"uint256"}],"anonymous":false},{"type":"event","name":"URI","inputs":[{"name":"value","type":"string","indexed":false,"internalType":"string"},{"name":"id","type":"uint256","indexed":true,"internalType":"uint256"}],"anonymous":false},{"type":"error","name":"Bond__InvalidAmount","inputs":[]},{"type":"error","name":"ERC1155InsufficientBalance","inputs":[{"name":"sender","type":"address","internalType":"address"},{"name":"balance","type":"uint256","internalType":"uint256"},{"name":"needed","type":"uint256","internalType":"uint256"},{"name":"tokenId","type":"uint256","internalType":"uint256"}]},{"type":"error","name":"ERC1155InvalidApprover","inputs":[{"name":"approver","type":"address","internalType":"address"}]},{"type":"error","name":"ERC1155InvalidArrayLength","inputs":[{"name":"idsLength","type":"uint256","internalType":"uint256"},{"name":"valuesLength","type":"uint256","internalType":"uint256"}]},{"type":"error","name":"ERC1155InvalidOperator","inputs":[{"name":"operator","type":"address","internalType":"address"}]},{"type":"error","name":"ERC1155InvalidReceiver","inputs":[{"name":"receiver","type":"address","internalType":"address"}]},{"type":"error","name":"ERC1155InvalidSender","inputs":[{"name":"sender","type":"address","internalType":"address"}]},{"type":"error","name":"ERC1155MissingApprovalForAll","inputs":[{"name":"operator","type":"address","internalType":"address"},{"name":"owner","type":"address","internalType":"address"}]},{"type":"error","name":"OwnableInvalidOwner","inputs":[{"name":"owner","type":"address","internalType":"address"}]},{"type":"error","name":"OwnableUnauthorizedAccount","inputs":[{"name":"account","type":"address","internalType":"address"}]},{"type":"error","name":"Tape__ChangeError","inputs":[]},{"type":"error","name":"Tape__InsufficientFunds","inputs":[]},{"type":"error","name":"Tape__InvalidDapp","inputs":[]},{"type":"error","name":"Tape__InvalidOwner","inputs":[]},{"type":"error","name":"Tape__InvalidTape","inputs":[{"name":"reason","type":"string","internalType":"string"}]},{"type":"error","name":"Tape__InvalidUser","inputs":[]},{"type":"error","name":"Tape__NotFound","inputs":[]},{"type":"error","name":"Tape__SlippageLimitExceeded","inputs":[]}],"bytecode":{"object":"0x60a06040523480156200001157600080fd5b50604051620062e6380380620062e683398101604081905262000034916200012a565b60408051602081019091526000815232906200005081620000c6565b506001600160a01b0381166200008057604051631e4fbdf760e01b81526000600482015260240160405180910390fd5b6200008b81620000d8565b50600c8054326001600160a01b031991821617909155608091909152600880549091166001600160a01b0392909216919091179055620002d9565b6002620000d482826200020d565b5050565b600380546001600160a01b038381166001600160a01b0319831681179093556040519116919082907f8be0079c531659141344cd1fd0a4f28419497f9722a3daafe3b4186f6b6457e090600090a35050565b600080604083850312156200013e57600080fd5b82516001600160a01b03811681146200015657600080fd5b6020939093015192949293505050565b634e487b7160e01b600052604160045260246000fd5b600181811c908216806200019157607f821691505b602082108103620001b257634e487b7160e01b600052602260045260246000fd5b50919050565b601f82111562000208576000816000526020600020601f850160051c81016020861015620001e35750805b601f850160051c820191505b818110156200020457828155600101620001ef565b5050505b505050565b81516001600160401b0381111562000229576200022962000166565b62000241816200023a84546200017c565b84620001b8565b602080601f831160018114620002795760008415620002605750858301515b600019600386901b1c1916600185901b17855562000204565b600085815260208120601f198616915b82811015620002aa5788860151825594840194600190910190840162000289565b5085821015620002c95787850151600019600388901b60f8161c191681555b5050505050600190811b01905550565b608051615ff1620002f5600039600061396f0152615ff16000f3fe6080604052600436106102665760003560e01c8063828ef8d911610144578063c5b67e81116100b6578063e985e9c51161007a578063e985e9c51461082a578063eb596d011461084a578063f242432a1461086a578063f2fde38b1461088a578063fa1c4db6146108aa578063fabe3824146108ea57600080fd5b8063c5b67e8114610795578063d3c3b389146107aa578063d5abeb01146107ca578063e308a099146107ea578063e5a412431461080a57600080fd5b8063a22cb46511610108578063a22cb465146106a8578063ad74b775146106c8578063b16cae6614610700578063b495bbb014610720578063b7f012df14610740578063bbfef0881461076057600080fd5b8063828ef8d9146105ed5780638da5cb5b1461060d5780638f8b185b1461062b5780639165f8431461065d5780639ba01fbe1461067057600080fd5b80633ab03c8b116101dd578063715018a6116101a1578063715018a6146104d4578063724969e7146104e9578063787ca43814610524578063796aea77146105545780637da36046146105b85780637fb90ea6146105d857600080fd5b80633ab03c8b146104275780633b6e02af146104475780634e1273f4146104675780635db8076c146104945780636a386ed2146104b457600080fd5b80630e89341c1161022f5780630e89341c1461033057806322f046b51461035d57806327b7ca5f146103955780632eb2c2d6146103b557806338a699a4146103d55780633a18c8d01461040757600080fd5b8062fdd58e1461026b57806301ffc9a71461029e57806302fe5305146102ce57806307974110146102f05780630cf20cc914610310575b600080fd5b34801561027757600080fd5b5061028b610286366004614ad6565b61090a565b6040519081526020015b60405180910390f35b3480156102aa57600080fd5b506102be6102b9366004614b18565b610932565b6040519015158152602001610295565b3480156102da57600080fd5b506102ee6102e9366004614b7d565b610982565b005b3480156102fc57600080fd5b5061028b61030b366004614bd0565b6109cd565b34801561031c57600080fd5b506102ee61032b366004614ad6565b6109ef565b34801561033c57600080fd5b5061035061034b366004614c55565b610be8565b6040516102959190614cb4565b34801561036957600080fd5b5060095461037d906001600160a01b031681565b6040516001600160a01b039091168152602001610295565b3480156103a157600080fd5b506102ee6103b0366004614cc7565b610c7c565b3480156103c157600080fd5b506102ee6103d0366004614e53565b610ce2565b3480156103e157600080fd5b506102be6103f0366004614c55565b6000908152600d6020526040902060010154151590565b34801561041357600080fd5b506102ee610422366004614f7b565b610d4e565b34801561043357600080fd5b5060065461037d906001600160a01b031681565b34801561045357600080fd5b50600a5461037d906001600160a01b031681565b34801561047357600080fd5b50610487610482366004614fe7565b610e8a565b60405161029591906150e4565b3480156104a057600080fd5b506102ee6104af3660046150f7565b610f56565b3480156104c057600080fd5b5060075461037d906001600160a01b031681565b3480156104e057600080fd5b506102ee611083565b3480156104f557600080fd5b50610509610504366004615127565b611097565b60408051938452602084019290925290820152606001610295565b34801561053057600080fd5b506102be61053f366004614cc7565b60106020526000908152604090205460ff1681565b34801561056057600080fd5b5061057461056f366004614c55565b611433565b60408051998a5260208a0198909852968801959095526060870193909352608086019190915260a085015260c084015260e083015261010082015261012001610295565b3480156105c457600080fd5b506102ee6105d3366004615149565b61154b565b3480156105e457600080fd5b50600e5461028b565b3480156105f957600080fd5b5061028b61060836600461521a565b61156d565b34801561061957600080fd5b506003546001600160a01b031661037d565b34801561063757600080fd5b5061064b610646366004614c55565b611aa4565b60405161029596959493929190615343565b61028b61066b36600461521a565b611ca0565b34801561067c57600080fd5b5061069061068b366004614c55565b612164565b6040516001600160801b039091168152602001610295565b3480156106b457600080fd5b506102ee6106c33660046153aa565b6121af565b3480156106d457600080fd5b5061028b6106e33660046153d8565b600f60209081526000928352604080842090915290825290205481565b34801561070c57600080fd5b5061050961071b366004615127565b6121ba565b34801561072c57600080fd5b5061028b61073b366004615127565b612542565b34801561074c57600080fd5b5061028b61075b366004615406565b612871565b34801561076c57600080fd5b5061078061077b366004615127565b612897565b60408051928352602083019190915201610295565b3480156107a157600080fd5b5061028b612b6f565b3480156107b657600080fd5b5060055461037d906001600160a01b031681565b3480156107d657600080fd5b50600b54610690906001600160801b031681565b3480156107f657600080fd5b506102ee610805366004614cc7565b612c14565b34801561081657600080fd5b506102ee610825366004614c55565b612c6a565b34801561083657600080fd5b506102be6108453660046153d8565b612d82565b34801561085657600080fd5b5061028b610865366004614c55565b612db0565b34801561087657600080fd5b506102ee6108853660046154d2565b612dd1565b34801561089657600080fd5b506102ee6108a5366004614cc7565b612e30565b3480156108b657600080fd5b506108ca6108c5366004614c55565b612e6e565b604080516001600160801b03938416815292909116602083015201610295565b3480156108f657600080fd5b5060085461037d906001600160a01b031681565b6000818152602081815260408083206001600160a01b03861684529091529020545b92915050565b60006001600160e01b03198216636cdb3d1360e11b148061096357506001600160e01b031982166303a24d0760e21b145b8061092c57506301ffc9a760e01b6001600160e01b031983161461092c565b61098a612ea3565b6109c982828080601f016020809104026020016040519081016040528093929190818152602001838380828437600092019190915250612ed092505050565b5050565b60006109d885612c6a565b6109e58686868686612edc565b9695505050505050565b336000818152600f602090815260408083206001600160a01b0387168452909152902054821115610a33576040516368d134dd60e11b815260040160405180910390fd5b6001600160a01b038082166000908152600f6020908152604080832093871683529290529081208054849290610a6a908490615550565b90915550506001600160a01b03831615610b6f5760405163095ea7b360e01b8152306004820152602481018390526001600160a01b0384169063095ea7b3906044016020604051808303816000875af1158015610acb573d6000803e3d6000fd5b505050506040513d601f19601f82011682018060405250810190610aef9190615563565b506040516323b872dd60e01b81523060048201526001600160a01b038281166024830152604482018490528416906323b872dd906064016020604051808303816000875af1158015610b45573d6000803e3d6000fd5b505050506040513d601f19601f82011682018060405250810190610b699190615563565b50505050565b6000816001600160a01b03168360405160006040518083038185875af1925050503d8060008114610bbc576040519150601f19603f3d011682016040523d82523d6000602084013e610bc1565b606091505b5050905080610b695760405163f570efeb60e01b815260040160405180910390fd5b505050565b606060028054610bf790615580565b80601f0160208091040260200160405190810160405280929190818152602001828054610c2390615580565b8015610c705780601f10610c4557610100808354040283529160200191610c70565b820191906000526020600020905b815481529060010190602001808311610c5357829003601f168201915b50505050509050919050565b610c84612ea3565b6001600160a01b03811660009081526010602052604090205460ff1615610cbe57604051631c3265c360e31b815260040160405180910390fd5b6001600160a01b03166000908152601060205260409020805460ff19166001179055565b336001600160a01b0386168114801590610d035750610d018682612d82565b155b15610d395760405163711bec9160e11b81526001600160a01b038083166004830152871660248201526044015b60405180910390fd5b610d46868686868661356e565b505050505050565b60095483906001600160a01b0316639cefb474336040516001600160e01b031960e084901b1681526001600160a01b03909116600482015260248101849052604401602060405180830381865afa158015610dad573d6000803e3d6000fd5b505050506040513d601f19601f82011682018060405250810190610dd19190615563565b610dee576040516313bb0a7760e11b815260040160405180910390fd5b600a54600b54604051630a68458760e11b81526000926001600160a01b0316916314d08b0e91610e32918991899189916001600160801b03909116906004016155ee565b600060405180830381865afa158015610e4f573d6000803e3d6000fd5b505050506040513d6000823e601f3d908101601f19168201604052610e779190810190615634565b9050610e8385826135ce565b5050505050565b60608151835114610ebb5781518351604051635b05999160e01b815260048101929092526024820152604401610d30565b600083516001600160401b03811115610ed657610ed6614ce4565b604051908082528060200260200182016040528015610eff578160200160208202803683370190505b50905060005b8451811015610f4e57602080820286010151610f299060208084028701015161090a565b828281518110610f3b57610f3b6156fc565b6020908102919091010152600101610f05565b509392505050565b610f5e612ea3565b6000828152600d60205260408120600101549003610f8f57604051631d8ce09b60e31b815260040160405180910390fd5b6000828152600d602052604081206012018054610fab90615580565b90501115610ff5576040516329c45f6760e01b815260206004820152601660248201527515185c1948185b1c9958591e481d985b1a59185d195960521b6044820152606401610d30565b60085460405163f8e0044b60e01b81526001600160a01b0383811660048301529091169063f8e0044b9060240160006040518083038186803b15801561103a57600080fd5b505afa15801561104e573d6000803e3d6000fd5b505050600092835250600d6020526040909120600f0180546001600160a01b0319166001600160a01b03909216919091179055565b61108b612ea3565b6110956000613785565b565b6000828152600d60205260408120600101548190819081036110cc57604051631d8ce09b60e31b815260040160405180910390fd5b6000858152600d6020908152604080832081516101c08101835281546001600160a01b031660c082019081526001830180548551818802810188019096528086529295939486949293869360e087019391908a9084015b8282101561116c57600084815260209081902060408051808201909152908401546001600160801b038082168352600160801b9091041681830152825260019092019101611123565b505050908252506002820154602080830191909152600383015460408084019190915260048401546060808501919091526005850154608080860191909152825160a0818101855260068801548252600788015482870152600888015482860152600988015482850152600a880154828401528087019190915283518084018552600b8801548152600c88015481870152600d909701548785015260c090950195909552948652600e8701546001600160a01b0390811692870192909252600f8701548216908601526010860154811693850193909352601185015490921690830152601283018054929091019161126390615580565b80601f016020809104026020016040519081016040528092919081815260200182805461128f90615580565b80156112dc5780601f106112b1576101008083540402835291602001916112dc565b820191906000526020600020905b8154815290600101906020018083116112bf57829003601f168201915b50505091909252505060085482516040516369db39e760e11b81529394506000938493506001600160a01b039092169163d3b673ce91611321918b9190600401615712565b6040805180830381865afa15801561133d573d6000803e3d6000fd5b505050506040513d601f19601f820116820180604052508101906113619190615733565b9150915060008060008086602001516001600160a01b03166370f986fd8c886040518363ffffffff1660e01b81526004016113a6929190918252602082015260400190565b608060405180830381865afa1580156113c3573d6000803e3d6000fd5b505050506040513d601f19601f820116820180604052508101906113e79190615757565b93509350935093506000818385876113ff919061578d565b611409919061578d565b611413919061578d565b905061141f818861578d565b9a5098509396505050505050509250925092565b6000806000806000806000806000600d60008b8152602001908152602001600020601201805461146290615580565b90506000036114a5576040516329c45f6760e01b815260206004820152600e60248201526d746170654f75747075744461746160901b6044820152606401610d30565b60008a8152600d602052604090819020600f810154915163c827650360e01b81526001600160a01b039092169163c8276503916114ea916012909101906004016157a0565b61012060405180830381865afa158015611508573d6000803e3d6000fd5b505050506040513d601f19601f8201168201806040525081019061152c9190615830565b9850985098509850985098509850985098509193959799909294969850565b611553612ea3565b61156388888888888888886137d7565b5050505050505050565b6000838152600d6020526040812060010154849082036115a057604051631d8ce09b60e31b815260040160405180910390fd5b6000336000878152600d60205260408082206008549151635e15de9560e11b81529394509282916001600160a01b03169063bc2bbd2a906115e7908b9087906004016158e2565b6040805180830381865afa158015611603573d6000803e3d6000fd5b505050506040513d601f19601f820116820180604052508101906116279190615733565b600e85015460405163f5b0402760e01b8152600481018c9052602481018490529294509092506000918291829182916001600160a01b03169063f5b0402790604401608060405180830381865afa158015611686573d6000803e3d6000fd5b505050506040513d601f19601f820116820180604052508101906116aa9190615757565b93509350935093506000818385876116c2919061578d565b6116cc919061578d565b6116d6919061578d565b6116e09088615550565b90508b81101561170357604051636bdbc20960e11b815260040160405180910390fd5b61170e898f8f613b87565b868860000160020160008282546117259190615550565b90915550506003880180548e9190600090611741908490615550565b9091555050600c880180548e919060009061175d90849061578d565b9091555050600488018690556117758e858585613bef565b91955093509150611786848461578d565b60078901805460009061179a90849061578d565b9091555050600a880180548391906000906117b690849061578d565b9091555050600c546001600160a01b039081166000908152600f602090815260408083208c54909416835292905290812080548792906117f790849061578d565b925050819055508760000160000160009054906101000a90046001600160a01b03166001600160a01b0316600c60009054906101000a90046001600160a01b03166001600160a01b03168f600080516020615f9c8339815191526000896040516118629291906159b1565b60405180910390a487546001600160a01b03161561197157875460405163095ea7b360e01b8152306004820152602481018390526001600160a01b039091169063095ea7b3906044016020604051808303816000875af11580156118ca573d6000803e3d6000fd5b505050506040513d601f19601f820116820180604052508101906118ee9190615563565b5087546040516323b872dd60e01b81523060048201526001600160a01b038b8116602483015260448201849052909116906323b872dd906064016020604051808303816000875af1158015611947573d6000803e3d6000fd5b505050506040513d601f19601f8201168201806040525081019061196b9190615563565b506119e7565b6000896001600160a01b03168260405160006040518083038185875af1925050503d80600081146119be576040519150601f19603f3d011682016040523d82523d6000602084013e6119c3565b606091505b50509050806119e55760405163f570efeb60e01b815260040160405180910390fd5b505b886001600160a01b03168e7f47d38b8b50e4b792e507faad951cda2457545e704f667a3e32f22541945ebbf68f84604051611a2c929190918252602082015260400190565b60405180910390a38754600489015460038a015460028b0154604080519384526020840192909252908201526001600160a01b03909116908f907f2e67857c5e095aa37c99fc8a2a3d065e50197554891c3cf1f318b1996b66469c9060600160405180910390a39d9c50505050505050505050505050565b600d60209081526000918252604080832081516101008101835281546001600160a01b03168152600182018054845181870281018701909552808552929591948694868201949093909184015b82821015611b3a57600084815260209081902060408051808201909152908401546001600160801b038082168352600160801b9091041681830152825260019092019101611af1565b505050908252506002820154602080830191909152600383015460408084019190915260048401546060808501919091526005850154608080860191909152825160a0808201855260068801548252600788015482870152600888015482860152600988015482850152600a880154928201929092529085015281519081018252600b8501548152600c85015492810192909252600d909301549281019290925260c00152600e820154600f8301546010840154601185015460128601805495966001600160a01b039586169694861695938416949390921692611c1d90615580565b80601f0160208091040260200160405190810160405280929190818152602001828054611c4990615580565b8015611c965780601f10611c6b57610100808354040283529160200191611c96565b820191906000526020600020905b815481529060010190602001808311611c7957829003601f168201915b5050505050905086565b6000838152600d602052604081206001015484908203611cd357604051631d8ce09b60e31b815260040160405180910390fd5b6000336000878152600d602052604080822060085491516369db39e760e11b81529394509282916001600160a01b03169063d3b673ce90611d1a908b9087906004016158e2565b6040805180830381865afa158015611d36573d6000803e3d6000fd5b505050506040513d601f19601f82011682018060405250810190611d5a9190615733565b9150915060008060008086600001600101600081548110611d7d57611d7d6156fc565b600091825260209091200154600160801b90046001600160801b031615611e1f57600e8701546040516370f986fd60e01b8152600481018e9052602481018890526001600160a01b03909116906370f986fd90604401608060405180830381865afa158015611df0573d6000803e3d6000fd5b505050506040513d601f19601f82011682018060405250810190611e149190615757565b929650909450925090505b6000818385611e2e888b61578d565b611e38919061578d565b611e42919061578d565b611e4c919061578d565b90508b811115611e6f57604051636bdbc20960e11b815260040160405180910390fd5b87546001600160a01b031615611f015787546040516323b872dd60e01b81526001600160a01b038b8116600483015230602483015260448201849052909116906323b872dd906064016020604051808303816000875af1158015611ed7573d6000803e3d6000fd5b505050506040513d601f19601f82011682018060405250810190611efb9190615563565b50611fa5565b80341015611f225760405163bd9c85bb60e01b815260040160405180910390fd5b80341115611fa55760006001600160a01b038a16611f408334615550565b604051600081818185875af1925050503d8060008114611f7c576040519150601f19603f3d011682016040523d82523d6000602084013e611f81565b606091505b5050905080611fa35760405163f570efeb60e01b815260040160405180910390fd5b505b86886000016002016000828254611fbc919061578d565b90915550506003880180548e9190600090611fd890849061578d565b9091555050600b880180548e9190600090611ff490849061578d565b90915550506004880186905561200c8e858585613bef565b9195509350915061201d848461578d565b60068901805460009061203190849061578d565b9091555050600a8801805483919060009061204d90849061578d565b9091555050600c546001600160a01b039081166000908152600f602090815260408083208c549094168352929052908120805487929061208e90849061578d565b925050819055508760000160000160009054906101000a90046001600160a01b03166001600160a01b0316600c60009054906101000a90046001600160a01b03166001600160a01b03168f600080516020615f9c8339815191526000896040516120f99291906159b1565b60405180910390a461211f898f60001c8f6040518060200160405280600081525061414c565b886001600160a01b03168e7f5bd6f821d5961785d719543640cf62d3770f94e59db1a2f3c2250d72b122dddf8f84604051611a2c929190918252602082015260400190565b6000818152600d6020526040812060019081018054909161218491615550565b81548110612194576121946156fc565b6000918252602090912001546001600160801b031692915050565b6109c93383836141a9565b6000828152600d60205260408120600101548190819081036121ef57604051631d8ce09b60e31b815260040160405180910390fd5b6000858152600d6020908152604080832081516101c08101835281546001600160a01b031660c082019081526001830180548551818802810188019096528086529295939486949293869360e087019391908a9084015b8282101561228f57600084815260209081902060408051808201909152908401546001600160801b038082168352600160801b9091041681830152825260019092019101612246565b505050908252506002820154602080830191909152600383015460408084019190915260048401546060808501919091526005850154608080860191909152825160a0818101855260068801548252600788015482870152600888015482860152600988015482850152600a880154828401528087019190915283518084018552600b8801548152600c88015481870152600d909701548785015260c090950195909552948652600e8701546001600160a01b0390811692870192909252600f8701548216908601526010860154811693850193909352601185015490921690830152601283018054929091019161238690615580565b80601f01602080910402602001604051908101604052809291908181526020018280546123b290615580565b80156123ff5780601f106123d4576101008083540402835291602001916123ff565b820191906000526020600020905b8154815290600101906020018083116123e257829003601f168201915b5050509190925250506008548251604051635e15de9560e11b81529394506000938493506001600160a01b039092169163bc2bbd2a91612444918b9190600401615712565b6040805180830381865afa158015612460573d6000803e3d6000fd5b505050506040513d601f19601f820116820180604052508101906124849190615733565b9150915060008060008086602001516001600160a01b031663f5b040278c886040518363ffffffff1660e01b81526004016124c9929190918252602082015260400190565b608060405180830381865afa1580156124e6573d6000803e3d6000fd5b505050506040513d601f19601f8201168201806040525081019061250a9190615757565b9350935093509350600081838587612522919061578d565b61252c919061578d565b612536919061578d565b905061141f8188615550565b6000828152600d60205260408120600101548390820361257557604051631d8ce09b60e31b815260040160405180910390fd5b6000336000868152600d60205260408082206008549151633ac2ef4160e21b81529394509282916001600160a01b03169063eb0bbd04906125bc908a9087906004016158e2565b6040805180830381865afa1580156125d8573d6000803e3d6000fd5b505050506040513d601f19601f820116820180604052508101906125fc9190615733565b600e850154604051630c1d341f60e31b8152600481018490529294509092506000918291829182916001600160a01b0316906360e9a0f890602401608060405180830381865afa158015612654573d6000803e3d6000fd5b505050506040513d601f19601f820116820180604052508101906126789190615757565b935093509350935061268e888d60001c8d613b87565b8a8760000160030160008282546126a59190615550565b90915550506002870180548791906000906126c1908490615550565b9091555050600d870180548c91906000906126dd90849061578d565b9091555050600587018590556126f58c848484613bef565b91945092509050612706838361578d565b60088801805460009061271a90849061578d565b9091555050600a8701805482919060009061273690849061578d565b9091555050600c546001600160a01b039081166000908152600f602090815260408083208b549094168352929052908120805486929061277790849061578d565b90915550508654600c546040516001600160a01b0392831692909116908e90600080516020615f9c833981519152906127b4906000908a906159b1565b60405180910390a4604080518c8152602081018890526001600160a01b038a16918e917fff8a4589f2e064f9b82f2aec48ea80dbf6a8f623d3bd76d954da82ec4ea0079f910160405180910390a386546004880154600389015460028a0154604080519384526020840192909252908201526001600160a01b03909116908d907f2e67857c5e095aa37c99fc8a2a3d065e50197554891c3cf1f318b1996b66469c9060600160405180910390a350939a9950505050505050505050565b600061287e878484610d4e565b61288b8888888888612edc565b98975050505050505050565b6000828152600d6020526040812060010154819081036128ca57604051631d8ce09b60e31b815260040160405180910390fd5b6000848152600d6020908152604080832081516101c08101835281546001600160a01b031660c082019081526001830180548551818802810188019096528086529295939486949293869360e087019391908a9084015b8282101561296a57600084815260209081902060408051808201909152908401546001600160801b038082168352600160801b9091041681830152825260019092019101612921565b505050908252506002820154602080830191909152600383015460408084019190915260048401546060808501919091526005850154608080860191909152825160a0818101855260068801548252600788015482870152600888015482860152600988015482850152600a880154828401528087019190915283518084018552600b8801548152600c88015481870152600d909701548785015260c090950195909552948652600e8701546001600160a01b0390811692870192909252600f87015482169086015260108601548116938501939093526011850154909216908301526012830180549290910191612a6190615580565b80601f0160208091040260200160405190810160405280929190818152602001828054612a8d90615580565b8015612ada5780601f10612aaf57610100808354040283529160200191612ada565b820191906000526020600020905b815481529060010190602001808311612abd57829003601f168201915b5050509190925250506008548251604051633ac2ef4160e21b81529394506000938493506001600160a01b039092169163eb0bbd0491612b1f918a9190600401615712565b6040805180830381865afa158015612b3b573d6000803e3d6000fd5b505050506040513d601f19601f82011682018060405250810190612b5f9190615733565b90955093505050505b9250929050565b60008060005b600e54811015612c0e57600d6000600e8381548110612b9657612b966156fc565b90600052602060002001548152602001908152602001600020600001600b0160020154600d6000600e8481548110612bd057612bd06156fc565b9060005260206000200154815260200190815260200160002060000160030154612bfa9190615550565b612c04908361578d565b9150600101612b75565b50919050565b600c546001600160a01b0316336001600160a01b031614612c485760405163dcf0398d60e01b815260040160405180910390fd5b600c80546001600160a01b0319166001600160a01b0392909216919091179055565b60095481906001600160a01b0316639cefb474336040516001600160e01b031960e084901b1681526001600160a01b03909116600482015260248101849052604401602060405180830381865afa158015612cc9573d6000803e3d6000fd5b505050506040513d601f19601f82011682018060405250810190612ced9190615563565b612d0a576040516313bb0a7760e11b815260040160405180910390fd5b6109c9826004805480602002602001604051908101604052809291908181526020016000905b82821015612d7957600084815260209081902060408051808201909152908401546001600160801b038082168352600160801b9091041681830152825260019092019101612d30565b505050506135ce565b6001600160a01b03918216600090815260016020908152604080832093909416825291909152205460ff1690565b600e8181548110612dc057600080fd5b600091825260209091200154905081565b336001600160a01b0386168114801590612df25750612df08682612d82565b155b15612e235760405163711bec9160e11b81526001600160a01b03808316600483015287166024820152604401610d30565b610d46868686868661423f565b612e38612ea3565b6001600160a01b038116612e6257604051631e4fbdf760e01b815260006004820152602401610d30565b612e6b81613785565b50565b60048181548110612e7e57600080fd5b6000918252602090912001546001600160801b038082169250600160801b9091041682565b6003546001600160a01b031633146110955760405163118cdaa760e01b8152336004820152602401610d30565b60026109c98282615a25565b6000848152600d60205260408120601281018054612ef990615580565b159050612f3d576040516329c45f6760e01b8152602060048201526011602482015270185b1c9958591e481d985b1a59185d1959607a1b6044820152606401610d30565b6001600160a01b03871660009081526010602052604090205460ff16612f7657604051631c3265c360e31b815260040160405180910390fd5b604051634b243ea360e11b81526001600160a01b038816906396487d4690612fa690889088908890600401615be3565b602060405180830381865afa158015612fc3573d6000803e3d6000fd5b505050506040513d601f19601f82011682018060405250810190612fe79190615563565b50600f810154604051630d02d25f60e11b8152600091829182916001600160a01b031690631a05a4be90613021908b908b90600401615ce5565b606060405180830381865afa15801561303e573d6000803e3d6000fd5b505050506040513d601f19601f820116820180604052508101906130629190615cf9565b9250925092508289146130a1576040516329c45f6760e01b81526020600482015260066024820152651d185c19525960d21b6044820152606401610d30565b6010840180546001600160a01b038085166001600160a01b03199283161790925560118601805492841692909116919091179055601284016130e4888a83615d3c565b50600a840154600685015460009182911561321657600e870154600b88015460068901546040516370f986fd60e01b81526004810192909252602482015260009182916001600160a01b03909116906370f986fd90604401608060405180830381865afa158015613159573d6000803e3d6000fd5b505050506040513d601f19601f8201168201806040525081019061317d9190615757565b5060068c015491945092509050613194828461578d565b11156131d7576040516329c45f6760e01b8152602060048201526011602482015270756e636c61696d65644d696e744665657360781b6044820152606401610d30565b6131e1818361578d565b60068a0180546000906131f5908490615550565b909155506132059050828661578d565b9450613211818561578d565b935050505b60078701541561333d57600e870154600c880154600789015460405163f5b0402760e01b81526004810192909252602482015260009182916001600160a01b039091169063f5b0402790604401608060405180830381865afa158015613280573d6000803e3d6000fd5b505050506040513d601f19601f820116820180604052508101906132a49190615757565b5060078c0154919450925090506132bb828461578d565b11156132fe576040516329c45f6760e01b8152602060048201526011602482015270756e636c61696d65644275726e4665657360781b6044820152606401610d30565b613308818361578d565b60078a01805460009061331c908490615550565b9091555061332c9050828661578d565b9450613338818561578d565b935050505b60098701541561345b57600e870154600988015460405163cf54ee1d60e01b815260009283926001600160a01b039091169163cf54ee1d916133859160040190815260200190565b6040805180830381865afa1580156133a1573d6000803e3d6000fd5b505050506040513d601f19601f820116820180604052508101906133c59190615733565b60098b015491935091506133d9828461578d565b111561341c576040516329c45f6760e01b8152602060048201526011602482015270756e636c61696d65644275726e4665657360781b6044820152606401610d30565b613426818361578d565b60098a01805460009061343a908490615550565b9091555061344a9050828661578d565b9450613456818561578d565b935050505b6134678c848484613bef565b505050600987015460078801546006890154600092916134869161578d565b613490919061578d565b9050801561353d576009880154600789015460068a01546134b1919061578d565b6134bb919061578d565b600c546001600160a01b039081166000908152600f602090815260408083208d54909416835292905290812080549091906134f790849061578d565b90915550508754600c546040516001600160a01b0392831692909116908f90600080516020615f9c833981519152906135349060039087906159b1565b60405180910390a45b50506000600687018190556007870181905560098701819055600a9096019590955550979998505050505050505050565b6001600160a01b03841661359857604051632bfa23e760e11b815260006004820152602401610d30565b6001600160a01b0385166135c157604051626a0d4560e21b815260006004820152602401610d30565b610e8385858585856142cd565b6000828152600d602052604081206001015490036109c9576000828152600d60205260408120600654600e820180546001600160a01b039283166001600160a01b0319918216179091556005548354908316908216178355600754600f84018054919093169116179055905b82518110156136e257816000016001016040518060400160405280858481518110613667576136676156fc565b6020026020010151600001516001600160801b03168152602001858481518110613693576136936156fc565b6020908102919091018101518101516001600160801b03908116909252835460018181018655600095865294829020845194909201518316600160801b0293909216929092179101550161363a565b50600e80546001818101835560009283527fbb7b4a454dc3493923482f07822329ed19e8244eff582cc204f8554c3620c3fd9091018590558201805490919061372d5761372d6156fc565b6000918252602082200154600160801b90046001600160801b03169003610be357610b69838260000160010160008154811061376b5761376b6156fc565b60009182526020822001546001600160801b031690611ca0565b600380546001600160a01b038381166001600160a01b0319831681179093556040519116919082907f8be0079c531659141344cd1fd0a4f28419497f9722a3daafe3b4186f6b6457e090600090a35050565b60085460405163169f6b0560e11b81526001600160a01b038a8116600483015290911690632d3ed60a9060240160006040518083038186803b15801561381c57600080fd5b505afa158015613830573d6000803e3d6000fd5b505060085460405163f610a03960e01b81526001600160a01b038b81166004830152909116925063f610a039915060240160006040518083038186803b15801561387957600080fd5b505afa15801561388d573d6000803e3d6000fd5b505060085460405163f8e0044b60e01b81526001600160a01b038a81166004830152909116925063f8e0044b915060240160006040518083038186803b1580156138d657600080fd5b505afa1580156138ea573d6000803e3d6000fd5b505060085460405163130d243760e21b81526001600160a01b0389811660048301529091169250634c3490dc915060240160006040518083038186803b15801561393357600080fd5b505afa158015613947573d6000803e3d6000fd5b5050604051638716824d60e01b81526001600160a01b0387169250638716824d915061399b907f00000000000000000000000000000000000000000000000000000000000000009086908690600401615dfb565b60006040518083038186803b1580156139b357600080fd5b505afa1580156139c7573d6000803e3d6000fd5b50505050600460006139d99190614a7f565b604051630a68458760e11b81526000906001600160a01b038616906314d08b0e90613a0e908490879087908a906004016155ee565b600060405180830381865afa158015613a2b573d6000803e3d6000fd5b505050506040513d6000823e601f3d908101601f19168201604052613a539190810190615634565b905060005b8151811015613afb5760046040518060400160405280848481518110613a8057613a806156fc565b6020026020010151600001516001600160801b03168152602001848481518110613aac57613aac6156fc565b6020908102919091018101518101516001600160801b03908116909252835460018181018655600095865294829020845194909201518316600160801b02939092169290921791015501613a58565b5050600580546001600160a01b03199081166001600160a01b039a8b1617909155600680548216988a169890981790975550506007805486169487169490941790935560098054851692861692909217909155600a80549093169316929092179055600b80546fffffffffffffffffffffffffffffffff19166001600160801b03909216919091179055565b6001600160a01b038316613bb057604051626a0d4560e21b815260006004820152602401610d30565b604080516001808252602082018590528183019081526060820184905260a08201909252600060808201818152919291610e83918791859085906142cd565b6000848152600d60205260408120601281018054839283929091839190613c1590615580565b9050111561413757600f81015460405163dddf33e160e01b81526000918291829182916001600160a01b039091169063dddf33e190613c5b9060128901906004016157a0565b600060405180830381865afa158015613c78573d6000803e3d6000fd5b505050506040513d6000823e601f3d908101601f19168201604052613ca09190810190615e26565b805190915015613dbc57600e85015481516040516322cc0efb60e01b8152600092613d3a928d9286926001600160a01b0316916322cc0efb91613cf0918691600401918252602082015260400190565b600060405180830381865afa158015613d0d573d6000803e3d6000fd5b505050506040513d6000823e601f3d908101601f19168201604052613d359190810190615e26565b614320565b90508015613db657600e86015460405163cf54ee1d60e01b8152600481018390526001600160a01b039091169063cf54ee1d906024016040805180830381865afa158015613d8c573d6000803e3d6000fd5b505050506040513d601f19601f82011682018060405250810190613db09190615733565b90945092505b50613e30565b600e85015460405163cf54ee1d60e01b8152600481018b90526001600160a01b039091169063cf54ee1d906024016040805180830381865afa158015613e06573d6000803e3d6000fd5b505050506040513d601f19601f82011682018060405250810190613e2a9190615733565b90935091505b60108501546001600160a01b031615613f4e57613e4d828c61578d565b60108601546001600160a01b039081166000908152600f602090815260408083208a5490941683529290529081208054909190613e8b90849061578d565b925050819055508460000160000160009054906101000a90046001600160a01b03166001600160a01b03168560100160009054906101000a90046001600160a01b03166001600160a01b03168d600080516020615f9c83398151915260048f604051613ef89291906159b1565b60405180910390a48115613f4957845460108601546040516001600160a01b0392831692909116908e90600080516020615f9c83398151915290613f409060029088906159b1565b60405180910390a45b613f65565b613f58828c61578d565b613f62908561578d565b93505b60118501546001600160a01b03161561408357613f82838b61578d565b60118601546001600160a01b039081166000908152600f602090815260408083208a5490941683529290529081208054909190613fc090849061578d565b925050819055508460000160000160009054906101000a90046001600160a01b03166001600160a01b03168560110160009054906101000a90046001600160a01b03166001600160a01b03168d600080516020615f9c83398151915260058e60405161402d9291906159b1565b60405180910390a4821561407e57845460118601546040516001600160a01b0392831692909116908e90600080516020615f9c833981519152906140759060029089906159b1565b60405180910390a45b61409a565b61408d838b61578d565b614097908561578d565b93505b831561412257600c546001600160a01b039081166000908152600f602090815260408083208954909416835292905290812080548692906140dc90849061578d565b90915550508454600c546040516001600160a01b0392831692909116908e90600080516020615f9c83398151915290614119906003908a906159b1565b60405180910390a45b60008060009750975097505050505050614142565b868686935093509350505b9450945094915050565b6001600160a01b03841661417657604051632bfa23e760e11b815260006004820152602401610d30565b60408051600180825260208201869052818301908152606082018590526080820190925290610d466000878484876142cd565b6001600160a01b0382166141d25760405162ced3e160e81b815260006004820152602401610d30565b6001600160a01b03838116600081815260016020908152604080832094871680845294825291829020805460ff191686151590811790915591519182527f17307eab39ab6107e8899845ad3d59bd9653f200f220920489ca2b5937696c31910160405180910390a3505050565b6001600160a01b03841661426957604051632bfa23e760e11b815260006004820152602401610d30565b6001600160a01b03851661429257604051626a0d4560e21b815260006004820152602401610d30565b604080516001808252602082018690528183019081526060820185905260808201909252906142c487878484876142cd565b50505050505050565b6142d9858585856143ba565b6001600160a01b03841615610e835782513390600103614312576020848101519084015161430b8389898585896145ce565b5050610d46565b610d468187878787876146f2565b6000805b84156143b15780845111156143b15780835111156143b157614378848281518110614351576143516156fc565b602002602001015184838151811061436b5761436b6156fc565b60200260200101516147db565b82818151811061438a5761438a6156fc565b60200260200101518561439d9190615550565b9450806143a981615eab565b915050614324565b50929392505050565b80518251146143e95781518151604051635b05999160e01b815260048101929092526024820152604401610d30565b3360005b83518110156144ef576020818102858101820151908501909101516001600160a01b038816156144a0576000828152602081815260408083206001600160a01b038c16845290915290205481811015614479576040516303dee4c560e01b81526001600160a01b038a166004820152602481018290526044810183905260648101849052608401610d30565b6000838152602081815260408083206001600160a01b038d16845290915290209082900390555b6001600160a01b038716156144e5576000828152602081815260408083206001600160a01b038b168452909152812080548392906144df90849061578d565b90915550505b50506001016143ed565b5082516001036145705760208301516000906020840151909150856001600160a01b0316876001600160a01b0316846001600160a01b03167fc3d58168c5ae7397731d063d5bbf3d657854427343f4c083240f7aacaa2d0f628585604051614561929190918252602082015260400190565b60405180910390a45050610e83565b836001600160a01b0316856001600160a01b0316826001600160a01b03167f4a39dc06d4c0dbc64b70af90fd698a233a518aa5d07e595d983b8c0526c8f7fb86866040516145bf929190615ec4565b60405180910390a45050505050565b6001600160a01b0384163b15610d465760405163f23a6e6160e01b81526001600160a01b0385169063f23a6e61906146129089908990889088908890600401615ef2565b6020604051808303816000875af192505050801561464d575060408051601f3d908101601f1916820190925261464a91810190615f2c565b60015b6146b6573d80801561467b576040519150601f19603f3d011682016040523d82523d6000602084013e614680565b606091505b5080516000036146ae57604051632bfa23e760e11b81526001600160a01b0386166004820152602401610d30565b805181602001fd5b6001600160e01b0319811663f23a6e6160e01b146142c457604051632bfa23e760e11b81526001600160a01b0386166004820152602401610d30565b6001600160a01b0384163b15610d465760405163bc197c8160e01b81526001600160a01b0385169063bc197c81906147369089908990889088908890600401615f49565b6020604051808303816000875af1925050508015614771575060408051601f3d908101601f1916820190925261476e91810190615f2c565b60015b61479f573d80801561467b576040519150601f19603f3d011682016040523d82523d6000602084013e614680565b6001600160e01b0319811663bc197c8160e01b146142c457604051632bfa23e760e11b81526001600160a01b0386166004820152602401610d30565b6000828152600d602052604081206012810180549192916147fb90615580565b90501115614a5e57600e81015460405163cf54ee1d60e01b815260048101849052600091829182916001600160a01b03169063cf54ee1d906024016040805180830381865afa158015614852573d6000803e3d6000fd5b505050506040513d601f19601f820116820180604052508101906148769190615733565b601086015491935091506001600160a01b0316156149185760108401546001600160a01b039081166000908152600f602090815260408083208854909416835292905290812080548392906148cc90849061578d565b9091555050835460108501546040516001600160a01b0392831692909116908890600080516020615f9c8339815191529061490b9060029087906159b1565b60405180910390a4614925565b614922818461578d565b92505b60118401546001600160a01b0316156149c25760118401546001600160a01b039081166000908152600f6020908152604080832088549094168352929052908120805484929061497690849061578d565b9091555050835460118501546040516001600160a01b0392831692909116908890600080516020615f9c833981519152906149b59060029088906159b1565b60405180910390a46149cf565b6149cc828461578d565b92505b8215610d4657600c546001600160a01b039081166000908152600f60209081526040808320885490941683529290529081208054859290614a1190849061578d565b90915550508354600c546040516001600160a01b0392831692909116908890600080516020615f9c83398151915290614a4e9060039089906159b1565b60405180910390a4505050505050565b600981018054839190600090614a7590849061578d565b9091555050505050565b5080546000825590600052602060002090810190612e6b91905b80821115614aad5760008155600101614a99565b5090565b6001600160a01b0381168114612e6b57600080fd5b8035614ad181614ab1565b919050565b60008060408385031215614ae957600080fd5b8235614af481614ab1565b946020939093013593505050565b6001600160e01b031981168114612e6b57600080fd5b600060208284031215614b2a57600080fd5b8135614b3581614b02565b9392505050565b60008083601f840112614b4e57600080fd5b5081356001600160401b03811115614b6557600080fd5b602083019150836020828501011115612b6857600080fd5b60008060208385031215614b9057600080fd5b82356001600160401b03811115614ba657600080fd5b614bb285828601614b3c565b90969095509350505050565b600060408284031215612c0e57600080fd5b600080600080600060808688031215614be857600080fd5b8535614bf381614ab1565b94506020860135935060408601356001600160401b0380821115614c1657600080fd5b614c2289838a01614b3c565b90955093506060880135915080821115614c3b57600080fd5b50614c4888828901614bbe565b9150509295509295909350565b600060208284031215614c6757600080fd5b5035919050565b6000815180845260005b81811015614c9457602081850181015186830182015201614c78565b506000602082860101526020601f19601f83011685010191505092915050565b602081526000614b356020830184614c6e565b600060208284031215614cd957600080fd5b8135614b3581614ab1565b634e487b7160e01b600052604160045260246000fd5b604080519081016001600160401b0381118282101715614d1c57614d1c614ce4565b60405290565b604051601f8201601f191681016001600160401b0381118282101715614d4a57614d4a614ce4565b604052919050565b60006001600160401b03821115614d6b57614d6b614ce4565b5060051b60200190565b600082601f830112614d8657600080fd5b81356020614d9b614d9683614d52565b614d22565b8083825260208201915060208460051b870101935086841115614dbd57600080fd5b602086015b84811015614dd95780358352918301918301614dc2565b509695505050505050565b600082601f830112614df557600080fd5b81356001600160401b03811115614e0e57614e0e614ce4565b614e21601f8201601f1916602001614d22565b818152846020838601011115614e3657600080fd5b816020850160208301376000918101602001919091529392505050565b600080600080600060a08688031215614e6b57600080fd5b8535614e7681614ab1565b94506020860135614e8681614ab1565b935060408601356001600160401b0380821115614ea257600080fd5b614eae89838a01614d75565b94506060880135915080821115614ec457600080fd5b614ed089838a01614d75565b93506080880135915080821115614ee657600080fd5b50614c4888828901614de4565b6001600160801b0381168114612e6b57600080fd5b8035614ad181614ef3565b600082601f830112614f2457600080fd5b81356020614f34614d9683614d52565b8083825260208201915060208460051b870101935086841115614f5657600080fd5b602086015b84811015614dd9578035614f6e81614ef3565b8352918301918301614f5b565b600080600060608486031215614f9057600080fd5b8335925060208401356001600160401b0380821115614fae57600080fd5b614fba87838801614f13565b93506040860135915080821115614fd057600080fd5b50614fdd86828701614f13565b9150509250925092565b60008060408385031215614ffa57600080fd5b82356001600160401b038082111561501157600080fd5b818501915085601f83011261502557600080fd5b81356020615035614d9683614d52565b82815260059290921b8401810191818101908984111561505457600080fd5b948201945b8386101561507b57853561506c81614ab1565b82529482019490820190615059565b9650508601359250508082111561509157600080fd5b5061509e85828601614d75565b9150509250929050565b60008151808452602080850194506020840160005b838110156150d9578151875295820195908201906001016150bd565b509495945050505050565b602081526000614b3560208301846150a8565b6000806040838503121561510a57600080fd5b82359150602083013561511c81614ab1565b809150509250929050565b6000806040838503121561513a57600080fd5b50508035926020909101359150565b600080600080600080600080610100898b03121561516657600080fd5b883561517181614ab1565b9750602089013561518181614ab1565b9650604089013561519181614ab1565b955060608901356151a181614ab1565b945060808901356151b181614ab1565b93506151bf60a08a01614f08565b925060c08901356001600160401b03808211156151db57600080fd5b6151e78c838d01614f13565b935060e08b01359150808211156151fd57600080fd5b5061520a8b828c01614f13565b9150509295985092959890939650565b60008060006060848603121561522f57600080fd5b505081359360208301359350604090920135919050565b80516001600160a01b031682526020808201516101c082850181905281519085018190526000926101e086019281019184905b808210156152b157835180516001600160801b0390811687529084015116838601526040909401939282019260019190910190615279565b5050505060408301516040850152606083015160608501526080830151608085015260a083015160a085015260c083015161531a60c086018280518252602081015160208301526040810151604083015260608101516060830152608081015160808301525050565b5060e08301518051610160860152602081015161018086015260408101516101a0860152610f4e565b60c08152600061535660c0830189615246565b6001600160a01b038881166020850152878116604085015286811660608501528516608084015282810360a084015261538f8185614c6e565b9998505050505050505050565b8015158114612e6b57600080fd5b600080604083850312156153bd57600080fd5b82356153c881614ab1565b9150602083013561511c8161539c565b600080604083850312156153eb57600080fd5b82356153f681614ab1565b9150602083013561511c81614ab1565b600080600080600080600060c0888a03121561542157600080fd5b61542a88614ac6565b96506020880135955060408801356001600160401b038082111561544d57600080fd5b6154598b838c01614b3c565b909750955060608a013591508082111561547257600080fd5b61547e8b838c01614bbe565b945060808a013591508082111561549457600080fd5b6154a08b838c01614f13565b935060a08a01359150808211156154b657600080fd5b506154c38a828b01614f13565b91505092959891949750929550565b600080600080600060a086880312156154ea57600080fd5b85356154f581614ab1565b9450602086013561550581614ab1565b9350604086013592506060860135915060808601356001600160401b0381111561552e57600080fd5b614c4888828901614de4565b634e487b7160e01b600052601160045260246000fd5b8181038181111561092c5761092c61553a565b60006020828403121561557557600080fd5b8151614b358161539c565b600181811c9082168061559457607f821691505b602082108103612c0e57634e487b7160e01b600052602260045260246000fd5b60008151808452602080850194506020840160005b838110156150d95781516001600160801b0316875295820195908201906001016155c9565b84815260806020820152600061560760808301866155b4565b828103604084015261561981866155b4565b9150506001600160801b038316606083015295945050505050565b6000602080838503121561564757600080fd5b82516001600160401b0381111561565d57600080fd5b8301601f8101851361566e57600080fd5b805161567c614d9682614d52565b81815260069190911b8201830190838101908783111561569b57600080fd5b928401925b828410156156f157604084890312156156b95760008081fd5b6156c1614cfa565b84516156cc81614ef3565b8152848601516156db81614ef3565b81870152825260409390930192908401906156a0565b979650505050505050565b634e487b7160e01b600052603260045260246000fd5b82815260406020820152600061572b6040830184615246565b949350505050565b6000806040838503121561574657600080fd5b505080516020909101519092909150565b6000806000806080858703121561576d57600080fd5b505082516020840151604085015160609095015191969095509092509050565b8082018082111561092c5761092c61553a565b60006020808352600084546157b481615580565b80602087015260406001808416600081146157d657600181146157f257615822565b60ff19851660408a0152604084151560051b8a01019550615822565b89600052602060002060005b858110156158195781548b82018601529083019088016157fe565b8a016040019650505b509398975050505050505050565b60008060008060008060008060006101208a8c03121561584f57600080fd5b8951985060208a0151975060408a0151965060608a0151955060808a0151945060a08a0151935060c08a0151925060e08a015191506101008a015190509295985092959850929598565b600081548084526020808501945083600052602060002060005b838110156150d95781546001600160801b038116885260801c83880152604090960195600191820191016158b3565b828152604060208201526159116040820161590484546001600160a01b031690565b6001600160a01b03169052565b6101c06060820152600061592c610200830160018501615899565b60028401546080840152600384015460a0840152600484015460c0840152600584015460e08401526006840154610100840152600784015461012084015260088401546101408401526009840154610160840152600a840154610180840152600b8401546101a0840152600c8401546101c0840152600d8401546101e084015261572b565b60408101600684106159d357634e487b7160e01b600052602160045260246000fd5b9281526020015290565b601f821115610be3576000816000526020600020601f850160051c81016020861015615a065750805b601f850160051c820191505b81811015610d4657828155600101615a12565b81516001600160401b03811115615a3e57615a3e614ce4565b615a5281615a4c8454615580565b846159dd565b602080601f831160018114615a875760008415615a6f5750858301515b600019600386901b1c1916600185901b178555610d46565b600085815260208120601f198616915b82811015615ab657888601518255948401946001909101908401615a97565b5085821015615ad45787850151600019600388901b60f8161c191681555b5050505050600190811b01905550565b81835281816020850137506000828201602090810191909152601f909101601f19169091010190565b80356001600160401b0381168114614ad157600080fd5b6000808335601e19843603018112615b3b57600080fd5b83016020810192503590506001600160401b03811115615b5a57600080fd5b8060051b3603821315612b6857600080fd5b81835260006001600160fb1b03831115615b8557600080fd5b8260051b80836020870137939093016020019392505050565b6000808335601e19843603018112615bb557600080fd5b83016020810192503590506001600160401b03811115615bd457600080fd5b803603821315612b6857600080fd5b604081526000615bf7604083018587615ae4565b8281036020840152833560fe19853603018112615c1357600080fd5b6040825284016001600160401b03615c2a82615b0d565b166040830152615c3c60208201615b0d565b6001600160401b03811660608401525060408101356080830152606081013560a0830152608081013560c083015260a081013560e0830152615c8160c0820182615b24565b61010084810152615c9761014085018284615b6c565b915050615ca760e0830183615b24565b848303603f19016101208601529250615cc1828483615b6c565b92505050615cd26020860186615b9e565b838303602085015261538f838284615ae4565b60208152600061572b602083018486615ae4565b600080600060608486031215615d0e57600080fd5b835192506020840151615d2081614ab1565b6040850151909250615d3181614ab1565b809150509250925092565b6001600160401b03831115615d5357615d53614ce4565b615d6783615d618354615580565b836159dd565b6000601f841160018114615d9b5760008515615d835750838201355b600019600387901b1c1916600186901b178355610e83565b600083815260209020601f19861690835b82811015615dcc5786850135825560209485019460019092019101615dac565b5086821015615de95760001960f88860031b161c19848701351681555b505060018560011b0183555050505050565b838152606060208201526000615e1460608301856155b4565b82810360408401526109e581856155b4565b60006020808385031215615e3957600080fd5b82516001600160401b03811115615e4f57600080fd5b8301601f81018513615e6057600080fd5b8051615e6e614d9682614d52565b81815260059190911b82018301908381019087831115615e8d57600080fd5b928401925b828410156156f157835182529284019290840190615e92565b600060018201615ebd57615ebd61553a565b5060010190565b604081526000615ed760408301856150a8565b8281036020840152615ee981856150a8565b95945050505050565b6001600160a01b03868116825285166020820152604081018490526060810183905260a0608082018190526000906156f190830184614c6e565b600060208284031215615f3e57600080fd5b8151614b3581614b02565b6001600160a01b0386811682528516602082015260a060408201819052600090615f75908301866150a8565b8281036060840152615f8781866150a8565b9050828103608084015261288b8185614c6e56fe4b984622ccd95d46d58ee4b4ec121acbc6f1d9de4a5997f2013e0daf02c10104a26469706673582212201d9256da88a993bf57b7a14d6d1d7038820332660151866386900b7633c5a71164736f6c63430008180033","linkReferences":{}},"methodIdentifiers":{"accounts(address,address)":"ad74b775","addDapp(address)":"27b7ca5f","balanceOf(address,uint256)":"00fdd58e","balanceOfBatch(address[],uint256[])":"4e1273f4","bondingCurveSteps(uint256)":"fa1c4db6","buyTapes(bytes32,uint256,uint256)":"9165f843","changeTapeModel(bytes32,address)":"5db8076c","consumeTapes(bytes32,uint256)":"b495bbb0","currencyTokenAddress()":"d3c3b389","dappAddresses(address)":"787ca438","exists(bytes32)":"38a699a4","feeModelAddress()":"3ab03c8b","getCurrentBuyPrice(bytes32,uint256)":"724969e7","getCurrentConsumePrice(bytes32,uint256)":"bbfef088","getCurrentSellPrice(bytes32,uint256)":"b16cae66","getTapeData(bytes32)":"796aea77","isApprovedForAll(address,address)":"e985e9c5","maxSupply()":"d5abeb01","maxTapeSupply(bytes32)":"9ba01fbe","owner()":"8da5cb5b","renounceOwnership()":"715018a6","safeBatchTransferFrom(address,address,uint256[],uint256[],bytes)":"2eb2c2d6","safeTransferFrom(address,address,uint256,uint256,bytes)":"f242432a","sellTapes(bytes32,uint256,uint256)":"828ef8d9","setApprovalForAll(address,bool)":"a22cb465","setTapeParams(bytes32)":"e5a41243","setTapeParamsCustom(bytes32,uint128[],uint128[])":"3a18c8d0","setURI(string)":"02fe5305","supportsInterface(bytes4)":"01ffc9a7","tapeBondUtilsAddress()":"fabe3824","tapeBondingCurveModelAddress()":"3b6e02af","tapeBonds(bytes32)":"8f8b185b","tapeBondsCreated(uint256)":"eb596d01","tapeModelAddress()":"6a386ed2","tapeOwnershipModelAddress()":"22f046b5","tapesCount()":"7fb90ea6","totalTapes()":"c5b67e81","transferOwnership(address)":"f2fde38b","updateBondingCurveParams(address,address,address,address,address,uint128,uint128[],uint128[])":"7da36046","updateProtocolWallet(address)":"e308a099","uri(uint256)":"0e89341c","validateTape(address,bytes32,bytes,((uint64,uint64,bytes32,bytes32,bytes32,bytes32,bytes32[],bytes32[]),bytes))":"07974110","validateTapeCustom(address,bytes32,bytes,((uint64,uint64,bytes32,bytes32,bytes32,bytes32,bytes32[],bytes32[]),bytes),uint128[],uint128[])":"b7f012df","withdrawBalance(address,uint256)":"0cf20cc9"},"id":54}