{
  "abi": [
    {
      "inputs": [
        {
          "internalType": "address",
          "name": "newProtocolWallet",
          "type": "address"
        },
        {
          "internalType": "uint256",
          "name": "maxSteps",
          "type": "uint256"
        },
        {
          "internalType": "address",
          "name": "newCurrencyToken",
          "type": "address"
        },
        {
          "internalType": "address",
          "name": "newFeeModel",
          "type": "address"
        },
        {
          "internalType": "address",
          "name": "newTapeModel",
          "type": "address"
        },
        {
          "internalType": "address",
          "name": "newTapeBondUtilsAddress",
          "type": "address"
        },
        {
          "internalType": "uint128",
          "name": "newMaxSupply",
          "type": "uint128"
        },
        {
          "internalType": "uint128[]",
          "name": "stepRangesMax",
          "type": "uint128[]"
        },
        {
          "internalType": "uint128[]",
          "name": "stepCoefficients",
          "type": "uint128[]"
        }
      ],
      "stateMutability": "nonpayable",
      "type": "constructor"
    },
    {
      "inputs": [
        {
          "internalType": "address",
          "name": "sender",
          "type": "address"
        },
        {
          "internalType": "uint256",
          "name": "balance",
          "type": "uint256"
        },
        {
          "internalType": "uint256",
          "name": "needed",
          "type": "uint256"
        },
        {
          "internalType": "uint256",
          "name": "tokenId",
          "type": "uint256"
        }
      ],
      "name": "ERC1155InsufficientBalance",
      "type": "error"
    },
    {
      "inputs": [
        {
          "internalType": "address",
          "name": "approver",
          "type": "address"
        }
      ],
      "name": "ERC1155InvalidApprover",
      "type": "error"
    },
    {
      "inputs": [
        {
          "internalType": "uint256",
          "name": "idsLength",
          "type": "uint256"
        },
        {
          "internalType": "uint256",
          "name": "valuesLength",
          "type": "uint256"
        }
      ],
      "name": "ERC1155InvalidArrayLength",
      "type": "error"
    },
    {
      "inputs": [
        {
          "internalType": "address",
          "name": "operator",
          "type": "address"
        }
      ],
      "name": "ERC1155InvalidOperator",
      "type": "error"
    },
    {
      "inputs": [
        {
          "internalType": "address",
          "name": "receiver",
          "type": "address"
        }
      ],
      "name": "ERC1155InvalidReceiver",
      "type": "error"
    },
    {
      "inputs": [
        {
          "internalType": "address",
          "name": "sender",
          "type": "address"
        }
      ],
      "name": "ERC1155InvalidSender",
      "type": "error"
    },
    {
      "inputs": [
        {
          "internalType": "address",
          "name": "operator",
          "type": "address"
        },
        {
          "internalType": "address",
          "name": "owner",
          "type": "address"
        }
      ],
      "name": "ERC1155MissingApprovalForAll",
      "type": "error"
    },
    {
      "inputs": [
        {
          "internalType": "address",
          "name": "owner",
          "type": "address"
        }
      ],
      "name": "OwnableInvalidOwner",
      "type": "error"
    },
    {
      "inputs": [
        {
          "internalType": "address",
          "name": "account",
          "type": "address"
        }
      ],
      "name": "OwnableUnauthorizedAccount",
      "type": "error"
    },
    {
      "inputs": [],
      "name": "Tape__ChangeError",
      "type": "error"
    },
    {
      "inputs": [],
      "name": "Tape__InsufficientFunds",
      "type": "error"
    },
    {
      "inputs": [],
      "name": "Tape__InvalidAmount",
      "type": "error"
    },
    {
      "inputs": [
        {
          "internalType": "string",
          "name": "reason",
          "type": "string"
        }
      ],
      "name": "Tape__InvalidBondParams",
      "type": "error"
    },
    {
      "inputs": [],
      "name": "Tape__InvalidDapp",
      "type": "error"
    },
    {
      "inputs": [
        {
          "internalType": "string",
          "name": "reason",
          "type": "string"
        }
      ],
      "name": "Tape__InvalidTape",
      "type": "error"
    },
    {
      "inputs": [],
      "name": "Tape__InvalidUser",
      "type": "error"
    },
    {
      "inputs": [],
      "name": "Tape__NotFound",
      "type": "error"
    },
    {
      "inputs": [],
      "name": "Tape__SlippageLimitExceeded",
      "type": "error"
    },
    {
      "anonymous": false,
      "inputs": [
        {
          "indexed": true,
          "internalType": "address",
          "name": "account",
          "type": "address"
        },
        {
          "indexed": true,
          "internalType": "address",
          "name": "operator",
          "type": "address"
        },
        {
          "indexed": false,
          "internalType": "bool",
          "name": "approved",
          "type": "bool"
        }
      ],
      "name": "ApprovalForAll",
      "type": "event"
    },
    {
      "anonymous": false,
      "inputs": [
        {
          "indexed": true,
          "internalType": "bytes32",
          "name": "tapeId",
          "type": "bytes32"
        },
        {
          "indexed": true,
          "internalType": "address",
          "name": "user",
          "type": "address"
        },
        {
          "indexed": false,
          "internalType": "uint256",
          "name": "amountMinted",
          "type": "uint256"
        },
        {
          "indexed": false,
          "internalType": "uint256",
          "name": "pricePayed",
          "type": "uint256"
        }
      ],
      "name": "Buy",
      "type": "event"
    },
    {
      "anonymous": false,
      "inputs": [
        {
          "indexed": true,
          "internalType": "bytes32",
          "name": "tapeId",
          "type": "bytes32"
        },
        {
          "indexed": true,
          "internalType": "address",
          "name": "user",
          "type": "address"
        },
        {
          "indexed": false,
          "internalType": "uint256",
          "name": "amountConsumed",
          "type": "uint256"
        },
        {
          "indexed": false,
          "internalType": "uint256",
          "name": "currencyDonated",
          "type": "uint256"
        }
      ],
      "name": "Consume",
      "type": "event"
    },
    {
      "anonymous": false,
      "inputs": [
        {
          "indexed": true,
          "internalType": "address",
          "name": "previousOwner",
          "type": "address"
        },
        {
          "indexed": true,
          "internalType": "address",
          "name": "newOwner",
          "type": "address"
        }
      ],
      "name": "OwnershipTransferred",
      "type": "event"
    },
    {
      "anonymous": false,
      "inputs": [
        {
          "indexed": true,
          "internalType": "bytes32",
          "name": "tapeId",
          "type": "bytes32"
        },
        {
          "indexed": true,
          "internalType": "address",
          "name": "user",
          "type": "address"
        },
        {
          "indexed": true,
          "internalType": "address",
          "name": "token",
          "type": "address"
        },
        {
          "indexed": false,
          "internalType": "uint256",
          "name": "amount",
          "type": "uint256"
        },
        {
          "indexed": false,
          "internalType": "enum TapeBondUtils.RewardType",
          "name": "rewardType",
          "type": "uint8"
        }
      ],
      "name": "Reward",
      "type": "event"
    },
    {
      "anonymous": false,
      "inputs": [
        {
          "indexed": true,
          "internalType": "bytes32",
          "name": "tapeId",
          "type": "bytes32"
        },
        {
          "indexed": true,
          "internalType": "address",
          "name": "user",
          "type": "address"
        },
        {
          "indexed": false,
          "internalType": "uint256",
          "name": "amountBurned",
          "type": "uint256"
        },
        {
          "indexed": false,
          "internalType": "uint256",
          "name": "refundReceived",
          "type": "uint256"
        }
      ],
      "name": "Sell",
      "type": "event"
    },
    {
      "anonymous": false,
      "inputs": [
        {
          "indexed": true,
          "internalType": "address",
          "name": "operator",
          "type": "address"
        },
        {
          "indexed": true,
          "internalType": "address",
          "name": "from",
          "type": "address"
        },
        {
          "indexed": true,
          "internalType": "address",
          "name": "to",
          "type": "address"
        },
        {
          "indexed": false,
          "internalType": "uint256[]",
          "name": "ids",
          "type": "uint256[]"
        },
        {
          "indexed": false,
          "internalType": "uint256[]",
          "name": "values",
          "type": "uint256[]"
        }
      ],
      "name": "TransferBatch",
      "type": "event"
    },
    {
      "anonymous": false,
      "inputs": [
        {
          "indexed": true,
          "internalType": "address",
          "name": "operator",
          "type": "address"
        },
        {
          "indexed": true,
          "internalType": "address",
          "name": "from",
          "type": "address"
        },
        {
          "indexed": true,
          "internalType": "address",
          "name": "to",
          "type": "address"
        },
        {
          "indexed": false,
          "internalType": "uint256",
          "name": "id",
          "type": "uint256"
        },
        {
          "indexed": false,
          "internalType": "uint256",
          "name": "value",
          "type": "uint256"
        }
      ],
      "name": "TransferSingle",
      "type": "event"
    },
    {
      "anonymous": false,
      "inputs": [
        {
          "indexed": false,
          "internalType": "string",
          "name": "value",
          "type": "string"
        },
        {
          "indexed": true,
          "internalType": "uint256",
          "name": "id",
          "type": "uint256"
        }
      ],
      "name": "URI",
      "type": "event"
    },
    {
      "inputs": [
        {
          "internalType": "address",
          "name": "",
          "type": "address"
        },
        {
          "internalType": "address",
          "name": "",
          "type": "address"
        }
      ],
      "name": "accounts",
      "outputs": [
        {
          "internalType": "uint256",
          "name": "",
          "type": "uint256"
        }
      ],
      "stateMutability": "view",
      "type": "function"
    },
    {
      "inputs": [
        {
          "internalType": "address",
          "name": "dapp",
          "type": "address"
        }
      ],
      "name": "addDapp",
      "outputs": [],
      "stateMutability": "nonpayable",
      "type": "function"
    },
    {
      "inputs": [],
      "name": "balance",
      "outputs": [
        {
          "internalType": "uint256",
          "name": "",
          "type": "uint256"
        }
      ],
      "stateMutability": "view",
      "type": "function"
    },
    {
      "inputs": [
        {
          "internalType": "address",
          "name": "account",
          "type": "address"
        },
        {
          "internalType": "uint256",
          "name": "id",
          "type": "uint256"
        }
      ],
      "name": "balanceOf",
      "outputs": [
        {
          "internalType": "uint256",
          "name": "",
          "type": "uint256"
        }
      ],
      "stateMutability": "view",
      "type": "function"
    },
    {
      "inputs": [
        {
          "internalType": "address[]",
          "name": "accounts",
          "type": "address[]"
        },
        {
          "internalType": "uint256[]",
          "name": "ids",
          "type": "uint256[]"
        }
      ],
      "name": "balanceOfBatch",
      "outputs": [
        {
          "internalType": "uint256[]",
          "name": "",
          "type": "uint256[]"
        }
      ],
      "stateMutability": "view",
      "type": "function"
    },
    {
      "inputs": [
        {
          "internalType": "uint256",
          "name": "",
          "type": "uint256"
        }
      ],
      "name": "bondingCurveSteps",
      "outputs": [
        {
          "internalType": "uint128",
          "name": "rangeMax",
          "type": "uint128"
        },
        {
          "internalType": "uint128",
          "name": "coefficient",
          "type": "uint128"
        }
      ],
      "stateMutability": "view",
      "type": "function"
    },
    {
      "inputs": [
        {
          "internalType": "bytes32",
          "name": "tapeId",
          "type": "bytes32"
        },
        {
          "internalType": "uint256",
          "name": "tapesToMint",
          "type": "uint256"
        },
        {
          "internalType": "uint256",
          "name": "maxCurrencyPrice",
          "type": "uint256"
        }
      ],
      "name": "buyTapes",
      "outputs": [
        {
          "internalType": "uint256",
          "name": "currencyCost",
          "type": "uint256"
        }
      ],
      "stateMutability": "payable",
      "type": "function"
    },
    {
      "inputs": [
        {
          "internalType": "bytes32",
          "name": "tapeId",
          "type": "bytes32"
        },
        {
          "internalType": "address",
          "name": "newTapeModel",
          "type": "address"
        }
      ],
      "name": "changeTapeModel",
      "outputs": [],
      "stateMutability": "nonpayable",
      "type": "function"
    },
    {
      "inputs": [
        {
          "internalType": "bytes32",
          "name": "tapeId",
          "type": "bytes32"
        },
        {
          "internalType": "uint256",
          "name": "tapesToConsume",
          "type": "uint256"
        }
      ],
      "name": "consumeTapes",
      "outputs": [
        {
          "internalType": "uint256",
          "name": "",
          "type": "uint256"
        }
      ],
      "stateMutability": "nonpayable",
      "type": "function"
    },
    {
      "inputs": [],
      "name": "currencyTokenAddress",
      "outputs": [
        {
          "internalType": "address",
          "name": "",
          "type": "address"
        }
      ],
      "stateMutability": "view",
      "type": "function"
    },
    {
      "inputs": [
        {
          "internalType": "uint256",
          "name": "",
          "type": "uint256"
        }
      ],
      "name": "dappAddresses",
      "outputs": [
        {
          "internalType": "address",
          "name": "",
          "type": "address"
        }
      ],
      "stateMutability": "view",
      "type": "function"
    },
    {
      "inputs": [
        {
          "internalType": "bytes32",
          "name": "tapeId",
          "type": "bytes32"
        }
      ],
      "name": "exists",
      "outputs": [
        {
          "internalType": "bool",
          "name": "",
          "type": "bool"
        }
      ],
      "stateMutability": "view",
      "type": "function"
    },
    {
      "inputs": [],
      "name": "feeModelAddress",
      "outputs": [
        {
          "internalType": "address",
          "name": "",
          "type": "address"
        }
      ],
      "stateMutability": "view",
      "type": "function"
    },
    {
      "inputs": [
        {
          "internalType": "bytes32",
          "name": "tapeId",
          "type": "bytes32"
        },
        {
          "internalType": "uint256",
          "name": "tokensToMint",
          "type": "uint256"
        }
      ],
      "name": "getCurrentBuyPrice",
      "outputs": [
        {
          "internalType": "uint256",
          "name": "",
          "type": "uint256"
        },
        {
          "internalType": "uint256",
          "name": "",
          "type": "uint256"
        },
        {
          "internalType": "uint256",
          "name": "",
          "type": "uint256"
        }
      ],
      "stateMutability": "view",
      "type": "function"
    },
    {
      "inputs": [
        {
          "internalType": "bytes32",
          "name": "tapeId",
          "type": "bytes32"
        },
        {
          "internalType": "uint256",
          "name": "tokensToConsume",
          "type": "uint256"
        }
      ],
      "name": "getCurrentConsumePrice",
      "outputs": [
        {
          "internalType": "uint256",
          "name": "",
          "type": "uint256"
        },
        {
          "internalType": "uint256",
          "name": "",
          "type": "uint256"
        }
      ],
      "stateMutability": "view",
      "type": "function"
    },
    {
      "inputs": [
        {
          "internalType": "bytes32",
          "name": "tapeId",
          "type": "bytes32"
        },
        {
          "internalType": "uint256",
          "name": "tokensToBurn",
          "type": "uint256"
        }
      ],
      "name": "getCurrentSellPrice",
      "outputs": [
        {
          "internalType": "uint256",
          "name": "",
          "type": "uint256"
        },
        {
          "internalType": "uint256",
          "name": "",
          "type": "uint256"
        },
        {
          "internalType": "uint256",
          "name": "",
          "type": "uint256"
        }
      ],
      "stateMutability": "view",
      "type": "function"
    },
    {
      "inputs": [
        {
          "internalType": "bytes32",
          "name": "tapeId",
          "type": "bytes32"
        }
      ],
      "name": "getTapeData",
      "outputs": [
        {
          "internalType": "bytes32",
          "name": "",
          "type": "bytes32"
        },
        {
          "internalType": "bytes32",
          "name": "",
          "type": "bytes32"
        },
        {
          "internalType": "int256",
          "name": "",
          "type": "int256"
        },
        {
          "internalType": "bytes32",
          "name": "",
          "type": "bytes32"
        },
        {
          "internalType": "int256",
          "name": "",
          "type": "int256"
        },
        {
          "internalType": "bytes32",
          "name": "",
          "type": "bytes32"
        },
        {
          "internalType": "int256",
          "name": "",
          "type": "int256"
        }
      ],
      "stateMutability": "view",
      "type": "function"
    },
    {
      "inputs": [
        {
          "internalType": "address",
          "name": "account",
          "type": "address"
        },
        {
          "internalType": "address",
          "name": "operator",
          "type": "address"
        }
      ],
      "name": "isApprovedForAll",
      "outputs": [
        {
          "internalType": "bool",
          "name": "",
          "type": "bool"
        }
      ],
      "stateMutability": "view",
      "type": "function"
    },
    {
      "inputs": [],
      "name": "maxSupply",
      "outputs": [
        {
          "internalType": "uint128",
          "name": "",
          "type": "uint128"
        }
      ],
      "stateMutability": "view",
      "type": "function"
    },
    {
      "inputs": [
        {
          "internalType": "bytes32",
          "name": "tapeId",
          "type": "bytes32"
        }
      ],
      "name": "maxTapeSupply",
      "outputs": [
        {
          "internalType": "uint128",
          "name": "",
          "type": "uint128"
        }
      ],
      "stateMutability": "view",
      "type": "function"
    },
    {
      "inputs": [],
      "name": "owner",
      "outputs": [
        {
          "internalType": "address",
          "name": "",
          "type": "address"
        }
      ],
      "stateMutability": "view",
      "type": "function"
    },
    {
      "inputs": [],
      "name": "renounceOwnership",
      "outputs": [],
      "stateMutability": "nonpayable",
      "type": "function"
    },
    {
      "inputs": [
        {
          "internalType": "address",
          "name": "from",
          "type": "address"
        },
        {
          "internalType": "address",
          "name": "to",
          "type": "address"
        },
        {
          "internalType": "uint256[]",
          "name": "ids",
          "type": "uint256[]"
        },
        {
          "internalType": "uint256[]",
          "name": "values",
          "type": "uint256[]"
        },
        {
          "internalType": "bytes",
          "name": "data",
          "type": "bytes"
        }
      ],
      "name": "safeBatchTransferFrom",
      "outputs": [],
      "stateMutability": "nonpayable",
      "type": "function"
    },
    {
      "inputs": [
        {
          "internalType": "address",
          "name": "from",
          "type": "address"
        },
        {
          "internalType": "address",
          "name": "to",
          "type": "address"
        },
        {
          "internalType": "uint256",
          "name": "id",
          "type": "uint256"
        },
        {
          "internalType": "uint256",
          "name": "value",
          "type": "uint256"
        },
        {
          "internalType": "bytes",
          "name": "data",
          "type": "bytes"
        }
      ],
      "name": "safeTransferFrom",
      "outputs": [],
      "stateMutability": "nonpayable",
      "type": "function"
    },
    {
      "inputs": [
        {
          "internalType": "bytes32",
          "name": "tapeId",
          "type": "bytes32"
        },
        {
          "internalType": "uint256",
          "name": "tapesToBurn",
          "type": "uint256"
        },
        {
          "internalType": "uint256",
          "name": "minCurrencyRefund",
          "type": "uint256"
        }
      ],
      "name": "sellTapes",
      "outputs": [
        {
          "internalType": "uint256",
          "name": "",
          "type": "uint256"
        }
      ],
      "stateMutability": "nonpayable",
      "type": "function"
    },
    {
      "inputs": [
        {
          "internalType": "address",
          "name": "operator",
          "type": "address"
        },
        {
          "internalType": "bool",
          "name": "approved",
          "type": "bool"
        }
      ],
      "name": "setApprovalForAll",
      "outputs": [],
      "stateMutability": "nonpayable",
      "type": "function"
    },
    {
      "inputs": [
        {
          "internalType": "string",
          "name": "baseURI",
          "type": "string"
        }
      ],
      "name": "setBaseURI",
      "outputs": [],
      "stateMutability": "nonpayable",
      "type": "function"
    },
    {
      "inputs": [
        {
          "internalType": "bytes4",
          "name": "interfaceId",
          "type": "bytes4"
        }
      ],
      "name": "supportsInterface",
      "outputs": [
        {
          "internalType": "bool",
          "name": "",
          "type": "bool"
        }
      ],
      "stateMutability": "view",
      "type": "function"
    },
    {
      "inputs": [],
      "name": "tapeBondUtilsAddress",
      "outputs": [
        {
          "internalType": "address",
          "name": "",
          "type": "address"
        }
      ],
      "stateMutability": "view",
      "type": "function"
    },
    {
      "inputs": [
        {
          "internalType": "bytes32",
          "name": "",
          "type": "bytes32"
        }
      ],
      "name": "tapeBonds",
      "outputs": [
        {
          "internalType": "address",
          "name": "feeModel",
          "type": "address"
        },
        {
          "internalType": "address",
          "name": "currencyToken",
          "type": "address"
        },
        {
          "internalType": "address",
          "name": "tapeModel",
          "type": "address"
        },
        {
          "internalType": "uint256",
          "name": "currencyBalance",
          "type": "uint256"
        },
        {
          "internalType": "uint256",
          "name": "currentSupply",
          "type": "uint256"
        },
        {
          "internalType": "uint256",
          "name": "currentPrice",
          "type": "uint256"
        },
        {
          "internalType": "uint256",
          "name": "consumePrice",
          "type": "uint256"
        },
        {
          "components": [
            {
              "internalType": "uint256",
              "name": "mint",
              "type": "uint256"
            },
            {
              "internalType": "uint256",
              "name": "burn",
              "type": "uint256"
            },
            {
              "internalType": "uint256",
              "name": "consume",
              "type": "uint256"
            },
            {
              "internalType": "uint256",
              "name": "royalties",
              "type": "uint256"
            },
            {
              "internalType": "uint256",
              "name": "undistributedRoyalties",
              "type": "uint256"
            }
          ],
          "internalType": "struct TapeBondUtils.UnclaimedFees",
          "name": "unclaimed",
          "type": "tuple"
        },
        {
          "components": [
            {
              "internalType": "uint256",
              "name": "minted",
              "type": "uint256"
            },
            {
              "internalType": "uint256",
              "name": "burned",
              "type": "uint256"
            },
            {
              "internalType": "uint256",
              "name": "consumed",
              "type": "uint256"
            }
          ],
          "internalType": "struct TapeBondUtils.BondCount",
          "name": "count",
          "type": "tuple"
        },
        {
          "internalType": "address",
          "name": "cartridgeOwner",
          "type": "address"
        },
        {
          "internalType": "address",
          "name": "tapeCreator",
          "type": "address"
        },
        {
          "internalType": "bytes",
          "name": "tapeOutputData",
          "type": "bytes"
        }
      ],
      "stateMutability": "view",
      "type": "function"
    },
    {
      "inputs": [
        {
          "internalType": "uint256",
          "name": "",
          "type": "uint256"
        }
      ],
      "name": "tapeBondsCreated",
      "outputs": [
        {
          "internalType": "bytes32",
          "name": "",
          "type": "bytes32"
        }
      ],
      "stateMutability": "view",
      "type": "function"
    },
    {
      "inputs": [],
      "name": "tapeModelAddress",
      "outputs": [
        {
          "internalType": "address",
          "name": "",
          "type": "address"
        }
      ],
      "stateMutability": "view",
      "type": "function"
    },
    {
      "inputs": [],
      "name": "tapesCount",
      "outputs": [
        {
          "internalType": "uint256",
          "name": "",
          "type": "uint256"
        }
      ],
      "stateMutability": "view",
      "type": "function"
    },
    {
      "inputs": [],
      "name": "totalTapes",
      "outputs": [
        {
          "internalType": "uint256",
          "name": "",
          "type": "uint256"
        }
      ],
      "stateMutability": "view",
      "type": "function"
    },
    {
      "inputs": [
        {
          "internalType": "address",
          "name": "newOwner",
          "type": "address"
        }
      ],
      "name": "transferOwnership",
      "outputs": [],
      "stateMutability": "nonpayable",
      "type": "function"
    },
    {
      "inputs": [
        {
          "internalType": "address",
          "name": "newCurrencyToken",
          "type": "address"
        },
        {
          "internalType": "address",
          "name": "newFeeModel",
          "type": "address"
        },
        {
          "internalType": "address",
          "name": "newTapeModel",
          "type": "address"
        },
        {
          "internalType": "uint128",
          "name": "newMaxSupply",
          "type": "uint128"
        },
        {
          "internalType": "uint128[]",
          "name": "stepRangesMax",
          "type": "uint128[]"
        },
        {
          "internalType": "uint128[]",
          "name": "stepCoefficients",
          "type": "uint128[]"
        }
      ],
      "name": "updateBondingCUrveParams",
      "outputs": [],
      "stateMutability": "nonpayable",
      "type": "function"
    },
    {
      "inputs": [
        {
          "internalType": "address",
          "name": "newProtocolWallet",
          "type": "address"
        }
      ],
      "name": "updateProtocolWallet",
      "outputs": [],
      "stateMutability": "nonpayable",
      "type": "function"
    },
    {
      "inputs": [
        {
          "internalType": "uint256",
          "name": "tokenId",
          "type": "uint256"
        }
      ],
      "name": "uri",
      "outputs": [
        {
          "internalType": "string",
          "name": "",
          "type": "string"
        }
      ],
      "stateMutability": "view",
      "type": "function"
    },
    {
      "inputs": [
        {
          "internalType": "bytes32",
          "name": "tokenId",
          "type": "bytes32"
        }
      ],
      "name": "uri",
      "outputs": [
        {
          "internalType": "string",
          "name": "",
          "type": "string"
        }
      ],
      "stateMutability": "view",
      "type": "function"
    },
    {
      "inputs": [
        {
          "internalType": "address",
          "name": "dapp",
          "type": "address"
        },
        {
          "internalType": "bytes32",
          "name": "tapeId",
          "type": "bytes32"
        },
        {
          "internalType": "bytes",
          "name": "_payload",
          "type": "bytes"
        },
        {
          "components": [
            {
              "components": [
                {
                  "internalType": "uint64",
                  "name": "inputIndexWithinEpoch",
                  "type": "uint64"
                },
                {
                  "internalType": "uint64",
                  "name": "outputIndexWithinInput",
                  "type": "uint64"
                },
                {
                  "internalType": "bytes32",
                  "name": "outputHashesRootHash",
                  "type": "bytes32"
                },
                {
                  "internalType": "bytes32",
                  "name": "vouchersEpochRootHash",
                  "type": "bytes32"
                },
                {
                  "internalType": "bytes32",
                  "name": "noticesEpochRootHash",
                  "type": "bytes32"
                },
                {
                  "internalType": "bytes32",
                  "name": "machineStateHash",
                  "type": "bytes32"
                },
                {
                  "internalType": "bytes32[]",
                  "name": "outputHashInOutputHashesSiblings",
                  "type": "bytes32[]"
                },
                {
                  "internalType": "bytes32[]",
                  "name": "outputHashesInEpochSiblings",
                  "type": "bytes32[]"
                }
              ],
              "internalType": "struct OutputValidityProof",
              "name": "validity",
              "type": "tuple"
            },
            {
              "internalType": "bytes",
              "name": "context",
              "type": "bytes"
            }
          ],
          "internalType": "struct Proof",
          "name": "_v",
          "type": "tuple"
        }
      ],
      "name": "validateTape",
      "outputs": [
        {
          "internalType": "bytes32",
          "name": "",
          "type": "bytes32"
        }
      ],
      "stateMutability": "nonpayable",
      "type": "function"
    },
    {
      "inputs": [
        {
          "internalType": "address",
          "name": "token",
          "type": "address"
        },
        {
          "internalType": "uint256",
          "name": "amount",
          "type": "uint256"
        }
      ],
      "name": "withdrawBalance",
      "outputs": [],
      "stateMutability": "nonpayable",
      "type": "function"
    }
  ],
  "bytecode": {
    "object": "0x60c0604052600060a09081526004906200001a90826200055e565b503480156200002857600080fd5b506040516200647f3803806200647f8339810160408190526200004b916200070f565b60408051602081019091526000815233906200006781620000f8565b506001600160a01b0381166200009857604051631e4fbdf760e01b8152600060048201526024015b60405180910390fd5b620000a3816200010a565b50600b80546001600160a01b03808c166001600160a01b03199283161790925560808a90526009805492871692909116919091179055620000e98787878686866200015c565b5050505050505050506200088e565b60026200010682826200055e565b5050565b600380546001600160a01b038381166001600160a01b0319831681179093556040519116919082907f8be0079c531659141344cd1fd0a4f28419497f9722a3daafe3b4186f6b6457e090600090a35050565b60095460405163169f6b0560e11b81526001600160a01b03888116600483015290911690632d3ed60a9060240160006040518083038186803b158015620001a257600080fd5b505afa158015620001b7573d6000803e3d6000fd5b505060095460405163f610a03960e01b81526001600160a01b038981166004830152909116925063f610a039915060240160006040518083038186803b1580156200020157600080fd5b505afa15801562000216573d6000803e3d6000fd5b505060095460405163f8e0044b60e01b81526001600160a01b038881166004830152909116925063f8e0044b915060240160006040518083038186803b1580156200026057600080fd5b505afa15801562000275573d6000803e3d6000fd5b50506009546080516040516333d4fbe360e21b81526001600160a01b03909216935063cf53ef8c9250620002b391879190879087906004016200083b565b60006040518083038186803b158015620002cc57600080fd5b505afa158015620002e1573d6000803e3d6000fd5b5050505060056000620002f5919062000479565b60005b82518110156200041857600083828151811062000319576200031962000878565b60200260200101516001600160801b03169050600083838151811062000343576200034362000878565b60200260200101516001600160801b0316905081600003620003a9576040516356a30db560e01b815260206004820152601360248201527f535445505f43414e4e4f545f42455f5a45524f0000000000000000000000000060448201526064016200008f565b604080518082019091526001600160801b039283168152908216602082019081526005805460018181018355600092909252925191518416600160801b0291909316177f036b6384b5eca791c62761152d0c79bb0604c104a5fb6f4eb0703f3154bb3db09091015501620002f8565b5050600680546001600160a01b03199081166001600160a01b039788161790915560078054821695871695909517909455506008805490931691909316179055600a80546001600160801b0319166001600160801b03909216919091179055565b50805460008255906000526020600020908101906200049991906200049c565b50565b5b80821115620004b357600081556001016200049d565b5090565b634e487b7160e01b600052604160045260246000fd5b600181811c90821680620004e257607f821691505b6020821081036200050357634e487b7160e01b600052602260045260246000fd5b50919050565b601f82111562000559576000816000526020600020601f850160051c81016020861015620005345750805b601f850160051c820191505b81811015620005555782815560010162000540565b5050505b505050565b81516001600160401b038111156200057a576200057a620004b7565b62000592816200058b8454620004cd565b8462000509565b602080601f831160018114620005ca5760008415620005b15750858301515b600019600386901b1c1916600185901b17855562000555565b600085815260208120601f198616915b82811015620005fb57888601518255948401946001909101908401620005da565b50858210156200061a5787850151600019600388901b60f8161c191681555b5050505050600190811b01905550565b80516001600160a01b03811681146200064257600080fd5b919050565b80516001600160801b03811681146200064257600080fd5b600082601f8301126200067157600080fd5b815160206001600160401b0380831115620006905762000690620004b7565b8260051b604051601f19603f83011681018181108482111715620006b857620006b8620004b7565b6040529384526020818701810194908101925087851115620006d957600080fd5b6020870191505b848210156200070457620006f48262000647565b83529183019190830190620006e0565b979650505050505050565b60008060008060008060008060006101208a8c0312156200072f57600080fd5b6200073a8a6200062a565b985060208a015197506200075160408b016200062a565b96506200076160608b016200062a565b95506200077160808b016200062a565b94506200078160a08b016200062a565b93506200079160c08b0162000647565b60e08b01519093506001600160401b0380821115620007af57600080fd5b620007bd8d838e016200065f565b93506101008c0151915080821115620007d557600080fd5b50620007e48c828d016200065f565b9150509295985092959850929598565b60008151808452602080850194506020840160005b83811015620008305781516001600160801b03168752958201959082019060010162000809565b509495945050505050565b60018060801b0385168152836020820152608060408201526000620008646080830185620007f4565b8281036060840152620007048185620007f4565b634e487b7160e01b600052603260045260246000fd5b608051615bd5620008aa60003960006138c90152615bd56000f3fe6080604052600436106102455760003560e01c80638f8b185b11610139578063c5b67e81116100b6578063eb596d011161007a578063eb596d0114610783578063ecead403146107a3578063f242432a146107c3578063f2fde38b146107e3578063fa1c4db614610803578063fabe38241461084357600080fd5b8063c5b67e81146106ee578063d3c3b38914610703578063d5abeb0114610723578063e308a09914610743578063e985e9c51461076357600080fd5b8063ad74b775116100fd578063ad74b7751461062e578063b16cae6614610666578063b495bbb014610686578063b69ef8a8146106a6578063bbfef088146106b957600080fd5b80638f8b185b1461056b5780639165f843146105a35780639ba01fbe146105b65780639ed19ddb146105ee578063a22cb4651461060e57600080fd5b80634e1273f4116101c7578063724969e71161018b578063724969e714610488578063796aea77146104c35780637fb90ea614610518578063828ef8d91461052d5780638da5cb5b1461054d57600080fd5b80634e1273f4146103e657806355f804b3146104135780635db8076c146104335780636a386ed214610453578063715018a61461047357600080fd5b806321b45a0d1161020e57806321b45a0d1461031c57806327b7ca5f1461033c5780632eb2c2d61461035c57806338a699a41461037c5780633ab03c8b146103ae57600080fd5b8062fdd58e1461024a57806301ffc9a71461027d57806307974110146102ad5780630cf20cc9146102cd5780630e89341c146102ef575b600080fd5b34801561025657600080fd5b5061026a6102653660046146fa565b610863565b6040519081526020015b60405180910390f35b34801561028957600080fd5b5061029d61029836600461473c565b61088b565b6040519015158152602001610274565b3480156102b957600080fd5b5061026a6102c8366004614772565b6108db565b3480156102d957600080fd5b506102ed6102e83660046146fa565b610fd6565b005b3480156102fb57600080fd5b5061030f61030a366004614825565b6111cf565b604051610274919061488e565b34801561032857600080fd5b506102ed61033736600461499c565b6111da565b34801561034857600080fd5b506102ed610357366004614a46565b6111f8565b34801561036857600080fd5b506102ed610377366004614b39565b6112c1565b34801561038857600080fd5b5061029d610397366004614825565b6000908152600c6020526040902060030154151590565b3480156103ba57600080fd5b506007546103ce906001600160a01b031681565b6040516001600160a01b039091168152602001610274565b3480156103f257600080fd5b50610406610401366004614bd9565b611320565b6040516102749190614cd6565b34801561041f57600080fd5b506102ed61042e366004614ce9565b6113ec565b34801561043f57600080fd5b506102ed61044e366004614d39565b611404565b34801561045f57600080fd5b506008546103ce906001600160a01b031681565b34801561047f57600080fd5b506102ed611531565b34801561049457600080fd5b506104a86104a3366004614d69565b611545565b60408051938452602084019290925290820152606001610274565b3480156104cf57600080fd5b506104e36104de366004614825565b611a00565b604080519788526020880196909652948601939093526060850191909152608084015260a083015260c082015260e001610274565b34801561052457600080fd5b50600d5461026a565b34801561053957600080fd5b5061026a610548366004614d8b565b611b0c565b34801561055957600080fd5b506003546001600160a01b03166103ce565b34801561057757600080fd5b5061058b610586366004614825565b611f80565b6040516102749c9b9a99989796959493929190614db7565b61026a6105b1366004614d8b565b6120d1565b3480156105c257600080fd5b506105d66105d1366004614825565b61254e565b6040516001600160801b039091168152602001610274565b3480156105fa57600080fd5b5061030f610609366004614825565b612598565b34801561061a57600080fd5b506102ed610629366004614e8d565b6125ed565b34801561063a57600080fd5b5061026a610649366004614ebb565b600e60209081526000928352604080842090915290825290205481565b34801561067257600080fd5b506104a8610681366004614d69565b6125f8565b34801561069257600080fd5b5061026a6106a1366004614d69565b61295d565b3480156106b257600080fd5b504761026a565b3480156106c557600080fd5b506106d96106d4366004614d69565b612bda565b60408051928352602083019190915201610274565b3480156106fa57600080fd5b5061026a612e92565b34801561070f57600080fd5b506006546103ce906001600160a01b031681565b34801561072f57600080fd5b50600a546105d6906001600160801b031681565b34801561074f57600080fd5b506102ed61075e366004614a46565b612f31565b34801561076f57600080fd5b5061029d61077e366004614ebb565b612f87565b34801561078f57600080fd5b5061026a61079e366004614825565b612fb5565b3480156107af57600080fd5b506103ce6107be366004614825565b612fd6565b3480156107cf57600080fd5b506102ed6107de366004614ee9565b613000565b3480156107ef57600080fd5b506102ed6107fe366004614a46565b61305f565b34801561080f57600080fd5b5061082361081e366004614825565b61309d565b604080516001600160801b03938416815292909116602083015201610274565b34801561084f57600080fd5b506009546103ce906001600160a01b031681565b6000818152602081815260408083206001600160a01b03861684529091529020545b92915050565b60006001600160e01b03198216636cdb3d1360e11b14806108bc57506001600160e01b031982166303a24d0760e21b145b8061088557506301ffc9a760e01b6001600160e01b0319831614610885565b6000848152600c602052604081206012810180546108f890614f51565b159050610941576040516329c45f6760e01b8152602060048201526011602482015270185b1c9958591e481d985b1a59185d1959607a1b60448201526064015b60405180910390fd5b61094a866130d2565b60005b600f5481101561099657876001600160a01b0316600f828154811061097457610974614f85565b6000918252602090912001546001600160a01b0316146109965760010161094d565b600f5481036109b857604051631c3265c360e31b815260040160405180910390fd5b604051634b243ea360e11b81526001600160a01b038916906396487d46906109e89089908990899060040161509a565b602060405180830381865afa158015610a05573d6000803e3d6000fd5b505050506040513d601f19601f82011682018060405250810190610a2991906151a9565b506002820154604051630d02d25f60e11b8152600091829182916001600160a01b031690631a05a4be90610a63908c908c906004016151c6565b606060405180830381865afa158015610a80573d6000803e3d6000fd5b505050506040513d601f19601f82011682018060405250810190610aa491906151da565b925092509250828a14610ae3576040516329c45f6760e01b81526020600482015260066024820152651d185c19525960d21b6044820152606401610938565b6010850180546001600160a01b038085166001600160a01b0319928316179092556011870180549284169290911691909117905560128501610b26898b83615265565b50600c8501546008860154600091829115610c55578754600d89015460088a01546040516370f986fd60e01b81526004810192909252602482015260009182916001600160a01b03909116906370f986fd90604401608060405180830381865afa158015610b98573d6000803e3d6000fd5b505050506040513d601f19601f82011682018060405250810190610bbc9190615324565b5060088d015491945092509050610bd38284615370565b1115610c16576040516329c45f6760e01b8152602060048201526011602482015270756e636c61696d65644d696e744665657360781b6044820152606401610938565b610c208183615370565b60088b018054600090610c34908490615383565b90915550610c4490508286615370565b9450610c508185615370565b935050505b600988015415610d79578754600e89015460098a015460405163f5b0402760e01b81526004810192909252602482015260009182916001600160a01b039091169063f5b0402790604401608060405180830381865afa158015610cbc573d6000803e3d6000fd5b505050506040513d601f19601f82011682018060405250810190610ce09190615324565b5060098d015491945092509050610cf78284615370565b1115610d3a576040516329c45f6760e01b8152602060048201526011602482015270756e636c61696d65644275726e4665657360781b6044820152606401610938565b610d448183615370565b60098b018054600090610d58908490615383565b90915550610d6890508286615370565b9450610d748185615370565b935050505b600b88015415610e94578754600b89015460405163cf54ee1d60e01b815260009283926001600160a01b039091169163cf54ee1d91610dbe9160040190815260200190565b6040805180830381865afa158015610dda573d6000803e3d6000fd5b505050506040513d601f19601f82011682018060405250810190610dfe9190615396565b600b8c01549193509150610e128284615370565b1115610e55576040516329c45f6760e01b8152602060048201526011602482015270756e636c61696d65644275726e4665657360781b6044820152606401610938565b610e5f8183615370565b600b8b018054600090610e73908490615383565b90915550610e8390508286615370565b9450610e8f8185615370565b935050505b610ea08d848484613223565b505050600b880154600989015460088a015460009291610ebf91615370565b610ec99190615370565b90508015610fa457600b89015460098a015460088b0154610eea9190615370565b610ef49190615370565b600b546001600160a01b039081166000908152600e6020908152604080832060018f015490941683529290529081208054909190610f33908490615370565b925050819055508860010160009054906101000a90046001600160a01b03166001600160a01b0316600b60009054906101000a90046001600160a01b03166001600160a01b03168f600080516020615b80833981519152846005604051610f9b9291906153ba565b60405180910390a45b505060006008880181905560098801819055600b8801819055600c9097019690965550989a9950505050505050505050565b336000818152600e602090815260408083206001600160a01b038716845290915290205482111561101a5760405163087d07a960e31b815260040160405180910390fd5b6001600160a01b038082166000908152600e6020908152604080832093871683529290529081208054849290611051908490615383565b90915550506001600160a01b038316156111565760405163095ea7b360e01b8152306004820152602481018390526001600160a01b0384169063095ea7b3906044016020604051808303816000875af11580156110b2573d6000803e3d6000fd5b505050506040513d601f19601f820116820180604052508101906110d691906151a9565b506040516323b872dd60e01b81523060048201526001600160a01b038281166024830152604482018490528416906323b872dd906064016020604051808303816000875af115801561112c573d6000803e3d6000fd5b505050506040513d601f19601f8201168201806040525081019061115091906151a9565b50505050565b6000816001600160a01b03168360405160006040518083038185875af1925050503d80600081146111a3576040519150601f19603f3d011682016040523d82523d6000602084013e6111a8565b606091505b50509050806111505760405163f570efeb60e01b815260040160405180910390fd5b505050565b606061088582612598565b6111e261375b565b6111f0868686868686613788565b505050505050565b61120061375b565b60005b600f5481101561124c57816001600160a01b0316600f828154811061122a5761122a614f85565b6000918252602090912001546001600160a01b03161461124c57600101611203565b600f54811461126e57604051631c3265c360e31b815260040160405180910390fd5b50600f80546001810182556000919091527f8d1108e10bcb7c27dddfc02ed9d693a074039d026cf4ea4240b40f7d581ac8020180546001600160a01b0319166001600160a01b0392909216919091179055565b336001600160a01b03861681148015906112e257506112e08682612f87565b155b156113135760405163711bec9160e11b81526001600160a01b03808316600483015287166024820152604401610938565b6111f08686868686613aac565b606081518351146113515781518351604051635b05999160e01b815260048101929092526024820152604401610938565b600083516001600160401b0381111561136c5761136c6148bd565b604051908082528060200260200182016040528015611395578160200160208202803683370190505b50905060005b84518110156113e4576020808202860101516113bf90602080840287010151610863565b8282815181106113d1576113d1614f85565b602090810291909101015260010161139b565b509392505050565b6113f461375b565b600461140082826153ec565b5050565b61140c61375b565b6000828152600c6020526040812060030154900361143d57604051631d8ce09b60e31b815260040160405180910390fd5b6000828152600c60205260408120601201805461145990614f51565b905011156114a3576040516329c45f6760e01b815260206004820152601660248201527515185c1948185b1c9958591e481d985b1a59185d195960521b6044820152606401610938565b60095460405163f8e0044b60e01b81526001600160a01b0383811660048301529091169063f8e0044b9060240160006040518083038186803b1580156114e857600080fd5b505afa1580156114fc573d6000803e3d6000fd5b505050600092835250600c602052604090912060020180546001600160a01b0319166001600160a01b03909216919091179055565b61153961375b565b6115436000613b13565b565b6000828152600c602052604081206003015481908190819081036116b257604080516101a0810182526007546001600160a01b0390811682526006548116602080840191909152600854909116828401526005805484518184028101840190955280855292936060850193909260009084015b8282101561160157600084815260209081902060408051808201909152908401546001600160801b038082168352600160801b90910416818301528252600190920191016115b8565b505050508152602001600081526020016000815260200160008152602001600081526020016040518060a001604052806000815260200160008152602001600081526020016000815260200160008152508152602001604051806060016040528060008152602001600081526020016000815250815260200160006001600160a01b0316815260200160006001600160a01b03168152602001604051806020016040528060008152508152506118bb565b6000868152600c6020908152604080832081516101a08101835281546001600160a01b039081168252600183015481168286015260028301541681840152600382018054845181870281018701909552808552919592946060870194939192919084015b8282101561175f57600084815260209081902060408051808201909152908401546001600160801b038082168352600160801b9091041681830152825260019092019101611716565b505050908252506004820154602080830191909152600583015460408084019190915260068401546060808501919091526007850154608080860191909152825160a0818101855260088801548252600988015482870152600a88015482860152600b88015482850152600c880154928201929092529085015281519081018252600d8501548152600e85015492810192909252600f8401549082015260c082015260108201546001600160a01b0390811660e08301526011830154166101008201526012820180546101209092019161183890614f51565b80601f016020809104026020016040519081016040528092919081815260200182805461186490614f51565b80156118b15780601f10611886576101008083540402835291602001916118b1565b820191906000526020600020905b81548152906001019060200180831161189457829003601f168201915b5050505050815250505b600954604051633a07901f60e11b815291925060009182916001600160a01b03169063740f203e906118f3908a9087906004016154f4565b6040805180830381865afa15801561190f573d6000803e3d6000fd5b505050506040513d601f19601f820116820180604052508101906119339190615396565b84516040516370f986fd60e01b8152600481018b9052602481018490529294509092506000918291829182916001600160a01b0316906370f986fd90604401608060405180830381865afa15801561198f573d6000803e3d6000fd5b505050506040513d601f19601f820116820180604052508101906119b39190615324565b93509350935093506000818385876119cb9190615370565b6119d59190615370565b6119df9190615370565b90506119eb8188615370565b9a5098509396505050505050505b9250925092565b6000806000806000806000600c60008981526020019081526020016000206012018054611a2c90614f51565b9050600003611a6f576040516329c45f6760e01b815260206004820152600e60248201526d746170654f75747075744461746160901b6044820152606401610938565b6000888152600c6020526040908190206002810154915163c827650360e01b81526001600160a01b039092169163c827650391611ab4916012909101906004016156bc565b60e060405180830381865afa158015611ad1573d6000803e3d6000fd5b505050506040513d601f19601f82011682018060405250810190611af591906156cf565b959e949d50929b5090995097509550909350915050565b6000838152600c60205260408082206009549151630d21bdc960e31b81523392849182916001600160a01b03169063690dee4890611b50908a90879060040161576c565b6040805180830381865afa158015611b6c573d6000803e3d6000fd5b505050506040513d601f19601f82011682018060405250810190611b909190615396565b845460405163f5b0402760e01b8152600481018b9052602481018490529294509092506000918291829182916001600160a01b03169063f5b0402790604401608060405180830381865afa158015611bec573d6000803e3d6000fd5b505050506040513d601f19601f82011682018060405250810190611c109190615324565b9350935093509350600081838587611c289190615370565b611c329190615370565b611c3c9190615370565b611c469088615383565b90508a811015611c6957604051636bdbc20960e11b815260040160405180910390fd5b611c74898e8e613b65565b86886004016000828254611c889190615383565b925050819055508b886005016000828254611ca39190615383565b9091555050600e880180548d9190600090611cbf908490615370565b909155505060068801869055611cd78d858585613223565b91955093509150611ce88484615370565b600989018054600090611cfc908490615370565b9091555050600c88018054839190600090611d18908490615370565b9091555050600b546001600160a01b039081166000908152600e6020908152604080832060018d015490941683529290529081208054879290611d5c908490615370565b90915550506001880154600b546040516001600160a01b0392831692909116908f90600080516020615b8083398151915290611d9c908a906000906153ba565b60405180910390a460018801546001600160a01b031615611eb457600188015460405163095ea7b360e01b8152306004820152602481018390526001600160a01b039091169063095ea7b3906044016020604051808303816000875af1158015611e0a573d6000803e3d6000fd5b505050506040513d601f19601f82011682018060405250810190611e2e91906151a9565b5060018801546040516323b872dd60e01b81523060048201526001600160a01b038b8116602483015260448201849052909116906323b872dd906064016020604051808303816000875af1158015611e8a573d6000803e3d6000fd5b505050506040513d601f19601f82011682018060405250810190611eae91906151a9565b50611f2a565b6000896001600160a01b03168260405160006040518083038185875af1925050503d8060008114611f01576040519150601f19603f3d011682016040523d82523d6000602084013e611f06565b606091505b5050905080611f285760405163f570efeb60e01b815260040160405180910390fd5b505b604080518d8152602081018390526001600160a01b038b16918f917f47d38b8b50e4b792e507faad951cda2457545e704f667a3e32f22541945ebbf6910160405180910390a39c9b505050505050505050505050565b600c6020818152600092835260409283902080546001820154600283015460048401546005850154600686015460078701548a5160a081018c52600889015481526009890154818b0152600a890154818d0152600b8901546060808301919091529a89015460808201528b519a8b018c52600d8901548b52600e890154998b0199909952600f8801549a8a019a909a52601087015460118801546012890180546001600160a01b03998a169d988a169c978a169b969a95999498979593851694909216929161204e90614f51565b80601f016020809104026020016040519081016040528092919081815260200182805461207a90614f51565b80156120c75780601f1061209c576101008083540402835291602001916120c7565b820191906000526020600020905b8154815290600101906020018083116120aa57829003601f168201915b505050505090508c565b6000836120dd816130d2565b6000336000878152600c60205260408082206009549151633a07901f60e11b81529394509282916001600160a01b03169063740f203e90612124908b90879060040161576c565b6040805180830381865afa158015612140573d6000803e3d6000fd5b505050506040513d601f19601f820116820180604052508101906121649190615396565b84546040516370f986fd60e01b8152600481018c9052602481018490529294509092506000918291829182916001600160a01b0316906370f986fd90604401608060405180830381865afa1580156121c0573d6000803e3d6000fd5b505050506040513d601f19601f820116820180604052508101906121e49190615324565b93509350935093506000818385878a6121fd9190615370565b6122079190615370565b6122119190615370565b61221b9190615370565b90508b81111561223e57604051636bdbc20960e11b815260040160405180910390fd5b60018801546001600160a01b0316156122d65760018801546040516323b872dd60e01b81526001600160a01b038b8116600483015230602483015260448201849052909116906323b872dd906064016020604051808303816000875af11580156122ac573d6000803e3d6000fd5b505050506040513d601f19601f820116820180604052508101906122d091906151a9565b5061237a565b803410156122f75760405163bd9c85bb60e01b815260040160405180910390fd5b8034111561237a5760006001600160a01b038a166123158334615383565b604051600081818185875af1925050503d8060008114612351576040519150601f19603f3d011682016040523d82523d6000602084013e612356565b606091505b50509050806123785760405163f570efeb60e01b815260040160405180910390fd5b505b8688600401600082825461238e9190615370565b925050819055508c8860050160008282546123a99190615370565b9091555050600d880180548e91906000906123c5908490615370565b9091555050600688018690556123dd8e858585613223565b919550935091506123ee8484615370565b600889018054600090612402908490615370565b9091555050600c8801805483919060009061241e908490615370565b9091555050600b546001600160a01b039081166000908152600e6020908152604080832060018d015490941683529290529081208054879290612462908490615370565b925050819055508760010160009054906101000a90046001600160a01b03166001600160a01b0316600b60009054906101000a90046001600160a01b03166001600160a01b03168f600080516020615b808339815191528860006040516124ca9291906153ba565b60405180910390a46124f0898f60001c8f60405180602001604052806000815250613bcd565b886001600160a01b03168e7f5bd6f821d5961785d719543640cf62d3770f94e59db1a2f3c2250d72b122dddf8f84604051612535929190918252602082015260400190565b60405180910390a39d9c50505050505050505050505050565b6000818152600c60205260408120600301805461256d90600190615383565b8154811061257d5761257d614f85565b6000918252602090912001546001600160801b031692915050565b606060046125c6836040516020016125b291815260200190565b604051602081830303815290604052613c2a565b6040516020016125d79291906158a3565b6040516020818303038152906040529050919050565b611400338383613dc2565b6000828152600c6020526040812060030154819081908103612622575060009150819050806119f9565b6000858152600c6020908152604080832081516101a08101835281546001600160a01b039081168252600183015481168286015260028301541681840152600382018054845181870281018701909552808552919492936060860193909290879084015b828210156126cf57600084815260209081902060408051808201909152908401546001600160801b038082168352600160801b9091041681830152825260019092019101612686565b505050908252506004820154602080830191909152600583015460408084019190915260068401546060808501919091526007850154608080860191909152825160a0818101855260088801548252600988015482870152600a88015482860152600b88015482850152600c880154928201929092529085015281519081018252600d8501548152600e85015492810192909252600f8401549082015260c082015260108201546001600160a01b0390811660e0830152601183015416610100820152601282018054610120909201916127a890614f51565b80601f01602080910402602001604051908101604052809291908181526020018280546127d490614f51565b80156128215780601f106127f657610100808354040283529160200191612821565b820191906000526020600020905b81548152906001019060200180831161280457829003601f168201915b505050919092525050600954604051630d21bdc960e31b81529293506000928392506001600160a01b039091169063690dee4890612865908a9087906004016154f4565b6040805180830381865afa158015612881573d6000803e3d6000fd5b505050506040513d601f19601f820116820180604052508101906128a59190615396565b845160405163f5b0402760e01b8152600481018b9052602481018490529294509092506000918291829182916001600160a01b03169063f5b0402790604401608060405180830381865afa158015612901573d6000803e3d6000fd5b505050506040513d601f19601f820116820180604052508101906129259190615324565b935093509350935060008183858761293d9190615370565b6129479190615370565b6129519190615370565b90506119eb8188615383565b6000828152600c60205260408082206009549151634327ae5960e01b81523392849182916001600160a01b031690634327ae59906129a1908990879060040161576c565b6040805180830381865afa1580156129bd573d6000803e3d6000fd5b505050506040513d601f19601f820116820180604052508101906129e19190615396565b8454604051630c1d341f60e31b8152600481018490529294509092506000918291829182916001600160a01b0316906360e9a0f890602401608060405180830381865afa158015612a36573d6000803e3d6000fd5b505050506040513d601f19601f82011682018060405250810190612a5a9190615324565b9350935093509350612a70888c60001c8c613b65565b85876004016000828254612a849190615383565b9091555050600f870180548b9190600090612aa0908490615370565b909155505060078701859055612ab88b848484613223565b91945092509050612ac98383615370565b600a88018054600090612add908490615370565b9091555050600c87018054829190600090612af9908490615370565b9091555050600b546001600160a01b039081166000908152600e6020908152604080832060018c015490941683529290529081208054869290612b3d908490615370565b90915550506001870154600b546040516001600160a01b0392831692909116908d90600080516020615b8083398151915290612b7d9089906000906153ba565b60405180910390a4604080518b8152602081018890526001600160a01b038a16918d917fff8a4589f2e064f9b82f2aec48ea80dbf6a8f623d3bd76d954da82ec4ea0079f910160405180910390a350939998505050505050505050565b6000828152600c602052604081206003015481908103612bff57506000905080612e8b565b6000848152600c6020908152604080832081516101a08101835281546001600160a01b039081168252600183015481168286015260028301541681840152600382018054845181870281018701909552808552919492936060860193909290879084015b82821015612cac57600084815260209081902060408051808201909152908401546001600160801b038082168352600160801b9091041681830152825260019092019101612c63565b505050908252506004820154602080830191909152600583015460408084019190915260068401546060808501919091526007850154608080860191909152825160a0818101855260088801548252600988015482870152600a88015482860152600b88015482850152600c880154928201929092529085015281519081018252600d8501548152600e85015492810192909252600f8401549082015260c082015260108201546001600160a01b0390811660e083015260118301541661010082015260128201805461012090920191612d8590614f51565b80601f0160208091040260200160405190810160405280929190818152602001828054612db190614f51565b8015612dfe5780601f10612dd357610100808354040283529160200191612dfe565b820191906000526020600020905b815481529060010190602001808311612de157829003601f168201915b505050919092525050600954604051634327ae5960e01b81529293506000928392506001600160a01b0390911690634327ae5990612e4290899087906004016154f4565b6040805180830381865afa158015612e5e573d6000803e3d6000fd5b505050506040513d601f19601f82011682018060405250810190612e829190615396565b90955093505050505b9250929050565b60008060005b600d54811015612f2b57600c6000600d8381548110612eb957612eb9614f85565b90600052602060002001548152602001908152602001600020600d0160020154600c6000600d8481548110612ef057612ef0614f85565b9060005260206000200154815260200190815260200160002060050154612f179190615383565b612f219083615370565b9150600101612e98565b50919050565b600b546001600160a01b0316336001600160a01b031614612f655760405163dcf0398d60e01b815260040160405180910390fd5b600b80546001600160a01b0319166001600160a01b0392909216919091179055565b6001600160a01b03918216600090815260016020908152604080832093909416825291909152205460ff1690565b600d8181548110612fc557600080fd5b600091825260209091200154905081565b600f8181548110612fe657600080fd5b6000918252602090912001546001600160a01b0316905081565b336001600160a01b0386168114801590613021575061301f8682612f87565b155b156130525760405163711bec9160e11b81526001600160a01b03808316600483015287166024820152604401610938565b6111f08686868686613e58565b61306761375b565b6001600160a01b03811661309157604051631e4fbdf760e01b815260006004820152602401610938565b61309a81613b13565b50565b600581815481106130ad57600080fd5b6000918252602090912001546001600160801b038082169250600160801b9091041682565b6000818152600c6020526040812060030154900361309a576000818152600c6020526040812060075481546001600160a01b039182166001600160a01b0319918216178355600654600184018054918416918316919091179055600854600284018054919093169116179055905b6005548110156131ec578160030160405180604001604052806005848154811061316c5761316c614f85565b600091825260209182902001546001600160801b031682526005805492909101918590811061319d5761319d614f85565b60009182526020808320909101546001600160801b03600160801b9182900481169094528554600181810188559684529282902085519590920151841602939092169290921791015501613140565b5050600d80546001810182556000919091527fd7b6990105719101dabeb77144f2a3385c8033acd3af97e9423a695e81ad1eb50155565b6000848152600c6020526040812060128101805483928392909183919061324990614f51565b9050111561374657600281015460405163dddf33e160e01b81526000918291829182916001600160a01b039091169063dddf33e19061328f9060128901906004016156bc565b600060405180830381865afa1580156132ac573d6000803e3d6000fd5b505050506040513d6000823e601f3d908101601f191682016040526132d4919081019061592a565b8051909150156133ea57845481516040516322cc0efb60e01b815260009261336b928d9286926001600160a01b0316916322cc0efb91613321918691600401918252602082015260400190565b600060405180830381865afa15801561333e573d6000803e3d6000fd5b505050506040513d6000823e601f3d908101601f19168201604052613366919081019061592a565b613ee6565b905080156133e457855460405163cf54ee1d60e01b8152600481018390526001600160a01b039091169063cf54ee1d906024016040805180830381865afa1580156133ba573d6000803e3d6000fd5b505050506040513d601f19601f820116820180604052508101906133de9190615396565b90945092505b5061345b565b845460405163cf54ee1d60e01b8152600481018b90526001600160a01b039091169063cf54ee1d906024016040805180830381865afa158015613431573d6000803e3d6000fd5b505050506040513d601f19601f820116820180604052508101906134559190615396565b90935091505b60108501546001600160a01b03161561357c57613478828c615370565b60108601546001600160a01b039081166000908152600e6020908152604080832060018b0154909416835292905290812080549091906134b9908490615370565b925050819055508460010160009054906101000a90046001600160a01b03166001600160a01b03168560100160009054906101000a90046001600160a01b03166001600160a01b03168d600080516020615b808339815191528e60016040516135239291906153ba565b60405180910390a4811561357757600185015460108601546040516001600160a01b0392831692909116908e90600080516020615b808339815191529061356e9087906004906153ba565b60405180910390a45b613593565b613586828c615370565b6135909085615370565b93505b60118501546001600160a01b03161561368c576135b0838b615370565b60118601546001600160a01b039081166000908152600e6020908152604080832060018b0154909416835292905290812080549091906135f1908490615370565b9091555050600185015460118601546040516001600160a01b0392831692909116908e90600080516020615b8083398151915290613633908f906002906153ba565b60405180910390a4821561368757600185015460118601546040516001600160a01b0392831692909116908e90600080516020615b808339815191529061367e9088906004906153ba565b60405180910390a45b6136a3565b613696838b615370565b6136a09085615370565b93505b831561373157600b546001600160a01b039081166000908152600e6020908152604080832060018a0154909416835292905290812080548692906136e8908490615370565b90915550506001850154600b546040516001600160a01b0392831692909116908e90600080516020615b80833981519152906137289089906005906153ba565b60405180910390a45b60008060009750975097505050505050613751565b868686935093509350505b9450945094915050565b6003546001600160a01b031633146115435760405163118cdaa760e01b8152336004820152602401610938565b60095460405163169f6b0560e11b81526001600160a01b03888116600483015290911690632d3ed60a9060240160006040518083038186803b1580156137cd57600080fd5b505afa1580156137e1573d6000803e3d6000fd5b505060095460405163f610a03960e01b81526001600160a01b038981166004830152909116925063f610a039915060240160006040518083038186803b15801561382a57600080fd5b505afa15801561383e573d6000803e3d6000fd5b505060095460405163f8e0044b60e01b81526001600160a01b038881166004830152909116925063f8e0044b915060240160006040518083038186803b15801561388757600080fd5b505afa15801561389b573d6000803e3d6000fd5b50506009546040516333d4fbe360e21b81526001600160a01b03909116925063cf53ef8c91506138f59086907f000000000000000000000000000000000000000000000000000000000000000090879087906004016159f4565b60006040518083038186803b15801561390d57600080fd5b505afa158015613921573d6000803e3d6000fd5b505050506005600061393391906146b3565b60005b8251811015613a4257600083828151811061395357613953614f85565b60200260200101516001600160801b03169050600083838151811061397a5761397a614f85565b60200260200101516001600160801b03169050816000036139d4576040516356a30db560e01b8152602060048201526013602482015272535445505f43414e4e4f545f42455f5a45524f60681b6044820152606401610938565b604080518082019091526001600160801b039283168152908216602082019081526005805460018181018355600092909252925191518416600160801b0291909316177f036b6384b5eca791c62761152d0c79bb0604c104a5fb6f4eb0703f3154bb3db09091015501613936565b5050600680546001600160a01b03199081166001600160a01b039788161790915560078054821695871695909517909455506008805490931691909316179055600a80546fffffffffffffffffffffffffffffffff19166001600160801b03909216919091179055565b6001600160a01b038416613ad657604051632bfa23e760e11b815260006004820152602401610938565b6001600160a01b038516613aff57604051626a0d4560e21b815260006004820152602401610938565b613b0c8585858585613f80565b5050505050565b600380546001600160a01b038381166001600160a01b0319831681179093556040519116919082907f8be0079c531659141344cd1fd0a4f28419497f9722a3daafe3b4186f6b6457e090600090a35050565b6001600160a01b038316613b8e57604051626a0d4560e21b815260006004820152602401610938565b604080516001808252602082018590528183019081526060820184905260a08201909252600060808201818152919291613b0c91879185908590613f80565b6001600160a01b038416613bf757604051632bfa23e760e11b815260006004820152602401610938565b604080516001808252602082018690528183019081526060820185905260808201909252906111f0600087848487613f80565b6060600082516002613c3c9190615a2e565b6001600160401b03811115613c5357613c536148bd565b6040519080825280601f01601f191660200182016040528015613c7d576020820181803683370190505b5060408051808201909152601081526f181899199a1a9b1b9c1cb0b131b232b360811b602082015290915060005b8451811015613db957818251868381518110613cc957613cc9614f85565b0160200151613cdb919060f81c615a5b565b81518110613ceb57613ceb614f85565b01602001516001600160f81b03191683613d06836002615a2e565b81518110613d1657613d16614f85565b60200101906001600160f81b031916908160001a905350818251868381518110613d4257613d42614f85565b0160200151613d54919060f81c615a6f565b81518110613d6457613d64614f85565b01602001516001600160f81b03191683613d7f836002615a2e565b613d8a906001615370565b81518110613d9a57613d9a614f85565b60200101906001600160f81b031916908160001a905350600101613cab565b50909392505050565b6001600160a01b038216613deb5760405162ced3e160e81b815260006004820152602401610938565b6001600160a01b03838116600081815260016020908152604080832094871680845294825291829020805460ff191686151590811790915591519182527f17307eab39ab6107e8899845ad3d59bd9653f200f220920489ca2b5937696c31910160405180910390a3505050565b6001600160a01b038416613e8257604051632bfa23e760e11b815260006004820152602401610938565b6001600160a01b038516613eab57604051626a0d4560e21b815260006004820152602401610938565b60408051600180825260208201869052818301908152606082018590526080820190925290613edd8787848487613f80565b50505050505050565b6000805b8415613f77578084511115613f77578083511115613f7757613f3e848281518110613f1757613f17614f85565b6020026020010151848381518110613f3157613f31614f85565b6020026020010151613fd3565b828181518110613f5057613f50614f85565b602002602001015185613f639190615383565b945080613f6f81615a83565b915050613eea565b50929392505050565b613f8c85858585614292565b6001600160a01b03841615613b0c5782513390600103613fc55760208481015190840151613fbe8389898585896144a6565b50506111f0565b6111f08187878787876145ca565b81613fdd816130d2565b6000838152600c60205260408120601281018054919291613ffd90614f51565b9050111561427057805460405163cf54ee1d60e01b815260048101859052600091829182916001600160a01b03169063cf54ee1d906024016040805180830381865afa158015614051573d6000803e3d6000fd5b505050506040513d601f19601f820116820180604052508101906140759190615396565b601086015491935091506001600160a01b03161561411d5760108401546001600160a01b039081166000908152600e602090815260408083206001890154909416835292905290812080548392906140ce908490615370565b9091555050600184015460108501546040516001600160a01b0392831692909116908990600080516020615b80833981519152906141109086906004906153ba565b60405180910390a461412a565b6141278184615370565b92505b60118401546001600160a01b0316156141cd5760118401546001600160a01b039081166000908152600e6020908152604080832060018901549094168352929052908120805484929061417e908490615370565b9091555050600184015460118501546040516001600160a01b0392831692909116908990600080516020615b80833981519152906141c09087906004906153ba565b60405180910390a46141da565b6141d78284615370565b92505b821561426857600b546001600160a01b039081166000908152600e6020908152604080832060018901549094168352929052908120805485929061421f908490615370565b90915550506001840154600b546040516001600160a01b0392831692909116908990600080516020615b808339815191529061425f9088906005906153ba565b60405180910390a45b505050611150565b828160080160030160008282546142879190615370565b909155505050505050565b80518251146142c15781518151604051635b05999160e01b815260048101929092526024820152604401610938565b3360005b83518110156143c7576020818102858101820151908501909101516001600160a01b03881615614378576000828152602081815260408083206001600160a01b038c16845290915290205481811015614351576040516303dee4c560e01b81526001600160a01b038a166004820152602481018290526044810183905260648101849052608401610938565b6000838152602081815260408083206001600160a01b038d16845290915290209082900390555b6001600160a01b038716156143bd576000828152602081815260408083206001600160a01b038b168452909152812080548392906143b7908490615370565b90915550505b50506001016142c5565b5082516001036144485760208301516000906020840151909150856001600160a01b0316876001600160a01b0316846001600160a01b03167fc3d58168c5ae7397731d063d5bbf3d657854427343f4c083240f7aacaa2d0f628585604051614439929190918252602082015260400190565b60405180910390a45050613b0c565b836001600160a01b0316856001600160a01b0316826001600160a01b03167f4a39dc06d4c0dbc64b70af90fd698a233a518aa5d07e595d983b8c0526c8f7fb8686604051614497929190615a9c565b60405180910390a45050505050565b6001600160a01b0384163b156111f05760405163f23a6e6160e01b81526001600160a01b0385169063f23a6e61906144ea9089908990889088908890600401615aca565b6020604051808303816000875af1925050508015614525575060408051601f3d908101601f1916820190925261452291810190615b04565b60015b61458e573d808015614553576040519150601f19603f3d011682016040523d82523d6000602084013e614558565b606091505b50805160000361458657604051632bfa23e760e11b81526001600160a01b0386166004820152602401610938565b805181602001fd5b6001600160e01b0319811663f23a6e6160e01b14613edd57604051632bfa23e760e11b81526001600160a01b0386166004820152602401610938565b6001600160a01b0384163b156111f05760405163bc197c8160e01b81526001600160a01b0385169063bc197c819061460e9089908990889088908890600401615b21565b6020604051808303816000875af1925050508015614649575060408051601f3d908101601f1916820190925261464691810190615b04565b60015b614677573d808015614553576040519150601f19603f3d011682016040523d82523d6000602084013e614558565b6001600160e01b0319811663bc197c8160e01b14613edd57604051632bfa23e760e11b81526001600160a01b0386166004820152602401610938565b508054600082559060005260206000209081019061309a91905b808211156146e157600081556001016146cd565b5090565b6001600160a01b038116811461309a57600080fd5b6000806040838503121561470d57600080fd5b8235614718816146e5565b946020939093013593505050565b6001600160e01b03198116811461309a57600080fd5b60006020828403121561474e57600080fd5b813561475981614726565b9392505050565b600060408284031215612f2b57600080fd5b60008060008060006080868803121561478a57600080fd5b8535614795816146e5565b94506020860135935060408601356001600160401b03808211156147b857600080fd5b818801915088601f8301126147cc57600080fd5b8135818111156147db57600080fd5b8960208285010111156147ed57600080fd5b60208301955080945050606088013591508082111561480b57600080fd5b5061481888828901614760565b9150509295509295909350565b60006020828403121561483757600080fd5b5035919050565b60005b83811015614859578181015183820152602001614841565b50506000910152565b6000815180845261487a81602086016020860161483e565b601f01601f19169290920160200192915050565b6020815260006147596020830184614862565b80356001600160801b03811681146148b857600080fd5b919050565b634e487b7160e01b600052604160045260246000fd5b604051601f8201601f191681016001600160401b03811182821017156148fb576148fb6148bd565b604052919050565b60006001600160401b0382111561491c5761491c6148bd565b5060051b60200190565b600082601f83011261493757600080fd5b8135602061494c61494783614903565b6148d3565b8083825260208201915060208460051b87010193508684111561496e57600080fd5b602086015b8481101561499157614984816148a1565b8352918301918301614973565b509695505050505050565b60008060008060008060c087890312156149b557600080fd5b86356149c0816146e5565b955060208701356149d0816146e5565b945060408701356149e0816146e5565b93506149ee606088016148a1565b925060808701356001600160401b0380821115614a0a57600080fd5b614a168a838b01614926565b935060a0890135915080821115614a2c57600080fd5b50614a3989828a01614926565b9150509295509295509295565b600060208284031215614a5857600080fd5b8135614759816146e5565b600082601f830112614a7457600080fd5b81356020614a8461494783614903565b8083825260208201915060208460051b870101935086841115614aa657600080fd5b602086015b848110156149915780358352918301918301614aab565b60006001600160401b03831115614adb57614adb6148bd565b614aee601f8401601f19166020016148d3565b9050828152838383011115614b0257600080fd5b828260208301376000602084830101529392505050565b600082601f830112614b2a57600080fd5b61475983833560208501614ac2565b600080600080600060a08688031215614b5157600080fd5b8535614b5c816146e5565b94506020860135614b6c816146e5565b935060408601356001600160401b0380821115614b8857600080fd5b614b9489838a01614a63565b94506060880135915080821115614baa57600080fd5b614bb689838a01614a63565b93506080880135915080821115614bcc57600080fd5b5061481888828901614b19565b60008060408385031215614bec57600080fd5b82356001600160401b0380821115614c0357600080fd5b818501915085601f830112614c1757600080fd5b81356020614c2761494783614903565b82815260059290921b84018101918181019089841115614c4657600080fd5b948201945b83861015614c6d578535614c5e816146e5565b82529482019490820190614c4b565b96505086013592505080821115614c8357600080fd5b50614c9085828601614a63565b9150509250929050565b60008151808452602080850194506020840160005b83811015614ccb57815187529582019590820190600101614caf565b509495945050505050565b6020815260006147596020830184614c9a565b600060208284031215614cfb57600080fd5b81356001600160401b03811115614d1157600080fd5b8201601f81018413614d2257600080fd5b614d3184823560208401614ac2565b949350505050565b60008060408385031215614d4c57600080fd5b823591506020830135614d5e816146e5565b809150509250929050565b60008060408385031215614d7c57600080fd5b50508035926020909101359150565b600080600060608486031215614da057600080fd5b505081359360208301359350604090920135919050565b600060018060a01b03808f168352808e166020840152808d1660408401528b60608401528a60808401528960a08401528860c0840152614e2560e084018980518252602081015160208301526040810151604083015260608101516060830152608081015160808301525050565b865161018084015260208701516101a084015260408701516101c08401528086166101e084015280851661020084015250610240610220830152614e6d610240830184614862565b9e9d5050505050505050505050505050565b801515811461309a57600080fd5b60008060408385031215614ea057600080fd5b8235614eab816146e5565b91506020830135614d5e81614e7f565b60008060408385031215614ece57600080fd5b8235614ed9816146e5565b91506020830135614d5e816146e5565b600080600080600060a08688031215614f0157600080fd5b8535614f0c816146e5565b94506020860135614f1c816146e5565b9350604086013592506060860135915060808601356001600160401b03811115614f4557600080fd5b61481888828901614b19565b600181811c90821680614f6557607f821691505b602082108103612f2b57634e487b7160e01b600052602260045260246000fd5b634e487b7160e01b600052603260045260246000fd5b81835281816020850137506000828201602090810191909152601f909101601f19169091010190565b80356001600160401b03811681146148b857600080fd5b6000808335601e19843603018112614ff257600080fd5b83016020810192503590506001600160401b0381111561501157600080fd5b8060051b3603821315612e8b57600080fd5b81835260006001600160fb1b0383111561503c57600080fd5b8260051b80836020870137939093016020019392505050565b6000808335601e1984360301811261506c57600080fd5b83016020810192503590506001600160401b0381111561508b57600080fd5b803603821315612e8b57600080fd5b6040815260006150ae604083018587614f9b565b8281036020840152833560fe198536030181126150ca57600080fd5b6040825284016001600160401b036150e182614fc4565b1660408301526150f360208201614fc4565b6001600160401b03811660608401525060408101356080830152606081013560a0830152608081013560c083015260a081013560e083015261513860c0820182614fdb565b6101008481015261514e61014085018284615023565b91505061515e60e0830183614fdb565b848303603f19016101208601529250615178828483615023565b925050506151896020860186615055565b838303602085015261519c838284614f9b565b9998505050505050505050565b6000602082840312156151bb57600080fd5b815161475981614e7f565b602081526000614d31602083018486614f9b565b6000806000606084860312156151ef57600080fd5b835192506020840151615201816146e5565b6040850151909250615212816146e5565b809150509250925092565b601f8211156111ca576000816000526020600020601f850160051c810160208610156152465750805b601f850160051c820191505b818110156111f057828155600101615252565b6001600160401b0383111561527c5761527c6148bd565b6152908361528a8354614f51565b8361521d565b6000601f8411600181146152c457600085156152ac5750838201355b600019600387901b1c1916600186901b178355613b0c565b600083815260209020601f19861690835b828110156152f557868501358255602094850194600190920191016152d5565b50868210156153125760001960f88860031b161c19848701351681555b505060018560011b0183555050505050565b6000806000806080858703121561533a57600080fd5b505082516020840151604085015160609095015191969095509092509050565b634e487b7160e01b600052601160045260246000fd5b808201808211156108855761088561535a565b818103818111156108855761088561535a565b600080604083850312156153a957600080fd5b505080516020909101519092909150565b82815260408101600683106153df57634e487b7160e01b600052602160045260246000fd5b8260208301529392505050565b81516001600160401b03811115615405576154056148bd565b615419816154138454614f51565b8461521d565b602080601f83116001811461544e57600084156154365750858301515b600019600386901b1c1916600185901b1785556111f0565b600085815260208120601f198616915b8281101561547d5788860151825594840194600190910190840161545e565b508582101561549b5787850151600019600388901b60f8161c191681555b5050505050600190811b01905550565b60008151808452602080850194506020840160005b83811015614ccb57815180516001600160801b039081168952908401511683880152604090960195908201906001016154c0565b828152604060208201526155146040820183516001600160a01b03169052565b6000602083015161553060608401826001600160a01b03169052565b5060408301516001600160a01b03166080830152606083015161026060a084018190526155616102a08501836154ab565b9150608085015160c085015260a085015160e085015260c0850151610100818187015260e08701519150610120828188015281880151925061014091506155d58288018480518252602081015160208301526040810151604083015260608101516060830152608081015160808301525050565b87015180516101e08801526020810151610200880152604001516102208701528601516001600160a01b03908116610240870152610160870151169185019190915250610180840151838203603f19016102808501526156358282614862565b9695505050505050565b6000815461564c81614f51565b8085526020600183811680156156695760018114615683576156b1565b60ff1985168884015283151560051b8801830195506156b1565b866000528260002060005b858110156156a95781548a820186015290830190840161568e565b890184019650505b505050505092915050565b602081526000614759602083018461563f565b600080600080600080600060e0888a0312156156ea57600080fd5b5050855160208701516040880151606089015160808a015160a08b015160c0909b0151949c939b50919990985090965094509092509050565b600081548084526020808501945083600052602060002060005b83811015614ccb5781546001600160801b038116885260801c838801526040909601956001918201910161573d565b8281526040602082015261579b6040820161578e84546001600160a01b031690565b6001600160a01b03169052565b60006157b160018401546001600160a01b031690565b6001600160a01b039081166060840152600284015416608083015261026060a083018190526157e76102a0840160038601615723565b600485015460c0850152600585015460e08501526006850154610100850152600785015461012085015260088501546101408501526009850154610160850152600a850154610180850152600b8501546101a0850152600c8501546101c0850152600d8501546101e0850152600e850154610200850152600f85015461022085015260108501546001600160a01b0390811661024086015260118601541682850152838103603f1901610280850152615635816012870161563f565b60008084546158b181614f51565b600182811680156158c957600181146158de5761590d565b60ff198416875282151583028701945061590d565b8860005260208060002060005b858110156159045781548a8201529084019082016158eb565b50505082870194505b50505050835161592181836020880161483e565b01949350505050565b6000602080838503121561593d57600080fd5b82516001600160401b0381111561595357600080fd5b8301601f8101851361596457600080fd5b805161597261494782614903565b81815260059190911b8201830190838101908783111561599157600080fd5b928401925b828410156159af57835182529284019290840190615996565b979650505050505050565b60008151808452602080850194506020840160005b83811015614ccb5781516001600160801b0316875295820195908201906001016159cf565b6001600160801b0385168152836020820152608060408201526000615a1c60808301856159ba565b82810360608401526159af81856159ba565b80820281158282048414176108855761088561535a565b634e487b7160e01b600052601260045260246000fd5b600082615a6a57615a6a615a45565b500490565b600082615a7e57615a7e615a45565b500690565b600060018201615a9557615a9561535a565b5060010190565b604081526000615aaf6040830185614c9a565b8281036020840152615ac18185614c9a565b95945050505050565b6001600160a01b03868116825285166020820152604081018490526060810183905260a0608082018190526000906159af90830184614862565b600060208284031215615b1657600080fd5b815161475981614726565b6001600160a01b0386811682528516602082015260a060408201819052600090615b4d90830186614c9a565b8281036060840152615b5f8186614c9a565b90508281036080840152615b738185614862565b9897505050505050505056fef708d2d399277eebdf6ac5097ed59fa8716b04bdd8a0ce8aad255533c4468673a2646970667358221220cefcba3bddcfac8966384514b6caaf9443b626343efc3ae34440b0c35fc2262364736f6c63430008180033",
    "linkReferences": {}
  },
  "methodIdentifiers": {
    "accounts(address,address)": "ad74b775",
    "addDapp(address)": "27b7ca5f",
    "balance()": "b69ef8a8",
    "balanceOf(address,uint256)": "00fdd58e",
    "balanceOfBatch(address[],uint256[])": "4e1273f4",
    "bondingCurveSteps(uint256)": "fa1c4db6",
    "buyTapes(bytes32,uint256,uint256)": "9165f843",
    "changeTapeModel(bytes32,address)": "5db8076c",
    "consumeTapes(bytes32,uint256)": "b495bbb0",
    "currencyTokenAddress()": "d3c3b389",
    "dappAddresses(uint256)": "ecead403",
    "exists(bytes32)": "38a699a4",
    "feeModelAddress()": "3ab03c8b",
    "getCurrentBuyPrice(bytes32,uint256)": "724969e7",
    "getCurrentConsumePrice(bytes32,uint256)": "bbfef088",
    "getCurrentSellPrice(bytes32,uint256)": "b16cae66",
    "getTapeData(bytes32)": "796aea77",
    "isApprovedForAll(address,address)": "e985e9c5",
    "maxSupply()": "d5abeb01",
    "maxTapeSupply(bytes32)": "9ba01fbe",
    "owner()": "8da5cb5b",
    "renounceOwnership()": "715018a6",
    "safeBatchTransferFrom(address,address,uint256[],uint256[],bytes)": "2eb2c2d6",
    "safeTransferFrom(address,address,uint256,uint256,bytes)": "f242432a",
    "sellTapes(bytes32,uint256,uint256)": "828ef8d9",
    "setApprovalForAll(address,bool)": "a22cb465",
    "setBaseURI(string)": "55f804b3",
    "supportsInterface(bytes4)": "01ffc9a7",
    "tapeBondUtilsAddress()": "fabe3824",
    "tapeBonds(bytes32)": "8f8b185b",
    "tapeBondsCreated(uint256)": "eb596d01",
    "tapeModelAddress()": "6a386ed2",
    "tapesCount()": "7fb90ea6",
    "totalTapes()": "c5b67e81",
    "transferOwnership(address)": "f2fde38b",
    "updateBondingCUrveParams(address,address,address,uint128,uint128[],uint128[])": "21b45a0d",
    "updateProtocolWallet(address)": "e308a099",
    "uri(bytes32)": "9ed19ddb",
    "uri(uint256)": "0e89341c",
    "validateTape(address,bytes32,bytes,((uint64,uint64,bytes32,bytes32,bytes32,bytes32,bytes32[],bytes32[]),bytes))": "07974110",
    "withdrawBalance(address,uint256)": "0cf20cc9"
  },
  "id": 24
}