{"abi":[{"type":"constructor","inputs":[{"name":"ownerAddress","type":"address","internalType":"address"},{"name":"newTapeBondUtilsAddress","type":"address","internalType":"address"},{"name":"maxSteps","type":"uint256","internalType":"uint256"}],"stateMutability":"nonpayable"},{"type":"function","name":"accounts","inputs":[{"name":"","type":"address","internalType":"address"},{"name":"","type":"address","internalType":"address"}],"outputs":[{"name":"","type":"uint256","internalType":"uint256"}],"stateMutability":"view"},{"type":"function","name":"balanceOf","inputs":[{"name":"account","type":"address","internalType":"address"},{"name":"id","type":"uint256","internalType":"uint256"}],"outputs":[{"name":"","type":"uint256","internalType":"uint256"}],"stateMutability":"view"},{"type":"function","name":"balanceOfBatch","inputs":[{"name":"accounts","type":"address[]","internalType":"address[]"},{"name":"ids","type":"uint256[]","internalType":"uint256[]"}],"outputs":[{"name":"","type":"uint256[]","internalType":"uint256[]"}],"stateMutability":"view"},{"type":"function","name":"bondingCurveSteps","inputs":[{"name":"","type":"uint256","internalType":"uint256"}],"outputs":[{"name":"rangeMax","type":"uint256","internalType":"uint256"},{"name":"coefficient","type":"uint256","internalType":"uint256"}],"stateMutability":"view"},{"type":"function","name":"buyTapes","inputs":[{"name":"tapeId","type":"bytes32","internalType":"bytes32"},{"name":"tapesToMint","type":"uint256","internalType":"uint256"},{"name":"maxCurrencyPrice","type":"uint256","internalType":"uint256"}],"outputs":[{"name":"currencyCost","type":"uint256","internalType":"uint256"}],"stateMutability":"payable"},{"type":"function","name":"changeTapeModel","inputs":[{"name":"tapeId","type":"bytes32","internalType":"bytes32"},{"name":"newTapeModel","type":"address","internalType":"address"}],"outputs":[],"stateMutability":"nonpayable"},{"type":"function","name":"consumeTapes","inputs":[{"name":"tapeId","type":"bytes32","internalType":"bytes32"},{"name":"tapesToConsume","type":"uint256","internalType":"uint256"}],"outputs":[{"name":"","type":"uint256","internalType":"uint256"}],"stateMutability":"nonpayable"},{"type":"function","name":"currencyTokenAddress","inputs":[],"outputs":[{"name":"","type":"address","internalType":"address"}],"stateMutability":"view"},{"type":"function","name":"dappAddresses","inputs":[{"name":"","type":"address","internalType":"address"}],"outputs":[{"name":"","type":"bool","internalType":"bool"}],"stateMutability":"view"},{"type":"function","name":"exists","inputs":[{"name":"tapeId","type":"bytes32","internalType":"bytes32"}],"outputs":[{"name":"","type":"bool","internalType":"bool"}],"stateMutability":"view"},{"type":"function","name":"feeModelAddress","inputs":[],"outputs":[{"name":"","type":"address","internalType":"address"}],"stateMutability":"view"},{"type":"function","name":"getCurrentBuyPrice","inputs":[{"name":"tapeId","type":"bytes32","internalType":"bytes32"},{"name":"tokensToMint","type":"uint256","internalType":"uint256"}],"outputs":[{"name":"","type":"uint256","internalType":"uint256"},{"name":"","type":"uint256","internalType":"uint256"},{"name":"","type":"uint256","internalType":"uint256"}],"stateMutability":"view"},{"type":"function","name":"getCurrentConsumePrice","inputs":[{"name":"tapeId","type":"bytes32","internalType":"bytes32"},{"name":"tokensToConsume","type":"uint256","internalType":"uint256"}],"outputs":[{"name":"","type":"uint256","internalType":"uint256"},{"name":"","type":"uint256","internalType":"uint256"}],"stateMutability":"view"},{"type":"function","name":"getCurrentSellPrice","inputs":[{"name":"tapeId","type":"bytes32","internalType":"bytes32"},{"name":"tokensToBurn","type":"uint256","internalType":"uint256"}],"outputs":[{"name":"","type":"uint256","internalType":"uint256"},{"name":"","type":"uint256","internalType":"uint256"},{"name":"","type":"uint256","internalType":"uint256"}],"stateMutability":"view"},{"type":"function","name":"getTapeData","inputs":[{"name":"tapeId","type":"bytes32","internalType":"bytes32"}],"outputs":[{"name":"","type":"bytes32","internalType":"bytes32"},{"name":"","type":"uint256","internalType":"uint256"},{"name":"","type":"int256","internalType":"int256"},{"name":"","type":"bytes32","internalType":"bytes32"},{"name":"","type":"int256","internalType":"int256"},{"name":"","type":"bytes32","internalType":"bytes32"},{"name":"","type":"int256","internalType":"int256"},{"name":"","type":"bytes32","internalType":"bytes32"},{"name":"","type":"int256","internalType":"int256"}],"stateMutability":"view"},{"type":"function","name":"isApprovedForAll","inputs":[{"name":"account","type":"address","internalType":"address"},{"name":"operator","type":"address","internalType":"address"}],"outputs":[{"name":"","type":"bool","internalType":"bool"}],"stateMutability":"view"},{"type":"function","name":"maxSupply","inputs":[],"outputs":[{"name":"","type":"uint256","internalType":"uint256"}],"stateMutability":"view"},{"type":"function","name":"maxTapeSupply","inputs":[{"name":"tapeId","type":"bytes32","internalType":"bytes32"}],"outputs":[{"name":"","type":"uint256","internalType":"uint256"}],"stateMutability":"view"},{"type":"function","name":"owner","inputs":[],"outputs":[{"name":"","type":"address","internalType":"address"}],"stateMutability":"view"},{"type":"function","name":"renounceOwnership","inputs":[],"outputs":[],"stateMutability":"nonpayable"},{"type":"function","name":"safeBatchTransferFrom","inputs":[{"name":"from","type":"address","internalType":"address"},{"name":"to","type":"address","internalType":"address"},{"name":"ids","type":"uint256[]","internalType":"uint256[]"},{"name":"values","type":"uint256[]","internalType":"uint256[]"},{"name":"data","type":"bytes","internalType":"bytes"}],"outputs":[],"stateMutability":"nonpayable"},{"type":"function","name":"safeTransferFrom","inputs":[{"name":"from","type":"address","internalType":"address"},{"name":"to","type":"address","internalType":"address"},{"name":"id","type":"uint256","internalType":"uint256"},{"name":"value","type":"uint256","internalType":"uint256"},{"name":"data","type":"bytes","internalType":"bytes"}],"outputs":[],"stateMutability":"nonpayable"},{"type":"function","name":"sellTapes","inputs":[{"name":"tapeId","type":"bytes32","internalType":"bytes32"},{"name":"tapesToBurn","type":"uint256","internalType":"uint256"},{"name":"minCurrencyRefund","type":"uint256","internalType":"uint256"}],"outputs":[{"name":"","type":"uint256","internalType":"uint256"}],"stateMutability":"nonpayable"},{"type":"function","name":"setApprovalForAll","inputs":[{"name":"operator","type":"address","internalType":"address"},{"name":"approved","type":"bool","internalType":"bool"}],"outputs":[],"stateMutability":"nonpayable"},{"type":"function","name":"setDapp","inputs":[{"name":"dapp","type":"address","internalType":"address"},{"name":"active","type":"bool","internalType":"bool"}],"outputs":[],"stateMutability":"nonpayable"},{"type":"function","name":"setTapeParams","inputs":[{"name":"tapeId","type":"bytes32","internalType":"bytes32"}],"outputs":[],"stateMutability":"nonpayable"},{"type":"function","name":"setTapeParamsCustom","inputs":[{"name":"tapeId","type":"bytes32","internalType":"bytes32"},{"name":"stepRangesMax","type":"uint256[]","internalType":"uint256[]"},{"name":"stepCoefficients","type":"uint256[]","internalType":"uint256[]"},{"name":"creatorAllocation","type":"bool","internalType":"bool"},{"name":"creator","type":"address","internalType":"address"},{"name":"token","type":"address","internalType":"address"}],"outputs":[],"stateMutability":"nonpayable"},{"type":"function","name":"setURI","inputs":[{"name":"newUri","type":"string","internalType":"string"}],"outputs":[],"stateMutability":"nonpayable"},{"type":"function","name":"supportsInterface","inputs":[{"name":"interfaceId","type":"bytes4","internalType":"bytes4"}],"outputs":[{"name":"","type":"bool","internalType":"bool"}],"stateMutability":"view"},{"type":"function","name":"tapeBondUtilsAddress","inputs":[],"outputs":[{"name":"","type":"address","internalType":"address"}],"stateMutability":"view"},{"type":"function","name":"tapeBondingCurveModelAddress","inputs":[],"outputs":[{"name":"","type":"address","internalType":"address"}],"stateMutability":"view"},{"type":"function","name":"tapeBonds","inputs":[{"name":"","type":"bytes32","internalType":"bytes32"}],"outputs":[{"name":"bond","type":"tuple","internalType":"struct BondUtils.BondData","components":[{"name":"currencyToken","type":"address","internalType":"address"},{"name":"steps","type":"tuple[]","internalType":"struct IBondingCurveModel.BondingCurveStep[]","components":[{"name":"rangeMax","type":"uint256","internalType":"uint256"},{"name":"coefficient","type":"uint256","internalType":"uint256"}]},{"name":"currencyBalance","type":"uint256","internalType":"uint256"},{"name":"currentSupply","type":"uint256","internalType":"uint256"},{"name":"currentPrice","type":"uint256","internalType":"uint256"},{"name":"consumePrice","type":"uint256","internalType":"uint256"},{"name":"unclaimed","type":"tuple","internalType":"struct BondUtils.UnclaimedFees","components":[{"name":"mint","type":"uint256","internalType":"uint256"},{"name":"burn","type":"uint256","internalType":"uint256"},{"name":"consume","type":"uint256","internalType":"uint256"},{"name":"royalties","type":"uint256","internalType":"uint256"},{"name":"undistributedRoyalties","type":"uint256","internalType":"uint256"}]},{"name":"count","type":"tuple","internalType":"struct BondUtils.BondCount","components":[{"name":"minted","type":"uint256","internalType":"uint256"},{"name":"burned","type":"uint256","internalType":"uint256"},{"name":"consumed","type":"uint256","internalType":"uint256"}]}]},{"name":"feeModel","type":"address","internalType":"address"},{"name":"tapeModel","type":"address","internalType":"address"},{"name":"cartridgeOwner","type":"address","internalType":"address"},{"name":"tapeCreator","type":"address","internalType":"address"},{"name":"tapeOutputData","type":"bytes","internalType":"bytes"}],"stateMutability":"view"},{"type":"function","name":"tapeBondsCreated","inputs":[{"name":"","type":"uint256","internalType":"uint256"}],"outputs":[{"name":"","type":"bytes32","internalType":"bytes32"}],"stateMutability":"view"},{"type":"function","name":"tapeModelAddress","inputs":[],"outputs":[{"name":"","type":"address","internalType":"address"}],"stateMutability":"view"},{"type":"function","name":"tapeOwnershipModelAddress","inputs":[],"outputs":[{"name":"","type":"address","internalType":"address"}],"stateMutability":"view"},{"type":"function","name":"tapesCount","inputs":[],"outputs":[{"name":"","type":"uint256","internalType":"uint256"}],"stateMutability":"view"},{"type":"function","name":"totalTapes","inputs":[],"outputs":[{"name":"","type":"uint256","internalType":"uint256"}],"stateMutability":"view"},{"type":"function","name":"transferOwnership","inputs":[{"name":"newOwner","type":"address","internalType":"address"}],"outputs":[],"stateMutability":"nonpayable"},{"type":"function","name":"updateBondingCurveParams","inputs":[{"name":"newCurrencyToken","type":"address","internalType":"address"},{"name":"newFeeModel","type":"address","internalType":"address"},{"name":"newTapeModel","type":"address","internalType":"address"},{"name":"newTapeOwnershipModelAddress","type":"address","internalType":"address"},{"name":"newTapeBondingCurveModelAddress","type":"address","internalType":"address"},{"name":"newMaxSupply","type":"uint256","internalType":"uint256"},{"name":"stepRangesMax","type":"uint256[]","internalType":"uint256[]"},{"name":"stepCoefficients","type":"uint256[]","internalType":"uint256[]"}],"outputs":[],"stateMutability":"nonpayable"},{"type":"function","name":"updateProtocolWallet","inputs":[{"name":"newProtocolWallet","type":"address","internalType":"address"}],"outputs":[],"stateMutability":"nonpayable"},{"type":"function","name":"uri","inputs":[{"name":"tokenId","type":"uint256","internalType":"uint256"}],"outputs":[{"name":"","type":"string","internalType":"string"}],"stateMutability":"view"},{"type":"function","name":"uri","inputs":[{"name":"tokenId","type":"bytes32","internalType":"bytes32"}],"outputs":[{"name":"","type":"string","internalType":"string"}],"stateMutability":"view"},{"type":"function","name":"validateTape","inputs":[{"name":"dapp","type":"address","internalType":"address"},{"name":"tapeId","type":"bytes32","internalType":"bytes32"},{"name":"_payload","type":"bytes","internalType":"bytes"},{"name":"_v","type":"tuple","internalType":"struct Proof","components":[{"name":"validity","type":"tuple","internalType":"struct OutputValidityProof","components":[{"name":"inputIndexWithinEpoch","type":"uint64","internalType":"uint64"},{"name":"outputIndexWithinInput","type":"uint64","internalType":"uint64"},{"name":"outputHashesRootHash","type":"bytes32","internalType":"bytes32"},{"name":"vouchersEpochRootHash","type":"bytes32","internalType":"bytes32"},{"name":"noticesEpochRootHash","type":"bytes32","internalType":"bytes32"},{"name":"machineStateHash","type":"bytes32","internalType":"bytes32"},{"name":"outputHashInOutputHashesSiblings","type":"bytes32[]","internalType":"bytes32[]"},{"name":"outputHashesInEpochSiblings","type":"bytes32[]","internalType":"bytes32[]"}]},{"name":"context","type":"bytes","internalType":"bytes"}]}],"outputs":[{"name":"","type":"bytes32","internalType":"bytes32"}],"stateMutability":"nonpayable"},{"type":"function","name":"validateTapeCustom","inputs":[{"name":"dapp","type":"address","internalType":"address"},{"name":"tapeId","type":"bytes32","internalType":"bytes32"},{"name":"_payload","type":"bytes","internalType":"bytes"},{"name":"_v","type":"tuple","internalType":"struct Proof","components":[{"name":"validity","type":"tuple","internalType":"struct OutputValidityProof","components":[{"name":"inputIndexWithinEpoch","type":"uint64","internalType":"uint64"},{"name":"outputIndexWithinInput","type":"uint64","internalType":"uint64"},{"name":"outputHashesRootHash","type":"bytes32","internalType":"bytes32"},{"name":"vouchersEpochRootHash","type":"bytes32","internalType":"bytes32"},{"name":"noticesEpochRootHash","type":"bytes32","internalType":"bytes32"},{"name":"machineStateHash","type":"bytes32","internalType":"bytes32"},{"name":"outputHashInOutputHashesSiblings","type":"bytes32[]","internalType":"bytes32[]"},{"name":"outputHashesInEpochSiblings","type":"bytes32[]","internalType":"bytes32[]"}]},{"name":"context","type":"bytes","internalType":"bytes"}]},{"name":"stepRangesMax","type":"uint256[]","internalType":"uint256[]"},{"name":"stepCoefficients","type":"uint256[]","internalType":"uint256[]"},{"name":"creatorAllocation","type":"bool","internalType":"bool"},{"name":"creator","type":"address","internalType":"address"},{"name":"token","type":"address","internalType":"address"}],"outputs":[{"name":"","type":"bytes32","internalType":"bytes32"}],"stateMutability":"nonpayable"},{"type":"function","name":"withdrawBalance","inputs":[{"name":"token","type":"address","internalType":"address"},{"name":"amount","type":"uint256","internalType":"uint256"}],"outputs":[],"stateMutability":"nonpayable"},{"type":"event","name":"ApprovalForAll","inputs":[{"name":"account","type":"address","indexed":true,"internalType":"address"},{"name":"operator","type":"address","indexed":true,"internalType":"address"},{"name":"approved","type":"bool","indexed":false,"internalType":"bool"}],"anonymous":false},{"type":"event","name":"Bond","inputs":[{"name":"id","type":"bytes32","indexed":true,"internalType":"bytes32"},{"name":"token","type":"address","indexed":true,"internalType":"address"},{"name":"currentPrice","type":"uint256","indexed":false,"internalType":"uint256"},{"name":"currentSupply","type":"uint256","indexed":false,"internalType":"uint256"},{"name":"currentBalance","type":"uint256","indexed":false,"internalType":"uint256"}],"anonymous":false},{"type":"event","name":"Buy","inputs":[{"name":"id","type":"bytes32","indexed":true,"internalType":"bytes32"},{"name":"user","type":"address","indexed":true,"internalType":"address"},{"name":"amountMinted","type":"uint256","indexed":false,"internalType":"uint256"},{"name":"pricePayed","type":"uint256","indexed":false,"internalType":"uint256"}],"anonymous":false},{"type":"event","name":"Consume","inputs":[{"name":"id","type":"bytes32","indexed":true,"internalType":"bytes32"},{"name":"user","type":"address","indexed":true,"internalType":"address"},{"name":"amountConsumed","type":"uint256","indexed":false,"internalType":"uint256"},{"name":"currencyDonated","type":"uint256","indexed":false,"internalType":"uint256"}],"anonymous":false},{"type":"event","name":"OwnershipTransferred","inputs":[{"name":"previousOwner","type":"address","indexed":true,"internalType":"address"},{"name":"newOwner","type":"address","indexed":true,"internalType":"address"}],"anonymous":false},{"type":"event","name":"Reward","inputs":[{"name":"id","type":"bytes32","indexed":true,"internalType":"bytes32"},{"name":"user","type":"address","indexed":true,"internalType":"address"},{"name":"token","type":"address","indexed":true,"internalType":"address"},{"name":"rewardType","type":"uint8","indexed":false,"internalType":"enum BondUtils.RewardType"},{"name":"amount","type":"uint256","indexed":false,"internalType":"uint256"}],"anonymous":false},{"type":"event","name":"Sell","inputs":[{"name":"id","type":"bytes32","indexed":true,"internalType":"bytes32"},{"name":"user","type":"address","indexed":true,"internalType":"address"},{"name":"amountBurned","type":"uint256","indexed":false,"internalType":"uint256"},{"name":"refundReceived","type":"uint256","indexed":false,"internalType":"uint256"}],"anonymous":false},{"type":"event","name":"TransferBatch","inputs":[{"name":"operator","type":"address","indexed":true,"internalType":"address"},{"name":"from","type":"address","indexed":true,"internalType":"address"},{"name":"to","type":"address","indexed":true,"internalType":"address"},{"name":"ids","type":"uint256[]","indexed":false,"internalType":"uint256[]"},{"name":"values","type":"uint256[]","indexed":false,"internalType":"uint256[]"}],"anonymous":false},{"type":"event","name":"TransferSingle","inputs":[{"name":"operator","type":"address","indexed":true,"internalType":"address"},{"name":"from","type":"address","indexed":true,"internalType":"address"},{"name":"to","type":"address","indexed":true,"internalType":"address"},{"name":"id","type":"uint256","indexed":false,"internalType":"uint256"},{"name":"value","type":"uint256","indexed":false,"internalType":"uint256"}],"anonymous":false},{"type":"event","name":"URI","inputs":[{"name":"value","type":"string","indexed":false,"internalType":"string"},{"name":"id","type":"uint256","indexed":true,"internalType":"uint256"}],"anonymous":false},{"type":"error","name":"Bond__InvalidAmount","inputs":[]},{"type":"error","name":"ERC1155InsufficientBalance","inputs":[{"name":"sender","type":"address","internalType":"address"},{"name":"balance","type":"uint256","internalType":"uint256"},{"name":"needed","type":"uint256","internalType":"uint256"},{"name":"tokenId","type":"uint256","internalType":"uint256"}]},{"type":"error","name":"ERC1155InvalidApprover","inputs":[{"name":"approver","type":"address","internalType":"address"}]},{"type":"error","name":"ERC1155InvalidArrayLength","inputs":[{"name":"idsLength","type":"uint256","internalType":"uint256"},{"name":"valuesLength","type":"uint256","internalType":"uint256"}]},{"type":"error","name":"ERC1155InvalidOperator","inputs":[{"name":"operator","type":"address","internalType":"address"}]},{"type":"error","name":"ERC1155InvalidReceiver","inputs":[{"name":"receiver","type":"address","internalType":"address"}]},{"type":"error","name":"ERC1155InvalidSender","inputs":[{"name":"sender","type":"address","internalType":"address"}]},{"type":"error","name":"ERC1155MissingApprovalForAll","inputs":[{"name":"operator","type":"address","internalType":"address"},{"name":"owner","type":"address","internalType":"address"}]},{"type":"error","name":"OwnableInvalidOwner","inputs":[{"name":"owner","type":"address","internalType":"address"}]},{"type":"error","name":"OwnableUnauthorizedAccount","inputs":[{"name":"account","type":"address","internalType":"address"}]},{"type":"error","name":"Tape__ChangeError","inputs":[]},{"type":"error","name":"Tape__InsufficientFunds","inputs":[]},{"type":"error","name":"Tape__InvalidDapp","inputs":[]},{"type":"error","name":"Tape__InvalidOwner","inputs":[]},{"type":"error","name":"Tape__InvalidParams","inputs":[]},{"type":"error","name":"Tape__InvalidTape","inputs":[{"name":"reason","type":"string","internalType":"string"}]},{"type":"error","name":"Tape__InvalidUser","inputs":[]},{"type":"error","name":"Tape__NotFound","inputs":[]},{"type":"error","name":"Tape__SlippageLimitExceeded","inputs":[]}],"bytecode":{"object":"0x60a034620001cd57601f62005f0c38819003918201601f19168301926001600160401b0392909183851183861017620001b7578160609284926040978852833981010312620001cd576200005381620001d2565b90836200006360208301620001d2565b9101518451936020850190811185821017620001b757855260008094526200008d600254620001e7565b601f811162000176575b5060028490556001600160a01b0392831680156200015e57600380546001600160a01b03198082168417909255909590829086167f8be0079c531659141344cd1fd0a4f28419497f9722a3daafe3b4186f6b6457e08380a3620000fc600454620001e7565b601f81116200013a575b5050600060045584600d541617600d556080521690600954161760095551615cce90816200023e8239608051816130cc0152f35b601f602083600462000156955220910160051c81019062000224565b388062000106565b8551631e4fbdf760e01b815260048101869052602490fd5b60028552620001b090601f0160051c7f405787fa12a823e0f2b7631cc41b3ba8828b3321ca811111fa75cd3aa3bb5ace9081019062000224565b3862000097565b634e487b7160e01b600052604160045260246000fd5b600080fd5b51906001600160a01b0382168203620001cd57565b90600182811c9216801562000219575b60208310146200020357565b634e487b7160e01b600052602260045260246000fd5b91607f1691620001f7565b81811062000230575050565b600081556001016200022456fe6080604052600436101561001257600080fd5b60003560e01c8062fdd58e146102e157806301ffc9a7146102dc57806302fe5305146102d757806307974110146102d25780630cf20cc9146102cd5780630e89341c1461025f57806322f046b5146102c85780632eb2c2d6146102c357806338a699a4146102be5780633ab03c8b146102b95780633b6e02af146102b45780633ff72137146102af578063451eb821146102aa5780634e1273f4146102a55780635db8076c146102a05780636a386ed21461029b578063715018a614610296578063724969e714610291578063787ca4381461028c578063796aea77146102875780637fb90ea614610282578063828ef8d91461027d5780638d3b5235146102785780638da5cb5b146102735780638f8b185b1461026e5780639165f843146102695780639ba01fbe146102645780639ed19ddb1461025f578063a22cb4651461025a578063ad74b77514610255578063b16cae6614610250578063b495bbb01461024b578063bbfef08814610246578063c5b67e8114610241578063d3c3b3891461023c578063d5abeb0114610237578063e308a09914610232578063e5a412431461022d578063e75b37dd14610228578063e985e9c514610223578063eb596d011461021e578063f242432a14610219578063f2fde38b14610214578063fa1c4db61461020f5763fabe38241461020a57600080fd5b612ecd565b612e54565b612d96565b612c71565b612c32565b612ba8565b612ac5565b612a37565b6129de565b6129c0565b612997565b6128ef565b61281e565b612585565b612422565b6123e6565b61231c565b61087f565b6122ce565b611e8e565b611e13565b611a66565b6119f8565b611536565b6114fe565b61137d565b61133b565b611152565b6110f4565b6110cb565b610f6b565b610eaf565b610db8565b610d0f565b610ce6565b610cbd565b610c8c565b610b5b565b61099e565b610696565b61056f565b610431565b610396565b610333565b6001600160a01b038116036102f757565b600080fd5b60843590610309826102e6565b565b60043590610309826102e6565b60e43590610309826102e6565b6101043590610309826102e6565b346102f75760403660031901126102f757602061037b600435610355816102e6565b6024356000526000835260406000209060018060a01b0316600052602052604060002090565b54604051908152f35b6001600160e01b03198116036102f757565b346102f75760203660031901126102f75760206004356103b581610384565b63ffffffff60e01b16636cdb3d1360e11b81149081156103f3575b81156103e2575b506040519015158152f35b6301ffc9a760e01b149050386103d7565b6303a24d0760e21b811491506103d0565b9181601f840112156102f7578235916001600160401b0383116102f757602083818601950101116102f757565b346102f7576020806003193601126102f7576001600160401b036004358181116102f757610466610475913690600401610404565b61046e613ad5565b3691610b06565b91825191821161055c576104938261048e600254611bf5565b613b18565b602090601f83116001146104d5575081906104c5936000926104ca575b50508160011b916000199060031b1c19161790565b600255005b0151905038806104b0565b90601f1983169361050860026000527f405787fa12a823e0f2b7631cc41b3ba8828b3321ca811111fa75cd3aa3bb5ace90565b926000905b868210610544575050836001951061052b575b505050811b01600255005b015160001960f88460031b161c19169055388080610520565b8060018596829496860151815501950193019061050d565b6109c7565b908160409103126102f75790565b346102f75760803660031901126102f75760043561058c816102e6565b602435906001600160401b036044358181116102f7576105b0903690600401610404565b90916064359081116102f7576105ca903690600401610561565b600a549092906105ea906001600160a01b03165b6001600160a01b031690565b60405163273bed1d60e21b81523360048201526024810187905290602090829060449082905afa90811561069157600091610662575b5015610650578461063c9461063761064c9761375d565b613e72565b6040519081529081906020820190565b0390f35b6040516313bb0a7760e11b8152600490fd5b610684915060203d60201161068a575b61067c8183610a26565b810190612f5c565b38610620565b503d610672565b612f71565b346102f7576040806003193601126102f75760049081356106b6816102e6565b336000908152601060205260409020602435919082906106ea9083905b9060018060a01b0316600052602052604060002090565b54106108285733600090815260106020526040902061070a9082906106d3565b610715838254612f0c565b90556001600160a01b031690811561080d57825163095ea7b360e01b815230858201908152602081810184905293919084908290819060400103816000865af1908115610691576000916107f0575b50156107e05783516323b872dd60e01b815230868201908152336020820152604081019390935291839183918290600090829060600103925af1918215610691576000926107c3575b5050156107b657005b5163f570efeb60e01b8152fd5b6107d99250803d1061068a5761067c8183610a26565b38806107ad565b5050505163f570efeb60e01b8152fd5b6108079150843d861161068a5761067c8183610a26565b38610764565b6000808093508092335af1610820612f2c565b50156107b657005b5050516368d134dd60e11b8152fd5b60005b83811061084a5750506000910152565b818101518382015260200161083a565b9060209161087381518092818552858086019101610837565b601f01601f1916010190565b346102f7576020806003193601126102f75760018060a01b03600954166108db604051600435848201528381526108b5816109f0565b604051809363316fb1bf60e21b825285600483015281806000958695602483019061085a565b03915afa90811561069157809161090c575b836108f783613686565b9061064c60405192828493845283019061085a565b90503d8082843e61091d8184610a26565b820191838184031261098b578051906001600160401b03821161098f570182601f8201121561098b5780519161095283610aeb565b936109606040519586610a26565b838552858484010111610988575082916109829185806108f796019101610837565b386108ed565b80fd5b5080fd5b8280fd5b60009103126102f757565b346102f75760003660031901126102f757600a546040516001600160a01b039091168152602090f35b634e487b7160e01b600052604160045260246000fd5b6001600160401b03811161055c57604052565b604081019081106001600160401b0382111761055c57604052565b602081019081106001600160401b0382111761055c57604052565b90601f801991011681019081106001600160401b0382111761055c57604052565b6040519061010082018281106001600160401b0382111761055c57604052565b60405190610309826109f0565b6001600160401b03811161055c5760051b60200190565b9080601f830112156102f7576020908235610aa581610a74565b93610ab36040519586610a26565b81855260208086019260051b8201019283116102f757602001905b828210610adc575050505090565b81358152908301908301610ace565b6001600160401b03811161055c57601f01601f191660200190565b929192610b1282610aeb565b91610b206040519384610a26565b8294818452818301116102f7578281602093846000960137010152565b9080601f830112156102f757816020610b5893359101610b06565b90565b346102f75760a03660031901126102f75760048035610b79816102e6565b602435610b85816102e6565b6001600160401b03906044358281116102f757610ba59036908601610a8b565b906064358381116102f757610bbd9036908701610a8b565b926084359081116102f757610bd59036908701610b3d565b936001600160a01b03808216903382141580610c68575b610c3757831615610c1f5715610c0857610c06955061530f565b005b604051626a0d4560e21b8152600081880152602490fd5b604051632bfa23e760e11b8152600081890152602490fd5b6040805163711bec9160e11b815233818b019081526001600160a01b038616602082015290918291010390fd5b0390fd5b50600082815260016020908152604080832033845290915290205460ff1615610bec565b346102f75760203660031901126102f757600435600052600e60205260206001604060002001541515604051908152f35b346102f75760003660031901126102f7576007546040516001600160a01b039091168152602090f35b346102f75760003660031901126102f757600b546040516001600160a01b039091168152602090f35b346102f7576101003660031901126102f757600435610d2d816102e6565b602435610d39816102e6565b604435610d45816102e6565b60643592610d52846102e6565b610d5a6102fc565b6001600160401b039460c4358681116102f757610d7b903690600401610a8b565b9360e4359687116102f757610d97610c06973690600401610a8b565b9560a43594612f7d565b801515036102f757565b60c4359061030982610da1565b346102f7576101203660031901126102f757610dd261030b565b6001600160401b036044358181116102f757610df2903690600401610404565b92906064358381116102f757610e0c903690600401610561565b936084358481116102f757610e25903690600401610a8b565b9460a4359485116102f75761064c95610e4561063c963690600401610a8b565b91610e4e610dab565b93610e57610318565b95610e60610325565b97602435906132be565b90815180825260208080930193019160005b828110610e8a575050505090565b835185529381019392810192600101610e7c565b906020610b58928181520190610e6a565b346102f75760403660031901126102f7576004356001600160401b038082116102f757366023830112156102f7578160040135610eeb81610a74565b92610ef96040519485610a26565b8184526020916024602086019160051b830101913683116102f757602401905b828210610f5257856024358681116102f75761064c91610f40610f46923690600401610a8b565b90613359565b60405191829182610e9e565b8380918335610f60816102e6565b815201910190610f19565b346102f75760403660031901126102f757600435602435610f8b816102e6565b610f93613ad5565b6001610fa983600052600e602052604060002090565b0154156110b957610fcf6012610fc984600052600e602052604060002090565b01613418565b61107a57600954610fea906105de906001600160a01b031681565b803b156102f75760405163f8e0044b60e01b81526001600160a01b038316600482015290600090829060249082905afa801561069157610c0693600f9261104192611061575b50600052600e602052604060002090565b0180546001600160a01b0319166001600160a01b03909216919091179055565b8061106e611074926109dd565b80610993565b38611030565b6040516329c45f6760e01b815260206004820152601660248201527515185c1948185b1c9958591e481d985b1a59185d195960521b6044820152606490fd5b604051631d8ce09b60e31b8152600490fd5b346102f75760003660031901126102f7576008546040516001600160a01b039091168152602090f35b346102f7576000806003193601126109885761110e613ad5565b600380546001600160a01b0319811690915581906001600160a01b03167f8be0079c531659141344cd1fd0a4f28419497f9722a3daafe3b4186f6b6457e08280a380f35b346102f7576040806003193601126102f75760043590602435600161118184600052600e602052604060002090565b01541561132a576111a76111a26111de94600052600e602052604060002090565b613422565b90826111c06105de6105de60095460018060a01b031690565b835190825180809881946323ba203560e21b835287600484016134c0565b03915afa918215610691576000946000936112db575b50602001516112419291608091869190611218906105de906001600160a01b031681565b9086518096819482936370f986fd60e01b84526004840160209093929193604081019481520152565b03915afa9182156106915761127a6112819161064c9460008060009160009361129d575b61127593945090611275916134f9565b6134f9565b80956134f9565b9251938493846040919493926060820195825260208201520152565b505050506112756112c86112759260803d6080116112d4575b6112c08183610a26565b8101906134d7565b92945091925083611265565b503d6112b6565b602095506112419350608091926112186105de6113106105de94893d8b11611323575b6113088183610a26565b8101906134aa565b9490998a959850505050509291506111f4565b503d6112fe565b8151631d8ce09b60e31b8152600490fd5b346102f75760203660031901126102f757600435611358816102e6565b60018060a01b03166000526011602052602060ff604060002054166040519015158152f35b346102f75760203660031901126102f7576004356113aa6012610fc983600052600e602052604060002090565b156114c7578060126113f66113e56105de6105de600f6113d761141798600052600e602052604060002090565b01546001600160a01b031690565b92600052600e602052604060002090565b01604051809263c827650360e01b8252818061012096879560048301613547565b03915afa80156106915760009081928283848591869387958897611481575b5061064c97989950604051998a998a95926101009794919a9998959261012088019b8852602088015260408701526060860152608085015260a084015260c083015260e08201520152565b9750505050505050506114ae91508261064c93903d106114c0575b6114a68183610a26565b810190613506565b96988998979691959294929190611436565b503d61149c565b6040516329c45f6760e01b815260206004820152600e60248201526d746170654f75747075744461746160901b6044820152606490fd5b346102f75760003660031901126102f7576020600f54604051908152f35b60609060031901126102f757600435906024359060443590565b346102f7576115443661151c565b9091600092818452600e60205260409160018386200154156119c25761157481600052600e602052604060002090565b60095461158b906105de906001600160a01b031681565b848051809263fdfb946360e01b825281806115aa878a600484016135a2565b03915afa93841561069157879188956119a1575b50600e8301546115d8906105de906001600160a01b031681565b865163f5b0402760e01b8152600481018390526024810184905298906080908a9060449082905afa8015610691578199828391849361196e575b5085611623836112758f85906134f9565b1161195d5761164461163e846112758f6112758688926134f9565b87612f0c565b9a8b1061194c579161169e916116a69361165f878b336145f1565b61166e60028a01988954612f0c565b8855600389019a611680888d54612f0c565b8c55600c8a016116918982546134f9565b905560048a015589614863565b9291906134f9565b6116b5600787019182546134f9565b90556116c6600a86019182546134f9565b9055600d54611719906116f7906001600160a01b03165b6001600160a01b0316600090815260106020526040902090565b85546001600160a01b03165b60018060a01b0316600052602052604060002090565b6117248a82546134f9565b9055600d548454885160008152602081019b909b526001600160a01b039a908b16918291908c16908890600080516020615c5983398151915290604090a415611919578060206117ab6117836105de6105de895460018060a01b031690565b8a5163095ea7b360e01b8152306004820152602481018d905293849283919082906044820190565b03925af19081156106915782916118fa575b50156118e95780602061180d6117df6105de6105de895460018060a01b031690565b8a516323b872dd60e01b8152306004820152336024820152604481018d905293849283919082906064820190565b03925af191821561069157916118ca575b50156118b957916118a861064c9892600080516020615c39833981519152945b8851908152602081018a9052339087907f47d38b8b50e4b792e507faad951cda2457545e704f667a3e32f22541945ebbf690604090a382546004906001600160a01b0316930154965490549088519485941697846040919493926060820195825260208201520152565b0390a3519081529081906020820190565b855163f570efeb60e01b8152600490fd5b6118e3915060203d60201161068a5761067c8183610a26565b3861181e565b865163f570efeb60e01b8152600490fd5b611913915060203d60201161068a5761067c8183610a26565b386117bd565b8080808a335af1611928612f2c565b50156118b957916118a861064c9892600080516020615c398339815191529461183e565b8951636bdbc20960e11b8152600490fd5b895163bd9c85bb60e01b8152600490fd5b869c5061162393506112759250611994915060803d6080116112d4576112c08183610a26565b929d929450925090611612565b9094506119bb9150853d8711611323576113088183610a26565b93386115be565b8251631d8ce09b60e31b8152600490fd5b60409060031901126102f7576004356119eb816102e6565b90602435610b5881610da1565b346102f757611a06366119d3565b90611a0f613ad5565b6001600160a01b031660008181526011602052604081205490929060ff16611a5457611a519183526011602052604083209060ff801983541691151516179055565b80f35b604051631c3265c360e31b8152600490fd5b346102f75760003660031901126102f7576003546040516001600160a01b039091168152602090f35b908154611a9b81610a74565b92604093611aac6040519182610a26565b82815280946020809201926000526020600020906000935b858510611ad357505050505050565b6002846001928451611ae4816109f0565b865481528487015483820152815201930194019391611ac4565b9060405160a081018181106001600160401b0382111761055c57604052608060048294805484526001810154602085015260028101546040850152600381015460608501520154910152565b90604051606081018181106001600160401b0382111761055c5760405260406002829480548452600181015460208501520154910152565b90611bee600b611b90610a47565b84546001600160a01b0316815293611baa60018201611a8f565b6020860152600281015460408601526003810154606086015260048101546080860152600581015460a0860152611be360068201611afe565b60c086015201611b4a565b60e0830152565b90600182811c92168015611c25575b6020831014611c0f57565b634e487b7160e01b600052602260045260246000fd5b91607f1691611c04565b805460009392611c3e82611bf5565b91828252602093600191600181169081600014611ca65750600114611c65575b5050505050565b90939495506000929192528360002092846000945b838610611c9257505050500101903880808080611c5e565b805485870183015294019385908201611c7a565b60ff19168685015250505090151560051b010191503880808080611c5e565b90610309611cd99260405193848092611c2f565b0383610a26565b80516001600160a01b031682526020808201516101c082850181905281519085018190526101e085019493929182019160005b828110611da857505050509061016060e0836040610b589501516040850152606081015160608501526080810151608085015260a081015160a0850152611d8a60c082015160c086019060808091805184526020810151602085015260408101516040850152606081015160608501520151910152565b01519101906040809180518452602081015160208501520151910152565b8351805188528201518783015260409096019592810192600101611d13565b9291611de1610b589795969260c0865260c0860190611ce0565b9560018060a01b03809481809416602088015216604086015216606084015216608082015260a081840391015261085a565b346102f75760203660031901126102f757600435600052600e6020526040600020611e3d81611b82565b61064c601260018060a01b039384600e820154169480600f83015416611e82826010850154169260118501541693611e7b6040518097819301611c2f565b0385610a26565b60405196879687611dc7565b611e973661151c565b9190600091808352600e60205260409260018482200154156122bd57818152600e60205260018482200154156122bd57611edb82600052600e602052604060002090565b600954909390611ef5906105de906001600160a01b031681565b8551946323ba203560e21b865286866004938180611f1686898984016135a2565b03915afa9283156106915784968594612298575b50600e820154611f44906105de906001600160a01b031681565b88516370f986fd60e01b8152848101838152602081018a905290916080918391908290819060400103915afa90811561069157869187918a89918a9361225b575b508261127583611275876112758a611f9c976134f9565b9c8d1161224b5785546001600160a01b0399908a16156121dd5761200660208f8f8b85611fd56105de6105de8f5460018060a01b031690565b92516323b872dd60e01b81523392810192835230602084015260408301949094529294859384929091839160600190565b03925af191821561069157916121be575b50156121ae57918993918d95935b600288019c8d5490612036916134f9565b8d556003880198858a549061204a916134f9565b8a55600b89018681549061205d916134f9565b90558801998a5561206e9286614863565b91612078916134f9565b6006870190815490612089916134f9565b9055600a86019081549061209c916134f9565b9055600d546001600160a01b039081166000908152601060209081526040808320895490941683529290522080546120d59083906134f9565b9055600d546001600160a01b03169083898d8189546120f99060018060a01b031690565b91516000815260208101959095529116931691600080516020615c5983398151915290604090a481612129612f19565b823392612135936157bb565b8951908152602081019290925233917f5bd6f821d5961785d719543640cf62d3770f94e59db1a2f3c2250d72b122dddf90604090a354915490549454865191825260208201959095526040810194909452166001600160a01b031691600080516020615c3983398151915290606090a351908152602090f35b8b5163f570efeb60e01b81528790fd5b6121d7915060203d60201161068a5761067c8183610a26565b38612017565b8d9b9a9998979d34106000146121fd578c5163bd9c85bb60e01b81528e90fd5b918b9d9798999a9b9593918b9593873411612219575b50612025565b80809395975061222d819395979934612f0c565b335af1612238612f2c565b50156121ae57918993918d959338612213565b8b51636bdbc20960e11b81528790fd5b6112759550611f9c919450611275935061127592506122889060803d6080116112d4576112c08183610a26565b9297509095919450925090611f85565b9093506122b3919650873d8911611323576113088183610a26565b9590959238611f2a565b8351631d8ce09b60e31b8152600490fd5b346102f75760203660031901126102f757600435600052600e602052600160406000200180549060001982019182116123175760209161230d91612e38565b5054604051908152f35b612ef6565b346102f75761232a366119d3565b6001600160a01b0382169182156123a957816123686123799233600052600160205260406000209060018060a01b0316600052602052604060002090565b9060ff801983541691151516179055565b60405190151581527f17307eab39ab6107e8899845ad3d59bd9653f200f220920489ca2b5937696c3160203392a3005b60405162ced3e160e81b815260006004820152602490fd5b60409060031901126102f7576004356123d9816102e6565b90602435610b58816102e6565b346102f757602061037b6123f9366123c1565b6001600160a01b0391821660009081526010855260408082209290931681526020919091522090565b346102f7576040806003193601126102f75760043590602435600161245184600052600e602052604060002090565b01541561132a576124726111a26124a994600052600e602052604060002090565b908261248b6105de6105de60095460018060a01b031690565b8351908251808098819463fdfb946360e01b835287600484016134c0565b03915afa91821561069157600094600093612546575b506020015161250c92916080918691906124e3906105de906001600160a01b031681565b90865180968194829363f5b0402760e01b84526004840160209093929193604081019481520152565b03915afa9182156106915761253f6112819161064c9460008060009160009361129d5761127593945090611275916134f9565b8095612f0c565b6020955061250c9350608091926124e36105de6125726105de94893d8b11611323576113088183610a26565b9490998a959850505050509291506124bf565b346102f7576040806003193601126102f75760043590602435600092808452600e60205260018385200154156119c2576125c981600052600e602052604060002090565b6009549094906125e3906105de906001600160a01b031681565b9484805180976328dac05d60e21b82528180612603868a600484016135a2565b03915afa90811561069157829683926127fc575b50600e810154612631906105de906001600160a01b031681565b8651630c1d341f60e31b81526004810189905290608090829060249082905afa9586156106915788918597869187916127d0575b50879291906126758385336145f1565b60038601978389549061268791612f0c565b895560028701978689549061269b91612f0c565b8955600d8801858154906126ae916134f9565b905560058801556126bf9285614863565b916126c9916134f9565b60088601908154906126da916134f9565b9055600a8501908154906126ed916134f9565b9055600d546001600160a01b03908116600090815260106020908152604080832088549094168352929052208054612726908a906134f9565b9055600d5484548a5160008152602081019a909a526001600160a01b03908116998a9291909116908490600080516020615c5983398151915290604090a48851908152602081019290925233917fff8a4589f2e064f9b82f2aec48ea80dbf6a8f623d3bd76d954da82ec4ea0079f90604090a36004015491549054855192835260208301919091526040820152600080516020615c3983398151915290606090a351908152602090f35b9150506127f091975086955060803d6080116112d4576112c08183610a26565b92989096909290612665565b9096506128169150853d8711611323576113088183610a26565b909538612617565b346102f7576040806003193601126102f757600435600161284982600052600e602052604060002090565b01541561132a578161286b6111a26128a293600052600e602052604060002090565b600954612882906105de906001600160a01b031681565b905190825180809581946328dac05d60e21b8352602435600484016134c0565b03915afa918215610691576000916000936128ca575b50519081526020810191909152604090f35b816128e792945061064c93503d8511611323576113088183610a26565b9290916128b8565b346102f757600080600319360112610988578081600f8054915b82851061291b57604051848152602090f35b90919261298c600191848452612986600361295189600080516020615c798339815191520154600052600e602052604060002090565b0154600d61297e61296e6129648c612c08565b90549060031b1c90565b600052600e602052604060002090565b015490612f0c565b906134f9565b940193929190612909565b346102f75760003660031901126102f7576006546040516001600160a01b039091168152602090f35b346102f75760003660031901126102f7576020600c54604051908152f35b346102f75760203660031901126102f7576004356129fb816102e6565b600d54906001600160a01b03908183163303612a25576001600160a01b0319909216911617600d55005b60405163dcf0398d60e01b8152600490fd5b346102f75760203660031901126102f757600a5460043590612a61906001600160a01b03166105de565b60405163273bed1d60e21b81523360048201526024810183905290602090829060449082905afa90811561069157600091612aa6575b501561065057610c069061375d565b612abf915060203d60201161068a5761067c8183610a26565b38612a97565b346102f75760c03660031901126102f7576004356001600160401b036024358181116102f757612af9903690600401610a8b565b906044359081116102f757612b12903690600401610a8b565b606435612b1e81610da1565b60843591612b2b836102e6565b60a43593612b38856102e6565b600a5460405163273bed1d60e21b81523360048201526024810188905290602090829060449082906001600160a01b03165afa90811561069157600091612b89575b501561065057610c06956139f2565b612ba2915060203d60201161068a5761067c8183610a26565b38612b7a565b346102f757602060ff612be6612bbd366123c1565b6001600160a01b0391821660009081526001865260408082209290931681526020919091522090565b54166040519015158152f35b634e487b7160e01b600052603260045260246000fd5b600f54811015612c2d57600f600052600080516020615c798339815191520190600090565b612bf2565b346102f75760203660031901126102f757600435600f548110156102f757602090600f600052600080516020615c798339815191520154604051908152f35b346102f75760a03660031901126102f757600435612c8e816102e6565b602435612c9a816102e6565b6084356001600160401b0381116102f757612cb9903690600401610b3d565b906001600160a01b03838116903382141580612d72575b612d4b57821615612d325715612d1a57610c0692612d126064356044359160405192600184526020840152604083019160018352606084015260808301604052565b92909161530f565b604051626a0d4560e21b815260006004820152602490fd5b604051632bfa23e760e11b815260006004820152602490fd5b60405163711bec9160e11b81523360048201526001600160a01b0386166024820152604490fd5b50600082815260016020908152604080832033845290915290205460ff1615612cd0565b346102f75760203660031901126102f757600435612db3816102e6565b612dbb613ad5565b6001600160a01b03908116908115612e0a57600354826001600160601b0360a01b821617600355167f8be0079c531659141344cd1fd0a4f28419497f9722a3daafe3b4186f6b6457e0600080a3005b604051631e4fbdf760e01b815260006004820152602490fd5b805415612c2d57600052602060002090600090565b8054821015612c2d5760005260206000209060011b0190600090565b346102f75760203660031901126102f7576004356005548110156102f757600560005260011b7f036b6384b5eca791c62761152d0c79bb0604c104a5fb6f4eb0703f3154bb3db181600080516020615c1983398151915201549101549061064c6040519283928360209093929193604081019481520152565b346102f75760003660031901126102f7576009546040516001600160a01b039091168152602090f35b634e487b7160e01b600052601160045260246000fd5b9190820391821161231757565b60405190612f2682610a0b565b60008252565b3d15612f57573d90612f3d82610aeb565b91612f4b6040519384610a26565b82523d6000602084013e565b606090565b908160209103126102f75751610b5881610da1565b6040513d6000823e3d90fd5b9697959497612f8a613ad5565b600954612fa1906105de906001600160a01b031681565b90813b156102f7576040805163169f6b0560e11b81526001600160a01b038b16600480830191909152919860009492939290918581602481855afa8015610691576132ab575b50803b1561326e57895163f610a03960e01b81526001600160a01b0387168582019081528690829081906020010381855afa801561069157613298575b50803b1561326e57895163f8e0044b60e01b81526001600160a01b0388168582019081528690829081906020010381855afa801561069157613285575b50803b1561326e57895163130d243760e21b81526001600160a01b038916858201908152909186918391908290819060200103915afa801561069157613272575b506001600160a01b03881690813b1561326e578951632326e3db60e01b8152938585806130f387867f00000000000000000000000000000000000000000000000000000000000000008785016144b8565b0381865afa8015610691578e9b879661312d9261325b575b506131146144e3565b516309a257cd60e41b81529e8f9586948594850161399d565b03915afa988915610691578199613237575b505b8851811015613186578061318061315a6001938c613345565b5151602080613169858f613345565b51015190613175610a67565b928352820152614541565b01613141565b506132329495975061321592916131db6131f8926131be6103099a60018060a01b03166001600160601b0360a01b6006541617600655565b60018060a01b03166001600160601b0360a01b6007541617600755565b60018060a01b03166001600160601b0360a01b6008541617600855565b60018060a01b03166001600160601b0360a01b600a541617600a55565b60018060a01b03166001600160601b0360a01b600b541617600b55565b600c55565b6132549199503d808b833e61324c8183610a26565b8101906138fe565b973861313f565b8061106e613268926109dd565b3861310b565b8480fd5b8061106e61327f926109dd565b386130a2565b8061106e613292926109dd565b38613061565b8061106e6132a5926109dd565b38613024565b8061106e6132b8926109dd565b38612fe7565b600a5460405163273bed1d60e21b815233600482015260248101849052979a9599949893979296919591949193919290602090829060449082906001600160a01b03165afa90811561069157600091613326575b501561065057610b589961063794876139f2565b61333f915060203d60201161068a5761067c8183610a26565b38613312565b8051821015612c2d5760209160051b010190565b919091805183518082036133f657505080519061338e61337883610a74565b926133866040519485610a26565b808452610a74565b60209190601f1901368484013760005b81518110156133ee57600581901b8281018401519087018401516000908152602081815260408083206001600160a01b0390941683529290522054600191906133e78287613345565b520161339e565b509193505050565b604051635b05999160e01b815260048101919091526024810191909152604490fd5b610b589054611bf5565b9060405160c081018181106001600160401b0382111761055c5760405260a06134a56012839561345181611b82565b8552600e8101546001851b60001901166020860152600f8101546001600160a01b0316604086015260108101546001600160a01b0316606086015260118101546001600160a01b0316608086015201611cc5565b910152565b91908260409103126102f7576020825192015190565b604090610b58939281528160208201520190611ce0565b91908260809103126102f7578151916020810151916060604083015192015190565b9190820180921161231757565b90816101209103126102f75780519160208201519160408101519160608201519160808101519160a08201519160c08101519161010060e083015192015190565b906020610b58928181520190611c2f565b9081548082526020809201926000526020600020916000905b82821061357f575050505090565b835485526001808501548683015260409095019460029094019390910190613571565b91610b58918352604060208401526135d4604084016135c7835460018060a01b031690565b6001600160a01b03169052565b6101c06060840152600b6101a06135f2610200860160018501613558565b60028401546080870152600384015460a0870152600484015460c0870152600584015460e08701526006840154610100870152600784015461012087015260088401546101408701526009840154610160870152600a84015461018087015294019101600260409180548452600181015460208501520154910152565b9061368260209282815194859201610837565b0190565b90604051918260206000906004549061369e82611bf5565b9160019081811690811561373457506001146136d3575b5050506136c5906103099361366f565b03601f198101845283610a26565b9091925060046000527f8a35acfbc15ff81a39ae7d344fd709f28e8600b4aa8c65c6b64bfe7fe36bd19b906000915b84831061371e57505050508101602001826136c56103096136b5565b8054898401850152889550918301918101613702565b90506136c59450602092506103099693915060ff191682860152801515028401019181946136b5565b60065460055491906001600160a01b031661377783610a74565b6040936137876040519283610a26565b80825260056000908152602095600080516020615c1983398151915290878086015b8585106138d15750505050505060019360016137cf85600052600e602052604060002090565b0154156137dd575050505050565b8491926138386137f786600052600e602052604060002090565b600754600e820180546001600160a01b0319166001600160a01b039092169190911790559182546001600160a01b0319166001600160a01b03909116178255565b600854600f820180546001600160a01b0319166001600160a01b03909216919091179055600160009101925b613881575b505050506138779150615166565b3880808080611c5e565b83518110156138cc579085826138c261389d8796958498613345565b5151846138aa8489613345565b5101516138b5610a67565b91825285820152856145a7565b0190919293613864565b613869565b60019160029184516138e2816109f0565b86548152848701548382015281520193019301929188906137a9565b9060209182818303126102f7578051906001600160401b0382116102f7570181601f820112156102f75780519261393484610a74565b936040936139456040519687610a26565b818652828087019260061b850101938185116102f7578301915b84831061396f5750505050505090565b85838303126102f7578386918251613986816109f0565b85518152828601518382015281520192019161395f565b9392916139cd906139bf60609360008852608060208901526080880190610e6a565b908682036040880152610e6a565b930152565b9493926139bf6060936139cd938852608060208901526080880190610e6a565b600b549295949392613a389290613a13906105de906001600160a01b031681565b600c549060405180809681946309a257cd60e41b835260009c8d9789600486016139d2565b03915afa918215610691578692613ab9575b50600954613a62906105de906001600160a01b031681565b95863b156109885760405163169f6b0560e11b81526001600160a01b038716600482015296879060249082905afa9586156106915761030996613aa6575b5061519c565b8061106e613ab3926109dd565b38613aa0565b613ace9192503d8088833e61324c8183610a26565b9038613a4a565b6003546001600160a01b03163303613ae957565b60405163118cdaa760e01b8152336004820152602490fd5b818110613b0c575050565b60008155600101613b01565b90601f8211613b25575050565b6103099160026000527f405787fa12a823e0f2b7631cc41b3ba8828b3321ca811111fa75cd3aa3bb5ace906020601f840160051c83019310613b6f575b601f0160051c0190613b01565b9091508190613b62565b9190601f8111613b8857505050565b610309926000526020600020906020601f840160051c83019310613b6f57601f0160051c0190613b01565b908060209392818452848401376000828201840152601f01601f1916010190565b35906001600160401b03821682036102f757565b9035601e19823603018112156102f75701602081359101916001600160401b0382116102f7578160051b360383136102f757565b81835290916001600160fb1b0383116102f75760209260051b809284830137010190565b9035601e19823603018112156102f75701602081359101916001600160401b0382116102f75781360383136102f757565b929190613c8691604085526040850191613bb3565b91602081840391015280359160fe19823603018312156102f757613d5c613d5183610b589501604084526001600160401b03613cc182613bd4565b166040850152613ce6613cd660208301613bd4565b6001600160401b03166060860152565b60408101356080850152606081013560a0850152608081013560c085015260a081013560e0850152613d3e613d33613d2160c0840184613be8565b61010080890152610140880191613c1c565b9160e0810190613be8565b858303603f190161012087015290613c1c565b926020810190613c40565b916020818503910152613bb3565b908160609103126102f75780519160406020830151613d88816102e6565b920151610b58816102e6565b916020610b58938181520191613bb3565b9092916001600160401b03811161055c57613dca81613dc48454611bf5565b84613b79565b6000601f8211600114613e0a578190613dfb939495600092613dff5750508160011b916000199060031b1c19161790565b9055565b0135905038806104b0565b601f19821694613e1f84600052602060002090565b91805b878110613e5a575083600195969710613e40575b505050811b019055565b0135600019600384901b60f8161c19169055388080613e36565b90926020600181928686013581550194019101613e22565b92909391613e8a85600052600e602052604060002090565b916012830191613e9a8354611bf5565b61447e576001600160a01b03861660009081526011602052604090205460ff1615611a545760408051634b243ea360e11b815290966004966001600160a01b0395929190829087908290613ef29089898e8501613c71565b03921691815a93602094fa80156106915761445f575b50613f44606084613f286105de6105de600f8b015460018060a01b031690565b8a51630d02d25f60e11b81529384928391829189838f01613d94565b03915afa908115610691576000809160009361442c575b508a036143f7576010870180546001600160a01b039283166001600160a01b031991821617909155601188018054939092169216919091179055613fa0929190613da5565b6000918294866006830193600a8401978854908654806142ff575b5060078601978854806141f2575b5060098701998a54806140cc575b50509360009a999793613ff38c9a9793948b99958a9885614863565b50505084549087549361400685846134f9565b946140138c5480976134f9565b9586614029575b50505050505050505555555590565b61127561404592600080516020615c59833981519152966134f9565b600d5461407a9061407290614062906001600160a01b03166116dd565b89546001600160a01b0316611703565b9182546134f9565b9055600d546140bc9083906140a1906001600160a01b03165b98546001600160a01b031690565b92519384931697169582919060206040840193600381520152565b0390a438808a818080808061401a565b919092939495506140ec6105de6105de600e8b015460018060a01b031690565b91878051809463cf54ee1d60e01b8252818061410f868a83019190602083019252565b03915afa938415610691576000936000956141cd575b508161413186866134f9565b1161418c57508b999560009d9c958f948f9d9a966141718f9d99928e9c976141779461416a613ff39961416487866134f9565b90612f0c565b90556134f9565b926134f9565b95999c509397509498508195999b9c50613fd7565b610c649089519182916329c45f6760e01b83528201606090602081526011602082015270756e636c61696d65644275726e4665657360781b60408201520190565b9094506141e8919350883d8a11611323576113088183610a26565b9290929338614125565b9192939450614245906080836142176105de6105de600e8d015460018060a01b031690565b8d600c8c0154908b519687948593849363f5b0402760e01b8552840160209093929193604081019481520152565b03915afa928315610691576000926000946142d6575b508061426785856134f9565b11614296578284928f98979695614171936141646142889261428f986134f9565b8d556134f9565b9038613fc9565b87516329c45f6760e01b81526020818e0181815260119181019190915270756e636c61696d65644275726e4665657360781b604082015281906060010390fd5b9093506142f391925060803d6080116112d4576112c08183610a26565b5092915091923861425b565b905061435297919293506080816143256105de6105de600e8b015460018060a01b031690565b600b89015488516370f986fd60e01b8152808e019182526020820193909352919a8b928391829160400190565b03915afa9788156106915782986143d0575b508061437089846134f9565b1161439057906143878b9493926141648a846134f9565b87559638613fbb565b84516329c45f6760e01b81526020818b0181815260119181019190915270756e636c61696d65644d696e744665657360781b604082015281906060010390fd5b9097506143ec915060803d6080116112d4576112c08183610a26565b509150909638614364565b88516329c45f6760e01b81526020818a01818152600691810191909152651d185c19525960d21b604082015281906060010390fd5b915050614451915060603d606011614458575b6144498183610a26565b810190613d6a565b9138613f5b565b503d61443f565b6144779060203d60201161068a5761067c8183610a26565b5038613f08565b6040516329c45f6760e01b8152602060048201526011602482015270185b1c9958591e481d985b1a59185d1959607a1b6044820152606490fd5b916144d590610b5894928452606060208501526060840190610e6a565b916040818403910152610e6a565b600554600080600555816144f5575050565b60016001600160ff1b0383168303612317576005600052600080516020615c198339815191529260011b8301925b8381106145305750505050565b808360029255838382015501614523565b600554600160401b81101561055c576001810180600555811015612c2d5760207f036b6384b5eca791c62761152d0c79bb0604c104a5fb6f4eb0703f3154bb3db191600560005260011b92805184600080516020615c1983398151915201550151910155565b8054600160401b81101561055c576145c491600182018155612e38565b9190916145db576020816001925184550151910155565b634e487b7160e01b600052600060045260246000fd5b6001600160a01b038116929091908315612d1a5761462c60405192600184526020840152604083019160018352606084015260808301604052565b9190604094600060405161463f81610a0b565b5281518451908181036133f657505060005b82518110156146e7578060051b60208082860101519187010151614683866106d3846000526000602052604060002090565b548181106146b157866106d360019594936146aa9303936000526000602052604060002090565b5501614651565b89516303dee4c560e01b81526001600160a01b038816600482015260248101919091526044810182905260648101839052608490fd5b5094506000939291506001815114841461473e5760209081015191810151604080519384529183015233917fc3d58168c5ae7397731d063d5bbf3d657854427343f4c083240f7aacaa2d0f6291819081015b0390a4565b60405133927f4a39dc06d4c0dbc64b70af90fd698a233a518aa5d07e595d983b8c0526c8f7fb92829161473991836158fc565b60209081818403126102f7578051906001600160401b0382116102f757019180601f840112156102f75782516147a681610a74565b936147b46040519586610a26565b818552838086019260051b8201019283116102f7578301905b8282106147db575050505090565b815181529083019083016147cd565b60209081818403126102f7578051906001600160401b0382116102f757019180601f840112156102f757825161481f81610a74565b9361482d6040519586610a26565b818552838086019260051b8201019283116102f7578301905b828210614854575050505090565b81518152908301908301614846565b93919361487a81600052600e602052604060002090565b90601282016148898154611bf5565b61489557505050929190565b91946000969496939193948686926148df886148c16105de6105de600f8497015460018060a01b031690565b976040988951808095819463dddf33e160e01b835260048301613547565b03915afa908115610691578991614cd4575b508051879015614c765750614947600e8b01918a61491b6105de6105de865460018060a01b031690565b82518b516322cc0efb60e01b815260048101889052602481019190915293849190829081906044820190565b03915afa908115610691578994614965938d93614c51575b5061550c565b9081614bd5575b5050505b6010880180546001600160a01b0395918a9187168015614bc15793838a9593896149f96149eb614a29968a986149dc6140726149cc6149b08b899f6134f9565b6001600160a01b03909416600090815260106020526040902090565b88546001600160a01b0316611703565b9055546001600160a01b031690565b92546001600160a01b031690565b9116958691169687928c5180600080516020615c5983398151915297889382919060206040840193600481520152565b0390a480614ba5575b50505050505b6011870180546001600160a01b03168881861615614b8d579383614aa0899694614add946149dc6140728a98611703614a92614a768f9d8b906134f9565b6001600160a01b03909616600090815260106020526040902090565b91546001600160a01b031690565b8b5486906001600160a01b03169116958691169687928a5180600080516020615c5983398151915297889382919060206040840193600581520152565b0390a480614b71575b50505050505b83614b02575b5050505050600090600090600090565b600d54600080516020615c598339815191529290614b3c90614b2c906001600160a01b03166116dd565b87546001600160a01b0316611703565b614b478682546134f9565b9055600d54614b649083906140a1906001600160a01b0316614093565b0390a43880808080614af2565b8651600281526020810191909152604090a43880848180614ae6565b505050614b9f929591612986916134f9565b92614aec565b8851600281526020810191909152604090a43880868180614a32565b505050614bcf9297506134f9565b94614a38565b54614c12955091925090614bf3906105de906001600160a01b031681565b8251808096819463cf54ee1d60e01b8352600483019190602083019252565b03915afa80156106915786928791614c2e575b5084388061496c565b9050614c48919250843d8611611323576113088183610a26565b91909138614c25565b614c6f9193508d3d8091833e614c678183610a26565b8101906147ea565b913861495f565b600e8b0154614c989650909350614bf391506105de906001600160a01b031681565b03915afa80156106915786928791614cb1575b50614970565b9050614ccb919250843d8611611323576113088183610a26565b91909138614cab565b614cf091503d808b833e614ce88183610a26565b810190614771565b386148f1565b600093828552600e60205260406001818720015415615156576000848152600e602052604090206001600160a01b039384169190600954614d41906105de906001600160a01b031681565b928251976323ba203560e21b895283896004968180614d6388878c84016135a2565b03915afa958615610691578a998b97615131575b508a908b908c8c8192158015615128575b8015615110575b615066575b8261127583611275876112758a614daa976134f9565b9d8e6150565787548c166001600160a01b031615614fdf57614e1f8f6020908b8d858c614de48f6105de6105de915460018060a01b031690565b93516323b872dd60e01b81526001600160a01b0390911692810192835230602084015260408301949094529294859384929091839160600190565b03925af19182156106915791614fc0575b5015614fb057908b949392915b60028801809e815490614e4f916134f9565b90556003880199858b5490614e63916134f9565b8b55600b890186815490614e76916134f9565b905588019a8b55614e879286614863565b91614e91916134f9565b6006870190815490614ea2916134f9565b9055600a860190815490614eb5916134f9565b9055600d546001600160a01b03908116600090815260106020908152604080832089549094168352929052208054614eee9083906134f9565b9055600d54855487516000815260208101939093528a166001600160a01b0390811692918b1616908490600080516020615c5983398151915290604090a4614f34612f19565b614f40908284866157bb565b8451908152602081018b90527f5bd6f821d5961785d719543640cf62d3770f94e59db1a2f3c2250d72b122dddf90604090a354925491549554905191825260208201959095526040810194909452166001600160a01b031691600080516020615c3983398151915290606090a390565b875163f570efeb60e01b81528990fd5b614fd9915060203d60201161068a5761067c8183610a26565b38614e30565b9e9b989d9a979c99969594939291908b3410600014615008578d5163bd9c85bb60e01b81528f90fd5b899c9f8c9f9a9697989b9e999c803411615024575b5050614e3d565b818093949596979850615038819234612f0c565b8a5af1615043612f2c565b5015614fb057908b94939291388f61501d565b8851636bdbc20960e11b81528a90fd5b600e8801546150b395506080945090925061508c91506105de906001600160a01b031681565b87516370f986fd60e01b815289810186815260208101939093529384928391829160400190565b03915afa90811561069157611275611275918c938e8091819082906150e2575b92969095509193509150614d94565b50505050614daa6151046112759260803d6080116112d4576112c08183610a26565b929450849350916150d3565b50600161511e818a01612e23565b5001541515614d8f565b50801515614d88565b90965061514c919950843d8611611323576113088183610a26565b9890989538614d77565b51631d8ce09b60e31b8152600490fd5b600f54600160401b81101561055c576001810180600f55811015612c2d57600f600052600080516020615c798339815191520155565b9092919260019460016151b984600052600e602052604060002090565b0154156151c9575b505050505050565b85916152236151e285600052600e602052604060002090565b600754600e820180546001600160a01b0319166001600160a01b039092169190911790559283546001600160a01b0319166001600160a01b03909116178355565b600854600f830180546001600160a01b0319166001600160a01b03909216919091179055600160009201965b6152c3575b5050508261526182615166565b61526d575b80806151c1565b600284541080156152ad575b61529b5761528961529194612e23565b505491614cf6565b5038808080615266565b60405163083487a760e21b8152600490fd5b5060016152b985612e23565b5001541515615279565b805182101561530a5782826153036152dc839585613345565b51516020806152eb8588613345565b510151906152f7610a67565b9283528201528a6145a7565b019161524f565b615254565b9491909181518451908181036133f657505060005b825181101561541257600581901b83810160209081015191870101516001600160a01b03929186908a851661538c575b6001948216615367575b50505001615324565b615382916106d3614072926000526000602052604060002090565b905538858161535e565b91929390506153a98a6106d3846000526000602052604060002090565b548381106153db57918791846001969594036153d38d6106d3856000526000602052604060002090565b559450615354565b6040516303dee4c560e01b81526001600160a01b038c16600482015260248101919091526044810184905260648101839052608490fd5b5094919392909360018551146000146154b2576020858101518382015160408051928352928201526001600160a01b03838116929086169133917fc3d58168c5ae7397731d063d5bbf3d657854427343f4c083240f7aacaa2d0f6291a45b6001600160a01b038116615485575050505050565b84516001036154a1576020806138779601519201519233615be1565b6154ad94919233615aae565b613877565b6040516001600160a01b03828116919085169033907f4a39dc06d4c0dbc64b70af90fd698a233a518aa5d07e595d983b8c0526c8f7fb90806154f5888c836158fc565b0390a4615470565b60001981146123175760010190565b91600091835b61551d575b50505090565b82815111156157b65782825111156157b6576155398382613345565b51936155458484613345565b519461555b81600052600e602052604060002090565b906155696012830154611bf5565b1561579757600e8201546155b4939291600091615590906105de906001600160a01b031681565b6040998a918251808099819463cf54ee1d60e01b8352600483019190602083019252565b03915afa988915610691576156fa996156f29684908592615777575b506010860180546001600160a01b039391908416801561576c576001600160a01b03166000908152601060205260409020615625919061561a908a546001600160a01b0316611703565b6149dc8482546134f9565b9085600080516020615c59833981519152856156478b5460018060a01b031690565b88516002815260208101959095528116941692604090a45b6011860180546001600160a01b03168084161561575a576001600160a01b0316600090815260106020526040902061569b919061561a90614062565b9084600080516020615c59833981519152846156bd8a5460018060a01b031690565b87516002815260208101959095528116941692604090a45b83615700575b50505050505b6156eb8585613345565b5190612f0c565b9384936154fd565b92615512565b600080516020615c598339815191529161574d826140a1614093600d6157426157326116dd835460018060a01b031690565b8c546001600160a01b0316611703565b6149dc8b82546134f9565b0390a438808080806156db565b505061576691946134f9565b926156d5565b50509094509361565f565b90506157909150823d8411611323576113088183610a26565b90386155d0565b50906156fa956157af60096156f294019182546134f9565b90556156e1565b615517565b6001600160a01b03811693929091908415612d32576157f760405192600184526020840152604083019160018352606084015260808301604052565b9281518451908181036133f657505060005b8251811015615849578060019160051b615841614072876106d3602080868b010151958c010151946000526000602052604060002090565b905501615809565b5092919360018251146000146158c05760208281015184820151604080519283529282015260009133917fc3d58168c5ae7397731d063d5bbf3d657854427343f4c083240f7aacaa2d0f629190a45b80516001036158b65790602080610309959301519101519133615bac565b61030993336159b3565b60006040517f4a39dc06d4c0dbc64b70af90fd698a233a518aa5d07e595d983b8c0526c8f7fb3391806158f48888836158fc565b0390a4615898565b9091615913610b5893604084526040840190610e6a565b916020818403910152610e6a565b908160209103126102f75751610b5881610384565b92615965610b5895936159739360018060a01b031686526000602087015260a0604087015260a0860190610e6a565b908482036060860152610e6a565b91608081840391015261085a565b9390610b589593615965916159739460018060a01b03809216885216602087015260a0604087015260a0860190610e6a565b9293919093843b6159c5575050505050565b6020916159e8604051948593849363bc197c8160e01b9889865260048601615936565b038160006001600160a01b0388165af160009181615a7d575b50615a405782615a0f612f2c565b8051919082615a3957604051632bfa23e760e11b81526001600160a01b0383166004820152602490fd5b9050602001fd5b6001600160e01b03191603615a5a57503880808080611c5e565b604051632bfa23e760e11b81526001600160a01b03919091166004820152602490fd5b615aa091925060203d602011615aa7575b615a988183610a26565b810190615921565b9038615a01565b503d615a8e565b939290949194853b615ac257505050505050565b615ae5602093604051958694859463bc197c8160e01b998a875260048701615981565b038160006001600160a01b0388165af160009181615b27575b50615b0c5782615a0f612f2c565b6001600160e01b03191603615a5a57503880808080806151c1565b615b4191925060203d602011615aa757615a988183610a26565b9038615afe565b909260a092610b589594600180861b031683526000602084015260408301526060820152816080820152019061085a565b9192610b5895949160a094600180871b03809216855216602084015260408301526060820152816080820152019061085a565b9293919093843b615bbe575050505050565b6020916159e8604051948593849363f23a6e6160e01b9889865260048601615b48565b939290949194853b615bf557505050505050565b615ae5602093604051958694859463f23a6e6160e01b998a875260048701615b7956fe036b6384b5eca791c62761152d0c79bb0604c104a5fb6f4eb0703f3154bb3db02e67857c5e095aa37c99fc8a2a3d065e50197554891c3cf1f318b1996b66469c4b984622ccd95d46d58ee4b4ec121acbc6f1d9de4a5997f2013e0daf02c101048d1108e10bcb7c27dddfc02ed9d693a074039d026cf4ea4240b40f7d581ac802a2646970667358221220e12d2cb2d4497d47a5150f4e035386a9260fbecce91d9609a1bf1b84c142e5e164736f6c63430008180033","linkReferences":{}},"methodIdentifiers":{"accounts(address,address)":"ad74b775","balanceOf(address,uint256)":"00fdd58e","balanceOfBatch(address[],uint256[])":"4e1273f4","bondingCurveSteps(uint256)":"fa1c4db6","buyTapes(bytes32,uint256,uint256)":"9165f843","changeTapeModel(bytes32,address)":"5db8076c","consumeTapes(bytes32,uint256)":"b495bbb0","currencyTokenAddress()":"d3c3b389","dappAddresses(address)":"787ca438","exists(bytes32)":"38a699a4","feeModelAddress()":"3ab03c8b","getCurrentBuyPrice(bytes32,uint256)":"724969e7","getCurrentConsumePrice(bytes32,uint256)":"bbfef088","getCurrentSellPrice(bytes32,uint256)":"b16cae66","getTapeData(bytes32)":"796aea77","isApprovedForAll(address,address)":"e985e9c5","maxSupply()":"d5abeb01","maxTapeSupply(bytes32)":"9ba01fbe","owner()":"8da5cb5b","renounceOwnership()":"715018a6","safeBatchTransferFrom(address,address,uint256[],uint256[],bytes)":"2eb2c2d6","safeTransferFrom(address,address,uint256,uint256,bytes)":"f242432a","sellTapes(bytes32,uint256,uint256)":"828ef8d9","setApprovalForAll(address,bool)":"a22cb465","setDapp(address,bool)":"8d3b5235","setTapeParams(bytes32)":"e5a41243","setTapeParamsCustom(bytes32,uint256[],uint256[],bool,address,address)":"e75b37dd","setURI(string)":"02fe5305","supportsInterface(bytes4)":"01ffc9a7","tapeBondUtilsAddress()":"fabe3824","tapeBondingCurveModelAddress()":"3b6e02af","tapeBonds(bytes32)":"8f8b185b","tapeBondsCreated(uint256)":"eb596d01","tapeModelAddress()":"6a386ed2","tapeOwnershipModelAddress()":"22f046b5","tapesCount()":"7fb90ea6","totalTapes()":"c5b67e81","transferOwnership(address)":"f2fde38b","updateBondingCurveParams(address,address,address,address,address,uint256,uint256[],uint256[])":"3ff72137","updateProtocolWallet(address)":"e308a099","uri(bytes32)":"9ed19ddb","uri(uint256)":"0e89341c","validateTape(address,bytes32,bytes,((uint64,uint64,bytes32,bytes32,bytes32,bytes32,bytes32[],bytes32[]),bytes))":"07974110","validateTapeCustom(address,bytes32,bytes,((uint64,uint64,bytes32,bytes32,bytes32,bytes32,bytes32[],bytes32[]),bytes),uint256[],uint256[],bool,address,address)":"451eb821","withdrawBalance(address,uint256)":"0cf20cc9"},"id":83}