{"abi":[{"type":"constructor","inputs":[{"name":"newProtocolWallet","type":"address","internalType":"address"},{"name":"maxSteps","type":"uint256","internalType":"uint256"},{"name":"newCurrencyToken","type":"address","internalType":"address"},{"name":"newFeeModel","type":"address","internalType":"address"},{"name":"newTapeModel","type":"address","internalType":"address"},{"name":"newTapeBondUtilsAddress","type":"address","internalType":"address"},{"name":"newTapeOwnershipAddress","type":"address","internalType":"address"},{"name":"newMaxSupply","type":"uint128","internalType":"uint128"},{"name":"stepRangesMax","type":"uint128[]","internalType":"uint128[]"},{"name":"stepCoefficients","type":"uint128[]","internalType":"uint128[]"}],"stateMutability":"nonpayable"},{"type":"function","name":"accounts","inputs":[{"name":"","type":"address","internalType":"address"},{"name":"","type":"address","internalType":"address"}],"outputs":[{"name":"","type":"uint256","internalType":"uint256"}],"stateMutability":"view"},{"type":"function","name":"addDapp","inputs":[{"name":"dapp","type":"address","internalType":"address"}],"outputs":[],"stateMutability":"nonpayable"},{"type":"function","name":"balanceOf","inputs":[{"name":"account","type":"address","internalType":"address"},{"name":"id","type":"uint256","internalType":"uint256"}],"outputs":[{"name":"","type":"uint256","internalType":"uint256"}],"stateMutability":"view"},{"type":"function","name":"balanceOfBatch","inputs":[{"name":"accounts","type":"address[]","internalType":"address[]"},{"name":"ids","type":"uint256[]","internalType":"uint256[]"}],"outputs":[{"name":"","type":"uint256[]","internalType":"uint256[]"}],"stateMutability":"view"},{"type":"function","name":"bondingCurveSteps","inputs":[{"name":"","type":"uint256","internalType":"uint256"}],"outputs":[{"name":"rangeMax","type":"uint128","internalType":"uint128"},{"name":"coefficient","type":"uint128","internalType":"uint128"}],"stateMutability":"view"},{"type":"function","name":"buyTapes","inputs":[{"name":"tapeId","type":"bytes32","internalType":"bytes32"},{"name":"tapesToMint","type":"uint256","internalType":"uint256"},{"name":"maxCurrencyPrice","type":"uint256","internalType":"uint256"}],"outputs":[{"name":"currencyCost","type":"uint256","internalType":"uint256"}],"stateMutability":"payable"},{"type":"function","name":"changeTapeModel","inputs":[{"name":"tapeId","type":"bytes32","internalType":"bytes32"},{"name":"newTapeModel","type":"address","internalType":"address"}],"outputs":[],"stateMutability":"nonpayable"},{"type":"function","name":"consumeTapes","inputs":[{"name":"tapeId","type":"bytes32","internalType":"bytes32"},{"name":"tapesToConsume","type":"uint256","internalType":"uint256"}],"outputs":[{"name":"","type":"uint256","internalType":"uint256"}],"stateMutability":"nonpayable"},{"type":"function","name":"currencyTokenAddress","inputs":[],"outputs":[{"name":"","type":"address","internalType":"address"}],"stateMutability":"view"},{"type":"function","name":"dappAddresses","inputs":[{"name":"","type":"uint256","internalType":"uint256"}],"outputs":[{"name":"","type":"address","internalType":"address"}],"stateMutability":"view"},{"type":"function","name":"exists","inputs":[{"name":"tapeId","type":"bytes32","internalType":"bytes32"}],"outputs":[{"name":"","type":"bool","internalType":"bool"}],"stateMutability":"view"},{"type":"function","name":"feeModelAddress","inputs":[],"outputs":[{"name":"","type":"address","internalType":"address"}],"stateMutability":"view"},{"type":"function","name":"getCurrentBuyPrice","inputs":[{"name":"tapeId","type":"bytes32","internalType":"bytes32"},{"name":"tokensToMint","type":"uint256","internalType":"uint256"}],"outputs":[{"name":"","type":"uint256","internalType":"uint256"},{"name":"","type":"uint256","internalType":"uint256"},{"name":"","type":"uint256","internalType":"uint256"}],"stateMutability":"view"},{"type":"function","name":"getCurrentConsumePrice","inputs":[{"name":"tapeId","type":"bytes32","internalType":"bytes32"},{"name":"tokensToConsume","type":"uint256","internalType":"uint256"}],"outputs":[{"name":"","type":"uint256","internalType":"uint256"},{"name":"","type":"uint256","internalType":"uint256"}],"stateMutability":"view"},{"type":"function","name":"getCurrentSellPrice","inputs":[{"name":"tapeId","type":"bytes32","internalType":"bytes32"},{"name":"tokensToBurn","type":"uint256","internalType":"uint256"}],"outputs":[{"name":"","type":"uint256","internalType":"uint256"},{"name":"","type":"uint256","internalType":"uint256"},{"name":"","type":"uint256","internalType":"uint256"}],"stateMutability":"view"},{"type":"function","name":"getTapeData","inputs":[{"name":"tapeId","type":"bytes32","internalType":"bytes32"}],"outputs":[{"name":"","type":"bytes32","internalType":"bytes32"},{"name":"","type":"bytes32","internalType":"bytes32"},{"name":"","type":"int256","internalType":"int256"},{"name":"","type":"bytes32","internalType":"bytes32"},{"name":"","type":"int256","internalType":"int256"},{"name":"","type":"bytes32","internalType":"bytes32"},{"name":"","type":"int256","internalType":"int256"}],"stateMutability":"view"},{"type":"function","name":"isApprovedForAll","inputs":[{"name":"account","type":"address","internalType":"address"},{"name":"operator","type":"address","internalType":"address"}],"outputs":[{"name":"","type":"bool","internalType":"bool"}],"stateMutability":"view"},{"type":"function","name":"maxSupply","inputs":[],"outputs":[{"name":"","type":"uint128","internalType":"uint128"}],"stateMutability":"view"},{"type":"function","name":"maxTapeSupply","inputs":[{"name":"tapeId","type":"bytes32","internalType":"bytes32"}],"outputs":[{"name":"","type":"uint128","internalType":"uint128"}],"stateMutability":"view"},{"type":"function","name":"owner","inputs":[],"outputs":[{"name":"","type":"address","internalType":"address"}],"stateMutability":"view"},{"type":"function","name":"renounceOwnership","inputs":[],"outputs":[],"stateMutability":"nonpayable"},{"type":"function","name":"safeBatchTransferFrom","inputs":[{"name":"from","type":"address","internalType":"address"},{"name":"to","type":"address","internalType":"address"},{"name":"ids","type":"uint256[]","internalType":"uint256[]"},{"name":"values","type":"uint256[]","internalType":"uint256[]"},{"name":"data","type":"bytes","internalType":"bytes"}],"outputs":[],"stateMutability":"nonpayable"},{"type":"function","name":"safeTransferFrom","inputs":[{"name":"from","type":"address","internalType":"address"},{"name":"to","type":"address","internalType":"address"},{"name":"id","type":"uint256","internalType":"uint256"},{"name":"value","type":"uint256","internalType":"uint256"},{"name":"data","type":"bytes","internalType":"bytes"}],"outputs":[],"stateMutability":"nonpayable"},{"type":"function","name":"sellTapes","inputs":[{"name":"tapeId","type":"bytes32","internalType":"bytes32"},{"name":"tapesToBurn","type":"uint256","internalType":"uint256"},{"name":"minCurrencyRefund","type":"uint256","internalType":"uint256"}],"outputs":[{"name":"","type":"uint256","internalType":"uint256"}],"stateMutability":"nonpayable"},{"type":"function","name":"setApprovalForAll","inputs":[{"name":"operator","type":"address","internalType":"address"},{"name":"approved","type":"bool","internalType":"bool"}],"outputs":[],"stateMutability":"nonpayable"},{"type":"function","name":"setTapeParams","inputs":[{"name":"tapeId","type":"bytes32","internalType":"bytes32"}],"outputs":[],"stateMutability":"nonpayable"},{"type":"function","name":"setTapeParamsCustom","inputs":[{"name":"tapeId","type":"bytes32","internalType":"bytes32"},{"name":"stepRangesMax","type":"uint128[]","internalType":"uint128[]"},{"name":"stepCoefficients","type":"uint128[]","internalType":"uint128[]"}],"outputs":[],"stateMutability":"nonpayable"},{"type":"function","name":"supportsInterface","inputs":[{"name":"interfaceId","type":"bytes4","internalType":"bytes4"}],"outputs":[{"name":"","type":"bool","internalType":"bool"}],"stateMutability":"view"},{"type":"function","name":"tapeBondUtilsAddress","inputs":[],"outputs":[{"name":"","type":"address","internalType":"address"}],"stateMutability":"view"},{"type":"function","name":"tapeBonds","inputs":[{"name":"","type":"bytes32","internalType":"bytes32"}],"outputs":[{"name":"feeModel","type":"address","internalType":"address"},{"name":"currencyToken","type":"address","internalType":"address"},{"name":"tapeModel","type":"address","internalType":"address"},{"name":"currencyBalance","type":"uint256","internalType":"uint256"},{"name":"currentSupply","type":"uint256","internalType":"uint256"},{"name":"currentPrice","type":"uint256","internalType":"uint256"},{"name":"consumePrice","type":"uint256","internalType":"uint256"},{"name":"unclaimed","type":"tuple","internalType":"struct TapeBondUtils.UnclaimedFees","components":[{"name":"mint","type":"uint256","internalType":"uint256"},{"name":"burn","type":"uint256","internalType":"uint256"},{"name":"consume","type":"uint256","internalType":"uint256"},{"name":"royalties","type":"uint256","internalType":"uint256"},{"name":"undistributedRoyalties","type":"uint256","internalType":"uint256"}]},{"name":"count","type":"tuple","internalType":"struct TapeBondUtils.BondCount","components":[{"name":"minted","type":"uint256","internalType":"uint256"},{"name":"burned","type":"uint256","internalType":"uint256"},{"name":"consumed","type":"uint256","internalType":"uint256"}]},{"name":"cartridgeOwner","type":"address","internalType":"address"},{"name":"tapeCreator","type":"address","internalType":"address"},{"name":"tapeOutputData","type":"bytes","internalType":"bytes"}],"stateMutability":"view"},{"type":"function","name":"tapeBondsCreated","inputs":[{"name":"","type":"uint256","internalType":"uint256"}],"outputs":[{"name":"","type":"bytes32","internalType":"bytes32"}],"stateMutability":"view"},{"type":"function","name":"tapeModelAddress","inputs":[],"outputs":[{"name":"","type":"address","internalType":"address"}],"stateMutability":"view"},{"type":"function","name":"tapeOwnershipAddress","inputs":[],"outputs":[{"name":"","type":"address","internalType":"address"}],"stateMutability":"view"},{"type":"function","name":"tapesCount","inputs":[],"outputs":[{"name":"","type":"uint256","internalType":"uint256"}],"stateMutability":"view"},{"type":"function","name":"totalTapes","inputs":[],"outputs":[{"name":"","type":"uint256","internalType":"uint256"}],"stateMutability":"view"},{"type":"function","name":"transferOwnership","inputs":[{"name":"newOwner","type":"address","internalType":"address"}],"outputs":[],"stateMutability":"nonpayable"},{"type":"function","name":"updateBondingCurveParams","inputs":[{"name":"newCurrencyToken","type":"address","internalType":"address"},{"name":"newFeeModel","type":"address","internalType":"address"},{"name":"newTapeModel","type":"address","internalType":"address"},{"name":"newTapeOwnershipAddress","type":"address","internalType":"address"},{"name":"newMaxSupply","type":"uint128","internalType":"uint128"},{"name":"stepRangesMax","type":"uint128[]","internalType":"uint128[]"},{"name":"stepCoefficients","type":"uint128[]","internalType":"uint128[]"}],"outputs":[],"stateMutability":"nonpayable"},{"type":"function","name":"updateProtocolWallet","inputs":[{"name":"newProtocolWallet","type":"address","internalType":"address"}],"outputs":[],"stateMutability":"nonpayable"},{"type":"function","name":"uri","inputs":[{"name":"","type":"uint256","internalType":"uint256"}],"outputs":[{"name":"","type":"string","internalType":"string"}],"stateMutability":"view"},{"type":"function","name":"validateTape","inputs":[{"name":"dapp","type":"address","internalType":"address"},{"name":"tapeId","type":"bytes32","internalType":"bytes32"},{"name":"_payload","type":"bytes","internalType":"bytes"},{"name":"_v","type":"tuple","internalType":"struct Proof","components":[{"name":"validity","type":"tuple","internalType":"struct OutputValidityProof","components":[{"name":"inputIndexWithinEpoch","type":"uint64","internalType":"uint64"},{"name":"outputIndexWithinInput","type":"uint64","internalType":"uint64"},{"name":"outputHashesRootHash","type":"bytes32","internalType":"bytes32"},{"name":"vouchersEpochRootHash","type":"bytes32","internalType":"bytes32"},{"name":"noticesEpochRootHash","type":"bytes32","internalType":"bytes32"},{"name":"machineStateHash","type":"bytes32","internalType":"bytes32"},{"name":"outputHashInOutputHashesSiblings","type":"bytes32[]","internalType":"bytes32[]"},{"name":"outputHashesInEpochSiblings","type":"bytes32[]","internalType":"bytes32[]"}]},{"name":"context","type":"bytes","internalType":"bytes"}]}],"outputs":[{"name":"","type":"bytes32","internalType":"bytes32"}],"stateMutability":"nonpayable"},{"type":"function","name":"validateTapeCustom","inputs":[{"name":"dapp","type":"address","internalType":"address"},{"name":"tapeId","type":"bytes32","internalType":"bytes32"},{"name":"_payload","type":"bytes","internalType":"bytes"},{"name":"_v","type":"tuple","internalType":"struct Proof","components":[{"name":"validity","type":"tuple","internalType":"struct OutputValidityProof","components":[{"name":"inputIndexWithinEpoch","type":"uint64","internalType":"uint64"},{"name":"outputIndexWithinInput","type":"uint64","internalType":"uint64"},{"name":"outputHashesRootHash","type":"bytes32","internalType":"bytes32"},{"name":"vouchersEpochRootHash","type":"bytes32","internalType":"bytes32"},{"name":"noticesEpochRootHash","type":"bytes32","internalType":"bytes32"},{"name":"machineStateHash","type":"bytes32","internalType":"bytes32"},{"name":"outputHashInOutputHashesSiblings","type":"bytes32[]","internalType":"bytes32[]"},{"name":"outputHashesInEpochSiblings","type":"bytes32[]","internalType":"bytes32[]"}]},{"name":"context","type":"bytes","internalType":"bytes"}]},{"name":"stepRangesMax","type":"uint128[]","internalType":"uint128[]"},{"name":"stepCoefficients","type":"uint128[]","internalType":"uint128[]"}],"outputs":[{"name":"","type":"bytes32","internalType":"bytes32"}],"stateMutability":"nonpayable"},{"type":"function","name":"withdrawBalance","inputs":[{"name":"token","type":"address","internalType":"address"},{"name":"amount","type":"uint256","internalType":"uint256"}],"outputs":[],"stateMutability":"nonpayable"},{"type":"event","name":"ApprovalForAll","inputs":[{"name":"account","type":"address","indexed":true,"internalType":"address"},{"name":"operator","type":"address","indexed":true,"internalType":"address"},{"name":"approved","type":"bool","indexed":false,"internalType":"bool"}],"anonymous":false},{"type":"event","name":"Buy","inputs":[{"name":"tapeId","type":"bytes32","indexed":true,"internalType":"bytes32"},{"name":"user","type":"address","indexed":true,"internalType":"address"},{"name":"amountMinted","type":"uint256","indexed":false,"internalType":"uint256"},{"name":"pricePayed","type":"uint256","indexed":false,"internalType":"uint256"}],"anonymous":false},{"type":"event","name":"Consume","inputs":[{"name":"tapeId","type":"bytes32","indexed":true,"internalType":"bytes32"},{"name":"user","type":"address","indexed":true,"internalType":"address"},{"name":"amountConsumed","type":"uint256","indexed":false,"internalType":"uint256"},{"name":"currencyDonated","type":"uint256","indexed":false,"internalType":"uint256"}],"anonymous":false},{"type":"event","name":"OwnershipTransferred","inputs":[{"name":"previousOwner","type":"address","indexed":true,"internalType":"address"},{"name":"newOwner","type":"address","indexed":true,"internalType":"address"}],"anonymous":false},{"type":"event","name":"Reward","inputs":[{"name":"tapeId","type":"bytes32","indexed":true,"internalType":"bytes32"},{"name":"user","type":"address","indexed":true,"internalType":"address"},{"name":"token","type":"address","indexed":true,"internalType":"address"},{"name":"rewardType","type":"uint8","indexed":false,"internalType":"enum TapeBondUtils.RewardType"},{"name":"amount","type":"uint256","indexed":false,"internalType":"uint256"}],"anonymous":false},{"type":"event","name":"Sell","inputs":[{"name":"tapeId","type":"bytes32","indexed":true,"internalType":"bytes32"},{"name":"user","type":"address","indexed":true,"internalType":"address"},{"name":"amountBurned","type":"uint256","indexed":false,"internalType":"uint256"},{"name":"refundReceived","type":"uint256","indexed":false,"internalType":"uint256"}],"anonymous":false},{"type":"event","name":"Tape","inputs":[{"name":"tapeId","type":"bytes32","indexed":true,"internalType":"bytes32"},{"name":"token","type":"address","indexed":true,"internalType":"address"},{"name":"currentPrice","type":"uint256","indexed":false,"internalType":"uint256"},{"name":"currentSupply","type":"uint256","indexed":false,"internalType":"uint256"},{"name":"currentBalance","type":"uint256","indexed":false,"internalType":"uint256"}],"anonymous":false},{"type":"event","name":"TransferBatch","inputs":[{"name":"operator","type":"address","indexed":true,"internalType":"address"},{"name":"from","type":"address","indexed":true,"internalType":"address"},{"name":"to","type":"address","indexed":true,"internalType":"address"},{"name":"ids","type":"uint256[]","indexed":false,"internalType":"uint256[]"},{"name":"values","type":"uint256[]","indexed":false,"internalType":"uint256[]"}],"anonymous":false},{"type":"event","name":"TransferSingle","inputs":[{"name":"operator","type":"address","indexed":true,"internalType":"address"},{"name":"from","type":"address","indexed":true,"internalType":"address"},{"name":"to","type":"address","indexed":true,"internalType":"address"},{"name":"id","type":"uint256","indexed":false,"internalType":"uint256"},{"name":"value","type":"uint256","indexed":false,"internalType":"uint256"}],"anonymous":false},{"type":"event","name":"URI","inputs":[{"name":"value","type":"string","indexed":false,"internalType":"string"},{"name":"id","type":"uint256","indexed":true,"internalType":"uint256"}],"anonymous":false},{"type":"error","name":"ERC1155InsufficientBalance","inputs":[{"name":"sender","type":"address","internalType":"address"},{"name":"balance","type":"uint256","internalType":"uint256"},{"name":"needed","type":"uint256","internalType":"uint256"},{"name":"tokenId","type":"uint256","internalType":"uint256"}]},{"type":"error","name":"ERC1155InvalidApprover","inputs":[{"name":"approver","type":"address","internalType":"address"}]},{"type":"error","name":"ERC1155InvalidArrayLength","inputs":[{"name":"idsLength","type":"uint256","internalType":"uint256"},{"name":"valuesLength","type":"uint256","internalType":"uint256"}]},{"type":"error","name":"ERC1155InvalidOperator","inputs":[{"name":"operator","type":"address","internalType":"address"}]},{"type":"error","name":"ERC1155InvalidReceiver","inputs":[{"name":"receiver","type":"address","internalType":"address"}]},{"type":"error","name":"ERC1155InvalidSender","inputs":[{"name":"sender","type":"address","internalType":"address"}]},{"type":"error","name":"ERC1155MissingApprovalForAll","inputs":[{"name":"operator","type":"address","internalType":"address"},{"name":"owner","type":"address","internalType":"address"}]},{"type":"error","name":"OwnableInvalidOwner","inputs":[{"name":"owner","type":"address","internalType":"address"}]},{"type":"error","name":"OwnableUnauthorizedAccount","inputs":[{"name":"account","type":"address","internalType":"address"}]},{"type":"error","name":"Tape__ChangeError","inputs":[]},{"type":"error","name":"Tape__InsufficientFunds","inputs":[]},{"type":"error","name":"Tape__InvalidAmount","inputs":[]},{"type":"error","name":"Tape__InvalidDapp","inputs":[]},{"type":"error","name":"Tape__InvalidOwner","inputs":[]},{"type":"error","name":"Tape__InvalidTape","inputs":[{"name":"reason","type":"string","internalType":"string"}]},{"type":"error","name":"Tape__InvalidUser","inputs":[]},{"type":"error","name":"Tape__NotFound","inputs":[]},{"type":"error","name":"Tape__SlippageLimitExceeded","inputs":[]}],"bytecode":{"object":"0x60a06040523480156200001157600080fd5b50604051620069a8380380620069a883398101604081905262000034916200066a565b60408051602081019091526000815233906200005081620000e2565b506001600160a01b0381166200008057604051631e4fbdf760e01b81526000600482015260240160405180910390fd5b6200008b81620000f4565b50600b80546001600160a01b03808d166001600160a01b03199283161790925560808b90526008805492881692909116919091179055620000d28888888787878762000146565b5050505050505050505062000a6c565b6002620000f08282620007f4565b5050565b600380546001600160a01b038381166001600160a01b0319831681179093556040519116919082907f8be0079c531659141344cd1fd0a4f28419497f9722a3daafe3b4186f6b6457e090600090a35050565b60085460405163169f6b0560e11b81526001600160a01b03898116600483015290911690632d3ed60a9060240160006040518083038186803b1580156200018c57600080fd5b505afa158015620001a1573d6000803e3d6000fd5b505060085460405163f610a03960e01b81526001600160a01b038a81166004830152909116925063f610a039915060240160006040518083038186803b158015620001eb57600080fd5b505afa15801562000200573d6000803e3d6000fd5b505060085460405163f8e0044b60e01b81526001600160a01b038981166004830152909116925063f8e0044b915060240160006040518083038186803b1580156200024a57600080fd5b505afa1580156200025f573d6000803e3d6000fd5b50506008546040516379901e6560e11b81526001600160a01b038881166004830152909116925063f3203cca915060240160006040518083038186803b158015620002a957600080fd5b505afa158015620002be573d6000803e3d6000fd5b5050600854608051604051638716824d60e01b81526001600160a01b039092169350638716824d9250620002f9918690869060040162000907565b60006040518083038186803b1580156200031257600080fd5b505afa15801562000327573d6000803e3d6000fd5b50505050600460006200033b9190620004dd565b600854604051633340e6bd60e11b81526000916001600160a01b031690636681cd7a90620003729086908690899060040162000940565b600060405180830381865afa15801562000390573d6000803e3d6000fd5b505050506040513d6000823e601f3d908101601f19168201604052620003ba919081019062000982565b905060005b81518110156200046a5760046040518060400160405280848481518110620003eb57620003eb62000a56565b6020026020010151600001516001600160801b031681526020018484815181106200041a576200041a62000a56565b6020908102919091018101518101516001600160801b03908116909252835460018181018655600095865294829020845194909201518316600160801b02939092169290921791015501620003bf565b5050600580546001600160a01b03199081166001600160a01b03998a161790915560068054821697891697909717909655505060078054851693861693909317909255600980549093169316929092179055600a80546001600160801b0319166001600160801b03909216919091179055565b5080546000825590600052602060002090810190620004fd919062000500565b50565b5b8082111562000517576000815560010162000501565b5090565b80516001600160a01b03811681146200053357600080fd5b919050565b80516001600160801b03811681146200053357600080fd5b634e487b7160e01b600052604160045260246000fd5b604080519081016001600160401b03811182821017156200058b576200058b62000550565b60405290565b604051601f8201601f191681016001600160401b0381118282101715620005bc57620005bc62000550565b604052919050565b60006001600160401b03821115620005e057620005e062000550565b5060051b60200190565b600082601f830112620005fc57600080fd5b81516020620006156200060f83620005c4565b62000591565b8083825260208201915060208460051b8701019350868411156200063857600080fd5b602086015b848110156200065f57620006518162000538565b83529183019183016200063d565b509695505050505050565b6000806000806000806000806000806101408b8d0312156200068b57600080fd5b620006968b6200051b565b995060208b01519850620006ad60408c016200051b565b9750620006bd60608c016200051b565b9650620006cd60808c016200051b565b9550620006dd60a08c016200051b565b9450620006ed60c08c016200051b565b9350620006fd60e08c0162000538565b6101008c01519093506001600160401b03808211156200071c57600080fd5b6200072a8e838f01620005ea565b93506101208d01519150808211156200074257600080fd5b50620007518d828e01620005ea565b9150509295989b9194979a5092959850565b600181811c908216806200077857607f821691505b6020821081036200079957634e487b7160e01b600052602260045260246000fd5b50919050565b601f821115620007ef576000816000526020600020601f850160051c81016020861015620007ca5750805b601f850160051c820191505b81811015620007eb57828155600101620007d6565b5050505b505050565b81516001600160401b0381111562000810576200081062000550565b620008288162000821845462000763565b846200079f565b602080601f831160018114620008605760008415620008475750858301515b600019600386901b1c1916600185901b178555620007eb565b600085815260208120601f198616915b82811015620008915788860151825594840194600190910190840162000870565b5085821015620008b05787850151600019600388901b60f8161c191681555b5050505050600190811b01905550565b60008151808452602080850194506020840160005b83811015620008fc5781516001600160801b031687529582019590820190600101620008d5565b509495945050505050565b838152606060208201526000620009226060830185620008c0565b8281036040840152620009368185620008c0565b9695505050505050565b606081526000620009556060830186620008c0565b8281036020840152620009698186620008c0565b91505060018060801b0383166040830152949350505050565b600060208083850312156200099657600080fd5b82516001600160401b03811115620009ad57600080fd5b8301601f81018513620009bf57600080fd5b8051620009d06200060f82620005c4565b81815260069190911b82018301908381019087831115620009f057600080fd5b928401925b8284101562000a4b576040848903121562000a105760008081fd5b62000a1a62000566565b62000a258562000538565b815262000a3486860162000538565b8187015282526040939093019290840190620009f5565b979650505050505050565b634e487b7160e01b600052603260045260246000fd5b608051615f2062000a8860003960006138710152615f206000f3fe6080604052600436106102505760003560e01c80639165f84311610139578063d3c3b389116100b6578063eb596d011161007a578063eb596d01146107bb578063ecead403146107db578063f242432a146107fb578063f2fde38b1461081b578063fa1c4db61461083b578063fabe38241461087b57600080fd5b8063d3c3b3891461071b578063d5abeb011461073b578063e308a0991461075b578063e5a412431461077b578063e985e9c51461079b57600080fd5b8063b495bbb0116100fd578063b495bbb014610671578063b7f012df14610691578063bbfef088146106b1578063c09902f4146106e6578063c5b67e811461070657600080fd5b80639165f843146105ae5780639ba01fbe146105c1578063a22cb465146105f9578063ad74b77514610619578063b16cae661461065157600080fd5b80634e1273f4116101d2578063752e855d11610196578063752e855d146104ae578063796aea77146104ce5780637fb90ea614610523578063828ef8d9146105385780638da5cb5b146105585780638f8b185b1461057657600080fd5b80634e1273f4146103f15780635db8076c1461041e5780636a386ed21461043e578063715018a61461045e578063724969e71461047357600080fd5b806327b7ca5f1161021957806327b7ca5f146103275780632eb2c2d61461034757806338a699a4146103675780633a18c8d0146103995780633ab03c8b146103b957600080fd5b8062fdd58e1461025557806301ffc9a71461028857806307974110146102b85780630cf20cc9146102d85780630e89341c146102fa575b600080fd5b34801561026157600080fd5b50610275610270366004614a01565b61089b565b6040519081526020015b60405180910390f35b34801561029457600080fd5b506102a86102a3366004614a43565b6108c3565b604051901515815260200161027f565b3480156102c457600080fd5b506102756102d3366004614aba565b610913565b3480156102e457600080fd5b506102f86102f3366004614a01565b610935565b005b34801561030657600080fd5b5061031a610315366004614b3f565b610b2e565b60405161027f9190614b9e565b34801561033357600080fd5b506102f8610342366004614bb1565b610bc2565b34801561035357600080fd5b506102f8610362366004614d3d565b610c8b565b34801561037357600080fd5b506102a8610382366004614b3f565b6000908152600c6020526040902060030154151590565b3480156103a557600080fd5b506102f86103b4366004614e5a565b610cf7565b3480156103c557600080fd5b506006546103d9906001600160a01b031681565b6040516001600160a01b03909116815260200161027f565b3480156103fd57600080fd5b5061041161040c366004614ec6565b610e1f565b60405161027f9190614fc3565b34801561042a57600080fd5b506102f8610439366004614fd6565b610eeb565b34801561044a57600080fd5b506007546103d9906001600160a01b031681565b34801561046a57600080fd5b506102f8611018565b34801561047f57600080fd5b5061049361048e366004615006565b61102c565b6040805193845260208401929092529082015260600161027f565b3480156104ba57600080fd5b506102f86104c9366004615028565b6113b0565b3480156104da57600080fd5b506104ee6104e9366004614b3f565b6113d0565b604080519788526020880196909652948601939093526060850191909152608084015260a083015260c082015260e00161027f565b34801561052f57600080fd5b50600d54610275565b34801561054457600080fd5b506102756105533660046150e8565b6114dc565b34801561056457600080fd5b506003546001600160a01b03166103d9565b34801561058257600080fd5b50610596610591366004614b3f565b611a18565b60405161027f9c9b9a99989796959493929190615114565b6102756105bc3660046150e8565b611b69565b3480156105cd57600080fd5b506105e16105dc366004614b3f565b612029565b6040516001600160801b03909116815260200161027f565b34801561060557600080fd5b506102f86106143660046151ea565b612073565b34801561062557600080fd5b50610275610634366004615218565b600e60209081526000928352604080842090915290825290205481565b34801561065d57600080fd5b5061049361066c366004615006565b612082565b34801561067d57600080fd5b5061027561068c366004615006565b6123f2565b34801561069d57600080fd5b506102756106ac366004615246565b612723565b3480156106bd57600080fd5b506106d16106cc366004615006565b612749565b6040805192835260208301919091520161027f565b3480156106f257600080fd5b506009546103d9906001600160a01b031681565b34801561071257600080fd5b50610275612a0f565b34801561072757600080fd5b506005546103d9906001600160a01b031681565b34801561074757600080fd5b50600a546105e1906001600160801b031681565b34801561076757600080fd5b506102f8610776366004614bb1565b612aae565b34801561078757600080fd5b506102f8610796366004614b3f565b612b04565b3480156107a757600080fd5b506102a86107b6366004615218565b612c0c565b3480156107c757600080fd5b506102756107d6366004614b3f565b612c3a565b3480156107e757600080fd5b506103d96107f6366004614b3f565b612c5b565b34801561080757600080fd5b506102f86108163660046152f6565b612c85565b34801561082757600080fd5b506102f8610836366004614bb1565b612ce4565b34801561084757600080fd5b5061085b610856366004614b3f565b612d22565b604080516001600160801b0393841681529290911660208301520161027f565b34801561088757600080fd5b506008546103d9906001600160a01b031681565b6000818152602081815260408083206001600160a01b03861684529091529020545b92915050565b60006001600160e01b03198216636cdb3d1360e11b14806108f457506001600160e01b031982166303a24d0760e21b145b806108bd57506301ffc9a760e01b6001600160e01b03198316146108bd565b600061091e85612b04565b61092b8686868686612d57565b9695505050505050565b336000818152600e602090815260408083206001600160a01b03871684529091529020548211156109795760405163087d07a960e31b815260040160405180910390fd5b6001600160a01b038082166000908152600e60209081526040808320938716835292905290812080548492906109b0908490615374565b90915550506001600160a01b03831615610ab55760405163095ea7b360e01b8152306004820152602481018390526001600160a01b0384169063095ea7b3906044016020604051808303816000875af1158015610a11573d6000803e3d6000fd5b505050506040513d601f19601f82011682018060405250810190610a359190615387565b506040516323b872dd60e01b81523060048201526001600160a01b038281166024830152604482018490528416906323b872dd906064016020604051808303816000875af1158015610a8b573d6000803e3d6000fd5b505050506040513d601f19601f82011682018060405250810190610aaf9190615387565b50505050565b6000816001600160a01b03168360405160006040518083038185875af1925050503d8060008114610b02576040519150601f19603f3d011682016040523d82523d6000602084013e610b07565b606091505b5050905080610aaf5760405163f570efeb60e01b815260040160405180910390fd5b505050565b606060028054610b3d906153a4565b80601f0160208091040260200160405190810160405280929190818152602001828054610b69906153a4565b8015610bb65780601f10610b8b57610100808354040283529160200191610bb6565b820191906000526020600020905b815481529060010190602001808311610b9957829003601f168201915b50505050509050919050565b610bca613444565b60005b600f54811015610c1657816001600160a01b0316600f8281548110610bf457610bf46153d8565b6000918252602090912001546001600160a01b031614610c1657600101610bcd565b600f548114610c3857604051631c3265c360e31b815260040160405180910390fd5b50600f80546001810182556000919091527f8d1108e10bcb7c27dddfc02ed9d693a074039d026cf4ea4240b40f7d581ac8020180546001600160a01b0319166001600160a01b0392909216919091179055565b336001600160a01b0386168114801590610cac5750610caa8682612c0c565b155b15610ce25760405163711bec9160e11b81526001600160a01b038083166004830152871660248201526044015b60405180910390fd5b610cef8686868686613471565b505050505050565b60095460405163273bed1d60e21b81523360048201526024810185905284916001600160a01b031690639cefb47490604401602060405180830381865afa158015610d46573d6000803e3d6000fd5b505050506040513d601f19601f82011682018060405250810190610d6a9190615387565b610d87576040516313bb0a7760e11b815260040160405180910390fd5b600854600a54604051633340e6bd60e11b81526000926001600160a01b031691636681cd7a91610dc791889188916001600160801b031690600401615428565b600060405180830381865afa158015610de4573d6000803e3d6000fd5b505050506040513d6000823e601f3d908101601f19168201604052610e0c9190810190615467565b9050610e1885826134d1565b5050505050565b60608151835114610e505781518351604051635b05999160e01b815260048101929092526024820152604401610cd9565b600083516001600160401b03811115610e6b57610e6b614bce565b604051908082528060200260200182016040528015610e94578160200160208202803683370190505b50905060005b8451811015610ee357602080820286010151610ebe9060208084028701015161089b565b828281518110610ed057610ed06153d8565b6020908102919091010152600101610e9a565b509392505050565b610ef3613444565b6000828152600c60205260408120600301549003610f2457604051631d8ce09b60e31b815260040160405180910390fd5b6000828152600c602052604081206012018054610f40906153a4565b90501115610f8a576040516329c45f6760e01b815260206004820152601660248201527515185c1948185b1c9958591e481d985b1a59185d195960521b6044820152606401610cd9565b60085460405163f8e0044b60e01b81526001600160a01b0383811660048301529091169063f8e0044b9060240160006040518083038186803b158015610fcf57600080fd5b505afa158015610fe3573d6000803e3d6000fd5b505050600092835250600c602052604090912060020180546001600160a01b0319166001600160a01b03909216919091179055565b611020613444565b61102a6000613683565b565b6000828152600c602052604081206003015481908190810361106157604051631d8ce09b60e31b815260040160405180910390fd5b6000858152600c6020908152604080832081516101a08101835281546001600160a01b039081168252600183015481168286015260028301541681840152600382018054845181870281018701909552808552919492936060860193909290879084015b8282101561110e57600084815260209081902060408051808201909152908401546001600160801b038082168352600160801b90910416818301528252600190920191016110c5565b505050908252506004820154602080830191909152600583015460408084019190915260068401546060808501919091526007850154608080860191909152825160a0818101855260088801548252600988015482870152600a88015482860152600b88015482850152600c880154928201929092529085015281519081018252600d8501548152600e85015492810192909252600f8401549082015260c082015260108201546001600160a01b0390811660e0830152601183015416610100820152601282018054610120909201916111e7906153a4565b80601f0160208091040260200160405190810160405280929190818152602001828054611213906153a4565b80156112605780601f1061123557610100808354040283529160200191611260565b820191906000526020600020905b81548152906001019060200180831161124357829003601f168201915b505050919092525050600854604051633a07901f60e11b81529293506000928392506001600160a01b039091169063740f203e906112a4908a908790600401615578565b6040805180830381865afa1580156112c0573d6000803e3d6000fd5b505050506040513d601f19601f820116820180604052508101906112e491906156b9565b84516040516370f986fd60e01b8152600481018b9052602481018490529294509092506000918291829182916001600160a01b0316906370f986fd90604401608060405180830381865afa158015611340573d6000803e3d6000fd5b505050506040513d601f19601f8201168201806040525081019061136491906156dd565b935093509350935060008183858761137c9190615713565b6113869190615713565b6113909190615713565b905061139c8188615713565b9a5098509396505050505050509250925092565b6113b8613444565b6113c7878787878787876136d5565b50505050505050565b6000806000806000806000600c600089815260200190815260200160002060120180546113fc906153a4565b905060000361143f576040516329c45f6760e01b815260206004820152600e60248201526d746170654f75747075744461746160901b6044820152606401610cd9565b6000888152600c6020526040908190206002810154915163c827650360e01b81526001600160a01b039092169163c827650391611484916012909101906004016157a3565b60e060405180830381865afa1580156114a1573d6000803e3d6000fd5b505050506040513d601f19601f820116820180604052508101906114c591906157b6565b959e949d50929b5090995097509550909350915050565b6000838152600c60205260408120600301548490820361150f57604051631d8ce09b60e31b815260040160405180910390fd5b6000336000878152600c60205260408082206008549151630d21bdc960e31b81529394509282916001600160a01b03169063690dee4890611556908b908790600401615853565b6040805180830381865afa158015611572573d6000803e3d6000fd5b505050506040513d601f19601f8201168201806040525081019061159691906156b9565b845460405163f5b0402760e01b8152600481018c9052602481018490529294509092506000918291829182916001600160a01b03169063f5b0402790604401608060405180830381865afa1580156115f2573d6000803e3d6000fd5b505050506040513d601f19601f8201168201806040525081019061161691906156dd565b935093509350935060008183858761162e9190615713565b6116389190615713565b6116429190615713565b61164c9088615374565b90508b81101561166f57604051636bdbc20960e11b815260040160405180910390fd5b61167a898f8f613a79565b8688600401600082825461168e9190615374565b925050819055508c8860050160008282546116a99190615374565b9091555050600e880180548e91906000906116c5908490615713565b9091555050600688018690556116dd8e858585613ae1565b919550935091506116ee8484615713565b600989018054600090611702908490615713565b9091555050600c8801805483919060009061171e908490615713565b9091555050600b546001600160a01b039081166000908152600e6020908152604080832060018d015490941683529290529081208054879290611762908490615713565b925050819055508760010160009054906101000a90046001600160a01b03166001600160a01b0316600b60009054906101000a90046001600160a01b03166001600160a01b03168f600080516020615ecb8339815191526000896040516117ca92919061598a565b60405180910390a460018801546001600160a01b0316156118e257600188015460405163095ea7b360e01b8152306004820152602481018390526001600160a01b039091169063095ea7b3906044016020604051808303816000875af1158015611838573d6000803e3d6000fd5b505050506040513d601f19601f8201168201806040525081019061185c9190615387565b5060018801546040516323b872dd60e01b81523060048201526001600160a01b038b8116602483015260448201849052909116906323b872dd906064016020604051808303816000875af11580156118b8573d6000803e3d6000fd5b505050506040513d601f19601f820116820180604052508101906118dc9190615387565b50611958565b6000896001600160a01b03168260405160006040518083038185875af1925050503d806000811461192f576040519150601f19603f3d011682016040523d82523d6000602084013e611934565b606091505b50509050806119565760405163f570efeb60e01b815260040160405180910390fd5b505b886001600160a01b03168e7f47d38b8b50e4b792e507faad951cda2457545e704f667a3e32f22541945ebbf68f8460405161199d929190918252602082015260400190565b60405180910390a36001880154600689015460058a015460048b0154604080519384526020840192909252908201526001600160a01b03909116908f907f3bd4389be4c8211c8a69cd4eb5441db1c62f3398dd46eae7efa04cfea120b93b9060600160405180910390a39d9c50505050505050505050505050565b600c6020818152600092835260409283902080546001820154600283015460048401546005850154600686015460078701548a5160a081018c52600889015481526009890154818b0152600a890154818d0152600b8901546060808301919091529a89015460808201528b519a8b018c52600d8901548b52600e890154998b0199909952600f8801549a8a019a909a52601087015460118801546012890180546001600160a01b03998a169d988a169c978a169b969a959994989795938516949092169291611ae6906153a4565b80601f0160208091040260200160405190810160405280929190818152602001828054611b12906153a4565b8015611b5f5780601f10611b3457610100808354040283529160200191611b5f565b820191906000526020600020905b815481529060010190602001808311611b4257829003601f168201915b505050505090508c565b6000838152600c602052604081206003015484908203611b9c57604051631d8ce09b60e31b815260040160405180910390fd5b6000336000878152600c60205260408082206008549151633a07901f60e11b81529394509282916001600160a01b03169063740f203e90611be3908b908790600401615853565b6040805180830381865afa158015611bff573d6000803e3d6000fd5b505050506040513d601f19601f82011682018060405250810190611c2391906156b9565b9150915060008060008086600301600081548110611c4357611c436153d8565b600091825260209091200154600160801b90046001600160801b031615611ce25786546040516370f986fd60e01b8152600481018e9052602481018890526001600160a01b03909116906370f986fd90604401608060405180830381865afa158015611cb3573d6000803e3d6000fd5b505050506040513d601f19601f82011682018060405250810190611cd791906156dd565b929650909450925090505b6000818385611cf1888b615713565b611cfb9190615713565b611d059190615713565b611d0f9190615713565b90508b811115611d3257604051636bdbc20960e11b815260040160405180910390fd5b60018801546001600160a01b031615611dca5760018801546040516323b872dd60e01b81526001600160a01b038b8116600483015230602483015260448201849052909116906323b872dd906064016020604051808303816000875af1158015611da0573d6000803e3d6000fd5b505050506040513d601f19601f82011682018060405250810190611dc49190615387565b50611e6e565b80341015611deb5760405163bd9c85bb60e01b815260040160405180910390fd5b80341115611e6e5760006001600160a01b038a16611e098334615374565b604051600081818185875af1925050503d8060008114611e45576040519150601f19603f3d011682016040523d82523d6000602084013e611e4a565b606091505b5050905080611e6c5760405163f570efeb60e01b815260040160405180910390fd5b505b86886004016000828254611e829190615713565b925050819055508c886005016000828254611e9d9190615713565b9091555050600d880180548e9190600090611eb9908490615713565b909155505060068801869055611ed18e858585613ae1565b91955093509150611ee28484615713565b600889018054600090611ef6908490615713565b9091555050600c88018054839190600090611f12908490615713565b9091555050600b546001600160a01b039081166000908152600e6020908152604080832060018d015490941683529290529081208054879290611f56908490615713565b925050819055508760010160009054906101000a90046001600160a01b03166001600160a01b0316600b60009054906101000a90046001600160a01b03166001600160a01b03168f600080516020615ecb833981519152600089604051611fbe92919061598a565b60405180910390a4611fe4898f60001c8f60405180602001604052806000815250614041565b886001600160a01b03168e7f5bd6f821d5961785d719543640cf62d3770f94e59db1a2f3c2250d72b122dddf8f8460405161199d929190918252602082015260400190565b6000818152600c60205260408120600301805461204890600190615374565b81548110612058576120586153d8565b6000918252602090912001546001600160801b031692915050565b61207e33838361409e565b5050565b6000828152600c60205260408120600301548190819081036120b757604051631d8ce09b60e31b815260040160405180910390fd5b6000858152600c6020908152604080832081516101a08101835281546001600160a01b039081168252600183015481168286015260028301541681840152600382018054845181870281018701909552808552919492936060860193909290879084015b8282101561216457600084815260209081902060408051808201909152908401546001600160801b038082168352600160801b909104168183015282526001909201910161211b565b505050908252506004820154602080830191909152600583015460408084019190915260068401546060808501919091526007850154608080860191909152825160a0818101855260088801548252600988015482870152600a88015482860152600b88015482850152600c880154928201929092529085015281519081018252600d8501548152600e85015492810192909252600f8401549082015260c082015260108201546001600160a01b0390811660e08301526011830154166101008201526012820180546101209092019161223d906153a4565b80601f0160208091040260200160405190810160405280929190818152602001828054612269906153a4565b80156122b65780601f1061228b576101008083540402835291602001916122b6565b820191906000526020600020905b81548152906001019060200180831161229957829003601f168201915b505050919092525050600854604051630d21bdc960e31b81529293506000928392506001600160a01b039091169063690dee48906122fa908a908790600401615578565b6040805180830381865afa158015612316573d6000803e3d6000fd5b505050506040513d601f19601f8201168201806040525081019061233a91906156b9565b845160405163f5b0402760e01b8152600481018b9052602481018490529294509092506000918291829182916001600160a01b03169063f5b0402790604401608060405180830381865afa158015612396573d6000803e3d6000fd5b505050506040513d601f19601f820116820180604052508101906123ba91906156dd565b93509350935093506000818385876123d29190615713565b6123dc9190615713565b6123e69190615713565b905061139c8188615374565b6000828152600c60205260408120600301548390820361242557604051631d8ce09b60e31b815260040160405180910390fd5b6000336000868152600c60205260408082206008549151634327ae5960e01b81529394509282916001600160a01b031690634327ae599061246c908a908790600401615853565b6040805180830381865afa158015612488573d6000803e3d6000fd5b505050506040513d601f19601f820116820180604052508101906124ac91906156b9565b8454604051630c1d341f60e31b8152600481018490529294509092506000918291829182916001600160a01b0316906360e9a0f890602401608060405180830381865afa158015612501573d6000803e3d6000fd5b505050506040513d601f19601f8201168201806040525081019061252591906156dd565b935093509350935061253b888d60001c8d613a79565b8a87600501600082825461254f9190615374565b925050819055508587600401600082825461256a9190615374565b9091555050600f870180548c9190600090612586908490615713565b90915550506007870185905561259e8c848484613ae1565b919450925090506125af8383615713565b600a880180546000906125c3908490615713565b9091555050600c870180548291906000906125df908490615713565b9091555050600b546001600160a01b039081166000908152600e6020908152604080832060018c015490941683529290529081208054869290612623908490615713565b90915550506001870154600b546040516001600160a01b0392831692909116908e90600080516020615ecb83398151915290612663906000908a9061598a565b60405180910390a4604080518c8152602081018890526001600160a01b038a16918e917fff8a4589f2e064f9b82f2aec48ea80dbf6a8f623d3bd76d954da82ec4ea0079f910160405180910390a360018701546006880154600589015460048a0154604080519384526020840192909252908201526001600160a01b03909116908d907f3bd4389be4c8211c8a69cd4eb5441db1c62f3398dd46eae7efa04cfea120b93b9060600160405180910390a350939a9950505050505050505050565b6000612730878484610cf7565b61273d8888888888612d57565b98975050505050505050565b6000828152600c60205260408120600301548190810361277c57604051631d8ce09b60e31b815260040160405180910390fd5b6000848152600c6020908152604080832081516101a08101835281546001600160a01b039081168252600183015481168286015260028301541681840152600382018054845181870281018701909552808552919492936060860193909290879084015b8282101561282957600084815260209081902060408051808201909152908401546001600160801b038082168352600160801b90910416818301528252600190920191016127e0565b505050908252506004820154602080830191909152600583015460408084019190915260068401546060808501919091526007850154608080860191909152825160a0818101855260088801548252600988015482870152600a88015482860152600b88015482850152600c880154928201929092529085015281519081018252600d8501548152600e85015492810192909252600f8401549082015260c082015260108201546001600160a01b0390811660e083015260118301541661010082015260128201805461012090920191612902906153a4565b80601f016020809104026020016040519081016040528092919081815260200182805461292e906153a4565b801561297b5780601f106129505761010080835404028352916020019161297b565b820191906000526020600020905b81548152906001019060200180831161295e57829003601f168201915b505050919092525050600854604051634327ae5960e01b81529293506000928392506001600160a01b0390911690634327ae59906129bf9089908790600401615578565b6040805180830381865afa1580156129db573d6000803e3d6000fd5b505050506040513d601f19601f820116820180604052508101906129ff91906156b9565b90955093505050505b9250929050565b60008060005b600d54811015612aa857600c6000600d8381548110612a3657612a366153d8565b90600052602060002001548152602001908152602001600020600d0160020154600c6000600d8481548110612a6d57612a6d6153d8565b9060005260206000200154815260200190815260200160002060050154612a949190615374565b612a9e9083615713565b9150600101612a15565b50919050565b600b546001600160a01b0316336001600160a01b031614612ae25760405163dcf0398d60e01b815260040160405180910390fd5b600b80546001600160a01b0319166001600160a01b0392909216919091179055565b60095460405163273bed1d60e21b81523360048201526024810183905282916001600160a01b031690639cefb47490604401602060405180830381865afa158015612b53573d6000803e3d6000fd5b505050506040513d601f19601f82011682018060405250810190612b779190615387565b612b94576040516313bb0a7760e11b815260040160405180910390fd5b61207e826004805480602002602001604051908101604052809291908181526020016000905b82821015612c0357600084815260209081902060408051808201909152908401546001600160801b038082168352600160801b9091041681830152825260019092019101612bba565b505050506134d1565b6001600160a01b03918216600090815260016020908152604080832093909416825291909152205460ff1690565b600d8181548110612c4a57600080fd5b600091825260209091200154905081565b600f8181548110612c6b57600080fd5b6000918252602090912001546001600160a01b0316905081565b336001600160a01b0386168114801590612ca65750612ca48682612c0c565b155b15612cd75760405163711bec9160e11b81526001600160a01b03808316600483015287166024820152604401610cd9565b610cef8686868686614134565b612cec613444565b6001600160a01b038116612d1657604051631e4fbdf760e01b815260006004820152602401610cd9565b612d1f81613683565b50565b60048181548110612d3257600080fd5b6000918252602090912001546001600160801b038082169250600160801b9091041682565b6000848152600c60205260408120601281018054612d74906153a4565b159050612db8576040516329c45f6760e01b8152602060048201526011602482015270185b1c9958591e481d985b1a59185d1959607a1b6044820152606401610cd9565b60005b600f54811015612e0457876001600160a01b0316600f8281548110612de257612de26153d8565b6000918252602090912001546001600160a01b031614612e0457600101612dbb565b600f548103612e2657604051631c3265c360e31b815260040160405180910390fd5b604051634b243ea360e11b81526001600160a01b038916906396487d4690612e5690899089908990600401615ab5565b602060405180830381865afa158015612e73573d6000803e3d6000fd5b505050506040513d601f19601f82011682018060405250810190612e979190615387565b506002820154604051630d02d25f60e11b8152600091829182916001600160a01b031690631a05a4be90612ed1908c908c90600401615bc4565b606060405180830381865afa158015612eee573d6000803e3d6000fd5b505050506040513d601f19601f82011682018060405250810190612f129190615be0565b925092509250828a14612f51576040516329c45f6760e01b81526020600482015260066024820152651d185c19525960d21b6044820152606401610cd9565b6010850180546001600160a01b038085166001600160a01b0319928316179092556011870180549284169290911691909117905560128501612f94898b83615c6b565b50600c85015460088601546000918291156130c3578754600d89015460088a01546040516370f986fd60e01b81526004810192909252602482015260009182916001600160a01b03909116906370f986fd90604401608060405180830381865afa158015613006573d6000803e3d6000fd5b505050506040513d601f19601f8201168201806040525081019061302a91906156dd565b5060088d0154919450925090506130418284615713565b1115613084576040516329c45f6760e01b8152602060048201526011602482015270756e636c61696d65644d696e744665657360781b6044820152606401610cd9565b61308e8183615713565b60088b0180546000906130a2908490615374565b909155506130b290508286615713565b94506130be8185615713565b935050505b6009880154156131e7578754600e89015460098a015460405163f5b0402760e01b81526004810192909252602482015260009182916001600160a01b039091169063f5b0402790604401608060405180830381865afa15801561312a573d6000803e3d6000fd5b505050506040513d601f19601f8201168201806040525081019061314e91906156dd565b5060098d0154919450925090506131658284615713565b11156131a8576040516329c45f6760e01b8152602060048201526011602482015270756e636c61696d65644275726e4665657360781b6044820152606401610cd9565b6131b28183615713565b60098b0180546000906131c6908490615374565b909155506131d690508286615713565b94506131e28185615713565b935050505b600b88015415613302578754600b89015460405163cf54ee1d60e01b815260009283926001600160a01b039091169163cf54ee1d9161322c9160040190815260200190565b6040805180830381865afa158015613248573d6000803e3d6000fd5b505050506040513d601f19601f8201168201806040525081019061326c91906156b9565b600b8c015491935091506132808284615713565b11156132c3576040516329c45f6760e01b8152602060048201526011602482015270756e636c61696d65644275726e4665657360781b6044820152606401610cd9565b6132cd8183615713565b600b8b0180546000906132e1908490615374565b909155506132f190508286615713565b94506132fd8185615713565b935050505b61330e8d848484613ae1565b505050600b880154600989015460088a01546000929161332d91615713565b6133379190615713565b9050801561341257600b89015460098a015460088b01546133589190615713565b6133629190615713565b600b546001600160a01b039081166000908152600e6020908152604080832060018f0154909416835292905290812080549091906133a1908490615713565b925050819055508860010160009054906101000a90046001600160a01b03166001600160a01b0316600b60009054906101000a90046001600160a01b03166001600160a01b03168f600080516020615ecb83398151915260058560405161340992919061598a565b60405180910390a45b505060006008880181905560098801819055600b8801819055600c9097019690965550989a9950505050505050505050565b6003546001600160a01b0316331461102a5760405163118cdaa760e01b8152336004820152602401610cd9565b6001600160a01b03841661349b57604051632bfa23e760e11b815260006004820152602401610cd9565b6001600160a01b0385166134c457604051626a0d4560e21b815260006004820152602401610cd9565b610e1885858585856141b5565b6000828152600c6020526040812060030154900361207e576000828152600c6020526040812060065481546001600160a01b039182166001600160a01b0319918216178355600554600184018054918416918316919091179055600754600284018054919093169116179055905b82518110156135e457816003016040518060400160405280858481518110613569576135696153d8565b6020026020010151600001516001600160801b03168152602001858481518110613595576135956153d8565b6020908102919091018101518101516001600160801b03908116909252835460018181018655600095865294829020845194909201518316600160801b0293909216929092179101550161353f565b50600d805460018101825560009182527fd7b6990105719101dabeb77144f2a3385c8033acd3af97e9423a695e81ad1eb50184905560038201805490919061362e5761362e6153d8565b6000918252602082200154600160801b90046001600160801b03169003610b2957610aaf8382600301600081548110613669576136696153d8565b60009182526020822001546001600160801b031690611b69565b600380546001600160a01b038381166001600160a01b0319831681179093556040519116919082907f8be0079c531659141344cd1fd0a4f28419497f9722a3daafe3b4186f6b6457e090600090a35050565b60085460405163169f6b0560e11b81526001600160a01b03898116600483015290911690632d3ed60a9060240160006040518083038186803b15801561371a57600080fd5b505afa15801561372e573d6000803e3d6000fd5b505060085460405163f610a03960e01b81526001600160a01b038a81166004830152909116925063f610a039915060240160006040518083038186803b15801561377757600080fd5b505afa15801561378b573d6000803e3d6000fd5b505060085460405163f8e0044b60e01b81526001600160a01b038981166004830152909116925063f8e0044b915060240160006040518083038186803b1580156137d457600080fd5b505afa1580156137e8573d6000803e3d6000fd5b50506008546040516379901e6560e11b81526001600160a01b038881166004830152909116925063f3203cca915060240160006040518083038186803b15801561383157600080fd5b505afa158015613845573d6000803e3d6000fd5b5050600854604051638716824d60e01b81526001600160a01b039091169250638716824d915061389d907f00000000000000000000000000000000000000000000000000000000000000009086908690600401615d2a565b60006040518083038186803b1580156138b557600080fd5b505afa1580156138c9573d6000803e3d6000fd5b50505050600460006138db91906149aa565b600854604051633340e6bd60e11b81526000916001600160a01b031690636681cd7a9061391090869086908990600401615428565b600060405180830381865afa15801561392d573d6000803e3d6000fd5b505050506040513d6000823e601f3d908101601f191682016040526139559190810190615467565b905060005b81518110156139fd5760046040518060400160405280848481518110613982576139826153d8565b6020026020010151600001516001600160801b031681526020018484815181106139ae576139ae6153d8565b6020908102919091018101518101516001600160801b03908116909252835460018181018655600095865294829020845194909201518316600160801b0293909216929092179101550161395a565b5050600580546001600160a01b03199081166001600160a01b03998a161790915560068054821697891697909717909655505060078054851693861693909317909255600980549093169316929092179055600a80546fffffffffffffffffffffffffffffffff19166001600160801b03909216919091179055565b6001600160a01b038316613aa257604051626a0d4560e21b815260006004820152602401610cd9565b604080516001808252602082018590528183019081526060820184905260a08201909252600060808201818152919291610e18918791859085906141b5565b6000848152600c60205260408120601281018054839283929091839190613b07906153a4565b9050111561402c57600281015460405163dddf33e160e01b81526000918291829182916001600160a01b039091169063dddf33e190613b4d9060128901906004016157a3565b600060405180830381865afa158015613b6a573d6000803e3d6000fd5b505050506040513d6000823e601f3d908101601f19168201604052613b929190810190615d55565b805190915015613ca857845481516040516322cc0efb60e01b8152600092613c29928d9286926001600160a01b0316916322cc0efb91613bdf918691600401918252602082015260400190565b600060405180830381865afa158015613bfc573d6000803e3d6000fd5b505050506040513d6000823e601f3d908101601f19168201604052613c249190810190615d55565b614208565b90508015613ca257855460405163cf54ee1d60e01b8152600481018390526001600160a01b039091169063cf54ee1d906024016040805180830381865afa158015613c78573d6000803e3d6000fd5b505050506040513d601f19601f82011682018060405250810190613c9c91906156b9565b90945092505b50613d19565b845460405163cf54ee1d60e01b8152600481018b90526001600160a01b039091169063cf54ee1d906024016040805180830381865afa158015613cef573d6000803e3d6000fd5b505050506040513d601f19601f82011682018060405250810190613d1391906156b9565b90935091505b60108501546001600160a01b031615613e3a57613d36828c615713565b60108601546001600160a01b039081166000908152600e6020908152604080832060018b015490941683529290529081208054909190613d77908490615713565b925050819055508460010160009054906101000a90046001600160a01b03166001600160a01b03168560100160009054906101000a90046001600160a01b03166001600160a01b03168d600080516020615ecb83398151915260018f604051613de192919061598a565b60405180910390a48115613e3557600185015460108601546040516001600160a01b0392831692909116908e90600080516020615ecb83398151915290613e2c90600490889061598a565b60405180910390a45b613e51565b613e44828c615713565b613e4e9085615713565b93505b60118501546001600160a01b031615613f7257613e6e838b615713565b60118601546001600160a01b039081166000908152600e6020908152604080832060018b015490941683529290529081208054909190613eaf908490615713565b925050819055508460010160009054906101000a90046001600160a01b03166001600160a01b03168560110160009054906101000a90046001600160a01b03166001600160a01b03168d600080516020615ecb83398151915260028e604051613f1992919061598a565b60405180910390a48215613f6d57600185015460118601546040516001600160a01b0392831692909116908e90600080516020615ecb83398151915290613f6490600490899061598a565b60405180910390a45b613f89565b613f7c838b615713565b613f869085615713565b93505b831561401757600b546001600160a01b039081166000908152600e6020908152604080832060018a015490941683529290529081208054869290613fce908490615713565b90915550506001850154600b546040516001600160a01b0392831692909116908e90600080516020615ecb8339815191529061400e906005908a9061598a565b60405180910390a45b60008060009750975097505050505050614037565b868686935093509350505b9450945094915050565b6001600160a01b03841661406b57604051632bfa23e760e11b815260006004820152602401610cd9565b60408051600180825260208201869052818301908152606082018590526080820190925290610cef6000878484876141b5565b6001600160a01b0382166140c75760405162ced3e160e81b815260006004820152602401610cd9565b6001600160a01b03838116600081815260016020908152604080832094871680845294825291829020805460ff191686151590811790915591519182527f17307eab39ab6107e8899845ad3d59bd9653f200f220920489ca2b5937696c31910160405180910390a3505050565b6001600160a01b03841661415e57604051632bfa23e760e11b815260006004820152602401610cd9565b6001600160a01b03851661418757604051626a0d4560e21b815260006004820152602401610cd9565b604080516001808252602082018690528183019081526060820185905260808201909252906113c787878484875b6141c1858585856142a2565b6001600160a01b03841615610e1857825133906001036141fa57602084810151908401516141f38389898585896144b6565b5050610cef565b610cef8187878787876145da565b6000805b841561429957808451111561429957808351111561429957614260848281518110614239576142396153d8565b6020026020010151848381518110614253576142536153d8565b60200260200101516146c3565b828181518110614272576142726153d8565b6020026020010151856142859190615374565b94508061429181615dda565b91505061420c565b50929392505050565b80518251146142d15781518151604051635b05999160e01b815260048101929092526024820152604401610cd9565b3360005b83518110156143d7576020818102858101820151908501909101516001600160a01b03881615614388576000828152602081815260408083206001600160a01b038c16845290915290205481811015614361576040516303dee4c560e01b81526001600160a01b038a166004820152602481018290526044810183905260648101849052608401610cd9565b6000838152602081815260408083206001600160a01b038d16845290915290209082900390555b6001600160a01b038716156143cd576000828152602081815260408083206001600160a01b038b168452909152812080548392906143c7908490615713565b90915550505b50506001016142d5565b5082516001036144585760208301516000906020840151909150856001600160a01b0316876001600160a01b0316846001600160a01b03167fc3d58168c5ae7397731d063d5bbf3d657854427343f4c083240f7aacaa2d0f628585604051614449929190918252602082015260400190565b60405180910390a45050610e18565b836001600160a01b0316856001600160a01b0316826001600160a01b03167f4a39dc06d4c0dbc64b70af90fd698a233a518aa5d07e595d983b8c0526c8f7fb86866040516144a7929190615df3565b60405180910390a45050505050565b6001600160a01b0384163b15610cef5760405163f23a6e6160e01b81526001600160a01b0385169063f23a6e61906144fa9089908990889088908890600401615e21565b6020604051808303816000875af1925050508015614535575060408051601f3d908101601f1916820190925261453291810190615e5b565b60015b61459e573d808015614563576040519150601f19603f3d011682016040523d82523d6000602084013e614568565b606091505b50805160000361459657604051632bfa23e760e11b81526001600160a01b0386166004820152602401610cd9565b805181602001fd5b6001600160e01b0319811663f23a6e6160e01b146113c757604051632bfa23e760e11b81526001600160a01b0386166004820152602401610cd9565b6001600160a01b0384163b15610cef5760405163bc197c8160e01b81526001600160a01b0385169063bc197c819061461e9089908990889088908890600401615e78565b6020604051808303816000875af1925050508015614659575060408051601f3d908101601f1916820190925261465691810190615e5b565b60015b614687573d808015614563576040519150601f19603f3d011682016040523d82523d6000602084013e614568565b6001600160e01b0319811663bc197c8160e01b146113c757604051632bfa23e760e11b81526001600160a01b0386166004820152602401610cd9565b6000828152600c60205260408120600301548391036146f557604051631d8ce09b60e31b815260040160405180910390fd5b6000838152600c60205260408120601281018054919291614715906153a4565b9050111561498857805460405163cf54ee1d60e01b815260048101859052600091829182916001600160a01b03169063cf54ee1d906024016040805180830381865afa158015614769573d6000803e3d6000fd5b505050506040513d601f19601f8201168201806040525081019061478d91906156b9565b601086015491935091506001600160a01b0316156148355760108401546001600160a01b039081166000908152600e602090815260408083206001890154909416835292905290812080548392906147e6908490615713565b9091555050600184015460108501546040516001600160a01b0392831692909116908990600080516020615ecb8339815191529061482890600490879061598a565b60405180910390a4614842565b61483f8184615713565b92505b60118401546001600160a01b0316156148e55760118401546001600160a01b039081166000908152600e60209081526040808320600189015490941683529290529081208054849290614896908490615713565b9091555050600184015460118501546040516001600160a01b0392831692909116908990600080516020615ecb833981519152906148d890600490889061598a565b60405180910390a46148f2565b6148ef8284615713565b92505b821561498057600b546001600160a01b039081166000908152600e60209081526040808320600189015490941683529290529081208054859290614937908490615713565b90915550506001840154600b546040516001600160a01b0392831692909116908990600080516020615ecb8339815191529061497790600590899061598a565b60405180910390a45b505050610aaf565b8281600801600301600082825461499f9190615713565b909155505050505050565b5080546000825590600052602060002090810190612d1f91905b808211156149d857600081556001016149c4565b5090565b6001600160a01b0381168114612d1f57600080fd5b80356149fc816149dc565b919050565b60008060408385031215614a1457600080fd5b8235614a1f816149dc565b946020939093013593505050565b6001600160e01b031981168114612d1f57600080fd5b600060208284031215614a5557600080fd5b8135614a6081614a2d565b9392505050565b60008083601f840112614a7957600080fd5b5081356001600160401b03811115614a9057600080fd5b602083019150836020828501011115612a0857600080fd5b600060408284031215612aa857600080fd5b600080600080600060808688031215614ad257600080fd5b8535614add816149dc565b94506020860135935060408601356001600160401b0380821115614b0057600080fd5b614b0c89838a01614a67565b90955093506060880135915080821115614b2557600080fd5b50614b3288828901614aa8565b9150509295509295909350565b600060208284031215614b5157600080fd5b5035919050565b6000815180845260005b81811015614b7e57602081850181015186830182015201614b62565b506000602082860101526020601f19601f83011685010191505092915050565b602081526000614a606020830184614b58565b600060208284031215614bc357600080fd5b8135614a60816149dc565b634e487b7160e01b600052604160045260246000fd5b604080519081016001600160401b0381118282101715614c0657614c06614bce565b60405290565b604051601f8201601f191681016001600160401b0381118282101715614c3457614c34614bce565b604052919050565b60006001600160401b03821115614c5557614c55614bce565b5060051b60200190565b600082601f830112614c7057600080fd5b81356020614c85614c8083614c3c565b614c0c565b8083825260208201915060208460051b870101935086841115614ca757600080fd5b602086015b84811015614cc35780358352918301918301614cac565b509695505050505050565b600082601f830112614cdf57600080fd5b81356001600160401b03811115614cf857614cf8614bce565b614d0b601f8201601f1916602001614c0c565b818152846020838601011115614d2057600080fd5b816020850160208301376000918101602001919091529392505050565b600080600080600060a08688031215614d5557600080fd5b8535614d60816149dc565b94506020860135614d70816149dc565b935060408601356001600160401b0380821115614d8c57600080fd5b614d9889838a01614c5f565b94506060880135915080821115614dae57600080fd5b614dba89838a01614c5f565b93506080880135915080821115614dd057600080fd5b50614b3288828901614cce565b6001600160801b0381168114612d1f57600080fd5b600082601f830112614e0357600080fd5b81356020614e13614c8083614c3c565b8083825260208201915060208460051b870101935086841115614e3557600080fd5b602086015b84811015614cc3578035614e4d81614ddd565b8352918301918301614e3a565b600080600060608486031215614e6f57600080fd5b8335925060208401356001600160401b0380821115614e8d57600080fd5b614e9987838801614df2565b93506040860135915080821115614eaf57600080fd5b50614ebc86828701614df2565b9150509250925092565b60008060408385031215614ed957600080fd5b82356001600160401b0380821115614ef057600080fd5b818501915085601f830112614f0457600080fd5b81356020614f14614c8083614c3c565b82815260059290921b84018101918181019089841115614f3357600080fd5b948201945b83861015614f5a578535614f4b816149dc565b82529482019490820190614f38565b96505086013592505080821115614f7057600080fd5b50614f7d85828601614c5f565b9150509250929050565b60008151808452602080850194506020840160005b83811015614fb857815187529582019590820190600101614f9c565b509495945050505050565b602081526000614a606020830184614f87565b60008060408385031215614fe957600080fd5b823591506020830135614ffb816149dc565b809150509250929050565b6000806040838503121561501957600080fd5b50508035926020909101359150565b600080600080600080600060e0888a03121561504357600080fd5b873561504e816149dc565b9650602088013561505e816149dc565b9550604088013561506e816149dc565b9450606088013561507e816149dc565b9350608088013561508e81614ddd565b925060a08801356001600160401b03808211156150aa57600080fd5b6150b68b838c01614df2565b935060c08a01359150808211156150cc57600080fd5b506150d98a828b01614df2565b91505092959891949750929550565b6000806000606084860312156150fd57600080fd5b505081359360208301359350604090920135919050565b600060018060a01b03808f168352808e166020840152808d1660408401528b60608401528a60808401528960a08401528860c084015261518260e084018980518252602081015160208301526040810151604083015260608101516060830152608081015160808301525050565b865161018084015260208701516101a084015260408701516101c08401528086166101e0840152808516610200840152506102406102208301526151ca610240830184614b58565b9e9d5050505050505050505050505050565b8015158114612d1f57600080fd5b600080604083850312156151fd57600080fd5b8235615208816149dc565b91506020830135614ffb816151dc565b6000806040838503121561522b57600080fd5b8235615236816149dc565b91506020830135614ffb816149dc565b600080600080600080600060c0888a03121561526157600080fd5b61526a886149f1565b96506020880135955060408801356001600160401b038082111561528d57600080fd5b6152998b838c01614a67565b909750955060608a01359150808211156152b257600080fd5b6152be8b838c01614aa8565b945060808a01359150808211156152d457600080fd5b6152e08b838c01614df2565b935060a08a01359150808211156150cc57600080fd5b600080600080600060a0868803121561530e57600080fd5b8535615319816149dc565b94506020860135615329816149dc565b9350604086013592506060860135915060808601356001600160401b0381111561535257600080fd5b614b3288828901614cce565b634e487b7160e01b600052601160045260246000fd5b818103818111156108bd576108bd61535e565b60006020828403121561539957600080fd5b8151614a60816151dc565b600181811c908216806153b857607f821691505b602082108103612aa857634e487b7160e01b600052602260045260246000fd5b634e487b7160e01b600052603260045260246000fd5b60008151808452602080850194506020840160005b83811015614fb85781516001600160801b031687529582019590820190600101615403565b60608152600061543b60608301866153ee565b828103602084015261544d81866153ee565b9150506001600160801b0383166040830152949350505050565b6000602080838503121561547a57600080fd5b82516001600160401b0381111561549057600080fd5b8301601f810185136154a157600080fd5b80516154af614c8082614c3c565b81815260069190911b820183019083810190878311156154ce57600080fd5b928401925b8284101561552457604084890312156154ec5760008081fd5b6154f4614be4565b84516154ff81614ddd565b81528486015161550e81614ddd565b81870152825260409390930192908401906154d3565b979650505050505050565b60008151808452602080850194506020840160005b83811015614fb857815180516001600160801b03908116895290840151168388015260409096019590820190600101615544565b828152604060208201526155986040820183516001600160a01b03169052565b600060208301516155b460608401826001600160a01b03169052565b5060408301516001600160a01b03166080830152606083015161026060a084018190526155e56102a085018361552f565b9150608085015160c085015260a085015160e085015260c0850151610100818187015260e08701519150610120828188015281880151925061014091506156598288018480518252602081015160208301526040810151604083015260608101516060830152608081015160808301525050565b87015180516101e08801526020810151610200880152604001516102208701528601516001600160a01b03908116610240870152610160870151169185019190915250610180840151838203603f190161028085015261092b8282614b58565b600080604083850312156156cc57600080fd5b505080516020909101519092909150565b600080600080608085870312156156f357600080fd5b505082516020840151604085015160609095015191969095509092509050565b808201808211156108bd576108bd61535e565b60008154615733816153a4565b808552602060018381168015615750576001811461576a57615798565b60ff1985168884015283151560051b880183019550615798565b866000528260002060005b858110156157905781548a8201860152908301908401615775565b890184019650505b505050505092915050565b602081526000614a606020830184615726565b600080600080600080600060e0888a0312156157d157600080fd5b5050855160208701516040880151606089015160808a015160a08b015160c0909b0151949c939b50919990985090965094509092509050565b600081548084526020808501945083600052602060002060005b83811015614fb85781546001600160801b038116885260801c8388015260409096019560019182019101615824565b828152604060208201526158826040820161587584546001600160a01b031690565b6001600160a01b03169052565b600061589860018401546001600160a01b031690565b6001600160a01b039081166060840152600284015416608083015261026060a083018190526158ce6102a084016003860161580a565b600485015460c0850152600585015460e08501526006850154610100850152600785015461012085015260088501546101408501526009850154610160850152600a850154610180850152600b8501546101a0850152600c8501546101c0850152600d8501546101e0850152600e850154610200850152600f85015461022085015260108501546001600160a01b0390811661024086015260118601541682850152838103603f190161028085015261092b8160128701615726565b60408101600684106159ac57634e487b7160e01b600052602160045260246000fd5b9281526020015290565b81835281816020850137506000828201602090810191909152601f909101601f19169091010190565b80356001600160401b03811681146149fc57600080fd5b6000808335601e19843603018112615a0d57600080fd5b83016020810192503590506001600160401b03811115615a2c57600080fd5b8060051b3603821315612a0857600080fd5b81835260006001600160fb1b03831115615a5757600080fd5b8260051b80836020870137939093016020019392505050565b6000808335601e19843603018112615a8757600080fd5b83016020810192503590506001600160401b03811115615aa657600080fd5b803603821315612a0857600080fd5b604081526000615ac96040830185876159b6565b8281036020840152833560fe19853603018112615ae557600080fd5b6040825284016001600160401b03615afc826159df565b166040830152615b0e602082016159df565b6001600160401b03811660608401525060408101356080830152606081013560a0830152608081013560c083015260a081013560e0830152615b5360c08201826159f6565b61010084810152615b6961014085018284615a3e565b915050615b7960e08301836159f6565b848303603f19016101208601529250615b93828483615a3e565b92505050615ba46020860186615a70565b8383036020850152615bb78382846159b6565b9998505050505050505050565b602081526000615bd86020830184866159b6565b949350505050565b600080600060608486031215615bf557600080fd5b835192506020840151615c07816149dc565b6040850151909250615c18816149dc565b809150509250925092565b601f821115610b29576000816000526020600020601f850160051c81016020861015615c4c5750805b601f850160051c820191505b81811015610cef57828155600101615c58565b6001600160401b03831115615c8257615c82614bce565b615c9683615c9083546153a4565b83615c23565b6000601f841160018114615cca5760008515615cb25750838201355b600019600387901b1c1916600186901b178355610e18565b600083815260209020601f19861690835b82811015615cfb5786850135825560209485019460019092019101615cdb565b5086821015615d185760001960f88860031b161c19848701351681555b505060018560011b0183555050505050565b838152606060208201526000615d4360608301856153ee565b828103604084015261092b81856153ee565b60006020808385031215615d6857600080fd5b82516001600160401b03811115615d7e57600080fd5b8301601f81018513615d8f57600080fd5b8051615d9d614c8082614c3c565b81815260059190911b82018301908381019087831115615dbc57600080fd5b928401925b8284101561552457835182529284019290840190615dc1565b600060018201615dec57615dec61535e565b5060010190565b604081526000615e066040830185614f87565b8281036020840152615e188185614f87565b95945050505050565b6001600160a01b03868116825285166020820152604081018490526060810183905260a06080820181905260009061552490830184614b58565b600060208284031215615e6d57600080fd5b8151614a6081614a2d565b6001600160a01b0386811682528516602082015260a060408201819052600090615ea490830186614f87565b8281036060840152615eb68186614f87565b9050828103608084015261273d8185614b5856fe4b984622ccd95d46d58ee4b4ec121acbc6f1d9de4a5997f2013e0daf02c10104a264697066735822122028d92874d50c783c23621f078e1e8ff465171383b0c3b9429c8747750d13941564736f6c63430008180033","linkReferences":{}},"methodIdentifiers":{"accounts(address,address)":"ad74b775","addDapp(address)":"27b7ca5f","balanceOf(address,uint256)":"00fdd58e","balanceOfBatch(address[],uint256[])":"4e1273f4","bondingCurveSteps(uint256)":"fa1c4db6","buyTapes(bytes32,uint256,uint256)":"9165f843","changeTapeModel(bytes32,address)":"5db8076c","consumeTapes(bytes32,uint256)":"b495bbb0","currencyTokenAddress()":"d3c3b389","dappAddresses(uint256)":"ecead403","exists(bytes32)":"38a699a4","feeModelAddress()":"3ab03c8b","getCurrentBuyPrice(bytes32,uint256)":"724969e7","getCurrentConsumePrice(bytes32,uint256)":"bbfef088","getCurrentSellPrice(bytes32,uint256)":"b16cae66","getTapeData(bytes32)":"796aea77","isApprovedForAll(address,address)":"e985e9c5","maxSupply()":"d5abeb01","maxTapeSupply(bytes32)":"9ba01fbe","owner()":"8da5cb5b","renounceOwnership()":"715018a6","safeBatchTransferFrom(address,address,uint256[],uint256[],bytes)":"2eb2c2d6","safeTransferFrom(address,address,uint256,uint256,bytes)":"f242432a","sellTapes(bytes32,uint256,uint256)":"828ef8d9","setApprovalForAll(address,bool)":"a22cb465","setTapeParams(bytes32)":"e5a41243","setTapeParamsCustom(bytes32,uint128[],uint128[])":"3a18c8d0","supportsInterface(bytes4)":"01ffc9a7","tapeBondUtilsAddress()":"fabe3824","tapeBonds(bytes32)":"8f8b185b","tapeBondsCreated(uint256)":"eb596d01","tapeModelAddress()":"6a386ed2","tapeOwnershipAddress()":"c09902f4","tapesCount()":"7fb90ea6","totalTapes()":"c5b67e81","transferOwnership(address)":"f2fde38b","updateBondingCurveParams(address,address,address,address,uint128,uint128[],uint128[])":"752e855d","updateProtocolWallet(address)":"e308a099","uri(uint256)":"0e89341c","validateTape(address,bytes32,bytes,((uint64,uint64,bytes32,bytes32,bytes32,bytes32,bytes32[],bytes32[]),bytes))":"07974110","validateTapeCustom(address,bytes32,bytes,((uint64,uint64,bytes32,bytes32,bytes32,bytes32,bytes32[],bytes32[]),bytes),uint128[],uint128[])":"b7f012df","withdrawBalance(address,uint256)":"0cf20cc9"},"id":25}