{"abi":[{"type":"constructor","inputs":[{"name":"newProtocolWallet","type":"address","internalType":"address"},{"name":"maxSteps","type":"uint256","internalType":"uint256"},{"name":"newCurrencyToken","type":"address","internalType":"address"},{"name":"newFeeModel","type":"address","internalType":"address"},{"name":"newTapeModel","type":"address","internalType":"address"},{"name":"newTapeOwnershipModelAddress","type":"address","internalType":"address"},{"name":"newTapeBondingCurveModelAddress","type":"address","internalType":"address"},{"name":"newTapeBondUtilsAddress","type":"address","internalType":"address"},{"name":"newMaxSupply","type":"uint128","internalType":"uint128"},{"name":"stepRangesMax","type":"uint128[]","internalType":"uint128[]"},{"name":"stepCoefficients","type":"uint128[]","internalType":"uint128[]"}],"stateMutability":"nonpayable"},{"type":"function","name":"accounts","inputs":[{"name":"","type":"address","internalType":"address"},{"name":"","type":"address","internalType":"address"}],"outputs":[{"name":"","type":"uint256","internalType":"uint256"}],"stateMutability":"view"},{"type":"function","name":"addDapp","inputs":[{"name":"dapp","type":"address","internalType":"address"}],"outputs":[],"stateMutability":"nonpayable"},{"type":"function","name":"balanceOf","inputs":[{"name":"account","type":"address","internalType":"address"},{"name":"id","type":"uint256","internalType":"uint256"}],"outputs":[{"name":"","type":"uint256","internalType":"uint256"}],"stateMutability":"view"},{"type":"function","name":"balanceOfBatch","inputs":[{"name":"accounts","type":"address[]","internalType":"address[]"},{"name":"ids","type":"uint256[]","internalType":"uint256[]"}],"outputs":[{"name":"","type":"uint256[]","internalType":"uint256[]"}],"stateMutability":"view"},{"type":"function","name":"bondingCurveSteps","inputs":[{"name":"","type":"uint256","internalType":"uint256"}],"outputs":[{"name":"rangeMax","type":"uint128","internalType":"uint128"},{"name":"coefficient","type":"uint128","internalType":"uint128"}],"stateMutability":"view"},{"type":"function","name":"buyTapes","inputs":[{"name":"tapeId","type":"bytes32","internalType":"bytes32"},{"name":"tapesToMint","type":"uint256","internalType":"uint256"},{"name":"maxCurrencyPrice","type":"uint256","internalType":"uint256"}],"outputs":[{"name":"currencyCost","type":"uint256","internalType":"uint256"}],"stateMutability":"payable"},{"type":"function","name":"changeTapeModel","inputs":[{"name":"tapeId","type":"bytes32","internalType":"bytes32"},{"name":"newTapeModel","type":"address","internalType":"address"}],"outputs":[],"stateMutability":"nonpayable"},{"type":"function","name":"consumeTapes","inputs":[{"name":"tapeId","type":"bytes32","internalType":"bytes32"},{"name":"tapesToConsume","type":"uint256","internalType":"uint256"}],"outputs":[{"name":"","type":"uint256","internalType":"uint256"}],"stateMutability":"nonpayable"},{"type":"function","name":"currencyTokenAddress","inputs":[],"outputs":[{"name":"","type":"address","internalType":"address"}],"stateMutability":"view"},{"type":"function","name":"dappAddresses","inputs":[{"name":"","type":"address","internalType":"address"}],"outputs":[{"name":"","type":"bool","internalType":"bool"}],"stateMutability":"view"},{"type":"function","name":"exists","inputs":[{"name":"tapeId","type":"bytes32","internalType":"bytes32"}],"outputs":[{"name":"","type":"bool","internalType":"bool"}],"stateMutability":"view"},{"type":"function","name":"feeModelAddress","inputs":[],"outputs":[{"name":"","type":"address","internalType":"address"}],"stateMutability":"view"},{"type":"function","name":"getCurrentBuyPrice","inputs":[{"name":"tapeId","type":"bytes32","internalType":"bytes32"},{"name":"tokensToMint","type":"uint256","internalType":"uint256"}],"outputs":[{"name":"","type":"uint256","internalType":"uint256"},{"name":"","type":"uint256","internalType":"uint256"},{"name":"","type":"uint256","internalType":"uint256"}],"stateMutability":"view"},{"type":"function","name":"getCurrentConsumePrice","inputs":[{"name":"tapeId","type":"bytes32","internalType":"bytes32"},{"name":"tokensToConsume","type":"uint256","internalType":"uint256"}],"outputs":[{"name":"","type":"uint256","internalType":"uint256"},{"name":"","type":"uint256","internalType":"uint256"}],"stateMutability":"view"},{"type":"function","name":"getCurrentSellPrice","inputs":[{"name":"tapeId","type":"bytes32","internalType":"bytes32"},{"name":"tokensToBurn","type":"uint256","internalType":"uint256"}],"outputs":[{"name":"","type":"uint256","internalType":"uint256"},{"name":"","type":"uint256","internalType":"uint256"},{"name":"","type":"uint256","internalType":"uint256"}],"stateMutability":"view"},{"type":"function","name":"getTapeData","inputs":[{"name":"tapeId","type":"bytes32","internalType":"bytes32"}],"outputs":[{"name":"","type":"bytes32","internalType":"bytes32"},{"name":"","type":"bytes32","internalType":"bytes32"},{"name":"","type":"int256","internalType":"int256"},{"name":"","type":"bytes32","internalType":"bytes32"},{"name":"","type":"int256","internalType":"int256"},{"name":"","type":"bytes32","internalType":"bytes32"},{"name":"","type":"int256","internalType":"int256"}],"stateMutability":"view"},{"type":"function","name":"isApprovedForAll","inputs":[{"name":"account","type":"address","internalType":"address"},{"name":"operator","type":"address","internalType":"address"}],"outputs":[{"name":"","type":"bool","internalType":"bool"}],"stateMutability":"view"},{"type":"function","name":"maxSupply","inputs":[],"outputs":[{"name":"","type":"uint128","internalType":"uint128"}],"stateMutability":"view"},{"type":"function","name":"maxTapeSupply","inputs":[{"name":"tapeId","type":"bytes32","internalType":"bytes32"}],"outputs":[{"name":"","type":"uint128","internalType":"uint128"}],"stateMutability":"view"},{"type":"function","name":"owner","inputs":[],"outputs":[{"name":"","type":"address","internalType":"address"}],"stateMutability":"view"},{"type":"function","name":"renounceOwnership","inputs":[],"outputs":[],"stateMutability":"nonpayable"},{"type":"function","name":"safeBatchTransferFrom","inputs":[{"name":"from","type":"address","internalType":"address"},{"name":"to","type":"address","internalType":"address"},{"name":"ids","type":"uint256[]","internalType":"uint256[]"},{"name":"values","type":"uint256[]","internalType":"uint256[]"},{"name":"data","type":"bytes","internalType":"bytes"}],"outputs":[],"stateMutability":"nonpayable"},{"type":"function","name":"safeTransferFrom","inputs":[{"name":"from","type":"address","internalType":"address"},{"name":"to","type":"address","internalType":"address"},{"name":"id","type":"uint256","internalType":"uint256"},{"name":"value","type":"uint256","internalType":"uint256"},{"name":"data","type":"bytes","internalType":"bytes"}],"outputs":[],"stateMutability":"nonpayable"},{"type":"function","name":"sellTapes","inputs":[{"name":"tapeId","type":"bytes32","internalType":"bytes32"},{"name":"tapesToBurn","type":"uint256","internalType":"uint256"},{"name":"minCurrencyRefund","type":"uint256","internalType":"uint256"}],"outputs":[{"name":"","type":"uint256","internalType":"uint256"}],"stateMutability":"nonpayable"},{"type":"function","name":"setApprovalForAll","inputs":[{"name":"operator","type":"address","internalType":"address"},{"name":"approved","type":"bool","internalType":"bool"}],"outputs":[],"stateMutability":"nonpayable"},{"type":"function","name":"setTapeParams","inputs":[{"name":"tapeId","type":"bytes32","internalType":"bytes32"}],"outputs":[],"stateMutability":"nonpayable"},{"type":"function","name":"setTapeParamsCustom","inputs":[{"name":"tapeId","type":"bytes32","internalType":"bytes32"},{"name":"stepRangesMax","type":"uint128[]","internalType":"uint128[]"},{"name":"stepCoefficients","type":"uint128[]","internalType":"uint128[]"}],"outputs":[],"stateMutability":"nonpayable"},{"type":"function","name":"setURI","inputs":[{"name":"newUri","type":"string","internalType":"string"}],"outputs":[],"stateMutability":"nonpayable"},{"type":"function","name":"supportsInterface","inputs":[{"name":"interfaceId","type":"bytes4","internalType":"bytes4"}],"outputs":[{"name":"","type":"bool","internalType":"bool"}],"stateMutability":"view"},{"type":"function","name":"tapeBondUtilsAddress","inputs":[],"outputs":[{"name":"","type":"address","internalType":"address"}],"stateMutability":"view"},{"type":"function","name":"tapeBondingCurveModelAddress","inputs":[],"outputs":[{"name":"","type":"address","internalType":"address"}],"stateMutability":"view"},{"type":"function","name":"tapeBonds","inputs":[{"name":"","type":"bytes32","internalType":"bytes32"}],"outputs":[{"name":"bond","type":"tuple","internalType":"struct BondUtils.BondData","components":[{"name":"currencyToken","type":"address","internalType":"address"},{"name":"steps","type":"tuple[]","internalType":"struct IBondingCurveModel.BondingCurveStep[]","components":[{"name":"rangeMax","type":"uint128","internalType":"uint128"},{"name":"coefficient","type":"uint128","internalType":"uint128"}]},{"name":"currencyBalance","type":"uint256","internalType":"uint256"},{"name":"currentSupply","type":"uint256","internalType":"uint256"},{"name":"currentPrice","type":"uint256","internalType":"uint256"},{"name":"consumePrice","type":"uint256","internalType":"uint256"},{"name":"unclaimed","type":"tuple","internalType":"struct BondUtils.UnclaimedFees","components":[{"name":"mint","type":"uint256","internalType":"uint256"},{"name":"burn","type":"uint256","internalType":"uint256"},{"name":"consume","type":"uint256","internalType":"uint256"},{"name":"royalties","type":"uint256","internalType":"uint256"},{"name":"undistributedRoyalties","type":"uint256","internalType":"uint256"}]},{"name":"count","type":"tuple","internalType":"struct BondUtils.BondCount","components":[{"name":"minted","type":"uint256","internalType":"uint256"},{"name":"burned","type":"uint256","internalType":"uint256"},{"name":"consumed","type":"uint256","internalType":"uint256"}]}]},{"name":"feeModel","type":"address","internalType":"address"},{"name":"tapeModel","type":"address","internalType":"address"},{"name":"cartridgeOwner","type":"address","internalType":"address"},{"name":"tapeCreator","type":"address","internalType":"address"},{"name":"tapeOutputData","type":"bytes","internalType":"bytes"}],"stateMutability":"view"},{"type":"function","name":"tapeBondsCreated","inputs":[{"name":"","type":"uint256","internalType":"uint256"}],"outputs":[{"name":"","type":"bytes32","internalType":"bytes32"}],"stateMutability":"view"},{"type":"function","name":"tapeModelAddress","inputs":[],"outputs":[{"name":"","type":"address","internalType":"address"}],"stateMutability":"view"},{"type":"function","name":"tapeOwnershipModelAddress","inputs":[],"outputs":[{"name":"","type":"address","internalType":"address"}],"stateMutability":"view"},{"type":"function","name":"tapesCount","inputs":[],"outputs":[{"name":"","type":"uint256","internalType":"uint256"}],"stateMutability":"view"},{"type":"function","name":"totalTapes","inputs":[],"outputs":[{"name":"","type":"uint256","internalType":"uint256"}],"stateMutability":"view"},{"type":"function","name":"transferOwnership","inputs":[{"name":"newOwner","type":"address","internalType":"address"}],"outputs":[],"stateMutability":"nonpayable"},{"type":"function","name":"updateBondingCurveParams","inputs":[{"name":"newCurrencyToken","type":"address","internalType":"address"},{"name":"newFeeModel","type":"address","internalType":"address"},{"name":"newTapeModel","type":"address","internalType":"address"},{"name":"newTapeOwnershipModelAddress","type":"address","internalType":"address"},{"name":"newTapeBondingCurveModelAddress","type":"address","internalType":"address"},{"name":"newMaxSupply","type":"uint128","internalType":"uint128"},{"name":"stepRangesMax","type":"uint128[]","internalType":"uint128[]"},{"name":"stepCoefficients","type":"uint128[]","internalType":"uint128[]"}],"outputs":[],"stateMutability":"nonpayable"},{"type":"function","name":"updateProtocolWallet","inputs":[{"name":"newProtocolWallet","type":"address","internalType":"address"}],"outputs":[],"stateMutability":"nonpayable"},{"type":"function","name":"uri","inputs":[{"name":"","type":"uint256","internalType":"uint256"}],"outputs":[{"name":"","type":"string","internalType":"string"}],"stateMutability":"view"},{"type":"function","name":"validateTape","inputs":[{"name":"dapp","type":"address","internalType":"address"},{"name":"tapeId","type":"bytes32","internalType":"bytes32"},{"name":"_payload","type":"bytes","internalType":"bytes"},{"name":"_v","type":"tuple","internalType":"struct Proof","components":[{"name":"validity","type":"tuple","internalType":"struct OutputValidityProof","components":[{"name":"inputIndexWithinEpoch","type":"uint64","internalType":"uint64"},{"name":"outputIndexWithinInput","type":"uint64","internalType":"uint64"},{"name":"outputHashesRootHash","type":"bytes32","internalType":"bytes32"},{"name":"vouchersEpochRootHash","type":"bytes32","internalType":"bytes32"},{"name":"noticesEpochRootHash","type":"bytes32","internalType":"bytes32"},{"name":"machineStateHash","type":"bytes32","internalType":"bytes32"},{"name":"outputHashInOutputHashesSiblings","type":"bytes32[]","internalType":"bytes32[]"},{"name":"outputHashesInEpochSiblings","type":"bytes32[]","internalType":"bytes32[]"}]},{"name":"context","type":"bytes","internalType":"bytes"}]}],"outputs":[{"name":"","type":"bytes32","internalType":"bytes32"}],"stateMutability":"nonpayable"},{"type":"function","name":"validateTapeCustom","inputs":[{"name":"dapp","type":"address","internalType":"address"},{"name":"tapeId","type":"bytes32","internalType":"bytes32"},{"name":"_payload","type":"bytes","internalType":"bytes"},{"name":"_v","type":"tuple","internalType":"struct Proof","components":[{"name":"validity","type":"tuple","internalType":"struct OutputValidityProof","components":[{"name":"inputIndexWithinEpoch","type":"uint64","internalType":"uint64"},{"name":"outputIndexWithinInput","type":"uint64","internalType":"uint64"},{"name":"outputHashesRootHash","type":"bytes32","internalType":"bytes32"},{"name":"vouchersEpochRootHash","type":"bytes32","internalType":"bytes32"},{"name":"noticesEpochRootHash","type":"bytes32","internalType":"bytes32"},{"name":"machineStateHash","type":"bytes32","internalType":"bytes32"},{"name":"outputHashInOutputHashesSiblings","type":"bytes32[]","internalType":"bytes32[]"},{"name":"outputHashesInEpochSiblings","type":"bytes32[]","internalType":"bytes32[]"}]},{"name":"context","type":"bytes","internalType":"bytes"}]},{"name":"stepRangesMax","type":"uint128[]","internalType":"uint128[]"},{"name":"stepCoefficients","type":"uint128[]","internalType":"uint128[]"}],"outputs":[{"name":"","type":"bytes32","internalType":"bytes32"}],"stateMutability":"nonpayable"},{"type":"function","name":"withdrawBalance","inputs":[{"name":"token","type":"address","internalType":"address"},{"name":"amount","type":"uint256","internalType":"uint256"}],"outputs":[],"stateMutability":"nonpayable"},{"type":"event","name":"ApprovalForAll","inputs":[{"name":"account","type":"address","indexed":true,"internalType":"address"},{"name":"operator","type":"address","indexed":true,"internalType":"address"},{"name":"approved","type":"bool","indexed":false,"internalType":"bool"}],"anonymous":false},{"type":"event","name":"Bond","inputs":[{"name":"id","type":"bytes32","indexed":true,"internalType":"bytes32"},{"name":"token","type":"address","indexed":true,"internalType":"address"},{"name":"currentPrice","type":"uint256","indexed":false,"internalType":"uint256"},{"name":"currentSupply","type":"uint256","indexed":false,"internalType":"uint256"},{"name":"currentBalance","type":"uint256","indexed":false,"internalType":"uint256"}],"anonymous":false},{"type":"event","name":"Buy","inputs":[{"name":"id","type":"bytes32","indexed":true,"internalType":"bytes32"},{"name":"user","type":"address","indexed":true,"internalType":"address"},{"name":"amountMinted","type":"uint256","indexed":false,"internalType":"uint256"},{"name":"pricePayed","type":"uint256","indexed":false,"internalType":"uint256"}],"anonymous":false},{"type":"event","name":"Consume","inputs":[{"name":"id","type":"bytes32","indexed":true,"internalType":"bytes32"},{"name":"user","type":"address","indexed":true,"internalType":"address"},{"name":"amountConsumed","type":"uint256","indexed":false,"internalType":"uint256"},{"name":"currencyDonated","type":"uint256","indexed":false,"internalType":"uint256"}],"anonymous":false},{"type":"event","name":"OwnershipTransferred","inputs":[{"name":"previousOwner","type":"address","indexed":true,"internalType":"address"},{"name":"newOwner","type":"address","indexed":true,"internalType":"address"}],"anonymous":false},{"type":"event","name":"Reward","inputs":[{"name":"id","type":"bytes32","indexed":true,"internalType":"bytes32"},{"name":"user","type":"address","indexed":true,"internalType":"address"},{"name":"token","type":"address","indexed":true,"internalType":"address"},{"name":"rewardType","type":"uint8","indexed":false,"internalType":"enum BondUtils.RewardType"},{"name":"amount","type":"uint256","indexed":false,"internalType":"uint256"}],"anonymous":false},{"type":"event","name":"Sell","inputs":[{"name":"id","type":"bytes32","indexed":true,"internalType":"bytes32"},{"name":"user","type":"address","indexed":true,"internalType":"address"},{"name":"amountBurned","type":"uint256","indexed":false,"internalType":"uint256"},{"name":"refundReceived","type":"uint256","indexed":false,"internalType":"uint256"}],"anonymous":false},{"type":"event","name":"TransferBatch","inputs":[{"name":"operator","type":"address","indexed":true,"internalType":"address"},{"name":"from","type":"address","indexed":true,"internalType":"address"},{"name":"to","type":"address","indexed":true,"internalType":"address"},{"name":"ids","type":"uint256[]","indexed":false,"internalType":"uint256[]"},{"name":"values","type":"uint256[]","indexed":false,"internalType":"uint256[]"}],"anonymous":false},{"type":"event","name":"TransferSingle","inputs":[{"name":"operator","type":"address","indexed":true,"internalType":"address"},{"name":"from","type":"address","indexed":true,"internalType":"address"},{"name":"to","type":"address","indexed":true,"internalType":"address"},{"name":"id","type":"uint256","indexed":false,"internalType":"uint256"},{"name":"value","type":"uint256","indexed":false,"internalType":"uint256"}],"anonymous":false},{"type":"event","name":"URI","inputs":[{"name":"value","type":"string","indexed":false,"internalType":"string"},{"name":"id","type":"uint256","indexed":true,"internalType":"uint256"}],"anonymous":false},{"type":"error","name":"Bond__InvalidAmount","inputs":[]},{"type":"error","name":"ERC1155InsufficientBalance","inputs":[{"name":"sender","type":"address","internalType":"address"},{"name":"balance","type":"uint256","internalType":"uint256"},{"name":"needed","type":"uint256","internalType":"uint256"},{"name":"tokenId","type":"uint256","internalType":"uint256"}]},{"type":"error","name":"ERC1155InvalidApprover","inputs":[{"name":"approver","type":"address","internalType":"address"}]},{"type":"error","name":"ERC1155InvalidArrayLength","inputs":[{"name":"idsLength","type":"uint256","internalType":"uint256"},{"name":"valuesLength","type":"uint256","internalType":"uint256"}]},{"type":"error","name":"ERC1155InvalidOperator","inputs":[{"name":"operator","type":"address","internalType":"address"}]},{"type":"error","name":"ERC1155InvalidReceiver","inputs":[{"name":"receiver","type":"address","internalType":"address"}]},{"type":"error","name":"ERC1155InvalidSender","inputs":[{"name":"sender","type":"address","internalType":"address"}]},{"type":"error","name":"ERC1155MissingApprovalForAll","inputs":[{"name":"operator","type":"address","internalType":"address"},{"name":"owner","type":"address","internalType":"address"}]},{"type":"error","name":"OwnableInvalidOwner","inputs":[{"name":"owner","type":"address","internalType":"address"}]},{"type":"error","name":"OwnableUnauthorizedAccount","inputs":[{"name":"account","type":"address","internalType":"address"}]},{"type":"error","name":"Tape__ChangeError","inputs":[]},{"type":"error","name":"Tape__InsufficientFunds","inputs":[]},{"type":"error","name":"Tape__InvalidDapp","inputs":[]},{"type":"error","name":"Tape__InvalidOwner","inputs":[]},{"type":"error","name":"Tape__InvalidTape","inputs":[{"name":"reason","type":"string","internalType":"string"}]},{"type":"error","name":"Tape__InvalidUser","inputs":[]},{"type":"error","name":"Tape__NotFound","inputs":[]},{"type":"error","name":"Tape__SlippageLimitExceeded","inputs":[]}],"bytecode":{"object":"0x60a06040523480156200001157600080fd5b5060405162006a8d38038062006a8d833981016040819052620000349162000679565b60408051602081019091526000815233906200005081620000e4565b506001600160a01b0381166200008057604051631e4fbdf760e01b81526000600482015260240160405180910390fd5b6200008b81620000f6565b50600c80546001600160a01b03808e166001600160a01b03199283161790925560808c90526008805492871692909116919091179055620000d3898989898988888862000148565b505050505050505050505062000a9c565b6002620000f282826200081d565b5050565b600380546001600160a01b038381166001600160a01b0319831681179093556040519116919082907f8be0079c531659141344cd1fd0a4f28419497f9722a3daafe3b4186f6b6457e090600090a35050565b60085460405163169f6b0560e11b81526001600160a01b038a8116600483015290911690632d3ed60a9060240160006040518083038186803b1580156200018e57600080fd5b505afa158015620001a3573d6000803e3d6000fd5b505060085460405163f610a03960e01b81526001600160a01b038b81166004830152909116925063f610a039915060240160006040518083038186803b158015620001ed57600080fd5b505afa15801562000202573d6000803e3d6000fd5b505060085460405163f8e0044b60e01b81526001600160a01b038a81166004830152909116925063f8e0044b915060240160006040518083038186803b1580156200024c57600080fd5b505afa15801562000261573d6000803e3d6000fd5b505060085460405163130d243760e21b81526001600160a01b0389811660048301529091169250634c3490dc915060240160006040518083038186803b158015620002ab57600080fd5b505afa158015620002c0573d6000803e3d6000fd5b5050608051604051638716824d60e01b81526001600160a01b0388169350638716824d9250620002f891908690869060040162000930565b60006040518083038186803b1580156200031157600080fd5b505afa15801562000326573d6000803e3d6000fd5b50505050600460006200033a9190620004ec565b604051630a68458760e11b81526000906001600160a01b038616906314d08b0e9062000371908490879087908a9060040162000969565b600060405180830381865afa1580156200038f573d6000803e3d6000fd5b505050506040513d6000823e601f3d908101601f19168201604052620003b99190810190620009b2565b905060005b8151811015620004695760046040518060400160405280848481518110620003ea57620003ea62000a86565b6020026020010151600001516001600160801b0316815260200184848151811062000419576200041962000a86565b6020908102919091018101518101516001600160801b03908116909252835460018181018655600095865294829020845194909201518316600160801b02939092169290921791015501620003be565b5050600580546001600160a01b03199081166001600160a01b039a8b1617909155600680548216988a169890981790975550506007805486169487169490941790935560098054851692861692909217909155600a80549093169316929092179055600b80546001600160801b0319166001600160801b03909216919091179055565b50805460008255906000526020600020908101906200050c91906200050f565b50565b5b8082111562000526576000815560010162000510565b5090565b80516001600160a01b03811681146200054257600080fd5b919050565b80516001600160801b03811681146200054257600080fd5b634e487b7160e01b600052604160045260246000fd5b604080519081016001600160401b03811182821017156200059a576200059a6200055f565b60405290565b604051601f8201601f191681016001600160401b0381118282101715620005cb57620005cb6200055f565b604052919050565b60006001600160401b03821115620005ef57620005ef6200055f565b5060051b60200190565b600082601f8301126200060b57600080fd5b81516020620006246200061e83620005d3565b620005a0565b8083825260208201915060208460051b8701019350868411156200064757600080fd5b602086015b848110156200066e57620006608162000547565b83529183019183016200064c565b509695505050505050565b60008060008060008060008060008060006101608c8e0312156200069c57600080fd5b620006a78c6200052a565b9a5060208c01519950620006be60408d016200052a565b9850620006ce60608d016200052a565b9750620006de60808d016200052a565b9650620006ee60a08d016200052a565b9550620006fe60c08d016200052a565b94506200070e60e08d016200052a565b93506200071f6101008d0162000547565b6101208d01519093506001600160401b038111156200073d57600080fd5b6200074b8e828f01620005f9565b6101408e015190935090506001600160401b038111156200076b57600080fd5b620007798e828f01620005f9565b9150509295989b509295989b9093969950565b600181811c90821680620007a157607f821691505b602082108103620007c257634e487b7160e01b600052602260045260246000fd5b50919050565b601f82111562000818576000816000526020600020601f850160051c81016020861015620007f35750805b601f850160051c820191505b818110156200081457828155600101620007ff565b5050505b505050565b81516001600160401b038111156200083957620008396200055f565b62000851816200084a84546200078c565b84620007c8565b602080601f831160018114620008895760008415620008705750858301515b600019600386901b1c1916600185901b17855562000814565b600085815260208120601f198616915b82811015620008ba5788860151825594840194600190910190840162000899565b5085821015620008d95787850151600019600388901b60f8161c191681555b5050505050600190811b01905550565b60008151808452602080850194506020840160005b83811015620009255781516001600160801b031687529582019590820190600101620008fe565b509495945050505050565b8381526060602082015260006200094b6060830185620008e9565b82810360408401526200095f8185620008e9565b9695505050505050565b848152608060208201526000620009846080830186620008e9565b8281036040840152620009988186620008e9565b91505060018060801b038316606083015295945050505050565b60006020808385031215620009c657600080fd5b82516001600160401b03811115620009dd57600080fd5b8301601f81018513620009ef57600080fd5b805162000a006200061e82620005d3565b81815260069190911b8201830190838101908783111562000a2057600080fd5b928401925b8284101562000a7b576040848903121562000a405760008081fd5b62000a4a62000575565b62000a558562000547565b815262000a6486860162000547565b818701528252604093909301929084019062000a25565b979650505050505050565b634e487b7160e01b600052603260045260246000fd5b608051615fd562000ab860003960006139340152615fd56000f3fe6080604052600436106102665760003560e01c8063828ef8d911610144578063c5b67e81116100b6578063e985e9c51161007a578063e985e9c51461081b578063eb596d011461083b578063f242432a1461085b578063f2fde38b1461087b578063fa1c4db61461089b578063fabe3824146108db57600080fd5b8063c5b67e8114610786578063d3c3b3891461079b578063d5abeb01146107bb578063e308a099146107db578063e5a41243146107fb57600080fd5b8063a22cb46511610108578063a22cb46514610699578063ad74b775146106b9578063b16cae66146106f1578063b495bbb014610711578063b7f012df14610731578063bbfef0881461075157600080fd5b8063828ef8d9146105de5780638da5cb5b146105fe5780638f8b185b1461061c5780639165f8431461064e5780639ba01fbe1461066157600080fd5b80633ab03c8b116101dd578063715018a6116101a1578063715018a6146104d4578063724969e7146104e9578063787ca43814610524578063796aea77146105545780637da36046146105a95780637fb90ea6146105c957600080fd5b80633ab03c8b146104275780633b6e02af146104475780634e1273f4146104675780635db8076c146104945780636a386ed2146104b457600080fd5b80630e89341c1161022f5780630e89341c1461033057806322f046b51461035d57806327b7ca5f146103955780632eb2c2d6146103b557806338a699a4146103d55780633a18c8d01461040757600080fd5b8062fdd58e1461026b57806301ffc9a71461029e57806302fe5305146102ce57806307974110146102f05780630cf20cc914610310575b600080fd5b34801561027757600080fd5b5061028b610286366004614acf565b6108fb565b6040519081526020015b60405180910390f35b3480156102aa57600080fd5b506102be6102b9366004614b11565b610923565b6040519015158152602001610295565b3480156102da57600080fd5b506102ee6102e9366004614b76565b610973565b005b3480156102fc57600080fd5b5061028b61030b366004614bc9565b6109be565b34801561031c57600080fd5b506102ee61032b366004614acf565b6109e0565b34801561033c57600080fd5b5061035061034b366004614c4e565b610bd9565b6040516102959190614cad565b34801561036957600080fd5b5060095461037d906001600160a01b031681565b6040516001600160a01b039091168152602001610295565b3480156103a157600080fd5b506102ee6103b0366004614cc0565b610c6d565b3480156103c157600080fd5b506102ee6103d0366004614e4c565b610cd3565b3480156103e157600080fd5b506102be6103f0366004614c4e565b6000908152600d6020526040902060010154151590565b34801561041357600080fd5b506102ee610422366004614f74565b610d3f565b34801561043357600080fd5b5060065461037d906001600160a01b031681565b34801561045357600080fd5b50600a5461037d906001600160a01b031681565b34801561047357600080fd5b50610487610482366004614fe0565b610e6b565b60405161029591906150dd565b3480156104a057600080fd5b506102ee6104af3660046150f0565b610f37565b3480156104c057600080fd5b5060075461037d906001600160a01b031681565b3480156104e057600080fd5b506102ee611064565b3480156104f557600080fd5b50610509610504366004615120565b611078565b60408051938452602084019290925290820152606001610295565b34801561053057600080fd5b506102be61053f366004614cc0565b60106020526000908152604090205460ff1681565b34801561056057600080fd5b5061057461056f366004614c4e565b611414565b604080519788526020880196909652948601939093526060850191909152608084015260a083015260c082015260e001610295565b3480156105b557600080fd5b506102ee6105c4366004615142565b611520565b3480156105d557600080fd5b50600e5461028b565b3480156105ea57600080fd5b5061028b6105f9366004615213565b611542565b34801561060a57600080fd5b506003546001600160a01b031661037d565b34801561062857600080fd5b5061063c610637366004614c4e565b611a79565b6040516102959695949392919061533c565b61028b61065c366004615213565b611c75565b34801561066d57600080fd5b5061068161067c366004614c4e565b612139565b6040516001600160801b039091168152602001610295565b3480156106a557600080fd5b506102ee6106b43660046153a3565b612184565b3480156106c557600080fd5b5061028b6106d43660046153d1565b600f60209081526000928352604080842090915290825290205481565b3480156106fd57600080fd5b5061050961070c366004615120565b61218f565b34801561071d57600080fd5b5061028b61072c366004615120565b612517565b34801561073d57600080fd5b5061028b61074c3660046153ff565b612846565b34801561075d57600080fd5b5061077161076c366004615120565b61286c565b60408051928352602083019190915201610295565b34801561079257600080fd5b5061028b612b44565b3480156107a757600080fd5b5060055461037d906001600160a01b031681565b3480156107c757600080fd5b50600b54610681906001600160801b031681565b3480156107e757600080fd5b506102ee6107f6366004614cc0565b612be9565b34801561080757600080fd5b506102ee610816366004614c4e565b612c3f565b34801561082757600080fd5b506102be6108363660046153d1565b612d47565b34801561084757600080fd5b5061028b610856366004614c4e565b612d75565b34801561086757600080fd5b506102ee6108763660046154cb565b612d96565b34801561088757600080fd5b506102ee610896366004614cc0565b612df5565b3480156108a757600080fd5b506108bb6108b6366004614c4e565b612e33565b604080516001600160801b03938416815292909116602083015201610295565b3480156108e757600080fd5b5060085461037d906001600160a01b031681565b6000818152602081815260408083206001600160a01b03861684529091529020545b92915050565b60006001600160e01b03198216636cdb3d1360e11b148061095457506001600160e01b031982166303a24d0760e21b145b8061091d57506301ffc9a760e01b6001600160e01b031983161461091d565b61097b612e68565b6109ba82828080601f016020809104026020016040519081016040528093929190818152602001838380828437600092019190915250612e9592505050565b5050565b60006109c985612c3f565b6109d68686868686612ea1565b9695505050505050565b336000818152600f602090815260408083206001600160a01b0387168452909152902054821115610a24576040516368d134dd60e11b815260040160405180910390fd5b6001600160a01b038082166000908152600f6020908152604080832093871683529290529081208054849290610a5b908490615549565b90915550506001600160a01b03831615610b605760405163095ea7b360e01b8152306004820152602481018390526001600160a01b0384169063095ea7b3906044016020604051808303816000875af1158015610abc573d6000803e3d6000fd5b505050506040513d601f19601f82011682018060405250810190610ae0919061555c565b506040516323b872dd60e01b81523060048201526001600160a01b038281166024830152604482018490528416906323b872dd906064016020604051808303816000875af1158015610b36573d6000803e3d6000fd5b505050506040513d601f19601f82011682018060405250810190610b5a919061555c565b50505050565b6000816001600160a01b03168360405160006040518083038185875af1925050503d8060008114610bad576040519150601f19603f3d011682016040523d82523d6000602084013e610bb2565b606091505b5050905080610b5a5760405163f570efeb60e01b815260040160405180910390fd5b505050565b606060028054610be890615579565b80601f0160208091040260200160405190810160405280929190818152602001828054610c1490615579565b8015610c615780601f10610c3657610100808354040283529160200191610c61565b820191906000526020600020905b815481529060010190602001808311610c4457829003601f168201915b50505050509050919050565b610c75612e68565b6001600160a01b03811660009081526010602052604090205460ff1615610caf57604051631c3265c360e31b815260040160405180910390fd5b6001600160a01b03166000908152601060205260409020805460ff19166001179055565b336001600160a01b0386168114801590610cf45750610cf28682612d47565b155b15610d2a5760405163711bec9160e11b81526001600160a01b038083166004830152871660248201526044015b60405180910390fd5b610d378686868686613533565b505050505050565b60095460405163273bed1d60e21b81523360048201526024810185905284916001600160a01b031690639cefb47490604401602060405180830381865afa158015610d8e573d6000803e3d6000fd5b505050506040513d601f19601f82011682018060405250810190610db2919061555c565b610dcf576040516313bb0a7760e11b815260040160405180910390fd5b600a54600b54604051630a68458760e11b81526000926001600160a01b0316916314d08b0e91610e13918991899189916001600160801b03909116906004016155e7565b600060405180830381865afa158015610e30573d6000803e3d6000fd5b505050506040513d6000823e601f3d908101601f19168201604052610e58919081019061562d565b9050610e648582613593565b5050505050565b60608151835114610e9c5781518351604051635b05999160e01b815260048101929092526024820152604401610d21565b600083516001600160401b03811115610eb757610eb7614cdd565b604051908082528060200260200182016040528015610ee0578160200160208202803683370190505b50905060005b8451811015610f2f57602080820286010151610f0a906020808402870101516108fb565b828281518110610f1c57610f1c6156f5565b6020908102919091010152600101610ee6565b509392505050565b610f3f612e68565b6000828152600d60205260408120600101549003610f7057604051631d8ce09b60e31b815260040160405180910390fd5b6000828152600d602052604081206012018054610f8c90615579565b90501115610fd6576040516329c45f6760e01b815260206004820152601660248201527515185c1948185b1c9958591e481d985b1a59185d195960521b6044820152606401610d21565b60085460405163f8e0044b60e01b81526001600160a01b0383811660048301529091169063f8e0044b9060240160006040518083038186803b15801561101b57600080fd5b505afa15801561102f573d6000803e3d6000fd5b505050600092835250600d6020526040909120600f0180546001600160a01b0319166001600160a01b03909216919091179055565b61106c612e68565b611076600061374a565b565b6000828152600d60205260408120600101548190819081036110ad57604051631d8ce09b60e31b815260040160405180910390fd5b6000858152600d6020908152604080832081516101c08101835281546001600160a01b031660c082019081526001830180548551818802810188019096528086529295939486949293869360e087019391908a9084015b8282101561114d57600084815260209081902060408051808201909152908401546001600160801b038082168352600160801b9091041681830152825260019092019101611104565b505050908252506002820154602080830191909152600383015460408084019190915260048401546060808501919091526005850154608080860191909152825160a0818101855260068801548252600788015482870152600888015482860152600988015482850152600a880154828401528087019190915283518084018552600b8801548152600c88015481870152600d909701548785015260c090950195909552948652600e8701546001600160a01b0390811692870192909252600f8701548216908601526010860154811693850193909352601185015490921690830152601283018054929091019161124490615579565b80601f016020809104026020016040519081016040528092919081815260200182805461127090615579565b80156112bd5780601f10611292576101008083540402835291602001916112bd565b820191906000526020600020905b8154815290600101906020018083116112a057829003601f168201915b50505091909252505060085482516040516369db39e760e11b81529394506000938493506001600160a01b039092169163d3b673ce91611302918b919060040161570b565b6040805180830381865afa15801561131e573d6000803e3d6000fd5b505050506040513d601f19601f82011682018060405250810190611342919061572c565b9150915060008060008086602001516001600160a01b03166370f986fd8c886040518363ffffffff1660e01b8152600401611387929190918252602082015260400190565b608060405180830381865afa1580156113a4573d6000803e3d6000fd5b505050506040513d601f19601f820116820180604052508101906113c89190615750565b93509350935093506000818385876113e09190615786565b6113ea9190615786565b6113f49190615786565b90506114008188615786565b9a5098509396505050505050509250925092565b6000806000806000806000600d6000898152602001908152602001600020601201805461144090615579565b9050600003611483576040516329c45f6760e01b815260206004820152600e60248201526d746170654f75747075744461746160901b6044820152606401610d21565b6000888152600d602052604090819020600f810154915163c827650360e01b81526001600160a01b039092169163c8276503916114c891601290910190600401615799565b60e060405180830381865afa1580156114e5573d6000803e3d6000fd5b505050506040513d601f19601f820116820180604052508101906115099190615829565b959e949d50929b5090995097509550909350915050565b611528612e68565b611538888888888888888861379c565b5050505050505050565b6000838152600d60205260408120600101548490820361157557604051631d8ce09b60e31b815260040160405180910390fd5b6000336000878152600d60205260408082206008549151635e15de9560e11b81529394509282916001600160a01b03169063bc2bbd2a906115bc908b9087906004016158c6565b6040805180830381865afa1580156115d8573d6000803e3d6000fd5b505050506040513d601f19601f820116820180604052508101906115fc919061572c565b600e85015460405163f5b0402760e01b8152600481018c9052602481018490529294509092506000918291829182916001600160a01b03169063f5b0402790604401608060405180830381865afa15801561165b573d6000803e3d6000fd5b505050506040513d601f19601f8201168201806040525081019061167f9190615750565b93509350935093506000818385876116979190615786565b6116a19190615786565b6116ab9190615786565b6116b59088615549565b90508b8110156116d857604051636bdbc20960e11b815260040160405180910390fd5b6116e3898f8f613b4c565b868860000160020160008282546116fa9190615549565b90915550506003880180548e9190600090611716908490615549565b9091555050600c880180548e9190600090611732908490615786565b90915550506004880186905561174a8e858585613bb4565b9195509350915061175b8484615786565b60078901805460009061176f908490615786565b9091555050600a8801805483919060009061178b908490615786565b9091555050600c546001600160a01b039081166000908152600f602090815260408083208c54909416835292905290812080548792906117cc908490615786565b925050819055508760000160000160009054906101000a90046001600160a01b03166001600160a01b0316600c60009054906101000a90046001600160a01b03166001600160a01b03168f600080516020615f80833981519152600089604051611837929190615995565b60405180910390a487546001600160a01b03161561194657875460405163095ea7b360e01b8152306004820152602481018390526001600160a01b039091169063095ea7b3906044016020604051808303816000875af115801561189f573d6000803e3d6000fd5b505050506040513d601f19601f820116820180604052508101906118c3919061555c565b5087546040516323b872dd60e01b81523060048201526001600160a01b038b8116602483015260448201849052909116906323b872dd906064016020604051808303816000875af115801561191c573d6000803e3d6000fd5b505050506040513d601f19601f82011682018060405250810190611940919061555c565b506119bc565b6000896001600160a01b03168260405160006040518083038185875af1925050503d8060008114611993576040519150601f19603f3d011682016040523d82523d6000602084013e611998565b606091505b50509050806119ba5760405163f570efeb60e01b815260040160405180910390fd5b505b886001600160a01b03168e7f47d38b8b50e4b792e507faad951cda2457545e704f667a3e32f22541945ebbf68f84604051611a01929190918252602082015260400190565b60405180910390a38754600489015460038a015460028b0154604080519384526020840192909252908201526001600160a01b03909116908f907f2e67857c5e095aa37c99fc8a2a3d065e50197554891c3cf1f318b1996b66469c9060600160405180910390a39d9c50505050505050505050505050565b600d60209081526000918252604080832081516101008101835281546001600160a01b03168152600182018054845181870281018701909552808552929591948694868201949093909184015b82821015611b0f57600084815260209081902060408051808201909152908401546001600160801b038082168352600160801b9091041681830152825260019092019101611ac6565b505050908252506002820154602080830191909152600383015460408084019190915260048401546060808501919091526005850154608080860191909152825160a0808201855260068801548252600788015482870152600888015482860152600988015482850152600a880154928201929092529085015281519081018252600b8501548152600c85015492810192909252600d909301549281019290925260c00152600e820154600f8301546010840154601185015460128601805495966001600160a01b039586169694861695938416949390921692611bf290615579565b80601f0160208091040260200160405190810160405280929190818152602001828054611c1e90615579565b8015611c6b5780601f10611c4057610100808354040283529160200191611c6b565b820191906000526020600020905b815481529060010190602001808311611c4e57829003601f168201915b5050505050905086565b6000838152600d602052604081206001015484908203611ca857604051631d8ce09b60e31b815260040160405180910390fd5b6000336000878152600d602052604080822060085491516369db39e760e11b81529394509282916001600160a01b03169063d3b673ce90611cef908b9087906004016158c6565b6040805180830381865afa158015611d0b573d6000803e3d6000fd5b505050506040513d601f19601f82011682018060405250810190611d2f919061572c565b9150915060008060008086600001600101600081548110611d5257611d526156f5565b600091825260209091200154600160801b90046001600160801b031615611df457600e8701546040516370f986fd60e01b8152600481018e9052602481018890526001600160a01b03909116906370f986fd90604401608060405180830381865afa158015611dc5573d6000803e3d6000fd5b505050506040513d601f19601f82011682018060405250810190611de99190615750565b929650909450925090505b6000818385611e03888b615786565b611e0d9190615786565b611e179190615786565b611e219190615786565b90508b811115611e4457604051636bdbc20960e11b815260040160405180910390fd5b87546001600160a01b031615611ed65787546040516323b872dd60e01b81526001600160a01b038b8116600483015230602483015260448201849052909116906323b872dd906064016020604051808303816000875af1158015611eac573d6000803e3d6000fd5b505050506040513d601f19601f82011682018060405250810190611ed0919061555c565b50611f7a565b80341015611ef75760405163bd9c85bb60e01b815260040160405180910390fd5b80341115611f7a5760006001600160a01b038a16611f158334615549565b604051600081818185875af1925050503d8060008114611f51576040519150601f19603f3d011682016040523d82523d6000602084013e611f56565b606091505b5050905080611f785760405163f570efeb60e01b815260040160405180910390fd5b505b86886000016002016000828254611f919190615786565b90915550506003880180548e9190600090611fad908490615786565b9091555050600b880180548e9190600090611fc9908490615786565b909155505060048801869055611fe18e858585613bb4565b91955093509150611ff28484615786565b600689018054600090612006908490615786565b9091555050600a88018054839190600090612022908490615786565b9091555050600c546001600160a01b039081166000908152600f602090815260408083208c5490941683529290529081208054879290612063908490615786565b925050819055508760000160000160009054906101000a90046001600160a01b03166001600160a01b0316600c60009054906101000a90046001600160a01b03166001600160a01b03168f600080516020615f808339815191526000896040516120ce929190615995565b60405180910390a46120f4898f60001c8f60405180602001604052806000815250614111565b886001600160a01b03168e7f5bd6f821d5961785d719543640cf62d3770f94e59db1a2f3c2250d72b122dddf8f84604051611a01929190918252602082015260400190565b6000818152600d6020526040812060019081018054909161215991615549565b81548110612169576121696156f5565b6000918252602090912001546001600160801b031692915050565b6109ba33838361416e565b6000828152600d60205260408120600101548190819081036121c457604051631d8ce09b60e31b815260040160405180910390fd5b6000858152600d6020908152604080832081516101c08101835281546001600160a01b031660c082019081526001830180548551818802810188019096528086529295939486949293869360e087019391908a9084015b8282101561226457600084815260209081902060408051808201909152908401546001600160801b038082168352600160801b909104168183015282526001909201910161221b565b505050908252506002820154602080830191909152600383015460408084019190915260048401546060808501919091526005850154608080860191909152825160a0818101855260068801548252600788015482870152600888015482860152600988015482850152600a880154828401528087019190915283518084018552600b8801548152600c88015481870152600d909701548785015260c090950195909552948652600e8701546001600160a01b0390811692870192909252600f8701548216908601526010860154811693850193909352601185015490921690830152601283018054929091019161235b90615579565b80601f016020809104026020016040519081016040528092919081815260200182805461238790615579565b80156123d45780601f106123a9576101008083540402835291602001916123d4565b820191906000526020600020905b8154815290600101906020018083116123b757829003601f168201915b5050509190925250506008548251604051635e15de9560e11b81529394506000938493506001600160a01b039092169163bc2bbd2a91612419918b919060040161570b565b6040805180830381865afa158015612435573d6000803e3d6000fd5b505050506040513d601f19601f82011682018060405250810190612459919061572c565b9150915060008060008086602001516001600160a01b031663f5b040278c886040518363ffffffff1660e01b815260040161249e929190918252602082015260400190565b608060405180830381865afa1580156124bb573d6000803e3d6000fd5b505050506040513d601f19601f820116820180604052508101906124df9190615750565b93509350935093506000818385876124f79190615786565b6125019190615786565b61250b9190615786565b90506114008188615549565b6000828152600d60205260408120600101548390820361254a57604051631d8ce09b60e31b815260040160405180910390fd5b6000336000868152600d60205260408082206008549151633ac2ef4160e21b81529394509282916001600160a01b03169063eb0bbd0490612591908a9087906004016158c6565b6040805180830381865afa1580156125ad573d6000803e3d6000fd5b505050506040513d601f19601f820116820180604052508101906125d1919061572c565b600e850154604051630c1d341f60e31b8152600481018490529294509092506000918291829182916001600160a01b0316906360e9a0f890602401608060405180830381865afa158015612629573d6000803e3d6000fd5b505050506040513d601f19601f8201168201806040525081019061264d9190615750565b9350935093509350612663888d60001c8d613b4c565b8a87600001600301600082825461267a9190615549565b9091555050600287018054879190600090612696908490615549565b9091555050600d870180548c91906000906126b2908490615786565b9091555050600587018590556126ca8c848484613bb4565b919450925090506126db8383615786565b6008880180546000906126ef908490615786565b9091555050600a8701805482919060009061270b908490615786565b9091555050600c546001600160a01b039081166000908152600f602090815260408083208b549094168352929052908120805486929061274c908490615786565b90915550508654600c546040516001600160a01b0392831692909116908e90600080516020615f8083398151915290612789906000908a90615995565b60405180910390a4604080518c8152602081018890526001600160a01b038a16918e917fff8a4589f2e064f9b82f2aec48ea80dbf6a8f623d3bd76d954da82ec4ea0079f910160405180910390a386546004880154600389015460028a0154604080519384526020840192909252908201526001600160a01b03909116908d907f2e67857c5e095aa37c99fc8a2a3d065e50197554891c3cf1f318b1996b66469c9060600160405180910390a350939a9950505050505050505050565b6000612853878484610d3f565b6128608888888888612ea1565b98975050505050505050565b6000828152600d60205260408120600101548190810361289f57604051631d8ce09b60e31b815260040160405180910390fd5b6000848152600d6020908152604080832081516101c08101835281546001600160a01b031660c082019081526001830180548551818802810188019096528086529295939486949293869360e087019391908a9084015b8282101561293f57600084815260209081902060408051808201909152908401546001600160801b038082168352600160801b90910416818301528252600190920191016128f6565b505050908252506002820154602080830191909152600383015460408084019190915260048401546060808501919091526005850154608080860191909152825160a0818101855260068801548252600788015482870152600888015482860152600988015482850152600a880154828401528087019190915283518084018552600b8801548152600c88015481870152600d909701548785015260c090950195909552948652600e8701546001600160a01b0390811692870192909252600f87015482169086015260108601548116938501939093526011850154909216908301526012830180549290910191612a3690615579565b80601f0160208091040260200160405190810160405280929190818152602001828054612a6290615579565b8015612aaf5780601f10612a8457610100808354040283529160200191612aaf565b820191906000526020600020905b815481529060010190602001808311612a9257829003601f168201915b5050509190925250506008548251604051633ac2ef4160e21b81529394506000938493506001600160a01b039092169163eb0bbd0491612af4918a919060040161570b565b6040805180830381865afa158015612b10573d6000803e3d6000fd5b505050506040513d601f19601f82011682018060405250810190612b34919061572c565b90955093505050505b9250929050565b60008060005b600e54811015612be357600d6000600e8381548110612b6b57612b6b6156f5565b90600052602060002001548152602001908152602001600020600001600b0160020154600d6000600e8481548110612ba557612ba56156f5565b9060005260206000200154815260200190815260200160002060000160030154612bcf9190615549565b612bd99083615786565b9150600101612b4a565b50919050565b600c546001600160a01b0316336001600160a01b031614612c1d5760405163dcf0398d60e01b815260040160405180910390fd5b600c80546001600160a01b0319166001600160a01b0392909216919091179055565b60095460405163273bed1d60e21b81523360048201526024810183905282916001600160a01b031690639cefb47490604401602060405180830381865afa158015612c8e573d6000803e3d6000fd5b505050506040513d601f19601f82011682018060405250810190612cb2919061555c565b612ccf576040516313bb0a7760e11b815260040160405180910390fd5b6109ba826004805480602002602001604051908101604052809291908181526020016000905b82821015612d3e57600084815260209081902060408051808201909152908401546001600160801b038082168352600160801b9091041681830152825260019092019101612cf5565b50505050613593565b6001600160a01b03918216600090815260016020908152604080832093909416825291909152205460ff1690565b600e8181548110612d8557600080fd5b600091825260209091200154905081565b336001600160a01b0386168114801590612db75750612db58682612d47565b155b15612de85760405163711bec9160e11b81526001600160a01b03808316600483015287166024820152604401610d21565b610d378686868686614204565b612dfd612e68565b6001600160a01b038116612e2757604051631e4fbdf760e01b815260006004820152602401610d21565b612e308161374a565b50565b60048181548110612e4357600080fd5b6000918252602090912001546001600160801b038082169250600160801b9091041682565b6003546001600160a01b031633146110765760405163118cdaa760e01b8152336004820152602401610d21565b60026109ba8282615a09565b6000848152600d60205260408120601281018054612ebe90615579565b159050612f02576040516329c45f6760e01b8152602060048201526011602482015270185b1c9958591e481d985b1a59185d1959607a1b6044820152606401610d21565b6001600160a01b03871660009081526010602052604090205460ff16612f3b57604051631c3265c360e31b815260040160405180910390fd5b604051634b243ea360e11b81526001600160a01b038816906396487d4690612f6b90889088908890600401615bc7565b602060405180830381865afa158015612f88573d6000803e3d6000fd5b505050506040513d601f19601f82011682018060405250810190612fac919061555c565b50600f810154604051630d02d25f60e11b8152600091829182916001600160a01b031690631a05a4be90612fe6908b908b90600401615cc9565b606060405180830381865afa158015613003573d6000803e3d6000fd5b505050506040513d601f19601f820116820180604052508101906130279190615cdd565b925092509250828914613066576040516329c45f6760e01b81526020600482015260066024820152651d185c19525960d21b6044820152606401610d21565b6010840180546001600160a01b038085166001600160a01b03199283161790925560118601805492841692909116919091179055601284016130a9888a83615d20565b50600a84015460068501546000918291156131db57600e870154600b88015460068901546040516370f986fd60e01b81526004810192909252602482015260009182916001600160a01b03909116906370f986fd90604401608060405180830381865afa15801561311e573d6000803e3d6000fd5b505050506040513d601f19601f820116820180604052508101906131429190615750565b5060068c0154919450925090506131598284615786565b111561319c576040516329c45f6760e01b8152602060048201526011602482015270756e636c61696d65644d696e744665657360781b6044820152606401610d21565b6131a68183615786565b60068a0180546000906131ba908490615549565b909155506131ca90508286615786565b94506131d68185615786565b935050505b60078701541561330257600e870154600c880154600789015460405163f5b0402760e01b81526004810192909252602482015260009182916001600160a01b039091169063f5b0402790604401608060405180830381865afa158015613245573d6000803e3d6000fd5b505050506040513d601f19601f820116820180604052508101906132699190615750565b5060078c0154919450925090506132808284615786565b11156132c3576040516329c45f6760e01b8152602060048201526011602482015270756e636c61696d65644275726e4665657360781b6044820152606401610d21565b6132cd8183615786565b60078a0180546000906132e1908490615549565b909155506132f190508286615786565b94506132fd8185615786565b935050505b60098701541561342057600e870154600988015460405163cf54ee1d60e01b815260009283926001600160a01b039091169163cf54ee1d9161334a9160040190815260200190565b6040805180830381865afa158015613366573d6000803e3d6000fd5b505050506040513d601f19601f8201168201806040525081019061338a919061572c565b60098b0154919350915061339e8284615786565b11156133e1576040516329c45f6760e01b8152602060048201526011602482015270756e636c61696d65644275726e4665657360781b6044820152606401610d21565b6133eb8183615786565b60098a0180546000906133ff908490615549565b9091555061340f90508286615786565b945061341b8185615786565b935050505b61342c8c848484613bb4565b5050506009870154600788015460068901546000929161344b91615786565b6134559190615786565b90508015613502576009880154600789015460068a01546134769190615786565b6134809190615786565b600c546001600160a01b039081166000908152600f602090815260408083208d54909416835292905290812080549091906134bc908490615786565b90915550508754600c546040516001600160a01b0392831692909116908f90600080516020615f80833981519152906134f9906003908790615995565b60405180910390a45b50506000600687018190556007870181905560098701819055600a9096019590955550979998505050505050505050565b6001600160a01b03841661355d57604051632bfa23e760e11b815260006004820152602401610d21565b6001600160a01b03851661358657604051626a0d4560e21b815260006004820152602401610d21565b610e648585858585614292565b6000828152600d602052604081206001015490036109ba576000828152600d60205260408120600654600e820180546001600160a01b039283166001600160a01b0319918216179091556005548354908316908216178355600754600f84018054919093169116179055905b82518110156136a75781600001600101604051806040016040528085848151811061362c5761362c6156f5565b6020026020010151600001516001600160801b03168152602001858481518110613658576136586156f5565b6020908102919091018101518101516001600160801b03908116909252835460018181018655600095865294829020845194909201518316600160801b029390921692909217910155016135ff565b50600e80546001818101835560009283527fbb7b4a454dc3493923482f07822329ed19e8244eff582cc204f8554c3620c3fd909101859055820180549091906136f2576136f26156f5565b6000918252602082200154600160801b90046001600160801b03169003610bd457610b5a8382600001600101600081548110613730576137306156f5565b60009182526020822001546001600160801b031690611c75565b600380546001600160a01b038381166001600160a01b0319831681179093556040519116919082907f8be0079c531659141344cd1fd0a4f28419497f9722a3daafe3b4186f6b6457e090600090a35050565b60085460405163169f6b0560e11b81526001600160a01b038a8116600483015290911690632d3ed60a9060240160006040518083038186803b1580156137e157600080fd5b505afa1580156137f5573d6000803e3d6000fd5b505060085460405163f610a03960e01b81526001600160a01b038b81166004830152909116925063f610a039915060240160006040518083038186803b15801561383e57600080fd5b505afa158015613852573d6000803e3d6000fd5b505060085460405163f8e0044b60e01b81526001600160a01b038a81166004830152909116925063f8e0044b915060240160006040518083038186803b15801561389b57600080fd5b505afa1580156138af573d6000803e3d6000fd5b505060085460405163130d243760e21b81526001600160a01b0389811660048301529091169250634c3490dc915060240160006040518083038186803b1580156138f857600080fd5b505afa15801561390c573d6000803e3d6000fd5b5050604051638716824d60e01b81526001600160a01b0387169250638716824d9150613960907f00000000000000000000000000000000000000000000000000000000000000009086908690600401615ddf565b60006040518083038186803b15801561397857600080fd5b505afa15801561398c573d6000803e3d6000fd5b505050506004600061399e9190614a78565b604051630a68458760e11b81526000906001600160a01b038616906314d08b0e906139d3908490879087908a906004016155e7565b600060405180830381865afa1580156139f0573d6000803e3d6000fd5b505050506040513d6000823e601f3d908101601f19168201604052613a18919081019061562d565b905060005b8151811015613ac05760046040518060400160405280848481518110613a4557613a456156f5565b6020026020010151600001516001600160801b03168152602001848481518110613a7157613a716156f5565b6020908102919091018101518101516001600160801b03908116909252835460018181018655600095865294829020845194909201518316600160801b02939092169290921791015501613a1d565b5050600580546001600160a01b03199081166001600160a01b039a8b1617909155600680548216988a169890981790975550506007805486169487169490941790935560098054851692861692909217909155600a80549093169316929092179055600b80546fffffffffffffffffffffffffffffffff19166001600160801b03909216919091179055565b6001600160a01b038316613b7557604051626a0d4560e21b815260006004820152602401610d21565b604080516001808252602082018590528183019081526060820184905260a08201909252600060808201818152919291610e6491879185908590614292565b6000848152600d60205260408120601281018054839283929091839190613bda90615579565b905011156140fc57600f81015460405163dddf33e160e01b81526000918291829182916001600160a01b039091169063dddf33e190613c20906012890190600401615799565b600060405180830381865afa158015613c3d573d6000803e3d6000fd5b505050506040513d6000823e601f3d908101601f19168201604052613c659190810190615e0a565b805190915015613d8157600e85015481516040516322cc0efb60e01b8152600092613cff928d9286926001600160a01b0316916322cc0efb91613cb5918691600401918252602082015260400190565b600060405180830381865afa158015613cd2573d6000803e3d6000fd5b505050506040513d6000823e601f3d908101601f19168201604052613cfa9190810190615e0a565b6142e5565b90508015613d7b57600e86015460405163cf54ee1d60e01b8152600481018390526001600160a01b039091169063cf54ee1d906024016040805180830381865afa158015613d51573d6000803e3d6000fd5b505050506040513d601f19601f82011682018060405250810190613d75919061572c565b90945092505b50613df5565b600e85015460405163cf54ee1d60e01b8152600481018b90526001600160a01b039091169063cf54ee1d906024016040805180830381865afa158015613dcb573d6000803e3d6000fd5b505050506040513d601f19601f82011682018060405250810190613def919061572c565b90935091505b60108501546001600160a01b031615613f1357613e12828c615786565b60108601546001600160a01b039081166000908152600f602090815260408083208a5490941683529290529081208054909190613e50908490615786565b925050819055508460000160000160009054906101000a90046001600160a01b03166001600160a01b03168560100160009054906101000a90046001600160a01b03166001600160a01b03168d600080516020615f8083398151915260048f604051613ebd929190615995565b60405180910390a48115613f0e57845460108601546040516001600160a01b0392831692909116908e90600080516020615f8083398151915290613f05906002908890615995565b60405180910390a45b613f2a565b613f1d828c615786565b613f279085615786565b93505b60118501546001600160a01b03161561404857613f47838b615786565b60118601546001600160a01b039081166000908152600f602090815260408083208a5490941683529290529081208054909190613f85908490615786565b925050819055508460000160000160009054906101000a90046001600160a01b03166001600160a01b03168560110160009054906101000a90046001600160a01b03166001600160a01b03168d600080516020615f8083398151915260058e604051613ff2929190615995565b60405180910390a4821561404357845460118601546040516001600160a01b0392831692909116908e90600080516020615f808339815191529061403a906002908990615995565b60405180910390a45b61405f565b614052838b615786565b61405c9085615786565b93505b83156140e757600c546001600160a01b039081166000908152600f602090815260408083208954909416835292905290812080548692906140a1908490615786565b90915550508454600c546040516001600160a01b0392831692909116908e90600080516020615f80833981519152906140de906003908a90615995565b60405180910390a45b60008060009750975097505050505050614107565b868686935093509350505b9450945094915050565b6001600160a01b03841661413b57604051632bfa23e760e11b815260006004820152602401610d21565b60408051600180825260208201869052818301908152606082018590526080820190925290610d37600087848487614292565b6001600160a01b0382166141975760405162ced3e160e81b815260006004820152602401610d21565b6001600160a01b03838116600081815260016020908152604080832094871680845294825291829020805460ff191686151590811790915591519182527f17307eab39ab6107e8899845ad3d59bd9653f200f220920489ca2b5937696c31910160405180910390a3505050565b6001600160a01b03841661422e57604051632bfa23e760e11b815260006004820152602401610d21565b6001600160a01b03851661425757604051626a0d4560e21b815260006004820152602401610d21565b604080516001808252602082018690528183019081526060820185905260808201909252906142898787848487614292565b50505050505050565b61429e8585858561437f565b6001600160a01b03841615610e6457825133906001036142d757602084810151908401516142d0838989858589614593565b5050610d37565b610d378187878787876146b7565b6000805b84156143765780845111156143765780835111156143765761433d848281518110614316576143166156f5565b6020026020010151848381518110614330576143306156f5565b60200260200101516147a0565b82818151811061434f5761434f6156f5565b6020026020010151856143629190615549565b94508061436e81615e8f565b9150506142e9565b50929392505050565b80518251146143ae5781518151604051635b05999160e01b815260048101929092526024820152604401610d21565b3360005b83518110156144b4576020818102858101820151908501909101516001600160a01b03881615614465576000828152602081815260408083206001600160a01b038c1684529091529020548181101561443e576040516303dee4c560e01b81526001600160a01b038a166004820152602481018290526044810183905260648101849052608401610d21565b6000838152602081815260408083206001600160a01b038d16845290915290209082900390555b6001600160a01b038716156144aa576000828152602081815260408083206001600160a01b038b168452909152812080548392906144a4908490615786565b90915550505b50506001016143b2565b5082516001036145355760208301516000906020840151909150856001600160a01b0316876001600160a01b0316846001600160a01b03167fc3d58168c5ae7397731d063d5bbf3d657854427343f4c083240f7aacaa2d0f628585604051614526929190918252602082015260400190565b60405180910390a45050610e64565b836001600160a01b0316856001600160a01b0316826001600160a01b03167f4a39dc06d4c0dbc64b70af90fd698a233a518aa5d07e595d983b8c0526c8f7fb8686604051614584929190615ea8565b60405180910390a45050505050565b6001600160a01b0384163b15610d375760405163f23a6e6160e01b81526001600160a01b0385169063f23a6e61906145d79089908990889088908890600401615ed6565b6020604051808303816000875af1925050508015614612575060408051601f3d908101601f1916820190925261460f91810190615f10565b60015b61467b573d808015614640576040519150601f19603f3d011682016040523d82523d6000602084013e614645565b606091505b50805160000361467357604051632bfa23e760e11b81526001600160a01b0386166004820152602401610d21565b805181602001fd5b6001600160e01b0319811663f23a6e6160e01b1461428957604051632bfa23e760e11b81526001600160a01b0386166004820152602401610d21565b6001600160a01b0384163b15610d375760405163bc197c8160e01b81526001600160a01b0385169063bc197c81906146fb9089908990889088908890600401615f2d565b6020604051808303816000875af1925050508015614736575060408051601f3d908101601f1916820190925261473391810190615f10565b60015b614764573d808015614640576040519150601f19603f3d011682016040523d82523d6000602084013e614645565b6001600160e01b0319811663bc197c8160e01b1461428957604051632bfa23e760e11b81526001600160a01b0386166004820152602401610d21565b6000828152600d60205260408120600101548391036147d257604051631d8ce09b60e31b815260040160405180910390fd5b6000838152600d602052604081206012810180549192916147f290615579565b90501115614a5657600e81015460405163cf54ee1d60e01b815260048101859052600091829182916001600160a01b03169063cf54ee1d906024016040805180830381865afa158015614849573d6000803e3d6000fd5b505050506040513d601f19601f8201168201806040525081019061486d919061572c565b601086015491935091506001600160a01b03161561490f5760108401546001600160a01b039081166000908152600f602090815260408083208854909416835292905290812080548392906148c3908490615786565b9091555050835460108501546040516001600160a01b0392831692909116908990600080516020615f8083398151915290614902906002908790615995565b60405180910390a461491c565b6149198184615786565b92505b60118401546001600160a01b0316156149b95760118401546001600160a01b039081166000908152600f6020908152604080832088549094168352929052908120805484929061496d908490615786565b9091555050835460118501546040516001600160a01b0392831692909116908990600080516020615f80833981519152906149ac906002908890615995565b60405180910390a46149c6565b6149c38284615786565b92505b8215614a4e57600c546001600160a01b039081166000908152600f60209081526040808320885490941683529290529081208054859290614a08908490615786565b90915550508354600c546040516001600160a01b0392831692909116908990600080516020615f8083398151915290614a45906003908990615995565b60405180910390a45b505050610b5a565b600981018054849190600090614a6d908490615786565b909155505050505050565b5080546000825590600052602060002090810190612e3091905b80821115614aa65760008155600101614a92565b5090565b6001600160a01b0381168114612e3057600080fd5b8035614aca81614aaa565b919050565b60008060408385031215614ae257600080fd5b8235614aed81614aaa565b946020939093013593505050565b6001600160e01b031981168114612e3057600080fd5b600060208284031215614b2357600080fd5b8135614b2e81614afb565b9392505050565b60008083601f840112614b4757600080fd5b5081356001600160401b03811115614b5e57600080fd5b602083019150836020828501011115612b3d57600080fd5b60008060208385031215614b8957600080fd5b82356001600160401b03811115614b9f57600080fd5b614bab85828601614b35565b90969095509350505050565b600060408284031215612be357600080fd5b600080600080600060808688031215614be157600080fd5b8535614bec81614aaa565b94506020860135935060408601356001600160401b0380821115614c0f57600080fd5b614c1b89838a01614b35565b90955093506060880135915080821115614c3457600080fd5b50614c4188828901614bb7565b9150509295509295909350565b600060208284031215614c6057600080fd5b5035919050565b6000815180845260005b81811015614c8d57602081850181015186830182015201614c71565b506000602082860101526020601f19601f83011685010191505092915050565b602081526000614b2e6020830184614c67565b600060208284031215614cd257600080fd5b8135614b2e81614aaa565b634e487b7160e01b600052604160045260246000fd5b604080519081016001600160401b0381118282101715614d1557614d15614cdd565b60405290565b604051601f8201601f191681016001600160401b0381118282101715614d4357614d43614cdd565b604052919050565b60006001600160401b03821115614d6457614d64614cdd565b5060051b60200190565b600082601f830112614d7f57600080fd5b81356020614d94614d8f83614d4b565b614d1b565b8083825260208201915060208460051b870101935086841115614db657600080fd5b602086015b84811015614dd25780358352918301918301614dbb565b509695505050505050565b600082601f830112614dee57600080fd5b81356001600160401b03811115614e0757614e07614cdd565b614e1a601f8201601f1916602001614d1b565b818152846020838601011115614e2f57600080fd5b816020850160208301376000918101602001919091529392505050565b600080600080600060a08688031215614e6457600080fd5b8535614e6f81614aaa565b94506020860135614e7f81614aaa565b935060408601356001600160401b0380821115614e9b57600080fd5b614ea789838a01614d6e565b94506060880135915080821115614ebd57600080fd5b614ec989838a01614d6e565b93506080880135915080821115614edf57600080fd5b50614c4188828901614ddd565b6001600160801b0381168114612e3057600080fd5b8035614aca81614eec565b600082601f830112614f1d57600080fd5b81356020614f2d614d8f83614d4b565b8083825260208201915060208460051b870101935086841115614f4f57600080fd5b602086015b84811015614dd2578035614f6781614eec565b8352918301918301614f54565b600080600060608486031215614f8957600080fd5b8335925060208401356001600160401b0380821115614fa757600080fd5b614fb387838801614f0c565b93506040860135915080821115614fc957600080fd5b50614fd686828701614f0c565b9150509250925092565b60008060408385031215614ff357600080fd5b82356001600160401b038082111561500a57600080fd5b818501915085601f83011261501e57600080fd5b8135602061502e614d8f83614d4b565b82815260059290921b8401810191818101908984111561504d57600080fd5b948201945b8386101561507457853561506581614aaa565b82529482019490820190615052565b9650508601359250508082111561508a57600080fd5b5061509785828601614d6e565b9150509250929050565b60008151808452602080850194506020840160005b838110156150d2578151875295820195908201906001016150b6565b509495945050505050565b602081526000614b2e60208301846150a1565b6000806040838503121561510357600080fd5b82359150602083013561511581614aaa565b809150509250929050565b6000806040838503121561513357600080fd5b50508035926020909101359150565b600080600080600080600080610100898b03121561515f57600080fd5b883561516a81614aaa565b9750602089013561517a81614aaa565b9650604089013561518a81614aaa565b9550606089013561519a81614aaa565b945060808901356151aa81614aaa565b93506151b860a08a01614f01565b925060c08901356001600160401b03808211156151d457600080fd5b6151e08c838d01614f0c565b935060e08b01359150808211156151f657600080fd5b506152038b828c01614f0c565b9150509295985092959890939650565b60008060006060848603121561522857600080fd5b505081359360208301359350604090920135919050565b80516001600160a01b031682526020808201516101c082850181905281519085018190526000926101e086019281019184905b808210156152aa57835180516001600160801b0390811687529084015116838601526040909401939282019260019190910190615272565b5050505060408301516040850152606083015160608501526080830151608085015260a083015160a085015260c083015161531360c086018280518252602081015160208301526040810151604083015260608101516060830152608081015160808301525050565b5060e08301518051610160860152602081015161018086015260408101516101a0860152610f2f565b60c08152600061534f60c083018961523f565b6001600160a01b038881166020850152878116604085015286811660608501528516608084015282810360a08401526153888185614c67565b9998505050505050505050565b8015158114612e3057600080fd5b600080604083850312156153b657600080fd5b82356153c181614aaa565b9150602083013561511581615395565b600080604083850312156153e457600080fd5b82356153ef81614aaa565b9150602083013561511581614aaa565b600080600080600080600060c0888a03121561541a57600080fd5b61542388614abf565b96506020880135955060408801356001600160401b038082111561544657600080fd5b6154528b838c01614b35565b909750955060608a013591508082111561546b57600080fd5b6154778b838c01614bb7565b945060808a013591508082111561548d57600080fd5b6154998b838c01614f0c565b935060a08a01359150808211156154af57600080fd5b506154bc8a828b01614f0c565b91505092959891949750929550565b600080600080600060a086880312156154e357600080fd5b85356154ee81614aaa565b945060208601356154fe81614aaa565b9350604086013592506060860135915060808601356001600160401b0381111561552757600080fd5b614c4188828901614ddd565b634e487b7160e01b600052601160045260246000fd5b8181038181111561091d5761091d615533565b60006020828403121561556e57600080fd5b8151614b2e81615395565b600181811c9082168061558d57607f821691505b602082108103612be357634e487b7160e01b600052602260045260246000fd5b60008151808452602080850194506020840160005b838110156150d25781516001600160801b0316875295820195908201906001016155c2565b84815260806020820152600061560060808301866155ad565b828103604084015261561281866155ad565b9150506001600160801b038316606083015295945050505050565b6000602080838503121561564057600080fd5b82516001600160401b0381111561565657600080fd5b8301601f8101851361566757600080fd5b8051615675614d8f82614d4b565b81815260069190911b8201830190838101908783111561569457600080fd5b928401925b828410156156ea57604084890312156156b25760008081fd5b6156ba614cf3565b84516156c581614eec565b8152848601516156d481614eec565b8187015282526040939093019290840190615699565b979650505050505050565b634e487b7160e01b600052603260045260246000fd5b828152604060208201526000615724604083018461523f565b949350505050565b6000806040838503121561573f57600080fd5b505080516020909101519092909150565b6000806000806080858703121561576657600080fd5b505082516020840151604085015160609095015191969095509092509050565b8082018082111561091d5761091d615533565b60006020808352600084546157ad81615579565b80602087015260406001808416600081146157cf57600181146157eb5761581b565b60ff19851660408a0152604084151560051b8a0101955061581b565b89600052602060002060005b858110156158125781548b82018601529083019088016157f7565b8a016040019650505b509398975050505050505050565b600080600080600080600060e0888a03121561584457600080fd5b5050855160208701516040880151606089015160808a015160a08b015160c0909b0151949c939b50919990985090965094509092509050565b600081548084526020808501945083600052602060002060005b838110156150d25781546001600160801b038116885260801c8388015260409096019560019182019101615897565b828152604060208201526158f5604082016158e884546001600160a01b031690565b6001600160a01b03169052565b6101c06060820152600061591061020083016001850161587d565b60028401546080840152600384015460a0840152600484015460c0840152600584015460e08401526006840154610100840152600784015461012084015260088401546101408401526009840154610160840152600a840154610180840152600b8401546101a0840152600c8401546101c0840152600d8401546101e0840152615724565b60408101600684106159b757634e487b7160e01b600052602160045260246000fd5b9281526020015290565b601f821115610bd4576000816000526020600020601f850160051c810160208610156159ea5750805b601f850160051c820191505b81811015610d37578281556001016159f6565b81516001600160401b03811115615a2257615a22614cdd565b615a3681615a308454615579565b846159c1565b602080601f831160018114615a6b5760008415615a535750858301515b600019600386901b1c1916600185901b178555610d37565b600085815260208120601f198616915b82811015615a9a57888601518255948401946001909101908401615a7b565b5085821015615ab85787850151600019600388901b60f8161c191681555b5050505050600190811b01905550565b81835281816020850137506000828201602090810191909152601f909101601f19169091010190565b80356001600160401b0381168114614aca57600080fd5b6000808335601e19843603018112615b1f57600080fd5b83016020810192503590506001600160401b03811115615b3e57600080fd5b8060051b3603821315612b3d57600080fd5b81835260006001600160fb1b03831115615b6957600080fd5b8260051b80836020870137939093016020019392505050565b6000808335601e19843603018112615b9957600080fd5b83016020810192503590506001600160401b03811115615bb857600080fd5b803603821315612b3d57600080fd5b604081526000615bdb604083018587615ac8565b8281036020840152833560fe19853603018112615bf757600080fd5b6040825284016001600160401b03615c0e82615af1565b166040830152615c2060208201615af1565b6001600160401b03811660608401525060408101356080830152606081013560a0830152608081013560c083015260a081013560e0830152615c6560c0820182615b08565b61010084810152615c7b61014085018284615b50565b915050615c8b60e0830183615b08565b848303603f19016101208601529250615ca5828483615b50565b92505050615cb66020860186615b82565b8383036020850152615388838284615ac8565b602081526000615724602083018486615ac8565b600080600060608486031215615cf257600080fd5b835192506020840151615d0481614aaa565b6040850151909250615d1581614aaa565b809150509250925092565b6001600160401b03831115615d3757615d37614cdd565b615d4b83615d458354615579565b836159c1565b6000601f841160018114615d7f5760008515615d675750838201355b600019600387901b1c1916600186901b178355610e64565b600083815260209020601f19861690835b82811015615db05786850135825560209485019460019092019101615d90565b5086821015615dcd5760001960f88860031b161c19848701351681555b505060018560011b0183555050505050565b838152606060208201526000615df860608301856155ad565b82810360408401526109d681856155ad565b60006020808385031215615e1d57600080fd5b82516001600160401b03811115615e3357600080fd5b8301601f81018513615e4457600080fd5b8051615e52614d8f82614d4b565b81815260059190911b82018301908381019087831115615e7157600080fd5b928401925b828410156156ea57835182529284019290840190615e76565b600060018201615ea157615ea1615533565b5060010190565b604081526000615ebb60408301856150a1565b8281036020840152615ecd81856150a1565b95945050505050565b6001600160a01b03868116825285166020820152604081018490526060810183905260a0608082018190526000906156ea90830184614c67565b600060208284031215615f2257600080fd5b8151614b2e81614afb565b6001600160a01b0386811682528516602082015260a060408201819052600090615f59908301866150a1565b8281036060840152615f6b81866150a1565b905082810360808401526128608185614c6756fe4b984622ccd95d46d58ee4b4ec121acbc6f1d9de4a5997f2013e0daf02c10104a264697066735822122062fec73d9e92c2931fd9d176f92fec3b857776ff0eb2d9da37a916542d68ef5564736f6c63430008180033","linkReferences":{}},"methodIdentifiers":{"accounts(address,address)":"ad74b775","addDapp(address)":"27b7ca5f","balanceOf(address,uint256)":"00fdd58e","balanceOfBatch(address[],uint256[])":"4e1273f4","bondingCurveSteps(uint256)":"fa1c4db6","buyTapes(bytes32,uint256,uint256)":"9165f843","changeTapeModel(bytes32,address)":"5db8076c","consumeTapes(bytes32,uint256)":"b495bbb0","currencyTokenAddress()":"d3c3b389","dappAddresses(address)":"787ca438","exists(bytes32)":"38a699a4","feeModelAddress()":"3ab03c8b","getCurrentBuyPrice(bytes32,uint256)":"724969e7","getCurrentConsumePrice(bytes32,uint256)":"bbfef088","getCurrentSellPrice(bytes32,uint256)":"b16cae66","getTapeData(bytes32)":"796aea77","isApprovedForAll(address,address)":"e985e9c5","maxSupply()":"d5abeb01","maxTapeSupply(bytes32)":"9ba01fbe","owner()":"8da5cb5b","renounceOwnership()":"715018a6","safeBatchTransferFrom(address,address,uint256[],uint256[],bytes)":"2eb2c2d6","safeTransferFrom(address,address,uint256,uint256,bytes)":"f242432a","sellTapes(bytes32,uint256,uint256)":"828ef8d9","setApprovalForAll(address,bool)":"a22cb465","setTapeParams(bytes32)":"e5a41243","setTapeParamsCustom(bytes32,uint128[],uint128[])":"3a18c8d0","setURI(string)":"02fe5305","supportsInterface(bytes4)":"01ffc9a7","tapeBondUtilsAddress()":"fabe3824","tapeBondingCurveModelAddress()":"3b6e02af","tapeBonds(bytes32)":"8f8b185b","tapeBondsCreated(uint256)":"eb596d01","tapeModelAddress()":"6a386ed2","tapeOwnershipModelAddress()":"22f046b5","tapesCount()":"7fb90ea6","totalTapes()":"c5b67e81","transferOwnership(address)":"f2fde38b","updateBondingCurveParams(address,address,address,address,address,uint128,uint128[],uint128[])":"7da36046","updateProtocolWallet(address)":"e308a099","uri(uint256)":"0e89341c","validateTape(address,bytes32,bytes,((uint64,uint64,bytes32,bytes32,bytes32,bytes32,bytes32[],bytes32[]),bytes))":"07974110","validateTapeCustom(address,bytes32,bytes,((uint64,uint64,bytes32,bytes32,bytes32,bytes32,bytes32[],bytes32[]),bytes),uint128[],uint128[])":"b7f012df","withdrawBalance(address,uint256)":"0cf20cc9"},"id":35}