{"abi":[{"type":"constructor","inputs":[{"name":"newTapeBondUtilsAddress","type":"address","internalType":"address"},{"name":"maxSteps","type":"uint256","internalType":"uint256"}],"stateMutability":"nonpayable"},{"type":"function","name":"accounts","inputs":[{"name":"","type":"address","internalType":"address"},{"name":"","type":"address","internalType":"address"}],"outputs":[{"name":"","type":"uint256","internalType":"uint256"}],"stateMutability":"view"},{"type":"function","name":"balanceOf","inputs":[{"name":"account","type":"address","internalType":"address"},{"name":"id","type":"uint256","internalType":"uint256"}],"outputs":[{"name":"","type":"uint256","internalType":"uint256"}],"stateMutability":"view"},{"type":"function","name":"balanceOfBatch","inputs":[{"name":"accounts","type":"address[]","internalType":"address[]"},{"name":"ids","type":"uint256[]","internalType":"uint256[]"}],"outputs":[{"name":"","type":"uint256[]","internalType":"uint256[]"}],"stateMutability":"view"},{"type":"function","name":"bondingCurveSteps","inputs":[{"name":"","type":"uint256","internalType":"uint256"}],"outputs":[{"name":"rangeMax","type":"uint256","internalType":"uint256"},{"name":"coefficient","type":"uint256","internalType":"uint256"}],"stateMutability":"view"},{"type":"function","name":"buyTapes","inputs":[{"name":"tapeId","type":"bytes32","internalType":"bytes32"},{"name":"tapesToMint","type":"uint256","internalType":"uint256"},{"name":"maxCurrencyPrice","type":"uint256","internalType":"uint256"}],"outputs":[{"name":"currencyCost","type":"uint256","internalType":"uint256"}],"stateMutability":"payable"},{"type":"function","name":"changeTapeModel","inputs":[{"name":"tapeId","type":"bytes32","internalType":"bytes32"},{"name":"newTapeModel","type":"address","internalType":"address"}],"outputs":[],"stateMutability":"nonpayable"},{"type":"function","name":"consumeTapes","inputs":[{"name":"tapeId","type":"bytes32","internalType":"bytes32"},{"name":"tapesToConsume","type":"uint256","internalType":"uint256"}],"outputs":[{"name":"","type":"uint256","internalType":"uint256"}],"stateMutability":"nonpayable"},{"type":"function","name":"currencyTokenAddress","inputs":[],"outputs":[{"name":"","type":"address","internalType":"address"}],"stateMutability":"view"},{"type":"function","name":"dappAddresses","inputs":[{"name":"","type":"address","internalType":"address"}],"outputs":[{"name":"","type":"bool","internalType":"bool"}],"stateMutability":"view"},{"type":"function","name":"exists","inputs":[{"name":"tapeId","type":"bytes32","internalType":"bytes32"}],"outputs":[{"name":"","type":"bool","internalType":"bool"}],"stateMutability":"view"},{"type":"function","name":"feeModelAddress","inputs":[],"outputs":[{"name":"","type":"address","internalType":"address"}],"stateMutability":"view"},{"type":"function","name":"getCurrentBuyPrice","inputs":[{"name":"tapeId","type":"bytes32","internalType":"bytes32"},{"name":"tokensToMint","type":"uint256","internalType":"uint256"}],"outputs":[{"name":"","type":"uint256","internalType":"uint256"},{"name":"","type":"uint256","internalType":"uint256"},{"name":"","type":"uint256","internalType":"uint256"}],"stateMutability":"view"},{"type":"function","name":"getCurrentConsumePrice","inputs":[{"name":"tapeId","type":"bytes32","internalType":"bytes32"},{"name":"tokensToConsume","type":"uint256","internalType":"uint256"}],"outputs":[{"name":"","type":"uint256","internalType":"uint256"},{"name":"","type":"uint256","internalType":"uint256"}],"stateMutability":"view"},{"type":"function","name":"getCurrentSellPrice","inputs":[{"name":"tapeId","type":"bytes32","internalType":"bytes32"},{"name":"tokensToBurn","type":"uint256","internalType":"uint256"}],"outputs":[{"name":"","type":"uint256","internalType":"uint256"},{"name":"","type":"uint256","internalType":"uint256"},{"name":"","type":"uint256","internalType":"uint256"}],"stateMutability":"view"},{"type":"function","name":"getTapeData","inputs":[{"name":"tapeId","type":"bytes32","internalType":"bytes32"}],"outputs":[{"name":"","type":"bytes32","internalType":"bytes32"},{"name":"","type":"uint256","internalType":"uint256"},{"name":"","type":"int256","internalType":"int256"},{"name":"","type":"bytes32","internalType":"bytes32"},{"name":"","type":"int256","internalType":"int256"},{"name":"","type":"bytes32","internalType":"bytes32"},{"name":"","type":"int256","internalType":"int256"},{"name":"","type":"bytes32","internalType":"bytes32"},{"name":"","type":"int256","internalType":"int256"}],"stateMutability":"view"},{"type":"function","name":"isApprovedForAll","inputs":[{"name":"account","type":"address","internalType":"address"},{"name":"operator","type":"address","internalType":"address"}],"outputs":[{"name":"","type":"bool","internalType":"bool"}],"stateMutability":"view"},{"type":"function","name":"maxSupply","inputs":[],"outputs":[{"name":"","type":"uint256","internalType":"uint256"}],"stateMutability":"view"},{"type":"function","name":"maxTapeSupply","inputs":[{"name":"tapeId","type":"bytes32","internalType":"bytes32"}],"outputs":[{"name":"","type":"uint256","internalType":"uint256"}],"stateMutability":"view"},{"type":"function","name":"owner","inputs":[],"outputs":[{"name":"","type":"address","internalType":"address"}],"stateMutability":"view"},{"type":"function","name":"renounceOwnership","inputs":[],"outputs":[],"stateMutability":"nonpayable"},{"type":"function","name":"safeBatchTransferFrom","inputs":[{"name":"from","type":"address","internalType":"address"},{"name":"to","type":"address","internalType":"address"},{"name":"ids","type":"uint256[]","internalType":"uint256[]"},{"name":"values","type":"uint256[]","internalType":"uint256[]"},{"name":"data","type":"bytes","internalType":"bytes"}],"outputs":[],"stateMutability":"nonpayable"},{"type":"function","name":"safeTransferFrom","inputs":[{"name":"from","type":"address","internalType":"address"},{"name":"to","type":"address","internalType":"address"},{"name":"id","type":"uint256","internalType":"uint256"},{"name":"value","type":"uint256","internalType":"uint256"},{"name":"data","type":"bytes","internalType":"bytes"}],"outputs":[],"stateMutability":"nonpayable"},{"type":"function","name":"sellTapes","inputs":[{"name":"tapeId","type":"bytes32","internalType":"bytes32"},{"name":"tapesToBurn","type":"uint256","internalType":"uint256"},{"name":"minCurrencyRefund","type":"uint256","internalType":"uint256"}],"outputs":[{"name":"","type":"uint256","internalType":"uint256"}],"stateMutability":"nonpayable"},{"type":"function","name":"setApprovalForAll","inputs":[{"name":"operator","type":"address","internalType":"address"},{"name":"approved","type":"bool","internalType":"bool"}],"outputs":[],"stateMutability":"nonpayable"},{"type":"function","name":"setDapp","inputs":[{"name":"dapp","type":"address","internalType":"address"},{"name":"active","type":"bool","internalType":"bool"}],"outputs":[],"stateMutability":"nonpayable"},{"type":"function","name":"setTapeParams","inputs":[{"name":"tapeId","type":"bytes32","internalType":"bytes32"}],"outputs":[],"stateMutability":"nonpayable"},{"type":"function","name":"setTapeParamsCustom","inputs":[{"name":"tapeId","type":"bytes32","internalType":"bytes32"},{"name":"stepRangesMax","type":"uint256[]","internalType":"uint256[]"},{"name":"stepCoefficients","type":"uint256[]","internalType":"uint256[]"},{"name":"creatorAllocation","type":"bool","internalType":"bool"}],"outputs":[],"stateMutability":"nonpayable"},{"type":"function","name":"setURI","inputs":[{"name":"newUri","type":"string","internalType":"string"}],"outputs":[],"stateMutability":"nonpayable"},{"type":"function","name":"supportsInterface","inputs":[{"name":"interfaceId","type":"bytes4","internalType":"bytes4"}],"outputs":[{"name":"","type":"bool","internalType":"bool"}],"stateMutability":"view"},{"type":"function","name":"tapeBondUtilsAddress","inputs":[],"outputs":[{"name":"","type":"address","internalType":"address"}],"stateMutability":"view"},{"type":"function","name":"tapeBondingCurveModelAddress","inputs":[],"outputs":[{"name":"","type":"address","internalType":"address"}],"stateMutability":"view"},{"type":"function","name":"tapeBonds","inputs":[{"name":"","type":"bytes32","internalType":"bytes32"}],"outputs":[{"name":"bond","type":"tuple","internalType":"struct BondUtils.BondData","components":[{"name":"currencyToken","type":"address","internalType":"address"},{"name":"steps","type":"tuple[]","internalType":"struct IBondingCurveModel.BondingCurveStep[]","components":[{"name":"rangeMax","type":"uint256","internalType":"uint256"},{"name":"coefficient","type":"uint256","internalType":"uint256"}]},{"name":"currencyBalance","type":"uint256","internalType":"uint256"},{"name":"currentSupply","type":"uint256","internalType":"uint256"},{"name":"currentPrice","type":"uint256","internalType":"uint256"},{"name":"consumePrice","type":"uint256","internalType":"uint256"},{"name":"unclaimed","type":"tuple","internalType":"struct BondUtils.UnclaimedFees","components":[{"name":"mint","type":"uint256","internalType":"uint256"},{"name":"burn","type":"uint256","internalType":"uint256"},{"name":"consume","type":"uint256","internalType":"uint256"},{"name":"royalties","type":"uint256","internalType":"uint256"},{"name":"undistributedRoyalties","type":"uint256","internalType":"uint256"}]},{"name":"count","type":"tuple","internalType":"struct BondUtils.BondCount","components":[{"name":"minted","type":"uint256","internalType":"uint256"},{"name":"burned","type":"uint256","internalType":"uint256"},{"name":"consumed","type":"uint256","internalType":"uint256"}]}]},{"name":"feeModel","type":"address","internalType":"address"},{"name":"tapeModel","type":"address","internalType":"address"},{"name":"cartridgeOwner","type":"address","internalType":"address"},{"name":"tapeCreator","type":"address","internalType":"address"},{"name":"tapeOutputData","type":"bytes","internalType":"bytes"}],"stateMutability":"view"},{"type":"function","name":"tapeBondsCreated","inputs":[{"name":"","type":"uint256","internalType":"uint256"}],"outputs":[{"name":"","type":"bytes32","internalType":"bytes32"}],"stateMutability":"view"},{"type":"function","name":"tapeModelAddress","inputs":[],"outputs":[{"name":"","type":"address","internalType":"address"}],"stateMutability":"view"},{"type":"function","name":"tapeOwnershipModelAddress","inputs":[],"outputs":[{"name":"","type":"address","internalType":"address"}],"stateMutability":"view"},{"type":"function","name":"tapesCount","inputs":[],"outputs":[{"name":"","type":"uint256","internalType":"uint256"}],"stateMutability":"view"},{"type":"function","name":"totalTapes","inputs":[],"outputs":[{"name":"","type":"uint256","internalType":"uint256"}],"stateMutability":"view"},{"type":"function","name":"transferOwnership","inputs":[{"name":"newOwner","type":"address","internalType":"address"}],"outputs":[],"stateMutability":"nonpayable"},{"type":"function","name":"updateBondingCurveParams","inputs":[{"name":"newCurrencyToken","type":"address","internalType":"address"},{"name":"newFeeModel","type":"address","internalType":"address"},{"name":"newTapeModel","type":"address","internalType":"address"},{"name":"newTapeOwnershipModelAddress","type":"address","internalType":"address"},{"name":"newTapeBondingCurveModelAddress","type":"address","internalType":"address"},{"name":"newMaxSupply","type":"uint256","internalType":"uint256"},{"name":"stepRangesMax","type":"uint256[]","internalType":"uint256[]"},{"name":"stepCoefficients","type":"uint256[]","internalType":"uint256[]"}],"outputs":[],"stateMutability":"nonpayable"},{"type":"function","name":"updateProtocolWallet","inputs":[{"name":"newProtocolWallet","type":"address","internalType":"address"}],"outputs":[],"stateMutability":"nonpayable"},{"type":"function","name":"uri","inputs":[{"name":"tokenId","type":"uint256","internalType":"uint256"}],"outputs":[{"name":"","type":"string","internalType":"string"}],"stateMutability":"view"},{"type":"function","name":"uri","inputs":[{"name":"tokenId","type":"bytes32","internalType":"bytes32"}],"outputs":[{"name":"","type":"string","internalType":"string"}],"stateMutability":"view"},{"type":"function","name":"validateTape","inputs":[{"name":"dapp","type":"address","internalType":"address"},{"name":"tapeId","type":"bytes32","internalType":"bytes32"},{"name":"_payload","type":"bytes","internalType":"bytes"},{"name":"_v","type":"tuple","internalType":"struct Proof","components":[{"name":"validity","type":"tuple","internalType":"struct OutputValidityProof","components":[{"name":"inputIndexWithinEpoch","type":"uint64","internalType":"uint64"},{"name":"outputIndexWithinInput","type":"uint64","internalType":"uint64"},{"name":"outputHashesRootHash","type":"bytes32","internalType":"bytes32"},{"name":"vouchersEpochRootHash","type":"bytes32","internalType":"bytes32"},{"name":"noticesEpochRootHash","type":"bytes32","internalType":"bytes32"},{"name":"machineStateHash","type":"bytes32","internalType":"bytes32"},{"name":"outputHashInOutputHashesSiblings","type":"bytes32[]","internalType":"bytes32[]"},{"name":"outputHashesInEpochSiblings","type":"bytes32[]","internalType":"bytes32[]"}]},{"name":"context","type":"bytes","internalType":"bytes"}]}],"outputs":[{"name":"","type":"bytes32","internalType":"bytes32"}],"stateMutability":"nonpayable"},{"type":"function","name":"validateTapeCustom","inputs":[{"name":"dapp","type":"address","internalType":"address"},{"name":"tapeId","type":"bytes32","internalType":"bytes32"},{"name":"_payload","type":"bytes","internalType":"bytes"},{"name":"_v","type":"tuple","internalType":"struct Proof","components":[{"name":"validity","type":"tuple","internalType":"struct OutputValidityProof","components":[{"name":"inputIndexWithinEpoch","type":"uint64","internalType":"uint64"},{"name":"outputIndexWithinInput","type":"uint64","internalType":"uint64"},{"name":"outputHashesRootHash","type":"bytes32","internalType":"bytes32"},{"name":"vouchersEpochRootHash","type":"bytes32","internalType":"bytes32"},{"name":"noticesEpochRootHash","type":"bytes32","internalType":"bytes32"},{"name":"machineStateHash","type":"bytes32","internalType":"bytes32"},{"name":"outputHashInOutputHashesSiblings","type":"bytes32[]","internalType":"bytes32[]"},{"name":"outputHashesInEpochSiblings","type":"bytes32[]","internalType":"bytes32[]"}]},{"name":"context","type":"bytes","internalType":"bytes"}]},{"name":"stepRangesMax","type":"uint256[]","internalType":"uint256[]"},{"name":"stepCoefficients","type":"uint256[]","internalType":"uint256[]"},{"name":"creatorAllocation","type":"bool","internalType":"bool"}],"outputs":[{"name":"","type":"bytes32","internalType":"bytes32"}],"stateMutability":"nonpayable"},{"type":"function","name":"withdrawBalance","inputs":[{"name":"token","type":"address","internalType":"address"},{"name":"amount","type":"uint256","internalType":"uint256"}],"outputs":[],"stateMutability":"nonpayable"},{"type":"event","name":"ApprovalForAll","inputs":[{"name":"account","type":"address","indexed":true,"internalType":"address"},{"name":"operator","type":"address","indexed":true,"internalType":"address"},{"name":"approved","type":"bool","indexed":false,"internalType":"bool"}],"anonymous":false},{"type":"event","name":"Bond","inputs":[{"name":"id","type":"bytes32","indexed":true,"internalType":"bytes32"},{"name":"token","type":"address","indexed":true,"internalType":"address"},{"name":"currentPrice","type":"uint256","indexed":false,"internalType":"uint256"},{"name":"currentSupply","type":"uint256","indexed":false,"internalType":"uint256"},{"name":"currentBalance","type":"uint256","indexed":false,"internalType":"uint256"}],"anonymous":false},{"type":"event","name":"Buy","inputs":[{"name":"id","type":"bytes32","indexed":true,"internalType":"bytes32"},{"name":"user","type":"address","indexed":true,"internalType":"address"},{"name":"amountMinted","type":"uint256","indexed":false,"internalType":"uint256"},{"name":"pricePayed","type":"uint256","indexed":false,"internalType":"uint256"}],"anonymous":false},{"type":"event","name":"Consume","inputs":[{"name":"id","type":"bytes32","indexed":true,"internalType":"bytes32"},{"name":"user","type":"address","indexed":true,"internalType":"address"},{"name":"amountConsumed","type":"uint256","indexed":false,"internalType":"uint256"},{"name":"currencyDonated","type":"uint256","indexed":false,"internalType":"uint256"}],"anonymous":false},{"type":"event","name":"OwnershipTransferred","inputs":[{"name":"previousOwner","type":"address","indexed":true,"internalType":"address"},{"name":"newOwner","type":"address","indexed":true,"internalType":"address"}],"anonymous":false},{"type":"event","name":"Reward","inputs":[{"name":"id","type":"bytes32","indexed":true,"internalType":"bytes32"},{"name":"user","type":"address","indexed":true,"internalType":"address"},{"name":"token","type":"address","indexed":true,"internalType":"address"},{"name":"rewardType","type":"uint8","indexed":false,"internalType":"enum BondUtils.RewardType"},{"name":"amount","type":"uint256","indexed":false,"internalType":"uint256"}],"anonymous":false},{"type":"event","name":"Sell","inputs":[{"name":"id","type":"bytes32","indexed":true,"internalType":"bytes32"},{"name":"user","type":"address","indexed":true,"internalType":"address"},{"name":"amountBurned","type":"uint256","indexed":false,"internalType":"uint256"},{"name":"refundReceived","type":"uint256","indexed":false,"internalType":"uint256"}],"anonymous":false},{"type":"event","name":"TransferBatch","inputs":[{"name":"operator","type":"address","indexed":true,"internalType":"address"},{"name":"from","type":"address","indexed":true,"internalType":"address"},{"name":"to","type":"address","indexed":true,"internalType":"address"},{"name":"ids","type":"uint256[]","indexed":false,"internalType":"uint256[]"},{"name":"values","type":"uint256[]","indexed":false,"internalType":"uint256[]"}],"anonymous":false},{"type":"event","name":"TransferSingle","inputs":[{"name":"operator","type":"address","indexed":true,"internalType":"address"},{"name":"from","type":"address","indexed":true,"internalType":"address"},{"name":"to","type":"address","indexed":true,"internalType":"address"},{"name":"id","type":"uint256","indexed":false,"internalType":"uint256"},{"name":"value","type":"uint256","indexed":false,"internalType":"uint256"}],"anonymous":false},{"type":"event","name":"URI","inputs":[{"name":"value","type":"string","indexed":false,"internalType":"string"},{"name":"id","type":"uint256","indexed":true,"internalType":"uint256"}],"anonymous":false},{"type":"error","name":"Bond__InvalidAmount","inputs":[]},{"type":"error","name":"ERC1155InsufficientBalance","inputs":[{"name":"sender","type":"address","internalType":"address"},{"name":"balance","type":"uint256","internalType":"uint256"},{"name":"needed","type":"uint256","internalType":"uint256"},{"name":"tokenId","type":"uint256","internalType":"uint256"}]},{"type":"error","name":"ERC1155InvalidApprover","inputs":[{"name":"approver","type":"address","internalType":"address"}]},{"type":"error","name":"ERC1155InvalidArrayLength","inputs":[{"name":"idsLength","type":"uint256","internalType":"uint256"},{"name":"valuesLength","type":"uint256","internalType":"uint256"}]},{"type":"error","name":"ERC1155InvalidOperator","inputs":[{"name":"operator","type":"address","internalType":"address"}]},{"type":"error","name":"ERC1155InvalidReceiver","inputs":[{"name":"receiver","type":"address","internalType":"address"}]},{"type":"error","name":"ERC1155InvalidSender","inputs":[{"name":"sender","type":"address","internalType":"address"}]},{"type":"error","name":"ERC1155MissingApprovalForAll","inputs":[{"name":"operator","type":"address","internalType":"address"},{"name":"owner","type":"address","internalType":"address"}]},{"type":"error","name":"OwnableInvalidOwner","inputs":[{"name":"owner","type":"address","internalType":"address"}]},{"type":"error","name":"OwnableUnauthorizedAccount","inputs":[{"name":"account","type":"address","internalType":"address"}]},{"type":"error","name":"Tape__ChangeError","inputs":[]},{"type":"error","name":"Tape__InsufficientFunds","inputs":[]},{"type":"error","name":"Tape__InvalidDapp","inputs":[]},{"type":"error","name":"Tape__InvalidOwner","inputs":[]},{"type":"error","name":"Tape__InvalidParams","inputs":[]},{"type":"error","name":"Tape__InvalidTape","inputs":[{"name":"reason","type":"string","internalType":"string"}]},{"type":"error","name":"Tape__InvalidUser","inputs":[]},{"type":"error","name":"Tape__NotFound","inputs":[]},{"type":"error","name":"Tape__SlippageLimitExceeded","inputs":[]}],"bytecode":{"object":"0x60a034620001bc5762005d9a906001600160401b0390601f38849003908101601f191682019083821183831017620001a65780839160409687948552833981010312620001bc5780516001600160a01b038082169390929091849003620001bc576020015190845190602082019082821090821117620001a657855260008091526200008d600254620001c1565b601f811162000165575b508060025532156200014e57600380546001600160a01b03198082163290811790935594167f8be0079c531659141344cd1fd0a4f28419497f9722a3daafe3b4186f6b6457e08380a3620000ed600454620001c1565b601f81116200012a575b505060006004553282600d541617600d55608052600954161760095551615b829081620002188239608051816131010152f35b601f602083600462000146955220910160051c810190620001fe565b3880620000f7565b602490855190631e4fbdf760e01b82526004820152fd5b600282526200019f90601f0160051c7f405787fa12a823e0f2b7631cc41b3ba8828b3321ca811111fa75cd3aa3bb5ace90810190620001fe565b3862000097565b634e487b7160e01b600052604160045260246000fd5b600080fd5b90600182811c92168015620001f3575b6020831014620001dd57565b634e487b7160e01b600052602260045260246000fd5b91607f1691620001d1565b8181106200020a575050565b60008155600101620001fe56fe6080604052600436101561001257600080fd5b60003560e01c8062fdd58e146102e157806301ffc9a7146102dc57806302fe5305146102d757806307974110146102d25780630cf20cc9146102cd5780630e89341c1461025f57806322f046b5146102c85780632eb2c2d6146102c357806338a699a4146102be5780633ab03c8b146102b95780633b6e02af146102b45780633fba3800146102af5780633ff72137146102aa5780634e1273f4146102a55780635db8076c146102a05780636a386ed21461029b578063715018a614610296578063724969e714610291578063787ca4381461028c578063796aea77146102875780637fb90ea614610282578063828ef8d91461027d5780638d3b5235146102785780638da5cb5b146102735780638f8b185b1461026e5780639165f843146102695780639ba01fbe146102645780639ed19ddb1461025f578063a22cb4651461025a578063ad74b77514610255578063b16cae6614610250578063b495bbb01461024b578063bbfef08814610246578063c5b67e8114610241578063d3c3b3891461023c578063d5abeb0114610237578063dff5363414610232578063e308a0991461022d578063e5a4124314610228578063e985e9c514610223578063eb596d011461021e578063f242432a14610219578063f2fde38b14610214578063fa1c4db61461020f5763fabe38241461020a57600080fd5b612e7f565b612e06565b612d48565b612c23565b612be4565b612b5a565b612acc565b612a73565b6129a0565b612982565b612959565b6128b1565b6127e0565b61255a565b6123f7565b6123bb565b6122f1565b610864565b6122a3565b611e5f565b611de4565b611a37565b6119c9565b611507565b6114cf565b61134e565b61130c565b611123565b6110c5565b61109c565b610f3c565b610e80565b610da9565b610d0b565b610ccb565b610ca2565b610c71565b610b40565b610983565b61067b565b610554565b610416565b61037b565b610318565b6001600160a01b038116036102f757565b600080fd5b60043590610309826102e6565b565b60843590610309826102e6565b346102f75760403660031901126102f757602061036060043561033a816102e6565b6024356000526000835260406000209060018060a01b0316600052602052604060002090565b54604051908152f35b6001600160e01b03198116036102f757565b346102f75760203660031901126102f757602060043561039a81610369565b63ffffffff60e01b16636cdb3d1360e11b81149081156103d8575b81156103c7575b506040519015158152f35b6301ffc9a760e01b149050386103bc565b6303a24d0760e21b811491506103b5565b9181601f840112156102f7578235916001600160401b0383116102f757602083818601950101116102f757565b346102f7576020806003193601126102f7576001600160401b036004358181116102f75761044b61045a9136906004016103e9565b610453613b29565b3691610aeb565b9182519182116105415761047882610473600254611bc6565b613b6c565b602090601f83116001146104ba575081906104aa936000926104af575b50508160011b916000199060031b1c19161790565b600255005b015190503880610495565b90601f198316936104ed60026000527f405787fa12a823e0f2b7631cc41b3ba8828b3321ca811111fa75cd3aa3bb5ace90565b926000905b8682106105295750508360019510610510575b505050811b01600255005b015160001960f88460031b161c19169055388080610505565b806001859682949686015181550195019301906104f2565b6109ac565b908160409103126102f75790565b346102f75760803660031901126102f757600435610571816102e6565b602435906001600160401b036044358181116102f7576105959036906004016103e9565b90916064359081116102f7576105af903690600401610546565b600a549092906105cf906001600160a01b03165b6001600160a01b031690565b60405163273bed1d60e21b81523260048201526024810187905290602090829060449082905afa90811561067657600091610647575b501561063557846106219461061c610631976139ba565b613ec6565b6040519081529081906020820190565b0390f35b6040516313bb0a7760e11b8152600490fd5b610669915060203d60201161066f575b6106618183610a0b565b810190612f0e565b38610605565b503d610657565b612f23565b346102f7576040806003193601126102f757600490813561069b816102e6565b336000908152601060205260409020602435919082906106cf9083905b9060018060a01b0316600052602052604060002090565b541061080d573360009081526010602052604090206106ef9082906106b8565b6106fa838254612ebe565b90556001600160a01b03169081156107f257825163095ea7b360e01b815230858201908152602081810184905293919084908290819060400103816000865af1908115610676576000916107d5575b50156107c55783516323b872dd60e01b815230868201908152336020820152604081019390935291839183918290600090829060600103925af1918215610676576000926107a8575b50501561079b57005b5163f570efeb60e01b8152fd5b6107be9250803d1061066f576106618183610a0b565b3880610792565b5050505163f570efeb60e01b8152fd5b6107ec9150843d861161066f576106618183610a0b565b38610749565b6000808093508092335af1610805612ede565b501561079b57005b5050516368d134dd60e11b8152fd5b60005b83811061082f5750506000910152565b818101518382015260200161081f565b906020916108588151809281855285808601910161081c565b601f01601f1916010190565b346102f7576020806003193601126102f75760018060a01b03600954166108c06040516004358482015283815261089a816109d5565b604051809363316fb1bf60e21b825285600483015281806000958695602483019061083f565b03915afa9081156106765780916108f1575b836108dc83613634565b9061063160405192828493845283019061083f565b90503d8082843e6109028184610a0b565b8201918381840312610970578051906001600160401b038211610974570182601f820112156109705780519161093783610ad0565b936109456040519586610a0b565b83855285848401011161096d575082916109679185806108dc9601910161081c565b386108d2565b80fd5b5080fd5b8280fd5b60009103126102f757565b346102f75760003660031901126102f757600a546040516001600160a01b039091168152602090f35b634e487b7160e01b600052604160045260246000fd5b6001600160401b03811161054157604052565b604081019081106001600160401b0382111761054157604052565b602081019081106001600160401b0382111761054157604052565b90601f801991011681019081106001600160401b0382111761054157604052565b6040519061010082018281106001600160401b0382111761054157604052565b60405190610309826109d5565b6001600160401b0381116105415760051b60200190565b9080601f830112156102f7576020908235610a8a81610a59565b93610a986040519586610a0b565b81855260208086019260051b8201019283116102f757602001905b828210610ac1575050505090565b81358152908301908301610ab3565b6001600160401b03811161054157601f01601f191660200190565b929192610af782610ad0565b91610b056040519384610a0b565b8294818452818301116102f7578281602093846000960137010152565b9080601f830112156102f757816020610b3d93359101610aeb565b90565b346102f75760a03660031901126102f75760048035610b5e816102e6565b602435610b6a816102e6565b6001600160401b03906044358281116102f757610b8a9036908601610a70565b906064358381116102f757610ba29036908701610a70565b926084359081116102f757610bba9036908701610b22565b936001600160a01b03808216903382141580610c4d575b610c1c57831615610c045715610bed57610beb95506151b8565b005b604051626a0d4560e21b8152600081880152602490fd5b604051632bfa23e760e11b8152600081890152602490fd5b6040805163711bec9160e11b815233818b019081526001600160a01b038616602082015290918291010390fd5b0390fd5b50600082815260016020908152604080832033845290915290205460ff1615610bd1565b346102f75760203660031901126102f757600435600052600e60205260206001604060002001541515604051908152f35b346102f75760003660031901126102f7576007546040516001600160a01b039091168152602090f35b346102f75760003660031901126102f757600b546040516001600160a01b039091168152602090f35b801515036102f757565b60c4359061030982610cf4565b346102f75760e03660031901126102f757610d246102fc565b6001600160401b036044358181116102f757610d449036906004016103e9565b92906064358381116102f757610d5e903690600401610546565b6084358481116102f757610d76903690600401610a70565b9060a4359485116102f75761063195610d96610621963690600401610a70565b93610d9f610cfe565b9560243590612f2f565b346102f7576101003660031901126102f757600435610dc7816102e6565b602435610dd3816102e6565b604435610ddf816102e6565b60643592610dec846102e6565b610df461030b565b6001600160401b039460c4358681116102f757610e15903690600401610a70565b9360e4359687116102f757610e31610beb973690600401610a70565b9560a43594612fb2565b90815180825260208080930193019160005b828110610e5b575050505090565b835185529381019392810192600101610e4d565b906020610b3d928181520190610e3b565b346102f75760403660031901126102f7576004356001600160401b038082116102f757366023830112156102f7578160040135610ebc81610a59565b92610eca6040519485610a0b565b8184526020916024602086019160051b830101913683116102f757602401905b828210610f2357856024358681116102f75761063191610f11610f17923690600401610a70565b90613307565b60405191829182610e6f565b8380918335610f31816102e6565b815201910190610eea565b346102f75760403660031901126102f757600435602435610f5c816102e6565b610f64613b29565b6001610f7a83600052600e602052604060002090565b01541561108a57610fa06012610f9a84600052600e602052604060002090565b016133c6565b61104b57600954610fbb906105c3906001600160a01b031681565b803b156102f75760405163f8e0044b60e01b81526001600160a01b038316600482015290600090829060249082905afa801561067657610beb93600f9261101292611032575b50600052600e602052604060002090565b0180546001600160a01b0319166001600160a01b03909216919091179055565b8061103f611045926109c2565b80610978565b38611001565b6040516329c45f6760e01b815260206004820152601660248201527515185c1948185b1c9958591e481d985b1a59185d195960521b6044820152606490fd5b604051631d8ce09b60e31b8152600490fd5b346102f75760003660031901126102f7576008546040516001600160a01b039091168152602090f35b346102f75760008060031936011261096d576110df613b29565b600380546001600160a01b0319811690915581906001600160a01b03167f8be0079c531659141344cd1fd0a4f28419497f9722a3daafe3b4186f6b6457e08280a380f35b346102f7576040806003193601126102f75760043590602435600161115284600052600e602052604060002090565b0154156112fb576111786111736111af94600052600e602052604060002090565b6133d0565b90826111916105c36105c360095460018060a01b031690565b835190825180809881946323ba203560e21b8352876004840161346e565b03915afa918215610676576000946000936112ac575b506020015161121292916080918691906111e9906105c3906001600160a01b031681565b9086518096819482936370f986fd60e01b84526004840160209093929193604081019481520152565b03915afa9182156106765761124b611252916106319460008060009160009361126e575b61124693945090611246916134a7565b6134a7565b80956134a7565b9251938493846040919493926060820195825260208201520152565b505050506112466112996112469260803d6080116112a5575b6112918183610a0b565b810190613485565b92945091925083611236565b503d611287565b602095506112129350608091926111e96105c36112e16105c394893d8b116112f4575b6112d98183610a0b565b810190613458565b9490998a959850505050509291506111c5565b503d6112cf565b8151631d8ce09b60e31b8152600490fd5b346102f75760203660031901126102f757600435611329816102e6565b60018060a01b03166000526011602052602060ff604060002054166040519015158152f35b346102f75760203660031901126102f75760043561137b6012610f9a83600052600e602052604060002090565b15611498578060126113c76113b66105c36105c3600f6113a86113e898600052600e602052604060002090565b01546001600160a01b031690565b92600052600e602052604060002090565b01604051809263c827650360e01b82528180610120968795600483016134f5565b03915afa80156106765760009081928283848591869387958897611452575b5061063197989950604051998a998a95926101009794919a9998959261012088019b8852602088015260408701526060860152608085015260a084015260c083015260e08201520152565b97505050505050505061147f91508261063193903d10611491575b6114778183610a0b565b8101906134b4565b96988998979691959294929190611407565b503d61146d565b6040516329c45f6760e01b815260206004820152600e60248201526d746170654f75747075744461746160901b6044820152606490fd5b346102f75760003660031901126102f7576020600f54604051908152f35b60609060031901126102f757600435906024359060443590565b346102f757611515366114ed565b9091600092818452600e60205260409160018386200154156119935761154581600052600e602052604060002090565b60095461155c906105c3906001600160a01b031681565b848051809263fdfb946360e01b8252818061157b878a60048401613550565b03915afa9384156106765787918895611972575b50600e8301546115a9906105c3906001600160a01b031681565b865163f5b0402760e01b8152600481018390526024810184905298906080908a9060449082905afa8015610676578199828391849361193f575b50856115f4836112468f85906134a7565b1161192e5761161561160f846112468f6112468688926134a7565b87612ebe565b9a8b1061191d579161166f9161167793611630878b33614645565b61163f60028a01988954612ebe565b8855600389019a611651888d54612ebe565b8c55600c8a016116628982546134a7565b905560048a0155896148b7565b9291906134a7565b611686600787019182546134a7565b9055611697600a86019182546134a7565b9055600d546116ea906116c8906001600160a01b03165b6001600160a01b0316600090815260106020526040902090565b85546001600160a01b03165b60018060a01b0316600052602052604060002090565b6116f58a82546134a7565b9055600d548454885160008152602081019b909b526001600160a01b039a908b16918291908c16908890600080516020615b0d83398151915290604090a4156118ea5780602061177c6117546105c36105c3895460018060a01b031690565b8a5163095ea7b360e01b8152306004820152602481018d905293849283919082906044820190565b03925af19081156106765782916118cb575b50156118ba578060206117de6117b06105c36105c3895460018060a01b031690565b8a516323b872dd60e01b8152306004820152336024820152604481018d905293849283919082906064820190565b03925af1918215610676579161189b575b501561188a57916118796106319892600080516020615aed833981519152945b8851908152602081018a9052339087907f47d38b8b50e4b792e507faad951cda2457545e704f667a3e32f22541945ebbf690604090a382546004906001600160a01b0316930154965490549088519485941697846040919493926060820195825260208201520152565b0390a3519081529081906020820190565b855163f570efeb60e01b8152600490fd5b6118b4915060203d60201161066f576106618183610a0b565b386117ef565b865163f570efeb60e01b8152600490fd5b6118e4915060203d60201161066f576106618183610a0b565b3861178e565b8080808a335af16118f9612ede565b501561188a57916118796106319892600080516020615aed8339815191529461180f565b8951636bdbc20960e11b8152600490fd5b895163bd9c85bb60e01b8152600490fd5b869c506115f493506112469250611965915060803d6080116112a5576112918183610a0b565b929d9294509250906115e3565b90945061198c9150853d87116112f4576112d98183610a0b565b933861158f565b8251631d8ce09b60e31b8152600490fd5b60409060031901126102f7576004356119bc816102e6565b90602435610b3d81610cf4565b346102f7576119d7366119a4565b906119e0613b29565b6001600160a01b031660008181526011602052604081205490929060ff16611a2557611a229183526011602052604083209060ff801983541691151516179055565b80f35b604051631c3265c360e31b8152600490fd5b346102f75760003660031901126102f7576003546040516001600160a01b039091168152602090f35b908154611a6c81610a59565b92604093611a7d6040519182610a0b565b82815280946020809201926000526020600020906000935b858510611aa457505050505050565b6002846001928451611ab5816109d5565b865481528487015483820152815201930194019391611a95565b9060405160a081018181106001600160401b0382111761054157604052608060048294805484526001810154602085015260028101546040850152600381015460608501520154910152565b90604051606081018181106001600160401b038211176105415760405260406002829480548452600181015460208501520154910152565b90611bbf600b611b61610a2c565b84546001600160a01b0316815293611b7b60018201611a60565b6020860152600281015460408601526003810154606086015260048101546080860152600581015460a0860152611bb460068201611acf565b60c086015201611b1b565b60e0830152565b90600182811c92168015611bf6575b6020831014611be057565b634e487b7160e01b600052602260045260246000fd5b91607f1691611bd5565b805460009392611c0f82611bc6565b91828252602093600191600181169081600014611c775750600114611c36575b5050505050565b90939495506000929192528360002092846000945b838610611c6357505050500101903880808080611c2f565b805485870183015294019385908201611c4b565b60ff19168685015250505090151560051b010191503880808080611c2f565b90610309611caa9260405193848092611c00565b0383610a0b565b80516001600160a01b031682526020808201516101c082850181905281519085018190526101e085019493929182019160005b828110611d7957505050509061016060e0836040610b3d9501516040850152606081015160608501526080810151608085015260a081015160a0850152611d5b60c082015160c086019060808091805184526020810151602085015260408101516040850152606081015160608501520151910152565b01519101906040809180518452602081015160208501520151910152565b8351805188528201518783015260409096019592810192600101611ce4565b9291611db2610b3d9795969260c0865260c0860190611cb1565b9560018060a01b03809481809416602088015216604086015216606084015216608082015260a081840391015261083f565b346102f75760203660031901126102f757600435600052600e6020526040600020611e0e81611b53565b610631601260018060a01b039384600e820154169480600f83015416611e53826010850154169260118501541693611e4c6040518097819301611c00565b0385610a0b565b60405196879687611d98565b611e68366114ed565b9190600091808352600e602052604092600184822001541561229257818152600e602052600184822001541561229257611eac82600052600e602052604060002090565b600954909390611ec6906105c3906001600160a01b031681565b8551946323ba203560e21b865286866004938180611ee78689898401613550565b03915afa928315610676578496859461226d575b50600e820154611f15906105c3906001600160a01b031681565b88516370f986fd60e01b8152848101838152602081018a905290916080918391908290819060400103915afa90811561067657869187918a89918a93612230575b508261124683611246876112468a611f6d976134a7565b9c8d116122205785546001600160a01b0399908a16156121b257611fd760208f8f8b85611fa66105c36105c38f5460018060a01b031690565b92516323b872dd60e01b81523392810192835230602084015260408301949094529294859384929091839160600190565b03925af19182156106765791612193575b501561218357918993918d95935b600288019c8d5490612007916134a7565b8d556003880198858a549061201b916134a7565b8a55600b89018681549061202e916134a7565b90558801998a5561203f92866148b7565b91612049916134a7565b600687019081549061205a916134a7565b9055600a86019081549061206d916134a7565b9055600d546001600160a01b039081166000908152601060209081526040808320895490941683529290522080546120a69083906134a7565b9055600d546001600160a01b03169083898d8189546120ca9060018060a01b031690565b91516000815260208101959095529116931691600080516020615b0d83398151915290604090a4816120fa612ecb565b8233926121069361566e565b8951908152602081019290925233917f5bd6f821d5961785d719543640cf62d3770f94e59db1a2f3c2250d72b122dddf90604090a3546001600160a01b0316915490549454865191825260208201959095526040810194909452169180606081015b03600080516020615aed83398151915291a351908152602090f35b8b5163f570efeb60e01b81528790fd5b6121ac915060203d60201161066f576106618183610a0b565b38611fe8565b8d9b9a9998979d34106000146121d2578c5163bd9c85bb60e01b81528e90fd5b918b9d9798999a9b9593918b95938734116121ee575b50611ff6565b808093959750612202819395979934612ebe565b335af161220d612ede565b501561218357918993918d9593386121e8565b8b51636bdbc20960e11b81528790fd5b6112469550611f6d9194506112469350611246925061225d9060803d6080116112a5576112918183610a0b565b9297509095919450925090611f56565b909350612288919650873d89116112f4576112d98183610a0b565b9590959238611efb565b8351631d8ce09b60e31b8152600490fd5b346102f75760203660031901126102f757600435600052600e602052600160406000200180549060001982019182116122ec576020916122e291612dea565b5054604051908152f35b612ea8565b346102f7576122ff366119a4565b6001600160a01b03821691821561237e578161233d61234e9233600052600160205260406000209060018060a01b0316600052602052604060002090565b9060ff801983541691151516179055565b60405190151581527f17307eab39ab6107e8899845ad3d59bd9653f200f220920489ca2b5937696c3160203392a3005b60405162ced3e160e81b815260006004820152602490fd5b60409060031901126102f7576004356123ae816102e6565b90602435610b3d816102e6565b346102f75760206103606123ce36612396565b6001600160a01b0391821660009081526010855260408082209290931681526020919091522090565b346102f7576040806003193601126102f75760043590602435600161242684600052600e602052604060002090565b0154156112fb5761244761117361247e94600052600e602052604060002090565b90826124606105c36105c360095460018060a01b031690565b8351908251808098819463fdfb946360e01b8352876004840161346e565b03915afa9182156106765760009460009361251b575b50602001516124e192916080918691906124b8906105c3906001600160a01b031681565b90865180968194829363f5b0402760e01b84526004840160209093929193604081019481520152565b03915afa91821561067657612514611252916106319460008060009160009361126e5761124693945090611246916134a7565b8095612ebe565b602095506124e19350608091926124b86105c36125476105c394893d8b116112f4576112d98183610a0b565b9490998a95985050505050929150612494565b346102f7576040806003193601126102f75760043590602435600092808452600e60205260018385200154156119935761259e81600052600e602052604060002090565b6009549094906125b8906105c3906001600160a01b031681565b9484805180976328dac05d60e21b825281806125d8868a60048401613550565b03915afa90811561067657829683926127be575b50600e810154612606906105c3906001600160a01b031681565b8651630c1d341f60e31b81526004810189905290608090829060249082905afa958615610676578891859786918791612792575b508792919061264a838533614645565b60038601978389549061265c91612ebe565b895560028701978689549061267091612ebe565b8955600d880185815490612683916134a7565b9055600588015561269492856148b7565b9161269e916134a7565b60088601908154906126af916134a7565b9055600a8501908154906126c2916134a7565b9055600d546001600160a01b039081166000908152601060209081526040808320885490941683529290522080546126fb908a906134a7565b9055600d5484548a5160008152602081019a909a526001600160a01b03908116998a9291909116908490600080516020615b0d83398151915290604090a48851908152602081019290925233917fff8a4589f2e064f9b82f2aec48ea80dbf6a8f623d3bd76d954da82ec4ea0079f90604090a360040154915490548551928352602083019190915260408201528060608101612168565b9150506127b291975086955060803d6080116112a5576112918183610a0b565b9298909690929061263a565b9096506127d89150853d87116112f4576112d98183610a0b565b9095386125ec565b346102f7576040806003193601126102f757600435600161280b82600052600e602052604060002090565b0154156112fb578161282d61117361286493600052600e602052604060002090565b600954612844906105c3906001600160a01b031681565b905190825180809581946328dac05d60e21b83526024356004840161346e565b03915afa9182156106765760009160009361288c575b50519081526020810191909152604090f35b816128a992945061063193503d85116112f4576112d98183610a0b565b92909161287a565b346102f75760008060031936011261096d578081600f8054915b8285106128dd57604051848152602090f35b90919261294e600191848452612948600361291389600080516020615b2d8339815191520154600052600e602052604060002090565b0154600d6129406129306129268c612bba565b90549060031b1c90565b600052600e602052604060002090565b015490612ebe565b906134a7565b9401939291906128cb565b346102f75760003660031901126102f7576006546040516001600160a01b039091168152602090f35b346102f75760003660031901126102f7576020600c54604051908152f35b346102f75760803660031901126102f7576004356001600160401b036024358181116102f7576129d4903690600401610a70565b906044359081116102f7576129ed903690600401610a70565b606435916129fa83610cf4565b600a54612a0f906001600160a01b03166105c3565b60405163273bed1d60e21b81523260048201526024810186905290602090829060449082905afa90811561067657600091612a54575b501561063557610beb936137df565b612a6d915060203d60201161066f576106618183610a0b565b38612a45565b346102f75760203660031901126102f757600435612a90816102e6565b600d54906001600160a01b03908183163303612aba576001600160a01b0319909216911617600d55005b60405163dcf0398d60e01b8152600490fd5b346102f75760203660031901126102f757600a5460043590612af6906001600160a01b03166105c3565b60405163273bed1d60e21b81523260048201526024810183905290602090829060449082905afa90811561067657600091612b3b575b501561063557610beb906139ba565b612b54915060203d60201161066f576106618183610a0b565b38612b2c565b346102f757602060ff612b98612b6f36612396565b6001600160a01b0391821660009081526001865260408082209290931681526020919091522090565b54166040519015158152f35b634e487b7160e01b600052603260045260246000fd5b600f54811015612bdf57600f600052600080516020615b2d8339815191520190600090565b612ba4565b346102f75760203660031901126102f757600435600f548110156102f757602090600f600052600080516020615b2d8339815191520154604051908152f35b346102f75760a03660031901126102f757600435612c40816102e6565b602435612c4c816102e6565b6084356001600160401b0381116102f757612c6b903690600401610b22565b906001600160a01b03838116903382141580612d24575b612cfd57821615612ce45715612ccc57610beb92612cc46064356044359160405192600184526020840152604083019160018352606084015260808301604052565b9290916151b8565b604051626a0d4560e21b815260006004820152602490fd5b604051632bfa23e760e11b815260006004820152602490fd5b60405163711bec9160e11b81523360048201526001600160a01b0386166024820152604490fd5b50600082815260016020908152604080832033845290915290205460ff1615612c82565b346102f75760203660031901126102f757600435612d65816102e6565b612d6d613b29565b6001600160a01b03908116908115612dbc57600354826001600160601b0360a01b821617600355167f8be0079c531659141344cd1fd0a4f28419497f9722a3daafe3b4186f6b6457e0600080a3005b604051631e4fbdf760e01b815260006004820152602490fd5b805415612bdf57600052602060002090600090565b8054821015612bdf5760005260206000209060011b0190600090565b346102f75760203660031901126102f7576004356005548110156102f757600560005260011b7f036b6384b5eca791c62761152d0c79bb0604c104a5fb6f4eb0703f3154bb3db181600080516020615acd8339815191520154910154906106316040519283928360209093929193604081019481520152565b346102f75760003660031901126102f7576009546040516001600160a01b039091168152602090f35b634e487b7160e01b600052601160045260246000fd5b919082039182116122ec57565b60405190612ed8826109f0565b60008252565b3d15612f09573d90612eef82610ad0565b91612efd6040519384610a0b565b82523d6000602084013e565b606090565b908160209103126102f75751610b3d81610cf4565b6040513d6000823e3d90fd5b600a5460405163273bed1d60e21b815232600482015260248101849052979895979496939592949193929190602090829060449082906001600160a01b03165afa90811561067657600091612f93575b501561063557610b3d9761061c92856137df565b612fac915060203d60201161066f576106618183610a0b565b38612f7f565b9697959497612fbf613b29565b600954612fd6906105c3906001600160a01b031681565b90813b156102f7576040805163169f6b0560e11b81526001600160a01b038b16600480830191909152919860009492939290918581602481855afa8015610676576132e0575b50803b156132a357895163f610a03960e01b81526001600160a01b0387168582019081528690829081906020010381855afa8015610676576132cd575b50803b156132a357895163f8e0044b60e01b81526001600160a01b0388168582019081528690829081906020010381855afa8015610676576132ba575b50803b156132a357895163130d243760e21b81526001600160a01b038916858201908152909186918391908290819060200103915afa8015610676576132a7575b506001600160a01b03881690813b156132a3578951632326e3db60e01b81529385858061312887867f000000000000000000000000000000000000000000000000000000000000000087850161450c565b0381865afa8015610676578e9b879661316292613290575b50613149614537565b516309a257cd60e41b81529e8f958694859485016137aa565b03915afa98891561067657819961326c575b505b88518110156131bb57806131b561318f6001938c6132f3565b515160208061319e858f6132f3565b510151906131aa610a4c565b928352820152614595565b01613176565b506132679495975061324a929161321061322d926131f36103099a60018060a01b03166001600160601b0360a01b6006541617600655565b60018060a01b03166001600160601b0360a01b6007541617600755565b60018060a01b03166001600160601b0360a01b6008541617600855565b60018060a01b03166001600160601b0360a01b600a541617600a55565b60018060a01b03166001600160601b0360a01b600b541617600b55565b600c55565b6132899199503d808b833e6132818183610a0b565b81019061370b565b9738613174565b8061103f61329d926109c2565b38613140565b8480fd5b8061103f6132b4926109c2565b386130d7565b8061103f6132c7926109c2565b38613096565b8061103f6132da926109c2565b38613059565b8061103f6132ed926109c2565b3861301c565b8051821015612bdf5760209160051b010190565b919091805183518082036133a457505080519061333c61332683610a59565b926133346040519485610a0b565b808452610a59565b60209190601f1901368484013760005b815181101561339c57600581901b8281018401519087018401516000908152602081815260408083206001600160a01b03909416835292905220546001919061339582876132f3565b520161334c565b509193505050565b604051635b05999160e01b815260048101919091526024810191909152604490fd5b610b3d9054611bc6565b9060405160c081018181106001600160401b038211176105415760405260a0613453601283956133ff81611b53565b8552600e8101546001851b60001901166020860152600f8101546001600160a01b0316604086015260108101546001600160a01b0316606086015260118101546001600160a01b0316608086015201611c96565b910152565b91908260409103126102f7576020825192015190565b604090610b3d939281528160208201520190611cb1565b91908260809103126102f7578151916020810151916060604083015192015190565b919082018092116122ec57565b90816101209103126102f75780519160208201519160408101519160608201519160808101519160a08201519160c08101519161010060e083015192015190565b906020610b3d928181520190611c00565b9081548082526020809201926000526020600020916000905b82821061352d575050505090565b83548552600180850154868301526040909501946002909401939091019061351f565b91610b3d9183526040602084015261358260408401613575835460018060a01b031690565b6001600160a01b03169052565b6101c06060840152600b6101a06135a0610200860160018501613506565b60028401546080870152600384015460a0870152600484015460c0870152600584015460e08701526006840154610100870152600784015461012087015260088401546101408701526009840154610160870152600a84015461018087015294019101600260409180548452600181015460208501520154910152565b906136306020928281519485920161081c565b0190565b90604051918260206000906004549061364c82611bc6565b916001908181169081156136e25750600114613681575b505050613673906103099361361d565b03601f198101845283610a0b565b9091925060046000527f8a35acfbc15ff81a39ae7d344fd709f28e8600b4aa8c65c6b64bfe7fe36bd19b906000915b8483106136cc5750505050810160200182613673610309613663565b80548984018501528895509183019181016136b0565b90506136739450602092506103099693915060ff19168286015280151502840101918194613663565b9060209182818303126102f7578051906001600160401b0382116102f7570181601f820112156102f75780519261374184610a59565b936040936137526040519687610a0b565b818652828087019260061b850101938185116102f7578301915b84831061377c5750505050505090565b85838303126102f7578386918251613793816109d5565b85518152828601518382015281520192019161376c565b9392916137da906137cc60609360008852608060208901526080880190610e3b565b908682036040880152610e3b565b930152565b600b54600c546040516309a257cd60e41b815260048101849052608060248201529594929360009387936001600160a01b0316928492839261383b91613829906084860190610e3b565b84810360031901604486015290610e3b565b90606483015203915afa9283156106765760009361399d575b50600192600161386e83600052600e602052604060002090565b01541561387c575b50505050565b839061389283600052600e602052604060002090565b600754600e820180546001600160a01b039283166001600160a01b0319918216179091556006548354908316908216178355600854600f8401805491909316911617905560010194600091905b613951575b505050816138f182615182565b6138fc575b80613876565b6002835410801561393b575b6139295761391861392093612dd5565b505490614d4a565b503880806138f6565b60405163083487a760e21b8152600490fd5b50600161394784612dd5565b5001541515613908565b805182101561399857828261399161396a8395856132f3565b515160208061397985886132f3565b51015190613985610a4c565b928352820152896145fb565b01916138df565b6138e4565b6139b39193503d806000833e6132818183610a0b565b9138613854565b600554906139c782610a59565b916040906139d86040519485610a0b565b80845260056000908152602092600080516020615acd83398151915290848088015b858510613afc575050505050506001926001613a2084600052600e602052604060002090565b015415613a2d5750505050565b908390613a4484600052600e602052604060002090565b600754600e820180546001600160a01b039283166001600160a01b0319918216179091556006548354908316908216178355600854600f84018054919093169116179055600101916000905b613aac575b50505050613aa39150615182565b38808080613876565b8351811015613af757908582613aed613ac887969584986132f3565b515184613ad584896132f3565b510151613ae0610a4c565b91825285820152856145fb565b0190919293613a90565b613a95565b6001916002918451613b0d816109d5565b86548152848701548382015281520193019301929185906139fa565b6003546001600160a01b03163303613b3d57565b60405163118cdaa760e01b8152336004820152602490fd5b818110613b60575050565b60008155600101613b55565b90601f8211613b79575050565b6103099160026000527f405787fa12a823e0f2b7631cc41b3ba8828b3321ca811111fa75cd3aa3bb5ace906020601f840160051c83019310613bc3575b601f0160051c0190613b55565b9091508190613bb6565b9190601f8111613bdc57505050565b610309926000526020600020906020601f840160051c83019310613bc357601f0160051c0190613b55565b908060209392818452848401376000828201840152601f01601f1916010190565b35906001600160401b03821682036102f757565b9035601e19823603018112156102f75701602081359101916001600160401b0382116102f7578160051b360383136102f757565b81835290916001600160fb1b0383116102f75760209260051b809284830137010190565b9035601e19823603018112156102f75701602081359101916001600160401b0382116102f75781360383136102f757565b929190613cda91604085526040850191613c07565b91602081840391015280359160fe19823603018312156102f757613db0613da583610b3d9501604084526001600160401b03613d1582613c28565b166040850152613d3a613d2a60208301613c28565b6001600160401b03166060860152565b60408101356080850152606081013560a0850152608081013560c085015260a081013560e0850152613d92613d87613d7560c0840184613c3c565b61010080890152610140880191613c70565b9160e0810190613c3c565b858303603f190161012087015290613c70565b926020810190613c94565b916020818503910152613c07565b908160609103126102f75780519160406020830151613ddc816102e6565b920151610b3d816102e6565b916020610b3d938181520191613c07565b9092916001600160401b03811161054157613e1e81613e188454611bc6565b84613bcd565b6000601f8211600114613e5e578190613e4f939495600092613e535750508160011b916000199060031b1c19161790565b9055565b013590503880610495565b601f19821694613e7384600052602060002090565b91805b878110613eae575083600195969710613e94575b505050811b019055565b0135600019600384901b60f8161c19169055388080613e8a565b90926020600181928686013581550194019101613e76565b92909391613ede85600052600e602052604060002090565b916012830191613eee8354611bc6565b6144d2576001600160a01b03861660009081526011602052604090205460ff1615611a255760408051634b243ea360e11b815290966004966001600160a01b0395929190829087908290613f469089898e8501613cc5565b03921691815a93602094fa8015610676576144b3575b50613f98606084613f7c6105c36105c3600f8b015460018060a01b031690565b8a51630d02d25f60e11b81529384928391829189838f01613de8565b03915afa9081156106765760008091600093614480575b508a0361444b576010870180546001600160a01b039283166001600160a01b031991821617909155601188018054939092169216919091179055613ff4929190613df9565b6000918294866006830193600a840197885490865480614353575b506007860197885480614246575b5060098701998a5480614120575b50509360009a9997936140478c9a9793948b99958a98856148b7565b50505084549087549361405a85846134a7565b946140678c5480976134a7565b958661407d575b50505050505050505555555590565b61124661409992600080516020615b0d833981519152966134a7565b600d546140ce906140c6906140b6906001600160a01b03166116ae565b89546001600160a01b03166116d4565b9182546134a7565b9055600d546141109083906140f5906001600160a01b03165b98546001600160a01b031690565b92519384931697169582919060206040840193600381520152565b0390a438808a818080808061406e565b919092939495506141406105c36105c3600e8b015460018060a01b031690565b91878051809463cf54ee1d60e01b82528180614163868a83019190602083019252565b03915afa93841561067657600093600095614221575b508161418586866134a7565b116141e057508b999560009d9c958f948f9d9a966141c58f9d99928e9c976141cb946141be614047996141b887866134a7565b90612ebe565b90556134a7565b926134a7565b95999c509397509498508195999b9c5061402b565b610c499089519182916329c45f6760e01b83528201606090602081526011602082015270756e636c61696d65644275726e4665657360781b60408201520190565b90945061423c919350883d8a116112f4576112d98183610a0b565b9290929338614179565b91929394506142999060808361426b6105c36105c3600e8d015460018060a01b031690565b8d600c8c0154908b519687948593849363f5b0402760e01b8552840160209093929193604081019481520152565b03915afa9283156106765760009260009461432a575b50806142bb85856134a7565b116142ea578284928f989796956141c5936141b86142dc926142e3986134a7565b8d556134a7565b903861401d565b87516329c45f6760e01b81526020818e0181815260119181019190915270756e636c61696d65644275726e4665657360781b604082015281906060010390fd5b90935061434791925060803d6080116112a5576112918183610a0b565b509291509192386142af565b90506143a697919293506080816143796105c36105c3600e8b015460018060a01b031690565b600b89015488516370f986fd60e01b8152808e019182526020820193909352919a8b928391829160400190565b03915afa978815610676578298614424575b50806143c489846134a7565b116143e457906143db8b9493926141b88a846134a7565b8755963861400f565b84516329c45f6760e01b81526020818b0181815260119181019190915270756e636c61696d65644d696e744665657360781b604082015281906060010390fd5b909750614440915060803d6080116112a5576112918183610a0b565b5091509096386143b8565b88516329c45f6760e01b81526020818a01818152600691810191909152651d185c19525960d21b604082015281906060010390fd5b9150506144a5915060603d6060116144ac575b61449d8183610a0b565b810190613dbe565b9138613faf565b503d614493565b6144cb9060203d60201161066f576106618183610a0b565b5038613f5c565b6040516329c45f6760e01b8152602060048201526011602482015270185b1c9958591e481d985b1a59185d1959607a1b6044820152606490fd5b9161452990610b3d94928452606060208501526060840190610e3b565b916040818403910152610e3b565b60055460008060055581614549575050565b60016001600160ff1b03831683036122ec576005600052600080516020615acd8339815191529260011b8301925b8381106145845750505050565b808360029255838382015501614577565b600554600160401b811015610541576001810180600555811015612bdf5760207f036b6384b5eca791c62761152d0c79bb0604c104a5fb6f4eb0703f3154bb3db191600560005260011b92805184600080516020615acd83398151915201550151910155565b8054600160401b8110156105415761461891600182018155612dea565b91909161462f576020816001925184550151910155565b634e487b7160e01b600052600060045260246000fd5b6001600160a01b038116929091908315612ccc5761468060405192600184526020840152604083019160018352606084015260808301604052565b91906040946000604051614693816109f0565b5281518451908181036133a457505060005b825181101561473b578060051b602080828601015191870101516146d7866106b8846000526000602052604060002090565b5481811061470557866106b860019594936146fe9303936000526000602052604060002090565b55016146a5565b89516303dee4c560e01b81526001600160a01b038816600482015260248101919091526044810182905260648101839052608490fd5b509450600093929150600181511484146147925760209081015191810151604080519384529183015233917fc3d58168c5ae7397731d063d5bbf3d657854427343f4c083240f7aacaa2d0f6291819081015b0390a4565b60405133927f4a39dc06d4c0dbc64b70af90fd698a233a518aa5d07e595d983b8c0526c8f7fb92829161478d91836157af565b60209081818403126102f7578051906001600160401b0382116102f757019180601f840112156102f75782516147fa81610a59565b936148086040519586610a0b565b818552838086019260051b8201019283116102f7578301905b82821061482f575050505090565b81518152908301908301614821565b60209081818403126102f7578051906001600160401b0382116102f757019180601f840112156102f757825161487381610a59565b936148816040519586610a0b565b818552838086019260051b8201019283116102f7578301905b8282106148a8575050505090565b8151815290830190830161489a565b9391936148ce81600052600e602052604060002090565b90601282016148dd8154611bc6565b6148e957505050929190565b9194600096949693919394868692614933886149156105c36105c3600f8497015460018060a01b031690565b976040988951808095819463dddf33e160e01b8352600483016134f5565b03915afa908115610676578991614d28575b508051879015614cca575061499b600e8b01918a61496f6105c36105c3865460018060a01b031690565b82518b516322cc0efb60e01b815260048101889052602481019190915293849190829081906044820190565b03915afa9081156106765789946149b9938d93614ca5575b506153bf565b9081614c29575b5050505b6010880180546001600160a01b0395918a9187168015614c155793838a959389614a4d614a3f614a7d968a98614a306140c6614a20614a048b899f6134a7565b6001600160a01b03909416600090815260106020526040902090565b88546001600160a01b03166116d4565b9055546001600160a01b031690565b92546001600160a01b031690565b9116958691169687928c5180600080516020615b0d83398151915297889382919060206040840193600481520152565b0390a480614bf9575b50505050505b6011870180546001600160a01b03168881861615614be1579383614af4899694614b3194614a306140c68a986116d4614ae6614aca8f9d8b906134a7565b6001600160a01b03909616600090815260106020526040902090565b91546001600160a01b031690565b8b5486906001600160a01b03169116958691169687928a5180600080516020615b0d83398151915297889382919060206040840193600581520152565b0390a480614bc5575b50505050505b83614b56575b5050505050600090600090600090565b600d54600080516020615b0d8339815191529290614b9090614b80906001600160a01b03166116ae565b87546001600160a01b03166116d4565b614b9b8682546134a7565b9055600d54614bb89083906140f5906001600160a01b03166140e7565b0390a43880808080614b46565b8651600281526020810191909152604090a43880848180614b3a565b505050614bf3929591612948916134a7565b92614b40565b8851600281526020810191909152604090a43880868180614a86565b505050614c239297506134a7565b94614a8c565b54614c66955091925090614c47906105c3906001600160a01b031681565b8251808096819463cf54ee1d60e01b8352600483019190602083019252565b03915afa80156106765786928791614c82575b508438806149c0565b9050614c9c919250843d86116112f4576112d98183610a0b565b91909138614c79565b614cc39193508d3d8091833e614cbb8183610a0b565b81019061483e565b91386149b3565b600e8b0154614cec9650909350614c4791506105c3906001600160a01b031681565b03915afa80156106765786928791614d05575b506149c4565b9050614d1f919250843d86116112f4576112d98183610a0b565b91909138614cff565b614d4491503d808b833e614d3c8183610a0b565b8101906147c5565b38614945565b6000818152600e602052604092600184832001541561229257614d7783600052600e602052604060002090565b600954909490614d91906105c3906001600160a01b031681565b908051956323ba203560e21b875281876004948180614db3868a8a8401613550565b03915afa938415610676578597869561515d575b508586879a8890158015615154575b801561513c575b6150a9575b614df9816112468e6112468f6112468989926134a7565b9b8c6150995785546001600160a01b039a908b161561502557614e6060208f614e2e6105c36105c38c5460018060a01b031690565b8b516323b872dd60e01b815233818f019081523060208201526040810193909352938492839187918391606090910190565b03925af19182156106765791615006575b5015614ff657918a93918d95935b60028801809e815490614e91916134a7565b90556003880199858b5490614ea5916134a7565b8b55600b890186815490614eb8916134a7565b905588019a8b55614ec992866148b7565b91614ed3916134a7565b6006870190815490614ee4916134a7565b9055600a860190815490614ef7916134a7565b9055600d546001600160a01b03908116600090815260106020908152604080832089549094168352929052208054614f309083906134a7565b9055600d54855487516000815260208101939093528a166001600160a01b0390811692918b1616908490600080516020615b0d83398151915290604090a481614f77612ecb565b823392614f839361566e565b8451908152602081019290925233917f5bd6f821d5961785d719543640cf62d3770f94e59db1a2f3c2250d72b122dddf90604090a354925491549554905191825260208201959095526040810194909452166001600160a01b031691600080516020615aed83398151915290606090a390565b865163f570efeb60e01b81528890fd5b61501f915060203d60201161066f576106618183610a0b565b38614e71565b8d9b99979d9e9c9a989e3410600014615048578d5163bd9c85bb60e01b81528f90fd5b918b9d97999b9593919c9e989a9c8c9593873411615067575b50614e7f565b80809395975061507b819395979934612ebe565b335af1615086612ede565b5015614ff657918a93918d959338615061565b8651636bdbc20960e11b81528890fd5b505050600e8201549098506150c8906105c3906001600160a01b031681565b82516370f986fd60e01b81528481018a8152602081018a90529099916080918b91908290819060400103915afa8015610676578699879188918991615112575b50909a9190614de2565b915050899a50615131915060803d6080116112a5576112918183610a0b565b90929b919291615108565b50600161514a818701612dd5565b5001541515614ddd565b508a1515614dd6565b909450615178919750823d84116112f4576112d98183610a0b565b9690969338614dc7565b600f54600160401b811015610541576001810180600f55811015612bdf57600f600052600080516020615b2d8339815191520155565b9491909181518451908181036133a457505060005b82518110156152bb57600581901b83810160209081015191870101516001600160a01b03929186908a8516615235575b6001948216615210575b505050016151cd565b61522b916106b86140c6926000526000602052604060002090565b9055388581615207565b91929390506152528a6106b8846000526000602052604060002090565b54838110615284579187918460019695940361527c8d6106b8856000526000602052604060002090565b5594506151fd565b6040516303dee4c560e01b81526001600160a01b038c16600482015260248101919091526044810184905260648101839052608490fd5b509491939290936001855114600014615365576020858101518382015160408051928352928201526001600160a01b03838116929086169133917fc3d58168c5ae7397731d063d5bbf3d657854427343f4c083240f7aacaa2d0f6291a45b6001600160a01b03811661532e575050505050565b84516001036153545760208061534a9601519201519233615a95565b3880808080611c2f565b61536094919233615961565b61534a565b6040516001600160a01b03828116919085169033907f4a39dc06d4c0dbc64b70af90fd698a233a518aa5d07e595d983b8c0526c8f7fb90806153a8888c836157af565b0390a4615319565b60001981146122ec5760010190565b91600091835b6153d0575b50505090565b8281511115615669578282511115615669576153ec83826132f3565b51936153f884846132f3565b519461540e81600052600e602052604060002090565b9061541c6012830154611bc6565b1561564a57600e820154615467939291600091615443906105c3906001600160a01b031681565b6040998a918251808099819463cf54ee1d60e01b8352600483019190602083019252565b03915afa988915610676576155ad996155a5968490859261562a575b506010860180546001600160a01b039391908416801561561f576001600160a01b031660009081526010602052604090206154d891906154cd908a546001600160a01b03166116d4565b614a308482546134a7565b9085600080516020615b0d833981519152856154fa8b5460018060a01b031690565b88516002815260208101959095528116941692604090a45b6011860180546001600160a01b03168084161561560d576001600160a01b0316600090815260106020526040902061554e91906154cd906140b6565b9084600080516020615b0d833981519152846155708a5460018060a01b031690565b87516002815260208101959095528116941692604090a45b836155b3575b50505050505b61559e85856132f3565b5190612ebe565b9384936153b0565b926153c5565b600080516020615b0d83398151915291615600826140f56140e7600d6155f56155e56116ae835460018060a01b031690565b8c546001600160a01b03166116d4565b614a308b82546134a7565b0390a4388080808061558e565b505061561991946134a7565b92615588565b505090945093615512565b90506156439150823d84116112f4576112d98183610a0b565b9038615483565b50906155ad9561566260096155a594019182546134a7565b9055615594565b6153ca565b6001600160a01b03811693929091908415612ce4576156aa60405192600184526020840152604083019160018352606084015260808301604052565b9281518451908181036133a457505060005b82518110156156fc578060019160051b6156f46140c6876106b8602080868b010151958c010151946000526000602052604060002090565b9055016156bc565b5092919360018251146000146157735760208281015184820151604080519283529282015260009133917fc3d58168c5ae7397731d063d5bbf3d657854427343f4c083240f7aacaa2d0f629190a45b80516001036157695790602080610309959301519101519133615a60565b6103099333615866565b60006040517f4a39dc06d4c0dbc64b70af90fd698a233a518aa5d07e595d983b8c0526c8f7fb3391806157a78888836157af565b0390a461574b565b90916157c6610b3d93604084526040840190610e3b565b916020818403910152610e3b565b908160209103126102f75751610b3d81610369565b92615818610b3d95936158269360018060a01b031686526000602087015260a0604087015260a0860190610e3b565b908482036060860152610e3b565b91608081840391015261083f565b9390610b3d9593615818916158269460018060a01b03809216885216602087015260a0604087015260a0860190610e3b565b9293919093843b615878575050505050565b60209161589b604051948593849363bc197c8160e01b98898652600486016157e9565b038160006001600160a01b0388165af160009181615930575b506158f357826158c2612ede565b80519190826158ec57604051632bfa23e760e11b81526001600160a01b0383166004820152602490fd5b9050602001fd5b6001600160e01b0319160361590d57503880808080611c2f565b604051632bfa23e760e11b81526001600160a01b03919091166004820152602490fd5b61595391925060203d60201161595a575b61594b8183610a0b565b8101906157d4565b90386158b4565b503d615941565b939290949194853b615976575b505050505050565b615999602093604051958694859463bc197c8160e01b998a875260048701615834565b038160006001600160a01b0388165af1600091816159db575b506159c057826158c2612ede565b6001600160e01b0319160361590d575038808080808061596e565b6159f591925060203d60201161595a5761594b8183610a0b565b90386159b2565b909260a092610b3d9594600180861b031683526000602084015260408301526060820152816080820152019061083f565b9192610b3d95949160a094600180871b03809216855216602084015260408301526060820152816080820152019061083f565b9293919093843b615a72575050505050565b60209161589b604051948593849363f23a6e6160e01b98898652600486016159fc565b939290949194853b615aa957505050505050565b615999602093604051958694859463f23a6e6160e01b998a875260048701615a2d56fe036b6384b5eca791c62761152d0c79bb0604c104a5fb6f4eb0703f3154bb3db02e67857c5e095aa37c99fc8a2a3d065e50197554891c3cf1f318b1996b66469c4b984622ccd95d46d58ee4b4ec121acbc6f1d9de4a5997f2013e0daf02c101048d1108e10bcb7c27dddfc02ed9d693a074039d026cf4ea4240b40f7d581ac802a26469706673582212207a45c47d13a894b2dcaedac759e488dfc4bdd596185ff95ae544cea511b7527e64736f6c63430008180033","linkReferences":{}},"methodIdentifiers":{"accounts(address,address)":"ad74b775","balanceOf(address,uint256)":"00fdd58e","balanceOfBatch(address[],uint256[])":"4e1273f4","bondingCurveSteps(uint256)":"fa1c4db6","buyTapes(bytes32,uint256,uint256)":"9165f843","changeTapeModel(bytes32,address)":"5db8076c","consumeTapes(bytes32,uint256)":"b495bbb0","currencyTokenAddress()":"d3c3b389","dappAddresses(address)":"787ca438","exists(bytes32)":"38a699a4","feeModelAddress()":"3ab03c8b","getCurrentBuyPrice(bytes32,uint256)":"724969e7","getCurrentConsumePrice(bytes32,uint256)":"bbfef088","getCurrentSellPrice(bytes32,uint256)":"b16cae66","getTapeData(bytes32)":"796aea77","isApprovedForAll(address,address)":"e985e9c5","maxSupply()":"d5abeb01","maxTapeSupply(bytes32)":"9ba01fbe","owner()":"8da5cb5b","renounceOwnership()":"715018a6","safeBatchTransferFrom(address,address,uint256[],uint256[],bytes)":"2eb2c2d6","safeTransferFrom(address,address,uint256,uint256,bytes)":"f242432a","sellTapes(bytes32,uint256,uint256)":"828ef8d9","setApprovalForAll(address,bool)":"a22cb465","setDapp(address,bool)":"8d3b5235","setTapeParams(bytes32)":"e5a41243","setTapeParamsCustom(bytes32,uint256[],uint256[],bool)":"dff53634","setURI(string)":"02fe5305","supportsInterface(bytes4)":"01ffc9a7","tapeBondUtilsAddress()":"fabe3824","tapeBondingCurveModelAddress()":"3b6e02af","tapeBonds(bytes32)":"8f8b185b","tapeBondsCreated(uint256)":"eb596d01","tapeModelAddress()":"6a386ed2","tapeOwnershipModelAddress()":"22f046b5","tapesCount()":"7fb90ea6","totalTapes()":"c5b67e81","transferOwnership(address)":"f2fde38b","updateBondingCurveParams(address,address,address,address,address,uint256,uint256[],uint256[])":"3ff72137","updateProtocolWallet(address)":"e308a099","uri(bytes32)":"9ed19ddb","uri(uint256)":"0e89341c","validateTape(address,bytes32,bytes,((uint64,uint64,bytes32,bytes32,bytes32,bytes32,bytes32[],bytes32[]),bytes))":"07974110","validateTapeCustom(address,bytes32,bytes,((uint64,uint64,bytes32,bytes32,bytes32,bytes32,bytes32[],bytes32[]),bytes),uint256[],uint256[],bool)":"3fba3800","withdrawBalance(address,uint256)":"0cf20cc9"},"id":83}