{"abi":[{"type":"constructor","inputs":[{"name":"newTapeBondUtilsAddress","type":"address","internalType":"address"},{"name":"maxSteps","type":"uint256","internalType":"uint256"}],"stateMutability":"nonpayable"},{"type":"function","name":"accounts","inputs":[{"name":"","type":"address","internalType":"address"},{"name":"","type":"address","internalType":"address"}],"outputs":[{"name":"","type":"uint256","internalType":"uint256"}],"stateMutability":"view"},{"type":"function","name":"addDapp","inputs":[{"name":"dapp","type":"address","internalType":"address"}],"outputs":[],"stateMutability":"nonpayable"},{"type":"function","name":"balanceOf","inputs":[{"name":"account","type":"address","internalType":"address"},{"name":"id","type":"uint256","internalType":"uint256"}],"outputs":[{"name":"","type":"uint256","internalType":"uint256"}],"stateMutability":"view"},{"type":"function","name":"balanceOfBatch","inputs":[{"name":"accounts","type":"address[]","internalType":"address[]"},{"name":"ids","type":"uint256[]","internalType":"uint256[]"}],"outputs":[{"name":"","type":"uint256[]","internalType":"uint256[]"}],"stateMutability":"view"},{"type":"function","name":"bondingCurveSteps","inputs":[{"name":"","type":"uint256","internalType":"uint256"}],"outputs":[{"name":"rangeMax","type":"uint256","internalType":"uint256"},{"name":"coefficient","type":"uint256","internalType":"uint256"}],"stateMutability":"view"},{"type":"function","name":"buyTapes","inputs":[{"name":"tapeId","type":"bytes32","internalType":"bytes32"},{"name":"tapesToMint","type":"uint256","internalType":"uint256"},{"name":"maxCurrencyPrice","type":"uint256","internalType":"uint256"}],"outputs":[{"name":"currencyCost","type":"uint256","internalType":"uint256"}],"stateMutability":"payable"},{"type":"function","name":"changeTapeModel","inputs":[{"name":"tapeId","type":"bytes32","internalType":"bytes32"},{"name":"newTapeModel","type":"address","internalType":"address"}],"outputs":[],"stateMutability":"nonpayable"},{"type":"function","name":"consumeTapes","inputs":[{"name":"tapeId","type":"bytes32","internalType":"bytes32"},{"name":"tapesToConsume","type":"uint256","internalType":"uint256"}],"outputs":[{"name":"","type":"uint256","internalType":"uint256"}],"stateMutability":"nonpayable"},{"type":"function","name":"currencyTokenAddress","inputs":[],"outputs":[{"name":"","type":"address","internalType":"address"}],"stateMutability":"view"},{"type":"function","name":"dappAddresses","inputs":[{"name":"","type":"address","internalType":"address"}],"outputs":[{"name":"","type":"bool","internalType":"bool"}],"stateMutability":"view"},{"type":"function","name":"exists","inputs":[{"name":"tapeId","type":"bytes32","internalType":"bytes32"}],"outputs":[{"name":"","type":"bool","internalType":"bool"}],"stateMutability":"view"},{"type":"function","name":"feeModelAddress","inputs":[],"outputs":[{"name":"","type":"address","internalType":"address"}],"stateMutability":"view"},{"type":"function","name":"getCurrentBuyPrice","inputs":[{"name":"tapeId","type":"bytes32","internalType":"bytes32"},{"name":"tokensToMint","type":"uint256","internalType":"uint256"}],"outputs":[{"name":"","type":"uint256","internalType":"uint256"},{"name":"","type":"uint256","internalType":"uint256"},{"name":"","type":"uint256","internalType":"uint256"}],"stateMutability":"view"},{"type":"function","name":"getCurrentConsumePrice","inputs":[{"name":"tapeId","type":"bytes32","internalType":"bytes32"},{"name":"tokensToConsume","type":"uint256","internalType":"uint256"}],"outputs":[{"name":"","type":"uint256","internalType":"uint256"},{"name":"","type":"uint256","internalType":"uint256"}],"stateMutability":"view"},{"type":"function","name":"getCurrentSellPrice","inputs":[{"name":"tapeId","type":"bytes32","internalType":"bytes32"},{"name":"tokensToBurn","type":"uint256","internalType":"uint256"}],"outputs":[{"name":"","type":"uint256","internalType":"uint256"},{"name":"","type":"uint256","internalType":"uint256"},{"name":"","type":"uint256","internalType":"uint256"}],"stateMutability":"view"},{"type":"function","name":"getTapeData","inputs":[{"name":"tapeId","type":"bytes32","internalType":"bytes32"}],"outputs":[{"name":"","type":"bytes32","internalType":"bytes32"},{"name":"","type":"uint256","internalType":"uint256"},{"name":"","type":"int256","internalType":"int256"},{"name":"","type":"bytes32","internalType":"bytes32"},{"name":"","type":"int256","internalType":"int256"},{"name":"","type":"bytes32","internalType":"bytes32"},{"name":"","type":"int256","internalType":"int256"},{"name":"","type":"bytes32","internalType":"bytes32"},{"name":"","type":"int256","internalType":"int256"}],"stateMutability":"view"},{"type":"function","name":"isApprovedForAll","inputs":[{"name":"account","type":"address","internalType":"address"},{"name":"operator","type":"address","internalType":"address"}],"outputs":[{"name":"","type":"bool","internalType":"bool"}],"stateMutability":"view"},{"type":"function","name":"maxSupply","inputs":[],"outputs":[{"name":"","type":"uint256","internalType":"uint256"}],"stateMutability":"view"},{"type":"function","name":"maxTapeSupply","inputs":[{"name":"tapeId","type":"bytes32","internalType":"bytes32"}],"outputs":[{"name":"","type":"uint256","internalType":"uint256"}],"stateMutability":"view"},{"type":"function","name":"owner","inputs":[],"outputs":[{"name":"","type":"address","internalType":"address"}],"stateMutability":"view"},{"type":"function","name":"renounceOwnership","inputs":[],"outputs":[],"stateMutability":"nonpayable"},{"type":"function","name":"safeBatchTransferFrom","inputs":[{"name":"from","type":"address","internalType":"address"},{"name":"to","type":"address","internalType":"address"},{"name":"ids","type":"uint256[]","internalType":"uint256[]"},{"name":"values","type":"uint256[]","internalType":"uint256[]"},{"name":"data","type":"bytes","internalType":"bytes"}],"outputs":[],"stateMutability":"nonpayable"},{"type":"function","name":"safeTransferFrom","inputs":[{"name":"from","type":"address","internalType":"address"},{"name":"to","type":"address","internalType":"address"},{"name":"id","type":"uint256","internalType":"uint256"},{"name":"value","type":"uint256","internalType":"uint256"},{"name":"data","type":"bytes","internalType":"bytes"}],"outputs":[],"stateMutability":"nonpayable"},{"type":"function","name":"sellTapes","inputs":[{"name":"tapeId","type":"bytes32","internalType":"bytes32"},{"name":"tapesToBurn","type":"uint256","internalType":"uint256"},{"name":"minCurrencyRefund","type":"uint256","internalType":"uint256"}],"outputs":[{"name":"","type":"uint256","internalType":"uint256"}],"stateMutability":"nonpayable"},{"type":"function","name":"setApprovalForAll","inputs":[{"name":"operator","type":"address","internalType":"address"},{"name":"approved","type":"bool","internalType":"bool"}],"outputs":[],"stateMutability":"nonpayable"},{"type":"function","name":"setTapeParams","inputs":[{"name":"tapeId","type":"bytes32","internalType":"bytes32"}],"outputs":[],"stateMutability":"nonpayable"},{"type":"function","name":"setTapeParamsCustom","inputs":[{"name":"tapeId","type":"bytes32","internalType":"bytes32"},{"name":"stepRangesMax","type":"uint256[]","internalType":"uint256[]"},{"name":"stepCoefficients","type":"uint256[]","internalType":"uint256[]"}],"outputs":[],"stateMutability":"nonpayable"},{"type":"function","name":"setURI","inputs":[{"name":"newUri","type":"string","internalType":"string"}],"outputs":[],"stateMutability":"nonpayable"},{"type":"function","name":"supportsInterface","inputs":[{"name":"interfaceId","type":"bytes4","internalType":"bytes4"}],"outputs":[{"name":"","type":"bool","internalType":"bool"}],"stateMutability":"view"},{"type":"function","name":"tapeBondUtilsAddress","inputs":[],"outputs":[{"name":"","type":"address","internalType":"address"}],"stateMutability":"view"},{"type":"function","name":"tapeBondingCurveModelAddress","inputs":[],"outputs":[{"name":"","type":"address","internalType":"address"}],"stateMutability":"view"},{"type":"function","name":"tapeBonds","inputs":[{"name":"","type":"bytes32","internalType":"bytes32"}],"outputs":[{"name":"bond","type":"tuple","internalType":"struct BondUtils.BondData","components":[{"name":"currencyToken","type":"address","internalType":"address"},{"name":"steps","type":"tuple[]","internalType":"struct IBondingCurveModel.BondingCurveStep[]","components":[{"name":"rangeMax","type":"uint256","internalType":"uint256"},{"name":"coefficient","type":"uint256","internalType":"uint256"}]},{"name":"currencyBalance","type":"uint256","internalType":"uint256"},{"name":"currentSupply","type":"uint256","internalType":"uint256"},{"name":"currentPrice","type":"uint256","internalType":"uint256"},{"name":"consumePrice","type":"uint256","internalType":"uint256"},{"name":"unclaimed","type":"tuple","internalType":"struct BondUtils.UnclaimedFees","components":[{"name":"mint","type":"uint256","internalType":"uint256"},{"name":"burn","type":"uint256","internalType":"uint256"},{"name":"consume","type":"uint256","internalType":"uint256"},{"name":"royalties","type":"uint256","internalType":"uint256"},{"name":"undistributedRoyalties","type":"uint256","internalType":"uint256"}]},{"name":"count","type":"tuple","internalType":"struct BondUtils.BondCount","components":[{"name":"minted","type":"uint256","internalType":"uint256"},{"name":"burned","type":"uint256","internalType":"uint256"},{"name":"consumed","type":"uint256","internalType":"uint256"}]}]},{"name":"feeModel","type":"address","internalType":"address"},{"name":"tapeModel","type":"address","internalType":"address"},{"name":"cartridgeOwner","type":"address","internalType":"address"},{"name":"tapeCreator","type":"address","internalType":"address"},{"name":"tapeOutputData","type":"bytes","internalType":"bytes"}],"stateMutability":"view"},{"type":"function","name":"tapeBondsCreated","inputs":[{"name":"","type":"uint256","internalType":"uint256"}],"outputs":[{"name":"","type":"bytes32","internalType":"bytes32"}],"stateMutability":"view"},{"type":"function","name":"tapeModelAddress","inputs":[],"outputs":[{"name":"","type":"address","internalType":"address"}],"stateMutability":"view"},{"type":"function","name":"tapeOwnershipModelAddress","inputs":[],"outputs":[{"name":"","type":"address","internalType":"address"}],"stateMutability":"view"},{"type":"function","name":"tapesCount","inputs":[],"outputs":[{"name":"","type":"uint256","internalType":"uint256"}],"stateMutability":"view"},{"type":"function","name":"totalTapes","inputs":[],"outputs":[{"name":"","type":"uint256","internalType":"uint256"}],"stateMutability":"view"},{"type":"function","name":"transferOwnership","inputs":[{"name":"newOwner","type":"address","internalType":"address"}],"outputs":[],"stateMutability":"nonpayable"},{"type":"function","name":"updateBondingCurveParams","inputs":[{"name":"newCurrencyToken","type":"address","internalType":"address"},{"name":"newFeeModel","type":"address","internalType":"address"},{"name":"newTapeModel","type":"address","internalType":"address"},{"name":"newTapeOwnershipModelAddress","type":"address","internalType":"address"},{"name":"newTapeBondingCurveModelAddress","type":"address","internalType":"address"},{"name":"newMaxSupply","type":"uint256","internalType":"uint256"},{"name":"stepRangesMax","type":"uint256[]","internalType":"uint256[]"},{"name":"stepCoefficients","type":"uint256[]","internalType":"uint256[]"}],"outputs":[],"stateMutability":"nonpayable"},{"type":"function","name":"updateProtocolWallet","inputs":[{"name":"newProtocolWallet","type":"address","internalType":"address"}],"outputs":[],"stateMutability":"nonpayable"},{"type":"function","name":"uri","inputs":[{"name":"","type":"uint256","internalType":"uint256"}],"outputs":[{"name":"","type":"string","internalType":"string"}],"stateMutability":"view"},{"type":"function","name":"validateTape","inputs":[{"name":"dapp","type":"address","internalType":"address"},{"name":"tapeId","type":"bytes32","internalType":"bytes32"},{"name":"_payload","type":"bytes","internalType":"bytes"},{"name":"_v","type":"tuple","internalType":"struct Proof","components":[{"name":"validity","type":"tuple","internalType":"struct OutputValidityProof","components":[{"name":"inputIndexWithinEpoch","type":"uint64","internalType":"uint64"},{"name":"outputIndexWithinInput","type":"uint64","internalType":"uint64"},{"name":"outputHashesRootHash","type":"bytes32","internalType":"bytes32"},{"name":"vouchersEpochRootHash","type":"bytes32","internalType":"bytes32"},{"name":"noticesEpochRootHash","type":"bytes32","internalType":"bytes32"},{"name":"machineStateHash","type":"bytes32","internalType":"bytes32"},{"name":"outputHashInOutputHashesSiblings","type":"bytes32[]","internalType":"bytes32[]"},{"name":"outputHashesInEpochSiblings","type":"bytes32[]","internalType":"bytes32[]"}]},{"name":"context","type":"bytes","internalType":"bytes"}]}],"outputs":[{"name":"","type":"bytes32","internalType":"bytes32"}],"stateMutability":"nonpayable"},{"type":"function","name":"validateTapeCustom","inputs":[{"name":"dapp","type":"address","internalType":"address"},{"name":"tapeId","type":"bytes32","internalType":"bytes32"},{"name":"_payload","type":"bytes","internalType":"bytes"},{"name":"_v","type":"tuple","internalType":"struct Proof","components":[{"name":"validity","type":"tuple","internalType":"struct OutputValidityProof","components":[{"name":"inputIndexWithinEpoch","type":"uint64","internalType":"uint64"},{"name":"outputIndexWithinInput","type":"uint64","internalType":"uint64"},{"name":"outputHashesRootHash","type":"bytes32","internalType":"bytes32"},{"name":"vouchersEpochRootHash","type":"bytes32","internalType":"bytes32"},{"name":"noticesEpochRootHash","type":"bytes32","internalType":"bytes32"},{"name":"machineStateHash","type":"bytes32","internalType":"bytes32"},{"name":"outputHashInOutputHashesSiblings","type":"bytes32[]","internalType":"bytes32[]"},{"name":"outputHashesInEpochSiblings","type":"bytes32[]","internalType":"bytes32[]"}]},{"name":"context","type":"bytes","internalType":"bytes"}]},{"name":"stepRangesMax","type":"uint256[]","internalType":"uint256[]"},{"name":"stepCoefficients","type":"uint256[]","internalType":"uint256[]"}],"outputs":[{"name":"","type":"bytes32","internalType":"bytes32"}],"stateMutability":"nonpayable"},{"type":"function","name":"withdrawBalance","inputs":[{"name":"token","type":"address","internalType":"address"},{"name":"amount","type":"uint256","internalType":"uint256"}],"outputs":[],"stateMutability":"nonpayable"},{"type":"event","name":"ApprovalForAll","inputs":[{"name":"account","type":"address","indexed":true,"internalType":"address"},{"name":"operator","type":"address","indexed":true,"internalType":"address"},{"name":"approved","type":"bool","indexed":false,"internalType":"bool"}],"anonymous":false},{"type":"event","name":"Bond","inputs":[{"name":"id","type":"bytes32","indexed":true,"internalType":"bytes32"},{"name":"token","type":"address","indexed":true,"internalType":"address"},{"name":"currentPrice","type":"uint256","indexed":false,"internalType":"uint256"},{"name":"currentSupply","type":"uint256","indexed":false,"internalType":"uint256"},{"name":"currentBalance","type":"uint256","indexed":false,"internalType":"uint256"}],"anonymous":false},{"type":"event","name":"Buy","inputs":[{"name":"id","type":"bytes32","indexed":true,"internalType":"bytes32"},{"name":"user","type":"address","indexed":true,"internalType":"address"},{"name":"amountMinted","type":"uint256","indexed":false,"internalType":"uint256"},{"name":"pricePayed","type":"uint256","indexed":false,"internalType":"uint256"}],"anonymous":false},{"type":"event","name":"Consume","inputs":[{"name":"id","type":"bytes32","indexed":true,"internalType":"bytes32"},{"name":"user","type":"address","indexed":true,"internalType":"address"},{"name":"amountConsumed","type":"uint256","indexed":false,"internalType":"uint256"},{"name":"currencyDonated","type":"uint256","indexed":false,"internalType":"uint256"}],"anonymous":false},{"type":"event","name":"OwnershipTransferred","inputs":[{"name":"previousOwner","type":"address","indexed":true,"internalType":"address"},{"name":"newOwner","type":"address","indexed":true,"internalType":"address"}],"anonymous":false},{"type":"event","name":"Reward","inputs":[{"name":"id","type":"bytes32","indexed":true,"internalType":"bytes32"},{"name":"user","type":"address","indexed":true,"internalType":"address"},{"name":"token","type":"address","indexed":true,"internalType":"address"},{"name":"rewardType","type":"uint8","indexed":false,"internalType":"enum BondUtils.RewardType"},{"name":"amount","type":"uint256","indexed":false,"internalType":"uint256"}],"anonymous":false},{"type":"event","name":"Sell","inputs":[{"name":"id","type":"bytes32","indexed":true,"internalType":"bytes32"},{"name":"user","type":"address","indexed":true,"internalType":"address"},{"name":"amountBurned","type":"uint256","indexed":false,"internalType":"uint256"},{"name":"refundReceived","type":"uint256","indexed":false,"internalType":"uint256"}],"anonymous":false},{"type":"event","name":"TransferBatch","inputs":[{"name":"operator","type":"address","indexed":true,"internalType":"address"},{"name":"from","type":"address","indexed":true,"internalType":"address"},{"name":"to","type":"address","indexed":true,"internalType":"address"},{"name":"ids","type":"uint256[]","indexed":false,"internalType":"uint256[]"},{"name":"values","type":"uint256[]","indexed":false,"internalType":"uint256[]"}],"anonymous":false},{"type":"event","name":"TransferSingle","inputs":[{"name":"operator","type":"address","indexed":true,"internalType":"address"},{"name":"from","type":"address","indexed":true,"internalType":"address"},{"name":"to","type":"address","indexed":true,"internalType":"address"},{"name":"id","type":"uint256","indexed":false,"internalType":"uint256"},{"name":"value","type":"uint256","indexed":false,"internalType":"uint256"}],"anonymous":false},{"type":"event","name":"URI","inputs":[{"name":"value","type":"string","indexed":false,"internalType":"string"},{"name":"id","type":"uint256","indexed":true,"internalType":"uint256"}],"anonymous":false},{"type":"error","name":"Bond__InvalidAmount","inputs":[]},{"type":"error","name":"ERC1155InsufficientBalance","inputs":[{"name":"sender","type":"address","internalType":"address"},{"name":"balance","type":"uint256","internalType":"uint256"},{"name":"needed","type":"uint256","internalType":"uint256"},{"name":"tokenId","type":"uint256","internalType":"uint256"}]},{"type":"error","name":"ERC1155InvalidApprover","inputs":[{"name":"approver","type":"address","internalType":"address"}]},{"type":"error","name":"ERC1155InvalidArrayLength","inputs":[{"name":"idsLength","type":"uint256","internalType":"uint256"},{"name":"valuesLength","type":"uint256","internalType":"uint256"}]},{"type":"error","name":"ERC1155InvalidOperator","inputs":[{"name":"operator","type":"address","internalType":"address"}]},{"type":"error","name":"ERC1155InvalidReceiver","inputs":[{"name":"receiver","type":"address","internalType":"address"}]},{"type":"error","name":"ERC1155InvalidSender","inputs":[{"name":"sender","type":"address","internalType":"address"}]},{"type":"error","name":"ERC1155MissingApprovalForAll","inputs":[{"name":"operator","type":"address","internalType":"address"},{"name":"owner","type":"address","internalType":"address"}]},{"type":"error","name":"OwnableInvalidOwner","inputs":[{"name":"owner","type":"address","internalType":"address"}]},{"type":"error","name":"OwnableUnauthorizedAccount","inputs":[{"name":"account","type":"address","internalType":"address"}]},{"type":"error","name":"Tape__ChangeError","inputs":[]},{"type":"error","name":"Tape__InsufficientFunds","inputs":[]},{"type":"error","name":"Tape__InvalidDapp","inputs":[]},{"type":"error","name":"Tape__InvalidOwner","inputs":[]},{"type":"error","name":"Tape__InvalidTape","inputs":[{"name":"reason","type":"string","internalType":"string"}]},{"type":"error","name":"Tape__InvalidUser","inputs":[]},{"type":"error","name":"Tape__NotFound","inputs":[]},{"type":"error","name":"Tape__SlippageLimitExceeded","inputs":[]}],"bytecode":{"object":"0x60a034620001b1576001600160401b0362005abc601f38829003908101601f1916840190838211858310176200019b5780859160409485948552833981010312620001b15782516001600160a01b03938482169391849003620001b15760200151908251906020820190828210908211176200019b5783526000809152600254600190600181811c9116801562000190575b60208210146200017c57601f811162000132575b50508060025532156200011b57600354907f8be0079c531659141344cd1fd0a4f28419497f9722a3daafe3b4186f6b6457e060018060a01b031994328685161760035551963293169180a33282600c541617600c5560805260085416176008556159059081620001b78239608051816130a90152f35b602490835190631e4fbdf760e01b82526004820152fd5b60028352601f0160051c7f405787fa12a823e0f2b7631cc41b3ba8828b3321ca811111fa75cd3aa3bb5ace908101905b818110620001715750620000a5565b838155820162000162565b634e487b7160e01b83526022600452602483fd5b90607f169062000091565b634e487b7160e01b600052604160045260246000fd5b600080fdfe6080604052600436101561001257600080fd5b60003560e01c8062fdd58e146102d657806301ffc9a7146102d157806302fe5305146102cc57806307974110146102c75780630cf20cc9146102c25780630e89341c146102bd5780630fe4ef17146102b857806322f046b5146102b357806327b7ca5f146102ae5780632eb2c2d6146102a957806338a699a4146102a45780633ab03c8b1461029f5780633b6e02af1461029a5780633ff72137146102955780634e1273f4146102905780635db8076c1461028b5780636a386ed214610286578063715018a614610281578063724969e71461027c578063787ca43814610277578063796aea77146102725780637fb90ea61461026d578063828ef8d9146102685780638da5cb5b146102635780638f8b185b1461025e5780639165f843146102595780639ba01fbe14610254578063a22cb4651461024f578063ad74b7751461024a578063b16cae6614610245578063b495bbb014610240578063bbfef0881461023b578063c5b67e8114610236578063d092619c14610231578063d3c3b3891461022c578063d5abeb0114610227578063e308a09914610222578063e5a412431461021d578063e985e9c514610218578063eb596d0114610213578063f242432a1461020e578063f2fde38b14610209578063fa1c4db6146102045763fabe3824146101ff57600080fd5b612e2a565b612db1565b612cf3565b612bce565b612b8f565b612b05565b612a77565b612a1e565b612a00565b6129d7565b61290e565b612866565b612795565b6124fc565b612399565b61235d565b612284565b61222c565b611dd1565b611d56565b6119a9565b6114f4565b6114bc565b61133b565b6112f9565b611110565b6110af565b611086565b610f26565b610e6a565b610d93565b610d6a565b610d41565b610d10565b610be1565b610aff565b610ad6565b610a35565b61082e565b610670565b610549565b61040b565b610370565b61030d565b6001600160a01b038116036102ec57565b600080fd5b600435906102fe826102db565b565b608435906102fe826102db565b346102ec5760403660031901126102ec57602061035560043561032f816102db565b6024356000526000835260406000209060018060a01b0316600052602052604060002090565b54604051908152f35b6001600160e01b03198116036102ec57565b346102ec5760203660031901126102ec57602060043561038f8161035e565b63ffffffff60e01b16636cdb3d1360e11b81149081156103cd575b81156103bc575b506040519015158152f35b6301ffc9a760e01b149050386103b1565b6303a24d0760e21b811491506103aa565b9181601f840112156102ec578235916001600160401b0383116102ec57602083818601950101116102ec57565b346102ec576020806003193601126102ec576001600160401b036004358181116102ec5761044061044f9136906004016103de565b610448613bd1565b3691610b8c565b9182519182116105365761046d82610468600254611b38565b613c14565b602090601f83116001146104af5750819061049f936000926104a4575b50508160011b916000199060031b1c19161790565b600255005b01519050388061048a565b90601f198316936104e260026000527f405787fa12a823e0f2b7631cc41b3ba8828b3321ca811111fa75cd3aa3bb5ace90565b926000905b86821061051e5750508360019510610505575b505050811b01600255005b015160001960f88460031b161c191690553880806104fa565b806001859682949686015181550195019301906104e7565b610911565b908160409103126102ec5790565b346102ec5760803660031901126102ec57600435610566816102db565b602435906001600160401b036044358181116102ec5761058a9036906004016103de565b90916064359081116102ec576105a490369060040161053b565b6009549092906105c4906001600160a01b03165b6001600160a01b031690565b60405163273bed1d60e21b81523360048201526024810187905290602090829060449082905afa90811561066b5760009161063c575b501561062a57846106169461061161062697613b51565b613f6e565b6040519081529081906020820190565b0390f35b6040516313bb0a7760e11b8152600490fd5b61065e915060203d602011610664575b6106568183610970565b810190612eb9565b386105fa565b503d61064c565b612ece565b346102ec5760403660031901126102ec5760043561068d816102db565b336000908152600f60205260409020602435919082906106c19083905b9060018060a01b0316600052602052604060002090565b54106107dc57336000908152600f602052604090206106e19082906106aa565b6106ec838254612e69565b90556001600160a01b03169081156107af5760405163095ea7b360e01b81523060048201526024810182905260209283826044816000855af190811561066b57600093859361076b93610792575b506040516323b872dd60e01b8152306004820152336024820152604481019190915293849283919082906064820190565b03925af1801561066b5761077c575b005b8161077a92903d10610664576106568183610970565b6107a890853d8711610664576106568183610970565b503861073a565b6000808093508092335af16107c2612e89565b50156107ca57005b60405163f570efeb60e01b8152600490fd5b6040516368d134dd60e11b8152600490fd5b919082519283825260005b84811061081a575050826000602080949584010152601f8019910116010190565b6020818301810151848301820152016107f9565b346102ec576020806003193601126102ec57604051906000826002549161085483611b38565b92838352600190856001821691826000146108f1575050600114610894575b5061088092500383610970565b6106266040519282849384528301906107ee565b84915060026000527f405787fa12a823e0f2b7631cc41b3ba8828b3321ca811111fa75cd3aa3bb5ace906000915b8583106108d9575050610880935082010138610873565b805483890185015287945086939092019181016108c2565b60ff19168582015261088095151560051b85010192503891506108739050565b634e487b7160e01b600052604160045260246000fd5b6001600160401b03811161053657604052565b604081019081106001600160401b0382111761053657604052565b602081019081106001600160401b0382111761053657604052565b90601f801991011681019081106001600160401b0382111761053657604052565b6040519061010082018281106001600160401b0382111761053657604052565b604051906102fe8261093a565b6001600160401b0381116105365760051b60200190565b9080601f830112156102ec5760209082356109ef816109be565b936109fd6040519586610970565b81855260208086019260051b8201019283116102ec57602001905b828210610a26575050505090565b81358152908301908301610a18565b346102ec5760c03660031901126102ec57610a4e6102f1565b6001600160401b036044358181116102ec57610a6e9036906004016103de565b6064939193358381116102ec57610a8990369060040161053b565b6084358481116102ec57610aa19036906004016109d5565b9160a4359485116102ec5761062695610ac16106169636906004016109d5565b9460243590612eda565b60009103126102ec57565b346102ec5760003660031901126102ec576009546040516001600160a01b039091168152602090f35b346102ec5760203660031901126102ec57600435610b1c816102db565b610b24613bd1565b6001600160a01b031660008181526010602052604081205490919060ff16610b5f578152601060205260408120805460ff1916600117905580f35b604051631c3265c360e31b8152600490fd5b6001600160401b03811161053657601f01601f191660200190565b929192610b9882610b71565b91610ba66040519384610970565b8294818452818301116102ec578281602093846000960137010152565b9080601f830112156102ec57816020610bde93359101610b8c565b90565b346102ec5760a03660031901126102ec5760048035610bff816102db565b602435610c0b816102db565b6001600160401b03906044358281116102ec57610c2b90369086016109d5565b906064358381116102ec57610c4390369087016109d5565b926084359081116102ec57610c5b9036908701610bc3565b936001600160a01b03808216903382141580610cec575b610cbb57831615610ca35715610c8c5761077a955061507c565b604051626a0d4560e21b8152600081880152602490fd5b604051632bfa23e760e11b8152600081890152602490fd5b6040805163711bec9160e11b815233818b019081526001600160a01b038616602082015290918291010390fd5b0390fd5b50600082815260016020908152604080832033845290915290205460ff1615610c72565b346102ec5760203660031901126102ec57600435600052600d60205260206001604060002001541515604051908152f35b346102ec5760003660031901126102ec576006546040516001600160a01b039091168152602090f35b346102ec5760003660031901126102ec57600a546040516001600160a01b039091168152602090f35b346102ec576101003660031901126102ec57600435610db1816102db565b602435610dbd816102db565b604435610dc9816102db565b60643592610dd6846102db565b610dde610300565b6001600160401b039460c4358681116102ec57610dff9036906004016109d5565b9360e4359687116102ec57610e1b61077a9736906004016109d5565b9560a43594612f5a565b90815180825260208080930193019160005b828110610e45575050505090565b835185529381019392810192600101610e37565b906020610bde928181520190610e25565b346102ec5760403660031901126102ec576004356001600160401b038082116102ec57366023830112156102ec578160040135610ea6816109be565b92610eb46040519485610970565b8184526020916024602086019160051b830101913683116102ec57602401905b828210610f0d57856024358681116102ec5761062691610efb610f019236906004016109d5565b906132af565b60405191829182610e59565b8380918335610f1b816102db565b815201910190610ed4565b346102ec5760403660031901126102ec57600435602435610f46816102db565b610f4e613bd1565b6001610f6483600052600d602052604060002090565b01541561107457610f8a6012610f8484600052600d602052604060002090565b0161336e565b61103557600854610fa5906105b8906001600160a01b031681565b803b156102ec5760405163f8e0044b60e01b81526001600160a01b038316600482015290600090829060249082905afa801561066b5761077a93600f92610ffc9261101c575b50600052600d602052604060002090565b0180546001600160a01b0319166001600160a01b03909216919091179055565b8061102961102f92610927565b80610acb565b38610feb565b6040516329c45f6760e01b815260206004820152601660248201527515185c1948185b1c9958591e481d985b1a59185d195960521b6044820152606490fd5b604051631d8ce09b60e31b8152600490fd5b346102ec5760003660031901126102ec576007546040516001600160a01b039091168152602090f35b346102ec5760008060031936011261110d576110c9613bd1565b600380546001600160a01b0319811690915581906001600160a01b03167f8be0079c531659141344cd1fd0a4f28419497f9722a3daafe3b4186f6b6457e08280a380f35b80fd5b346102ec576040806003193601126102ec5760043590602435600161113f84600052600d602052604060002090565b0154156112e85761116561116061119c94600052600d602052604060002090565b613378565b908261117e6105b86105b860085460018060a01b031690565b835190825180809881946323ba203560e21b83528760048401613416565b03915afa91821561066b57600094600093611299575b50602001516111ff92916080918691906111d6906105b8906001600160a01b031681565b9086518096819482936370f986fd60e01b84526004840160209093929193604081019481520152565b03915afa91821561066b5761123861123f916106269460008060009160009361125b575b611233939450906112339161344f565b61344f565b809561344f565b9251938493846040919493926060820195825260208201520152565b505050506112336112866112339260803d608011611292575b61127e8183610970565b81019061342d565b92945091925083611223565b503d611274565b602095506111ff9350608091926111d66105b86112ce6105b894893d8b116112e1575b6112c68183610970565b810190613400565b9490998a959850505050509291506111b2565b503d6112bc565b8151631d8ce09b60e31b8152600490fd5b346102ec5760203660031901126102ec57600435611316816102db565b60018060a01b03166000526010602052602060ff604060002054166040519015158152f35b346102ec5760203660031901126102ec576004356113686012610f8483600052600d602052604060002090565b15611485578060126113b46113a36105b86105b8600f6113956113d598600052600d602052604060002090565b01546001600160a01b031690565b92600052600d602052604060002090565b01604051809263c827650360e01b825281806101209687956004830161349d565b03915afa801561066b576000908192828384859186938795889761143f575b5061062697989950604051998a998a95926101009794919a9998959261012088019b8852602088015260408701526060860152608085015260a084015260c083015260e08201520152565b97505050505050505061146c91508261062693903d1061147e575b6114648183610970565b81019061345c565b969889989796919592949291906113f4565b503d61145a565b6040516329c45f6760e01b815260206004820152600e60248201526d746170654f75747075744461746160901b6044820152606490fd5b346102ec5760003660031901126102ec576020600e54604051908152f35b60609060031901126102ec57600435906024359060443590565b346102ec57611502366114da565b600092808452602090600d825260409160018387200154156119985761153282600052600d602052604060002090565b600854611549906105b8906001600160a01b031681565b86858051809363fdfb946360e01b8252818061156a886004978884016134f8565b03915afa91821561066b576115c8938a918b94611977575b50600e81015460809083906115a1906105b8906001600160a01b031681565b8a5163f5b0402760e01b81528681018e815260208101939093529788928391829160400190565b03915afa9a8b1561066b578095818291839e61193f575b506115fb6115f58f61123385611233868e61344f565b86612e69565b9b8c1061192f578c9d6116649261165c928f9d9e9f61161b908e336146ed565b61162a60028801988954612e69565b8855600387019d8e61163d828254612e69565b905561164e600c890191825461344f565b9055888701998a558c61495f565b92919061344f565b6116736007850191825461344f565b9055611684600a840191825461344f565b9055600c546116d7906116b5906001600160a01b03165b6001600160a01b03166000908152600f6020526040902090565b83546001600160a01b03165b60018060a01b0316600052602052604060002090565b6116e287825461344f565b9055600c5482548b516000815260208101989098526001600160a01b0397908816918291908916908b9060008051602061589083398151915290604090a4156118b957808761176c8c8e6117426105b86105b8895460018060a01b031690565b915163095ea7b360e01b8152308a8201908152602081019290925295869384928391604090910190565b03925af190811561066b576117cd9589938e9361189c575b50845461179b906105b8906001600160a01b031681565b8d516323b872dd60e01b8152309281019283523360208401526040830194909452929687939284929091839160600190565b03925af190811561066b576106269b887f47d38b8b50e4b792e507faad951cda2457545e704f667a3e32f22541945ebbf66118388e8e6000805160206158508339815191529c61186d9a6118489961187e575b50505b51948552602085015233939081906040820190565b0390a3546001600160a01b031690565b9254965490549088519485941697846040919493926060820195825260208201520152565b0390a3519081529081906020820190565b8161189492903d10610664576106568183610970565b503880611820565b6118b290853d8711610664576106568183610970565b5038611784565b808080939698508c9d9594979d335af16118d1612e89565b501561192157506106269892611848600080516020615850833981519152959361186d93887f47d38b8b50e4b792e507faad951cda2457545e704f667a3e32f22541945ebbf66118388e8e611823565b875163f570efeb60e01b8152fd5b8a51636bdbc20960e11b81528690fd5b939d505050945060803d608011611970575b61195b8183610970565b81016119669161342d565b9c929691816115df565b503d611951565b9093506119919150873d89116112e1576112c68183610970565b9238611582565b8251631d8ce09b60e31b8152600490fd5b346102ec5760003660031901126102ec576003546040516001600160a01b039091168152602090f35b9081546119de816109be565b926040936119ef6040519182610970565b82815280946020809201926000526020600020906000935b858510611a1657505050505050565b6002846001928451611a278161093a565b865481528487015483820152815201930194019391611a07565b9060405160a081018181106001600160401b0382111761053657604052608060048294805484526001810154602085015260028101546040850152600381015460608501520154910152565b90604051606081018181106001600160401b038211176105365760405260406002829480548452600181015460208501520154910152565b90611b31600b611ad3610991565b84546001600160a01b0316815293611aed600182016119d2565b6020860152600281015460408601526003810154606086015260048101546080860152600581015460a0860152611b2660068201611a41565b60c086015201611a8d565b60e0830152565b90600182811c92168015611b68575b6020831014611b5257565b634e487b7160e01b600052602260045260246000fd5b91607f1691611b47565b805460009392611b8182611b38565b91828252602093600191600181169081600014611be95750600114611ba8575b5050505050565b90939495506000929192528360002092846000945b838610611bd557505050500101903880808080611ba1565b805485870183015294019385908201611bbd565b60ff19168685015250505090151560051b010191503880808080611ba1565b906102fe611c1c9260405193848092611b72565b0383610970565b80516001600160a01b031682526020808201516101c082850181905281519085018190526101e085019493929182019160005b828110611ceb57505050509061016060e0836040610bde9501516040850152606081015160608501526080810151608085015260a081015160a0850152611ccd60c082015160c086019060808091805184526020810151602085015260408101516040850152606081015160608501520151910152565b01519101906040809180518452602081015160208501520151910152565b8351805188528201518783015260409096019592810192600101611c56565b9291611d24610bde9795969260c0865260c0860190611c23565b9560018060a01b03809481809416602088015216604086015216606084015216608082015260a08184039101526107ee565b346102ec5760203660031901126102ec57600435600052600d6020526040600020611d8081611ac5565b610626601260018060a01b039384600e820154169480600f83015416611dc5826010850154169260118501541693611dbe6040518097819301611b72565b0385610970565b60405196879687611d0a565b611dda366114da565b9190600091808352600d602052604092600184822001541561221b57611e0a82600052600d602052604060002090565b600854909390611e24906105b8906001600160a01b031681565b8551946323ba203560e21b865286866004938180611e4586898984016134f8565b03915afa92831561066b57849685946121f6575b5084908180808a6001611e6d888201612d80565b50015461214c575b81611233876112338661123389611e8b9761344f565b9c8d1161213c5785546001600160a01b0399908a16156120b8579060208e8e8a611efa9998979695611ec96105b86105b88e5460018060a01b031690565b92516323b872dd60e01b815233928101928352306020840152604083019490945292998a9384929091839160600190565b03925af194851561066b578e968c96612099575b505b600288019c8d5490611f219161344f565b8d556003880198858a5490611f359161344f565b8a55600b890186815490611f489161344f565b90558801998a55611f59928661495f565b91611f639161344f565b6006870190815490611f749161344f565b9055600a860190815490611f879161344f565b9055600c546001600160a01b039081166000908152600f6020908152604080832089549094168352929052208054611fc090839061344f565b9055600c546001600160a01b03169083898d818954611fe49060018060a01b031690565b9151600081526020810195909552911693169160008051602061589083398151915290604090a481612014612e76565b82339261202093614df2565b8951908152602081019290925233917f5bd6f821d5961785d719543640cf62d3770f94e59db1a2f3c2250d72b122dddf90604090a354915490549454865191825260208201959095526040810194909452166001600160a01b03169160008051602061585083398151915290606090a351908152602090f35b6120b19060203d602011610664576106568183610970565b5038611f0e565b8d9b9a9998979d95919293949534106000146120de578c5163bd9c85bb60e01b81528e90fd5b918b9d9798999a9b9593918b95938734116120fa575b50611f10565b80809395975061210e819395979934612e69565b335af1612119612e89565b501561212c57918993918d9593386120f4565b8b5163f570efeb60e01b81528790fd5b8b51636bdbc20960e11b81528790fd5b50505050600e83015490915061216c906105b8906001600160a01b031681565b88516370f986fd60e01b8152848101838152602081018a90529092916080918491908290819060400103915afa91821561066b5788908793889089928a916121bb575b50919492909190611e75565b611233965061123393506112339250611e8b91506121e79060803d6080116112925761127e8183610970565b929850949093509091506121af565b909350612211919650873d89116112e1576112c68183610970565b9590959238611e59565b8351631d8ce09b60e31b8152600490fd5b346102ec5760203660031901126102ec57600435600052600d602052600160406000200180549060001982019182116122755760209161226b91612d95565b5054604051908152f35b612e53565b801515036102ec57565b346102ec5760403660031901126102ec576004356122a1816102db565b6024356122ad8161227a565b6001600160a01b038216918215612320573360009081526001602090815260408083206001600160a01b039094168352929052209015159060ff1981541660ff83161790556040519081527f17307eab39ab6107e8899845ad3d59bd9653f200f220920489ca2b5937696c3160203392a3005b60405162ced3e160e81b815260006004820152602490fd5b60409060031901126102ec57600435612350816102db565b90602435610bde816102db565b346102ec57602061035561237036612338565b6001600160a01b039182166000908152600f855260408082209290931681526020919091522090565b346102ec576040806003193601126102ec576004359060243560016123c884600052600d602052604060002090565b0154156112e8576123e961116061242094600052600d602052604060002090565b90826124026105b86105b860085460018060a01b031690565b8351908251808098819463fdfb946360e01b83528760048401613416565b03915afa91821561066b576000946000936124bd575b5060200151612483929160809186919061245a906105b8906001600160a01b031681565b90865180968194829363f5b0402760e01b84526004840160209093929193604081019481520152565b03915afa91821561066b576124b661123f916106269460008060009160009361125b57611233939450906112339161344f565b8095612e69565b6020955061248393506080919261245a6105b86124e96105b894893d8b116112e1576112c68183610970565b9490998a95985050505050929150612436565b346102ec576040806003193601126102ec5760043590602435600092808452600d60205260018385200154156119985761254081600052600d602052604060002090565b60085490949061255a906105b8906001600160a01b031681565b9484805180976328dac05d60e21b8252818061257a868a600484016134f8565b03915afa90811561066b5782968392612773575b50600e8101546125a8906105b8906001600160a01b031681565b8651630c1d341f60e31b81526004810189905290608090829060249082905afa95861561066b578891859786918791612747575b50879291906125ec8385336146ed565b6003860197838954906125fe91612e69565b895560028701978689549061261291612e69565b8955600d8801858154906126259161344f565b90556005880155612636928561495f565b916126409161344f565b60088601908154906126519161344f565b9055600a8501908154906126649161344f565b9055600c546001600160a01b039081166000908152600f602090815260408083208854909416835292905220805461269d908a9061344f565b9055600c5484548a5160008152602081019a909a526001600160a01b03908116998a929190911690849060008051602061589083398151915290604090a48851908152602081019290925233917fff8a4589f2e064f9b82f2aec48ea80dbf6a8f623d3bd76d954da82ec4ea0079f90604090a3600401549154905485519283526020830191909152604082015260008051602061585083398151915290606090a351908152602090f35b91505061276791975086955060803d6080116112925761127e8183610970565b929890969092906125dc565b90965061278d9150853d87116112e1576112c68183610970565b90953861258e565b346102ec576040806003193601126102ec5760043560016127c082600052600d602052604060002090565b0154156112e857816127e261116061281993600052600d602052604060002090565b6008546127f9906105b8906001600160a01b031681565b905190825180809581946328dac05d60e21b835260243560048401613416565b03915afa91821561066b57600091600093612841575b50519081526020810191909152604090f35b8161285e92945061062693503d85116112e1576112c68183610970565b92909161282f565b346102ec5760008060031936011261110d578081600e8054915b82851061289257604051848152602090f35b9091926129036001918484526128fd60036128c8896000805160206158708339815191520154600052600d602052604060002090565b0154600d6128f56128e56128db8c612b65565b90549060031b1c90565b600052600d602052604060002090565b015490612e69565b9061344f565b940193929190612880565b346102ec5760603660031901126102ec576004356001600160401b036024358181116102ec576129429036906004016109d5565b906044359081116102ec5761295b9036906004016109d5565b600954909190612973906001600160a01b03166105b8565b60405163273bed1d60e21b81523360048201526024810185905290602090829060449082905afa90811561066b576000916129b8575b501561062a5761077a92613ab6565b6129d1915060203d602011610664576106568183610970565b386129a9565b346102ec5760003660031901126102ec576005546040516001600160a01b039091168152602090f35b346102ec5760003660031901126102ec576020600b54604051908152f35b346102ec5760203660031901126102ec57600435612a3b816102db565b600c54906001600160a01b03908183163303612a65576001600160a01b0319909216911617600c55005b60405163dcf0398d60e01b8152600490fd5b346102ec5760203660031901126102ec5760095460043590612aa1906001600160a01b03166105b8565b60405163273bed1d60e21b81523360048201526024810183905290602090829060449082905afa90811561066b57600091612ae6575b501561062a5761077a90613b51565b612aff915060203d602011610664576106568183610970565b38612ad7565b346102ec57602060ff612b43612b1a36612338565b6001600160a01b0391821660009081526001865260408082209290931681526020919091522090565b54166040519015158152f35b634e487b7160e01b600052603260045260246000fd5b600e54811015612b8a57600e6000526000805160206158708339815191520190600090565b612b4f565b346102ec5760203660031901126102ec57600435600e548110156102ec57602090600e6000526000805160206158708339815191520154604051908152f35b346102ec5760a03660031901126102ec57600435612beb816102db565b602435612bf7816102db565b6084356001600160401b0381116102ec57612c16903690600401610bc3565b906001600160a01b03838116903382141580612ccf575b612ca857821615612c8f5715612c775761077a92612c6f6064356044359160405192600184526020840152604083019160018352606084015260808301604052565b92909161507c565b604051626a0d4560e21b815260006004820152602490fd5b604051632bfa23e760e11b815260006004820152602490fd5b60405163711bec9160e11b81523360048201526001600160a01b0386166024820152604490fd5b50600082815260016020908152604080832033845290915290205460ff1615612c2d565b346102ec5760203660031901126102ec57600435612d10816102db565b612d18613bd1565b6001600160a01b03908116908115612d6757600354826001600160601b0360a01b821617600355167f8be0079c531659141344cd1fd0a4f28419497f9722a3daafe3b4186f6b6457e0600080a3005b604051631e4fbdf760e01b815260006004820152602490fd5b805415612b8a57600052602060002090600090565b8054821015612b8a5760005260206000209060011b0190600090565b346102ec5760203660031901126102ec576004356004548110156102ec57600460005260011b7f8a35acfbc15ff81a39ae7d344fd709f28e8600b4aa8c65c6b64bfe7fe36bd19c816000805160206158b08339815191520154910154906106266040519283928360209093929193604081019481520152565b346102ec5760003660031901126102ec576008546040516001600160a01b039091168152602090f35b634e487b7160e01b600052601160045260246000fd5b9190820391821161227557565b60405190612e8382610955565b60008252565b3d15612eb4573d90612e9a82610b71565b91612ea86040519384610970565b82523d6000602084013e565b606090565b908160209103126102ec5751610bde8161227a565b6040513d6000823e3d90fd5b60095460405163273bed1d60e21b815233600482015260248101849052959694959394929391929190602090829060449082906001600160a01b03165afa90811561066b57600091612f3b575b501561062a57610bde966106119184613ab6565b612f54915060203d602011610664576106568183610970565b38612f27565b9697959497612f67613bd1565b600854612f7e906105b8906001600160a01b031681565b90813b156102ec576040805163169f6b0560e11b81526001600160a01b038b16600480830191909152919860009492939290918581602481855afa801561066b57613288575b50803b1561324b57895163f610a03960e01b81526001600160a01b0387168582019081528690829081906020010381855afa801561066b57613275575b50803b1561324b57895163f8e0044b60e01b81526001600160a01b0388168582019081528690829081906020010381855afa801561066b57613262575b50803b1561324b57895163130d243760e21b81526001600160a01b038916858201908152909186918391908290819060200103915afa801561066b5761324f575b506001600160a01b03881690813b1561324b578951632326e3db60e01b8152938585806130d087867f00000000000000000000000000000000000000000000000000000000000000008785016145b4565b0381865afa801561066b578e9b879661310a92613238575b506130f16145df565b516309a257cd60e41b81529e8f95869485948501613a81565b03915afa98891561066b578199613214575b505b8851811015613163578061315d6131376001938c61329b565b5151602080613146858f61329b565b510151906131526109b1565b92835282015261463d565b0161311e565b5061320f949597506131f292916131b86131d59261319b6102fe9a60018060a01b03166001600160601b0360a01b6005541617600555565b60018060a01b03166001600160601b0360a01b6006541617600655565b60018060a01b03166001600160601b0360a01b6007541617600755565b60018060a01b03166001600160601b0360a01b6009541617600955565b60018060a01b03166001600160601b0360a01b600a541617600a55565b600b55565b6132319199503d808b833e6132298183610970565b8101906139e2565b973861311c565b8061102961324592610927565b386130e8565b8480fd5b8061102961325c92610927565b3861307f565b8061102961326f92610927565b3861303e565b8061102961328292610927565b38613001565b8061102961329592610927565b38612fc4565b8051821015612b8a5760209160051b010190565b9190918051835180820361334c5750508051906132e46132ce836109be565b926132dc6040519485610970565b8084526109be565b60209190601f1901368484013760005b815181101561334457600581901b8281018401519087018401516000908152602081815260408083206001600160a01b03909416835292905220546001919061333d828761329b565b52016132f4565b509193505050565b604051635b05999160e01b815260048101919091526024810191909152604490fd5b610bde9054611b38565b9060405160c081018181106001600160401b038211176105365760405260a06133fb601283956133a781611ac5565b8552600e8101546001851b60001901166020860152600f8101546001600160a01b0316604086015260108101546001600160a01b0316606086015260118101546001600160a01b0316608086015201611c08565b910152565b91908260409103126102ec576020825192015190565b604090610bde939281528160208201520190611c23565b91908260809103126102ec578151916020810151916060604083015192015190565b9190820180921161227557565b90816101209103126102ec5780519160208201519160408101519160608201519160808101519160a08201519160c08101519161010060e083015192015190565b906020610bde928181520190611b72565b9081548082526020809201926000526020600020916000905b8282106134d5575050505090565b8354855260018085015486830152604090950194600290940193909101906134c7565b91610bde9183526040602084015261352a6040840161351d835460018060a01b031690565b6001600160a01b03169052565b6101c06060840152600b6101a06135486102008601600185016134ae565b60028401546080870152600384015460a0870152600484015460c0870152600584015460e08701526006840154610100870152600784015461012087015260088401546101408701526009840154610160870152600a84015461018087015294019101600260409180548452600181015460208501520154910152565b600090808252600d6020526040916001838220015415611998576135f382600052600d602052604060002090565b60085461360a906105b8906001600160a01b031681565b8451946323ba203560e21b86528086600493818061362b888d8984016134f8565b03915afa92831561066b57849685946139bd575b508485988691879a6001613654818701612d80565b500154613927575b6136738c611233866112338f61123388889261344f565b9b8c6139175785546001600160a01b039a908b161561388d579060208e6136e197969594938b6136af6105b86105b88d5460018060a01b031690565b8c516323b872dd60e01b815233928101928352306020840152604083019490945292998a939284929091839160600190565b03925af194851561066b578e968d9661386e575b505b60028801809e8154906137099161344f565b90556003880199858b549061371d9161344f565b8b55600b8901868154906137309161344f565b905588019a8b55613741928661495f565b9161374b9161344f565b600687019081549061375c9161344f565b9055600a86019081549061376f9161344f565b9055600c546001600160a01b039081166000908152600f60209081526040808320895490941683529290522080546137a890839061344f565b9055600c54855487516000815260208101939093528a166001600160a01b0390811692918b161690849060008051602061589083398151915290604090a4816137ef612e76565b8233926137fb93614df2565b8451908152602081019290925233917f5bd6f821d5961785d719543640cf62d3770f94e59db1a2f3c2250d72b122dddf90604090a354925491549554905191825260208201959095526040810194909452166001600160a01b03169160008051602061585083398151915290606090a390565b6138869060203d602011610664576106568183610970565b50386136f5565b8d9b99979d9e9c9a989e95919293949534106000146138b6578d5163bd9c85bb60e01b81528f90fd5b918b9d97999b9593919c9e989a9c8c95938734116138d5575b506136f7565b8080939597506138e9819395979934612e69565b335af16138f4612e89565b501561390757918a93918d9593386138cf565b865163f570efeb60e01b81528890fd5b8651636bdbc20960e11b81528890fd5b505098505061397260808861394b6105b86105b8600e87015460018060a01b031690565b85516370f986fd60e01b81528781018d815260208101939093529384928391829160400190565b03915afa98891561066b578699879088938991613992575b509a9061365c565b915050899a506139b291925060803d6080116112925761127e8183610970565b93929b90939061398a565b909350816139d89297503d88116112e1576112c68183610970565b959095923861363f565b9060209182818303126102ec578051906001600160401b0382116102ec570181601f820112156102ec57805192613a18846109be565b93604093613a296040519687610970565b818652828087019260061b850101938185116102ec578301915b848310613a535750505050505090565b85838303126102ec578386918251613a6a8161093a565b855181528286015183820152815201920191613a43565b939291613ab190613aa360609360008852608060208901526080880190610e25565b908682036040880152610e25565b930152565b600a54600b546040516309a257cd60e41b8152600481018490526080602482015294929360009386936001600160a01b03169284928392613b1191613aff906084860190610e25565b84810360031901604486015290610e25565b90606483015203915afa90811561066b576102fe92600092613b34575b50614f69565b613b4a9192503d806000833e6132298183610970565b9038613b2e565b9060045491613b5f836109be565b90604093613b706040519384610970565b8083526004600090815260206000805160206158b08339815191528186015b848410613ba65750505050506102fe929350614f69565b6002836001928b51613bb78161093a565b855481528486015483820152815201920193019290613b8f565b6003546001600160a01b03163303613be557565b60405163118cdaa760e01b8152336004820152602490fd5b818110613c08575050565b60008155600101613bfd565b90601f8211613c21575050565b6102fe9160026000527f405787fa12a823e0f2b7631cc41b3ba8828b3321ca811111fa75cd3aa3bb5ace906020601f840160051c83019310613c6b575b601f0160051c0190613bfd565b9091508190613c5e565b9190601f8111613c8457505050565b6102fe926000526020600020906020601f840160051c83019310613c6b57601f0160051c0190613bfd565b908060209392818452848401376000828201840152601f01601f1916010190565b35906001600160401b03821682036102ec57565b9035601e19823603018112156102ec5701602081359101916001600160401b0382116102ec578160051b360383136102ec57565b81835290916001600160fb1b0383116102ec5760209260051b809284830137010190565b9035601e19823603018112156102ec5701602081359101916001600160401b0382116102ec5781360383136102ec57565b929190613d8291604085526040850191613caf565b91602081840391015280359160fe19823603018312156102ec57613e58613e4d83610bde9501604084526001600160401b03613dbd82613cd0565b166040850152613de2613dd260208301613cd0565b6001600160401b03166060860152565b60408101356080850152606081013560a0850152608081013560c085015260a081013560e0850152613e3a613e2f613e1d60c0840184613ce4565b61010080890152610140880191613d18565b9160e0810190613ce4565b858303603f190161012087015290613d18565b926020810190613d3c565b916020818503910152613caf565b908160609103126102ec5780519160406020830151613e84816102db565b920151610bde816102db565b916020610bde938181520191613caf565b9092916001600160401b03811161053657613ec681613ec08454611b38565b84613c75565b6000601f8211600114613f06578190613ef7939495600092613efb5750508160011b916000199060031b1c19161790565b9055565b01359050388061048a565b601f19821694613f1b84600052602060002090565b91805b878110613f56575083600195969710613f3c575b505050811b019055565b0135600019600384901b60f8161c19169055388080613f32565b90926020600181928686013581550194019101613f1e565b92909391613f8685600052600d602052604060002090565b916012830191613f968354611b38565b61457a576001600160a01b03861660009081526010602052604090205460ff1615610b5f5760408051634b243ea360e11b815290966004966001600160a01b0395929190829087908290613fee9089898e8501613d6d565b03921691815a93602094fa801561066b5761455b575b506140406060846140246105b86105b8600f8b015460018060a01b031690565b8a51630d02d25f60e11b81529384928391829189838f01613e90565b03915afa90811561066b5760008091600093614528575b508a036144f3576010870180546001600160a01b039283166001600160a01b03199182161790915560118801805493909216921691909117905561409c929190613ea1565b6000918294866006830193600a8401978854908654806143fb575b5060078601978854806142ee575b5060098701998a54806141c8575b50509360009a9997936140ef8c9a9793948b99958a988561495f565b505050845490875493614102858461344f565b9461410f8c54809761344f565b9586614125575b50505050505050505555555590565b611233614141926000805160206158908339815191529661344f565b600c546141769061416e9061415e906001600160a01b031661169b565b89546001600160a01b03166116c1565b91825461344f565b9055600c546141b890839061419d906001600160a01b03165b98546001600160a01b031690565b92519384931697169582919060206040840193600381520152565b0390a438808a8180808080614116565b919092939495506141e86105b86105b8600e8b015460018060a01b031690565b91878051809463cf54ee1d60e01b8252818061420b868a83019190602083019252565b03915afa93841561066b576000936000956142c9575b508161422d868661344f565b1161428857508b999560009d9c958f948f9d9a9661426d8f9d99928e9c97614273946142666140ef99614260878661344f565b90612e69565b905561344f565b9261344f565b95999c509397509498508195999b9c506140d3565b610ce89089519182916329c45f6760e01b83528201606090602081526011602082015270756e636c61696d65644275726e4665657360781b60408201520190565b9094506142e4919350883d8a116112e1576112c68183610970565b9290929338614221565b9192939450614341906080836143136105b86105b8600e8d015460018060a01b031690565b8d600c8c0154908b519687948593849363f5b0402760e01b8552840160209093929193604081019481520152565b03915afa92831561066b576000926000946143d2575b5080614363858561344f565b11614392578284928f9897969561426d936142606143849261438b9861344f565b8d5561344f565b90386140c5565b87516329c45f6760e01b81526020818e0181815260119181019190915270756e636c61696d65644275726e4665657360781b604082015281906060010390fd5b9093506143ef91925060803d6080116112925761127e8183610970565b50929150919238614357565b905061444e97919293506080816144216105b86105b8600e8b015460018060a01b031690565b600b89015488516370f986fd60e01b8152808e019182526020820193909352919a8b928391829160400190565b03915afa97881561066b5782986144cc575b508061446c898461344f565b1161448c57906144838b9493926142608a8461344f565b875596386140b7565b84516329c45f6760e01b81526020818b0181815260119181019190915270756e636c61696d65644d696e744665657360781b604082015281906060010390fd5b9097506144e8915060803d6080116112925761127e8183610970565b509150909638614460565b88516329c45f6760e01b81526020818a01818152600691810191909152651d185c19525960d21b604082015281906060010390fd5b91505061454d915060603d606011614554575b6145458183610970565b810190613e66565b9138614057565b503d61453b565b6145739060203d602011610664576106568183610970565b5038614004565b6040516329c45f6760e01b8152602060048201526011602482015270185b1c9958591e481d985b1a59185d1959607a1b6044820152606490fd5b916145d190610bde94928452606060208501526060840190610e25565b916040818403910152610e25565b600454600080600455816145f1575050565b60016001600160ff1b03831683036122755760046000526000805160206158b08339815191529260011b8301925b83811061462c5750505050565b80836002925583838201550161461f565b600454600160401b811015610536576001810180600455811015612b8a5760207f8a35acfbc15ff81a39ae7d344fd709f28e8600b4aa8c65c6b64bfe7fe36bd19c91600460005260011b928051846000805160206158b083398151915201550151910155565b8054600160401b811015610536576146c091600182018155612d95565b9190916146d7576020816001925184550151910155565b634e487b7160e01b600052600060045260246000fd5b6001600160a01b038116929091908315612c775761472860405192600184526020840152604083019160018352606084015260808301604052565b9190604094600060405161473b81610955565b52815184519081810361334c57505060005b82518110156147e3578060051b6020808286010151918701015161477f866106aa846000526000602052604060002090565b548181106147ad57866106aa60019594936147a69303936000526000602052604060002090565b550161474d565b89516303dee4c560e01b81526001600160a01b038816600482015260248101919091526044810182905260648101839052608490fd5b5094506000939291506001815114841461483a5760209081015191810151604080519384529183015233917fc3d58168c5ae7397731d063d5bbf3d657854427343f4c083240f7aacaa2d0f6291819081015b0390a4565b60405133927f4a39dc06d4c0dbc64b70af90fd698a233a518aa5d07e595d983b8c0526c8f7fb9282916148359183615532565b60209081818403126102ec578051906001600160401b0382116102ec57019180601f840112156102ec5782516148a2816109be565b936148b06040519586610970565b818552838086019260051b8201019283116102ec578301905b8282106148d7575050505090565b815181529083019083016148c9565b60209081818403126102ec578051906001600160401b0382116102ec57019180601f840112156102ec57825161491b816109be565b936149296040519586610970565b818552838086019260051b8201019283116102ec578301905b828210614950575050505090565b81518152908301908301614942565b93919361497681600052600d602052604060002090565b90601282016149858154611b38565b61499157505050929190565b91946000969496939193948686926149db886149bd6105b86105b8600f8497015460018060a01b031690565b976040988951808095819463dddf33e160e01b83526004830161349d565b03915afa90811561066b578991614dd0575b508051879015614d725750614a43600e8b01918a614a176105b86105b8865460018060a01b031690565b82518b516322cc0efb60e01b815260048101889052602481019190915293849190829081906044820190565b03915afa90811561066b578994614a61938d93614d4d575b50615283565b9081614cd1575b5050505b6010880180546001600160a01b0395918a9187168015614cbd5793838a959389614af5614ae7614b25968a98614ad861416e614ac8614aac8b899f61344f565b6001600160a01b039094166000908152600f6020526040902090565b88546001600160a01b03166116c1565b9055546001600160a01b031690565b92546001600160a01b031690565b9116958691169687928c518060008051602061589083398151915297889382919060206040840193600481520152565b0390a480614ca1575b50505050505b6011870180546001600160a01b03168881861615614c89579383614b9c899694614bd994614ad861416e8a986116c1614b8e614b728f9d8b9061344f565b6001600160a01b039096166000908152600f6020526040902090565b91546001600160a01b031690565b8b5486906001600160a01b03169116958691169687928a518060008051602061589083398151915297889382919060206040840193600581520152565b0390a480614c6d575b50505050505b83614bfe575b5050505050600090600090600090565b600c546000805160206158908339815191529290614c3890614c28906001600160a01b031661169b565b87546001600160a01b03166116c1565b614c4386825461344f565b9055600c54614c6090839061419d906001600160a01b031661418f565b0390a43880808080614bee565b8651600281526020810191909152604090a43880848180614be2565b505050614c9b9295916128fd9161344f565b92614be8565b8851600281526020810191909152604090a43880868180614b2e565b505050614ccb92975061344f565b94614b34565b54614d0e955091925090614cef906105b8906001600160a01b031681565b8251808096819463cf54ee1d60e01b8352600483019190602083019252565b03915afa801561066b5786928791614d2a575b50843880614a68565b9050614d44919250843d86116112e1576112c68183610970565b91909138614d21565b614d6b9193508d3d8091833e614d638183610970565b8101906148e6565b9138614a5b565b600e8b0154614d949650909350614cef91506105b8906001600160a01b031681565b03915afa801561066b5786928791614dad575b50614a6c565b9050614dc7919250843d86116112e1576112c68183610970565b91909138614da7565b614dec91503d808b833e614de48183610970565b81019061486d565b386149ed565b6001600160a01b03811693929091908415612c8f57614e2e60405192600184526020840152604083019160018352606084015260808301604052565b92815184519081810361334c57505060005b8251811015614e80578060019160051b614e7861416e876106aa602080868b010151958c010151946000526000602052604060002090565b905501614e40565b509291936001825114600014614ef75760208281015184820151604080519283529282015260009133917fc3d58168c5ae7397731d063d5bbf3d657854427343f4c083240f7aacaa2d0f629190a45b8051600103614eed57906020806102fe9593015191015191336157e3565b6102fe93336155e9565b60006040517f4a39dc06d4c0dbc64b70af90fd698a233a518aa5d07e595d983b8c0526c8f7fb339180614f2b888883615532565b0390a4614ecf565b600e54600160401b811015610536576001810180600e55811015612b8a57600e6000526000805160206158708339815191520155565b6001916001614f8283600052600d602052604060002090565b015415614f8e57505050565b8290614fa483600052600d602052604060002090565b600654600e820180546001600160a01b039283166001600160a01b0319918216179091556005548354908316908216178355600754600f8401805491909316911617905560010193600091905b615030575b50505061500281614f33565b600161500d83612d80565b50015415615019575050565b61502561502d92612d80565b5054906135c5565b50565b805182101561507757828261507061504983958561329b565b5151602080615058858861329b565b510151906150646109b1565b928352820152886146a3565b0191614ff1565b614ff6565b94919091815184519081810361334c57505060005b825181101561517f57600581901b83810160209081015191870101516001600160a01b03929186908a85166150f9575b60019482166150d4575b50505001615091565b6150ef916106aa61416e926000526000602052604060002090565b90553885816150cb565b91929390506151168a6106aa846000526000602052604060002090565b5483811061514857918791846001969594036151408d6106aa856000526000602052604060002090565b5594506150c1565b6040516303dee4c560e01b81526001600160a01b038c16600482015260248101919091526044810184905260648101839052608490fd5b509491939290936001855114600014615229576020858101518382015160408051928352928201526001600160a01b03838116929086169133917fc3d58168c5ae7397731d063d5bbf3d657854427343f4c083240f7aacaa2d0f6291a45b6001600160a01b0381166151f2575050505050565b84516001036152185760208061520e9601519201519233615818565b3880808080611ba1565b615224949192336156e4565b61520e565b6040516001600160a01b03828116919085169033907f4a39dc06d4c0dbc64b70af90fd698a233a518aa5d07e595d983b8c0526c8f7fb908061526c888c83615532565b0390a46151dd565b60001981146122755760010190565b91600091835b615294575b50505090565b828151111561552d57828251111561552d576152b0838261329b565b51936152bc848461329b565b51946152d281600052600d602052604060002090565b906152e06012830154611b38565b1561550e57600e82015461532b939291600091615307906105b8906001600160a01b031681565b6040998a918251808099819463cf54ee1d60e01b8352600483019190602083019252565b03915afa98891561066b576154719961546996849085926154ee575b506010860180546001600160a01b03939190841680156154e3576001600160a01b03166000908152600f6020526040902061539c9190615391908a546001600160a01b03166116c1565b614ad884825461344f565b9085600080516020615890833981519152856153be8b5460018060a01b031690565b88516002815260208101959095528116941692604090a45b6011860180546001600160a01b0316808416156154d1576001600160a01b03166000908152600f6020526040902061541291906153919061415e565b9084600080516020615890833981519152846154348a5460018060a01b031690565b87516002815260208101959095528116941692604090a45b83615477575b50505050505b615462858561329b565b5190612e69565b938493615274565b92615289565b600080516020615890833981519152916154c48261419d61418f600c6154b96154a961169b835460018060a01b031690565b8c546001600160a01b03166116c1565b614ad88b825461344f565b0390a43880808080615452565b50506154dd919461344f565b9261544c565b5050909450936153d6565b90506155079150823d84116112e1576112c68183610970565b9038615347565b5090615471956155266009615469940191825461344f565b9055615458565b61528e565b9091615549610bde93604084526040840190610e25565b916020818403910152610e25565b908160209103126102ec5751610bde8161035e565b9261559b610bde95936155a99360018060a01b031686526000602087015260a0604087015260a0860190610e25565b908482036060860152610e25565b9160808184039101526107ee565b9390610bde959361559b916155a99460018060a01b03809216885216602087015260a0604087015260a0860190610e25565b9293919093843b6155fb575050505050565b60209161561e604051948593849363bc197c8160e01b988986526004860161556c565b038160006001600160a01b0388165af1600091816156b3575b506156765782615645612e89565b805191908261566f57604051632bfa23e760e11b81526001600160a01b0383166004820152602490fd5b9050602001fd5b6001600160e01b0319160361569057503880808080611ba1565b604051632bfa23e760e11b81526001600160a01b03919091166004820152602490fd5b6156d691925060203d6020116156dd575b6156ce8183610970565b810190615557565b9038615637565b503d6156c4565b939290949194853b6156f9575b505050505050565b61571c602093604051958694859463bc197c8160e01b998a8752600487016155b7565b038160006001600160a01b0388165af16000918161575e575b506157435782615645612e89565b6001600160e01b0319160361569057503880808080806156f1565b61577891925060203d6020116156dd576156ce8183610970565b9038615735565b909260a092610bde9594600180861b03168352600060208401526040830152606082015281608082015201906107ee565b9192610bde95949160a094600180871b0380921685521660208401526040830152606082015281608082015201906107ee565b9293919093843b6157f5575050505050565b60209161561e604051948593849363f23a6e6160e01b988986526004860161577f565b939290949194853b61582c57505050505050565b61571c602093604051958694859463f23a6e6160e01b998a8752600487016157b056fe2e67857c5e095aa37c99fc8a2a3d065e50197554891c3cf1f318b1996b66469cbb7b4a454dc3493923482f07822329ed19e8244eff582cc204f8554c3620c3fd4b984622ccd95d46d58ee4b4ec121acbc6f1d9de4a5997f2013e0daf02c101048a35acfbc15ff81a39ae7d344fd709f28e8600b4aa8c65c6b64bfe7fe36bd19ba264697066735822122044a586ce9bae1664fca71fb53fd85454de102f6d54356901cdd46e2875309e2d64736f6c63430008180033","linkReferences":{}},"methodIdentifiers":{"accounts(address,address)":"ad74b775","addDapp(address)":"27b7ca5f","balanceOf(address,uint256)":"00fdd58e","balanceOfBatch(address[],uint256[])":"4e1273f4","bondingCurveSteps(uint256)":"fa1c4db6","buyTapes(bytes32,uint256,uint256)":"9165f843","changeTapeModel(bytes32,address)":"5db8076c","consumeTapes(bytes32,uint256)":"b495bbb0","currencyTokenAddress()":"d3c3b389","dappAddresses(address)":"787ca438","exists(bytes32)":"38a699a4","feeModelAddress()":"3ab03c8b","getCurrentBuyPrice(bytes32,uint256)":"724969e7","getCurrentConsumePrice(bytes32,uint256)":"bbfef088","getCurrentSellPrice(bytes32,uint256)":"b16cae66","getTapeData(bytes32)":"796aea77","isApprovedForAll(address,address)":"e985e9c5","maxSupply()":"d5abeb01","maxTapeSupply(bytes32)":"9ba01fbe","owner()":"8da5cb5b","renounceOwnership()":"715018a6","safeBatchTransferFrom(address,address,uint256[],uint256[],bytes)":"2eb2c2d6","safeTransferFrom(address,address,uint256,uint256,bytes)":"f242432a","sellTapes(bytes32,uint256,uint256)":"828ef8d9","setApprovalForAll(address,bool)":"a22cb465","setTapeParams(bytes32)":"e5a41243","setTapeParamsCustom(bytes32,uint256[],uint256[])":"d092619c","setURI(string)":"02fe5305","supportsInterface(bytes4)":"01ffc9a7","tapeBondUtilsAddress()":"fabe3824","tapeBondingCurveModelAddress()":"3b6e02af","tapeBonds(bytes32)":"8f8b185b","tapeBondsCreated(uint256)":"eb596d01","tapeModelAddress()":"6a386ed2","tapeOwnershipModelAddress()":"22f046b5","tapesCount()":"7fb90ea6","totalTapes()":"c5b67e81","transferOwnership(address)":"f2fde38b","updateBondingCurveParams(address,address,address,address,address,uint256,uint256[],uint256[])":"3ff72137","updateProtocolWallet(address)":"e308a099","uri(uint256)":"0e89341c","validateTape(address,bytes32,bytes,((uint64,uint64,bytes32,bytes32,bytes32,bytes32,bytes32[],bytes32[]),bytes))":"07974110","validateTapeCustom(address,bytes32,bytes,((uint64,uint64,bytes32,bytes32,bytes32,bytes32,bytes32[],bytes32[]),bytes),uint256[],uint256[])":"0fe4ef17","withdrawBalance(address,uint256)":"0cf20cc9"},"id":84}