{"abi":[{"type":"constructor","inputs":[{"name":"ownerAddress","type":"address","internalType":"address"},{"name":"newTapeBondUtilsAddress","type":"address","internalType":"address"},{"name":"maxSteps","type":"uint256","internalType":"uint256"}],"stateMutability":"nonpayable"},{"type":"function","name":"accounts","inputs":[{"name":"","type":"address","internalType":"address"},{"name":"","type":"address","internalType":"address"}],"outputs":[{"name":"","type":"uint256","internalType":"uint256"}],"stateMutability":"view"},{"type":"function","name":"balanceOf","inputs":[{"name":"account","type":"address","internalType":"address"},{"name":"id","type":"uint256","internalType":"uint256"}],"outputs":[{"name":"","type":"uint256","internalType":"uint256"}],"stateMutability":"view"},{"type":"function","name":"balanceOfBatch","inputs":[{"name":"accounts","type":"address[]","internalType":"address[]"},{"name":"ids","type":"uint256[]","internalType":"uint256[]"}],"outputs":[{"name":"","type":"uint256[]","internalType":"uint256[]"}],"stateMutability":"view"},{"type":"function","name":"bondingCurveSteps","inputs":[{"name":"","type":"uint256","internalType":"uint256"}],"outputs":[{"name":"rangeMax","type":"uint256","internalType":"uint256"},{"name":"coefficient","type":"uint256","internalType":"uint256"}],"stateMutability":"view"},{"type":"function","name":"buyTapes","inputs":[{"name":"tapeId","type":"bytes32","internalType":"bytes32"},{"name":"tapesToMint","type":"uint256","internalType":"uint256"},{"name":"maxCurrencyPrice","type":"uint256","internalType":"uint256"}],"outputs":[{"name":"currencyCost","type":"uint256","internalType":"uint256"}],"stateMutability":"payable"},{"type":"function","name":"changeTapeModel","inputs":[{"name":"tapeId","type":"bytes32","internalType":"bytes32"},{"name":"newTapeModel","type":"address","internalType":"address"}],"outputs":[],"stateMutability":"nonpayable"},{"type":"function","name":"consumeTapes","inputs":[{"name":"tapeId","type":"bytes32","internalType":"bytes32"},{"name":"tapesToConsume","type":"uint256","internalType":"uint256"}],"outputs":[{"name":"","type":"uint256","internalType":"uint256"}],"stateMutability":"nonpayable"},{"type":"function","name":"currencyTokenAddress","inputs":[],"outputs":[{"name":"","type":"address","internalType":"address"}],"stateMutability":"view"},{"type":"function","name":"dappAddresses","inputs":[{"name":"","type":"address","internalType":"address"}],"outputs":[{"name":"","type":"bool","internalType":"bool"}],"stateMutability":"view"},{"type":"function","name":"exists","inputs":[{"name":"tapeId","type":"bytes32","internalType":"bytes32"}],"outputs":[{"name":"","type":"bool","internalType":"bool"}],"stateMutability":"view"},{"type":"function","name":"feeModelAddress","inputs":[],"outputs":[{"name":"","type":"address","internalType":"address"}],"stateMutability":"view"},{"type":"function","name":"getCurrentBuyPrice","inputs":[{"name":"tapeId","type":"bytes32","internalType":"bytes32"},{"name":"tokensToMint","type":"uint256","internalType":"uint256"}],"outputs":[{"name":"","type":"uint256","internalType":"uint256"},{"name":"","type":"uint256","internalType":"uint256"},{"name":"","type":"uint256","internalType":"uint256"}],"stateMutability":"view"},{"type":"function","name":"getCurrentConsumePrice","inputs":[{"name":"tapeId","type":"bytes32","internalType":"bytes32"},{"name":"tokensToConsume","type":"uint256","internalType":"uint256"}],"outputs":[{"name":"","type":"uint256","internalType":"uint256"},{"name":"","type":"uint256","internalType":"uint256"}],"stateMutability":"view"},{"type":"function","name":"getCurrentSellPrice","inputs":[{"name":"tapeId","type":"bytes32","internalType":"bytes32"},{"name":"tokensToBurn","type":"uint256","internalType":"uint256"}],"outputs":[{"name":"","type":"uint256","internalType":"uint256"},{"name":"","type":"uint256","internalType":"uint256"},{"name":"","type":"uint256","internalType":"uint256"}],"stateMutability":"view"},{"type":"function","name":"getTapeData","inputs":[{"name":"tapeId","type":"bytes32","internalType":"bytes32"}],"outputs":[{"name":"","type":"bytes32","internalType":"bytes32"},{"name":"","type":"uint256","internalType":"uint256"},{"name":"","type":"int256","internalType":"int256"},{"name":"","type":"bytes32","internalType":"bytes32"},{"name":"","type":"int256","internalType":"int256"},{"name":"","type":"bytes32","internalType":"bytes32"},{"name":"","type":"int256","internalType":"int256"},{"name":"","type":"bytes32","internalType":"bytes32"},{"name":"","type":"int256","internalType":"int256"}],"stateMutability":"view"},{"type":"function","name":"isApprovedForAll","inputs":[{"name":"account","type":"address","internalType":"address"},{"name":"operator","type":"address","internalType":"address"}],"outputs":[{"name":"","type":"bool","internalType":"bool"}],"stateMutability":"view"},{"type":"function","name":"maxSupply","inputs":[],"outputs":[{"name":"","type":"uint256","internalType":"uint256"}],"stateMutability":"view"},{"type":"function","name":"maxTapeSupply","inputs":[{"name":"tapeId","type":"bytes32","internalType":"bytes32"}],"outputs":[{"name":"","type":"uint256","internalType":"uint256"}],"stateMutability":"view"},{"type":"function","name":"owner","inputs":[],"outputs":[{"name":"","type":"address","internalType":"address"}],"stateMutability":"view"},{"type":"function","name":"renounceOwnership","inputs":[],"outputs":[],"stateMutability":"nonpayable"},{"type":"function","name":"safeBatchTransferFrom","inputs":[{"name":"from","type":"address","internalType":"address"},{"name":"to","type":"address","internalType":"address"},{"name":"ids","type":"uint256[]","internalType":"uint256[]"},{"name":"values","type":"uint256[]","internalType":"uint256[]"},{"name":"data","type":"bytes","internalType":"bytes"}],"outputs":[],"stateMutability":"nonpayable"},{"type":"function","name":"safeTransferFrom","inputs":[{"name":"from","type":"address","internalType":"address"},{"name":"to","type":"address","internalType":"address"},{"name":"id","type":"uint256","internalType":"uint256"},{"name":"value","type":"uint256","internalType":"uint256"},{"name":"data","type":"bytes","internalType":"bytes"}],"outputs":[],"stateMutability":"nonpayable"},{"type":"function","name":"sellTapes","inputs":[{"name":"tapeId","type":"bytes32","internalType":"bytes32"},{"name":"tapesToBurn","type":"uint256","internalType":"uint256"},{"name":"minCurrencyRefund","type":"uint256","internalType":"uint256"}],"outputs":[{"name":"","type":"uint256","internalType":"uint256"}],"stateMutability":"nonpayable"},{"type":"function","name":"setApprovalForAll","inputs":[{"name":"operator","type":"address","internalType":"address"},{"name":"approved","type":"bool","internalType":"bool"}],"outputs":[],"stateMutability":"nonpayable"},{"type":"function","name":"setDapp","inputs":[{"name":"dapp","type":"address","internalType":"address"},{"name":"active","type":"bool","internalType":"bool"}],"outputs":[],"stateMutability":"nonpayable"},{"type":"function","name":"setTapeParams","inputs":[{"name":"tapeId","type":"bytes32","internalType":"bytes32"}],"outputs":[],"stateMutability":"nonpayable"},{"type":"function","name":"setTapeParamsCustom","inputs":[{"name":"tapeId","type":"bytes32","internalType":"bytes32"},{"name":"stepRangesMax","type":"uint256[]","internalType":"uint256[]"},{"name":"stepCoefficients","type":"uint256[]","internalType":"uint256[]"},{"name":"creatorAllocation","type":"bool","internalType":"bool"},{"name":"creator","type":"address","internalType":"address"}],"outputs":[],"stateMutability":"nonpayable"},{"type":"function","name":"setURI","inputs":[{"name":"newUri","type":"string","internalType":"string"}],"outputs":[],"stateMutability":"nonpayable"},{"type":"function","name":"supportsInterface","inputs":[{"name":"interfaceId","type":"bytes4","internalType":"bytes4"}],"outputs":[{"name":"","type":"bool","internalType":"bool"}],"stateMutability":"view"},{"type":"function","name":"tapeBondUtilsAddress","inputs":[],"outputs":[{"name":"","type":"address","internalType":"address"}],"stateMutability":"view"},{"type":"function","name":"tapeBondingCurveModelAddress","inputs":[],"outputs":[{"name":"","type":"address","internalType":"address"}],"stateMutability":"view"},{"type":"function","name":"tapeBonds","inputs":[{"name":"","type":"bytes32","internalType":"bytes32"}],"outputs":[{"name":"bond","type":"tuple","internalType":"struct BondUtils.BondData","components":[{"name":"currencyToken","type":"address","internalType":"address"},{"name":"steps","type":"tuple[]","internalType":"struct IBondingCurveModel.BondingCurveStep[]","components":[{"name":"rangeMax","type":"uint256","internalType":"uint256"},{"name":"coefficient","type":"uint256","internalType":"uint256"}]},{"name":"currencyBalance","type":"uint256","internalType":"uint256"},{"name":"currentSupply","type":"uint256","internalType":"uint256"},{"name":"currentPrice","type":"uint256","internalType":"uint256"},{"name":"consumePrice","type":"uint256","internalType":"uint256"},{"name":"unclaimed","type":"tuple","internalType":"struct BondUtils.UnclaimedFees","components":[{"name":"mint","type":"uint256","internalType":"uint256"},{"name":"burn","type":"uint256","internalType":"uint256"},{"name":"consume","type":"uint256","internalType":"uint256"},{"name":"royalties","type":"uint256","internalType":"uint256"},{"name":"undistributedRoyalties","type":"uint256","internalType":"uint256"}]},{"name":"count","type":"tuple","internalType":"struct BondUtils.BondCount","components":[{"name":"minted","type":"uint256","internalType":"uint256"},{"name":"burned","type":"uint256","internalType":"uint256"},{"name":"consumed","type":"uint256","internalType":"uint256"}]}]},{"name":"feeModel","type":"address","internalType":"address"},{"name":"tapeModel","type":"address","internalType":"address"},{"name":"cartridgeOwner","type":"address","internalType":"address"},{"name":"tapeCreator","type":"address","internalType":"address"},{"name":"tapeOutputData","type":"bytes","internalType":"bytes"}],"stateMutability":"view"},{"type":"function","name":"tapeBondsCreated","inputs":[{"name":"","type":"uint256","internalType":"uint256"}],"outputs":[{"name":"","type":"bytes32","internalType":"bytes32"}],"stateMutability":"view"},{"type":"function","name":"tapeModelAddress","inputs":[],"outputs":[{"name":"","type":"address","internalType":"address"}],"stateMutability":"view"},{"type":"function","name":"tapeOwnershipModelAddress","inputs":[],"outputs":[{"name":"","type":"address","internalType":"address"}],"stateMutability":"view"},{"type":"function","name":"tapesCount","inputs":[],"outputs":[{"name":"","type":"uint256","internalType":"uint256"}],"stateMutability":"view"},{"type":"function","name":"totalTapes","inputs":[],"outputs":[{"name":"","type":"uint256","internalType":"uint256"}],"stateMutability":"view"},{"type":"function","name":"transferOwnership","inputs":[{"name":"newOwner","type":"address","internalType":"address"}],"outputs":[],"stateMutability":"nonpayable"},{"type":"function","name":"updateBondingCurveParams","inputs":[{"name":"newCurrencyToken","type":"address","internalType":"address"},{"name":"newFeeModel","type":"address","internalType":"address"},{"name":"newTapeModel","type":"address","internalType":"address"},{"name":"newTapeOwnershipModelAddress","type":"address","internalType":"address"},{"name":"newTapeBondingCurveModelAddress","type":"address","internalType":"address"},{"name":"newMaxSupply","type":"uint256","internalType":"uint256"},{"name":"stepRangesMax","type":"uint256[]","internalType":"uint256[]"},{"name":"stepCoefficients","type":"uint256[]","internalType":"uint256[]"}],"outputs":[],"stateMutability":"nonpayable"},{"type":"function","name":"updateProtocolWallet","inputs":[{"name":"newProtocolWallet","type":"address","internalType":"address"}],"outputs":[],"stateMutability":"nonpayable"},{"type":"function","name":"uri","inputs":[{"name":"tokenId","type":"uint256","internalType":"uint256"}],"outputs":[{"name":"","type":"string","internalType":"string"}],"stateMutability":"view"},{"type":"function","name":"uri","inputs":[{"name":"tokenId","type":"bytes32","internalType":"bytes32"}],"outputs":[{"name":"","type":"string","internalType":"string"}],"stateMutability":"view"},{"type":"function","name":"validateTape","inputs":[{"name":"dapp","type":"address","internalType":"address"},{"name":"tapeId","type":"bytes32","internalType":"bytes32"},{"name":"_payload","type":"bytes","internalType":"bytes"},{"name":"_v","type":"tuple","internalType":"struct Proof","components":[{"name":"validity","type":"tuple","internalType":"struct OutputValidityProof","components":[{"name":"inputIndexWithinEpoch","type":"uint64","internalType":"uint64"},{"name":"outputIndexWithinInput","type":"uint64","internalType":"uint64"},{"name":"outputHashesRootHash","type":"bytes32","internalType":"bytes32"},{"name":"vouchersEpochRootHash","type":"bytes32","internalType":"bytes32"},{"name":"noticesEpochRootHash","type":"bytes32","internalType":"bytes32"},{"name":"machineStateHash","type":"bytes32","internalType":"bytes32"},{"name":"outputHashInOutputHashesSiblings","type":"bytes32[]","internalType":"bytes32[]"},{"name":"outputHashesInEpochSiblings","type":"bytes32[]","internalType":"bytes32[]"}]},{"name":"context","type":"bytes","internalType":"bytes"}]}],"outputs":[{"name":"","type":"bytes32","internalType":"bytes32"}],"stateMutability":"nonpayable"},{"type":"function","name":"validateTapeCustom","inputs":[{"name":"dapp","type":"address","internalType":"address"},{"name":"tapeId","type":"bytes32","internalType":"bytes32"},{"name":"_payload","type":"bytes","internalType":"bytes"},{"name":"_v","type":"tuple","internalType":"struct Proof","components":[{"name":"validity","type":"tuple","internalType":"struct OutputValidityProof","components":[{"name":"inputIndexWithinEpoch","type":"uint64","internalType":"uint64"},{"name":"outputIndexWithinInput","type":"uint64","internalType":"uint64"},{"name":"outputHashesRootHash","type":"bytes32","internalType":"bytes32"},{"name":"vouchersEpochRootHash","type":"bytes32","internalType":"bytes32"},{"name":"noticesEpochRootHash","type":"bytes32","internalType":"bytes32"},{"name":"machineStateHash","type":"bytes32","internalType":"bytes32"},{"name":"outputHashInOutputHashesSiblings","type":"bytes32[]","internalType":"bytes32[]"},{"name":"outputHashesInEpochSiblings","type":"bytes32[]","internalType":"bytes32[]"}]},{"name":"context","type":"bytes","internalType":"bytes"}]},{"name":"stepRangesMax","type":"uint256[]","internalType":"uint256[]"},{"name":"stepCoefficients","type":"uint256[]","internalType":"uint256[]"},{"name":"creatorAllocation","type":"bool","internalType":"bool"},{"name":"creator","type":"address","internalType":"address"}],"outputs":[{"name":"","type":"bytes32","internalType":"bytes32"}],"stateMutability":"nonpayable"},{"type":"function","name":"withdrawBalance","inputs":[{"name":"token","type":"address","internalType":"address"},{"name":"amount","type":"uint256","internalType":"uint256"}],"outputs":[],"stateMutability":"nonpayable"},{"type":"event","name":"ApprovalForAll","inputs":[{"name":"account","type":"address","indexed":true,"internalType":"address"},{"name":"operator","type":"address","indexed":true,"internalType":"address"},{"name":"approved","type":"bool","indexed":false,"internalType":"bool"}],"anonymous":false},{"type":"event","name":"Bond","inputs":[{"name":"id","type":"bytes32","indexed":true,"internalType":"bytes32"},{"name":"token","type":"address","indexed":true,"internalType":"address"},{"name":"currentPrice","type":"uint256","indexed":false,"internalType":"uint256"},{"name":"currentSupply","type":"uint256","indexed":false,"internalType":"uint256"},{"name":"currentBalance","type":"uint256","indexed":false,"internalType":"uint256"}],"anonymous":false},{"type":"event","name":"Buy","inputs":[{"name":"id","type":"bytes32","indexed":true,"internalType":"bytes32"},{"name":"user","type":"address","indexed":true,"internalType":"address"},{"name":"amountMinted","type":"uint256","indexed":false,"internalType":"uint256"},{"name":"pricePayed","type":"uint256","indexed":false,"internalType":"uint256"}],"anonymous":false},{"type":"event","name":"Consume","inputs":[{"name":"id","type":"bytes32","indexed":true,"internalType":"bytes32"},{"name":"user","type":"address","indexed":true,"internalType":"address"},{"name":"amountConsumed","type":"uint256","indexed":false,"internalType":"uint256"},{"name":"currencyDonated","type":"uint256","indexed":false,"internalType":"uint256"}],"anonymous":false},{"type":"event","name":"OwnershipTransferred","inputs":[{"name":"previousOwner","type":"address","indexed":true,"internalType":"address"},{"name":"newOwner","type":"address","indexed":true,"internalType":"address"}],"anonymous":false},{"type":"event","name":"Reward","inputs":[{"name":"id","type":"bytes32","indexed":true,"internalType":"bytes32"},{"name":"user","type":"address","indexed":true,"internalType":"address"},{"name":"token","type":"address","indexed":true,"internalType":"address"},{"name":"rewardType","type":"uint8","indexed":false,"internalType":"enum BondUtils.RewardType"},{"name":"amount","type":"uint256","indexed":false,"internalType":"uint256"}],"anonymous":false},{"type":"event","name":"Sell","inputs":[{"name":"id","type":"bytes32","indexed":true,"internalType":"bytes32"},{"name":"user","type":"address","indexed":true,"internalType":"address"},{"name":"amountBurned","type":"uint256","indexed":false,"internalType":"uint256"},{"name":"refundReceived","type":"uint256","indexed":false,"internalType":"uint256"}],"anonymous":false},{"type":"event","name":"TransferBatch","inputs":[{"name":"operator","type":"address","indexed":true,"internalType":"address"},{"name":"from","type":"address","indexed":true,"internalType":"address"},{"name":"to","type":"address","indexed":true,"internalType":"address"},{"name":"ids","type":"uint256[]","indexed":false,"internalType":"uint256[]"},{"name":"values","type":"uint256[]","indexed":false,"internalType":"uint256[]"}],"anonymous":false},{"type":"event","name":"TransferSingle","inputs":[{"name":"operator","type":"address","indexed":true,"internalType":"address"},{"name":"from","type":"address","indexed":true,"internalType":"address"},{"name":"to","type":"address","indexed":true,"internalType":"address"},{"name":"id","type":"uint256","indexed":false,"internalType":"uint256"},{"name":"value","type":"uint256","indexed":false,"internalType":"uint256"}],"anonymous":false},{"type":"event","name":"URI","inputs":[{"name":"value","type":"string","indexed":false,"internalType":"string"},{"name":"id","type":"uint256","indexed":true,"internalType":"uint256"}],"anonymous":false},{"type":"error","name":"Bond__InvalidAmount","inputs":[]},{"type":"error","name":"ERC1155InsufficientBalance","inputs":[{"name":"sender","type":"address","internalType":"address"},{"name":"balance","type":"uint256","internalType":"uint256"},{"name":"needed","type":"uint256","internalType":"uint256"},{"name":"tokenId","type":"uint256","internalType":"uint256"}]},{"type":"error","name":"ERC1155InvalidApprover","inputs":[{"name":"approver","type":"address","internalType":"address"}]},{"type":"error","name":"ERC1155InvalidArrayLength","inputs":[{"name":"idsLength","type":"uint256","internalType":"uint256"},{"name":"valuesLength","type":"uint256","internalType":"uint256"}]},{"type":"error","name":"ERC1155InvalidOperator","inputs":[{"name":"operator","type":"address","internalType":"address"}]},{"type":"error","name":"ERC1155InvalidReceiver","inputs":[{"name":"receiver","type":"address","internalType":"address"}]},{"type":"error","name":"ERC1155InvalidSender","inputs":[{"name":"sender","type":"address","internalType":"address"}]},{"type":"error","name":"ERC1155MissingApprovalForAll","inputs":[{"name":"operator","type":"address","internalType":"address"},{"name":"owner","type":"address","internalType":"address"}]},{"type":"error","name":"OwnableInvalidOwner","inputs":[{"name":"owner","type":"address","internalType":"address"}]},{"type":"error","name":"OwnableUnauthorizedAccount","inputs":[{"name":"account","type":"address","internalType":"address"}]},{"type":"error","name":"Tape__ChangeError","inputs":[]},{"type":"error","name":"Tape__InsufficientFunds","inputs":[]},{"type":"error","name":"Tape__InvalidDapp","inputs":[]},{"type":"error","name":"Tape__InvalidOwner","inputs":[]},{"type":"error","name":"Tape__InvalidParams","inputs":[]},{"type":"error","name":"Tape__InvalidTape","inputs":[{"name":"reason","type":"string","internalType":"string"}]},{"type":"error","name":"Tape__InvalidUser","inputs":[]},{"type":"error","name":"Tape__NotFound","inputs":[]},{"type":"error","name":"Tape__SlippageLimitExceeded","inputs":[]}],"bytecode":{"object":"0x60a034620001cd57601f62005da638819003918201601f19168301926001600160401b0392909183851183861017620001b7578160609284926040978852833981010312620001cd576200005381620001d2565b90836200006360208301620001d2565b9101518451936020850190811185821017620001b757855260008094526200008d600254620001e7565b601f811162000176575b5060028490556001600160a01b0392831680156200015e57600380546001600160a01b03198082168417909255909590829086167f8be0079c531659141344cd1fd0a4f28419497f9722a3daafe3b4186f6b6457e08380a3620000fc600454620001e7565b601f81116200013a575b5050600060045584600d541617600d556080521690600954161760095551615b6890816200023e8239608051816133600152f35b601f602083600462000156955220910160051c81019062000224565b388062000106565b8551631e4fbdf760e01b815260048101869052602490fd5b60028552620001b090601f0160051c7f405787fa12a823e0f2b7631cc41b3ba8828b3321ca811111fa75cd3aa3bb5ace9081019062000224565b3862000097565b634e487b7160e01b600052604160045260246000fd5b600080fd5b51906001600160a01b0382168203620001cd57565b90600182811c9216801562000219575b60208310146200020357565b634e487b7160e01b600052602260045260246000fd5b91607f1691620001f7565b81811062000230575050565b600081556001016200022456fe6080604052600436101561001257600080fd5b60003560e01c8062fdd58e146102e157806301ffc9a7146102dc57806302fe5305146102d757806307974110146102d25780630cf20cc9146102cd5780630e89341c1461025f57806322f046b5146102c857806324b4f8ff146102c35780632eb2c2d6146102be57806338a699a4146102b95780633ab03c8b146102b45780633b6e02af146102af5780633ff72137146102aa5780634e1273f4146102a55780635db8076c146102a05780636a386ed21461029b578063715018a614610296578063724969e714610291578063787ca4381461028c578063796aea77146102875780637fb90ea614610282578063828ef8d91461027d5780638d3b5235146102785780638da5cb5b146102735780638f8b185b1461026e5780639165f843146102695780639ba01fbe146102645780639ed19ddb1461025f578063a22cb4651461025a578063ad74b77514610255578063b16cae6614610250578063b495bbb01461024b578063bbfef08814610246578063c5b67e8114610241578063c5e2f1e41461023c578063d3c3b38914610237578063d5abeb0114610232578063e308a0991461022d578063e5a4124314610228578063e985e9c514610223578063eb596d011461021e578063f242432a14610219578063f2fde38b14610214578063fa1c4db61461020f5763fabe38241461020a57600080fd5b612ea9565b612e30565b612d72565b612c4d565b612c0e565b612b84565b612af6565b612a9d565b612a7f565b612a56565b6129ae565b612906565b612835565b61259c565b612439565b6123fd565b612333565b610871565b6122e5565b611ea5565b611e2a565b611a7d565b611a0f565b61154d565b611515565b611394565b611352565b611169565b61110b565b6110e2565b610f82565b610ec6565b610def565b610dc6565b610d9d565b610d6c565b610c3d565b610af4565b610990565b610688565b610561565b610423565b610388565b610325565b6001600160a01b038116036102f757565b600080fd5b60843590610309826102e6565b565b60043590610309826102e6565b60e43590610309826102e6565b346102f75760403660031901126102f757602061036d600435610347816102e6565b6024356000526000835260406000209060018060a01b0316600052602052604060002090565b54604051908152f35b6001600160e01b03198116036102f757565b346102f75760203660031901126102f75760206004356103a781610376565b63ffffffff60e01b16636cdb3d1360e11b81149081156103e5575b81156103d4575b506040519015158152f35b6301ffc9a760e01b149050386103c9565b6303a24d0760e21b811491506103c2565b9181601f840112156102f7578235916001600160401b0383116102f757602083818601950101116102f757565b346102f7576020806003193601126102f7576001600160401b036004358181116102f7576104586104679136906004016103f6565b610460613b58565b3691610be8565b91825191821161054e5761048582610480600254611c0c565b613b9b565b602090601f83116001146104c7575081906104b7936000926104bc575b50508160011b916000199060031b1c19161790565b600255005b0151905038806104a2565b90601f198316936104fa60026000527f405787fa12a823e0f2b7631cc41b3ba8828b3321ca811111fa75cd3aa3bb5ace90565b926000905b868210610536575050836001951061051d575b505050811b01600255005b015160001960f88460031b161c19169055388080610512565b806001859682949686015181550195019301906104ff565b6109b9565b908160409103126102f75790565b346102f75760803660031901126102f75760043561057e816102e6565b602435906001600160401b036044358181116102f7576105a29036906004016103f6565b90916064359081116102f7576105bc903690600401610553565b600a549092906105dc906001600160a01b03165b6001600160a01b031690565b60405163273bed1d60e21b81523360048201526024810187905290602090829060449082905afa90811561068357600091610654575b5015610642578461062e9461062961063e976139e8565b613ef5565b6040519081529081906020820190565b0390f35b6040516313bb0a7760e11b8152600490fd5b610676915060203d60201161067c575b61066e8183610a18565b810190612f38565b38610612565b503d610664565b612f4d565b346102f7576040806003193601126102f75760049081356106a8816102e6565b336000908152601060205260409020602435919082906106dc9083905b9060018060a01b0316600052602052604060002090565b541061081a573360009081526010602052604090206106fc9082906106c5565b610707838254612ee8565b90556001600160a01b03169081156107ff57825163095ea7b360e01b815230858201908152602081810184905293919084908290819060400103816000865af1908115610683576000916107e2575b50156107d25783516323b872dd60e01b815230868201908152336020820152604081019390935291839183918290600090829060600103925af1918215610683576000926107b5575b5050156107a857005b5163f570efeb60e01b8152fd5b6107cb9250803d1061067c5761066e8183610a18565b388061079f565b5050505163f570efeb60e01b8152fd5b6107f99150843d861161067c5761066e8183610a18565b38610756565b6000808093508092335af1610812612f08565b50156107a857005b5050516368d134dd60e11b8152fd5b60005b83811061083c5750506000910152565b818101518382015260200161082c565b9060209161086581518092818552858086019101610829565b601f01601f1916010190565b346102f7576020806003193601126102f75760018060a01b03600954166108cd604051600435848201528381526108a7816109e2565b604051809363316fb1bf60e21b825285600483015281806000958695602483019061084c565b03915afa9081156106835780916108fe575b836108e98361388b565b9061063e60405192828493845283019061084c565b90503d8082843e61090f8184610a18565b820191838184031261097d578051906001600160401b038211610981570182601f8201121561097d5780519161094483610bcd565b936109526040519586610a18565b83855285848401011161097a575082916109749185806108e996019101610829565b386108df565b80fd5b5080fd5b8280fd5b60009103126102f757565b346102f75760003660031901126102f757600a546040516001600160a01b039091168152602090f35b634e487b7160e01b600052604160045260246000fd5b6001600160401b03811161054e57604052565b604081019081106001600160401b0382111761054e57604052565b602081019081106001600160401b0382111761054e57604052565b90601f801991011681019081106001600160401b0382111761054e57604052565b6040519061010082018281106001600160401b0382111761054e57604052565b60405190610309826109e2565b6001600160401b03811161054e5760051b60200190565b9080601f830112156102f7576020908235610a9781610a66565b93610aa56040519586610a18565b81855260208086019260051b8201019283116102f757602001905b828210610ace575050505090565b81358152908301908301610ac0565b801515036102f757565b60c4359061030982610add565b346102f75760a03660031901126102f7576004356001600160401b036024358181116102f757610b28903690600401610a7d565b906044359081116102f757610b41903690600401610a7d565b60643590610b4e82610add565b60843592610b5b846102e6565b600a5460405163273bed1d60e21b81523360048201526024810187905290602090829060449082906001600160a01b03165afa90811561068357600091610bae575b501561064257610bac9461302d565b005b610bc7915060203d60201161067c5761066e8183610a18565b38610b9d565b6001600160401b03811161054e57601f01601f191660200190565b929192610bf482610bcd565b91610c026040519384610a18565b8294818452818301116102f7578281602093846000960137010152565b9080601f830112156102f757816020610c3a93359101610be8565b90565b346102f75760a03660031901126102f75760048035610c5b816102e6565b602435610c67816102e6565b6001600160401b03906044358281116102f757610c879036908601610a7d565b906064358381116102f757610c9f9036908701610a7d565b926084359081116102f757610cb79036908701610c1f565b936001600160a01b03808216903382141580610d48575b610d1757831615610cff5715610ce857610bac955061519e565b604051626a0d4560e21b8152600081880152602490fd5b604051632bfa23e760e11b8152600081890152602490fd5b6040805163711bec9160e11b815233818b019081526001600160a01b038616602082015290918291010390fd5b0390fd5b50600082815260016020908152604080832033845290915290205460ff1615610cce565b346102f75760203660031901126102f757600435600052600e60205260206001604060002001541515604051908152f35b346102f75760003660031901126102f7576007546040516001600160a01b039091168152602090f35b346102f75760003660031901126102f757600b546040516001600160a01b039091168152602090f35b346102f7576101003660031901126102f757600435610e0d816102e6565b602435610e19816102e6565b604435610e25816102e6565b60643592610e32846102e6565b610e3a6102fc565b6001600160401b039460c4358681116102f757610e5b903690600401610a7d565b9360e4359687116102f757610e77610bac973690600401610a7d565b9560a43594613211565b90815180825260208080930193019160005b828110610ea1575050505090565b835185529381019392810192600101610e93565b906020610c3a928181520190610e81565b346102f75760403660031901126102f7576004356001600160401b038082116102f757366023830112156102f7578160040135610f0281610a66565b92610f106040519485610a18565b8184526020916024602086019160051b830101913683116102f757602401905b828210610f6957856024358681116102f75761063e91610f57610f5d923690600401610a7d565b9061355e565b60405191829182610eb5565b8380918335610f77816102e6565b815201910190610f30565b346102f75760403660031901126102f757600435602435610fa2816102e6565b610faa613b58565b6001610fc083600052600e602052604060002090565b0154156110d057610fe66012610fe084600052600e602052604060002090565b0161361d565b61109157600954611001906105d0906001600160a01b031681565b803b156102f75760405163f8e0044b60e01b81526001600160a01b038316600482015290600090829060249082905afa801561068357610bac93600f9261105892611078575b50600052600e602052604060002090565b0180546001600160a01b0319166001600160a01b03909216919091179055565b8061108561108b926109cf565b80610985565b38611047565b6040516329c45f6760e01b815260206004820152601660248201527515185c1948185b1c9958591e481d985b1a59185d195960521b6044820152606490fd5b604051631d8ce09b60e31b8152600490fd5b346102f75760003660031901126102f7576008546040516001600160a01b039091168152602090f35b346102f75760008060031936011261097a57611125613b58565b600380546001600160a01b0319811690915581906001600160a01b03167f8be0079c531659141344cd1fd0a4f28419497f9722a3daafe3b4186f6b6457e08280a380f35b346102f7576040806003193601126102f75760043590602435600161119884600052600e602052604060002090565b015415611341576111be6111b96111f594600052600e602052604060002090565b613627565b90826111d76105d06105d060095460018060a01b031690565b835190825180809881946323ba203560e21b835287600484016136c5565b03915afa918215610683576000946000936112f2575b5060200151611258929160809186919061122f906105d0906001600160a01b031681565b9086518096819482936370f986fd60e01b84526004840160209093929193604081019481520152565b03915afa918215610683576112916112989161063e946000806000916000936112b4575b61128c9394509061128c916136fe565b6136fe565b80956136fe565b9251938493846040919493926060820195825260208201520152565b5050505061128c6112df61128c9260803d6080116112eb575b6112d78183610a18565b8101906136dc565b9294509192508361127c565b503d6112cd565b6020955061125893506080919261122f6105d06113276105d094893d8b1161133a575b61131f8183610a18565b8101906136af565b9490998a9598505050505092915061120b565b503d611315565b8151631d8ce09b60e31b8152600490fd5b346102f75760203660031901126102f75760043561136f816102e6565b60018060a01b03166000526011602052602060ff604060002054166040519015158152f35b346102f75760203660031901126102f7576004356113c16012610fe083600052600e602052604060002090565b156114de5780601261140d6113fc6105d06105d0600f6113ee61142e98600052600e602052604060002090565b01546001600160a01b031690565b92600052600e602052604060002090565b01604051809263c827650360e01b825281806101209687956004830161374c565b03915afa80156106835760009081928283848591869387958897611498575b5061063e97989950604051998a998a95926101009794919a9998959261012088019b8852602088015260408701526060860152608085015260a084015260c083015260e08201520152565b9750505050505050506114c591508261063e93903d106114d7575b6114bd8183610a18565b81019061370b565b9698899897969195929492919061144d565b503d6114b3565b6040516329c45f6760e01b815260206004820152600e60248201526d746170654f75747075744461746160901b6044820152606490fd5b346102f75760003660031901126102f7576020600f54604051908152f35b60609060031901126102f757600435906024359060443590565b346102f75761155b36611533565b9091600092818452600e60205260409160018386200154156119d95761158b81600052600e602052604060002090565b6009546115a2906105d0906001600160a01b031681565b848051809263fdfb946360e01b825281806115c1878a600484016137a7565b03915afa93841561068357879188956119b8575b50600e8301546115ef906105d0906001600160a01b031681565b865163f5b0402760e01b8152600481018390526024810184905298906080908a9060449082905afa80156106835781998283918493611985575b508561163a8361128c8f85906136fe565b116119745761165b6116558461128c8f61128c8688926136fe565b87612ee8565b9a8b1061196357916116b5916116bd93611676878b336146aa565b61168560028a01988954612ee8565b8855600389019a611697888d54612ee8565b8c55600c8a016116a88982546136fe565b905560048a0155896148a3565b9291906136fe565b6116cc600787019182546136fe565b90556116dd600a86019182546136fe565b9055600d546117309061170e906001600160a01b03165b6001600160a01b0316600090815260106020526040902090565b85546001600160a01b03165b60018060a01b0316600052602052604060002090565b61173b8a82546136fe565b9055600d548454885160008152602081019b909b526001600160a01b039a908b16918291908c16908890600080516020615af383398151915290604090a415611930578060206117c261179a6105d06105d0895460018060a01b031690565b8a5163095ea7b360e01b8152306004820152602481018d905293849283919082906044820190565b03925af1908115610683578291611911575b5015611900578060206118246117f66105d06105d0895460018060a01b031690565b8a516323b872dd60e01b8152306004820152336024820152604481018d905293849283919082906064820190565b03925af191821561068357916118e1575b50156118d057916118bf61063e9892600080516020615ad3833981519152945b8851908152602081018a9052339087907f47d38b8b50e4b792e507faad951cda2457545e704f667a3e32f22541945ebbf690604090a382546004906001600160a01b0316930154965490549088519485941697846040919493926060820195825260208201520152565b0390a3519081529081906020820190565b855163f570efeb60e01b8152600490fd5b6118fa915060203d60201161067c5761066e8183610a18565b38611835565b865163f570efeb60e01b8152600490fd5b61192a915060203d60201161067c5761066e8183610a18565b386117d4565b8080808a335af161193f612f08565b50156118d057916118bf61063e9892600080516020615ad383398151915294611855565b8951636bdbc20960e11b8152600490fd5b895163bd9c85bb60e01b8152600490fd5b869c5061163a935061128c92506119ab915060803d6080116112eb576112d78183610a18565b929d929450925090611629565b9094506119d29150853d871161133a5761131f8183610a18565b93386115d5565b8251631d8ce09b60e31b8152600490fd5b60409060031901126102f757600435611a02816102e6565b90602435610c3a81610add565b346102f757611a1d366119ea565b90611a26613b58565b6001600160a01b031660008181526011602052604081205490929060ff16611a6b57611a689183526011602052604083209060ff801983541691151516179055565b80f35b604051631c3265c360e31b8152600490fd5b346102f75760003660031901126102f7576003546040516001600160a01b039091168152602090f35b908154611ab281610a66565b92604093611ac36040519182610a18565b82815280946020809201926000526020600020906000935b858510611aea57505050505050565b6002846001928451611afb816109e2565b865481528487015483820152815201930194019391611adb565b9060405160a081018181106001600160401b0382111761054e57604052608060048294805484526001810154602085015260028101546040850152600381015460608501520154910152565b90604051606081018181106001600160401b0382111761054e5760405260406002829480548452600181015460208501520154910152565b90611c05600b611ba7610a39565b84546001600160a01b0316815293611bc160018201611aa6565b6020860152600281015460408601526003810154606086015260048101546080860152600581015460a0860152611bfa60068201611b15565b60c086015201611b61565b60e0830152565b90600182811c92168015611c3c575b6020831014611c2657565b634e487b7160e01b600052602260045260246000fd5b91607f1691611c1b565b805460009392611c5582611c0c565b91828252602093600191600181169081600014611cbd5750600114611c7c575b5050505050565b90939495506000929192528360002092846000945b838610611ca957505050500101903880808080611c75565b805485870183015294019385908201611c91565b60ff19168685015250505090151560051b010191503880808080611c75565b90610309611cf09260405193848092611c46565b0383610a18565b80516001600160a01b031682526020808201516101c082850181905281519085018190526101e085019493929182019160005b828110611dbf57505050509061016060e0836040610c3a9501516040850152606081015160608501526080810151608085015260a081015160a0850152611da160c082015160c086019060808091805184526020810151602085015260408101516040850152606081015160608501520151910152565b01519101906040809180518452602081015160208501520151910152565b8351805188528201518783015260409096019592810192600101611d2a565b9291611df8610c3a9795969260c0865260c0860190611cf7565b9560018060a01b03809481809416602088015216604086015216606084015216608082015260a081840391015261084c565b346102f75760203660031901126102f757600435600052600e6020526040600020611e5481611b99565b61063e601260018060a01b039384600e820154169480600f83015416611e99826010850154169260118501541693611e926040518097819301611c46565b0385610a18565b60405196879687611dde565b611eae36611533565b9190600091808352600e60205260409260018482200154156122d457818152600e60205260018482200154156122d457611ef282600052600e602052604060002090565b600954909390611f0c906105d0906001600160a01b031681565b8551946323ba203560e21b865286866004938180611f2d86898984016137a7565b03915afa92831561068357849685946122af575b50600e820154611f5b906105d0906001600160a01b031681565b88516370f986fd60e01b8152848101838152602081018a905290916080918391908290819060400103915afa90811561068357869187918a89918a93612272575b508261128c8361128c8761128c8a611fb3976136fe565b9c8d116122625785546001600160a01b0399908a16156121f45761201d60208f8f8b85611fec6105d06105d08f5460018060a01b031690565b92516323b872dd60e01b81523392810192835230602084015260408301949094529294859384929091839160600190565b03925af191821561068357916121d5575b50156121c557918993918d95935b600288019c8d549061204d916136fe565b8d556003880198858a5490612061916136fe565b8a55600b890186815490612074916136fe565b90558801998a5561208592866148a3565b9161208f916136fe565b60068701908154906120a0916136fe565b9055600a8601908154906120b3916136fe565b9055600d546001600160a01b039081166000908152601060209081526040808320895490941683529290522080546120ec9083906136fe565b9055600d546001600160a01b03169083898d8189546121109060018060a01b031690565b91516000815260208101959095529116931691600080516020615af383398151915290604090a481612140612ef5565b82339261214c93615654565b8951908152602081019290925233917f5bd6f821d5961785d719543640cf62d3770f94e59db1a2f3c2250d72b122dddf90604090a354915490549454865191825260208201959095526040810194909452166001600160a01b031691600080516020615ad383398151915290606090a351908152602090f35b8b5163f570efeb60e01b81528790fd5b6121ee915060203d60201161067c5761066e8183610a18565b3861202e565b8d9b9a9998979d3410600014612214578c5163bd9c85bb60e01b81528e90fd5b918b9d9798999a9b9593918b9593873411612230575b5061203c565b808093959750612244819395979934612ee8565b335af161224f612f08565b50156121c557918993918d95933861222a565b8b51636bdbc20960e11b81528790fd5b61128c9550611fb391945061128c935061128c925061229f9060803d6080116112eb576112d78183610a18565b9297509095919450925090611f9c565b9093506122ca919650873d891161133a5761131f8183610a18565b9590959238611f41565b8351631d8ce09b60e31b8152600490fd5b346102f75760203660031901126102f757600435600052600e6020526001604060002001805490600019820191821161232e5760209161232491612e14565b5054604051908152f35b612ed2565b346102f757612341366119ea565b6001600160a01b0382169182156123c0578161237f6123909233600052600160205260406000209060018060a01b0316600052602052604060002090565b9060ff801983541691151516179055565b60405190151581527f17307eab39ab6107e8899845ad3d59bd9653f200f220920489ca2b5937696c3160203392a3005b60405162ced3e160e81b815260006004820152602490fd5b60409060031901126102f7576004356123f0816102e6565b90602435610c3a816102e6565b346102f757602061036d612410366123d8565b6001600160a01b0391821660009081526010855260408082209290931681526020919091522090565b346102f7576040806003193601126102f75760043590602435600161246884600052600e602052604060002090565b015415611341576124896111b96124c094600052600e602052604060002090565b90826124a26105d06105d060095460018060a01b031690565b8351908251808098819463fdfb946360e01b835287600484016136c5565b03915afa9182156106835760009460009361255d575b506020015161252392916080918691906124fa906105d0906001600160a01b031681565b90865180968194829363f5b0402760e01b84526004840160209093929193604081019481520152565b03915afa918215610683576125566112989161063e946000806000916000936112b45761128c9394509061128c916136fe565b8095612ee8565b602095506125239350608091926124fa6105d06125896105d094893d8b1161133a5761131f8183610a18565b9490998a959850505050509291506124d6565b346102f7576040806003193601126102f75760043590602435600092808452600e60205260018385200154156119d9576125e081600052600e602052604060002090565b6009549094906125fa906105d0906001600160a01b031681565b9484805180976328dac05d60e21b8252818061261a868a600484016137a7565b03915afa9081156106835782968392612813575b50600e810154612648906105d0906001600160a01b031681565b8651630c1d341f60e31b81526004810189905290608090829060249082905afa9586156106835788918597869187916127e7575b508792919061268c8385336146aa565b60038601978389549061269e91612ee8565b89556002870197868954906126b291612ee8565b8955600d8801858154906126c5916136fe565b905560058801556126d692856148a3565b916126e0916136fe565b60088601908154906126f1916136fe565b9055600a850190815490612704916136fe565b9055600d546001600160a01b0390811660009081526010602090815260408083208854909416835292905220805461273d908a906136fe565b9055600d5484548a5160008152602081019a909a526001600160a01b03908116998a9291909116908490600080516020615af383398151915290604090a48851908152602081019290925233917fff8a4589f2e064f9b82f2aec48ea80dbf6a8f623d3bd76d954da82ec4ea0079f90604090a36004015491549054855192835260208301919091526040820152600080516020615ad383398151915290606090a351908152602090f35b91505061280791975086955060803d6080116112eb576112d78183610a18565b9298909690929061267c565b90965061282d9150853d871161133a5761131f8183610a18565b90953861262e565b346102f7576040806003193601126102f757600435600161286082600052600e602052604060002090565b01541561134157816128826111b96128b993600052600e602052604060002090565b600954612899906105d0906001600160a01b031681565b905190825180809581946328dac05d60e21b8352602435600484016136c5565b03915afa918215610683576000916000936128e1575b50519081526020810191909152604090f35b816128fe92945061063e93503d851161133a5761131f8183610a18565b9290916128cf565b346102f75760008060031936011261097a578081600f8054915b82851061293257604051848152602090f35b9091926129a360019184845261299d600361296889600080516020615b138339815191520154600052600e602052604060002090565b0154600d61299561298561297b8c612be4565b90549060031b1c90565b600052600e602052604060002090565b015490612ee8565b906136fe565b940193929190612920565b346102f7576101003660031901126102f7576129c861030b565b6001600160401b036044358181116102f7576129e89036906004016103f6565b92906064358381116102f757612a02903690600401610553565b936084358481116102f757612a1b903690600401610a7d565b60a4359485116102f75761063e95612a3a61062e963690600401610a7d565b92612a43610ae7565b94612a4c610318565b9660243590613962565b346102f75760003660031901126102f7576006546040516001600160a01b039091168152602090f35b346102f75760003660031901126102f7576020600c54604051908152f35b346102f75760203660031901126102f757600435612aba816102e6565b600d54906001600160a01b03908183163303612ae4576001600160a01b0319909216911617600d55005b60405163dcf0398d60e01b8152600490fd5b346102f75760203660031901126102f757600a5460043590612b20906001600160a01b03166105d0565b60405163273bed1d60e21b81523360048201526024810183905290602090829060449082905afa90811561068357600091612b65575b501561064257610bac906139e8565b612b7e915060203d60201161067c5761066e8183610a18565b38612b56565b346102f757602060ff612bc2612b99366123d8565b6001600160a01b0391821660009081526001865260408082209290931681526020919091522090565b54166040519015158152f35b634e487b7160e01b600052603260045260246000fd5b600f54811015612c0957600f600052600080516020615b138339815191520190600090565b612bce565b346102f75760203660031901126102f757600435600f548110156102f757602090600f600052600080516020615b138339815191520154604051908152f35b346102f75760a03660031901126102f757600435612c6a816102e6565b602435612c76816102e6565b6084356001600160401b0381116102f757612c95903690600401610c1f565b906001600160a01b03838116903382141580612d4e575b612d2757821615612d0e5715612cf657610bac92612cee6064356044359160405192600184526020840152604083019160018352606084015260808301604052565b92909161519e565b604051626a0d4560e21b815260006004820152602490fd5b604051632bfa23e760e11b815260006004820152602490fd5b60405163711bec9160e11b81523360048201526001600160a01b0386166024820152604490fd5b50600082815260016020908152604080832033845290915290205460ff1615612cac565b346102f75760203660031901126102f757600435612d8f816102e6565b612d97613b58565b6001600160a01b03908116908115612de657600354826001600160601b0360a01b821617600355167f8be0079c531659141344cd1fd0a4f28419497f9722a3daafe3b4186f6b6457e0600080a3005b604051631e4fbdf760e01b815260006004820152602490fd5b805415612c0957600052602060002090600090565b8054821015612c095760005260206000209060011b0190600090565b346102f75760203660031901126102f7576004356005548110156102f757600560005260011b7f036b6384b5eca791c62761152d0c79bb0604c104a5fb6f4eb0703f3154bb3db181600080516020615ab383398151915201549101549061063e6040519283928360209093929193604081019481520152565b346102f75760003660031901126102f7576009546040516001600160a01b039091168152602090f35b634e487b7160e01b600052601160045260246000fd5b9190820391821161232e57565b60405190612f02826109fd565b60008252565b3d15612f33573d90612f1982610bcd565b91612f276040519384610a18565b82523d6000602084013e565b606090565b908160209103126102f75751610c3a81610add565b6040513d6000823e3d90fd5b9060209182818303126102f7578051906001600160401b0382116102f7570181601f820112156102f757805192612f8f84610a66565b93604093612fa06040519687610a18565b818652828087019260061b850101938185116102f7578301915b848310612fca5750505050505090565b85838303126102f7578386918251612fe1816109e2565b855181528286015183820152815201920191612fba565b9392916130289061301a60609360008852608060208901526080880190610e81565b908682036040880152610e81565b930152565b600b54600c546040516309a257cd60e41b815260048101849052608060248201529694929360009388936001600160a01b0316928492839261308991613077906084860190610e81565b84810360031901604486015290610e81565b90606483015203915afa938415610683576000946131ec575b5060019360016130bc83600052600e602052604060002090565b0154156130ca575050505050565b84906130e083600052600e602052604060002090565b600754600e820180546001600160a01b039283166001600160a01b0319918216179091556006548354908316908216178355600854600f8401805491909316911617905560010195600091905b6131a0575b5050508261313f826145eb565b61314a575b80611c75565b6002845410801561318a575b6131785761316661316e94612dff565b505491614d2e565b5038808080613144565b60405163083487a760e21b8152600490fd5b50600161319685612dff565b5001541515613156565b80518210156131e75782826131e06131b983958561354a565b51516020806131c8858861354a565b510151906131d4610a59565b9283528201528a6145a1565b019161312d565b613132565b61320a9194503d806000833e6132028183610a18565b810190612f59565b92386130a2565b969795949761321e613b58565b600954613235906105d0906001600160a01b031681565b90813b156102f7576040805163169f6b0560e11b81526001600160a01b038b16600480830191909152919860009492939290918581602481855afa801561068357613537575b50803b156134fa57895163f610a03960e01b81526001600160a01b0387168582019081528690829081906020010381855afa801561068357613524575b50803b156134fa57895163f8e0044b60e01b81526001600160a01b0388168582019081528690829081906020010381855afa801561068357613511575b50803b156134fa57895163130d243760e21b81526001600160a01b038916858201908152909186918391908290819060200103915afa8015610683576134fe575b506001600160a01b03881690813b156134fa578951632326e3db60e01b81529385858061338787867f0000000000000000000000000000000000000000000000000000000000000000878501614621565b0381865afa8015610683578e9b87966133c1926134e7575b506133a861464c565b516309a257cd60e41b81529e8f95869485948501612ff8565b03915afa9889156106835781996134cb575b505b885181101561341a57806134146133ee6001938c61354a565b51516020806133fd858f61354a565b51015190613409610a59565b92835282015261453b565b016133d5565b506134c6949597506134a9929161346f61348c926134526103099a60018060a01b03166001600160601b0360a01b6006541617600655565b60018060a01b03166001600160601b0360a01b6007541617600755565b60018060a01b03166001600160601b0360a01b6008541617600855565b60018060a01b03166001600160601b0360a01b600a541617600a55565b60018060a01b03166001600160601b0360a01b600b541617600b55565b600c55565b6134e09199503d808b833e6132028183610a18565b97386133d3565b806110856134f4926109cf565b3861339f565b8480fd5b8061108561350b926109cf565b38613336565b8061108561351e926109cf565b386132f5565b80611085613531926109cf565b386132b8565b80611085613544926109cf565b3861327b565b8051821015612c095760209160051b010190565b919091805183518082036135fb57505080519061359361357d83610a66565b9261358b6040519485610a18565b808452610a66565b60209190601f1901368484013760005b81518110156135f357600581901b8281018401519087018401516000908152602081815260408083206001600160a01b0390941683529290522054600191906135ec828761354a565b52016135a3565b509193505050565b604051635b05999160e01b815260048101919091526024810191909152604490fd5b610c3a9054611c0c565b9060405160c081018181106001600160401b0382111761054e5760405260a06136aa6012839561365681611b99565b8552600e8101546001851b60001901166020860152600f8101546001600160a01b0316604086015260108101546001600160a01b0316606086015260118101546001600160a01b0316608086015201611cdc565b910152565b91908260409103126102f7576020825192015190565b604090610c3a939281528160208201520190611cf7565b91908260809103126102f7578151916020810151916060604083015192015190565b9190820180921161232e57565b90816101209103126102f75780519160208201519160408101519160608201519160808101519160a08201519160c08101519161010060e083015192015190565b906020610c3a928181520190611c46565b9081548082526020809201926000526020600020916000905b828210613784575050505090565b835485526001808501548683015260409095019460029094019390910190613776565b91610c3a918352604060208401526137d9604084016137cc835460018060a01b031690565b6001600160a01b03169052565b6101c06060840152600b6101a06137f761020086016001850161375d565b60028401546080870152600384015460a0870152600484015460c0870152600584015460e08701526006840154610100870152600784015461012087015260088401546101408701526009840154610160870152600a84015461018087015294019101600260409180548452600181015460208501520154910152565b9061388760209282815194859201610829565b0190565b9060405191826020600090600454906138a382611c0c565b9160019081811690811561393957506001146138d8575b5050506138ca9061030993613874565b03601f198101845283610a18565b9091925060046000527f8a35acfbc15ff81a39ae7d344fd709f28e8600b4aa8c65c6b64bfe7fe36bd19b906000915b84831061392357505050508101602001826138ca6103096138ba565b8054898401850152889550918301918101613907565b90506138ca9450602092506103099693915060ff191682860152801515028401019181946138ba565b600a5460405163273bed1d60e21b815233600482015260248101849052979995989497939692959194929391929190602090829060449082906001600160a01b03165afa908115610683576000916139c9575b501561064257610c3a98610629938661302d565b6139e2915060203d60201161067c5761066e8183610a18565b386139b5565b600554906139f582610a66565b91604090613a066040519485610a18565b80845260056000908152602092600080516020615ab383398151915290848088015b858510613b2b575050505050506001926001613a4e84600052600e602052604060002090565b015415613a5c575b50505050565b908390613a7384600052600e602052604060002090565b600754600e820180546001600160a01b039283166001600160a01b0319918216179091556006548354908316908216178355600854600f84018054919093169116179055600101916000905b613adb575b50505050613ad291506145eb565b38808080613a56565b8351811015613b2657908582613b1c613af7879695849861354a565b515184613b04848961354a565b510151613b0f610a59565b91825285820152856145a1565b0190919293613abf565b613ac4565b6001916002918451613b3c816109e2565b8654815284870154838201528152019301930192918590613a28565b6003546001600160a01b03163303613b6c57565b60405163118cdaa760e01b8152336004820152602490fd5b818110613b8f575050565b60008155600101613b84565b90601f8211613ba8575050565b6103099160026000527f405787fa12a823e0f2b7631cc41b3ba8828b3321ca811111fa75cd3aa3bb5ace906020601f840160051c83019310613bf2575b601f0160051c0190613b84565b9091508190613be5565b9190601f8111613c0b57505050565b610309926000526020600020906020601f840160051c83019310613bf257601f0160051c0190613b84565b908060209392818452848401376000828201840152601f01601f1916010190565b35906001600160401b03821682036102f757565b9035601e19823603018112156102f75701602081359101916001600160401b0382116102f7578160051b360383136102f757565b81835290916001600160fb1b0383116102f75760209260051b809284830137010190565b9035601e19823603018112156102f75701602081359101916001600160401b0382116102f75781360383136102f757565b929190613d0991604085526040850191613c36565b91602081840391015280359160fe19823603018312156102f757613ddf613dd483610c3a9501604084526001600160401b03613d4482613c57565b166040850152613d69613d5960208301613c57565b6001600160401b03166060860152565b60408101356080850152606081013560a0850152608081013560c085015260a081013560e0850152613dc1613db6613da460c0840184613c6b565b61010080890152610140880191613c9f565b9160e0810190613c6b565b858303603f190161012087015290613c9f565b926020810190613cc3565b916020818503910152613c36565b908160609103126102f75780519160406020830151613e0b816102e6565b920151610c3a816102e6565b916020610c3a938181520191613c36565b9092916001600160401b03811161054e57613e4d81613e478454611c0c565b84613bfc565b6000601f8211600114613e8d578190613e7e939495600092613e825750508160011b916000199060031b1c19161790565b9055565b0135905038806104a2565b601f19821694613ea284600052602060002090565b91805b878110613edd575083600195969710613ec3575b505050811b019055565b0135600019600384901b60f8161c19169055388080613eb9565b90926020600181928686013581550194019101613ea5565b92909391613f0d85600052600e602052604060002090565b916012830191613f1d8354611c0c565b614501576001600160a01b03861660009081526011602052604090205460ff1615611a6b5760408051634b243ea360e11b815290966004966001600160a01b0395929190829087908290613f759089898e8501613cf4565b03921691815a93602094fa8015610683576144e2575b50613fc7606084613fab6105d06105d0600f8b015460018060a01b031690565b8a51630d02d25f60e11b81529384928391829189838f01613e17565b03915afa90811561068357600080916000936144af575b508a0361447a576010870180546001600160a01b039283166001600160a01b031991821617909155601188018054939092169216919091179055614023929190613e28565b6000918294866006830193600a840197885490865480614382575b506007860197885480614275575b5060098701998a548061414f575b50509360009a9997936140768c9a9793948b99958a98856148a3565b50505084549087549361408985846136fe565b946140968c5480976136fe565b95866140ac575b50505050505050505555555590565b61128c6140c892600080516020615af3833981519152966136fe565b600d546140fd906140f5906140e5906001600160a01b03166116f4565b89546001600160a01b031661171a565b9182546136fe565b9055600d5461413f908390614124906001600160a01b03165b98546001600160a01b031690565b92519384931697169582919060206040840193600381520152565b0390a438808a818080808061409d565b9190929394955061416f6105d06105d0600e8b015460018060a01b031690565b91878051809463cf54ee1d60e01b82528180614192868a83019190602083019252565b03915afa93841561068357600093600095614250575b50816141b486866136fe565b1161420f57508b999560009d9c958f948f9d9a966141f48f9d99928e9c976141fa946141ed614076996141e787866136fe565b90612ee8565b90556136fe565b926136fe565b95999c509397509498508195999b9c5061405a565b610d449089519182916329c45f6760e01b83528201606090602081526011602082015270756e636c61696d65644275726e4665657360781b60408201520190565b90945061426b919350883d8a1161133a5761131f8183610a18565b92909293386141a8565b91929394506142c89060808361429a6105d06105d0600e8d015460018060a01b031690565b8d600c8c0154908b519687948593849363f5b0402760e01b8552840160209093929193604081019481520152565b03915afa92831561068357600092600094614359575b50806142ea85856136fe565b11614319578284928f989796956141f4936141e761430b92614312986136fe565b8d556136fe565b903861404c565b87516329c45f6760e01b81526020818e0181815260119181019190915270756e636c61696d65644275726e4665657360781b604082015281906060010390fd5b90935061437691925060803d6080116112eb576112d78183610a18565b509291509192386142de565b90506143d597919293506080816143a86105d06105d0600e8b015460018060a01b031690565b600b89015488516370f986fd60e01b8152808e019182526020820193909352919a8b928391829160400190565b03915afa978815610683578298614453575b50806143f389846136fe565b11614413579061440a8b9493926141e78a846136fe565b8755963861403e565b84516329c45f6760e01b81526020818b0181815260119181019190915270756e636c61696d65644d696e744665657360781b604082015281906060010390fd5b90975061446f915060803d6080116112eb576112d78183610a18565b5091509096386143e7565b88516329c45f6760e01b81526020818a01818152600691810191909152651d185c19525960d21b604082015281906060010390fd5b9150506144d4915060603d6060116144db575b6144cc8183610a18565b810190613ded565b9138613fde565b503d6144c2565b6144fa9060203d60201161067c5761066e8183610a18565b5038613f8b565b6040516329c45f6760e01b8152602060048201526011602482015270185b1c9958591e481d985b1a59185d1959607a1b6044820152606490fd5b600554600160401b81101561054e576001810180600555811015612c095760207f036b6384b5eca791c62761152d0c79bb0604c104a5fb6f4eb0703f3154bb3db191600560005260011b92805184600080516020615ab383398151915201550151910155565b8054600160401b81101561054e576145be91600182018155612e14565b9190916145d5576020816001925184550151910155565b634e487b7160e01b600052600060045260246000fd5b600f54600160401b81101561054e576001810180600f55811015612c0957600f600052600080516020615b138339815191520155565b9161463e90610c3a94928452606060208501526060840190610e81565b916040818403910152610e81565b6005546000806005558161465e575050565b60016001600160ff1b038316830361232e576005600052600080516020615ab38339815191529260011b8301925b8381106146995750505050565b80836002925583838201550161468c565b6001600160a01b038116929091908315612cf6576146e560405192600184526020840152604083019160018352606084015260808301604052565b919060409460006040516146f8816109fd565b5281518451908181036135fb57505060005b82518110156147a0578060051b6020808286010151918701015161473c866106c5846000526000602052604060002090565b5481811061476a57866106c560019594936147639303936000526000602052604060002090565b550161470a565b89516303dee4c560e01b81526001600160a01b038816600482015260248101919091526044810182905260648101839052608490fd5b509450600093929150600181511484146147f75760209081015191810151604080519384529183015233917fc3d58168c5ae7397731d063d5bbf3d657854427343f4c083240f7aacaa2d0f6291819081015b0390a4565b60405133927f4a39dc06d4c0dbc64b70af90fd698a233a518aa5d07e595d983b8c0526c8f7fb9282916147f29183615795565b60209081818403126102f7578051906001600160401b0382116102f757019180601f840112156102f757825161485f81610a66565b9361486d6040519586610a18565b818552838086019260051b8201019283116102f7578301905b828210614894575050505090565b81518152908301908301614886565b9391936148ba81600052600e602052604060002090565b90601282016148c98154611c0c565b6148d557505050929190565b919460009694969391939486869261491f886149016105d06105d0600f8497015460018060a01b031690565b976040988951808095819463dddf33e160e01b83526004830161374c565b03915afa908115610683578991614d14575b508051879015614cb65750614987600e8b01918a61495b6105d06105d0865460018060a01b031690565b82518b516322cc0efb60e01b815260048101889052602481019190915293849190829081906044820190565b03915afa9081156106835789946149a5938d93614c91575b506153a5565b9081614c15575b5050505b6010880180546001600160a01b0395918a9187168015614c015793838a959389614a39614a2b614a69968a98614a1c6140f5614a0c6149f08b899f6136fe565b6001600160a01b03909416600090815260106020526040902090565b88546001600160a01b031661171a565b9055546001600160a01b031690565b92546001600160a01b031690565b9116958691169687928c5180600080516020615af383398151915297889382919060206040840193600481520152565b0390a480614be5575b50505050505b6011870180546001600160a01b03168881861615614bcd579383614ae0899694614b1d94614a1c6140f58a9861171a614ad2614ab68f9d8b906136fe565b6001600160a01b03909616600090815260106020526040902090565b91546001600160a01b031690565b8b5486906001600160a01b03169116958691169687928a5180600080516020615af383398151915297889382919060206040840193600581520152565b0390a480614bb1575b50505050505b83614b42575b5050505050600090600090600090565b600d54600080516020615af38339815191529290614b7c90614b6c906001600160a01b03166116f4565b87546001600160a01b031661171a565b614b878682546136fe565b9055600d54614ba4908390614124906001600160a01b0316614116565b0390a43880808080614b32565b8651600281526020810191909152604090a43880848180614b26565b505050614bdf92959161299d916136fe565b92614b2c565b8851600281526020810191909152604090a43880868180614a72565b505050614c0f9297506136fe565b94614a78565b54614c52955091925090614c33906105d0906001600160a01b031681565b8251808096819463cf54ee1d60e01b8352600483019190602083019252565b03915afa80156106835786928791614c6e575b508438806149ac565b9050614c88919250843d861161133a5761131f8183610a18565b91909138614c65565b614caf9193508d3d8091833e614ca78183610a18565b81019061482a565b913861499f565b600e8b0154614cd89650909350614c3391506105d0906001600160a01b031681565b03915afa80156106835786928791614cf1575b506149b0565b9050614d0b919250843d861161133a5761131f8183610a18565b91909138614ceb565b614d2891503d808b833e614ca78183610a18565b38614931565b600093828552600e6020526040600181872001541561518e576000848152600e602052604090206001600160a01b039384169190600954614d79906105d0906001600160a01b031681565b928251976323ba203560e21b895283896004968180614d9b88878c84016137a7565b03915afa958615610683578a998b97615169575b508a908b908c8c8192158015615160575b8015615148575b61509e575b8261128c8361128c8761128c8a614de2976136fe565b9d8e61508e5787548c166001600160a01b03161561501757614e578f6020908b8d858c614e1c8f6105d06105d0915460018060a01b031690565b93516323b872dd60e01b81526001600160a01b0390911692810192835230602084015260408301949094529294859384929091839160600190565b03925af19182156106835791614ff8575b5015614fe857908b949392915b60028801809e815490614e87916136fe565b90556003880199858b5490614e9b916136fe565b8b55600b890186815490614eae916136fe565b905588019a8b55614ebf92866148a3565b91614ec9916136fe565b6006870190815490614eda916136fe565b9055600a860190815490614eed916136fe565b9055600d546001600160a01b03908116600090815260106020908152604080832089549094168352929052208054614f269083906136fe565b9055600d54855487516000815260208101939093528a166001600160a01b0390811692918b1616908490600080516020615af383398151915290604090a4614f6c612ef5565b614f7890828486615654565b8451908152602081018b90527f5bd6f821d5961785d719543640cf62d3770f94e59db1a2f3c2250d72b122dddf90604090a354925491549554905191825260208201959095526040810194909452166001600160a01b031691600080516020615ad383398151915290606090a390565b875163f570efeb60e01b81528990fd5b615011915060203d60201161067c5761066e8183610a18565b38614e68565b9e9b989d9a979c99969594939291908b3410600014615040578d5163bd9c85bb60e01b81528f90fd5b899c9f8c9f9a9697989b9e999c80341161505c575b5050614e75565b818093949596979850615070819234612ee8565b8a5af161507b612f08565b5015614fe857908b94939291388f615055565b8851636bdbc20960e11b81528a90fd5b600e8801546150eb9550608094509092506150c491506105d0906001600160a01b031681565b87516370f986fd60e01b815289810186815260208101939093529384928391829160400190565b03915afa9081156106835761128c61128c918c938e80918190829061511a575b92969095509193509150614dcc565b50505050614de261513c61128c9260803d6080116112eb576112d78183610a18565b9294508493509161510b565b506001615156818a01612dff565b5001541515614dc7565b50801515614dc0565b909650615184919950843d861161133a5761131f8183610a18565b9890989538614daf565b51631d8ce09b60e31b8152600490fd5b9491909181518451908181036135fb57505060005b82518110156152a157600581901b83810160209081015191870101516001600160a01b03929186908a851661521b575b60019482166151f6575b505050016151b3565b615211916106c56140f5926000526000602052604060002090565b90553885816151ed565b91929390506152388a6106c5846000526000602052604060002090565b5483811061526a57918791846001969594036152628d6106c5856000526000602052604060002090565b5594506151e3565b6040516303dee4c560e01b81526001600160a01b038c16600482015260248101919091526044810184905260648101839052608490fd5b50949193929093600185511460001461534b576020858101518382015160408051928352928201526001600160a01b03838116929086169133917fc3d58168c5ae7397731d063d5bbf3d657854427343f4c083240f7aacaa2d0f6291a45b6001600160a01b038116615314575050505050565b845160010361533a576020806153309601519201519233615a7b565b3880808080611c75565b61534694919233615947565b615330565b6040516001600160a01b03828116919085169033907f4a39dc06d4c0dbc64b70af90fd698a233a518aa5d07e595d983b8c0526c8f7fb908061538e888c83615795565b0390a46152ff565b600019811461232e5760010190565b91600091835b6153b6575b50505090565b828151111561564f57828251111561564f576153d2838261354a565b51936153de848461354a565b51946153f481600052600e602052604060002090565b906154026012830154611c0c565b1561563057600e82015461544d939291600091615429906105d0906001600160a01b031681565b6040998a918251808099819463cf54ee1d60e01b8352600483019190602083019252565b03915afa988915610683576155939961558b9684908592615610575b506010860180546001600160a01b0393919084168015615605576001600160a01b031660009081526010602052604090206154be91906154b3908a546001600160a01b031661171a565b614a1c8482546136fe565b9085600080516020615af3833981519152856154e08b5460018060a01b031690565b88516002815260208101959095528116941692604090a45b6011860180546001600160a01b0316808416156155f3576001600160a01b0316600090815260106020526040902061553491906154b3906140e5565b9084600080516020615af3833981519152846155568a5460018060a01b031690565b87516002815260208101959095528116941692604090a45b83615599575b50505050505b615584858561354a565b5190612ee8565b938493615396565b926153ab565b600080516020615af3833981519152916155e682614124614116600d6155db6155cb6116f4835460018060a01b031690565b8c546001600160a01b031661171a565b614a1c8b82546136fe565b0390a43880808080615574565b50506155ff91946136fe565b9261556e565b5050909450936154f8565b90506156299150823d841161133a5761131f8183610a18565b9038615469565b509061559395615648600961558b94019182546136fe565b905561557a565b6153b0565b6001600160a01b03811693929091908415612d0e5761569060405192600184526020840152604083019160018352606084015260808301604052565b9281518451908181036135fb57505060005b82518110156156e2578060019160051b6156da6140f5876106c5602080868b010151958c010151946000526000602052604060002090565b9055016156a2565b5092919360018251146000146157595760208281015184820151604080519283529282015260009133917fc3d58168c5ae7397731d063d5bbf3d657854427343f4c083240f7aacaa2d0f629190a45b805160010361574f5790602080610309959301519101519133615a46565b610309933361584c565b60006040517f4a39dc06d4c0dbc64b70af90fd698a233a518aa5d07e595d983b8c0526c8f7fb33918061578d888883615795565b0390a4615731565b90916157ac610c3a93604084526040840190610e81565b916020818403910152610e81565b908160209103126102f75751610c3a81610376565b926157fe610c3a959361580c9360018060a01b031686526000602087015260a0604087015260a0860190610e81565b908482036060860152610e81565b91608081840391015261084c565b9390610c3a95936157fe9161580c9460018060a01b03809216885216602087015260a0604087015260a0860190610e81565b9293919093843b61585e575050505050565b602091615881604051948593849363bc197c8160e01b98898652600486016157cf565b038160006001600160a01b0388165af160009181615916575b506158d957826158a8612f08565b80519190826158d257604051632bfa23e760e11b81526001600160a01b0383166004820152602490fd5b9050602001fd5b6001600160e01b031916036158f357503880808080611c75565b604051632bfa23e760e11b81526001600160a01b03919091166004820152602490fd5b61593991925060203d602011615940575b6159318183610a18565b8101906157ba565b903861589a565b503d615927565b939290949194853b61595c575b505050505050565b61597f602093604051958694859463bc197c8160e01b998a87526004870161581a565b038160006001600160a01b0388165af1600091816159c1575b506159a657826158a8612f08565b6001600160e01b031916036158f35750388080808080615954565b6159db91925060203d602011615940576159318183610a18565b9038615998565b909260a092610c3a9594600180861b031683526000602084015260408301526060820152816080820152019061084c565b9192610c3a95949160a094600180871b03809216855216602084015260408301526060820152816080820152019061084c565b9293919093843b615a58575050505050565b602091615881604051948593849363f23a6e6160e01b98898652600486016159e2565b939290949194853b615a8f57505050505050565b61597f602093604051958694859463f23a6e6160e01b998a875260048701615a1356fe036b6384b5eca791c62761152d0c79bb0604c104a5fb6f4eb0703f3154bb3db02e67857c5e095aa37c99fc8a2a3d065e50197554891c3cf1f318b1996b66469c4b984622ccd95d46d58ee4b4ec121acbc6f1d9de4a5997f2013e0daf02c101048d1108e10bcb7c27dddfc02ed9d693a074039d026cf4ea4240b40f7d581ac802a2646970667358221220b99de368c2ca952752029b0651ceaceff4236601e8dcc9e3f4266b4c3500ad4264736f6c63430008180033","linkReferences":{}},"methodIdentifiers":{"accounts(address,address)":"ad74b775","balanceOf(address,uint256)":"00fdd58e","balanceOfBatch(address[],uint256[])":"4e1273f4","bondingCurveSteps(uint256)":"fa1c4db6","buyTapes(bytes32,uint256,uint256)":"9165f843","changeTapeModel(bytes32,address)":"5db8076c","consumeTapes(bytes32,uint256)":"b495bbb0","currencyTokenAddress()":"d3c3b389","dappAddresses(address)":"787ca438","exists(bytes32)":"38a699a4","feeModelAddress()":"3ab03c8b","getCurrentBuyPrice(bytes32,uint256)":"724969e7","getCurrentConsumePrice(bytes32,uint256)":"bbfef088","getCurrentSellPrice(bytes32,uint256)":"b16cae66","getTapeData(bytes32)":"796aea77","isApprovedForAll(address,address)":"e985e9c5","maxSupply()":"d5abeb01","maxTapeSupply(bytes32)":"9ba01fbe","owner()":"8da5cb5b","renounceOwnership()":"715018a6","safeBatchTransferFrom(address,address,uint256[],uint256[],bytes)":"2eb2c2d6","safeTransferFrom(address,address,uint256,uint256,bytes)":"f242432a","sellTapes(bytes32,uint256,uint256)":"828ef8d9","setApprovalForAll(address,bool)":"a22cb465","setDapp(address,bool)":"8d3b5235","setTapeParams(bytes32)":"e5a41243","setTapeParamsCustom(bytes32,uint256[],uint256[],bool,address)":"24b4f8ff","setURI(string)":"02fe5305","supportsInterface(bytes4)":"01ffc9a7","tapeBondUtilsAddress()":"fabe3824","tapeBondingCurveModelAddress()":"3b6e02af","tapeBonds(bytes32)":"8f8b185b","tapeBondsCreated(uint256)":"eb596d01","tapeModelAddress()":"6a386ed2","tapeOwnershipModelAddress()":"22f046b5","tapesCount()":"7fb90ea6","totalTapes()":"c5b67e81","transferOwnership(address)":"f2fde38b","updateBondingCurveParams(address,address,address,address,address,uint256,uint256[],uint256[])":"3ff72137","updateProtocolWallet(address)":"e308a099","uri(bytes32)":"9ed19ddb","uri(uint256)":"0e89341c","validateTape(address,bytes32,bytes,((uint64,uint64,bytes32,bytes32,bytes32,bytes32,bytes32[],bytes32[]),bytes))":"07974110","validateTapeCustom(address,bytes32,bytes,((uint64,uint64,bytes32,bytes32,bytes32,bytes32,bytes32[],bytes32[]),bytes),uint256[],uint256[],bool,address)":"c5e2f1e4","withdrawBalance(address,uint256)":"0cf20cc9"},"id":83}